{
	"24_ContractFactory.sol": {
		"ItemFactory": {
			"abi": [
				{
					"inputs": [
						{
							"internalType": "address",
							"name": "_owner",
							"type": "address"
						},
						{
							"internalType": "string",
							"name": "_name",
							"type": "string"
						}
					],
					"name": "create",
					"outputs": [],
					"stateMutability": "nonpayable",
					"type": "function"
				},
				{
					"inputs": [
						{
							"internalType": "address",
							"name": "_owner",
							"type": "address"
						},
						{
							"internalType": "string",
							"name": "_name",
							"type": "string"
						}
					],
					"name": "createAndSendEth",
					"outputs": [],
					"stateMutability": "payable",
					"type": "function"
				},
				{
					"inputs": [
						{
							"internalType": "address",
							"name": "_owner",
							"type": "address"
						},
						{
							"internalType": "string",
							"name": "name",
							"type": "string"
						},
						{
							"internalType": "bytes32",
							"name": "_salt",
							"type": "bytes32"
						}
					],
					"name": "createWithSalt",
					"outputs": [],
					"stateMutability": "nonpayable",
					"type": "function"
				},
				{
					"inputs": [
						{
							"internalType": "address",
							"name": "_owner",
							"type": "address"
						},
						{
							"internalType": "string",
							"name": "name",
							"type": "string"
						},
						{
							"internalType": "bytes32",
							"name": "_salt",
							"type": "bytes32"
						}
					],
					"name": "createWithSaltAndSendEth",
					"outputs": [],
					"stateMutability": "payable",
					"type": "function"
				},
				{
					"inputs": [
						{
							"internalType": "uint256",
							"name": "_index",
							"type": "uint256"
						}
					],
					"name": "getItem",
					"outputs": [
						{
							"internalType": "address",
							"name": "owner",
							"type": "address"
						},
						{
							"internalType": "string",
							"name": "name",
							"type": "string"
						},
						{
							"internalType": "address",
							"name": "addr",
							"type": "address"
						},
						{
							"internalType": "uint256",
							"name": "balance",
							"type": "uint256"
						}
					],
					"stateMutability": "view",
					"type": "function"
				},
				{
					"inputs": [
						{
							"internalType": "uint256",
							"name": "",
							"type": "uint256"
						}
					],
					"name": "items",
					"outputs": [
						{
							"internalType": "contract Item",
							"name": "",
							"type": "address"
						}
					],
					"stateMutability": "view",
					"type": "function"
				},
				{
					"inputs": [
						{
							"internalType": "string",
							"name": "str",
							"type": "string"
						}
					],
					"name": "stringToBytes32Hash",
					"outputs": [
						{
							"internalType": "bytes32",
							"name": "",
							"type": "bytes32"
						}
					],
					"stateMutability": "pure",
					"type": "function"
				}
			],
			"devdoc": {
				"kind": "dev",
				"methods": {},
				"version": 1
			},
			"evm": {
				"assembly": "    /* \"24_ContractFactory.sol\":298:1794  contract ItemFactory {... */\n  mstore(0x40, 0x80)\n  callvalue\n  dup1\n  iszero\n  tag_1\n  jumpi\n  revert(0x00, 0x00)\ntag_1:\n  pop\n  dataSize(sub_0)\n  dup1\n  dataOffset(sub_0)\n  0x00\n  codecopy\n  0x00\n  return\nstop\n\nsub_0: assembly {\n        /* \"24_ContractFactory.sol\":298:1794  contract ItemFactory {... */\n      mstore(0x40, 0x80)\n      jumpi(tag_1, lt(calldatasize, 0x04))\n      shr(0xe0, calldataload(0x00))\n      dup1\n      0x85d21177\n      gt\n      tag_9\n      jumpi\n      dup1\n      0x85d21177\n      eq\n      tag_5\n      jumpi\n      dup1\n      0xa15ab08d\n      eq\n      tag_6\n      jumpi\n      dup1\n      0xbfb231d2\n      eq\n      tag_7\n      jumpi\n      dup1\n      0xc5624050\n      eq\n      tag_8\n      jumpi\n      jump(tag_1)\n    tag_9:\n      dup1\n      0x1899d357\n      eq\n      tag_2\n      jumpi\n      dup1\n      0x3129e773\n      eq\n      tag_3\n      jumpi\n      dup1\n      0x823d7c78\n      eq\n      tag_4\n      jumpi\n    tag_1:\n      revert(0x00, 0x00)\n        /* \"24_ContractFactory.sol\":616:790  function createAndSendEth(address _owner, string memory _name) payable public {... */\n    tag_2:\n      tag_10\n      0x04\n      dup1\n      calldatasize\n      sub\n      dup2\n      add\n      swap1\n      tag_11\n      swap2\n      swap1\n      tag_12\n      jump\t// in\n    tag_11:\n      tag_13\n      jump\t// in\n    tag_10:\n      stop\n        /* \"24_ContractFactory.sol\":1347:1590  function getItem(uint256 _index) public view returns (address owner, string memory name, address addr, uint256 balance ) {... */\n    tag_3:\n      callvalue\n      dup1\n      iszero\n      tag_14\n      jumpi\n      revert(0x00, 0x00)\n    tag_14:\n      pop\n      tag_15\n      0x04\n      dup1\n      calldatasize\n      sub\n      dup2\n      add\n      swap1\n      tag_16\n      swap2\n      swap1\n      tag_17\n      jump\t// in\n    tag_16:\n      tag_18\n      jump\t// in\n    tag_15:\n      mload(0x40)\n      tag_19\n      swap5\n      swap4\n      swap3\n      swap2\n      swap1\n      tag_20\n      jump\t// in\n    tag_19:\n      mload(0x40)\n      dup1\n      swap2\n      sub\n      swap1\n      return\n        /* \"24_ContractFactory.sol\":869:1041  function createWithSalt(address _owner, string memory name, bytes32 _salt) public {... */\n    tag_4:\n      callvalue\n      dup1\n      iszero\n      tag_21\n      jumpi\n      revert(0x00, 0x00)\n    tag_21:\n      pop\n      tag_22\n      0x04\n      dup1\n      calldatasize\n      sub\n      dup2\n      add\n      swap1\n      tag_23\n      swap2\n      swap1\n      tag_24\n      jump\t// in\n    tag_23:\n      tag_25\n      jump\t// in\n    tag_22:\n      stop\n        /* \"24_ContractFactory.sol\":1095:1305  function createWithSaltAndSendEth (address _owner, string memory name, bytes32 _salt) public  payable {... */\n    tag_5:\n      tag_26\n      0x04\n      dup1\n      calldatasize\n      sub\n      dup2\n      add\n      swap1\n      tag_27\n      swap2\n      swap1\n      tag_24\n      jump\t// in\n    tag_27:\n      tag_28\n      jump\t// in\n    tag_26:\n      stop\n        /* \"24_ContractFactory.sol\":398:536  function create(address _owner, string memory _name) public {... */\n    tag_6:\n      callvalue\n      dup1\n      iszero\n      tag_29\n      jumpi\n      revert(0x00, 0x00)\n    tag_29:\n      pop\n      tag_30\n      0x04\n      dup1\n      calldatasize\n      sub\n      dup2\n      add\n      swap1\n      tag_31\n      swap2\n      swap1\n      tag_12\n      jump\t// in\n    tag_31:\n      tag_32\n      jump\t// in\n    tag_30:\n      stop\n        /* \"24_ContractFactory.sol\":325:344  Item[] public items */\n    tag_7:\n      callvalue\n      dup1\n      iszero\n      tag_33\n      jumpi\n      revert(0x00, 0x00)\n    tag_33:\n      pop\n      tag_34\n      0x04\n      dup1\n      calldatasize\n      sub\n      dup2\n      add\n      swap1\n      tag_35\n      swap2\n      swap1\n      tag_17\n      jump\t// in\n    tag_35:\n      tag_36\n      jump\t// in\n    tag_34:\n      mload(0x40)\n      tag_37\n      swap2\n      swap1\n      tag_38\n      jump\t// in\n    tag_37:\n      mload(0x40)\n      dup1\n      swap2\n      sub\n      swap1\n      return\n        /* \"24_ContractFactory.sol\":1656:1792  function stringToBytes32Hash(string memory str) external pure returns (bytes32) {... */\n    tag_8:\n      callvalue\n      dup1\n      iszero\n      tag_39\n      jumpi\n      revert(0x00, 0x00)\n    tag_39:\n      pop\n      tag_40\n      0x04\n      dup1\n      calldatasize\n      sub\n      dup2\n      add\n      swap1\n      tag_41\n      swap2\n      swap1\n      tag_42\n      jump\t// in\n    tag_41:\n      tag_43\n      jump\t// in\n    tag_40:\n      mload(0x40)\n      tag_44\n      swap2\n      swap1\n      tag_45\n      jump\t// in\n    tag_44:\n      mload(0x40)\n      dup1\n      swap2\n      sub\n      swap1\n      return\n        /* \"24_ContractFactory.sol\":616:790  function createAndSendEth(address _owner, string memory _name) payable public {... */\n    tag_13:\n        /* \"24_ContractFactory.sol\":704:713  Item item */\n      0x00\n        /* \"24_ContractFactory.sol\":732:741  msg.value */\n      callvalue\n        /* \"24_ContractFactory.sol\":743:749  _owner */\n      dup4\n        /* \"24_ContractFactory.sol\":751:756  _name */\n      dup4\n        /* \"24_ContractFactory.sol\":716:757  new Item{value: msg.value}(_owner, _name) */\n      mload(0x40)\n      tag_47\n      swap1\n      tag_48\n      jump\t// in\n    tag_47:\n      tag_49\n      swap3\n      swap2\n      swap1\n      tag_50\n      jump\t// in\n    tag_49:\n      mload(0x40)\n      dup1\n      swap2\n      sub\n      swap1\n      dup3\n      create\n      swap1\n      pop\n      dup1\n      iszero\n      dup1\n      iszero\n      tag_51\n      jumpi\n      returndatacopy(0x00, 0x00, returndatasize)\n      revert(0x00, returndatasize)\n    tag_51:\n      pop\n        /* \"24_ContractFactory.sol\":704:757  Item item = new Item{value: msg.value}(_owner, _name) */\n      swap1\n      pop\n        /* \"24_ContractFactory.sol\":767:772  items */\n      0x00\n        /* \"24_ContractFactory.sol\":778:782  item */\n      dup2\n        /* \"24_ContractFactory.sol\":767:783  items.push(item) */\n      swap1\n      dup1\n      0x01\n      dup2\n      sload\n      add\n      dup1\n      dup3\n      sstore\n      dup1\n      swap2\n      pop\n      pop\n      0x01\n      swap1\n      sub\n      swap1\n      0x00\n      mstore\n      keccak256(0x00, 0x20)\n      add\n      0x00\n      swap1\n      swap2\n      swap1\n      swap2\n      swap1\n      swap2\n      0x0100\n      exp\n      dup2\n      sload\n      dup2\n      0xffffffffffffffffffffffffffffffffffffffff\n      mul\n      not\n      and\n      swap1\n      dup4\n      0xffffffffffffffffffffffffffffffffffffffff\n      and\n      mul\n      or\n      swap1\n      sstore\n      pop\n        /* \"24_ContractFactory.sol\":694:790  {... */\n      pop\n        /* \"24_ContractFactory.sol\":616:790  function createAndSendEth(address _owner, string memory _name) payable public {... */\n      pop\n      pop\n      jump\t// out\n        /* \"24_ContractFactory.sol\":1347:1590  function getItem(uint256 _index) public view returns (address owner, string memory name, address addr, uint256 balance ) {... */\n    tag_18:\n        /* \"24_ContractFactory.sol\":1401:1414  address owner */\n      0x00\n        /* \"24_ContractFactory.sol\":1416:1434  string memory name */\n      0x60\n        /* \"24_ContractFactory.sol\":1436:1448  address addr */\n      0x00\n        /* \"24_ContractFactory.sol\":1450:1465  uint256 balance */\n      0x00\n        /* \"24_ContractFactory.sol\":1478:1487  Item item */\n      0x00\n        /* \"24_ContractFactory.sol\":1490:1495  items */\n      0x00\n        /* \"24_ContractFactory.sol\":1496:1502  _index */\n      dup7\n        /* \"24_ContractFactory.sol\":1490:1503  items[_index] */\n      dup2\n      sload\n      dup2\n      lt\n      tag_54\n      jumpi\n      tag_55\n      tag_56\n      jump\t// in\n    tag_55:\n    tag_54:\n      swap1\n      0x00\n      mstore\n      keccak256(0x00, 0x20)\n      add\n      0x00\n      swap1\n      sload\n      swap1\n      0x0100\n      exp\n      swap1\n      div\n      0xffffffffffffffffffffffffffffffffffffffff\n      and\n        /* \"24_ContractFactory.sol\":1478:1503  Item item = items[_index] */\n      swap1\n      pop\n        /* \"24_ContractFactory.sol\":1521:1525  item */\n      dup1\n        /* \"24_ContractFactory.sol\":1521:1531  item.owner */\n      0xffffffffffffffffffffffffffffffffffffffff\n      and\n      0x8da5cb5b\n        /* \"24_ContractFactory.sol\":1521:1533  item.owner() */\n      mload(0x40)\n      dup2\n      0xffffffff\n      and\n      0xe0\n      shl\n      dup2\n      mstore\n      0x04\n      add\n      0x20\n      mload(0x40)\n      dup1\n      dup4\n      sub\n      dup2\n      dup7\n      gas\n      staticcall\n      iszero\n      dup1\n      iszero\n      tag_59\n      jumpi\n      returndatacopy(0x00, 0x00, returndatasize)\n      revert(0x00, returndatasize)\n    tag_59:\n      pop\n      pop\n      pop\n      pop\n      mload(0x40)\n      returndatasize\n      not(0x1f)\n      0x1f\n      dup3\n      add\n      and\n      dup3\n      add\n      dup1\n      0x40\n      mstore\n      pop\n      dup2\n      add\n      swap1\n      tag_60\n      swap2\n      swap1\n      tag_61\n      jump\t// in\n    tag_60:\n        /* \"24_ContractFactory.sol\":1535:1539  item */\n      dup2\n        /* \"24_ContractFactory.sol\":1535:1544  item.name */\n      0xffffffffffffffffffffffffffffffffffffffff\n      and\n      0x06fdde03\n        /* \"24_ContractFactory.sol\":1535:1546  item.name() */\n      mload(0x40)\n      dup2\n      0xffffffff\n      and\n      0xe0\n      shl\n      dup2\n      mstore\n      0x04\n      add\n      0x00\n      mload(0x40)\n      dup1\n      dup4\n      sub\n      dup2\n      dup7\n      gas\n      staticcall\n      iszero\n      dup1\n      iszero\n      tag_63\n      jumpi\n      returndatacopy(0x00, 0x00, returndatasize)\n      revert(0x00, returndatasize)\n    tag_63:\n      pop\n      pop\n      pop\n      pop\n      mload(0x40)\n      returndatasize\n      0x00\n      dup3\n      returndatacopy\n      returndatasize\n      not(0x1f)\n      0x1f\n      dup3\n      add\n      and\n      dup3\n      add\n      dup1\n      0x40\n      mstore\n      pop\n      dup2\n      add\n      swap1\n      tag_64\n      swap2\n      swap1\n      tag_65\n      jump\t// in\n    tag_64:\n        /* \"24_ContractFactory.sol\":1548:1552  item */\n      dup3\n        /* \"24_ContractFactory.sol\":1548:1557  item.addr */\n      0xffffffffffffffffffffffffffffffffffffffff\n      and\n      0x767800de\n        /* \"24_ContractFactory.sol\":1548:1559  item.addr() */\n      mload(0x40)\n      dup2\n      0xffffffff\n      and\n      0xe0\n      shl\n      dup2\n      mstore\n      0x04\n      add\n      0x20\n      mload(0x40)\n      dup1\n      dup4\n      sub\n      dup2\n      dup7\n      gas\n      staticcall\n      iszero\n      dup1\n      iszero\n      tag_67\n      jumpi\n      returndatacopy(0x00, 0x00, returndatasize)\n      revert(0x00, returndatasize)\n    tag_67:\n      pop\n      pop\n      pop\n      pop\n      mload(0x40)\n      returndatasize\n      not(0x1f)\n      0x1f\n      dup3\n      add\n      and\n      dup3\n      add\n      dup1\n      0x40\n      mstore\n      pop\n      dup2\n      add\n      swap1\n      tag_68\n      swap2\n      swap1\n      tag_61\n      jump\t// in\n    tag_68:\n        /* \"24_ContractFactory.sol\":1569:1573  item */\n      dup4\n        /* \"24_ContractFactory.sol\":1561:1582  address(item).balance */\n      0xffffffffffffffffffffffffffffffffffffffff\n      and\n      balance\n        /* \"24_ContractFactory.sol\":1513:1583  return (item.owner(), item.name(), item.addr(), address(item).balance) */\n      swap5\n      pop\n      swap5\n      pop\n      swap5\n      pop\n      swap5\n      pop\n      pop\n        /* \"24_ContractFactory.sol\":1347:1590  function getItem(uint256 _index) public view returns (address owner, string memory name, address addr, uint256 balance ) {... */\n      swap2\n      swap4\n      pop\n      swap2\n      swap4\n      jump\t// out\n        /* \"24_ContractFactory.sol\":869:1041  function createWithSalt(address _owner, string memory name, bytes32 _salt) public {... */\n    tag_25:\n        /* \"24_ContractFactory.sol\":961:970  Item item */\n      0x00\n        /* \"24_ContractFactory.sol\":988:993  _salt */\n      dup2\n        /* \"24_ContractFactory.sol\":995:1001  _owner */\n      dup5\n        /* \"24_ContractFactory.sol\":1003:1007  name */\n      dup5\n        /* \"24_ContractFactory.sol\":973:1008  new Item{salt: _salt}(_owner, name) */\n      mload(0x40)\n      tag_70\n      swap1\n      tag_48\n      jump\t// in\n    tag_70:\n      tag_71\n      swap3\n      swap2\n      swap1\n      tag_50\n      jump\t// in\n    tag_71:\n      dup2\n      swap1\n      mload(0x40)\n      dup1\n      swap2\n      sub\n      swap1\n      0x00\n      create2\n      swap1\n      pop\n      dup1\n      iszero\n      dup1\n      iszero\n      tag_72\n      jumpi\n      returndatacopy(0x00, 0x00, returndatasize)\n      revert(0x00, returndatasize)\n    tag_72:\n      pop\n        /* \"24_ContractFactory.sol\":961:1008  Item item = new Item{salt: _salt}(_owner, name) */\n      swap1\n      pop\n        /* \"24_ContractFactory.sol\":1018:1023  items */\n      0x00\n        /* \"24_ContractFactory.sol\":1029:1033  item */\n      dup2\n        /* \"24_ContractFactory.sol\":1018:1034  items.push(item) */\n      swap1\n      dup1\n      0x01\n      dup2\n      sload\n      add\n      dup1\n      dup3\n      sstore\n      dup1\n      swap2\n      pop\n      pop\n      0x01\n      swap1\n      sub\n      swap1\n      0x00\n      mstore\n      keccak256(0x00, 0x20)\n      add\n      0x00\n      swap1\n      swap2\n      swap1\n      swap2\n      swap1\n      swap2\n      0x0100\n      exp\n      dup2\n      sload\n      dup2\n      0xffffffffffffffffffffffffffffffffffffffff\n      mul\n      not\n      and\n      swap1\n      dup4\n      0xffffffffffffffffffffffffffffffffffffffff\n      and\n      mul\n      or\n      swap1\n      sstore\n      pop\n        /* \"24_ContractFactory.sol\":951:1041  {... */\n      pop\n        /* \"24_ContractFactory.sol\":869:1041  function createWithSalt(address _owner, string memory name, bytes32 _salt) public {... */\n      pop\n      pop\n      pop\n      jump\t// out\n        /* \"24_ContractFactory.sol\":1095:1305  function createWithSaltAndSendEth (address _owner, string memory name, bytes32 _salt) public  payable {... */\n    tag_28:\n        /* \"24_ContractFactory.sol\":1207:1216  Item item */\n      0x00\n        /* \"24_ContractFactory.sol\":1235:1244  msg.value */\n      callvalue\n        /* \"24_ContractFactory.sol\":1252:1257  _salt */\n      dup3\n        /* \"24_ContractFactory.sol\":1219:1272  new Item{value: msg.value, salt: _salt}(_owner, name) */\n      swap1\n        /* \"24_ContractFactory.sol\":1259:1265  _owner */\n      dup6\n        /* \"24_ContractFactory.sol\":1267:1271  name */\n      dup6\n        /* \"24_ContractFactory.sol\":1219:1272  new Item{value: msg.value, salt: _salt}(_owner, name) */\n      mload(0x40)\n      tag_75\n      swap1\n      tag_48\n      jump\t// in\n    tag_75:\n      tag_76\n      swap3\n      swap2\n      swap1\n      tag_50\n      jump\t// in\n    tag_76:\n      dup3\n      swap1\n      mload(0x40)\n      dup1\n      swap2\n      sub\n      swap1\n      dup4\n      create2\n      swap1\n      pop\n      swap1\n      pop\n      dup1\n      iszero\n      dup1\n      iszero\n      tag_77\n      jumpi\n      returndatacopy(0x00, 0x00, returndatasize)\n      revert(0x00, returndatasize)\n    tag_77:\n      pop\n        /* \"24_ContractFactory.sol\":1207:1272  Item item = new Item{value: msg.value, salt: _salt}(_owner, name) */\n      swap1\n      pop\n        /* \"24_ContractFactory.sol\":1282:1287  items */\n      0x00\n        /* \"24_ContractFactory.sol\":1293:1297  item */\n      dup2\n        /* \"24_ContractFactory.sol\":1282:1298  items.push(item) */\n      swap1\n      dup1\n      0x01\n      dup2\n      sload\n      add\n      dup1\n      dup3\n      sstore\n      dup1\n      swap2\n      pop\n      pop\n      0x01\n      swap1\n      sub\n      swap1\n      0x00\n      mstore\n      keccak256(0x00, 0x20)\n      add\n      0x00\n      swap1\n      swap2\n      swap1\n      swap2\n      swap1\n      swap2\n      0x0100\n      exp\n      dup2\n      sload\n      dup2\n      0xffffffffffffffffffffffffffffffffffffffff\n      mul\n      not\n      and\n      swap1\n      dup4\n      0xffffffffffffffffffffffffffffffffffffffff\n      and\n      mul\n      or\n      swap1\n      sstore\n      pop\n        /* \"24_ContractFactory.sol\":1197:1305  {... */\n      pop\n        /* \"24_ContractFactory.sol\":1095:1305  function createWithSaltAndSendEth (address _owner, string memory name, bytes32 _salt) public  payable {... */\n      pop\n      pop\n      pop\n      jump\t// out\n        /* \"24_ContractFactory.sol\":398:536  function create(address _owner, string memory _name) public {... */\n    tag_32:\n        /* \"24_ContractFactory.sol\":468:477  Item item */\n      0x00\n        /* \"24_ContractFactory.sol\":489:495  _owner */\n      dup3\n        /* \"24_ContractFactory.sol\":497:502  _name */\n      dup3\n        /* \"24_ContractFactory.sol\":480:503  new Item(_owner, _name) */\n      mload(0x40)\n      tag_80\n      swap1\n      tag_48\n      jump\t// in\n    tag_80:\n      tag_81\n      swap3\n      swap2\n      swap1\n      tag_50\n      jump\t// in\n    tag_81:\n      mload(0x40)\n      dup1\n      swap2\n      sub\n      swap1\n      0x00\n      create\n      dup1\n      iszero\n      dup1\n      iszero\n      tag_82\n      jumpi\n      returndatacopy(0x00, 0x00, returndatasize)\n      revert(0x00, returndatasize)\n    tag_82:\n      pop\n        /* \"24_ContractFactory.sol\":468:503  Item item = new Item(_owner, _name) */\n      swap1\n      pop\n        /* \"24_ContractFactory.sol\":513:518  items */\n      0x00\n        /* \"24_ContractFactory.sol\":524:528  item */\n      dup2\n        /* \"24_ContractFactory.sol\":513:529  items.push(item) */\n      swap1\n      dup1\n      0x01\n      dup2\n      sload\n      add\n      dup1\n      dup3\n      sstore\n      dup1\n      swap2\n      pop\n      pop\n      0x01\n      swap1\n      sub\n      swap1\n      0x00\n      mstore\n      keccak256(0x00, 0x20)\n      add\n      0x00\n      swap1\n      swap2\n      swap1\n      swap2\n      swap1\n      swap2\n      0x0100\n      exp\n      dup2\n      sload\n      dup2\n      0xffffffffffffffffffffffffffffffffffffffff\n      mul\n      not\n      and\n      swap1\n      dup4\n      0xffffffffffffffffffffffffffffffffffffffff\n      and\n      mul\n      or\n      swap1\n      sstore\n      pop\n        /* \"24_ContractFactory.sol\":458:536  {... */\n      pop\n        /* \"24_ContractFactory.sol\":398:536  function create(address _owner, string memory _name) public {... */\n      pop\n      pop\n      jump\t// out\n        /* \"24_ContractFactory.sol\":325:344  Item[] public items */\n    tag_36:\n      0x00\n      dup2\n      dup2\n      sload\n      dup2\n      lt\n      tag_84\n      jumpi\n      0x00\n      dup1\n      revert\n    tag_84:\n      swap1\n      0x00\n      mstore\n      keccak256(0x00, 0x20)\n      add\n      0x00\n      swap2\n      pop\n      sload\n      swap1\n      0x0100\n      exp\n      swap1\n      div\n      0xffffffffffffffffffffffffffffffffffffffff\n      and\n      dup2\n      jump\t// out\n        /* \"24_ContractFactory.sol\":1656:1792  function stringToBytes32Hash(string memory str) external pure returns (bytes32) {... */\n    tag_43:\n        /* \"24_ContractFactory.sol\":1727:1734  bytes32 */\n      0x00\n        /* \"24_ContractFactory.sol\":1780:1783  str */\n      dup2\n        /* \"24_ContractFactory.sol\":1763:1784  abi.encodePacked(str) */\n      add(0x20, mload(0x40))\n      tag_87\n      swap2\n      swap1\n      tag_88\n      jump\t// in\n    tag_87:\n      mload(0x40)\n      0x20\n      dup2\n      dup4\n      sub\n      sub\n      dup2\n      mstore\n      swap1\n      0x40\n      mstore\n        /* \"24_ContractFactory.sol\":1753:1785  keccak256(abi.encodePacked(str)) */\n      dup1\n      mload\n      swap1\n      0x20\n      add\n      keccak256\n        /* \"24_ContractFactory.sol\":1746:1785  return keccak256(abi.encodePacked(str)) */\n      swap1\n      pop\n        /* \"24_ContractFactory.sol\":1656:1792  function stringToBytes32Hash(string memory str) external pure returns (bytes32) {... */\n      swap2\n      swap1\n      pop\n      jump\t// out\n    tag_48:\n      dataSize(sub_0)\n      dup1\n      dataOffset(sub_0)\n      dup4\n      codecopy\n      add\n      swap1\n      jump\t// out\n        /* \"#utility.yul\":7:82   */\n    tag_89:\n        /* \"#utility.yul\":40:46   */\n      0x00\n        /* \"#utility.yul\":73:75   */\n      0x40\n        /* \"#utility.yul\":67:76   */\n      mload\n        /* \"#utility.yul\":57:76   */\n      swap1\n      pop\n        /* \"#utility.yul\":7:82   */\n      swap1\n      jump\t// out\n        /* \"#utility.yul\":88:205   */\n    tag_90:\n        /* \"#utility.yul\":197:198   */\n      0x00\n        /* \"#utility.yul\":194:195   */\n      0x00\n        /* \"#utility.yul\":187:199   */\n      revert\n        /* \"#utility.yul\":211:328   */\n    tag_91:\n        /* \"#utility.yul\":320:321   */\n      0x00\n        /* \"#utility.yul\":317:318   */\n      0x00\n        /* \"#utility.yul\":310:322   */\n      revert\n        /* \"#utility.yul\":334:460   */\n    tag_92:\n        /* \"#utility.yul\":371:378   */\n      0x00\n        /* \"#utility.yul\":411:453   */\n      0xffffffffffffffffffffffffffffffffffffffff\n        /* \"#utility.yul\":404:409   */\n      dup3\n        /* \"#utility.yul\":400:454   */\n      and\n        /* \"#utility.yul\":389:454   */\n      swap1\n      pop\n        /* \"#utility.yul\":334:460   */\n      swap2\n      swap1\n      pop\n      jump\t// out\n        /* \"#utility.yul\":466:562   */\n    tag_93:\n        /* \"#utility.yul\":503:510   */\n      0x00\n        /* \"#utility.yul\":532:556   */\n      tag_135\n        /* \"#utility.yul\":550:555   */\n      dup3\n        /* \"#utility.yul\":532:556   */\n      tag_92\n      jump\t// in\n    tag_135:\n        /* \"#utility.yul\":521:556   */\n      swap1\n      pop\n        /* \"#utility.yul\":466:562   */\n      swap2\n      swap1\n      pop\n      jump\t// out\n        /* \"#utility.yul\":568:690   */\n    tag_94:\n        /* \"#utility.yul\":641:665   */\n      tag_137\n        /* \"#utility.yul\":659:664   */\n      dup2\n        /* \"#utility.yul\":641:665   */\n      tag_93\n      jump\t// in\n    tag_137:\n        /* \"#utility.yul\":634:639   */\n      dup2\n        /* \"#utility.yul\":631:666   */\n      eq\n        /* \"#utility.yul\":621:684   */\n      tag_138\n      jumpi\n        /* \"#utility.yul\":680:681   */\n      0x00\n        /* \"#utility.yul\":677:678   */\n      0x00\n        /* \"#utility.yul\":670:682   */\n      revert\n        /* \"#utility.yul\":621:684   */\n    tag_138:\n        /* \"#utility.yul\":568:690   */\n      pop\n      jump\t// out\n        /* \"#utility.yul\":696:835   */\n    tag_95:\n        /* \"#utility.yul\":742:747   */\n      0x00\n        /* \"#utility.yul\":780:786   */\n      dup2\n        /* \"#utility.yul\":767:787   */\n      calldataload\n        /* \"#utility.yul\":758:787   */\n      swap1\n      pop\n        /* \"#utility.yul\":796:829   */\n      tag_140\n        /* \"#utility.yul\":823:828   */\n      dup2\n        /* \"#utility.yul\":796:829   */\n      tag_94\n      jump\t// in\n    tag_140:\n        /* \"#utility.yul\":696:835   */\n      swap3\n      swap2\n      pop\n      pop\n      jump\t// out\n        /* \"#utility.yul\":841:958   */\n    tag_96:\n        /* \"#utility.yul\":950:951   */\n      0x00\n        /* \"#utility.yul\":947:948   */\n      0x00\n        /* \"#utility.yul\":940:952   */\n      revert\n        /* \"#utility.yul\":964:1081   */\n    tag_97:\n        /* \"#utility.yul\":1073:1074   */\n      0x00\n        /* \"#utility.yul\":1070:1071   */\n      0x00\n        /* \"#utility.yul\":1063:1075   */\n      revert\n        /* \"#utility.yul\":1087:1189   */\n    tag_98:\n        /* \"#utility.yul\":1128:1134   */\n      0x00\n        /* \"#utility.yul\":1179:1181   */\n      0x1f\n        /* \"#utility.yul\":1175:1182   */\n      not\n        /* \"#utility.yul\":1170:1172   */\n      0x1f\n        /* \"#utility.yul\":1163:1168   */\n      dup4\n        /* \"#utility.yul\":1159:1173   */\n      add\n        /* \"#utility.yul\":1155:1183   */\n      and\n        /* \"#utility.yul\":1145:1183   */\n      swap1\n      pop\n        /* \"#utility.yul\":1087:1189   */\n      swap2\n      swap1\n      pop\n      jump\t// out\n        /* \"#utility.yul\":1195:1375   */\n    tag_99:\n        /* \"#utility.yul\":1243:1320   */\n      0x4e487b7100000000000000000000000000000000000000000000000000000000\n        /* \"#utility.yul\":1240:1241   */\n      0x00\n        /* \"#utility.yul\":1233:1321   */\n      mstore\n        /* \"#utility.yul\":1340:1344   */\n      0x41\n        /* \"#utility.yul\":1337:1338   */\n      0x04\n        /* \"#utility.yul\":1330:1345   */\n      mstore\n        /* \"#utility.yul\":1364:1368   */\n      0x24\n        /* \"#utility.yul\":1361:1362   */\n      0x00\n        /* \"#utility.yul\":1354:1369   */\n      revert\n        /* \"#utility.yul\":1381:1662   */\n    tag_100:\n        /* \"#utility.yul\":1464:1491   */\n      tag_146\n        /* \"#utility.yul\":1486:1490   */\n      dup3\n        /* \"#utility.yul\":1464:1491   */\n      tag_98\n      jump\t// in\n    tag_146:\n        /* \"#utility.yul\":1456:1462   */\n      dup2\n        /* \"#utility.yul\":1452:1492   */\n      add\n        /* \"#utility.yul\":1594:1600   */\n      dup2\n        /* \"#utility.yul\":1582:1592   */\n      dup2\n        /* \"#utility.yul\":1579:1601   */\n      lt\n        /* \"#utility.yul\":1558:1576   */\n      0xffffffffffffffff\n        /* \"#utility.yul\":1546:1556   */\n      dup3\n        /* \"#utility.yul\":1543:1577   */\n      gt\n        /* \"#utility.yul\":1540:1602   */\n      or\n        /* \"#utility.yul\":1537:1625   */\n      iszero\n      tag_147\n      jumpi\n        /* \"#utility.yul\":1605:1623   */\n      tag_148\n      tag_99\n      jump\t// in\n    tag_148:\n        /* \"#utility.yul\":1537:1625   */\n    tag_147:\n        /* \"#utility.yul\":1645:1655   */\n      dup1\n        /* \"#utility.yul\":1641:1643   */\n      0x40\n        /* \"#utility.yul\":1634:1656   */\n      mstore\n        /* \"#utility.yul\":1424:1662   */\n      pop\n        /* \"#utility.yul\":1381:1662   */\n      pop\n      pop\n      jump\t// out\n        /* \"#utility.yul\":1668:1797   */\n    tag_101:\n        /* \"#utility.yul\":1702:1708   */\n      0x00\n        /* \"#utility.yul\":1729:1749   */\n      tag_150\n      tag_89\n      jump\t// in\n    tag_150:\n        /* \"#utility.yul\":1719:1749   */\n      swap1\n      pop\n        /* \"#utility.yul\":1758:1791   */\n      tag_151\n        /* \"#utility.yul\":1786:1790   */\n      dup3\n        /* \"#utility.yul\":1778:1784   */\n      dup3\n        /* \"#utility.yul\":1758:1791   */\n      tag_100\n      jump\t// in\n    tag_151:\n        /* \"#utility.yul\":1668:1797   */\n      swap2\n      swap1\n      pop\n      jump\t// out\n        /* \"#utility.yul\":1803:2111   */\n    tag_102:\n        /* \"#utility.yul\":1865:1869   */\n      0x00\n        /* \"#utility.yul\":1955:1973   */\n      0xffffffffffffffff\n        /* \"#utility.yul\":1947:1953   */\n      dup3\n        /* \"#utility.yul\":1944:1974   */\n      gt\n        /* \"#utility.yul\":1941:1997   */\n      iszero\n      tag_153\n      jumpi\n        /* \"#utility.yul\":1977:1995   */\n      tag_154\n      tag_99\n      jump\t// in\n    tag_154:\n        /* \"#utility.yul\":1941:1997   */\n    tag_153:\n        /* \"#utility.yul\":2015:2044   */\n      tag_155\n        /* \"#utility.yul\":2037:2043   */\n      dup3\n        /* \"#utility.yul\":2015:2044   */\n      tag_98\n      jump\t// in\n    tag_155:\n        /* \"#utility.yul\":2007:2044   */\n      swap1\n      pop\n        /* \"#utility.yul\":2099:2103   */\n      0x20\n        /* \"#utility.yul\":2093:2097   */\n      dup2\n        /* \"#utility.yul\":2089:2104   */\n      add\n        /* \"#utility.yul\":2081:2104   */\n      swap1\n      pop\n        /* \"#utility.yul\":1803:2111   */\n      swap2\n      swap1\n      pop\n      jump\t// out\n        /* \"#utility.yul\":2117:2265   */\n    tag_103:\n        /* \"#utility.yul\":2215:2221   */\n      dup3\n        /* \"#utility.yul\":2210:2213   */\n      dup2\n        /* \"#utility.yul\":2205:2208   */\n      dup4\n        /* \"#utility.yul\":2192:2222   */\n      calldatacopy\n        /* \"#utility.yul\":2256:2257   */\n      0x00\n        /* \"#utility.yul\":2247:2253   */\n      dup4\n        /* \"#utility.yul\":2242:2245   */\n      dup4\n        /* \"#utility.yul\":2238:2254   */\n      add\n        /* \"#utility.yul\":2231:2258   */\n      mstore\n        /* \"#utility.yul\":2117:2265   */\n      pop\n      pop\n      pop\n      jump\t// out\n        /* \"#utility.yul\":2271:2696   */\n    tag_104:\n        /* \"#utility.yul\":2349:2354   */\n      0x00\n        /* \"#utility.yul\":2374:2440   */\n      tag_158\n        /* \"#utility.yul\":2390:2439   */\n      tag_159\n        /* \"#utility.yul\":2432:2438   */\n      dup5\n        /* \"#utility.yul\":2390:2439   */\n      tag_102\n      jump\t// in\n    tag_159:\n        /* \"#utility.yul\":2374:2440   */\n      tag_101\n      jump\t// in\n    tag_158:\n        /* \"#utility.yul\":2365:2440   */\n      swap1\n      pop\n        /* \"#utility.yul\":2463:2469   */\n      dup3\n        /* \"#utility.yul\":2456:2461   */\n      dup2\n        /* \"#utility.yul\":2449:2470   */\n      mstore\n        /* \"#utility.yul\":2501:2505   */\n      0x20\n        /* \"#utility.yul\":2494:2499   */\n      dup2\n        /* \"#utility.yul\":2490:2506   */\n      add\n        /* \"#utility.yul\":2539:2542   */\n      dup5\n        /* \"#utility.yul\":2530:2536   */\n      dup5\n        /* \"#utility.yul\":2525:2528   */\n      dup5\n        /* \"#utility.yul\":2521:2537   */\n      add\n        /* \"#utility.yul\":2518:2543   */\n      gt\n        /* \"#utility.yul\":2515:2627   */\n      iszero\n      tag_160\n      jumpi\n        /* \"#utility.yul\":2546:2625   */\n      tag_161\n      tag_97\n      jump\t// in\n    tag_161:\n        /* \"#utility.yul\":2515:2627   */\n    tag_160:\n        /* \"#utility.yul\":2636:2690   */\n      tag_162\n        /* \"#utility.yul\":2683:2689   */\n      dup5\n        /* \"#utility.yul\":2678:2681   */\n      dup3\n        /* \"#utility.yul\":2673:2676   */\n      dup6\n        /* \"#utility.yul\":2636:2690   */\n      tag_103\n      jump\t// in\n    tag_162:\n        /* \"#utility.yul\":2355:2696   */\n      pop\n        /* \"#utility.yul\":2271:2696   */\n      swap4\n      swap3\n      pop\n      pop\n      pop\n      jump\t// out\n        /* \"#utility.yul\":2716:3056   */\n    tag_105:\n        /* \"#utility.yul\":2772:2777   */\n      0x00\n        /* \"#utility.yul\":2821:2824   */\n      dup3\n        /* \"#utility.yul\":2814:2818   */\n      0x1f\n        /* \"#utility.yul\":2806:2812   */\n      dup4\n        /* \"#utility.yul\":2802:2819   */\n      add\n        /* \"#utility.yul\":2798:2825   */\n      slt\n        /* \"#utility.yul\":2788:2910   */\n      tag_164\n      jumpi\n        /* \"#utility.yul\":2829:2908   */\n      tag_165\n      tag_96\n      jump\t// in\n    tag_165:\n        /* \"#utility.yul\":2788:2910   */\n    tag_164:\n        /* \"#utility.yul\":2946:2952   */\n      dup2\n        /* \"#utility.yul\":2933:2953   */\n      calldataload\n        /* \"#utility.yul\":2971:3050   */\n      tag_166\n        /* \"#utility.yul\":3046:3049   */\n      dup5\n        /* \"#utility.yul\":3038:3044   */\n      dup3\n        /* \"#utility.yul\":3031:3035   */\n      0x20\n        /* \"#utility.yul\":3023:3029   */\n      dup7\n        /* \"#utility.yul\":3019:3036   */\n      add\n        /* \"#utility.yul\":2971:3050   */\n      tag_104\n      jump\t// in\n    tag_166:\n        /* \"#utility.yul\":2962:3050   */\n      swap2\n      pop\n        /* \"#utility.yul\":2778:3056   */\n      pop\n        /* \"#utility.yul\":2716:3056   */\n      swap3\n      swap2\n      pop\n      pop\n      jump\t// out\n        /* \"#utility.yul\":3062:3716   */\n    tag_12:\n        /* \"#utility.yul\":3140:3146   */\n      0x00\n        /* \"#utility.yul\":3148:3154   */\n      0x00\n        /* \"#utility.yul\":3197:3199   */\n      0x40\n        /* \"#utility.yul\":3185:3194   */\n      dup4\n        /* \"#utility.yul\":3176:3183   */\n      dup6\n        /* \"#utility.yul\":3172:3195   */\n      sub\n        /* \"#utility.yul\":3168:3200   */\n      slt\n        /* \"#utility.yul\":3165:3284   */\n      iszero\n      tag_168\n      jumpi\n        /* \"#utility.yul\":3203:3282   */\n      tag_169\n      tag_90\n      jump\t// in\n    tag_169:\n        /* \"#utility.yul\":3165:3284   */\n    tag_168:\n        /* \"#utility.yul\":3323:3324   */\n      0x00\n        /* \"#utility.yul\":3348:3401   */\n      tag_170\n        /* \"#utility.yul\":3393:3400   */\n      dup6\n        /* \"#utility.yul\":3384:3390   */\n      dup3\n        /* \"#utility.yul\":3373:3382   */\n      dup7\n        /* \"#utility.yul\":3369:3391   */\n      add\n        /* \"#utility.yul\":3348:3401   */\n      tag_95\n      jump\t// in\n    tag_170:\n        /* \"#utility.yul\":3338:3401   */\n      swap3\n      pop\n        /* \"#utility.yul\":3294:3411   */\n      pop\n        /* \"#utility.yul\":3478:3480   */\n      0x20\n        /* \"#utility.yul\":3467:3476   */\n      dup4\n        /* \"#utility.yul\":3463:3481   */\n      add\n        /* \"#utility.yul\":3450:3482   */\n      calldataload\n        /* \"#utility.yul\":3509:3527   */\n      0xffffffffffffffff\n        /* \"#utility.yul\":3501:3507   */\n      dup2\n        /* \"#utility.yul\":3498:3528   */\n      gt\n        /* \"#utility.yul\":3495:3612   */\n      iszero\n      tag_171\n      jumpi\n        /* \"#utility.yul\":3531:3610   */\n      tag_172\n      tag_91\n      jump\t// in\n    tag_172:\n        /* \"#utility.yul\":3495:3612   */\n    tag_171:\n        /* \"#utility.yul\":3636:3699   */\n      tag_173\n        /* \"#utility.yul\":3691:3698   */\n      dup6\n        /* \"#utility.yul\":3682:3688   */\n      dup3\n        /* \"#utility.yul\":3671:3680   */\n      dup7\n        /* \"#utility.yul\":3667:3689   */\n      add\n        /* \"#utility.yul\":3636:3699   */\n      tag_105\n      jump\t// in\n    tag_173:\n        /* \"#utility.yul\":3626:3699   */\n      swap2\n      pop\n        /* \"#utility.yul\":3421:3709   */\n      pop\n        /* \"#utility.yul\":3062:3716   */\n      swap3\n      pop\n      swap3\n      swap1\n      pop\n      jump\t// out\n        /* \"#utility.yul\":3722:3799   */\n    tag_106:\n        /* \"#utility.yul\":3759:3766   */\n      0x00\n        /* \"#utility.yul\":3788:3793   */\n      dup2\n        /* \"#utility.yul\":3777:3793   */\n      swap1\n      pop\n        /* \"#utility.yul\":3722:3799   */\n      swap2\n      swap1\n      pop\n      jump\t// out\n        /* \"#utility.yul\":3805:3927   */\n    tag_107:\n        /* \"#utility.yul\":3878:3902   */\n      tag_176\n        /* \"#utility.yul\":3896:3901   */\n      dup2\n        /* \"#utility.yul\":3878:3902   */\n      tag_106\n      jump\t// in\n    tag_176:\n        /* \"#utility.yul\":3871:3876   */\n      dup2\n        /* \"#utility.yul\":3868:3903   */\n      eq\n        /* \"#utility.yul\":3858:3921   */\n      tag_177\n      jumpi\n        /* \"#utility.yul\":3917:3918   */\n      0x00\n        /* \"#utility.yul\":3914:3915   */\n      0x00\n        /* \"#utility.yul\":3907:3919   */\n      revert\n        /* \"#utility.yul\":3858:3921   */\n    tag_177:\n        /* \"#utility.yul\":3805:3927   */\n      pop\n      jump\t// out\n        /* \"#utility.yul\":3933:4072   */\n    tag_108:\n        /* \"#utility.yul\":3979:3984   */\n      0x00\n        /* \"#utility.yul\":4017:4023   */\n      dup2\n        /* \"#utility.yul\":4004:4024   */\n      calldataload\n        /* \"#utility.yul\":3995:4024   */\n      swap1\n      pop\n        /* \"#utility.yul\":4033:4066   */\n      tag_179\n        /* \"#utility.yul\":4060:4065   */\n      dup2\n        /* \"#utility.yul\":4033:4066   */\n      tag_107\n      jump\t// in\n    tag_179:\n        /* \"#utility.yul\":3933:4072   */\n      swap3\n      swap2\n      pop\n      pop\n      jump\t// out\n        /* \"#utility.yul\":4078:4407   */\n    tag_17:\n        /* \"#utility.yul\":4137:4143   */\n      0x00\n        /* \"#utility.yul\":4186:4188   */\n      0x20\n        /* \"#utility.yul\":4174:4183   */\n      dup3\n        /* \"#utility.yul\":4165:4172   */\n      dup5\n        /* \"#utility.yul\":4161:4184   */\n      sub\n        /* \"#utility.yul\":4157:4189   */\n      slt\n        /* \"#utility.yul\":4154:4273   */\n      iszero\n      tag_181\n      jumpi\n        /* \"#utility.yul\":4192:4271   */\n      tag_182\n      tag_90\n      jump\t// in\n    tag_182:\n        /* \"#utility.yul\":4154:4273   */\n    tag_181:\n        /* \"#utility.yul\":4312:4313   */\n      0x00\n        /* \"#utility.yul\":4337:4390   */\n      tag_183\n        /* \"#utility.yul\":4382:4389   */\n      dup5\n        /* \"#utility.yul\":4373:4379   */\n      dup3\n        /* \"#utility.yul\":4362:4371   */\n      dup6\n        /* \"#utility.yul\":4358:4380   */\n      add\n        /* \"#utility.yul\":4337:4390   */\n      tag_108\n      jump\t// in\n    tag_183:\n        /* \"#utility.yul\":4327:4390   */\n      swap2\n      pop\n        /* \"#utility.yul\":4283:4400   */\n      pop\n        /* \"#utility.yul\":4078:4407   */\n      swap3\n      swap2\n      pop\n      pop\n      jump\t// out\n        /* \"#utility.yul\":4413:4531   */\n    tag_109:\n        /* \"#utility.yul\":4500:4524   */\n      tag_185\n        /* \"#utility.yul\":4518:4523   */\n      dup2\n        /* \"#utility.yul\":4500:4524   */\n      tag_93\n      jump\t// in\n    tag_185:\n        /* \"#utility.yul\":4495:4498   */\n      dup3\n        /* \"#utility.yul\":4488:4525   */\n      mstore\n        /* \"#utility.yul\":4413:4531   */\n      pop\n      pop\n      jump\t// out\n        /* \"#utility.yul\":4537:4636   */\n    tag_110:\n        /* \"#utility.yul\":4589:4595   */\n      0x00\n        /* \"#utility.yul\":4623:4628   */\n      dup2\n        /* \"#utility.yul\":4617:4629   */\n      mload\n        /* \"#utility.yul\":4607:4629   */\n      swap1\n      pop\n        /* \"#utility.yul\":4537:4636   */\n      swap2\n      swap1\n      pop\n      jump\t// out\n        /* \"#utility.yul\":4642:4811   */\n    tag_111:\n        /* \"#utility.yul\":4726:4737   */\n      0x00\n        /* \"#utility.yul\":4760:4766   */\n      dup3\n        /* \"#utility.yul\":4755:4758   */\n      dup3\n        /* \"#utility.yul\":4748:4767   */\n      mstore\n        /* \"#utility.yul\":4800:4804   */\n      0x20\n        /* \"#utility.yul\":4795:4798   */\n      dup3\n        /* \"#utility.yul\":4791:4805   */\n      add\n        /* \"#utility.yul\":4776:4805   */\n      swap1\n      pop\n        /* \"#utility.yul\":4642:4811   */\n      swap3\n      swap2\n      pop\n      pop\n      jump\t// out\n        /* \"#utility.yul\":4817:4956   */\n    tag_112:\n        /* \"#utility.yul\":4906:4912   */\n      dup3\n        /* \"#utility.yul\":4901:4904   */\n      dup2\n        /* \"#utility.yul\":4896:4899   */\n      dup4\n        /* \"#utility.yul\":4890:4913   */\n      mcopy\n        /* \"#utility.yul\":4947:4948   */\n      0x00\n        /* \"#utility.yul\":4938:4944   */\n      dup4\n        /* \"#utility.yul\":4933:4936   */\n      dup4\n        /* \"#utility.yul\":4929:4945   */\n      add\n        /* \"#utility.yul\":4922:4949   */\n      mstore\n        /* \"#utility.yul\":4817:4956   */\n      pop\n      pop\n      pop\n      jump\t// out\n        /* \"#utility.yul\":4962:5339   */\n    tag_113:\n        /* \"#utility.yul\":5050:5053   */\n      0x00\n        /* \"#utility.yul\":5078:5117   */\n      tag_190\n        /* \"#utility.yul\":5111:5116   */\n      dup3\n        /* \"#utility.yul\":5078:5117   */\n      tag_110\n      jump\t// in\n    tag_190:\n        /* \"#utility.yul\":5133:5204   */\n      tag_191\n        /* \"#utility.yul\":5197:5203   */\n      dup2\n        /* \"#utility.yul\":5192:5195   */\n      dup6\n        /* \"#utility.yul\":5133:5204   */\n      tag_111\n      jump\t// in\n    tag_191:\n        /* \"#utility.yul\":5126:5204   */\n      swap4\n      pop\n        /* \"#utility.yul\":5213:5278   */\n      tag_192\n        /* \"#utility.yul\":5271:5277   */\n      dup2\n        /* \"#utility.yul\":5266:5269   */\n      dup6\n        /* \"#utility.yul\":5259:5263   */\n      0x20\n        /* \"#utility.yul\":5252:5257   */\n      dup7\n        /* \"#utility.yul\":5248:5264   */\n      add\n        /* \"#utility.yul\":5213:5278   */\n      tag_112\n      jump\t// in\n    tag_192:\n        /* \"#utility.yul\":5303:5332   */\n      tag_193\n        /* \"#utility.yul\":5325:5331   */\n      dup2\n        /* \"#utility.yul\":5303:5332   */\n      tag_98\n      jump\t// in\n    tag_193:\n        /* \"#utility.yul\":5298:5301   */\n      dup5\n        /* \"#utility.yul\":5294:5333   */\n      add\n        /* \"#utility.yul\":5287:5333   */\n      swap2\n      pop\n        /* \"#utility.yul\":5054:5339   */\n      pop\n        /* \"#utility.yul\":4962:5339   */\n      swap3\n      swap2\n      pop\n      pop\n      jump\t// out\n        /* \"#utility.yul\":5345:5463   */\n    tag_114:\n        /* \"#utility.yul\":5432:5456   */\n      tag_195\n        /* \"#utility.yul\":5450:5455   */\n      dup2\n        /* \"#utility.yul\":5432:5456   */\n      tag_106\n      jump\t// in\n    tag_195:\n        /* \"#utility.yul\":5427:5430   */\n      dup3\n        /* \"#utility.yul\":5420:5457   */\n      mstore\n        /* \"#utility.yul\":5345:5463   */\n      pop\n      pop\n      jump\t// out\n        /* \"#utility.yul\":5469:6113   */\n    tag_20:\n        /* \"#utility.yul\":5666:5670   */\n      0x00\n        /* \"#utility.yul\":5704:5707   */\n      0x80\n        /* \"#utility.yul\":5693:5702   */\n      dup3\n        /* \"#utility.yul\":5689:5708   */\n      add\n        /* \"#utility.yul\":5681:5708   */\n      swap1\n      pop\n        /* \"#utility.yul\":5718:5789   */\n      tag_197\n        /* \"#utility.yul\":5786:5787   */\n      0x00\n        /* \"#utility.yul\":5775:5784   */\n      dup4\n        /* \"#utility.yul\":5771:5788   */\n      add\n        /* \"#utility.yul\":5762:5768   */\n      dup8\n        /* \"#utility.yul\":5718:5789   */\n      tag_109\n      jump\t// in\n    tag_197:\n        /* \"#utility.yul\":5836:5845   */\n      dup2\n        /* \"#utility.yul\":5830:5834   */\n      dup2\n        /* \"#utility.yul\":5826:5846   */\n      sub\n        /* \"#utility.yul\":5821:5823   */\n      0x20\n        /* \"#utility.yul\":5810:5819   */\n      dup4\n        /* \"#utility.yul\":5806:5824   */\n      add\n        /* \"#utility.yul\":5799:5847   */\n      mstore\n        /* \"#utility.yul\":5864:5942   */\n      tag_198\n        /* \"#utility.yul\":5937:5941   */\n      dup2\n        /* \"#utility.yul\":5928:5934   */\n      dup7\n        /* \"#utility.yul\":5864:5942   */\n      tag_113\n      jump\t// in\n    tag_198:\n        /* \"#utility.yul\":5856:5942   */\n      swap1\n      pop\n        /* \"#utility.yul\":5952:6024   */\n      tag_199\n        /* \"#utility.yul\":6020:6022   */\n      0x40\n        /* \"#utility.yul\":6009:6018   */\n      dup4\n        /* \"#utility.yul\":6005:6023   */\n      add\n        /* \"#utility.yul\":5996:6002   */\n      dup6\n        /* \"#utility.yul\":5952:6024   */\n      tag_109\n      jump\t// in\n    tag_199:\n        /* \"#utility.yul\":6034:6106   */\n      tag_200\n        /* \"#utility.yul\":6102:6104   */\n      0x60\n        /* \"#utility.yul\":6091:6100   */\n      dup4\n        /* \"#utility.yul\":6087:6105   */\n      add\n        /* \"#utility.yul\":6078:6084   */\n      dup5\n        /* \"#utility.yul\":6034:6106   */\n      tag_114\n      jump\t// in\n    tag_200:\n        /* \"#utility.yul\":5469:6113   */\n      swap6\n      swap5\n      pop\n      pop\n      pop\n      pop\n      pop\n      jump\t// out\n        /* \"#utility.yul\":6119:6196   */\n    tag_115:\n        /* \"#utility.yul\":6156:6163   */\n      0x00\n        /* \"#utility.yul\":6185:6190   */\n      dup2\n        /* \"#utility.yul\":6174:6190   */\n      swap1\n      pop\n        /* \"#utility.yul\":6119:6196   */\n      swap2\n      swap1\n      pop\n      jump\t// out\n        /* \"#utility.yul\":6202:6324   */\n    tag_116:\n        /* \"#utility.yul\":6275:6299   */\n      tag_203\n        /* \"#utility.yul\":6293:6298   */\n      dup2\n        /* \"#utility.yul\":6275:6299   */\n      tag_115\n      jump\t// in\n    tag_203:\n        /* \"#utility.yul\":6268:6273   */\n      dup2\n        /* \"#utility.yul\":6265:6300   */\n      eq\n        /* \"#utility.yul\":6255:6318   */\n      tag_204\n      jumpi\n        /* \"#utility.yul\":6314:6315   */\n      0x00\n        /* \"#utility.yul\":6311:6312   */\n      0x00\n        /* \"#utility.yul\":6304:6316   */\n      revert\n        /* \"#utility.yul\":6255:6318   */\n    tag_204:\n        /* \"#utility.yul\":6202:6324   */\n      pop\n      jump\t// out\n        /* \"#utility.yul\":6330:6469   */\n    tag_117:\n        /* \"#utility.yul\":6376:6381   */\n      0x00\n        /* \"#utility.yul\":6414:6420   */\n      dup2\n        /* \"#utility.yul\":6401:6421   */\n      calldataload\n        /* \"#utility.yul\":6392:6421   */\n      swap1\n      pop\n        /* \"#utility.yul\":6430:6463   */\n      tag_206\n        /* \"#utility.yul\":6457:6462   */\n      dup2\n        /* \"#utility.yul\":6430:6463   */\n      tag_116\n      jump\t// in\n    tag_206:\n        /* \"#utility.yul\":6330:6469   */\n      swap3\n      swap2\n      pop\n      pop\n      jump\t// out\n        /* \"#utility.yul\":6475:7274   */\n    tag_24:\n        /* \"#utility.yul\":6562:6568   */\n      0x00\n        /* \"#utility.yul\":6570:6576   */\n      0x00\n        /* \"#utility.yul\":6578:6584   */\n      0x00\n        /* \"#utility.yul\":6627:6629   */\n      0x60\n        /* \"#utility.yul\":6615:6624   */\n      dup5\n        /* \"#utility.yul\":6606:6613   */\n      dup7\n        /* \"#utility.yul\":6602:6625   */\n      sub\n        /* \"#utility.yul\":6598:6630   */\n      slt\n        /* \"#utility.yul\":6595:6714   */\n      iszero\n      tag_208\n      jumpi\n        /* \"#utility.yul\":6633:6712   */\n      tag_209\n      tag_90\n      jump\t// in\n    tag_209:\n        /* \"#utility.yul\":6595:6714   */\n    tag_208:\n        /* \"#utility.yul\":6753:6754   */\n      0x00\n        /* \"#utility.yul\":6778:6831   */\n      tag_210\n        /* \"#utility.yul\":6823:6830   */\n      dup7\n        /* \"#utility.yul\":6814:6820   */\n      dup3\n        /* \"#utility.yul\":6803:6812   */\n      dup8\n        /* \"#utility.yul\":6799:6821   */\n      add\n        /* \"#utility.yul\":6778:6831   */\n      tag_95\n      jump\t// in\n    tag_210:\n        /* \"#utility.yul\":6768:6831   */\n      swap4\n      pop\n        /* \"#utility.yul\":6724:6841   */\n      pop\n        /* \"#utility.yul\":6908:6910   */\n      0x20\n        /* \"#utility.yul\":6897:6906   */\n      dup5\n        /* \"#utility.yul\":6893:6911   */\n      add\n        /* \"#utility.yul\":6880:6912   */\n      calldataload\n        /* \"#utility.yul\":6939:6957   */\n      0xffffffffffffffff\n        /* \"#utility.yul\":6931:6937   */\n      dup2\n        /* \"#utility.yul\":6928:6958   */\n      gt\n        /* \"#utility.yul\":6925:7042   */\n      iszero\n      tag_211\n      jumpi\n        /* \"#utility.yul\":6961:7040   */\n      tag_212\n      tag_91\n      jump\t// in\n    tag_212:\n        /* \"#utility.yul\":6925:7042   */\n    tag_211:\n        /* \"#utility.yul\":7066:7129   */\n      tag_213\n        /* \"#utility.yul\":7121:7128   */\n      dup7\n        /* \"#utility.yul\":7112:7118   */\n      dup3\n        /* \"#utility.yul\":7101:7110   */\n      dup8\n        /* \"#utility.yul\":7097:7119   */\n      add\n        /* \"#utility.yul\":7066:7129   */\n      tag_105\n      jump\t// in\n    tag_213:\n        /* \"#utility.yul\":7056:7129   */\n      swap3\n      pop\n        /* \"#utility.yul\":6851:7139   */\n      pop\n        /* \"#utility.yul\":7178:7180   */\n      0x40\n        /* \"#utility.yul\":7204:7257   */\n      tag_214\n        /* \"#utility.yul\":7249:7256   */\n      dup7\n        /* \"#utility.yul\":7240:7246   */\n      dup3\n        /* \"#utility.yul\":7229:7238   */\n      dup8\n        /* \"#utility.yul\":7225:7247   */\n      add\n        /* \"#utility.yul\":7204:7257   */\n      tag_117\n      jump\t// in\n    tag_214:\n        /* \"#utility.yul\":7194:7257   */\n      swap2\n      pop\n        /* \"#utility.yul\":7149:7267   */\n      pop\n        /* \"#utility.yul\":6475:7274   */\n      swap3\n      pop\n      swap3\n      pop\n      swap3\n      jump\t// out\n        /* \"#utility.yul\":7280:7340   */\n    tag_118:\n        /* \"#utility.yul\":7308:7311   */\n      0x00\n        /* \"#utility.yul\":7329:7334   */\n      dup2\n        /* \"#utility.yul\":7322:7334   */\n      swap1\n      pop\n        /* \"#utility.yul\":7280:7340   */\n      swap2\n      swap1\n      pop\n      jump\t// out\n        /* \"#utility.yul\":7346:7488   */\n    tag_119:\n        /* \"#utility.yul\":7396:7405   */\n      0x00\n        /* \"#utility.yul\":7429:7482   */\n      tag_217\n        /* \"#utility.yul\":7447:7481   */\n      tag_218\n        /* \"#utility.yul\":7456:7480   */\n      tag_219\n        /* \"#utility.yul\":7474:7479   */\n      dup5\n        /* \"#utility.yul\":7456:7480   */\n      tag_92\n      jump\t// in\n    tag_219:\n        /* \"#utility.yul\":7447:7481   */\n      tag_118\n      jump\t// in\n    tag_218:\n        /* \"#utility.yul\":7429:7482   */\n      tag_92\n      jump\t// in\n    tag_217:\n        /* \"#utility.yul\":7416:7482   */\n      swap1\n      pop\n        /* \"#utility.yul\":7346:7488   */\n      swap2\n      swap1\n      pop\n      jump\t// out\n        /* \"#utility.yul\":7494:7620   */\n    tag_120:\n        /* \"#utility.yul\":7544:7553   */\n      0x00\n        /* \"#utility.yul\":7577:7614   */\n      tag_221\n        /* \"#utility.yul\":7608:7613   */\n      dup3\n        /* \"#utility.yul\":7577:7614   */\n      tag_119\n      jump\t// in\n    tag_221:\n        /* \"#utility.yul\":7564:7614   */\n      swap1\n      pop\n        /* \"#utility.yul\":7494:7620   */\n      swap2\n      swap1\n      pop\n      jump\t// out\n        /* \"#utility.yul\":7626:7763   */\n    tag_121:\n        /* \"#utility.yul\":7687:7696   */\n      0x00\n        /* \"#utility.yul\":7720:7757   */\n      tag_223\n        /* \"#utility.yul\":7751:7756   */\n      dup3\n        /* \"#utility.yul\":7720:7757   */\n      tag_120\n      jump\t// in\n    tag_223:\n        /* \"#utility.yul\":7707:7757   */\n      swap1\n      pop\n        /* \"#utility.yul\":7626:7763   */\n      swap2\n      swap1\n      pop\n      jump\t// out\n        /* \"#utility.yul\":7769:7922   */\n    tag_122:\n        /* \"#utility.yul\":7867:7915   */\n      tag_225\n        /* \"#utility.yul\":7909:7914   */\n      dup2\n        /* \"#utility.yul\":7867:7915   */\n      tag_121\n      jump\t// in\n    tag_225:\n        /* \"#utility.yul\":7862:7865   */\n      dup3\n        /* \"#utility.yul\":7855:7916   */\n      mstore\n        /* \"#utility.yul\":7769:7922   */\n      pop\n      pop\n      jump\t// out\n        /* \"#utility.yul\":7928:8172   */\n    tag_38:\n        /* \"#utility.yul\":8032:8036   */\n      0x00\n        /* \"#utility.yul\":8070:8072   */\n      0x20\n        /* \"#utility.yul\":8059:8068   */\n      dup3\n        /* \"#utility.yul\":8055:8073   */\n      add\n        /* \"#utility.yul\":8047:8073   */\n      swap1\n      pop\n        /* \"#utility.yul\":8083:8165   */\n      tag_227\n        /* \"#utility.yul\":8162:8163   */\n      0x00\n        /* \"#utility.yul\":8151:8160   */\n      dup4\n        /* \"#utility.yul\":8147:8164   */\n      add\n        /* \"#utility.yul\":8138:8144   */\n      dup5\n        /* \"#utility.yul\":8083:8165   */\n      tag_122\n      jump\t// in\n    tag_227:\n        /* \"#utility.yul\":7928:8172   */\n      swap3\n      swap2\n      pop\n      pop\n      jump\t// out\n        /* \"#utility.yul\":8178:8687   */\n    tag_42:\n        /* \"#utility.yul\":8247:8253   */\n      0x00\n        /* \"#utility.yul\":8296:8298   */\n      0x20\n        /* \"#utility.yul\":8284:8293   */\n      dup3\n        /* \"#utility.yul\":8275:8282   */\n      dup5\n        /* \"#utility.yul\":8271:8294   */\n      sub\n        /* \"#utility.yul\":8267:8299   */\n      slt\n        /* \"#utility.yul\":8264:8383   */\n      iszero\n      tag_229\n      jumpi\n        /* \"#utility.yul\":8302:8381   */\n      tag_230\n      tag_90\n      jump\t// in\n    tag_230:\n        /* \"#utility.yul\":8264:8383   */\n    tag_229:\n        /* \"#utility.yul\":8450:8451   */\n      0x00\n        /* \"#utility.yul\":8439:8448   */\n      dup3\n        /* \"#utility.yul\":8435:8452   */\n      add\n        /* \"#utility.yul\":8422:8453   */\n      calldataload\n        /* \"#utility.yul\":8480:8498   */\n      0xffffffffffffffff\n        /* \"#utility.yul\":8472:8478   */\n      dup2\n        /* \"#utility.yul\":8469:8499   */\n      gt\n        /* \"#utility.yul\":8466:8583   */\n      iszero\n      tag_231\n      jumpi\n        /* \"#utility.yul\":8502:8581   */\n      tag_232\n      tag_91\n      jump\t// in\n    tag_232:\n        /* \"#utility.yul\":8466:8583   */\n    tag_231:\n        /* \"#utility.yul\":8607:8670   */\n      tag_233\n        /* \"#utility.yul\":8662:8669   */\n      dup5\n        /* \"#utility.yul\":8653:8659   */\n      dup3\n        /* \"#utility.yul\":8642:8651   */\n      dup6\n        /* \"#utility.yul\":8638:8660   */\n      add\n        /* \"#utility.yul\":8607:8670   */\n      tag_105\n      jump\t// in\n    tag_233:\n        /* \"#utility.yul\":8597:8670   */\n      swap2\n      pop\n        /* \"#utility.yul\":8393:8680   */\n      pop\n        /* \"#utility.yul\":8178:8687   */\n      swap3\n      swap2\n      pop\n      pop\n      jump\t// out\n        /* \"#utility.yul\":8693:8811   */\n    tag_123:\n        /* \"#utility.yul\":8780:8804   */\n      tag_235\n        /* \"#utility.yul\":8798:8803   */\n      dup2\n        /* \"#utility.yul\":8780:8804   */\n      tag_115\n      jump\t// in\n    tag_235:\n        /* \"#utility.yul\":8775:8778   */\n      dup3\n        /* \"#utility.yul\":8768:8805   */\n      mstore\n        /* \"#utility.yul\":8693:8811   */\n      pop\n      pop\n      jump\t// out\n        /* \"#utility.yul\":8817:9039   */\n    tag_45:\n        /* \"#utility.yul\":8910:8914   */\n      0x00\n        /* \"#utility.yul\":8948:8950   */\n      0x20\n        /* \"#utility.yul\":8937:8946   */\n      dup3\n        /* \"#utility.yul\":8933:8951   */\n      add\n        /* \"#utility.yul\":8925:8951   */\n      swap1\n      pop\n        /* \"#utility.yul\":8961:9032   */\n      tag_237\n        /* \"#utility.yul\":9029:9030   */\n      0x00\n        /* \"#utility.yul\":9018:9027   */\n      dup4\n        /* \"#utility.yul\":9014:9031   */\n      add\n        /* \"#utility.yul\":9005:9011   */\n      dup5\n        /* \"#utility.yul\":8961:9032   */\n      tag_123\n      jump\t// in\n    tag_237:\n        /* \"#utility.yul\":8817:9039   */\n      swap3\n      swap2\n      pop\n      pop\n      jump\t// out\n        /* \"#utility.yul\":9045:9468   */\n    tag_50:\n        /* \"#utility.yul\":9186:9190   */\n      0x00\n        /* \"#utility.yul\":9224:9226   */\n      0x40\n        /* \"#utility.yul\":9213:9222   */\n      dup3\n        /* \"#utility.yul\":9209:9227   */\n      add\n        /* \"#utility.yul\":9201:9227   */\n      swap1\n      pop\n        /* \"#utility.yul\":9237:9308   */\n      tag_239\n        /* \"#utility.yul\":9305:9306   */\n      0x00\n        /* \"#utility.yul\":9294:9303   */\n      dup4\n        /* \"#utility.yul\":9290:9307   */\n      add\n        /* \"#utility.yul\":9281:9287   */\n      dup6\n        /* \"#utility.yul\":9237:9308   */\n      tag_109\n      jump\t// in\n    tag_239:\n        /* \"#utility.yul\":9355:9364   */\n      dup2\n        /* \"#utility.yul\":9349:9353   */\n      dup2\n        /* \"#utility.yul\":9345:9365   */\n      sub\n        /* \"#utility.yul\":9340:9342   */\n      0x20\n        /* \"#utility.yul\":9329:9338   */\n      dup4\n        /* \"#utility.yul\":9325:9343   */\n      add\n        /* \"#utility.yul\":9318:9366   */\n      mstore\n        /* \"#utility.yul\":9383:9461   */\n      tag_240\n        /* \"#utility.yul\":9456:9460   */\n      dup2\n        /* \"#utility.yul\":9447:9453   */\n      dup5\n        /* \"#utility.yul\":9383:9461   */\n      tag_113\n      jump\t// in\n    tag_240:\n        /* \"#utility.yul\":9375:9461   */\n      swap1\n      pop\n        /* \"#utility.yul\":9045:9468   */\n      swap4\n      swap3\n      pop\n      pop\n      pop\n      jump\t// out\n        /* \"#utility.yul\":9474:9654   */\n    tag_56:\n        /* \"#utility.yul\":9522:9599   */\n      0x4e487b7100000000000000000000000000000000000000000000000000000000\n        /* \"#utility.yul\":9519:9520   */\n      0x00\n        /* \"#utility.yul\":9512:9600   */\n      mstore\n        /* \"#utility.yul\":9619:9623   */\n      0x32\n        /* \"#utility.yul\":9616:9617   */\n      0x04\n        /* \"#utility.yul\":9609:9624   */\n      mstore\n        /* \"#utility.yul\":9643:9647   */\n      0x24\n        /* \"#utility.yul\":9640:9641   */\n      0x00\n        /* \"#utility.yul\":9633:9648   */\n      revert\n        /* \"#utility.yul\":9660:9803   */\n    tag_124:\n        /* \"#utility.yul\":9717:9722   */\n      0x00\n        /* \"#utility.yul\":9748:9754   */\n      dup2\n        /* \"#utility.yul\":9742:9755   */\n      mload\n        /* \"#utility.yul\":9733:9755   */\n      swap1\n      pop\n        /* \"#utility.yul\":9764:9797   */\n      tag_243\n        /* \"#utility.yul\":9791:9796   */\n      dup2\n        /* \"#utility.yul\":9764:9797   */\n      tag_94\n      jump\t// in\n    tag_243:\n        /* \"#utility.yul\":9660:9803   */\n      swap3\n      swap2\n      pop\n      pop\n      jump\t// out\n        /* \"#utility.yul\":9809:10160   */\n    tag_61:\n        /* \"#utility.yul\":9879:9885   */\n      0x00\n        /* \"#utility.yul\":9928:9930   */\n      0x20\n        /* \"#utility.yul\":9916:9925   */\n      dup3\n        /* \"#utility.yul\":9907:9914   */\n      dup5\n        /* \"#utility.yul\":9903:9926   */\n      sub\n        /* \"#utility.yul\":9899:9931   */\n      slt\n        /* \"#utility.yul\":9896:10015   */\n      iszero\n      tag_245\n      jumpi\n        /* \"#utility.yul\":9934:10013   */\n      tag_246\n      tag_90\n      jump\t// in\n    tag_246:\n        /* \"#utility.yul\":9896:10015   */\n    tag_245:\n        /* \"#utility.yul\":10054:10055   */\n      0x00\n        /* \"#utility.yul\":10079:10143   */\n      tag_247\n        /* \"#utility.yul\":10135:10142   */\n      dup5\n        /* \"#utility.yul\":10126:10132   */\n      dup3\n        /* \"#utility.yul\":10115:10124   */\n      dup6\n        /* \"#utility.yul\":10111:10133   */\n      add\n        /* \"#utility.yul\":10079:10143   */\n      tag_124\n      jump\t// in\n    tag_247:\n        /* \"#utility.yul\":10069:10143   */\n      swap2\n      pop\n        /* \"#utility.yul\":10025:10153   */\n      pop\n        /* \"#utility.yul\":9809:10160   */\n      swap3\n      swap2\n      pop\n      pop\n      jump\t// out\n        /* \"#utility.yul\":10166:10600   */\n    tag_125:\n        /* \"#utility.yul\":10255:10260   */\n      0x00\n        /* \"#utility.yul\":10280:10346   */\n      tag_249\n        /* \"#utility.yul\":10296:10345   */\n      tag_250\n        /* \"#utility.yul\":10338:10344   */\n      dup5\n        /* \"#utility.yul\":10296:10345   */\n      tag_102\n      jump\t// in\n    tag_250:\n        /* \"#utility.yul\":10280:10346   */\n      tag_101\n      jump\t// in\n    tag_249:\n        /* \"#utility.yul\":10271:10346   */\n      swap1\n      pop\n        /* \"#utility.yul\":10369:10375   */\n      dup3\n        /* \"#utility.yul\":10362:10367   */\n      dup2\n        /* \"#utility.yul\":10355:10376   */\n      mstore\n        /* \"#utility.yul\":10407:10411   */\n      0x20\n        /* \"#utility.yul\":10400:10405   */\n      dup2\n        /* \"#utility.yul\":10396:10412   */\n      add\n        /* \"#utility.yul\":10445:10448   */\n      dup5\n        /* \"#utility.yul\":10436:10442   */\n      dup5\n        /* \"#utility.yul\":10431:10434   */\n      dup5\n        /* \"#utility.yul\":10427:10443   */\n      add\n        /* \"#utility.yul\":10424:10449   */\n      gt\n        /* \"#utility.yul\":10421:10533   */\n      iszero\n      tag_251\n      jumpi\n        /* \"#utility.yul\":10452:10531   */\n      tag_252\n      tag_97\n      jump\t// in\n    tag_252:\n        /* \"#utility.yul\":10421:10533   */\n    tag_251:\n        /* \"#utility.yul\":10542:10594   */\n      tag_253\n        /* \"#utility.yul\":10587:10593   */\n      dup5\n        /* \"#utility.yul\":10582:10585   */\n      dup3\n        /* \"#utility.yul\":10577:10580   */\n      dup6\n        /* \"#utility.yul\":10542:10594   */\n      tag_112\n      jump\t// in\n    tag_253:\n        /* \"#utility.yul\":10261:10600   */\n      pop\n        /* \"#utility.yul\":10166:10600   */\n      swap4\n      swap3\n      pop\n      pop\n      pop\n      jump\t// out\n        /* \"#utility.yul\":10620:10975   */\n    tag_126:\n        /* \"#utility.yul\":10687:10692   */\n      0x00\n        /* \"#utility.yul\":10736:10739   */\n      dup3\n        /* \"#utility.yul\":10729:10733   */\n      0x1f\n        /* \"#utility.yul\":10721:10727   */\n      dup4\n        /* \"#utility.yul\":10717:10734   */\n      add\n        /* \"#utility.yul\":10713:10740   */\n      slt\n        /* \"#utility.yul\":10703:10825   */\n      tag_255\n      jumpi\n        /* \"#utility.yul\":10744:10823   */\n      tag_256\n      tag_96\n      jump\t// in\n    tag_256:\n        /* \"#utility.yul\":10703:10825   */\n    tag_255:\n        /* \"#utility.yul\":10854:10860   */\n      dup2\n        /* \"#utility.yul\":10848:10861   */\n      mload\n        /* \"#utility.yul\":10879:10969   */\n      tag_257\n        /* \"#utility.yul\":10965:10968   */\n      dup5\n        /* \"#utility.yul\":10957:10963   */\n      dup3\n        /* \"#utility.yul\":10950:10954   */\n      0x20\n        /* \"#utility.yul\":10942:10948   */\n      dup7\n        /* \"#utility.yul\":10938:10955   */\n      add\n        /* \"#utility.yul\":10879:10969   */\n      tag_125\n      jump\t// in\n    tag_257:\n        /* \"#utility.yul\":10870:10969   */\n      swap2\n      pop\n        /* \"#utility.yul\":10693:10975   */\n      pop\n        /* \"#utility.yul\":10620:10975   */\n      swap3\n      swap2\n      pop\n      pop\n      jump\t// out\n        /* \"#utility.yul\":10981:11505   */\n    tag_65:\n        /* \"#utility.yul\":11061:11067   */\n      0x00\n        /* \"#utility.yul\":11110:11112   */\n      0x20\n        /* \"#utility.yul\":11098:11107   */\n      dup3\n        /* \"#utility.yul\":11089:11096   */\n      dup5\n        /* \"#utility.yul\":11085:11108   */\n      sub\n        /* \"#utility.yul\":11081:11113   */\n      slt\n        /* \"#utility.yul\":11078:11197   */\n      iszero\n      tag_259\n      jumpi\n        /* \"#utility.yul\":11116:11195   */\n      tag_260\n      tag_90\n      jump\t// in\n    tag_260:\n        /* \"#utility.yul\":11078:11197   */\n    tag_259:\n        /* \"#utility.yul\":11257:11258   */\n      0x00\n        /* \"#utility.yul\":11246:11255   */\n      dup3\n        /* \"#utility.yul\":11242:11259   */\n      add\n        /* \"#utility.yul\":11236:11260   */\n      mload\n        /* \"#utility.yul\":11287:11305   */\n      0xffffffffffffffff\n        /* \"#utility.yul\":11279:11285   */\n      dup2\n        /* \"#utility.yul\":11276:11306   */\n      gt\n        /* \"#utility.yul\":11273:11390   */\n      iszero\n      tag_261\n      jumpi\n        /* \"#utility.yul\":11309:11388   */\n      tag_262\n      tag_91\n      jump\t// in\n    tag_262:\n        /* \"#utility.yul\":11273:11390   */\n    tag_261:\n        /* \"#utility.yul\":11414:11488   */\n      tag_263\n        /* \"#utility.yul\":11480:11487   */\n      dup5\n        /* \"#utility.yul\":11471:11477   */\n      dup3\n        /* \"#utility.yul\":11460:11469   */\n      dup6\n        /* \"#utility.yul\":11456:11478   */\n      add\n        /* \"#utility.yul\":11414:11488   */\n      tag_126\n      jump\t// in\n    tag_263:\n        /* \"#utility.yul\":11404:11488   */\n      swap2\n      pop\n        /* \"#utility.yul\":11207:11498   */\n      pop\n        /* \"#utility.yul\":10981:11505   */\n      swap3\n      swap2\n      pop\n      pop\n      jump\t// out\n        /* \"#utility.yul\":11511:11659   */\n    tag_127:\n        /* \"#utility.yul\":11613:11624   */\n      0x00\n        /* \"#utility.yul\":11650:11653   */\n      dup2\n        /* \"#utility.yul\":11635:11653   */\n      swap1\n      pop\n        /* \"#utility.yul\":11511:11659   */\n      swap3\n      swap2\n      pop\n      pop\n      jump\t// out\n        /* \"#utility.yul\":11665:12055   */\n    tag_128:\n        /* \"#utility.yul\":11771:11774   */\n      0x00\n        /* \"#utility.yul\":11799:11838   */\n      tag_266\n        /* \"#utility.yul\":11832:11837   */\n      dup3\n        /* \"#utility.yul\":11799:11838   */\n      tag_110\n      jump\t// in\n    tag_266:\n        /* \"#utility.yul\":11854:11943   */\n      tag_267\n        /* \"#utility.yul\":11936:11942   */\n      dup2\n        /* \"#utility.yul\":11931:11934   */\n      dup6\n        /* \"#utility.yul\":11854:11943   */\n      tag_127\n      jump\t// in\n    tag_267:\n        /* \"#utility.yul\":11847:11943   */\n      swap4\n      pop\n        /* \"#utility.yul\":11952:12017   */\n      tag_268\n        /* \"#utility.yul\":12010:12016   */\n      dup2\n        /* \"#utility.yul\":12005:12008   */\n      dup6\n        /* \"#utility.yul\":11998:12002   */\n      0x20\n        /* \"#utility.yul\":11991:11996   */\n      dup7\n        /* \"#utility.yul\":11987:12003   */\n      add\n        /* \"#utility.yul\":11952:12017   */\n      tag_112\n      jump\t// in\n    tag_268:\n        /* \"#utility.yul\":12042:12048   */\n      dup1\n        /* \"#utility.yul\":12037:12040   */\n      dup5\n        /* \"#utility.yul\":12033:12049   */\n      add\n        /* \"#utility.yul\":12026:12049   */\n      swap2\n      pop\n        /* \"#utility.yul\":11775:12055   */\n      pop\n        /* \"#utility.yul\":11665:12055   */\n      swap3\n      swap2\n      pop\n      pop\n      jump\t// out\n        /* \"#utility.yul\":12061:12336   */\n    tag_88:\n        /* \"#utility.yul\":12193:12196   */\n      0x00\n        /* \"#utility.yul\":12215:12310   */\n      tag_270\n        /* \"#utility.yul\":12306:12309   */\n      dup3\n        /* \"#utility.yul\":12297:12303   */\n      dup5\n        /* \"#utility.yul\":12215:12310   */\n      tag_128\n      jump\t// in\n    tag_270:\n        /* \"#utility.yul\":12208:12310   */\n      swap2\n      pop\n        /* \"#utility.yul\":12327:12330   */\n      dup2\n        /* \"#utility.yul\":12320:12330   */\n      swap1\n      pop\n        /* \"#utility.yul\":12061:12336   */\n      swap3\n      swap2\n      pop\n      pop\n      jump\t// out\n    stop\n\n    sub_0: assembly {\n            /* \"24_ContractFactory.sol\":58:296  contract Item {... */\n          mstore(0x40, 0x80)\n            /* \"24_ContractFactory.sol\":154:294  constructor(address _owner, string memory _name) payable {... */\n          mload(0x40)\n          sub(codesize, bytecodeSize)\n          dup1\n          bytecodeSize\n          dup4\n          codecopy\n          dup2\n          dup2\n          add\n          0x40\n          mstore\n          dup2\n          add\n          swap1\n          tag_1\n          swap2\n          swap1\n          tag_2\n          jump\t// in\n        tag_1:\n            /* \"24_ContractFactory.sol\":229:235  _owner */\n          dup2\n            /* \"24_ContractFactory.sol\":221:226  owner */\n          0x01\n          0x00\n            /* \"24_ContractFactory.sol\":221:235  owner = _owner */\n          0x0100\n          exp\n          dup2\n          sload\n          dup2\n          0xffffffffffffffffffffffffffffffffffffffff\n          mul\n          not\n          and\n          swap1\n          dup4\n          0xffffffffffffffffffffffffffffffffffffffff\n          and\n          mul\n          or\n          swap1\n          sstore\n          pop\n            /* \"24_ContractFactory.sol\":252:257  _name */\n          dup1\n            /* \"24_ContractFactory.sol\":245:249  name */\n          0x00\n            /* \"24_ContractFactory.sol\":245:257  name = _name */\n          swap1\n          dup2\n          tag_5\n          swap2\n          swap1\n          tag_6\n          jump\t// in\n        tag_5:\n          pop\n            /* \"24_ContractFactory.sol\":282:286  this */\n          address\n            /* \"24_ContractFactory.sol\":267:271  addr */\n          0x02\n          0x00\n            /* \"24_ContractFactory.sol\":267:287  addr = address(this) */\n          0x0100\n          exp\n          dup2\n          sload\n          dup2\n          0xffffffffffffffffffffffffffffffffffffffff\n          mul\n          not\n          and\n          swap1\n          dup4\n          0xffffffffffffffffffffffffffffffffffffffff\n          and\n          mul\n          or\n          swap1\n          sstore\n          pop\n            /* \"24_ContractFactory.sol\":154:294  constructor(address _owner, string memory _name) payable {... */\n          pop\n          pop\n            /* \"24_ContractFactory.sol\":58:296  contract Item {... */\n          jump(tag_7)\n            /* \"#utility.yul\":7:82   */\n        tag_8:\n            /* \"#utility.yul\":40:46   */\n          0x00\n            /* \"#utility.yul\":73:75   */\n          0x40\n            /* \"#utility.yul\":67:76   */\n          mload\n            /* \"#utility.yul\":57:76   */\n          swap1\n          pop\n            /* \"#utility.yul\":7:82   */\n          swap1\n          jump\t// out\n            /* \"#utility.yul\":88:205   */\n        tag_9:\n            /* \"#utility.yul\":197:198   */\n          0x00\n            /* \"#utility.yul\":194:195   */\n          0x00\n            /* \"#utility.yul\":187:199   */\n          revert\n            /* \"#utility.yul\":211:328   */\n        tag_10:\n            /* \"#utility.yul\":320:321   */\n          0x00\n            /* \"#utility.yul\":317:318   */\n          0x00\n            /* \"#utility.yul\":310:322   */\n          revert\n            /* \"#utility.yul\":334:460   */\n        tag_11:\n            /* \"#utility.yul\":371:378   */\n          0x00\n            /* \"#utility.yul\":411:453   */\n          0xffffffffffffffffffffffffffffffffffffffff\n            /* \"#utility.yul\":404:409   */\n          dup3\n            /* \"#utility.yul\":400:454   */\n          and\n            /* \"#utility.yul\":389:454   */\n          swap1\n          pop\n            /* \"#utility.yul\":334:460   */\n          swap2\n          swap1\n          pop\n          jump\t// out\n            /* \"#utility.yul\":466:562   */\n        tag_12:\n            /* \"#utility.yul\":503:510   */\n          0x00\n            /* \"#utility.yul\":532:556   */\n          tag_50\n            /* \"#utility.yul\":550:555   */\n          dup3\n            /* \"#utility.yul\":532:556   */\n          tag_11\n          jump\t// in\n        tag_50:\n            /* \"#utility.yul\":521:556   */\n          swap1\n          pop\n            /* \"#utility.yul\":466:562   */\n          swap2\n          swap1\n          pop\n          jump\t// out\n            /* \"#utility.yul\":568:690   */\n        tag_13:\n            /* \"#utility.yul\":641:665   */\n          tag_52\n            /* \"#utility.yul\":659:664   */\n          dup2\n            /* \"#utility.yul\":641:665   */\n          tag_12\n          jump\t// in\n        tag_52:\n            /* \"#utility.yul\":634:639   */\n          dup2\n            /* \"#utility.yul\":631:666   */\n          eq\n            /* \"#utility.yul\":621:684   */\n          tag_53\n          jumpi\n            /* \"#utility.yul\":680:681   */\n          0x00\n            /* \"#utility.yul\":677:678   */\n          0x00\n            /* \"#utility.yul\":670:682   */\n          revert\n            /* \"#utility.yul\":621:684   */\n        tag_53:\n            /* \"#utility.yul\":568:690   */\n          pop\n          jump\t// out\n            /* \"#utility.yul\":696:839   */\n        tag_14:\n            /* \"#utility.yul\":753:758   */\n          0x00\n            /* \"#utility.yul\":784:790   */\n          dup2\n            /* \"#utility.yul\":778:791   */\n          mload\n            /* \"#utility.yul\":769:791   */\n          swap1\n          pop\n            /* \"#utility.yul\":800:833   */\n          tag_55\n            /* \"#utility.yul\":827:832   */\n          dup2\n            /* \"#utility.yul\":800:833   */\n          tag_13\n          jump\t// in\n        tag_55:\n            /* \"#utility.yul\":696:839   */\n          swap3\n          swap2\n          pop\n          pop\n          jump\t// out\n            /* \"#utility.yul\":845:962   */\n        tag_15:\n            /* \"#utility.yul\":954:955   */\n          0x00\n            /* \"#utility.yul\":951:952   */\n          0x00\n            /* \"#utility.yul\":944:956   */\n          revert\n            /* \"#utility.yul\":968:1085   */\n        tag_16:\n            /* \"#utility.yul\":1077:1078   */\n          0x00\n            /* \"#utility.yul\":1074:1075   */\n          0x00\n            /* \"#utility.yul\":1067:1079   */\n          revert\n            /* \"#utility.yul\":1091:1193   */\n        tag_17:\n            /* \"#utility.yul\":1132:1138   */\n          0x00\n            /* \"#utility.yul\":1183:1185   */\n          0x1f\n            /* \"#utility.yul\":1179:1186   */\n          not\n            /* \"#utility.yul\":1174:1176   */\n          0x1f\n            /* \"#utility.yul\":1167:1172   */\n          dup4\n            /* \"#utility.yul\":1163:1177   */\n          add\n            /* \"#utility.yul\":1159:1187   */\n          and\n            /* \"#utility.yul\":1149:1187   */\n          swap1\n          pop\n            /* \"#utility.yul\":1091:1193   */\n          swap2\n          swap1\n          pop\n          jump\t// out\n            /* \"#utility.yul\":1199:1379   */\n        tag_18:\n            /* \"#utility.yul\":1247:1324   */\n          0x4e487b7100000000000000000000000000000000000000000000000000000000\n            /* \"#utility.yul\":1244:1245   */\n          0x00\n            /* \"#utility.yul\":1237:1325   */\n          mstore\n            /* \"#utility.yul\":1344:1348   */\n          0x41\n            /* \"#utility.yul\":1341:1342   */\n          0x04\n            /* \"#utility.yul\":1334:1349   */\n          mstore\n            /* \"#utility.yul\":1368:1372   */\n          0x24\n            /* \"#utility.yul\":1365:1366   */\n          0x00\n            /* \"#utility.yul\":1358:1373   */\n          revert\n            /* \"#utility.yul\":1385:1666   */\n        tag_19:\n            /* \"#utility.yul\":1468:1495   */\n          tag_61\n            /* \"#utility.yul\":1490:1494   */\n          dup3\n            /* \"#utility.yul\":1468:1495   */\n          tag_17\n          jump\t// in\n        tag_61:\n            /* \"#utility.yul\":1460:1466   */\n          dup2\n            /* \"#utility.yul\":1456:1496   */\n          add\n            /* \"#utility.yul\":1598:1604   */\n          dup2\n            /* \"#utility.yul\":1586:1596   */\n          dup2\n            /* \"#utility.yul\":1583:1605   */\n          lt\n            /* \"#utility.yul\":1562:1580   */\n          0xffffffffffffffff\n            /* \"#utility.yul\":1550:1560   */\n          dup3\n            /* \"#utility.yul\":1547:1581   */\n          gt\n            /* \"#utility.yul\":1544:1606   */\n          or\n            /* \"#utility.yul\":1541:1629   */\n          iszero\n          tag_62\n          jumpi\n            /* \"#utility.yul\":1609:1627   */\n          tag_63\n          tag_18\n          jump\t// in\n        tag_63:\n            /* \"#utility.yul\":1541:1629   */\n        tag_62:\n            /* \"#utility.yul\":1649:1659   */\n          dup1\n            /* \"#utility.yul\":1645:1647   */\n          0x40\n            /* \"#utility.yul\":1638:1660   */\n          mstore\n            /* \"#utility.yul\":1428:1666   */\n          pop\n            /* \"#utility.yul\":1385:1666   */\n          pop\n          pop\n          jump\t// out\n            /* \"#utility.yul\":1672:1801   */\n        tag_20:\n            /* \"#utility.yul\":1706:1712   */\n          0x00\n            /* \"#utility.yul\":1733:1753   */\n          tag_65\n          tag_8\n          jump\t// in\n        tag_65:\n            /* \"#utility.yul\":1723:1753   */\n          swap1\n          pop\n            /* \"#utility.yul\":1762:1795   */\n          tag_66\n            /* \"#utility.yul\":1790:1794   */\n          dup3\n            /* \"#utility.yul\":1782:1788   */\n          dup3\n            /* \"#utility.yul\":1762:1795   */\n          tag_19\n          jump\t// in\n        tag_66:\n            /* \"#utility.yul\":1672:1801   */\n          swap2\n          swap1\n          pop\n          jump\t// out\n            /* \"#utility.yul\":1807:2115   */\n        tag_21:\n            /* \"#utility.yul\":1869:1873   */\n          0x00\n            /* \"#utility.yul\":1959:1977   */\n          0xffffffffffffffff\n            /* \"#utility.yul\":1951:1957   */\n          dup3\n            /* \"#utility.yul\":1948:1978   */\n          gt\n            /* \"#utility.yul\":1945:2001   */\n          iszero\n          tag_68\n          jumpi\n            /* \"#utility.yul\":1981:1999   */\n          tag_69\n          tag_18\n          jump\t// in\n        tag_69:\n            /* \"#utility.yul\":1945:2001   */\n        tag_68:\n            /* \"#utility.yul\":2019:2048   */\n          tag_70\n            /* \"#utility.yul\":2041:2047   */\n          dup3\n            /* \"#utility.yul\":2019:2048   */\n          tag_17\n          jump\t// in\n        tag_70:\n            /* \"#utility.yul\":2011:2048   */\n          swap1\n          pop\n            /* \"#utility.yul\":2103:2107   */\n          0x20\n            /* \"#utility.yul\":2097:2101   */\n          dup2\n            /* \"#utility.yul\":2093:2108   */\n          add\n            /* \"#utility.yul\":2085:2108   */\n          swap1\n          pop\n            /* \"#utility.yul\":1807:2115   */\n          swap2\n          swap1\n          pop\n          jump\t// out\n            /* \"#utility.yul\":2121:2260   */\n        tag_22:\n            /* \"#utility.yul\":2210:2216   */\n          dup3\n            /* \"#utility.yul\":2205:2208   */\n          dup2\n            /* \"#utility.yul\":2200:2203   */\n          dup4\n            /* \"#utility.yul\":2194:2217   */\n          mcopy\n            /* \"#utility.yul\":2251:2252   */\n          0x00\n            /* \"#utility.yul\":2242:2248   */\n          dup4\n            /* \"#utility.yul\":2237:2240   */\n          dup4\n            /* \"#utility.yul\":2233:2249   */\n          add\n            /* \"#utility.yul\":2226:2253   */\n          mstore\n            /* \"#utility.yul\":2121:2260   */\n          pop\n          pop\n          pop\n          jump\t// out\n            /* \"#utility.yul\":2266:2700   */\n        tag_23:\n            /* \"#utility.yul\":2355:2360   */\n          0x00\n            /* \"#utility.yul\":2380:2446   */\n          tag_73\n            /* \"#utility.yul\":2396:2445   */\n          tag_74\n            /* \"#utility.yul\":2438:2444   */\n          dup5\n            /* \"#utility.yul\":2396:2445   */\n          tag_21\n          jump\t// in\n        tag_74:\n            /* \"#utility.yul\":2380:2446   */\n          tag_20\n          jump\t// in\n        tag_73:\n            /* \"#utility.yul\":2371:2446   */\n          swap1\n          pop\n            /* \"#utility.yul\":2469:2475   */\n          dup3\n            /* \"#utility.yul\":2462:2467   */\n          dup2\n            /* \"#utility.yul\":2455:2476   */\n          mstore\n            /* \"#utility.yul\":2507:2511   */\n          0x20\n            /* \"#utility.yul\":2500:2505   */\n          dup2\n            /* \"#utility.yul\":2496:2512   */\n          add\n            /* \"#utility.yul\":2545:2548   */\n          dup5\n            /* \"#utility.yul\":2536:2542   */\n          dup5\n            /* \"#utility.yul\":2531:2534   */\n          dup5\n            /* \"#utility.yul\":2527:2543   */\n          add\n            /* \"#utility.yul\":2524:2549   */\n          gt\n            /* \"#utility.yul\":2521:2633   */\n          iszero\n          tag_75\n          jumpi\n            /* \"#utility.yul\":2552:2631   */\n          tag_76\n          tag_16\n          jump\t// in\n        tag_76:\n            /* \"#utility.yul\":2521:2633   */\n        tag_75:\n            /* \"#utility.yul\":2642:2694   */\n          tag_77\n            /* \"#utility.yul\":2687:2693   */\n          dup5\n            /* \"#utility.yul\":2682:2685   */\n          dup3\n            /* \"#utility.yul\":2677:2680   */\n          dup6\n            /* \"#utility.yul\":2642:2694   */\n          tag_22\n          jump\t// in\n        tag_77:\n            /* \"#utility.yul\":2361:2700   */\n          pop\n            /* \"#utility.yul\":2266:2700   */\n          swap4\n          swap3\n          pop\n          pop\n          pop\n          jump\t// out\n            /* \"#utility.yul\":2720:3075   */\n        tag_24:\n            /* \"#utility.yul\":2787:2792   */\n          0x00\n            /* \"#utility.yul\":2836:2839   */\n          dup3\n            /* \"#utility.yul\":2829:2833   */\n          0x1f\n            /* \"#utility.yul\":2821:2827   */\n          dup4\n            /* \"#utility.yul\":2817:2834   */\n          add\n            /* \"#utility.yul\":2813:2840   */\n          slt\n            /* \"#utility.yul\":2803:2925   */\n          tag_79\n          jumpi\n            /* \"#utility.yul\":2844:2923   */\n          tag_80\n          tag_15\n          jump\t// in\n        tag_80:\n            /* \"#utility.yul\":2803:2925   */\n        tag_79:\n            /* \"#utility.yul\":2954:2960   */\n          dup2\n            /* \"#utility.yul\":2948:2961   */\n          mload\n            /* \"#utility.yul\":2979:3069   */\n          tag_81\n            /* \"#utility.yul\":3065:3068   */\n          dup5\n            /* \"#utility.yul\":3057:3063   */\n          dup3\n            /* \"#utility.yul\":3050:3054   */\n          0x20\n            /* \"#utility.yul\":3042:3048   */\n          dup7\n            /* \"#utility.yul\":3038:3055   */\n          add\n            /* \"#utility.yul\":2979:3069   */\n          tag_23\n          jump\t// in\n        tag_81:\n            /* \"#utility.yul\":2970:3069   */\n          swap2\n          pop\n            /* \"#utility.yul\":2793:3075   */\n          pop\n            /* \"#utility.yul\":2720:3075   */\n          swap3\n          swap2\n          pop\n          pop\n          jump\t// out\n            /* \"#utility.yul\":3081:3761   */\n        tag_2:\n            /* \"#utility.yul\":3170:3176   */\n          0x00\n            /* \"#utility.yul\":3178:3184   */\n          0x00\n            /* \"#utility.yul\":3227:3229   */\n          0x40\n            /* \"#utility.yul\":3215:3224   */\n          dup4\n            /* \"#utility.yul\":3206:3213   */\n          dup6\n            /* \"#utility.yul\":3202:3225   */\n          sub\n            /* \"#utility.yul\":3198:3230   */\n          slt\n            /* \"#utility.yul\":3195:3314   */\n          iszero\n          tag_83\n          jumpi\n            /* \"#utility.yul\":3233:3312   */\n          tag_84\n          tag_9\n          jump\t// in\n        tag_84:\n            /* \"#utility.yul\":3195:3314   */\n        tag_83:\n            /* \"#utility.yul\":3353:3354   */\n          0x00\n            /* \"#utility.yul\":3378:3442   */\n          tag_85\n            /* \"#utility.yul\":3434:3441   */\n          dup6\n            /* \"#utility.yul\":3425:3431   */\n          dup3\n            /* \"#utility.yul\":3414:3423   */\n          dup7\n            /* \"#utility.yul\":3410:3432   */\n          add\n            /* \"#utility.yul\":3378:3442   */\n          tag_14\n          jump\t// in\n        tag_85:\n            /* \"#utility.yul\":3368:3442   */\n          swap3\n          pop\n            /* \"#utility.yul\":3324:3452   */\n          pop\n            /* \"#utility.yul\":3512:3514   */\n          0x20\n            /* \"#utility.yul\":3501:3510   */\n          dup4\n            /* \"#utility.yul\":3497:3515   */\n          add\n            /* \"#utility.yul\":3491:3516   */\n          mload\n            /* \"#utility.yul\":3543:3561   */\n          0xffffffffffffffff\n            /* \"#utility.yul\":3535:3541   */\n          dup2\n            /* \"#utility.yul\":3532:3562   */\n          gt\n            /* \"#utility.yul\":3529:3646   */\n          iszero\n          tag_86\n          jumpi\n            /* \"#utility.yul\":3565:3644   */\n          tag_87\n          tag_10\n          jump\t// in\n        tag_87:\n            /* \"#utility.yul\":3529:3646   */\n        tag_86:\n            /* \"#utility.yul\":3670:3744   */\n          tag_88\n            /* \"#utility.yul\":3736:3743   */\n          dup6\n            /* \"#utility.yul\":3727:3733   */\n          dup3\n            /* \"#utility.yul\":3716:3725   */\n          dup7\n            /* \"#utility.yul\":3712:3734   */\n          add\n            /* \"#utility.yul\":3670:3744   */\n          tag_24\n          jump\t// in\n        tag_88:\n            /* \"#utility.yul\":3660:3744   */\n          swap2\n          pop\n            /* \"#utility.yul\":3462:3754   */\n          pop\n            /* \"#utility.yul\":3081:3761   */\n          swap3\n          pop\n          swap3\n          swap1\n          pop\n          jump\t// out\n            /* \"#utility.yul\":3767:3866   */\n        tag_25:\n            /* \"#utility.yul\":3819:3825   */\n          0x00\n            /* \"#utility.yul\":3853:3858   */\n          dup2\n            /* \"#utility.yul\":3847:3859   */\n          mload\n            /* \"#utility.yul\":3837:3859   */\n          swap1\n          pop\n            /* \"#utility.yul\":3767:3866   */\n          swap2\n          swap1\n          pop\n          jump\t// out\n            /* \"#utility.yul\":3872:4052   */\n        tag_26:\n            /* \"#utility.yul\":3920:3997   */\n          0x4e487b7100000000000000000000000000000000000000000000000000000000\n            /* \"#utility.yul\":3917:3918   */\n          0x00\n            /* \"#utility.yul\":3910:3998   */\n          mstore\n            /* \"#utility.yul\":4017:4021   */\n          0x22\n            /* \"#utility.yul\":4014:4015   */\n          0x04\n            /* \"#utility.yul\":4007:4022   */\n          mstore\n            /* \"#utility.yul\":4041:4045   */\n          0x24\n            /* \"#utility.yul\":4038:4039   */\n          0x00\n            /* \"#utility.yul\":4031:4046   */\n          revert\n            /* \"#utility.yul\":4058:4378   */\n        tag_27:\n            /* \"#utility.yul\":4102:4108   */\n          0x00\n            /* \"#utility.yul\":4139:4140   */\n          0x02\n            /* \"#utility.yul\":4133:4137   */\n          dup3\n            /* \"#utility.yul\":4129:4141   */\n          div\n            /* \"#utility.yul\":4119:4141   */\n          swap1\n          pop\n            /* \"#utility.yul\":4186:4187   */\n          0x01\n            /* \"#utility.yul\":4180:4184   */\n          dup3\n            /* \"#utility.yul\":4176:4188   */\n          and\n            /* \"#utility.yul\":4207:4225   */\n          dup1\n            /* \"#utility.yul\":4197:4278   */\n          tag_92\n          jumpi\n            /* \"#utility.yul\":4263:4267   */\n          0x7f\n            /* \"#utility.yul\":4255:4261   */\n          dup3\n            /* \"#utility.yul\":4251:4268   */\n          and\n            /* \"#utility.yul\":4241:4268   */\n          swap2\n          pop\n            /* \"#utility.yul\":4197:4278   */\n        tag_92:\n            /* \"#utility.yul\":4325:4327   */\n          0x20\n            /* \"#utility.yul\":4317:4323   */\n          dup3\n            /* \"#utility.yul\":4314:4328   */\n          lt\n            /* \"#utility.yul\":4294:4312   */\n          dup2\n            /* \"#utility.yul\":4291:4329   */\n          sub\n            /* \"#utility.yul\":4288:4372   */\n          tag_93\n          jumpi\n            /* \"#utility.yul\":4344:4362   */\n          tag_94\n          tag_26\n          jump\t// in\n        tag_94:\n            /* \"#utility.yul\":4288:4372   */\n        tag_93:\n            /* \"#utility.yul\":4109:4378   */\n          pop\n            /* \"#utility.yul\":4058:4378   */\n          swap2\n          swap1\n          pop\n          jump\t// out\n            /* \"#utility.yul\":4384:4525   */\n        tag_28:\n            /* \"#utility.yul\":4433:4437   */\n          0x00\n            /* \"#utility.yul\":4456:4459   */\n          dup2\n            /* \"#utility.yul\":4448:4459   */\n          swap1\n          pop\n            /* \"#utility.yul\":4479:4482   */\n          dup2\n            /* \"#utility.yul\":4476:4477   */\n          0x00\n            /* \"#utility.yul\":4469:4483   */\n          mstore\n            /* \"#utility.yul\":4513:4517   */\n          0x20\n            /* \"#utility.yul\":4510:4511   */\n          0x00\n            /* \"#utility.yul\":4500:4518   */\n          keccak256\n            /* \"#utility.yul\":4492:4518   */\n          swap1\n          pop\n            /* \"#utility.yul\":4384:4525   */\n          swap2\n          swap1\n          pop\n          jump\t// out\n            /* \"#utility.yul\":4531:4624   */\n        tag_29:\n            /* \"#utility.yul\":4568:4574   */\n          0x00\n            /* \"#utility.yul\":4615:4617   */\n          0x20\n            /* \"#utility.yul\":4610:4612   */\n          0x1f\n            /* \"#utility.yul\":4603:4608   */\n          dup4\n            /* \"#utility.yul\":4599:4613   */\n          add\n            /* \"#utility.yul\":4595:4618   */\n          div\n            /* \"#utility.yul\":4585:4618   */\n          swap1\n          pop\n            /* \"#utility.yul\":4531:4624   */\n          swap2\n          swap1\n          pop\n          jump\t// out\n            /* \"#utility.yul\":4630:4737   */\n        tag_30:\n            /* \"#utility.yul\":4674:4682   */\n          0x00\n            /* \"#utility.yul\":4724:4729   */\n          dup3\n            /* \"#utility.yul\":4718:4722   */\n          dup3\n            /* \"#utility.yul\":4714:4730   */\n          shl\n            /* \"#utility.yul\":4693:4730   */\n          swap1\n          pop\n            /* \"#utility.yul\":4630:4737   */\n          swap3\n          swap2\n          pop\n          pop\n          jump\t// out\n            /* \"#utility.yul\":4743:5136   */\n        tag_31:\n            /* \"#utility.yul\":4812:4818   */\n          0x00\n            /* \"#utility.yul\":4862:4863   */\n          0x08\n            /* \"#utility.yul\":4850:4860   */\n          dup4\n            /* \"#utility.yul\":4846:4864   */\n          mul\n            /* \"#utility.yul\":4885:4982   */\n          tag_99\n            /* \"#utility.yul\":4915:4981   */\n          0xffffffffffffffffffffffffffffffffffffffffffffffffffffffffffffffff\n            /* \"#utility.yul\":4904:4913   */\n          dup3\n            /* \"#utility.yul\":4885:4982   */\n          tag_30\n          jump\t// in\n        tag_99:\n            /* \"#utility.yul\":5003:5042   */\n          tag_100\n            /* \"#utility.yul\":5033:5041   */\n          dup7\n            /* \"#utility.yul\":5022:5031   */\n          dup4\n            /* \"#utility.yul\":5003:5042   */\n          tag_30\n          jump\t// in\n        tag_100:\n            /* \"#utility.yul\":4991:5042   */\n          swap6\n          pop\n            /* \"#utility.yul\":5075:5079   */\n          dup1\n            /* \"#utility.yul\":5071:5080   */\n          not\n            /* \"#utility.yul\":5064:5069   */\n          dup5\n            /* \"#utility.yul\":5060:5081   */\n          and\n            /* \"#utility.yul\":5051:5081   */\n          swap4\n          pop\n            /* \"#utility.yul\":5124:5128   */\n          dup1\n            /* \"#utility.yul\":5114:5122   */\n          dup7\n            /* \"#utility.yul\":5110:5129   */\n          and\n            /* \"#utility.yul\":5103:5108   */\n          dup5\n            /* \"#utility.yul\":5100:5130   */\n          or\n            /* \"#utility.yul\":5090:5130   */\n          swap3\n          pop\n            /* \"#utility.yul\":4819:5136   */\n          pop\n          pop\n            /* \"#utility.yul\":4743:5136   */\n          swap4\n          swap3\n          pop\n          pop\n          pop\n          jump\t// out\n            /* \"#utility.yul\":5142:5219   */\n        tag_32:\n            /* \"#utility.yul\":5179:5186   */\n          0x00\n            /* \"#utility.yul\":5208:5213   */\n          dup2\n            /* \"#utility.yul\":5197:5213   */\n          swap1\n          pop\n            /* \"#utility.yul\":5142:5219   */\n          swap2\n          swap1\n          pop\n          jump\t// out\n            /* \"#utility.yul\":5225:5285   */\n        tag_33:\n            /* \"#utility.yul\":5253:5256   */\n          0x00\n            /* \"#utility.yul\":5274:5279   */\n          dup2\n            /* \"#utility.yul\":5267:5279   */\n          swap1\n          pop\n            /* \"#utility.yul\":5225:5285   */\n          swap2\n          swap1\n          pop\n          jump\t// out\n            /* \"#utility.yul\":5291:5433   */\n        tag_34:\n            /* \"#utility.yul\":5341:5350   */\n          0x00\n            /* \"#utility.yul\":5374:5427   */\n          tag_104\n            /* \"#utility.yul\":5392:5426   */\n          tag_105\n            /* \"#utility.yul\":5401:5425   */\n          tag_106\n            /* \"#utility.yul\":5419:5424   */\n          dup5\n            /* \"#utility.yul\":5401:5425   */\n          tag_32\n          jump\t// in\n        tag_106:\n            /* \"#utility.yul\":5392:5426   */\n          tag_33\n          jump\t// in\n        tag_105:\n            /* \"#utility.yul\":5374:5427   */\n          tag_32\n          jump\t// in\n        tag_104:\n            /* \"#utility.yul\":5361:5427   */\n          swap1\n          pop\n            /* \"#utility.yul\":5291:5433   */\n          swap2\n          swap1\n          pop\n          jump\t// out\n            /* \"#utility.yul\":5439:5514   */\n        tag_35:\n            /* \"#utility.yul\":5482:5485   */\n          0x00\n            /* \"#utility.yul\":5503:5508   */\n          dup2\n            /* \"#utility.yul\":5496:5508   */\n          swap1\n          pop\n            /* \"#utility.yul\":5439:5514   */\n          swap2\n          swap1\n          pop\n          jump\t// out\n            /* \"#utility.yul\":5520:5789   */\n        tag_36:\n            /* \"#utility.yul\":5630:5669   */\n          tag_109\n            /* \"#utility.yul\":5661:5668   */\n          dup4\n            /* \"#utility.yul\":5630:5669   */\n          tag_34\n          jump\t// in\n        tag_109:\n            /* \"#utility.yul\":5691:5782   */\n          tag_110\n            /* \"#utility.yul\":5740:5781   */\n          tag_111\n            /* \"#utility.yul\":5764:5780   */\n          dup3\n            /* \"#utility.yul\":5740:5781   */\n          tag_35\n          jump\t// in\n        tag_111:\n            /* \"#utility.yul\":5732:5738   */\n          dup5\n            /* \"#utility.yul\":5725:5729   */\n          dup5\n            /* \"#utility.yul\":5719:5730   */\n          sload\n            /* \"#utility.yul\":5691:5782   */\n          tag_31\n          jump\t// in\n        tag_110:\n            /* \"#utility.yul\":5685:5689   */\n          dup3\n            /* \"#utility.yul\":5678:5783   */\n          sstore\n            /* \"#utility.yul\":5596:5789   */\n          pop\n            /* \"#utility.yul\":5520:5789   */\n          pop\n          pop\n          pop\n          jump\t// out\n            /* \"#utility.yul\":5795:5868   */\n        tag_37:\n            /* \"#utility.yul\":5840:5843   */\n          0x00\n            /* \"#utility.yul\":5861:5862   */\n          0x00\n            /* \"#utility.yul\":5854:5862   */\n          swap1\n          pop\n            /* \"#utility.yul\":5795:5868   */\n          swap1\n          jump\t// out\n            /* \"#utility.yul\":5874:6063   */\n        tag_38:\n            /* \"#utility.yul\":5951:5983   */\n          tag_114\n          tag_37\n          jump\t// in\n        tag_114:\n            /* \"#utility.yul\":5992:6057   */\n          tag_115\n            /* \"#utility.yul\":6050:6056   */\n          dup2\n            /* \"#utility.yul\":6042:6048   */\n          dup5\n            /* \"#utility.yul\":6036:6040   */\n          dup5\n            /* \"#utility.yul\":5992:6057   */\n          tag_36\n          jump\t// in\n        tag_115:\n            /* \"#utility.yul\":5927:6063   */\n          pop\n            /* \"#utility.yul\":5874:6063   */\n          pop\n          pop\n          jump\t// out\n            /* \"#utility.yul\":6069:6255   */\n        tag_39:\n            /* \"#utility.yul\":6129:6249   */\n        tag_117:\n            /* \"#utility.yul\":6146:6149   */\n          dup2\n            /* \"#utility.yul\":6139:6144   */\n          dup2\n            /* \"#utility.yul\":6136:6150   */\n          lt\n            /* \"#utility.yul\":6129:6249   */\n          iszero\n          tag_119\n          jumpi\n            /* \"#utility.yul\":6200:6239   */\n          tag_120\n            /* \"#utility.yul\":6237:6238   */\n          0x00\n            /* \"#utility.yul\":6230:6235   */\n          dup3\n            /* \"#utility.yul\":6200:6239   */\n          tag_38\n          jump\t// in\n        tag_120:\n            /* \"#utility.yul\":6173:6174   */\n          0x01\n            /* \"#utility.yul\":6166:6171   */\n          dup2\n            /* \"#utility.yul\":6162:6175   */\n          add\n            /* \"#utility.yul\":6153:6175   */\n          swap1\n          pop\n            /* \"#utility.yul\":6129:6249   */\n          jump(tag_117)\n        tag_119:\n            /* \"#utility.yul\":6069:6255   */\n          pop\n          pop\n          jump\t// out\n            /* \"#utility.yul\":6261:6804   */\n        tag_40:\n            /* \"#utility.yul\":6362:6364   */\n          0x1f\n            /* \"#utility.yul\":6357:6360   */\n          dup3\n            /* \"#utility.yul\":6354:6365   */\n          gt\n            /* \"#utility.yul\":6351:6797   */\n          iszero\n          tag_122\n          jumpi\n            /* \"#utility.yul\":6396:6434   */\n          tag_123\n            /* \"#utility.yul\":6428:6433   */\n          dup2\n            /* \"#utility.yul\":6396:6434   */\n          tag_28\n          jump\t// in\n        tag_123:\n            /* \"#utility.yul\":6480:6509   */\n          tag_124\n            /* \"#utility.yul\":6498:6508   */\n          dup5\n            /* \"#utility.yul\":6480:6509   */\n          tag_29\n          jump\t// in\n        tag_124:\n            /* \"#utility.yul\":6470:6478   */\n          dup2\n            /* \"#utility.yul\":6466:6510   */\n          add\n            /* \"#utility.yul\":6663:6665   */\n          0x20\n            /* \"#utility.yul\":6651:6661   */\n          dup6\n            /* \"#utility.yul\":6648:6666   */\n          lt\n            /* \"#utility.yul\":6645:6694   */\n          iszero\n          tag_125\n          jumpi\n            /* \"#utility.yul\":6684:6692   */\n          dup2\n            /* \"#utility.yul\":6669:6692   */\n          swap1\n          pop\n            /* \"#utility.yul\":6645:6694   */\n        tag_125:\n            /* \"#utility.yul\":6707:6787   */\n          tag_126\n            /* \"#utility.yul\":6763:6785   */\n          tag_127\n            /* \"#utility.yul\":6781:6784   */\n          dup6\n            /* \"#utility.yul\":6763:6785   */\n          tag_29\n          jump\t// in\n        tag_127:\n            /* \"#utility.yul\":6753:6761   */\n          dup4\n            /* \"#utility.yul\":6749:6786   */\n          add\n            /* \"#utility.yul\":6736:6747   */\n          dup3\n            /* \"#utility.yul\":6707:6787   */\n          tag_39\n          jump\t// in\n        tag_126:\n            /* \"#utility.yul\":6366:6797   */\n          pop\n          pop\n            /* \"#utility.yul\":6351:6797   */\n        tag_122:\n            /* \"#utility.yul\":6261:6804   */\n          pop\n          pop\n          pop\n          jump\t// out\n            /* \"#utility.yul\":6810:6927   */\n        tag_41:\n            /* \"#utility.yul\":6864:6872   */\n          0x00\n            /* \"#utility.yul\":6914:6919   */\n          dup3\n            /* \"#utility.yul\":6908:6912   */\n          dup3\n            /* \"#utility.yul\":6904:6920   */\n          shr\n            /* \"#utility.yul\":6883:6920   */\n          swap1\n          pop\n            /* \"#utility.yul\":6810:6927   */\n          swap3\n          swap2\n          pop\n          pop\n          jump\t// out\n            /* \"#utility.yul\":6933:7102   */\n        tag_42:\n            /* \"#utility.yul\":6977:6983   */\n          0x00\n            /* \"#utility.yul\":7010:7061   */\n          tag_130\n            /* \"#utility.yul\":7058:7059   */\n          0x00\n            /* \"#utility.yul\":7054:7060   */\n          not\n            /* \"#utility.yul\":7046:7051   */\n          dup5\n            /* \"#utility.yul\":7043:7044   */\n          0x08\n            /* \"#utility.yul\":7039:7052   */\n          mul\n            /* \"#utility.yul\":7010:7061   */\n          tag_41\n          jump\t// in\n        tag_130:\n            /* \"#utility.yul\":7006:7062   */\n          not\n            /* \"#utility.yul\":7091:7095   */\n          dup1\n            /* \"#utility.yul\":7085:7089   */\n          dup4\n            /* \"#utility.yul\":7081:7096   */\n          and\n            /* \"#utility.yul\":7071:7096   */\n          swap2\n          pop\n            /* \"#utility.yul\":6984:7102   */\n          pop\n            /* \"#utility.yul\":6933:7102   */\n          swap3\n          swap2\n          pop\n          pop\n          jump\t// out\n            /* \"#utility.yul\":7107:7402   */\n        tag_43:\n            /* \"#utility.yul\":7183:7187   */\n          0x00\n            /* \"#utility.yul\":7329:7358   */\n          tag_132\n            /* \"#utility.yul\":7354:7357   */\n          dup4\n            /* \"#utility.yul\":7348:7352   */\n          dup4\n            /* \"#utility.yul\":7329:7358   */\n          tag_42\n          jump\t// in\n        tag_132:\n            /* \"#utility.yul\":7321:7358   */\n          swap2\n          pop\n            /* \"#utility.yul\":7391:7394   */\n          dup3\n            /* \"#utility.yul\":7388:7389   */\n          0x02\n            /* \"#utility.yul\":7384:7395   */\n          mul\n            /* \"#utility.yul\":7378:7382   */\n          dup3\n            /* \"#utility.yul\":7375:7396   */\n          or\n            /* \"#utility.yul\":7367:7396   */\n          swap1\n          pop\n            /* \"#utility.yul\":7107:7402   */\n          swap3\n          swap2\n          pop\n          pop\n          jump\t// out\n            /* \"#utility.yul\":7407:8802   */\n        tag_6:\n            /* \"#utility.yul\":7524:7561   */\n          tag_134\n            /* \"#utility.yul\":7557:7560   */\n          dup3\n            /* \"#utility.yul\":7524:7561   */\n          tag_25\n          jump\t// in\n        tag_134:\n            /* \"#utility.yul\":7626:7644   */\n          0xffffffffffffffff\n            /* \"#utility.yul\":7618:7624   */\n          dup2\n            /* \"#utility.yul\":7615:7645   */\n          gt\n            /* \"#utility.yul\":7612:7668   */\n          iszero\n          tag_135\n          jumpi\n            /* \"#utility.yul\":7648:7666   */\n          tag_136\n          tag_18\n          jump\t// in\n        tag_136:\n            /* \"#utility.yul\":7612:7668   */\n        tag_135:\n            /* \"#utility.yul\":7692:7730   */\n          tag_137\n            /* \"#utility.yul\":7724:7728   */\n          dup3\n            /* \"#utility.yul\":7718:7729   */\n          sload\n            /* \"#utility.yul\":7692:7730   */\n          tag_27\n          jump\t// in\n        tag_137:\n            /* \"#utility.yul\":7777:7844   */\n          tag_138\n            /* \"#utility.yul\":7837:7843   */\n          dup3\n            /* \"#utility.yul\":7829:7835   */\n          dup3\n            /* \"#utility.yul\":7823:7827   */\n          dup6\n            /* \"#utility.yul\":7777:7844   */\n          tag_40\n          jump\t// in\n        tag_138:\n            /* \"#utility.yul\":7871:7872   */\n          0x00\n            /* \"#utility.yul\":7895:7899   */\n          0x20\n            /* \"#utility.yul\":7882:7899   */\n          swap1\n          pop\n            /* \"#utility.yul\":7927:7929   */\n          0x1f\n            /* \"#utility.yul\":7919:7925   */\n          dup4\n            /* \"#utility.yul\":7916:7930   */\n          gt\n            /* \"#utility.yul\":7944:7945   */\n          0x01\n            /* \"#utility.yul\":7939:8557   */\n          dup2\n          eq\n          tag_140\n          jumpi\n            /* \"#utility.yul\":8601:8602   */\n          0x00\n            /* \"#utility.yul\":8618:8624   */\n          dup5\n            /* \"#utility.yul\":8615:8692   */\n          iszero\n          tag_141\n          jumpi\n            /* \"#utility.yul\":8667:8676   */\n          dup3\n            /* \"#utility.yul\":8662:8665   */\n          dup8\n            /* \"#utility.yul\":8658:8677   */\n          add\n            /* \"#utility.yul\":8652:8678   */\n          mload\n            /* \"#utility.yul\":8643:8678   */\n          swap1\n          pop\n            /* \"#utility.yul\":8615:8692   */\n        tag_141:\n            /* \"#utility.yul\":8718:8785   */\n          tag_142\n            /* \"#utility.yul\":8778:8784   */\n          dup6\n            /* \"#utility.yul\":8771:8776   */\n          dup3\n            /* \"#utility.yul\":8718:8785   */\n          tag_43\n          jump\t// in\n        tag_142:\n            /* \"#utility.yul\":8712:8716   */\n          dup7\n            /* \"#utility.yul\":8705:8786   */\n          sstore\n            /* \"#utility.yul\":8574:8796   */\n          pop\n            /* \"#utility.yul\":7909:8796   */\n          jump(tag_139)\n            /* \"#utility.yul\":7939:8557   */\n        tag_140:\n            /* \"#utility.yul\":7991:7995   */\n          0x1f\n            /* \"#utility.yul\":7987:7996   */\n          not\n            /* \"#utility.yul\":7979:7985   */\n          dup5\n            /* \"#utility.yul\":7975:7997   */\n          and\n            /* \"#utility.yul\":8025:8062   */\n          tag_143\n            /* \"#utility.yul\":8057:8061   */\n          dup7\n            /* \"#utility.yul\":8025:8062   */\n          tag_28\n          jump\t// in\n        tag_143:\n            /* \"#utility.yul\":8084:8085   */\n          0x00\n            /* \"#utility.yul\":8098:8306   */\n        tag_144:\n            /* \"#utility.yul\":8112:8119   */\n          dup3\n            /* \"#utility.yul\":8109:8110   */\n          dup2\n            /* \"#utility.yul\":8106:8120   */\n          lt\n            /* \"#utility.yul\":8098:8306   */\n          iszero\n          tag_146\n          jumpi\n            /* \"#utility.yul\":8191:8200   */\n          dup5\n            /* \"#utility.yul\":8186:8189   */\n          dup10\n            /* \"#utility.yul\":8182:8201   */\n          add\n            /* \"#utility.yul\":8176:8202   */\n          mload\n            /* \"#utility.yul\":8168:8174   */\n          dup3\n            /* \"#utility.yul\":8161:8203   */\n          sstore\n            /* \"#utility.yul\":8242:8243   */\n          0x01\n            /* \"#utility.yul\":8234:8240   */\n          dup3\n            /* \"#utility.yul\":8230:8244   */\n          add\n            /* \"#utility.yul\":8220:8244   */\n          swap2\n          pop\n            /* \"#utility.yul\":8289:8291   */\n          0x20\n            /* \"#utility.yul\":8278:8287   */\n          dup6\n            /* \"#utility.yul\":8274:8292   */\n          add\n            /* \"#utility.yul\":8261:8292   */\n          swap5\n          pop\n            /* \"#utility.yul\":8135:8139   */\n          0x20\n            /* \"#utility.yul\":8132:8133   */\n          dup2\n            /* \"#utility.yul\":8128:8140   */\n          add\n            /* \"#utility.yul\":8123:8140   */\n          swap1\n          pop\n            /* \"#utility.yul\":8098:8306   */\n          jump(tag_144)\n        tag_146:\n            /* \"#utility.yul\":8334:8340   */\n          dup7\n            /* \"#utility.yul\":8325:8332   */\n          dup4\n            /* \"#utility.yul\":8322:8341   */\n          lt\n            /* \"#utility.yul\":8319:8498   */\n          iszero\n          tag_147\n          jumpi\n            /* \"#utility.yul\":8392:8401   */\n          dup5\n            /* \"#utility.yul\":8387:8390   */\n          dup10\n            /* \"#utility.yul\":8383:8402   */\n          add\n            /* \"#utility.yul\":8377:8403   */\n          mload\n            /* \"#utility.yul\":8435:8483   */\n          tag_148\n            /* \"#utility.yul\":8477:8481   */\n          0x1f\n            /* \"#utility.yul\":8469:8475   */\n          dup10\n            /* \"#utility.yul\":8465:8482   */\n          and\n            /* \"#utility.yul\":8454:8463   */\n          dup3\n            /* \"#utility.yul\":8435:8483   */\n          tag_42\n          jump\t// in\n        tag_148:\n            /* \"#utility.yul\":8427:8433   */\n          dup4\n            /* \"#utility.yul\":8420:8484   */\n          sstore\n            /* \"#utility.yul\":8342:8498   */\n          pop\n            /* \"#utility.yul\":8319:8498   */\n        tag_147:\n            /* \"#utility.yul\":8544:8545   */\n          0x01\n            /* \"#utility.yul\":8540:8541   */\n          0x02\n            /* \"#utility.yul\":8532:8538   */\n          dup9\n            /* \"#utility.yul\":8528:8542   */\n          mul\n            /* \"#utility.yul\":8524:8546   */\n          add\n            /* \"#utility.yul\":8518:8522   */\n          dup9\n            /* \"#utility.yul\":8511:8547   */\n          sstore\n            /* \"#utility.yul\":7946:8557   */\n          pop\n          pop\n          pop\n            /* \"#utility.yul\":7909:8796   */\n        tag_139:\n          pop\n            /* \"#utility.yul\":7499:8802   */\n          pop\n          pop\n          pop\n            /* \"#utility.yul\":7407:8802   */\n          pop\n          pop\n          jump\t// out\n            /* \"24_ContractFactory.sol\":58:296  contract Item {... */\n        tag_7:\n          dataSize(sub_0)\n          dup1\n          dataOffset(sub_0)\n          0x00\n          codecopy\n          0x00\n          return\n        stop\n\n        sub_0: assembly {\n                /* \"24_ContractFactory.sol\":58:296  contract Item {... */\n              mstore(0x40, 0x80)\n              callvalue\n              dup1\n              iszero\n              tag_1\n              jumpi\n              revert(0x00, 0x00)\n            tag_1:\n              pop\n              jumpi(tag_2, lt(calldatasize, 0x04))\n              shr(0xe0, calldataload(0x00))\n              dup1\n              0x06fdde03\n              eq\n              tag_3\n              jumpi\n              dup1\n              0x767800de\n              eq\n              tag_4\n              jumpi\n              dup1\n              0x8da5cb5b\n              eq\n              tag_5\n              jumpi\n            tag_2:\n              revert(0x00, 0x00)\n                /* \"24_ContractFactory.sol\":78:96  string public name */\n            tag_3:\n              tag_6\n              tag_7\n              jump\t// in\n            tag_6:\n              mload(0x40)\n              tag_8\n              swap2\n              swap1\n              tag_9\n              jump\t// in\n            tag_8:\n              mload(0x40)\n              dup1\n              swap2\n              sub\n              swap1\n              return\n                /* \"24_ContractFactory.sol\":128:147  address public addr */\n            tag_4:\n              tag_10\n              tag_11\n              jump\t// in\n            tag_10:\n              mload(0x40)\n              tag_12\n              swap2\n              swap1\n              tag_13\n              jump\t// in\n            tag_12:\n              mload(0x40)\n              dup1\n              swap2\n              sub\n              swap1\n              return\n                /* \"24_ContractFactory.sol\":102:122  address public owner */\n            tag_5:\n              tag_14\n              tag_15\n              jump\t// in\n            tag_14:\n              mload(0x40)\n              tag_16\n              swap2\n              swap1\n              tag_13\n              jump\t// in\n            tag_16:\n              mload(0x40)\n              dup1\n              swap2\n              sub\n              swap1\n              return\n                /* \"24_ContractFactory.sol\":78:96  string public name */\n            tag_7:\n              0x00\n              dup1\n              sload\n              tag_17\n              swap1\n              tag_18\n              jump\t// in\n            tag_17:\n              dup1\n              0x1f\n              add\n              0x20\n              dup1\n              swap2\n              div\n              mul\n              0x20\n              add\n              mload(0x40)\n              swap1\n              dup2\n              add\n              0x40\n              mstore\n              dup1\n              swap3\n              swap2\n              swap1\n              dup2\n              dup2\n              mstore\n              0x20\n              add\n              dup3\n              dup1\n              sload\n              tag_19\n              swap1\n              tag_18\n              jump\t// in\n            tag_19:\n              dup1\n              iszero\n              tag_20\n              jumpi\n              dup1\n              0x1f\n              lt\n              tag_21\n              jumpi\n              0x0100\n              dup1\n              dup4\n              sload\n              div\n              mul\n              dup4\n              mstore\n              swap2\n              0x20\n              add\n              swap2\n              jump(tag_20)\n            tag_21:\n              dup3\n              add\n              swap2\n              swap1\n              0x00\n              mstore\n              keccak256(0x00, 0x20)\n              swap1\n            tag_22:\n              dup2\n              sload\n              dup2\n              mstore\n              swap1\n              0x01\n              add\n              swap1\n              0x20\n              add\n              dup1\n              dup4\n              gt\n              tag_22\n              jumpi\n              dup3\n              swap1\n              sub\n              0x1f\n              and\n              dup3\n              add\n              swap2\n            tag_20:\n              pop\n              pop\n              pop\n              pop\n              pop\n              dup2\n              jump\t// out\n                /* \"24_ContractFactory.sol\":128:147  address public addr */\n            tag_11:\n              0x02\n              0x00\n              swap1\n              sload\n              swap1\n              0x0100\n              exp\n              swap1\n              div\n              0xffffffffffffffffffffffffffffffffffffffff\n              and\n              dup2\n              jump\t// out\n                /* \"24_ContractFactory.sol\":102:122  address public owner */\n            tag_15:\n              0x01\n              0x00\n              swap1\n              sload\n              swap1\n              0x0100\n              exp\n              swap1\n              div\n              0xffffffffffffffffffffffffffffffffffffffff\n              and\n              dup2\n              jump\t// out\n                /* \"#utility.yul\":7:106   */\n            tag_23:\n                /* \"#utility.yul\":59:65   */\n              0x00\n                /* \"#utility.yul\":93:98   */\n              dup2\n                /* \"#utility.yul\":87:99   */\n              mload\n                /* \"#utility.yul\":77:99   */\n              swap1\n              pop\n                /* \"#utility.yul\":7:106   */\n              swap2\n              swap1\n              pop\n              jump\t// out\n                /* \"#utility.yul\":112:281   */\n            tag_24:\n                /* \"#utility.yul\":196:207   */\n              0x00\n                /* \"#utility.yul\":230:236   */\n              dup3\n                /* \"#utility.yul\":225:228   */\n              dup3\n                /* \"#utility.yul\":218:237   */\n              mstore\n                /* \"#utility.yul\":270:274   */\n              0x20\n                /* \"#utility.yul\":265:268   */\n              dup3\n                /* \"#utility.yul\":261:275   */\n              add\n                /* \"#utility.yul\":246:275   */\n              swap1\n              pop\n                /* \"#utility.yul\":112:281   */\n              swap3\n              swap2\n              pop\n              pop\n              jump\t// out\n                /* \"#utility.yul\":287:426   */\n            tag_25:\n                /* \"#utility.yul\":376:382   */\n              dup3\n                /* \"#utility.yul\":371:374   */\n              dup2\n                /* \"#utility.yul\":366:369   */\n              dup4\n                /* \"#utility.yul\":360:383   */\n              mcopy\n                /* \"#utility.yul\":417:418   */\n              0x00\n                /* \"#utility.yul\":408:414   */\n              dup4\n                /* \"#utility.yul\":403:406   */\n              dup4\n                /* \"#utility.yul\":399:415   */\n              add\n                /* \"#utility.yul\":392:419   */\n              mstore\n                /* \"#utility.yul\":287:426   */\n              pop\n              pop\n              pop\n              jump\t// out\n                /* \"#utility.yul\":432:534   */\n            tag_26:\n                /* \"#utility.yul\":473:479   */\n              0x00\n                /* \"#utility.yul\":524:526   */\n              0x1f\n                /* \"#utility.yul\":520:527   */\n              not\n                /* \"#utility.yul\":515:517   */\n              0x1f\n                /* \"#utility.yul\":508:513   */\n              dup4\n                /* \"#utility.yul\":504:518   */\n              add\n                /* \"#utility.yul\":500:528   */\n              and\n                /* \"#utility.yul\":490:528   */\n              swap1\n              pop\n                /* \"#utility.yul\":432:534   */\n              swap2\n              swap1\n              pop\n              jump\t// out\n                /* \"#utility.yul\":540:917   */\n            tag_27:\n                /* \"#utility.yul\":628:631   */\n              0x00\n                /* \"#utility.yul\":656:695   */\n              tag_38\n                /* \"#utility.yul\":689:694   */\n              dup3\n                /* \"#utility.yul\":656:695   */\n              tag_23\n              jump\t// in\n            tag_38:\n                /* \"#utility.yul\":711:782   */\n              tag_39\n                /* \"#utility.yul\":775:781   */\n              dup2\n                /* \"#utility.yul\":770:773   */\n              dup6\n                /* \"#utility.yul\":711:782   */\n              tag_24\n              jump\t// in\n            tag_39:\n                /* \"#utility.yul\":704:782   */\n              swap4\n              pop\n                /* \"#utility.yul\":791:856   */\n              tag_40\n                /* \"#utility.yul\":849:855   */\n              dup2\n                /* \"#utility.yul\":844:847   */\n              dup6\n                /* \"#utility.yul\":837:841   */\n              0x20\n                /* \"#utility.yul\":830:835   */\n              dup7\n                /* \"#utility.yul\":826:842   */\n              add\n                /* \"#utility.yul\":791:856   */\n              tag_25\n              jump\t// in\n            tag_40:\n                /* \"#utility.yul\":881:910   */\n              tag_41\n                /* \"#utility.yul\":903:909   */\n              dup2\n                /* \"#utility.yul\":881:910   */\n              tag_26\n              jump\t// in\n            tag_41:\n                /* \"#utility.yul\":876:879   */\n              dup5\n                /* \"#utility.yul\":872:911   */\n              add\n                /* \"#utility.yul\":865:911   */\n              swap2\n              pop\n                /* \"#utility.yul\":632:917   */\n              pop\n                /* \"#utility.yul\":540:917   */\n              swap3\n              swap2\n              pop\n              pop\n              jump\t// out\n                /* \"#utility.yul\":923:1236   */\n            tag_9:\n                /* \"#utility.yul\":1036:1040   */\n              0x00\n                /* \"#utility.yul\":1074:1076   */\n              0x20\n                /* \"#utility.yul\":1063:1072   */\n              dup3\n                /* \"#utility.yul\":1059:1077   */\n              add\n                /* \"#utility.yul\":1051:1077   */\n              swap1\n              pop\n                /* \"#utility.yul\":1123:1132   */\n              dup2\n                /* \"#utility.yul\":1117:1121   */\n              dup2\n                /* \"#utility.yul\":1113:1133   */\n              sub\n                /* \"#utility.yul\":1109:1110   */\n              0x00\n                /* \"#utility.yul\":1098:1107   */\n              dup4\n                /* \"#utility.yul\":1094:1111   */\n              add\n                /* \"#utility.yul\":1087:1134   */\n              mstore\n                /* \"#utility.yul\":1151:1229   */\n              tag_43\n                /* \"#utility.yul\":1224:1228   */\n              dup2\n                /* \"#utility.yul\":1215:1221   */\n              dup5\n                /* \"#utility.yul\":1151:1229   */\n              tag_27\n              jump\t// in\n            tag_43:\n                /* \"#utility.yul\":1143:1229   */\n              swap1\n              pop\n                /* \"#utility.yul\":923:1236   */\n              swap3\n              swap2\n              pop\n              pop\n              jump\t// out\n                /* \"#utility.yul\":1242:1368   */\n            tag_28:\n                /* \"#utility.yul\":1279:1286   */\n              0x00\n                /* \"#utility.yul\":1319:1361   */\n              0xffffffffffffffffffffffffffffffffffffffff\n                /* \"#utility.yul\":1312:1317   */\n              dup3\n                /* \"#utility.yul\":1308:1362   */\n              and\n                /* \"#utility.yul\":1297:1362   */\n              swap1\n              pop\n                /* \"#utility.yul\":1242:1368   */\n              swap2\n              swap1\n              pop\n              jump\t// out\n                /* \"#utility.yul\":1374:1470   */\n            tag_29:\n                /* \"#utility.yul\":1411:1418   */\n              0x00\n                /* \"#utility.yul\":1440:1464   */\n              tag_46\n                /* \"#utility.yul\":1458:1463   */\n              dup3\n                /* \"#utility.yul\":1440:1464   */\n              tag_28\n              jump\t// in\n            tag_46:\n                /* \"#utility.yul\":1429:1464   */\n              swap1\n              pop\n                /* \"#utility.yul\":1374:1470   */\n              swap2\n              swap1\n              pop\n              jump\t// out\n                /* \"#utility.yul\":1476:1594   */\n            tag_30:\n                /* \"#utility.yul\":1563:1587   */\n              tag_48\n                /* \"#utility.yul\":1581:1586   */\n              dup2\n                /* \"#utility.yul\":1563:1587   */\n              tag_29\n              jump\t// in\n            tag_48:\n                /* \"#utility.yul\":1558:1561   */\n              dup3\n                /* \"#utility.yul\":1551:1588   */\n              mstore\n                /* \"#utility.yul\":1476:1594   */\n              pop\n              pop\n              jump\t// out\n                /* \"#utility.yul\":1600:1822   */\n            tag_13:\n                /* \"#utility.yul\":1693:1697   */\n              0x00\n                /* \"#utility.yul\":1731:1733   */\n              0x20\n                /* \"#utility.yul\":1720:1729   */\n              dup3\n                /* \"#utility.yul\":1716:1734   */\n              add\n                /* \"#utility.yul\":1708:1734   */\n              swap1\n              pop\n                /* \"#utility.yul\":1744:1815   */\n              tag_50\n                /* \"#utility.yul\":1812:1813   */\n              0x00\n                /* \"#utility.yul\":1801:1810   */\n              dup4\n                /* \"#utility.yul\":1797:1814   */\n              add\n                /* \"#utility.yul\":1788:1794   */\n              dup5\n                /* \"#utility.yul\":1744:1815   */\n              tag_30\n              jump\t// in\n            tag_50:\n                /* \"#utility.yul\":1600:1822   */\n              swap3\n              swap2\n              pop\n              pop\n              jump\t// out\n                /* \"#utility.yul\":1828:2008   */\n            tag_31:\n                /* \"#utility.yul\":1876:1953   */\n              0x4e487b7100000000000000000000000000000000000000000000000000000000\n                /* \"#utility.yul\":1873:1874   */\n              0x00\n                /* \"#utility.yul\":1866:1954   */\n              mstore\n                /* \"#utility.yul\":1973:1977   */\n              0x22\n                /* \"#utility.yul\":1970:1971   */\n              0x04\n                /* \"#utility.yul\":1963:1978   */\n              mstore\n                /* \"#utility.yul\":1997:2001   */\n              0x24\n                /* \"#utility.yul\":1994:1995   */\n              0x00\n                /* \"#utility.yul\":1987:2002   */\n              revert\n                /* \"#utility.yul\":2014:2334   */\n            tag_18:\n                /* \"#utility.yul\":2058:2064   */\n              0x00\n                /* \"#utility.yul\":2095:2096   */\n              0x02\n                /* \"#utility.yul\":2089:2093   */\n              dup3\n                /* \"#utility.yul\":2085:2097   */\n              div\n                /* \"#utility.yul\":2075:2097   */\n              swap1\n              pop\n                /* \"#utility.yul\":2142:2143   */\n              0x01\n                /* \"#utility.yul\":2136:2140   */\n              dup3\n                /* \"#utility.yul\":2132:2144   */\n              and\n                /* \"#utility.yul\":2163:2181   */\n              dup1\n                /* \"#utility.yul\":2153:2234   */\n              tag_53\n              jumpi\n                /* \"#utility.yul\":2219:2223   */\n              0x7f\n                /* \"#utility.yul\":2211:2217   */\n              dup3\n                /* \"#utility.yul\":2207:2224   */\n              and\n                /* \"#utility.yul\":2197:2224   */\n              swap2\n              pop\n                /* \"#utility.yul\":2153:2234   */\n            tag_53:\n                /* \"#utility.yul\":2281:2283   */\n              0x20\n                /* \"#utility.yul\":2273:2279   */\n              dup3\n                /* \"#utility.yul\":2270:2284   */\n              lt\n                /* \"#utility.yul\":2250:2268   */\n              dup2\n                /* \"#utility.yul\":2247:2285   */\n              sub\n                /* \"#utility.yul\":2244:2328   */\n              tag_54\n              jumpi\n                /* \"#utility.yul\":2300:2318   */\n              tag_55\n              tag_31\n              jump\t// in\n            tag_55:\n                /* \"#utility.yul\":2244:2328   */\n            tag_54:\n                /* \"#utility.yul\":2065:2334   */\n              pop\n                /* \"#utility.yul\":2014:2334   */\n              swap2\n              swap1\n              pop\n              jump\t// out\n\n            auxdata: 0xa26469706673582212206ea6153ae6b5cefa1332f65f1a73ea4b53885deef653ba6cce6efb99482206a364736f6c634300081e0033\n        }\n    }\n\n    auxdata: 0xa2646970667358221220e6ddf21a685ff7561ca02ab75f69061365244845f2aed36c37d90de260b87f8264736f6c634300081e0033\n}\n",
				"bytecode": {
					"linkReferences": {},
					"object": "6080604052348015600e575f5ffd5b5061156b8061001c5f395ff3fe60806040526004361061006f575f3560e01c806385d211771161004d57806385d21177146100f6578063a15ab08d14610112578063bfb231d21461013a578063c5624050146101765761006f565b80631899d357146100735780633129e7731461008f578063823d7c78146100ce575b5f5ffd5b61008d600480360381019061008891906107ff565b6101b2565b005b34801561009a575f5ffd5b506100b560048036038101906100b0919061088c565b61024f565b6040516100c59493929190610935565b60405180910390f35b3480156100d9575f5ffd5b506100f460048036038101906100ef91906109b2565b610404565b005b610110600480360381019061010b91906109b2565b6104a4565b005b34801561011d575f5ffd5b50610138600480360381019061013391906107ff565b610548565b005b348015610145575f5ffd5b50610160600480360381019061015b919061088c565b6105e2565b60405161016d9190610a79565b60405180910390f35b348015610181575f5ffd5b5061019c60048036038101906101979190610a92565b61061c565b6040516101a99190610ae8565b60405180910390f35b5f3483836040516101c29061064b565b6101cd929190610b01565b6040518091039082f09050801580156101e8573d5f5f3e3d5ffd5b5090505f81908060018154018082558091505060019003905f5260205f20015f9091909190916101000a81548173ffffffffffffffffffffffffffffffffffffffff021916908373ffffffffffffffffffffffffffffffffffffffff160217905550505050565b5f60605f5f5f5f868154811061026857610267610b2f565b5b905f5260205f20015f9054906101000a900473ffffffffffffffffffffffffffffffffffffffff1690508073ffffffffffffffffffffffffffffffffffffffff16638da5cb5b6040518163ffffffff1660e01b8152600401602060405180830381865afa1580156102db573d5f5f3e3d5ffd5b505050506040513d601f19601f820116820180604052508101906102ff9190610b70565b8173ffffffffffffffffffffffffffffffffffffffff166306fdde036040518163ffffffff1660e01b81526004015f60405180830381865afa158015610347573d5f5f3e3d5ffd5b505050506040513d5f823e3d601f19601f8201168201806040525081019061036f9190610c09565b8273ffffffffffffffffffffffffffffffffffffffff1663767800de6040518163ffffffff1660e01b8152600401602060405180830381865afa1580156103b8573d5f5f3e3d5ffd5b505050506040513d601f19601f820116820180604052508101906103dc9190610b70565b8373ffffffffffffffffffffffffffffffffffffffff16319450945094509450509193509193565b5f8184846040516104149061064b565b61041f929190610b01565b8190604051809103905ff590508015801561043c573d5f5f3e3d5ffd5b5090505f81908060018154018082558091505060019003905f5260205f20015f9091909190916101000a81548173ffffffffffffffffffffffffffffffffffffffff021916908373ffffffffffffffffffffffffffffffffffffffff16021790555050505050565b5f34829085856040516104b69061064b565b6104c1929190610b01565b82906040518091039083f590509050801580156104e0573d5f5f3e3d5ffd5b5090505f81908060018154018082558091505060019003905f5260205f20015f9091909190916101000a81548173ffffffffffffffffffffffffffffffffffffffff021916908373ffffffffffffffffffffffffffffffffffffffff16021790555050505050565b5f82826040516105579061064b565b610562929190610b01565b604051809103905ff08015801561057b573d5f5f3e3d5ffd5b5090505f81908060018154018082558091505060019003905f5260205f20015f9091909190916101000a81548173ffffffffffffffffffffffffffffffffffffffff021916908373ffffffffffffffffffffffffffffffffffffffff160217905550505050565b5f81815481106105f0575f80fd5b905f5260205f20015f915054906101000a900473ffffffffffffffffffffffffffffffffffffffff1681565b5f8160405160200161062e9190610c8a565b604051602081830303815290604052805190602001209050919050565b61089580610ca183390190565b5f604051905090565b5f5ffd5b5f5ffd5b5f73ffffffffffffffffffffffffffffffffffffffff82169050919050565b5f61069282610669565b9050919050565b6106a281610688565b81146106ac575f5ffd5b50565b5f813590506106bd81610699565b92915050565b5f5ffd5b5f5ffd5b5f601f19601f8301169050919050565b7f4e487b71000000000000000000000000000000000000000000000000000000005f52604160045260245ffd5b610711826106cb565b810181811067ffffffffffffffff821117156107305761072f6106db565b5b80604052505050565b5f610742610658565b905061074e8282610708565b919050565b5f67ffffffffffffffff82111561076d5761076c6106db565b5b610776826106cb565b9050602081019050919050565b828183375f83830152505050565b5f6107a361079e84610753565b610739565b9050828152602081018484840111156107bf576107be6106c7565b5b6107ca848285610783565b509392505050565b5f82601f8301126107e6576107e56106c3565b5b81356107f6848260208601610791565b91505092915050565b5f5f6040838503121561081557610814610661565b5b5f610822858286016106af565b925050602083013567ffffffffffffffff81111561084357610842610665565b5b61084f858286016107d2565b9150509250929050565b5f819050919050565b61086b81610859565b8114610875575f5ffd5b50565b5f8135905061088681610862565b92915050565b5f602082840312156108a1576108a0610661565b5b5f6108ae84828501610878565b91505092915050565b6108c081610688565b82525050565b5f81519050919050565b5f82825260208201905092915050565b8281835e5f83830152505050565b5f6108f8826108c6565b61090281856108d0565b93506109128185602086016108e0565b61091b816106cb565b840191505092915050565b61092f81610859565b82525050565b5f6080820190506109485f8301876108b7565b818103602083015261095a81866108ee565b905061096960408301856108b7565b6109766060830184610926565b95945050505050565b5f819050919050565b6109918161097f565b811461099b575f5ffd5b50565b5f813590506109ac81610988565b92915050565b5f5f5f606084860312156109c9576109c8610661565b5b5f6109d6868287016106af565b935050602084013567ffffffffffffffff8111156109f7576109f6610665565b5b610a03868287016107d2565b9250506040610a148682870161099e565b9150509250925092565b5f819050919050565b5f610a41610a3c610a3784610669565b610a1e565b610669565b9050919050565b5f610a5282610a27565b9050919050565b5f610a6382610a48565b9050919050565b610a7381610a59565b82525050565b5f602082019050610a8c5f830184610a6a565b92915050565b5f60208284031215610aa757610aa6610661565b5b5f82013567ffffffffffffffff811115610ac457610ac3610665565b5b610ad0848285016107d2565b91505092915050565b610ae28161097f565b82525050565b5f602082019050610afb5f830184610ad9565b92915050565b5f604082019050610b145f8301856108b7565b8181036020830152610b2681846108ee565b90509392505050565b7f4e487b71000000000000000000000000000000000000000000000000000000005f52603260045260245ffd5b5f81519050610b6a81610699565b92915050565b5f60208284031215610b8557610b84610661565b5b5f610b9284828501610b5c565b91505092915050565b5f610bad610ba884610753565b610739565b905082815260208101848484011115610bc957610bc86106c7565b5b610bd48482856108e0565b509392505050565b5f82601f830112610bf057610bef6106c3565b5b8151610c00848260208601610b9b565b91505092915050565b5f60208284031215610c1e57610c1d610661565b5b5f82015167ffffffffffffffff811115610c3b57610c3a610665565b5b610c4784828501610bdc565b91505092915050565b5f81905092915050565b5f610c64826108c6565b610c6e8185610c50565b9350610c7e8185602086016108e0565b80840191505092915050565b5f610c958284610c5a565b91508190509291505056fe608060405260405161089538038061089583398181016040528101906100259190610262565b8160015f6101000a81548173ffffffffffffffffffffffffffffffffffffffff021916908373ffffffffffffffffffffffffffffffffffffffff160217905550805f908161007391906104cc565b503060025f6101000a81548173ffffffffffffffffffffffffffffffffffffffff021916908373ffffffffffffffffffffffffffffffffffffffff160217905550505061059b565b5f604051905090565b5f5ffd5b5f5ffd5b5f73ffffffffffffffffffffffffffffffffffffffff82169050919050565b5f6100f5826100cc565b9050919050565b610105816100eb565b811461010f575f5ffd5b50565b5f81519050610120816100fc565b92915050565b5f5ffd5b5f5ffd5b5f601f19601f8301169050919050565b7f4e487b71000000000000000000000000000000000000000000000000000000005f52604160045260245ffd5b6101748261012e565b810181811067ffffffffffffffff821117156101935761019261013e565b5b80604052505050565b5f6101a56100bb565b90506101b1828261016b565b919050565b5f67ffffffffffffffff8211156101d0576101cf61013e565b5b6101d98261012e565b9050602081019050919050565b8281835e5f83830152505050565b5f610206610201846101b6565b61019c565b9050828152602081018484840111156102225761022161012a565b5b61022d8482856101e6565b509392505050565b5f82601f83011261024957610248610126565b5b81516102598482602086016101f4565b91505092915050565b5f5f60408385031215610278576102776100c4565b5b5f61028585828601610112565b925050602083015167ffffffffffffffff8111156102a6576102a56100c8565b5b6102b285828601610235565b9150509250929050565b5f81519050919050565b7f4e487b71000000000000000000000000000000000000000000000000000000005f52602260045260245ffd5b5f600282049050600182168061030a57607f821691505b60208210810361031d5761031c6102c6565b5b50919050565b5f819050815f5260205f209050919050565b5f6020601f8301049050919050565b5f82821b905092915050565b5f6008830261037f7fffffffffffffffffffffffffffffffffffffffffffffffffffffffffffffffff82610344565b6103898683610344565b95508019841693508086168417925050509392505050565b5f819050919050565b5f819050919050565b5f6103cd6103c86103c3846103a1565b6103aa565b6103a1565b9050919050565b5f819050919050565b6103e6836103b3565b6103fa6103f2826103d4565b848454610350565b825550505050565b5f5f905090565b610411610402565b61041c8184846103dd565b505050565b5b8181101561043f576104345f82610409565b600181019050610422565b5050565b601f8211156104845761045581610323565b61045e84610335565b8101602085101561046d578190505b61048161047985610335565b830182610421565b50505b505050565b5f82821c905092915050565b5f6104a45f1984600802610489565b1980831691505092915050565b5f6104bc8383610495565b9150826002028217905092915050565b6104d5826102bc565b67ffffffffffffffff8111156104ee576104ed61013e565b5b6104f882546102f3565b610503828285610443565b5f60209050601f831160018114610534575f8415610522578287015190505b61052c85826104b1565b865550610593565b601f19841661054286610323565b5f5b8281101561056957848901518255600182019150602085019450602081019050610544565b868310156105865784890151610582601f891682610495565b8355505b6001600288020188555050505b505050505050565b6102ed806105a85f395ff3fe608060405234801561000f575f5ffd5b506004361061003f575f3560e01c806306fdde0314610043578063767800de146100615780638da5cb5b1461007f575b5f5ffd5b61004b61009d565b60405161005891906101e2565b60405180910390f35b610069610128565b6040516100769190610241565b60405180910390f35b61008761014d565b6040516100949190610241565b60405180910390f35b5f80546100a990610287565b80601f01602080910402602001604051908101604052809291908181526020018280546100d590610287565b80156101205780601f106100f757610100808354040283529160200191610120565b820191905f5260205f20905b81548152906001019060200180831161010357829003601f168201915b505050505081565b60025f9054906101000a900473ffffffffffffffffffffffffffffffffffffffff1681565b60015f9054906101000a900473ffffffffffffffffffffffffffffffffffffffff1681565b5f81519050919050565b5f82825260208201905092915050565b8281835e5f83830152505050565b5f601f19601f8301169050919050565b5f6101b482610172565b6101be818561017c565b93506101ce81856020860161018c565b6101d78161019a565b840191505092915050565b5f6020820190508181035f8301526101fa81846101aa565b905092915050565b5f73ffffffffffffffffffffffffffffffffffffffff82169050919050565b5f61022b82610202565b9050919050565b61023b81610221565b82525050565b5f6020820190506102545f830184610232565b92915050565b7f4e487b71000000000000000000000000000000000000000000000000000000005f52602260045260245ffd5b5f600282049050600182168061029e57607f821691505b6020821081036102b1576102b061025a565b5b5091905056fea26469706673582212206ea6153ae6b5cefa1332f65f1a73ea4b53885deef653ba6cce6efb99482206a364736f6c634300081e0033a2646970667358221220e6ddf21a685ff7561ca02ab75f69061365244845f2aed36c37d90de260b87f8264736f6c634300081e0033",
					"opcodes": "PUSH1 0x80 PUSH1 0x40 MSTORE CALLVALUE DUP1 ISZERO PUSH1 0xE JUMPI PUSH0 PUSH0 REVERT JUMPDEST POP PUSH2 0x156B DUP1 PUSH2 0x1C PUSH0 CODECOPY PUSH0 RETURN INVALID PUSH1 0x80 PUSH1 0x40 MSTORE PUSH1 0x4 CALLDATASIZE LT PUSH2 0x6F JUMPI PUSH0 CALLDATALOAD PUSH1 0xE0 SHR DUP1 PUSH4 0x85D21177 GT PUSH2 0x4D JUMPI DUP1 PUSH4 0x85D21177 EQ PUSH2 0xF6 JUMPI DUP1 PUSH4 0xA15AB08D EQ PUSH2 0x112 JUMPI DUP1 PUSH4 0xBFB231D2 EQ PUSH2 0x13A JUMPI DUP1 PUSH4 0xC5624050 EQ PUSH2 0x176 JUMPI PUSH2 0x6F JUMP JUMPDEST DUP1 PUSH4 0x1899D357 EQ PUSH2 0x73 JUMPI DUP1 PUSH4 0x3129E773 EQ PUSH2 0x8F JUMPI DUP1 PUSH4 0x823D7C78 EQ PUSH2 0xCE JUMPI JUMPDEST PUSH0 PUSH0 REVERT JUMPDEST PUSH2 0x8D PUSH1 0x4 DUP1 CALLDATASIZE SUB DUP2 ADD SWAP1 PUSH2 0x88 SWAP2 SWAP1 PUSH2 0x7FF JUMP JUMPDEST PUSH2 0x1B2 JUMP JUMPDEST STOP JUMPDEST CALLVALUE DUP1 ISZERO PUSH2 0x9A JUMPI PUSH0 PUSH0 REVERT JUMPDEST POP PUSH2 0xB5 PUSH1 0x4 DUP1 CALLDATASIZE SUB DUP2 ADD SWAP1 PUSH2 0xB0 SWAP2 SWAP1 PUSH2 0x88C JUMP JUMPDEST PUSH2 0x24F JUMP JUMPDEST PUSH1 0x40 MLOAD PUSH2 0xC5 SWAP5 SWAP4 SWAP3 SWAP2 SWAP1 PUSH2 0x935 JUMP JUMPDEST PUSH1 0x40 MLOAD DUP1 SWAP2 SUB SWAP1 RETURN JUMPDEST CALLVALUE DUP1 ISZERO PUSH2 0xD9 JUMPI PUSH0 PUSH0 REVERT JUMPDEST POP PUSH2 0xF4 PUSH1 0x4 DUP1 CALLDATASIZE SUB DUP2 ADD SWAP1 PUSH2 0xEF SWAP2 SWAP1 PUSH2 0x9B2 JUMP JUMPDEST PUSH2 0x404 JUMP JUMPDEST STOP JUMPDEST PUSH2 0x110 PUSH1 0x4 DUP1 CALLDATASIZE SUB DUP2 ADD SWAP1 PUSH2 0x10B SWAP2 SWAP1 PUSH2 0x9B2 JUMP JUMPDEST PUSH2 0x4A4 JUMP JUMPDEST STOP JUMPDEST CALLVALUE DUP1 ISZERO PUSH2 0x11D JUMPI PUSH0 PUSH0 REVERT JUMPDEST POP PUSH2 0x138 PUSH1 0x4 DUP1 CALLDATASIZE SUB DUP2 ADD SWAP1 PUSH2 0x133 SWAP2 SWAP1 PUSH2 0x7FF JUMP JUMPDEST PUSH2 0x548 JUMP JUMPDEST STOP JUMPDEST CALLVALUE DUP1 ISZERO PUSH2 0x145 JUMPI PUSH0 PUSH0 REVERT JUMPDEST POP PUSH2 0x160 PUSH1 0x4 DUP1 CALLDATASIZE SUB DUP2 ADD SWAP1 PUSH2 0x15B SWAP2 SWAP1 PUSH2 0x88C JUMP JUMPDEST PUSH2 0x5E2 JUMP JUMPDEST PUSH1 0x40 MLOAD PUSH2 0x16D SWAP2 SWAP1 PUSH2 0xA79 JUMP JUMPDEST PUSH1 0x40 MLOAD DUP1 SWAP2 SUB SWAP1 RETURN JUMPDEST CALLVALUE DUP1 ISZERO PUSH2 0x181 JUMPI PUSH0 PUSH0 REVERT JUMPDEST POP PUSH2 0x19C PUSH1 0x4 DUP1 CALLDATASIZE SUB DUP2 ADD SWAP1 PUSH2 0x197 SWAP2 SWAP1 PUSH2 0xA92 JUMP JUMPDEST PUSH2 0x61C JUMP JUMPDEST PUSH1 0x40 MLOAD PUSH2 0x1A9 SWAP2 SWAP1 PUSH2 0xAE8 JUMP JUMPDEST PUSH1 0x40 MLOAD DUP1 SWAP2 SUB SWAP1 RETURN JUMPDEST PUSH0 CALLVALUE DUP4 DUP4 PUSH1 0x40 MLOAD PUSH2 0x1C2 SWAP1 PUSH2 0x64B JUMP JUMPDEST PUSH2 0x1CD SWAP3 SWAP2 SWAP1 PUSH2 0xB01 JUMP JUMPDEST PUSH1 0x40 MLOAD DUP1 SWAP2 SUB SWAP1 DUP3 CREATE SWAP1 POP DUP1 ISZERO DUP1 ISZERO PUSH2 0x1E8 JUMPI RETURNDATASIZE PUSH0 PUSH0 RETURNDATACOPY RETURNDATASIZE PUSH0 REVERT JUMPDEST POP SWAP1 POP PUSH0 DUP2 SWAP1 DUP1 PUSH1 0x1 DUP2 SLOAD ADD DUP1 DUP3 SSTORE DUP1 SWAP2 POP POP PUSH1 0x1 SWAP1 SUB SWAP1 PUSH0 MSTORE PUSH1 0x20 PUSH0 KECCAK256 ADD PUSH0 SWAP1 SWAP2 SWAP1 SWAP2 SWAP1 SWAP2 PUSH2 0x100 EXP DUP2 SLOAD DUP2 PUSH20 0xFFFFFFFFFFFFFFFFFFFFFFFFFFFFFFFFFFFFFFFF MUL NOT AND SWAP1 DUP4 PUSH20 0xFFFFFFFFFFFFFFFFFFFFFFFFFFFFFFFFFFFFFFFF AND MUL OR SWAP1 SSTORE POP POP POP POP JUMP JUMPDEST PUSH0 PUSH1 0x60 PUSH0 PUSH0 PUSH0 PUSH0 DUP7 DUP2 SLOAD DUP2 LT PUSH2 0x268 JUMPI PUSH2 0x267 PUSH2 0xB2F JUMP JUMPDEST JUMPDEST SWAP1 PUSH0 MSTORE PUSH1 0x20 PUSH0 KECCAK256 ADD PUSH0 SWAP1 SLOAD SWAP1 PUSH2 0x100 EXP SWAP1 DIV PUSH20 0xFFFFFFFFFFFFFFFFFFFFFFFFFFFFFFFFFFFFFFFF AND SWAP1 POP DUP1 PUSH20 0xFFFFFFFFFFFFFFFFFFFFFFFFFFFFFFFFFFFFFFFF AND PUSH4 0x8DA5CB5B PUSH1 0x40 MLOAD DUP2 PUSH4 0xFFFFFFFF AND PUSH1 0xE0 SHL DUP2 MSTORE PUSH1 0x4 ADD PUSH1 0x20 PUSH1 0x40 MLOAD DUP1 DUP4 SUB DUP2 DUP7 GAS STATICCALL ISZERO DUP1 ISZERO PUSH2 0x2DB JUMPI RETURNDATASIZE PUSH0 PUSH0 RETURNDATACOPY RETURNDATASIZE PUSH0 REVERT JUMPDEST POP POP POP POP PUSH1 0x40 MLOAD RETURNDATASIZE PUSH1 0x1F NOT PUSH1 0x1F DUP3 ADD AND DUP3 ADD DUP1 PUSH1 0x40 MSTORE POP DUP2 ADD SWAP1 PUSH2 0x2FF SWAP2 SWAP1 PUSH2 0xB70 JUMP JUMPDEST DUP2 PUSH20 0xFFFFFFFFFFFFFFFFFFFFFFFFFFFFFFFFFFFFFFFF AND PUSH4 0x6FDDE03 PUSH1 0x40 MLOAD DUP2 PUSH4 0xFFFFFFFF AND PUSH1 0xE0 SHL DUP2 MSTORE PUSH1 0x4 ADD PUSH0 PUSH1 0x40 MLOAD DUP1 DUP4 SUB DUP2 DUP7 GAS STATICCALL ISZERO DUP1 ISZERO PUSH2 0x347 JUMPI RETURNDATASIZE PUSH0 PUSH0 RETURNDATACOPY RETURNDATASIZE PUSH0 REVERT JUMPDEST POP POP POP POP PUSH1 0x40 MLOAD RETURNDATASIZE PUSH0 DUP3 RETURNDATACOPY RETURNDATASIZE PUSH1 0x1F NOT PUSH1 0x1F DUP3 ADD AND DUP3 ADD DUP1 PUSH1 0x40 MSTORE POP DUP2 ADD SWAP1 PUSH2 0x36F SWAP2 SWAP1 PUSH2 0xC09 JUMP JUMPDEST DUP3 PUSH20 0xFFFFFFFFFFFFFFFFFFFFFFFFFFFFFFFFFFFFFFFF AND PUSH4 0x767800DE PUSH1 0x40 MLOAD DUP2 PUSH4 0xFFFFFFFF AND PUSH1 0xE0 SHL DUP2 MSTORE PUSH1 0x4 ADD PUSH1 0x20 PUSH1 0x40 MLOAD DUP1 DUP4 SUB DUP2 DUP7 GAS STATICCALL ISZERO DUP1 ISZERO PUSH2 0x3B8 JUMPI RETURNDATASIZE PUSH0 PUSH0 RETURNDATACOPY RETURNDATASIZE PUSH0 REVERT JUMPDEST POP POP POP POP PUSH1 0x40 MLOAD RETURNDATASIZE PUSH1 0x1F NOT PUSH1 0x1F DUP3 ADD AND DUP3 ADD DUP1 PUSH1 0x40 MSTORE POP DUP2 ADD SWAP1 PUSH2 0x3DC SWAP2 SWAP1 PUSH2 0xB70 JUMP JUMPDEST DUP4 PUSH20 0xFFFFFFFFFFFFFFFFFFFFFFFFFFFFFFFFFFFFFFFF AND BALANCE SWAP5 POP SWAP5 POP SWAP5 POP SWAP5 POP POP SWAP2 SWAP4 POP SWAP2 SWAP4 JUMP JUMPDEST PUSH0 DUP2 DUP5 DUP5 PUSH1 0x40 MLOAD PUSH2 0x414 SWAP1 PUSH2 0x64B JUMP JUMPDEST PUSH2 0x41F SWAP3 SWAP2 SWAP1 PUSH2 0xB01 JUMP JUMPDEST DUP2 SWAP1 PUSH1 0x40 MLOAD DUP1 SWAP2 SUB SWAP1 PUSH0 CREATE2 SWAP1 POP DUP1 ISZERO DUP1 ISZERO PUSH2 0x43C JUMPI RETURNDATASIZE PUSH0 PUSH0 RETURNDATACOPY RETURNDATASIZE PUSH0 REVERT JUMPDEST POP SWAP1 POP PUSH0 DUP2 SWAP1 DUP1 PUSH1 0x1 DUP2 SLOAD ADD DUP1 DUP3 SSTORE DUP1 SWAP2 POP POP PUSH1 0x1 SWAP1 SUB SWAP1 PUSH0 MSTORE PUSH1 0x20 PUSH0 KECCAK256 ADD PUSH0 SWAP1 SWAP2 SWAP1 SWAP2 SWAP1 SWAP2 PUSH2 0x100 EXP DUP2 SLOAD DUP2 PUSH20 0xFFFFFFFFFFFFFFFFFFFFFFFFFFFFFFFFFFFFFFFF MUL NOT AND SWAP1 DUP4 PUSH20 0xFFFFFFFFFFFFFFFFFFFFFFFFFFFFFFFFFFFFFFFF AND MUL OR SWAP1 SSTORE POP POP POP POP POP JUMP JUMPDEST PUSH0 CALLVALUE DUP3 SWAP1 DUP6 DUP6 PUSH1 0x40 MLOAD PUSH2 0x4B6 SWAP1 PUSH2 0x64B JUMP JUMPDEST PUSH2 0x4C1 SWAP3 SWAP2 SWAP1 PUSH2 0xB01 JUMP JUMPDEST DUP3 SWAP1 PUSH1 0x40 MLOAD DUP1 SWAP2 SUB SWAP1 DUP4 CREATE2 SWAP1 POP SWAP1 POP DUP1 ISZERO DUP1 ISZERO PUSH2 0x4E0 JUMPI RETURNDATASIZE PUSH0 PUSH0 RETURNDATACOPY RETURNDATASIZE PUSH0 REVERT JUMPDEST POP SWAP1 POP PUSH0 DUP2 SWAP1 DUP1 PUSH1 0x1 DUP2 SLOAD ADD DUP1 DUP3 SSTORE DUP1 SWAP2 POP POP PUSH1 0x1 SWAP1 SUB SWAP1 PUSH0 MSTORE PUSH1 0x20 PUSH0 KECCAK256 ADD PUSH0 SWAP1 SWAP2 SWAP1 SWAP2 SWAP1 SWAP2 PUSH2 0x100 EXP DUP2 SLOAD DUP2 PUSH20 0xFFFFFFFFFFFFFFFFFFFFFFFFFFFFFFFFFFFFFFFF MUL NOT AND SWAP1 DUP4 PUSH20 0xFFFFFFFFFFFFFFFFFFFFFFFFFFFFFFFFFFFFFFFF AND MUL OR SWAP1 SSTORE POP POP POP POP POP JUMP JUMPDEST PUSH0 DUP3 DUP3 PUSH1 0x40 MLOAD PUSH2 0x557 SWAP1 PUSH2 0x64B JUMP JUMPDEST PUSH2 0x562 SWAP3 SWAP2 SWAP1 PUSH2 0xB01 JUMP JUMPDEST PUSH1 0x40 MLOAD DUP1 SWAP2 SUB SWAP1 PUSH0 CREATE DUP1 ISZERO DUP1 ISZERO PUSH2 0x57B JUMPI RETURNDATASIZE PUSH0 PUSH0 RETURNDATACOPY RETURNDATASIZE PUSH0 REVERT JUMPDEST POP SWAP1 POP PUSH0 DUP2 SWAP1 DUP1 PUSH1 0x1 DUP2 SLOAD ADD DUP1 DUP3 SSTORE DUP1 SWAP2 POP POP PUSH1 0x1 SWAP1 SUB SWAP1 PUSH0 MSTORE PUSH1 0x20 PUSH0 KECCAK256 ADD PUSH0 SWAP1 SWAP2 SWAP1 SWAP2 SWAP1 SWAP2 PUSH2 0x100 EXP DUP2 SLOAD DUP2 PUSH20 0xFFFFFFFFFFFFFFFFFFFFFFFFFFFFFFFFFFFFFFFF MUL NOT AND SWAP1 DUP4 PUSH20 0xFFFFFFFFFFFFFFFFFFFFFFFFFFFFFFFFFFFFFFFF AND MUL OR SWAP1 SSTORE POP POP POP POP JUMP JUMPDEST PUSH0 DUP2 DUP2 SLOAD DUP2 LT PUSH2 0x5F0 JUMPI PUSH0 DUP1 REVERT JUMPDEST SWAP1 PUSH0 MSTORE PUSH1 0x20 PUSH0 KECCAK256 ADD PUSH0 SWAP2 POP SLOAD SWAP1 PUSH2 0x100 EXP SWAP1 DIV PUSH20 0xFFFFFFFFFFFFFFFFFFFFFFFFFFFFFFFFFFFFFFFF AND DUP2 JUMP JUMPDEST PUSH0 DUP2 PUSH1 0x40 MLOAD PUSH1 0x20 ADD PUSH2 0x62E SWAP2 SWAP1 PUSH2 0xC8A JUMP JUMPDEST PUSH1 0x40 MLOAD PUSH1 0x20 DUP2 DUP4 SUB SUB DUP2 MSTORE SWAP1 PUSH1 0x40 MSTORE DUP1 MLOAD SWAP1 PUSH1 0x20 ADD KECCAK256 SWAP1 POP SWAP2 SWAP1 POP JUMP JUMPDEST PUSH2 0x895 DUP1 PUSH2 0xCA1 DUP4 CODECOPY ADD SWAP1 JUMP JUMPDEST PUSH0 PUSH1 0x40 MLOAD SWAP1 POP SWAP1 JUMP JUMPDEST PUSH0 PUSH0 REVERT JUMPDEST PUSH0 PUSH0 REVERT JUMPDEST PUSH0 PUSH20 0xFFFFFFFFFFFFFFFFFFFFFFFFFFFFFFFFFFFFFFFF DUP3 AND SWAP1 POP SWAP2 SWAP1 POP JUMP JUMPDEST PUSH0 PUSH2 0x692 DUP3 PUSH2 0x669 JUMP JUMPDEST SWAP1 POP SWAP2 SWAP1 POP JUMP JUMPDEST PUSH2 0x6A2 DUP2 PUSH2 0x688 JUMP JUMPDEST DUP2 EQ PUSH2 0x6AC JUMPI PUSH0 PUSH0 REVERT JUMPDEST POP JUMP JUMPDEST PUSH0 DUP2 CALLDATALOAD SWAP1 POP PUSH2 0x6BD DUP2 PUSH2 0x699 JUMP JUMPDEST SWAP3 SWAP2 POP POP JUMP JUMPDEST PUSH0 PUSH0 REVERT JUMPDEST PUSH0 PUSH0 REVERT JUMPDEST PUSH0 PUSH1 0x1F NOT PUSH1 0x1F DUP4 ADD AND SWAP1 POP SWAP2 SWAP1 POP JUMP JUMPDEST PUSH32 0x4E487B7100000000000000000000000000000000000000000000000000000000 PUSH0 MSTORE PUSH1 0x41 PUSH1 0x4 MSTORE PUSH1 0x24 PUSH0 REVERT JUMPDEST PUSH2 0x711 DUP3 PUSH2 0x6CB JUMP JUMPDEST DUP2 ADD DUP2 DUP2 LT PUSH8 0xFFFFFFFFFFFFFFFF DUP3 GT OR ISZERO PUSH2 0x730 JUMPI PUSH2 0x72F PUSH2 0x6DB JUMP JUMPDEST JUMPDEST DUP1 PUSH1 0x40 MSTORE POP POP POP JUMP JUMPDEST PUSH0 PUSH2 0x742 PUSH2 0x658 JUMP JUMPDEST SWAP1 POP PUSH2 0x74E DUP3 DUP3 PUSH2 0x708 JUMP JUMPDEST SWAP2 SWAP1 POP JUMP JUMPDEST PUSH0 PUSH8 0xFFFFFFFFFFFFFFFF DUP3 GT ISZERO PUSH2 0x76D JUMPI PUSH2 0x76C PUSH2 0x6DB JUMP JUMPDEST JUMPDEST PUSH2 0x776 DUP3 PUSH2 0x6CB JUMP JUMPDEST SWAP1 POP PUSH1 0x20 DUP2 ADD SWAP1 POP SWAP2 SWAP1 POP JUMP JUMPDEST DUP3 DUP2 DUP4 CALLDATACOPY PUSH0 DUP4 DUP4 ADD MSTORE POP POP POP JUMP JUMPDEST PUSH0 PUSH2 0x7A3 PUSH2 0x79E DUP5 PUSH2 0x753 JUMP JUMPDEST PUSH2 0x739 JUMP JUMPDEST SWAP1 POP DUP3 DUP2 MSTORE PUSH1 0x20 DUP2 ADD DUP5 DUP5 DUP5 ADD GT ISZERO PUSH2 0x7BF JUMPI PUSH2 0x7BE PUSH2 0x6C7 JUMP JUMPDEST JUMPDEST PUSH2 0x7CA DUP5 DUP3 DUP6 PUSH2 0x783 JUMP JUMPDEST POP SWAP4 SWAP3 POP POP POP JUMP JUMPDEST PUSH0 DUP3 PUSH1 0x1F DUP4 ADD SLT PUSH2 0x7E6 JUMPI PUSH2 0x7E5 PUSH2 0x6C3 JUMP JUMPDEST JUMPDEST DUP2 CALLDATALOAD PUSH2 0x7F6 DUP5 DUP3 PUSH1 0x20 DUP7 ADD PUSH2 0x791 JUMP JUMPDEST SWAP2 POP POP SWAP3 SWAP2 POP POP JUMP JUMPDEST PUSH0 PUSH0 PUSH1 0x40 DUP4 DUP6 SUB SLT ISZERO PUSH2 0x815 JUMPI PUSH2 0x814 PUSH2 0x661 JUMP JUMPDEST JUMPDEST PUSH0 PUSH2 0x822 DUP6 DUP3 DUP7 ADD PUSH2 0x6AF JUMP JUMPDEST SWAP3 POP POP PUSH1 0x20 DUP4 ADD CALLDATALOAD PUSH8 0xFFFFFFFFFFFFFFFF DUP2 GT ISZERO PUSH2 0x843 JUMPI PUSH2 0x842 PUSH2 0x665 JUMP JUMPDEST JUMPDEST PUSH2 0x84F DUP6 DUP3 DUP7 ADD PUSH2 0x7D2 JUMP JUMPDEST SWAP2 POP POP SWAP3 POP SWAP3 SWAP1 POP JUMP JUMPDEST PUSH0 DUP2 SWAP1 POP SWAP2 SWAP1 POP JUMP JUMPDEST PUSH2 0x86B DUP2 PUSH2 0x859 JUMP JUMPDEST DUP2 EQ PUSH2 0x875 JUMPI PUSH0 PUSH0 REVERT JUMPDEST POP JUMP JUMPDEST PUSH0 DUP2 CALLDATALOAD SWAP1 POP PUSH2 0x886 DUP2 PUSH2 0x862 JUMP JUMPDEST SWAP3 SWAP2 POP POP JUMP JUMPDEST PUSH0 PUSH1 0x20 DUP3 DUP5 SUB SLT ISZERO PUSH2 0x8A1 JUMPI PUSH2 0x8A0 PUSH2 0x661 JUMP JUMPDEST JUMPDEST PUSH0 PUSH2 0x8AE DUP5 DUP3 DUP6 ADD PUSH2 0x878 JUMP JUMPDEST SWAP2 POP POP SWAP3 SWAP2 POP POP JUMP JUMPDEST PUSH2 0x8C0 DUP2 PUSH2 0x688 JUMP JUMPDEST DUP3 MSTORE POP POP JUMP JUMPDEST PUSH0 DUP2 MLOAD SWAP1 POP SWAP2 SWAP1 POP JUMP JUMPDEST PUSH0 DUP3 DUP3 MSTORE PUSH1 0x20 DUP3 ADD SWAP1 POP SWAP3 SWAP2 POP POP JUMP JUMPDEST DUP3 DUP2 DUP4 MCOPY PUSH0 DUP4 DUP4 ADD MSTORE POP POP POP JUMP JUMPDEST PUSH0 PUSH2 0x8F8 DUP3 PUSH2 0x8C6 JUMP JUMPDEST PUSH2 0x902 DUP2 DUP6 PUSH2 0x8D0 JUMP JUMPDEST SWAP4 POP PUSH2 0x912 DUP2 DUP6 PUSH1 0x20 DUP7 ADD PUSH2 0x8E0 JUMP JUMPDEST PUSH2 0x91B DUP2 PUSH2 0x6CB JUMP JUMPDEST DUP5 ADD SWAP2 POP POP SWAP3 SWAP2 POP POP JUMP JUMPDEST PUSH2 0x92F DUP2 PUSH2 0x859 JUMP JUMPDEST DUP3 MSTORE POP POP JUMP JUMPDEST PUSH0 PUSH1 0x80 DUP3 ADD SWAP1 POP PUSH2 0x948 PUSH0 DUP4 ADD DUP8 PUSH2 0x8B7 JUMP JUMPDEST DUP2 DUP2 SUB PUSH1 0x20 DUP4 ADD MSTORE PUSH2 0x95A DUP2 DUP7 PUSH2 0x8EE JUMP JUMPDEST SWAP1 POP PUSH2 0x969 PUSH1 0x40 DUP4 ADD DUP6 PUSH2 0x8B7 JUMP JUMPDEST PUSH2 0x976 PUSH1 0x60 DUP4 ADD DUP5 PUSH2 0x926 JUMP JUMPDEST SWAP6 SWAP5 POP POP POP POP POP JUMP JUMPDEST PUSH0 DUP2 SWAP1 POP SWAP2 SWAP1 POP JUMP JUMPDEST PUSH2 0x991 DUP2 PUSH2 0x97F JUMP JUMPDEST DUP2 EQ PUSH2 0x99B JUMPI PUSH0 PUSH0 REVERT JUMPDEST POP JUMP JUMPDEST PUSH0 DUP2 CALLDATALOAD SWAP1 POP PUSH2 0x9AC DUP2 PUSH2 0x988 JUMP JUMPDEST SWAP3 SWAP2 POP POP JUMP JUMPDEST PUSH0 PUSH0 PUSH0 PUSH1 0x60 DUP5 DUP7 SUB SLT ISZERO PUSH2 0x9C9 JUMPI PUSH2 0x9C8 PUSH2 0x661 JUMP JUMPDEST JUMPDEST PUSH0 PUSH2 0x9D6 DUP7 DUP3 DUP8 ADD PUSH2 0x6AF JUMP JUMPDEST SWAP4 POP POP PUSH1 0x20 DUP5 ADD CALLDATALOAD PUSH8 0xFFFFFFFFFFFFFFFF DUP2 GT ISZERO PUSH2 0x9F7 JUMPI PUSH2 0x9F6 PUSH2 0x665 JUMP JUMPDEST JUMPDEST PUSH2 0xA03 DUP7 DUP3 DUP8 ADD PUSH2 0x7D2 JUMP JUMPDEST SWAP3 POP POP PUSH1 0x40 PUSH2 0xA14 DUP7 DUP3 DUP8 ADD PUSH2 0x99E JUMP JUMPDEST SWAP2 POP POP SWAP3 POP SWAP3 POP SWAP3 JUMP JUMPDEST PUSH0 DUP2 SWAP1 POP SWAP2 SWAP1 POP JUMP JUMPDEST PUSH0 PUSH2 0xA41 PUSH2 0xA3C PUSH2 0xA37 DUP5 PUSH2 0x669 JUMP JUMPDEST PUSH2 0xA1E JUMP JUMPDEST PUSH2 0x669 JUMP JUMPDEST SWAP1 POP SWAP2 SWAP1 POP JUMP JUMPDEST PUSH0 PUSH2 0xA52 DUP3 PUSH2 0xA27 JUMP JUMPDEST SWAP1 POP SWAP2 SWAP1 POP JUMP JUMPDEST PUSH0 PUSH2 0xA63 DUP3 PUSH2 0xA48 JUMP JUMPDEST SWAP1 POP SWAP2 SWAP1 POP JUMP JUMPDEST PUSH2 0xA73 DUP2 PUSH2 0xA59 JUMP JUMPDEST DUP3 MSTORE POP POP JUMP JUMPDEST PUSH0 PUSH1 0x20 DUP3 ADD SWAP1 POP PUSH2 0xA8C PUSH0 DUP4 ADD DUP5 PUSH2 0xA6A JUMP JUMPDEST SWAP3 SWAP2 POP POP JUMP JUMPDEST PUSH0 PUSH1 0x20 DUP3 DUP5 SUB SLT ISZERO PUSH2 0xAA7 JUMPI PUSH2 0xAA6 PUSH2 0x661 JUMP JUMPDEST JUMPDEST PUSH0 DUP3 ADD CALLDATALOAD PUSH8 0xFFFFFFFFFFFFFFFF DUP2 GT ISZERO PUSH2 0xAC4 JUMPI PUSH2 0xAC3 PUSH2 0x665 JUMP JUMPDEST JUMPDEST PUSH2 0xAD0 DUP5 DUP3 DUP6 ADD PUSH2 0x7D2 JUMP JUMPDEST SWAP2 POP POP SWAP3 SWAP2 POP POP JUMP JUMPDEST PUSH2 0xAE2 DUP2 PUSH2 0x97F JUMP JUMPDEST DUP3 MSTORE POP POP JUMP JUMPDEST PUSH0 PUSH1 0x20 DUP3 ADD SWAP1 POP PUSH2 0xAFB PUSH0 DUP4 ADD DUP5 PUSH2 0xAD9 JUMP JUMPDEST SWAP3 SWAP2 POP POP JUMP JUMPDEST PUSH0 PUSH1 0x40 DUP3 ADD SWAP1 POP PUSH2 0xB14 PUSH0 DUP4 ADD DUP6 PUSH2 0x8B7 JUMP JUMPDEST DUP2 DUP2 SUB PUSH1 0x20 DUP4 ADD MSTORE PUSH2 0xB26 DUP2 DUP5 PUSH2 0x8EE JUMP JUMPDEST SWAP1 POP SWAP4 SWAP3 POP POP POP JUMP JUMPDEST PUSH32 0x4E487B7100000000000000000000000000000000000000000000000000000000 PUSH0 MSTORE PUSH1 0x32 PUSH1 0x4 MSTORE PUSH1 0x24 PUSH0 REVERT JUMPDEST PUSH0 DUP2 MLOAD SWAP1 POP PUSH2 0xB6A DUP2 PUSH2 0x699 JUMP JUMPDEST SWAP3 SWAP2 POP POP JUMP JUMPDEST PUSH0 PUSH1 0x20 DUP3 DUP5 SUB SLT ISZERO PUSH2 0xB85 JUMPI PUSH2 0xB84 PUSH2 0x661 JUMP JUMPDEST JUMPDEST PUSH0 PUSH2 0xB92 DUP5 DUP3 DUP6 ADD PUSH2 0xB5C JUMP JUMPDEST SWAP2 POP POP SWAP3 SWAP2 POP POP JUMP JUMPDEST PUSH0 PUSH2 0xBAD PUSH2 0xBA8 DUP5 PUSH2 0x753 JUMP JUMPDEST PUSH2 0x739 JUMP JUMPDEST SWAP1 POP DUP3 DUP2 MSTORE PUSH1 0x20 DUP2 ADD DUP5 DUP5 DUP5 ADD GT ISZERO PUSH2 0xBC9 JUMPI PUSH2 0xBC8 PUSH2 0x6C7 JUMP JUMPDEST JUMPDEST PUSH2 0xBD4 DUP5 DUP3 DUP6 PUSH2 0x8E0 JUMP JUMPDEST POP SWAP4 SWAP3 POP POP POP JUMP JUMPDEST PUSH0 DUP3 PUSH1 0x1F DUP4 ADD SLT PUSH2 0xBF0 JUMPI PUSH2 0xBEF PUSH2 0x6C3 JUMP JUMPDEST JUMPDEST DUP2 MLOAD PUSH2 0xC00 DUP5 DUP3 PUSH1 0x20 DUP7 ADD PUSH2 0xB9B JUMP JUMPDEST SWAP2 POP POP SWAP3 SWAP2 POP POP JUMP JUMPDEST PUSH0 PUSH1 0x20 DUP3 DUP5 SUB SLT ISZERO PUSH2 0xC1E JUMPI PUSH2 0xC1D PUSH2 0x661 JUMP JUMPDEST JUMPDEST PUSH0 DUP3 ADD MLOAD PUSH8 0xFFFFFFFFFFFFFFFF DUP2 GT ISZERO PUSH2 0xC3B JUMPI PUSH2 0xC3A PUSH2 0x665 JUMP JUMPDEST JUMPDEST PUSH2 0xC47 DUP5 DUP3 DUP6 ADD PUSH2 0xBDC JUMP JUMPDEST SWAP2 POP POP SWAP3 SWAP2 POP POP JUMP JUMPDEST PUSH0 DUP2 SWAP1 POP SWAP3 SWAP2 POP POP JUMP JUMPDEST PUSH0 PUSH2 0xC64 DUP3 PUSH2 0x8C6 JUMP JUMPDEST PUSH2 0xC6E DUP2 DUP6 PUSH2 0xC50 JUMP JUMPDEST SWAP4 POP PUSH2 0xC7E DUP2 DUP6 PUSH1 0x20 DUP7 ADD PUSH2 0x8E0 JUMP JUMPDEST DUP1 DUP5 ADD SWAP2 POP POP SWAP3 SWAP2 POP POP JUMP JUMPDEST PUSH0 PUSH2 0xC95 DUP3 DUP5 PUSH2 0xC5A JUMP JUMPDEST SWAP2 POP DUP2 SWAP1 POP SWAP3 SWAP2 POP POP JUMP INVALID PUSH1 0x80 PUSH1 0x40 MSTORE PUSH1 0x40 MLOAD PUSH2 0x895 CODESIZE SUB DUP1 PUSH2 0x895 DUP4 CODECOPY DUP2 DUP2 ADD PUSH1 0x40 MSTORE DUP2 ADD SWAP1 PUSH2 0x25 SWAP2 SWAP1 PUSH2 0x262 JUMP JUMPDEST DUP2 PUSH1 0x1 PUSH0 PUSH2 0x100 EXP DUP2 SLOAD DUP2 PUSH20 0xFFFFFFFFFFFFFFFFFFFFFFFFFFFFFFFFFFFFFFFF MUL NOT AND SWAP1 DUP4 PUSH20 0xFFFFFFFFFFFFFFFFFFFFFFFFFFFFFFFFFFFFFFFF AND MUL OR SWAP1 SSTORE POP DUP1 PUSH0 SWAP1 DUP2 PUSH2 0x73 SWAP2 SWAP1 PUSH2 0x4CC JUMP JUMPDEST POP ADDRESS PUSH1 0x2 PUSH0 PUSH2 0x100 EXP DUP2 SLOAD DUP2 PUSH20 0xFFFFFFFFFFFFFFFFFFFFFFFFFFFFFFFFFFFFFFFF MUL NOT AND SWAP1 DUP4 PUSH20 0xFFFFFFFFFFFFFFFFFFFFFFFFFFFFFFFFFFFFFFFF AND MUL OR SWAP1 SSTORE POP POP POP PUSH2 0x59B JUMP JUMPDEST PUSH0 PUSH1 0x40 MLOAD SWAP1 POP SWAP1 JUMP JUMPDEST PUSH0 PUSH0 REVERT JUMPDEST PUSH0 PUSH0 REVERT JUMPDEST PUSH0 PUSH20 0xFFFFFFFFFFFFFFFFFFFFFFFFFFFFFFFFFFFFFFFF DUP3 AND SWAP1 POP SWAP2 SWAP1 POP JUMP JUMPDEST PUSH0 PUSH2 0xF5 DUP3 PUSH2 0xCC JUMP JUMPDEST SWAP1 POP SWAP2 SWAP1 POP JUMP JUMPDEST PUSH2 0x105 DUP2 PUSH2 0xEB JUMP JUMPDEST DUP2 EQ PUSH2 0x10F JUMPI PUSH0 PUSH0 REVERT JUMPDEST POP JUMP JUMPDEST PUSH0 DUP2 MLOAD SWAP1 POP PUSH2 0x120 DUP2 PUSH2 0xFC JUMP JUMPDEST SWAP3 SWAP2 POP POP JUMP JUMPDEST PUSH0 PUSH0 REVERT JUMPDEST PUSH0 PUSH0 REVERT JUMPDEST PUSH0 PUSH1 0x1F NOT PUSH1 0x1F DUP4 ADD AND SWAP1 POP SWAP2 SWAP1 POP JUMP JUMPDEST PUSH32 0x4E487B7100000000000000000000000000000000000000000000000000000000 PUSH0 MSTORE PUSH1 0x41 PUSH1 0x4 MSTORE PUSH1 0x24 PUSH0 REVERT JUMPDEST PUSH2 0x174 DUP3 PUSH2 0x12E JUMP JUMPDEST DUP2 ADD DUP2 DUP2 LT PUSH8 0xFFFFFFFFFFFFFFFF DUP3 GT OR ISZERO PUSH2 0x193 JUMPI PUSH2 0x192 PUSH2 0x13E JUMP JUMPDEST JUMPDEST DUP1 PUSH1 0x40 MSTORE POP POP POP JUMP JUMPDEST PUSH0 PUSH2 0x1A5 PUSH2 0xBB JUMP JUMPDEST SWAP1 POP PUSH2 0x1B1 DUP3 DUP3 PUSH2 0x16B JUMP JUMPDEST SWAP2 SWAP1 POP JUMP JUMPDEST PUSH0 PUSH8 0xFFFFFFFFFFFFFFFF DUP3 GT ISZERO PUSH2 0x1D0 JUMPI PUSH2 0x1CF PUSH2 0x13E JUMP JUMPDEST JUMPDEST PUSH2 0x1D9 DUP3 PUSH2 0x12E JUMP JUMPDEST SWAP1 POP PUSH1 0x20 DUP2 ADD SWAP1 POP SWAP2 SWAP1 POP JUMP JUMPDEST DUP3 DUP2 DUP4 MCOPY PUSH0 DUP4 DUP4 ADD MSTORE POP POP POP JUMP JUMPDEST PUSH0 PUSH2 0x206 PUSH2 0x201 DUP5 PUSH2 0x1B6 JUMP JUMPDEST PUSH2 0x19C JUMP JUMPDEST SWAP1 POP DUP3 DUP2 MSTORE PUSH1 0x20 DUP2 ADD DUP5 DUP5 DUP5 ADD GT ISZERO PUSH2 0x222 JUMPI PUSH2 0x221 PUSH2 0x12A JUMP JUMPDEST JUMPDEST PUSH2 0x22D DUP5 DUP3 DUP6 PUSH2 0x1E6 JUMP JUMPDEST POP SWAP4 SWAP3 POP POP POP JUMP JUMPDEST PUSH0 DUP3 PUSH1 0x1F DUP4 ADD SLT PUSH2 0x249 JUMPI PUSH2 0x248 PUSH2 0x126 JUMP JUMPDEST JUMPDEST DUP2 MLOAD PUSH2 0x259 DUP5 DUP3 PUSH1 0x20 DUP7 ADD PUSH2 0x1F4 JUMP JUMPDEST SWAP2 POP POP SWAP3 SWAP2 POP POP JUMP JUMPDEST PUSH0 PUSH0 PUSH1 0x40 DUP4 DUP6 SUB SLT ISZERO PUSH2 0x278 JUMPI PUSH2 0x277 PUSH2 0xC4 JUMP JUMPDEST JUMPDEST PUSH0 PUSH2 0x285 DUP6 DUP3 DUP7 ADD PUSH2 0x112 JUMP JUMPDEST SWAP3 POP POP PUSH1 0x20 DUP4 ADD MLOAD PUSH8 0xFFFFFFFFFFFFFFFF DUP2 GT ISZERO PUSH2 0x2A6 JUMPI PUSH2 0x2A5 PUSH2 0xC8 JUMP JUMPDEST JUMPDEST PUSH2 0x2B2 DUP6 DUP3 DUP7 ADD PUSH2 0x235 JUMP JUMPDEST SWAP2 POP POP SWAP3 POP SWAP3 SWAP1 POP JUMP JUMPDEST PUSH0 DUP2 MLOAD SWAP1 POP SWAP2 SWAP1 POP JUMP JUMPDEST PUSH32 0x4E487B7100000000000000000000000000000000000000000000000000000000 PUSH0 MSTORE PUSH1 0x22 PUSH1 0x4 MSTORE PUSH1 0x24 PUSH0 REVERT JUMPDEST PUSH0 PUSH1 0x2 DUP3 DIV SWAP1 POP PUSH1 0x1 DUP3 AND DUP1 PUSH2 0x30A JUMPI PUSH1 0x7F DUP3 AND SWAP2 POP JUMPDEST PUSH1 0x20 DUP3 LT DUP2 SUB PUSH2 0x31D JUMPI PUSH2 0x31C PUSH2 0x2C6 JUMP JUMPDEST JUMPDEST POP SWAP2 SWAP1 POP JUMP JUMPDEST PUSH0 DUP2 SWAP1 POP DUP2 PUSH0 MSTORE PUSH1 0x20 PUSH0 KECCAK256 SWAP1 POP SWAP2 SWAP1 POP JUMP JUMPDEST PUSH0 PUSH1 0x20 PUSH1 0x1F DUP4 ADD DIV SWAP1 POP SWAP2 SWAP1 POP JUMP JUMPDEST PUSH0 DUP3 DUP3 SHL SWAP1 POP SWAP3 SWAP2 POP POP JUMP JUMPDEST PUSH0 PUSH1 0x8 DUP4 MUL PUSH2 0x37F PUSH32 0xFFFFFFFFFFFFFFFFFFFFFFFFFFFFFFFFFFFFFFFFFFFFFFFFFFFFFFFFFFFFFFFF DUP3 PUSH2 0x344 JUMP JUMPDEST PUSH2 0x389 DUP7 DUP4 PUSH2 0x344 JUMP JUMPDEST SWAP6 POP DUP1 NOT DUP5 AND SWAP4 POP DUP1 DUP7 AND DUP5 OR SWAP3 POP POP POP SWAP4 SWAP3 POP POP POP JUMP JUMPDEST PUSH0 DUP2 SWAP1 POP SWAP2 SWAP1 POP JUMP JUMPDEST PUSH0 DUP2 SWAP1 POP SWAP2 SWAP1 POP JUMP JUMPDEST PUSH0 PUSH2 0x3CD PUSH2 0x3C8 PUSH2 0x3C3 DUP5 PUSH2 0x3A1 JUMP JUMPDEST PUSH2 0x3AA JUMP JUMPDEST PUSH2 0x3A1 JUMP JUMPDEST SWAP1 POP SWAP2 SWAP1 POP JUMP JUMPDEST PUSH0 DUP2 SWAP1 POP SWAP2 SWAP1 POP JUMP JUMPDEST PUSH2 0x3E6 DUP4 PUSH2 0x3B3 JUMP JUMPDEST PUSH2 0x3FA PUSH2 0x3F2 DUP3 PUSH2 0x3D4 JUMP JUMPDEST DUP5 DUP5 SLOAD PUSH2 0x350 JUMP JUMPDEST DUP3 SSTORE POP POP POP POP JUMP JUMPDEST PUSH0 PUSH0 SWAP1 POP SWAP1 JUMP JUMPDEST PUSH2 0x411 PUSH2 0x402 JUMP JUMPDEST PUSH2 0x41C DUP2 DUP5 DUP5 PUSH2 0x3DD JUMP JUMPDEST POP POP POP JUMP JUMPDEST JUMPDEST DUP2 DUP2 LT ISZERO PUSH2 0x43F JUMPI PUSH2 0x434 PUSH0 DUP3 PUSH2 0x409 JUMP JUMPDEST PUSH1 0x1 DUP2 ADD SWAP1 POP PUSH2 0x422 JUMP JUMPDEST POP POP JUMP JUMPDEST PUSH1 0x1F DUP3 GT ISZERO PUSH2 0x484 JUMPI PUSH2 0x455 DUP2 PUSH2 0x323 JUMP JUMPDEST PUSH2 0x45E DUP5 PUSH2 0x335 JUMP JUMPDEST DUP2 ADD PUSH1 0x20 DUP6 LT ISZERO PUSH2 0x46D JUMPI DUP2 SWAP1 POP JUMPDEST PUSH2 0x481 PUSH2 0x479 DUP6 PUSH2 0x335 JUMP JUMPDEST DUP4 ADD DUP3 PUSH2 0x421 JUMP JUMPDEST POP POP JUMPDEST POP POP POP JUMP JUMPDEST PUSH0 DUP3 DUP3 SHR SWAP1 POP SWAP3 SWAP2 POP POP JUMP JUMPDEST PUSH0 PUSH2 0x4A4 PUSH0 NOT DUP5 PUSH1 0x8 MUL PUSH2 0x489 JUMP JUMPDEST NOT DUP1 DUP4 AND SWAP2 POP POP SWAP3 SWAP2 POP POP JUMP JUMPDEST PUSH0 PUSH2 0x4BC DUP4 DUP4 PUSH2 0x495 JUMP JUMPDEST SWAP2 POP DUP3 PUSH1 0x2 MUL DUP3 OR SWAP1 POP SWAP3 SWAP2 POP POP JUMP JUMPDEST PUSH2 0x4D5 DUP3 PUSH2 0x2BC JUMP JUMPDEST PUSH8 0xFFFFFFFFFFFFFFFF DUP2 GT ISZERO PUSH2 0x4EE JUMPI PUSH2 0x4ED PUSH2 0x13E JUMP JUMPDEST JUMPDEST PUSH2 0x4F8 DUP3 SLOAD PUSH2 0x2F3 JUMP JUMPDEST PUSH2 0x503 DUP3 DUP3 DUP6 PUSH2 0x443 JUMP JUMPDEST PUSH0 PUSH1 0x20 SWAP1 POP PUSH1 0x1F DUP4 GT PUSH1 0x1 DUP2 EQ PUSH2 0x534 JUMPI PUSH0 DUP5 ISZERO PUSH2 0x522 JUMPI DUP3 DUP8 ADD MLOAD SWAP1 POP JUMPDEST PUSH2 0x52C DUP6 DUP3 PUSH2 0x4B1 JUMP JUMPDEST DUP7 SSTORE POP PUSH2 0x593 JUMP JUMPDEST PUSH1 0x1F NOT DUP5 AND PUSH2 0x542 DUP7 PUSH2 0x323 JUMP JUMPDEST PUSH0 JUMPDEST DUP3 DUP2 LT ISZERO PUSH2 0x569 JUMPI DUP5 DUP10 ADD MLOAD DUP3 SSTORE PUSH1 0x1 DUP3 ADD SWAP2 POP PUSH1 0x20 DUP6 ADD SWAP5 POP PUSH1 0x20 DUP2 ADD SWAP1 POP PUSH2 0x544 JUMP JUMPDEST DUP7 DUP4 LT ISZERO PUSH2 0x586 JUMPI DUP5 DUP10 ADD MLOAD PUSH2 0x582 PUSH1 0x1F DUP10 AND DUP3 PUSH2 0x495 JUMP JUMPDEST DUP4 SSTORE POP JUMPDEST PUSH1 0x1 PUSH1 0x2 DUP9 MUL ADD DUP9 SSTORE POP POP POP JUMPDEST POP POP POP POP POP POP JUMP JUMPDEST PUSH2 0x2ED DUP1 PUSH2 0x5A8 PUSH0 CODECOPY PUSH0 RETURN INVALID PUSH1 0x80 PUSH1 0x40 MSTORE CALLVALUE DUP1 ISZERO PUSH2 0xF JUMPI PUSH0 PUSH0 REVERT JUMPDEST POP PUSH1 0x4 CALLDATASIZE LT PUSH2 0x3F JUMPI PUSH0 CALLDATALOAD PUSH1 0xE0 SHR DUP1 PUSH4 0x6FDDE03 EQ PUSH2 0x43 JUMPI DUP1 PUSH4 0x767800DE EQ PUSH2 0x61 JUMPI DUP1 PUSH4 0x8DA5CB5B EQ PUSH2 0x7F JUMPI JUMPDEST PUSH0 PUSH0 REVERT JUMPDEST PUSH2 0x4B PUSH2 0x9D JUMP JUMPDEST PUSH1 0x40 MLOAD PUSH2 0x58 SWAP2 SWAP1 PUSH2 0x1E2 JUMP JUMPDEST PUSH1 0x40 MLOAD DUP1 SWAP2 SUB SWAP1 RETURN JUMPDEST PUSH2 0x69 PUSH2 0x128 JUMP JUMPDEST PUSH1 0x40 MLOAD PUSH2 0x76 SWAP2 SWAP1 PUSH2 0x241 JUMP JUMPDEST PUSH1 0x40 MLOAD DUP1 SWAP2 SUB SWAP1 RETURN JUMPDEST PUSH2 0x87 PUSH2 0x14D JUMP JUMPDEST PUSH1 0x40 MLOAD PUSH2 0x94 SWAP2 SWAP1 PUSH2 0x241 JUMP JUMPDEST PUSH1 0x40 MLOAD DUP1 SWAP2 SUB SWAP1 RETURN JUMPDEST PUSH0 DUP1 SLOAD PUSH2 0xA9 SWAP1 PUSH2 0x287 JUMP JUMPDEST DUP1 PUSH1 0x1F ADD PUSH1 0x20 DUP1 SWAP2 DIV MUL PUSH1 0x20 ADD PUSH1 0x40 MLOAD SWAP1 DUP2 ADD PUSH1 0x40 MSTORE DUP1 SWAP3 SWAP2 SWAP1 DUP2 DUP2 MSTORE PUSH1 0x20 ADD DUP3 DUP1 SLOAD PUSH2 0xD5 SWAP1 PUSH2 0x287 JUMP JUMPDEST DUP1 ISZERO PUSH2 0x120 JUMPI DUP1 PUSH1 0x1F LT PUSH2 0xF7 JUMPI PUSH2 0x100 DUP1 DUP4 SLOAD DIV MUL DUP4 MSTORE SWAP2 PUSH1 0x20 ADD SWAP2 PUSH2 0x120 JUMP JUMPDEST DUP3 ADD SWAP2 SWAP1 PUSH0 MSTORE PUSH1 0x20 PUSH0 KECCAK256 SWAP1 JUMPDEST DUP2 SLOAD DUP2 MSTORE SWAP1 PUSH1 0x1 ADD SWAP1 PUSH1 0x20 ADD DUP1 DUP4 GT PUSH2 0x103 JUMPI DUP3 SWAP1 SUB PUSH1 0x1F AND DUP3 ADD SWAP2 JUMPDEST POP POP POP POP POP DUP2 JUMP JUMPDEST PUSH1 0x2 PUSH0 SWAP1 SLOAD SWAP1 PUSH2 0x100 EXP SWAP1 DIV PUSH20 0xFFFFFFFFFFFFFFFFFFFFFFFFFFFFFFFFFFFFFFFF AND DUP2 JUMP JUMPDEST PUSH1 0x1 PUSH0 SWAP1 SLOAD SWAP1 PUSH2 0x100 EXP SWAP1 DIV PUSH20 0xFFFFFFFFFFFFFFFFFFFFFFFFFFFFFFFFFFFFFFFF AND DUP2 JUMP JUMPDEST PUSH0 DUP2 MLOAD SWAP1 POP SWAP2 SWAP1 POP JUMP JUMPDEST PUSH0 DUP3 DUP3 MSTORE PUSH1 0x20 DUP3 ADD SWAP1 POP SWAP3 SWAP2 POP POP JUMP JUMPDEST DUP3 DUP2 DUP4 MCOPY PUSH0 DUP4 DUP4 ADD MSTORE POP POP POP JUMP JUMPDEST PUSH0 PUSH1 0x1F NOT PUSH1 0x1F DUP4 ADD AND SWAP1 POP SWAP2 SWAP1 POP JUMP JUMPDEST PUSH0 PUSH2 0x1B4 DUP3 PUSH2 0x172 JUMP JUMPDEST PUSH2 0x1BE DUP2 DUP6 PUSH2 0x17C JUMP JUMPDEST SWAP4 POP PUSH2 0x1CE DUP2 DUP6 PUSH1 0x20 DUP7 ADD PUSH2 0x18C JUMP JUMPDEST PUSH2 0x1D7 DUP2 PUSH2 0x19A JUMP JUMPDEST DUP5 ADD SWAP2 POP POP SWAP3 SWAP2 POP POP JUMP JUMPDEST PUSH0 PUSH1 0x20 DUP3 ADD SWAP1 POP DUP2 DUP2 SUB PUSH0 DUP4 ADD MSTORE PUSH2 0x1FA DUP2 DUP5 PUSH2 0x1AA JUMP JUMPDEST SWAP1 POP SWAP3 SWAP2 POP POP JUMP JUMPDEST PUSH0 PUSH20 0xFFFFFFFFFFFFFFFFFFFFFFFFFFFFFFFFFFFFFFFF DUP3 AND SWAP1 POP SWAP2 SWAP1 POP JUMP JUMPDEST PUSH0 PUSH2 0x22B DUP3 PUSH2 0x202 JUMP JUMPDEST SWAP1 POP SWAP2 SWAP1 POP JUMP JUMPDEST PUSH2 0x23B DUP2 PUSH2 0x221 JUMP JUMPDEST DUP3 MSTORE POP POP JUMP JUMPDEST PUSH0 PUSH1 0x20 DUP3 ADD SWAP1 POP PUSH2 0x254 PUSH0 DUP4 ADD DUP5 PUSH2 0x232 JUMP JUMPDEST SWAP3 SWAP2 POP POP JUMP JUMPDEST PUSH32 0x4E487B7100000000000000000000000000000000000000000000000000000000 PUSH0 MSTORE PUSH1 0x22 PUSH1 0x4 MSTORE PUSH1 0x24 PUSH0 REVERT JUMPDEST PUSH0 PUSH1 0x2 DUP3 DIV SWAP1 POP PUSH1 0x1 DUP3 AND DUP1 PUSH2 0x29E JUMPI PUSH1 0x7F DUP3 AND SWAP2 POP JUMPDEST PUSH1 0x20 DUP3 LT DUP2 SUB PUSH2 0x2B1 JUMPI PUSH2 0x2B0 PUSH2 0x25A JUMP JUMPDEST JUMPDEST POP SWAP2 SWAP1 POP JUMP INVALID LOG2 PUSH5 0x6970667358 0x22 SLT KECCAK256 PUSH15 0xA6153AE6B5CEFA1332F65F1A73EA4B MSTORE8 DUP9 TSTORE RETURNCONTRACT 0xF6 MSTORE8 0xBA PUSH13 0xCE6EFB99482206A364736F6C63 NUMBER STOP ADDMOD 0x1E STOP CALLER LOG2 PUSH5 0x6970667358 0x22 SLT KECCAK256 DUPN 0xDD CALLCODE BYTE PUSH9 0x5FF7561CA02AB75F69 MOD SGT PUSH6 0x244845F2AED3 PUSH13 0x37D90DE260B87F8264736F6C63 NUMBER STOP ADDMOD 0x1E STOP CALLER "
				},
				"gasEstimates": {
					"creation": {
						"codeDepositCost": "1096600",
						"executionCost": "1138",
						"totalCost": "1097738"
					},
					"external": {
						"create(address,string)": "infinite",
						"createAndSendEth(address,string)": "infinite",
						"createWithSalt(address,string,bytes32)": "infinite",
						"createWithSaltAndSendEth(address,string,bytes32)": "infinite",
						"getItem(uint256)": "infinite",
						"items(uint256)": "infinite",
						"stringToBytes32Hash(string)": "infinite"
					}
				},
				"methodIdentifiers": {
					"create(address,string)": "a15ab08d",
					"createAndSendEth(address,string)": "1899d357",
					"createWithSalt(address,string,bytes32)": "823d7c78",
					"createWithSaltAndSendEth(address,string,bytes32)": "85d21177",
					"getItem(uint256)": "3129e773",
					"items(uint256)": "bfb231d2",
					"stringToBytes32Hash(string)": "c5624050"
				}
			},
			"storageLayout": {
				"storage": [
					{
						"astId": 35,
						"contract": "24_ContractFactory.sol:ItemFactory",
						"label": "items",
						"offset": 0,
						"slot": "0",
						"type": "t_array(t_contract(Item)31)dyn_storage"
					}
				],
				"types": {
					"t_array(t_contract(Item)31)dyn_storage": {
						"base": "t_contract(Item)31",
						"encoding": "dynamic_array",
						"label": "contract Item[]",
						"numberOfBytes": "32"
					},
					"t_contract(Item)31": {
						"encoding": "inplace",
						"label": "contract Item",
						"numberOfBytes": "20"
					}
				}
			},
			"userdoc": {
				"kind": "user",
				"methods": {},
				"version": 1
			}
		}
	}
}