{
	"04_key_word.sol": {
		"KeyWord": {
			"abi": [
				{
					"inputs": [
						{
							"internalType": "uint256",
							"name": "num",
							"type": "uint256"
						}
					],
					"name": "addNumber",
					"outputs": [],
					"stateMutability": "nonpayable",
					"type": "function"
				},
				{
					"inputs": [],
					"name": "getNumbersMemory",
					"outputs": [
						{
							"internalType": "uint256[]",
							"name": "",
							"type": "uint256[]"
						}
					],
					"stateMutability": "view",
					"type": "function"
				},
				{
					"inputs": [
						{
							"internalType": "uint256",
							"name": "",
							"type": "uint256"
						}
					],
					"name": "numbers",
					"outputs": [
						{
							"internalType": "uint256",
							"name": "",
							"type": "uint256"
						}
					],
					"stateMutability": "view",
					"type": "function"
				},
				{
					"inputs": [
						{
							"internalType": "uint256[]",
							"name": "arr",
							"type": "uint256[]"
						}
					],
					"name": "sumCalldata",
					"outputs": [
						{
							"internalType": "uint256",
							"name": "sum",
							"type": "uint256"
						}
					],
					"stateMutability": "pure",
					"type": "function"
				},
				{
					"inputs": [
						{
							"internalType": "uint256",
							"name": "newVal",
							"type": "uint256"
						}
					],
					"name": "updateFirstNumber",
					"outputs": [],
					"stateMutability": "nonpayable",
					"type": "function"
				}
			],
			"devdoc": {
				"kind": "dev",
				"methods": {},
				"version": 1
			},
			"evm": {
				"assembly": "    /* \"04_key_word.sol\":57:864  contract KeyWord {... */\n  mstore(0x40, 0x80)\n  callvalue\n  dup1\n  iszero\n  tag_1\n  jumpi\n  revert(0x00, 0x00)\ntag_1:\n  pop\n  dataSize(sub_0)\n  dup1\n  dataOffset(sub_0)\n  0x00\n  codecopy\n  0x00\n  return\nstop\n\nsub_0: assembly {\n        /* \"04_key_word.sol\":57:864  contract KeyWord {... */\n      mstore(0x40, 0x80)\n      callvalue\n      dup1\n      iszero\n      tag_1\n      jumpi\n      revert(0x00, 0x00)\n    tag_1:\n      pop\n      jumpi(tag_2, lt(calldatasize, 0x04))\n      shr(0xe0, calldataload(0x00))\n      dup1\n      0x4b1811d7\n      eq\n      tag_3\n      jumpi\n      dup1\n      0x7bc2e5ac\n      eq\n      tag_4\n      jumpi\n      dup1\n      0xd39fa233\n      eq\n      tag_5\n      jumpi\n      dup1\n      0xdc17bc5c\n      eq\n      tag_6\n      jumpi\n      dup1\n      0xfce68023\n      eq\n      tag_7\n      jumpi\n    tag_2:\n      revert(0x00, 0x00)\n        /* \"04_key_word.sol\":226:412  function getNumbersMemory() public view returns (uint[] memory) {... */\n    tag_3:\n      tag_8\n      tag_9\n      jump\t// in\n    tag_8:\n      mload(0x40)\n      tag_10\n      swap2\n      swap1\n      tag_11\n      jump\t// in\n    tag_10:\n      mload(0x40)\n      dup1\n      swap2\n      sub\n      swap1\n      return\n        /* \"04_key_word.sol\":441:667  function sumCalldata(uint[] calldata arr) external pure returns (uint sum) {... */\n    tag_4:\n      tag_12\n      0x04\n      dup1\n      calldatasize\n      sub\n      dup2\n      add\n      swap1\n      tag_13\n      swap2\n      swap1\n      tag_14\n      jump\t// in\n    tag_13:\n      tag_15\n      jump\t// in\n    tag_12:\n      mload(0x40)\n      tag_16\n      swap2\n      swap1\n      tag_17\n      jump\t// in\n    tag_16:\n      mload(0x40)\n      dup1\n      swap2\n      sub\n      swap1\n      return\n        /* \"04_key_word.sol\":80:101  uint[] public numbers */\n    tag_5:\n      tag_18\n      0x04\n      dup1\n      calldatasize\n      sub\n      dup2\n      add\n      swap1\n      tag_19\n      swap2\n      swap1\n      tag_20\n      jump\t// in\n    tag_19:\n      tag_21\n      jump\t// in\n    tag_18:\n      mload(0x40)\n      tag_22\n      swap2\n      swap1\n      tag_17\n      jump\t// in\n    tag_22:\n      mload(0x40)\n      dup1\n      swap2\n      sub\n      swap1\n      return\n        /* \"04_key_word.sol\":701:862  function updateFirstNumber(uint newVal) public {... */\n    tag_6:\n      tag_23\n      0x04\n      dup1\n      calldatasize\n      sub\n      dup2\n      add\n      swap1\n      tag_24\n      swap2\n      swap1\n      tag_20\n      jump\t// in\n    tag_24:\n      tag_25\n      jump\t// in\n    tag_23:\n      stop\n        /* \"04_key_word.sol\":129:199  function addNumber(uint num) public {... */\n    tag_7:\n      tag_26\n      0x04\n      dup1\n      calldatasize\n      sub\n      dup2\n      add\n      swap1\n      tag_27\n      swap2\n      swap1\n      tag_20\n      jump\t// in\n    tag_27:\n      tag_28\n      jump\t// in\n    tag_26:\n      stop\n        /* \"04_key_word.sol\":226:412  function getNumbersMemory() public view returns (uint[] memory) {... */\n    tag_9:\n        /* \"04_key_word.sol\":275:288  uint[] memory */\n      0x60\n        /* \"04_key_word.sol\":300:318  uint[] memory temp */\n      0x00\n        /* \"04_key_word.sol\":321:328  numbers */\n      0x00\n        /* \"04_key_word.sol\":300:328  uint[] memory temp = numbers */\n      dup1\n      sload\n      dup1\n      0x20\n      mul\n      0x20\n      add\n      mload(0x40)\n      swap1\n      dup2\n      add\n      0x40\n      mstore\n      dup1\n      swap3\n      swap2\n      swap1\n      dup2\n      dup2\n      mstore\n      0x20\n      add\n      dup3\n      dup1\n      sload\n      dup1\n      iszero\n      tag_30\n      jumpi\n      0x20\n      mul\n      dup3\n      add\n      swap2\n      swap1\n      0x00\n      mstore\n      keccak256(0x00, 0x20)\n      swap1\n    tag_31:\n      dup2\n      sload\n      dup2\n      mstore\n      0x20\n      add\n      swap1\n      0x01\n      add\n      swap1\n      dup1\n      dup4\n      gt\n      tag_31\n      jumpi\n    tag_30:\n      pop\n      pop\n      pop\n      pop\n      pop\n      swap1\n      pop\n        /* \"04_key_word.sol\":401:405  temp */\n      dup1\n        /* \"04_key_word.sol\":394:405  return temp */\n      swap2\n      pop\n      pop\n        /* \"04_key_word.sol\":226:412  function getNumbersMemory() public view returns (uint[] memory) {... */\n      swap1\n      jump\t// out\n        /* \"04_key_word.sol\":441:667  function sumCalldata(uint[] calldata arr) external pure returns (uint sum) {... */\n    tag_15:\n        /* \"04_key_word.sol\":506:514  uint sum */\n      0x00\n        /* \"04_key_word.sol\":590:596  uint i */\n      0x00\n        /* \"04_key_word.sol\":599:600  0 */\n      0x00\n        /* \"04_key_word.sol\":590:600  uint i = 0 */\n      swap1\n      pop\n        /* \"04_key_word.sol\":585:661  for (uint i = 0; i < arr.length; i++) {... */\n    tag_33:\n        /* \"04_key_word.sol\":606:609  arr */\n      dup4\n      dup4\n        /* \"04_key_word.sol\":606:616  arr.length */\n      swap1\n      pop\n        /* \"04_key_word.sol\":602:603  i */\n      dup2\n        /* \"04_key_word.sol\":602:616  i < arr.length */\n      lt\n        /* \"04_key_word.sol\":585:661  for (uint i = 0; i < arr.length; i++) {... */\n      iszero\n      tag_34\n      jumpi\n        /* \"04_key_word.sol\":644:647  arr */\n      dup4\n      dup4\n        /* \"04_key_word.sol\":648:649  i */\n      dup3\n        /* \"04_key_word.sol\":644:650  arr[i] */\n      dup2\n      dup2\n      lt\n      tag_36\n      jumpi\n      tag_37\n      tag_38\n      jump\t// in\n    tag_37:\n    tag_36:\n      swap1\n      pop\n      0x20\n      mul\n      add\n      calldataload\n        /* \"04_key_word.sol\":637:650  sum += arr[i] */\n      dup3\n      tag_39\n      swap2\n      swap1\n      tag_40\n      jump\t// in\n    tag_39:\n      swap2\n      pop\n        /* \"04_key_word.sol\":618:621  i++ */\n      dup1\n      dup1\n      0x01\n      add\n      swap2\n      pop\n      pop\n        /* \"04_key_word.sol\":585:661  for (uint i = 0; i < arr.length; i++) {... */\n      jump(tag_33)\n    tag_34:\n      pop\n        /* \"04_key_word.sol\":441:667  function sumCalldata(uint[] calldata arr) external pure returns (uint sum) {... */\n      swap3\n      swap2\n      pop\n      pop\n      jump\t// out\n        /* \"04_key_word.sol\":80:101  uint[] public numbers */\n    tag_21:\n      0x00\n      dup2\n      dup2\n      sload\n      dup2\n      lt\n      tag_41\n      jumpi\n      0x00\n      dup1\n      revert\n    tag_41:\n      swap1\n      0x00\n      mstore\n      keccak256(0x00, 0x20)\n      add\n      0x00\n      swap2\n      pop\n      swap1\n      pop\n      sload\n      dup2\n      jump\t// out\n        /* \"04_key_word.sol\":701:862  function updateFirstNumber(uint newVal) public {... */\n    tag_25:\n        /* \"04_key_word.sol\":758:776  uint[] storage ref */\n      0x00\n        /* \"04_key_word.sol\":779:786  numbers */\n      0x00\n        /* \"04_key_word.sol\":758:786  uint[] storage ref = numbers */\n      swap1\n      pop\n        /* \"04_key_word.sol\":813:814  0 */\n      0x00\n        /* \"04_key_word.sol\":800:803  ref */\n      dup2\n        /* \"04_key_word.sol\":800:810  ref.length */\n      dup1\n      sload\n      swap1\n      pop\n        /* \"04_key_word.sol\":800:814  ref.length > 0 */\n      gt\n        /* \"04_key_word.sol\":796:856  if (ref.length > 0) {... */\n      iszero\n      tag_44\n      jumpi\n        /* \"04_key_word.sol\":839:845  newVal */\n      dup2\n        /* \"04_key_word.sol\":830:833  ref */\n      dup2\n        /* \"04_key_word.sol\":834:835  0 */\n      0x00\n        /* \"04_key_word.sol\":830:836  ref[0] */\n      dup2\n      sload\n      dup2\n      lt\n      tag_45\n      jumpi\n      tag_46\n      tag_38\n      jump\t// in\n    tag_46:\n    tag_45:\n      swap1\n      0x00\n      mstore\n      keccak256(0x00, 0x20)\n      add\n        /* \"04_key_word.sol\":830:845  ref[0] = newVal */\n      dup2\n      swap1\n      sstore\n      pop\n        /* \"04_key_word.sol\":796:856  if (ref.length > 0) {... */\n    tag_44:\n        /* \"04_key_word.sol\":748:862  {... */\n      pop\n        /* \"04_key_word.sol\":701:862  function updateFirstNumber(uint newVal) public {... */\n      pop\n      jump\t// out\n        /* \"04_key_word.sol\":129:199  function addNumber(uint num) public {... */\n    tag_28:\n        /* \"04_key_word.sol\":175:182  numbers */\n      0x00\n        /* \"04_key_word.sol\":188:191  num */\n      dup2\n        /* \"04_key_word.sol\":175:192  numbers.push(num) */\n      swap1\n      dup1\n      0x01\n      dup2\n      sload\n      add\n      dup1\n      dup3\n      sstore\n      dup1\n      swap2\n      pop\n      pop\n      0x01\n      swap1\n      sub\n      swap1\n      0x00\n      mstore\n      keccak256(0x00, 0x20)\n      add\n      0x00\n      swap1\n      swap2\n      swap1\n      swap2\n      swap1\n      swap2\n      pop\n      sstore\n        /* \"04_key_word.sol\":129:199  function addNumber(uint num) public {... */\n      pop\n      jump\t// out\n        /* \"#utility.yul\":7:121   */\n    tag_50:\n        /* \"#utility.yul\":74:80   */\n      0x00\n        /* \"#utility.yul\":108:113   */\n      dup2\n        /* \"#utility.yul\":102:114   */\n      mload\n        /* \"#utility.yul\":92:114   */\n      swap1\n      pop\n        /* \"#utility.yul\":7:121   */\n      swap2\n      swap1\n      pop\n      jump\t// out\n        /* \"#utility.yul\":127:311   */\n    tag_51:\n        /* \"#utility.yul\":226:237   */\n      0x00\n        /* \"#utility.yul\":260:266   */\n      dup3\n        /* \"#utility.yul\":255:258   */\n      dup3\n        /* \"#utility.yul\":248:267   */\n      mstore\n        /* \"#utility.yul\":300:304   */\n      0x20\n        /* \"#utility.yul\":295:298   */\n      dup3\n        /* \"#utility.yul\":291:305   */\n      add\n        /* \"#utility.yul\":276:305   */\n      swap1\n      pop\n        /* \"#utility.yul\":127:311   */\n      swap3\n      swap2\n      pop\n      pop\n      jump\t// out\n        /* \"#utility.yul\":317:449   */\n    tag_52:\n        /* \"#utility.yul\":384:388   */\n      0x00\n        /* \"#utility.yul\":407:410   */\n      dup2\n        /* \"#utility.yul\":399:410   */\n      swap1\n      pop\n        /* \"#utility.yul\":437:441   */\n      0x20\n        /* \"#utility.yul\":432:435   */\n      dup3\n        /* \"#utility.yul\":428:442   */\n      add\n        /* \"#utility.yul\":420:442   */\n      swap1\n      pop\n        /* \"#utility.yul\":317:449   */\n      swap2\n      swap1\n      pop\n      jump\t// out\n        /* \"#utility.yul\":455:532   */\n    tag_53:\n        /* \"#utility.yul\":492:499   */\n      0x00\n        /* \"#utility.yul\":521:526   */\n      dup2\n        /* \"#utility.yul\":510:526   */\n      swap1\n      pop\n        /* \"#utility.yul\":455:532   */\n      swap2\n      swap1\n      pop\n      jump\t// out\n        /* \"#utility.yul\":538:646   */\n    tag_54:\n        /* \"#utility.yul\":615:639   */\n      tag_75\n        /* \"#utility.yul\":633:638   */\n      dup2\n        /* \"#utility.yul\":615:639   */\n      tag_53\n      jump\t// in\n    tag_75:\n        /* \"#utility.yul\":610:613   */\n      dup3\n        /* \"#utility.yul\":603:640   */\n      mstore\n        /* \"#utility.yul\":538:646   */\n      pop\n      pop\n      jump\t// out\n        /* \"#utility.yul\":652:831   */\n    tag_55:\n        /* \"#utility.yul\":721:731   */\n      0x00\n        /* \"#utility.yul\":742:788   */\n      tag_77\n        /* \"#utility.yul\":784:787   */\n      dup4\n        /* \"#utility.yul\":776:782   */\n      dup4\n        /* \"#utility.yul\":742:788   */\n      tag_54\n      jump\t// in\n    tag_77:\n        /* \"#utility.yul\":820:824   */\n      0x20\n        /* \"#utility.yul\":815:818   */\n      dup4\n        /* \"#utility.yul\":811:825   */\n      add\n        /* \"#utility.yul\":797:825   */\n      swap1\n      pop\n        /* \"#utility.yul\":652:831   */\n      swap3\n      swap2\n      pop\n      pop\n      jump\t// out\n        /* \"#utility.yul\":837:950   */\n    tag_56:\n        /* \"#utility.yul\":907:911   */\n      0x00\n        /* \"#utility.yul\":939:943   */\n      0x20\n        /* \"#utility.yul\":934:937   */\n      dup3\n        /* \"#utility.yul\":930:944   */\n      add\n        /* \"#utility.yul\":922:944   */\n      swap1\n      pop\n        /* \"#utility.yul\":837:950   */\n      swap2\n      swap1\n      pop\n      jump\t// out\n        /* \"#utility.yul\":986:1718   */\n    tag_57:\n        /* \"#utility.yul\":1105:1108   */\n      0x00\n        /* \"#utility.yul\":1134:1188   */\n      tag_80\n        /* \"#utility.yul\":1182:1187   */\n      dup3\n        /* \"#utility.yul\":1134:1188   */\n      tag_50\n      jump\t// in\n    tag_80:\n        /* \"#utility.yul\":1204:1290   */\n      tag_81\n        /* \"#utility.yul\":1283:1289   */\n      dup2\n        /* \"#utility.yul\":1278:1281   */\n      dup6\n        /* \"#utility.yul\":1204:1290   */\n      tag_51\n      jump\t// in\n    tag_81:\n        /* \"#utility.yul\":1197:1290   */\n      swap4\n      pop\n        /* \"#utility.yul\":1314:1370   */\n      tag_82\n        /* \"#utility.yul\":1364:1369   */\n      dup4\n        /* \"#utility.yul\":1314:1370   */\n      tag_52\n      jump\t// in\n    tag_82:\n        /* \"#utility.yul\":1393:1400   */\n      dup1\n        /* \"#utility.yul\":1424:1425   */\n      0x00\n        /* \"#utility.yul\":1409:1693   */\n    tag_83:\n        /* \"#utility.yul\":1434:1440   */\n      dup4\n        /* \"#utility.yul\":1431:1432   */\n      dup2\n        /* \"#utility.yul\":1428:1441   */\n      lt\n        /* \"#utility.yul\":1409:1693   */\n      iszero\n      tag_85\n      jumpi\n        /* \"#utility.yul\":1510:1516   */\n      dup2\n        /* \"#utility.yul\":1504:1517   */\n      mload\n        /* \"#utility.yul\":1537:1600   */\n      tag_86\n        /* \"#utility.yul\":1596:1599   */\n      dup9\n        /* \"#utility.yul\":1581:1594   */\n      dup3\n        /* \"#utility.yul\":1537:1600   */\n      tag_55\n      jump\t// in\n    tag_86:\n        /* \"#utility.yul\":1530:1600   */\n      swap8\n      pop\n        /* \"#utility.yul\":1623:1683   */\n      tag_87\n        /* \"#utility.yul\":1676:1682   */\n      dup4\n        /* \"#utility.yul\":1623:1683   */\n      tag_56\n      jump\t// in\n    tag_87:\n        /* \"#utility.yul\":1613:1683   */\n      swap3\n      pop\n        /* \"#utility.yul\":1469:1693   */\n      pop\n        /* \"#utility.yul\":1456:1457   */\n      0x01\n        /* \"#utility.yul\":1453:1454   */\n      dup2\n        /* \"#utility.yul\":1449:1458   */\n      add\n        /* \"#utility.yul\":1444:1458   */\n      swap1\n      pop\n        /* \"#utility.yul\":1409:1693   */\n      jump(tag_83)\n    tag_85:\n        /* \"#utility.yul\":1413:1427   */\n      pop\n        /* \"#utility.yul\":1709:1712   */\n      dup6\n        /* \"#utility.yul\":1702:1712   */\n      swap4\n      pop\n        /* \"#utility.yul\":1110:1718   */\n      pop\n      pop\n      pop\n        /* \"#utility.yul\":986:1718   */\n      swap3\n      swap2\n      pop\n      pop\n      jump\t// out\n        /* \"#utility.yul\":1724:2097   */\n    tag_11:\n        /* \"#utility.yul\":1867:1871   */\n      0x00\n        /* \"#utility.yul\":1905:1907   */\n      0x20\n        /* \"#utility.yul\":1894:1903   */\n      dup3\n        /* \"#utility.yul\":1890:1908   */\n      add\n        /* \"#utility.yul\":1882:1908   */\n      swap1\n      pop\n        /* \"#utility.yul\":1954:1963   */\n      dup2\n        /* \"#utility.yul\":1948:1952   */\n      dup2\n        /* \"#utility.yul\":1944:1964   */\n      sub\n        /* \"#utility.yul\":1940:1941   */\n      0x00\n        /* \"#utility.yul\":1929:1938   */\n      dup4\n        /* \"#utility.yul\":1925:1942   */\n      add\n        /* \"#utility.yul\":1918:1965   */\n      mstore\n        /* \"#utility.yul\":1982:2090   */\n      tag_89\n        /* \"#utility.yul\":2085:2089   */\n      dup2\n        /* \"#utility.yul\":2076:2082   */\n      dup5\n        /* \"#utility.yul\":1982:2090   */\n      tag_57\n      jump\t// in\n    tag_89:\n        /* \"#utility.yul\":1974:2090   */\n      swap1\n      pop\n        /* \"#utility.yul\":1724:2097   */\n      swap3\n      swap2\n      pop\n      pop\n      jump\t// out\n        /* \"#utility.yul\":2184:2301   */\n    tag_59:\n        /* \"#utility.yul\":2293:2294   */\n      0x00\n        /* \"#utility.yul\":2290:2291   */\n      0x00\n        /* \"#utility.yul\":2283:2295   */\n      revert\n        /* \"#utility.yul\":2307:2424   */\n    tag_60:\n        /* \"#utility.yul\":2416:2417   */\n      0x00\n        /* \"#utility.yul\":2413:2414   */\n      0x00\n        /* \"#utility.yul\":2406:2418   */\n      revert\n        /* \"#utility.yul\":2430:2547   */\n    tag_61:\n        /* \"#utility.yul\":2539:2540   */\n      0x00\n        /* \"#utility.yul\":2536:2537   */\n      0x00\n        /* \"#utility.yul\":2529:2541   */\n      revert\n        /* \"#utility.yul\":2553:2670   */\n    tag_62:\n        /* \"#utility.yul\":2662:2663   */\n      0x00\n        /* \"#utility.yul\":2659:2660   */\n      0x00\n        /* \"#utility.yul\":2652:2664   */\n      revert\n        /* \"#utility.yul\":2676:2793   */\n    tag_63:\n        /* \"#utility.yul\":2785:2786   */\n      0x00\n        /* \"#utility.yul\":2782:2783   */\n      0x00\n        /* \"#utility.yul\":2775:2787   */\n      revert\n        /* \"#utility.yul\":2816:3384   */\n    tag_64:\n        /* \"#utility.yul\":2889:2897   */\n      0x00\n        /* \"#utility.yul\":2899:2905   */\n      0x00\n        /* \"#utility.yul\":2949:2952   */\n      dup4\n        /* \"#utility.yul\":2942:2946   */\n      0x1f\n        /* \"#utility.yul\":2934:2940   */\n      dup5\n        /* \"#utility.yul\":2930:2947   */\n      add\n        /* \"#utility.yul\":2926:2953   */\n      slt\n        /* \"#utility.yul\":2916:3038   */\n      tag_97\n      jumpi\n        /* \"#utility.yul\":2957:3036   */\n      tag_98\n      tag_61\n      jump\t// in\n    tag_98:\n        /* \"#utility.yul\":2916:3038   */\n    tag_97:\n        /* \"#utility.yul\":3070:3076   */\n      dup3\n        /* \"#utility.yul\":3057:3077   */\n      calldataload\n        /* \"#utility.yul\":3047:3077   */\n      swap1\n      pop\n        /* \"#utility.yul\":3100:3118   */\n      0xffffffffffffffff\n        /* \"#utility.yul\":3092:3098   */\n      dup2\n        /* \"#utility.yul\":3089:3119   */\n      gt\n        /* \"#utility.yul\":3086:3203   */\n      iszero\n      tag_99\n      jumpi\n        /* \"#utility.yul\":3122:3201   */\n      tag_100\n      tag_62\n      jump\t// in\n    tag_100:\n        /* \"#utility.yul\":3086:3203   */\n    tag_99:\n        /* \"#utility.yul\":3236:3240   */\n      0x20\n        /* \"#utility.yul\":3228:3234   */\n      dup4\n        /* \"#utility.yul\":3224:3241   */\n      add\n        /* \"#utility.yul\":3212:3241   */\n      swap2\n      pop\n        /* \"#utility.yul\":3290:3293   */\n      dup4\n        /* \"#utility.yul\":3282:3286   */\n      0x20\n        /* \"#utility.yul\":3274:3280   */\n      dup3\n        /* \"#utility.yul\":3270:3287   */\n      mul\n        /* \"#utility.yul\":3260:3268   */\n      dup4\n        /* \"#utility.yul\":3256:3288   */\n      add\n        /* \"#utility.yul\":3253:3294   */\n      gt\n        /* \"#utility.yul\":3250:3378   */\n      iszero\n      tag_101\n      jumpi\n        /* \"#utility.yul\":3297:3376   */\n      tag_102\n      tag_63\n      jump\t// in\n    tag_102:\n        /* \"#utility.yul\":3250:3378   */\n    tag_101:\n        /* \"#utility.yul\":2816:3384   */\n      swap3\n      pop\n      swap3\n      swap1\n      pop\n      jump\t// out\n        /* \"#utility.yul\":3390:3949   */\n    tag_14:\n        /* \"#utility.yul\":3476:3482   */\n      0x00\n        /* \"#utility.yul\":3484:3490   */\n      0x00\n        /* \"#utility.yul\":3533:3535   */\n      0x20\n        /* \"#utility.yul\":3521:3530   */\n      dup4\n        /* \"#utility.yul\":3512:3519   */\n      dup6\n        /* \"#utility.yul\":3508:3531   */\n      sub\n        /* \"#utility.yul\":3504:3536   */\n      slt\n        /* \"#utility.yul\":3501:3620   */\n      iszero\n      tag_104\n      jumpi\n        /* \"#utility.yul\":3539:3618   */\n      tag_105\n      tag_59\n      jump\t// in\n    tag_105:\n        /* \"#utility.yul\":3501:3620   */\n    tag_104:\n        /* \"#utility.yul\":3687:3688   */\n      0x00\n        /* \"#utility.yul\":3676:3685   */\n      dup4\n        /* \"#utility.yul\":3672:3689   */\n      add\n        /* \"#utility.yul\":3659:3690   */\n      calldataload\n        /* \"#utility.yul\":3717:3735   */\n      0xffffffffffffffff\n        /* \"#utility.yul\":3709:3715   */\n      dup2\n        /* \"#utility.yul\":3706:3736   */\n      gt\n        /* \"#utility.yul\":3703:3820   */\n      iszero\n      tag_106\n      jumpi\n        /* \"#utility.yul\":3739:3818   */\n      tag_107\n      tag_60\n      jump\t// in\n    tag_107:\n        /* \"#utility.yul\":3703:3820   */\n    tag_106:\n        /* \"#utility.yul\":3852:3932   */\n      tag_108\n        /* \"#utility.yul\":3924:3931   */\n      dup6\n        /* \"#utility.yul\":3915:3921   */\n      dup3\n        /* \"#utility.yul\":3904:3913   */\n      dup7\n        /* \"#utility.yul\":3900:3922   */\n      add\n        /* \"#utility.yul\":3852:3932   */\n      tag_64\n      jump\t// in\n    tag_108:\n        /* \"#utility.yul\":3834:3932   */\n      swap3\n      pop\n      swap3\n      pop\n        /* \"#utility.yul\":3630:3942   */\n      pop\n        /* \"#utility.yul\":3390:3949   */\n      swap3\n      pop\n      swap3\n      swap1\n      pop\n      jump\t// out\n        /* \"#utility.yul\":3955:4073   */\n    tag_65:\n        /* \"#utility.yul\":4042:4066   */\n      tag_110\n        /* \"#utility.yul\":4060:4065   */\n      dup2\n        /* \"#utility.yul\":4042:4066   */\n      tag_53\n      jump\t// in\n    tag_110:\n        /* \"#utility.yul\":4037:4040   */\n      dup3\n        /* \"#utility.yul\":4030:4067   */\n      mstore\n        /* \"#utility.yul\":3955:4073   */\n      pop\n      pop\n      jump\t// out\n        /* \"#utility.yul\":4079:4301   */\n    tag_17:\n        /* \"#utility.yul\":4172:4176   */\n      0x00\n        /* \"#utility.yul\":4210:4212   */\n      0x20\n        /* \"#utility.yul\":4199:4208   */\n      dup3\n        /* \"#utility.yul\":4195:4213   */\n      add\n        /* \"#utility.yul\":4187:4213   */\n      swap1\n      pop\n        /* \"#utility.yul\":4223:4294   */\n      tag_112\n        /* \"#utility.yul\":4291:4292   */\n      0x00\n        /* \"#utility.yul\":4280:4289   */\n      dup4\n        /* \"#utility.yul\":4276:4293   */\n      add\n        /* \"#utility.yul\":4267:4273   */\n      dup5\n        /* \"#utility.yul\":4223:4294   */\n      tag_65\n      jump\t// in\n    tag_112:\n        /* \"#utility.yul\":4079:4301   */\n      swap3\n      swap2\n      pop\n      pop\n      jump\t// out\n        /* \"#utility.yul\":4307:4429   */\n    tag_66:\n        /* \"#utility.yul\":4380:4404   */\n      tag_114\n        /* \"#utility.yul\":4398:4403   */\n      dup2\n        /* \"#utility.yul\":4380:4404   */\n      tag_53\n      jump\t// in\n    tag_114:\n        /* \"#utility.yul\":4373:4378   */\n      dup2\n        /* \"#utility.yul\":4370:4405   */\n      eq\n        /* \"#utility.yul\":4360:4423   */\n      tag_115\n      jumpi\n        /* \"#utility.yul\":4419:4420   */\n      0x00\n        /* \"#utility.yul\":4416:4417   */\n      0x00\n        /* \"#utility.yul\":4409:4421   */\n      revert\n        /* \"#utility.yul\":4360:4423   */\n    tag_115:\n        /* \"#utility.yul\":4307:4429   */\n      pop\n      jump\t// out\n        /* \"#utility.yul\":4435:4574   */\n    tag_67:\n        /* \"#utility.yul\":4481:4486   */\n      0x00\n        /* \"#utility.yul\":4519:4525   */\n      dup2\n        /* \"#utility.yul\":4506:4526   */\n      calldataload\n        /* \"#utility.yul\":4497:4526   */\n      swap1\n      pop\n        /* \"#utility.yul\":4535:4568   */\n      tag_117\n        /* \"#utility.yul\":4562:4567   */\n      dup2\n        /* \"#utility.yul\":4535:4568   */\n      tag_66\n      jump\t// in\n    tag_117:\n        /* \"#utility.yul\":4435:4574   */\n      swap3\n      swap2\n      pop\n      pop\n      jump\t// out\n        /* \"#utility.yul\":4580:4909   */\n    tag_20:\n        /* \"#utility.yul\":4639:4645   */\n      0x00\n        /* \"#utility.yul\":4688:4690   */\n      0x20\n        /* \"#utility.yul\":4676:4685   */\n      dup3\n        /* \"#utility.yul\":4667:4674   */\n      dup5\n        /* \"#utility.yul\":4663:4686   */\n      sub\n        /* \"#utility.yul\":4659:4691   */\n      slt\n        /* \"#utility.yul\":4656:4775   */\n      iszero\n      tag_119\n      jumpi\n        /* \"#utility.yul\":4694:4773   */\n      tag_120\n      tag_59\n      jump\t// in\n    tag_120:\n        /* \"#utility.yul\":4656:4775   */\n    tag_119:\n        /* \"#utility.yul\":4814:4815   */\n      0x00\n        /* \"#utility.yul\":4839:4892   */\n      tag_121\n        /* \"#utility.yul\":4884:4891   */\n      dup5\n        /* \"#utility.yul\":4875:4881   */\n      dup3\n        /* \"#utility.yul\":4864:4873   */\n      dup6\n        /* \"#utility.yul\":4860:4882   */\n      add\n        /* \"#utility.yul\":4839:4892   */\n      tag_67\n      jump\t// in\n    tag_121:\n        /* \"#utility.yul\":4829:4892   */\n      swap2\n      pop\n        /* \"#utility.yul\":4785:4902   */\n      pop\n        /* \"#utility.yul\":4580:4909   */\n      swap3\n      swap2\n      pop\n      pop\n      jump\t// out\n        /* \"#utility.yul\":4915:5095   */\n    tag_38:\n        /* \"#utility.yul\":4963:5040   */\n      0x4e487b7100000000000000000000000000000000000000000000000000000000\n        /* \"#utility.yul\":4960:4961   */\n      0x00\n        /* \"#utility.yul\":4953:5041   */\n      mstore\n        /* \"#utility.yul\":5060:5064   */\n      0x32\n        /* \"#utility.yul\":5057:5058   */\n      0x04\n        /* \"#utility.yul\":5050:5065   */\n      mstore\n        /* \"#utility.yul\":5084:5088   */\n      0x24\n        /* \"#utility.yul\":5081:5082   */\n      0x00\n        /* \"#utility.yul\":5074:5089   */\n      revert\n        /* \"#utility.yul\":5101:5281   */\n    tag_68:\n        /* \"#utility.yul\":5149:5226   */\n      0x4e487b7100000000000000000000000000000000000000000000000000000000\n        /* \"#utility.yul\":5146:5147   */\n      0x00\n        /* \"#utility.yul\":5139:5227   */\n      mstore\n        /* \"#utility.yul\":5246:5250   */\n      0x11\n        /* \"#utility.yul\":5243:5244   */\n      0x04\n        /* \"#utility.yul\":5236:5251   */\n      mstore\n        /* \"#utility.yul\":5270:5274   */\n      0x24\n        /* \"#utility.yul\":5267:5268   */\n      0x00\n        /* \"#utility.yul\":5260:5275   */\n      revert\n        /* \"#utility.yul\":5287:5478   */\n    tag_40:\n        /* \"#utility.yul\":5327:5330   */\n      0x00\n        /* \"#utility.yul\":5346:5366   */\n      tag_125\n        /* \"#utility.yul\":5364:5365   */\n      dup3\n        /* \"#utility.yul\":5346:5366   */\n      tag_53\n      jump\t// in\n    tag_125:\n        /* \"#utility.yul\":5341:5366   */\n      swap2\n      pop\n        /* \"#utility.yul\":5380:5400   */\n      tag_126\n        /* \"#utility.yul\":5398:5399   */\n      dup4\n        /* \"#utility.yul\":5380:5400   */\n      tag_53\n      jump\t// in\n    tag_126:\n        /* \"#utility.yul\":5375:5400   */\n      swap3\n      pop\n        /* \"#utility.yul\":5423:5424   */\n      dup3\n        /* \"#utility.yul\":5420:5421   */\n      dup3\n        /* \"#utility.yul\":5416:5425   */\n      add\n        /* \"#utility.yul\":5409:5425   */\n      swap1\n      pop\n        /* \"#utility.yul\":5444:5447   */\n      dup1\n        /* \"#utility.yul\":5441:5442   */\n      dup3\n        /* \"#utility.yul\":5438:5448   */\n      gt\n        /* \"#utility.yul\":5435:5471   */\n      iszero\n      tag_127\n      jumpi\n        /* \"#utility.yul\":5451:5469   */\n      tag_128\n      tag_68\n      jump\t// in\n    tag_128:\n        /* \"#utility.yul\":5435:5471   */\n    tag_127:\n        /* \"#utility.yul\":5287:5478   */\n      swap3\n      swap2\n      pop\n      pop\n      jump\t// out\n\n    auxdata: 0xa26469706673582212207b666373021a513a5d760a793b47c3309ccc329f90cc3b90641afde7dee2ecd664736f6c634300081e0033\n}\n",
				"bytecode": {
					"linkReferences": {},
					"object": "6080604052348015600e575f5ffd5b506105058061001c5f395ff3fe608060405234801561000f575f5ffd5b5060043610610055575f3560e01c80634b1811d7146100595780637bc2e5ac14610077578063d39fa233146100a7578063dc17bc5c146100d7578063fce68023146100f3575b5f5ffd5b61006161010f565b60405161006e91906102f1565b60405180910390f35b610091600480360381019061008c919061037a565b610169565b60405161009e91906103d4565b60405180910390f35b6100c160048036038101906100bc9190610417565b6101b5565b6040516100ce91906103d4565b60405180910390f35b6100f160048036038101906100ec9190610417565b6101d4565b005b61010d60048036038101906101089190610417565b610209565b005b60605f5f80548060200260200160405190810160405280929190818152602001828054801561015b57602002820191905f5260205f20905b815481526020019060010190808311610147575b505050505090508091505090565b5f5f5f90505b838390508110156101ae5783838281811061018d5761018c610442565b5b905060200201358261019f919061049c565b9150808060010191505061016f565b5092915050565b5f81815481106101c3575f80fd5b905f5260205f20015f915090505481565b5f5f90505f818054905011156102055781815f815481106101f8576101f7610442565b5b905f5260205f2001819055505b5050565b5f81908060018154018082558091505060019003905f5260205f20015f909190919091505550565b5f81519050919050565b5f82825260208201905092915050565b5f819050602082019050919050565b5f819050919050565b61026c8161025a565b82525050565b5f61027d8383610263565b60208301905092915050565b5f602082019050919050565b5f61029f82610231565b6102a9818561023b565b93506102b48361024b565b805f5b838110156102e45781516102cb8882610272565b97506102d683610289565b9250506001810190506102b7565b5085935050505092915050565b5f6020820190508181035f8301526103098184610295565b905092915050565b5f5ffd5b5f5ffd5b5f5ffd5b5f5ffd5b5f5ffd5b5f5f83601f84011261033a57610339610319565b5b8235905067ffffffffffffffff8111156103575761035661031d565b5b60208301915083602082028301111561037357610372610321565b5b9250929050565b5f5f602083850312156103905761038f610311565b5b5f83013567ffffffffffffffff8111156103ad576103ac610315565b5b6103b985828601610325565b92509250509250929050565b6103ce8161025a565b82525050565b5f6020820190506103e75f8301846103c5565b92915050565b6103f68161025a565b8114610400575f5ffd5b50565b5f81359050610411816103ed565b92915050565b5f6020828403121561042c5761042b610311565b5b5f61043984828501610403565b91505092915050565b7f4e487b71000000000000000000000000000000000000000000000000000000005f52603260045260245ffd5b7f4e487b71000000000000000000000000000000000000000000000000000000005f52601160045260245ffd5b5f6104a68261025a565b91506104b18361025a565b92508282019050808211156104c9576104c861046f565b5b9291505056fea26469706673582212207b666373021a513a5d760a793b47c3309ccc329f90cc3b90641afde7dee2ecd664736f6c634300081e0033",
					"opcodes": "PUSH1 0x80 PUSH1 0x40 MSTORE CALLVALUE DUP1 ISZERO PUSH1 0xE JUMPI PUSH0 PUSH0 REVERT JUMPDEST POP PUSH2 0x505 DUP1 PUSH2 0x1C PUSH0 CODECOPY PUSH0 RETURN INVALID PUSH1 0x80 PUSH1 0x40 MSTORE CALLVALUE DUP1 ISZERO PUSH2 0xF JUMPI PUSH0 PUSH0 REVERT JUMPDEST POP PUSH1 0x4 CALLDATASIZE LT PUSH2 0x55 JUMPI PUSH0 CALLDATALOAD PUSH1 0xE0 SHR DUP1 PUSH4 0x4B1811D7 EQ PUSH2 0x59 JUMPI DUP1 PUSH4 0x7BC2E5AC EQ PUSH2 0x77 JUMPI DUP1 PUSH4 0xD39FA233 EQ PUSH2 0xA7 JUMPI DUP1 PUSH4 0xDC17BC5C EQ PUSH2 0xD7 JUMPI DUP1 PUSH4 0xFCE68023 EQ PUSH2 0xF3 JUMPI JUMPDEST PUSH0 PUSH0 REVERT JUMPDEST PUSH2 0x61 PUSH2 0x10F JUMP JUMPDEST PUSH1 0x40 MLOAD PUSH2 0x6E SWAP2 SWAP1 PUSH2 0x2F1 JUMP JUMPDEST PUSH1 0x40 MLOAD DUP1 SWAP2 SUB SWAP1 RETURN JUMPDEST PUSH2 0x91 PUSH1 0x4 DUP1 CALLDATASIZE SUB DUP2 ADD SWAP1 PUSH2 0x8C SWAP2 SWAP1 PUSH2 0x37A JUMP JUMPDEST PUSH2 0x169 JUMP JUMPDEST PUSH1 0x40 MLOAD PUSH2 0x9E SWAP2 SWAP1 PUSH2 0x3D4 JUMP JUMPDEST PUSH1 0x40 MLOAD DUP1 SWAP2 SUB SWAP1 RETURN JUMPDEST PUSH2 0xC1 PUSH1 0x4 DUP1 CALLDATASIZE SUB DUP2 ADD SWAP1 PUSH2 0xBC SWAP2 SWAP1 PUSH2 0x417 JUMP JUMPDEST PUSH2 0x1B5 JUMP JUMPDEST PUSH1 0x40 MLOAD PUSH2 0xCE SWAP2 SWAP1 PUSH2 0x3D4 JUMP JUMPDEST PUSH1 0x40 MLOAD DUP1 SWAP2 SUB SWAP1 RETURN JUMPDEST PUSH2 0xF1 PUSH1 0x4 DUP1 CALLDATASIZE SUB DUP2 ADD SWAP1 PUSH2 0xEC SWAP2 SWAP1 PUSH2 0x417 JUMP JUMPDEST PUSH2 0x1D4 JUMP JUMPDEST STOP JUMPDEST PUSH2 0x10D PUSH1 0x4 DUP1 CALLDATASIZE SUB DUP2 ADD SWAP1 PUSH2 0x108 SWAP2 SWAP1 PUSH2 0x417 JUMP JUMPDEST PUSH2 0x209 JUMP JUMPDEST STOP JUMPDEST PUSH1 0x60 PUSH0 PUSH0 DUP1 SLOAD DUP1 PUSH1 0x20 MUL PUSH1 0x20 ADD PUSH1 0x40 MLOAD SWAP1 DUP2 ADD PUSH1 0x40 MSTORE DUP1 SWAP3 SWAP2 SWAP1 DUP2 DUP2 MSTORE PUSH1 0x20 ADD DUP3 DUP1 SLOAD DUP1 ISZERO PUSH2 0x15B JUMPI PUSH1 0x20 MUL DUP3 ADD SWAP2 SWAP1 PUSH0 MSTORE PUSH1 0x20 PUSH0 KECCAK256 SWAP1 JUMPDEST DUP2 SLOAD DUP2 MSTORE PUSH1 0x20 ADD SWAP1 PUSH1 0x1 ADD SWAP1 DUP1 DUP4 GT PUSH2 0x147 JUMPI JUMPDEST POP POP POP POP POP SWAP1 POP DUP1 SWAP2 POP POP SWAP1 JUMP JUMPDEST PUSH0 PUSH0 PUSH0 SWAP1 POP JUMPDEST DUP4 DUP4 SWAP1 POP DUP2 LT ISZERO PUSH2 0x1AE JUMPI DUP4 DUP4 DUP3 DUP2 DUP2 LT PUSH2 0x18D JUMPI PUSH2 0x18C PUSH2 0x442 JUMP JUMPDEST JUMPDEST SWAP1 POP PUSH1 0x20 MUL ADD CALLDATALOAD DUP3 PUSH2 0x19F SWAP2 SWAP1 PUSH2 0x49C JUMP JUMPDEST SWAP2 POP DUP1 DUP1 PUSH1 0x1 ADD SWAP2 POP POP PUSH2 0x16F JUMP JUMPDEST POP SWAP3 SWAP2 POP POP JUMP JUMPDEST PUSH0 DUP2 DUP2 SLOAD DUP2 LT PUSH2 0x1C3 JUMPI PUSH0 DUP1 REVERT JUMPDEST SWAP1 PUSH0 MSTORE PUSH1 0x20 PUSH0 KECCAK256 ADD PUSH0 SWAP2 POP SWAP1 POP SLOAD DUP2 JUMP JUMPDEST PUSH0 PUSH0 SWAP1 POP PUSH0 DUP2 DUP1 SLOAD SWAP1 POP GT ISZERO PUSH2 0x205 JUMPI DUP2 DUP2 PUSH0 DUP2 SLOAD DUP2 LT PUSH2 0x1F8 JUMPI PUSH2 0x1F7 PUSH2 0x442 JUMP JUMPDEST JUMPDEST SWAP1 PUSH0 MSTORE PUSH1 0x20 PUSH0 KECCAK256 ADD DUP2 SWAP1 SSTORE POP JUMPDEST POP POP JUMP JUMPDEST PUSH0 DUP2 SWAP1 DUP1 PUSH1 0x1 DUP2 SLOAD ADD DUP1 DUP3 SSTORE DUP1 SWAP2 POP POP PUSH1 0x1 SWAP1 SUB SWAP1 PUSH0 MSTORE PUSH1 0x20 PUSH0 KECCAK256 ADD PUSH0 SWAP1 SWAP2 SWAP1 SWAP2 SWAP1 SWAP2 POP SSTORE POP JUMP JUMPDEST PUSH0 DUP2 MLOAD SWAP1 POP SWAP2 SWAP1 POP JUMP JUMPDEST PUSH0 DUP3 DUP3 MSTORE PUSH1 0x20 DUP3 ADD SWAP1 POP SWAP3 SWAP2 POP POP JUMP JUMPDEST PUSH0 DUP2 SWAP1 POP PUSH1 0x20 DUP3 ADD SWAP1 POP SWAP2 SWAP1 POP JUMP JUMPDEST PUSH0 DUP2 SWAP1 POP SWAP2 SWAP1 POP JUMP JUMPDEST PUSH2 0x26C DUP2 PUSH2 0x25A JUMP JUMPDEST DUP3 MSTORE POP POP JUMP JUMPDEST PUSH0 PUSH2 0x27D DUP4 DUP4 PUSH2 0x263 JUMP JUMPDEST PUSH1 0x20 DUP4 ADD SWAP1 POP SWAP3 SWAP2 POP POP JUMP JUMPDEST PUSH0 PUSH1 0x20 DUP3 ADD SWAP1 POP SWAP2 SWAP1 POP JUMP JUMPDEST PUSH0 PUSH2 0x29F DUP3 PUSH2 0x231 JUMP JUMPDEST PUSH2 0x2A9 DUP2 DUP6 PUSH2 0x23B JUMP JUMPDEST SWAP4 POP PUSH2 0x2B4 DUP4 PUSH2 0x24B JUMP JUMPDEST DUP1 PUSH0 JUMPDEST DUP4 DUP2 LT ISZERO PUSH2 0x2E4 JUMPI DUP2 MLOAD PUSH2 0x2CB DUP9 DUP3 PUSH2 0x272 JUMP JUMPDEST SWAP8 POP PUSH2 0x2D6 DUP4 PUSH2 0x289 JUMP JUMPDEST SWAP3 POP POP PUSH1 0x1 DUP2 ADD SWAP1 POP PUSH2 0x2B7 JUMP JUMPDEST POP DUP6 SWAP4 POP POP POP POP SWAP3 SWAP2 POP POP JUMP JUMPDEST PUSH0 PUSH1 0x20 DUP3 ADD SWAP1 POP DUP2 DUP2 SUB PUSH0 DUP4 ADD MSTORE PUSH2 0x309 DUP2 DUP5 PUSH2 0x295 JUMP JUMPDEST SWAP1 POP SWAP3 SWAP2 POP POP JUMP JUMPDEST PUSH0 PUSH0 REVERT JUMPDEST PUSH0 PUSH0 REVERT JUMPDEST PUSH0 PUSH0 REVERT JUMPDEST PUSH0 PUSH0 REVERT JUMPDEST PUSH0 PUSH0 REVERT JUMPDEST PUSH0 PUSH0 DUP4 PUSH1 0x1F DUP5 ADD SLT PUSH2 0x33A JUMPI PUSH2 0x339 PUSH2 0x319 JUMP JUMPDEST JUMPDEST DUP3 CALLDATALOAD SWAP1 POP PUSH8 0xFFFFFFFFFFFFFFFF DUP2 GT ISZERO PUSH2 0x357 JUMPI PUSH2 0x356 PUSH2 0x31D JUMP JUMPDEST JUMPDEST PUSH1 0x20 DUP4 ADD SWAP2 POP DUP4 PUSH1 0x20 DUP3 MUL DUP4 ADD GT ISZERO PUSH2 0x373 JUMPI PUSH2 0x372 PUSH2 0x321 JUMP JUMPDEST JUMPDEST SWAP3 POP SWAP3 SWAP1 POP JUMP JUMPDEST PUSH0 PUSH0 PUSH1 0x20 DUP4 DUP6 SUB SLT ISZERO PUSH2 0x390 JUMPI PUSH2 0x38F PUSH2 0x311 JUMP JUMPDEST JUMPDEST PUSH0 DUP4 ADD CALLDATALOAD PUSH8 0xFFFFFFFFFFFFFFFF DUP2 GT ISZERO PUSH2 0x3AD JUMPI PUSH2 0x3AC PUSH2 0x315 JUMP JUMPDEST JUMPDEST PUSH2 0x3B9 DUP6 DUP3 DUP7 ADD PUSH2 0x325 JUMP JUMPDEST SWAP3 POP SWAP3 POP POP SWAP3 POP SWAP3 SWAP1 POP JUMP JUMPDEST PUSH2 0x3CE DUP2 PUSH2 0x25A JUMP JUMPDEST DUP3 MSTORE POP POP JUMP JUMPDEST PUSH0 PUSH1 0x20 DUP3 ADD SWAP1 POP PUSH2 0x3E7 PUSH0 DUP4 ADD DUP5 PUSH2 0x3C5 JUMP JUMPDEST SWAP3 SWAP2 POP POP JUMP JUMPDEST PUSH2 0x3F6 DUP2 PUSH2 0x25A JUMP JUMPDEST DUP2 EQ PUSH2 0x400 JUMPI PUSH0 PUSH0 REVERT JUMPDEST POP JUMP JUMPDEST PUSH0 DUP2 CALLDATALOAD SWAP1 POP PUSH2 0x411 DUP2 PUSH2 0x3ED JUMP JUMPDEST SWAP3 SWAP2 POP POP JUMP JUMPDEST PUSH0 PUSH1 0x20 DUP3 DUP5 SUB SLT ISZERO PUSH2 0x42C JUMPI PUSH2 0x42B PUSH2 0x311 JUMP JUMPDEST JUMPDEST PUSH0 PUSH2 0x439 DUP5 DUP3 DUP6 ADD PUSH2 0x403 JUMP JUMPDEST SWAP2 POP POP SWAP3 SWAP2 POP POP JUMP JUMPDEST PUSH32 0x4E487B7100000000000000000000000000000000000000000000000000000000 PUSH0 MSTORE PUSH1 0x32 PUSH1 0x4 MSTORE PUSH1 0x24 PUSH0 REVERT JUMPDEST PUSH32 0x4E487B7100000000000000000000000000000000000000000000000000000000 PUSH0 MSTORE PUSH1 0x11 PUSH1 0x4 MSTORE PUSH1 0x24 PUSH0 REVERT JUMPDEST PUSH0 PUSH2 0x4A6 DUP3 PUSH2 0x25A JUMP JUMPDEST SWAP2 POP PUSH2 0x4B1 DUP4 PUSH2 0x25A JUMP JUMPDEST SWAP3 POP DUP3 DUP3 ADD SWAP1 POP DUP1 DUP3 GT ISZERO PUSH2 0x4C9 JUMPI PUSH2 0x4C8 PUSH2 0x46F JUMP JUMPDEST JUMPDEST SWAP3 SWAP2 POP POP JUMP INVALID LOG2 PUSH5 0x6970667358 0x22 SLT KECCAK256 PUSH28 0x666373021A513A5D760A793B47C3309CCC329F90CC3B90641AFDE7DE 0xE2 EOFCREATE 0xD6 PUSH5 0x736F6C6343 STOP ADDMOD 0x1E STOP CALLER "
				},
				"gasEstimates": {
					"creation": {
						"codeDepositCost": "257000",
						"executionCost": "298",
						"totalCost": "257298"
					},
					"external": {
						"addNumber(uint256)": "46886",
						"getNumbersMemory()": "infinite",
						"numbers(uint256)": "infinite",
						"sumCalldata(uint256[])": "infinite",
						"updateFirstNumber(uint256)": "26880"
					}
				},
				"methodIdentifiers": {
					"addNumber(uint256)": "fce68023",
					"getNumbersMemory()": "4b1811d7",
					"numbers(uint256)": "d39fa233",
					"sumCalldata(uint256[])": "7bc2e5ac",
					"updateFirstNumber(uint256)": "dc17bc5c"
				}
			},
			"storageLayout": {
				"storage": [
					{
						"astId": 4,
						"contract": "04_key_word.sol:KeyWord",
						"label": "numbers",
						"offset": 0,
						"slot": "0",
						"type": "t_array(t_uint256)dyn_storage"
					}
				],
				"types": {
					"t_array(t_uint256)dyn_storage": {
						"base": "t_uint256",
						"encoding": "dynamic_array",
						"label": "uint256[]",
						"numberOfBytes": "32"
					},
					"t_uint256": {
						"encoding": "inplace",
						"label": "uint256",
						"numberOfBytes": "32"
					}
				}
			},
			"userdoc": {
				"kind": "user",
				"methods": {},
				"version": 1
			}
		}
	}
}