{
	"07_struct_02.sol": {
		"StructDemo": {
			"abi": [
				{
					"inputs": [
						{
							"components": [
								{
									"internalType": "uint256",
									"name": "age",
									"type": "uint256"
								},
								{
									"internalType": "string",
									"name": "name",
									"type": "string"
								},
								{
									"components": [
										{
											"internalType": "string",
											"name": "label",
											"type": "string"
										},
										{
											"internalType": "string",
											"name": "value",
											"type": "string"
										}
									],
									"internalType": "struct StructDemo.Hobbie[]",
									"name": "hobbies",
									"type": "tuple[]"
								}
							],
							"internalType": "struct StructDemo.Person",
							"name": "p",
							"type": "tuple"
						}
					],
					"name": "addPerson",
					"outputs": [],
					"stateMutability": "nonpayable",
					"type": "function"
				},
				{
					"inputs": [
						{
							"internalType": "address",
							"name": "",
							"type": "address"
						}
					],
					"name": "personMap",
					"outputs": [
						{
							"internalType": "uint256",
							"name": "age",
							"type": "uint256"
						},
						{
							"internalType": "string",
							"name": "name",
							"type": "string"
						}
					],
					"stateMutability": "view",
					"type": "function"
				},
				{
					"inputs": [
						{
							"internalType": "uint256",
							"name": "",
							"type": "uint256"
						}
					],
					"name": "persons",
					"outputs": [
						{
							"internalType": "uint256",
							"name": "age",
							"type": "uint256"
						},
						{
							"internalType": "string",
							"name": "name",
							"type": "string"
						}
					],
					"stateMutability": "view",
					"type": "function"
				},
				{
					"inputs": [
						{
							"components": [
								{
									"internalType": "uint256",
									"name": "age",
									"type": "uint256"
								},
								{
									"internalType": "string",
									"name": "name",
									"type": "string"
								},
								{
									"components": [
										{
											"internalType": "string",
											"name": "label",
											"type": "string"
										},
										{
											"internalType": "string",
											"name": "value",
											"type": "string"
										}
									],
									"internalType": "struct StructDemo.Hobbie[]",
									"name": "hobbies",
									"type": "tuple[]"
								}
							],
							"internalType": "struct StructDemo.Person",
							"name": "p",
							"type": "tuple"
						},
						{
							"internalType": "address",
							"name": "addr",
							"type": "address"
						}
					],
					"name": "setPersonMap",
					"outputs": [],
					"stateMutability": "nonpayable",
					"type": "function"
				}
			],
			"devdoc": {
				"kind": "dev",
				"methods": {},
				"version": 1
			},
			"evm": {
				"assembly": "    /* \"07_struct_02.sol\":57:508  contract StructDemo {... */\n  mstore(0x40, 0x80)\n  callvalue\n  dup1\n  iszero\n  tag_1\n  jumpi\n  revert(0x00, 0x00)\ntag_1:\n  pop\n  dataSize(sub_0)\n  dup1\n  dataOffset(sub_0)\n  0x00\n  codecopy\n  0x00\n  return\nstop\n\nsub_0: assembly {\n        /* \"07_struct_02.sol\":57:508  contract StructDemo {... */\n      mstore(0x40, 0x80)\n      callvalue\n      dup1\n      iszero\n      tag_1\n      jumpi\n      revert(0x00, 0x00)\n    tag_1:\n      pop\n      jumpi(tag_2, lt(calldatasize, 0x04))\n      shr(0xe0, calldataload(0x00))\n      dup1\n      0x5030e370\n      eq\n      tag_3\n      jumpi\n      dup1\n      0xa2f9eac6\n      eq\n      tag_4\n      jumpi\n      dup1\n      0xc52e8465\n      eq\n      tag_5\n      jumpi\n      dup1\n      0xed3ac0de\n      eq\n      tag_6\n      jumpi\n    tag_2:\n      revert(0x00, 0x00)\n        /* \"07_struct_02.sol\":326:403  function addPerson(Person calldata p) public {... */\n    tag_3:\n      tag_7\n      0x04\n      dup1\n      calldatasize\n      sub\n      dup2\n      add\n      swap1\n      tag_8\n      swap2\n      swap1\n      tag_9\n      jump\t// in\n    tag_8:\n      tag_10\n      jump\t// in\n    tag_7:\n      stop\n        /* \"07_struct_02.sol\":246:269  Person[] public persons */\n    tag_4:\n      tag_11\n      0x04\n      dup1\n      calldatasize\n      sub\n      dup2\n      add\n      swap1\n      tag_12\n      swap2\n      swap1\n      tag_13\n      jump\t// in\n    tag_12:\n      tag_14\n      jump\t// in\n    tag_11:\n      mload(0x40)\n      tag_15\n      swap3\n      swap2\n      swap1\n      tag_16\n      jump\t// in\n    tag_15:\n      mload(0x40)\n      dup1\n      swap2\n      sub\n      swap1\n      return\n        /* \"07_struct_02.sol\":408:506  function setPersonMap(Person calldata p, address addr) public {... */\n    tag_5:\n      tag_17\n      0x04\n      dup1\n      calldatasize\n      sub\n      dup2\n      add\n      swap1\n      tag_18\n      swap2\n      swap1\n      tag_19\n      jump\t// in\n    tag_18:\n      tag_20\n      jump\t// in\n    tag_17:\n      stop\n        /* \"07_struct_02.sol\":276:319  mapping(address => Person) public personMap */\n    tag_6:\n      tag_21\n      0x04\n      dup1\n      calldatasize\n      sub\n      dup2\n      add\n      swap1\n      tag_22\n      swap2\n      swap1\n      tag_23\n      jump\t// in\n    tag_22:\n      tag_24\n      jump\t// in\n    tag_21:\n      mload(0x40)\n      tag_25\n      swap3\n      swap2\n      swap1\n      tag_16\n      jump\t// in\n    tag_25:\n      mload(0x40)\n      dup1\n      swap2\n      sub\n      swap1\n      return\n        /* \"07_struct_02.sol\":326:403  function addPerson(Person calldata p) public {... */\n    tag_10:\n        /* \"07_struct_02.sol\":381:388  persons */\n      0x00\n        /* \"07_struct_02.sol\":394:395  p */\n      dup2\n        /* \"07_struct_02.sol\":381:396  persons.push(p) */\n      swap1\n      dup1\n      0x01\n      dup2\n      sload\n      add\n      dup1\n      dup3\n      sstore\n      dup1\n      swap2\n      pop\n      pop\n      0x01\n      swap1\n      sub\n      swap1\n      0x00\n      mstore\n      keccak256(0x00, 0x20)\n      swap1\n      0x03\n      mul\n      add\n      0x00\n      swap1\n      swap2\n      swap1\n      swap2\n      swap1\n      swap2\n      pop\n      dup2\n      dup2\n      tag_28\n      swap2\n      swap1\n      tag_29\n      jump\t// in\n    tag_28:\n      pop\n      pop\n        /* \"07_struct_02.sol\":326:403  function addPerson(Person calldata p) public {... */\n      pop\n      jump\t// out\n        /* \"07_struct_02.sol\":246:269  Person[] public persons */\n    tag_14:\n      0x00\n      dup2\n      dup2\n      sload\n      dup2\n      lt\n      tag_30\n      jumpi\n      0x00\n      dup1\n      revert\n    tag_30:\n      swap1\n      0x00\n      mstore\n      keccak256(0x00, 0x20)\n      swap1\n      0x03\n      mul\n      add\n      0x00\n      swap2\n      pop\n      swap1\n      pop\n      dup1\n      0x00\n      add\n      sload\n      swap1\n      dup1\n      0x01\n      add\n      dup1\n      sload\n      tag_32\n      swap1\n      tag_33\n      jump\t// in\n    tag_32:\n      dup1\n      0x1f\n      add\n      0x20\n      dup1\n      swap2\n      div\n      mul\n      0x20\n      add\n      mload(0x40)\n      swap1\n      dup2\n      add\n      0x40\n      mstore\n      dup1\n      swap3\n      swap2\n      swap1\n      dup2\n      dup2\n      mstore\n      0x20\n      add\n      dup3\n      dup1\n      sload\n      tag_34\n      swap1\n      tag_33\n      jump\t// in\n    tag_34:\n      dup1\n      iszero\n      tag_35\n      jumpi\n      dup1\n      0x1f\n      lt\n      tag_36\n      jumpi\n      0x0100\n      dup1\n      dup4\n      sload\n      div\n      mul\n      dup4\n      mstore\n      swap2\n      0x20\n      add\n      swap2\n      jump(tag_35)\n    tag_36:\n      dup3\n      add\n      swap2\n      swap1\n      0x00\n      mstore\n      keccak256(0x00, 0x20)\n      swap1\n    tag_37:\n      dup2\n      sload\n      dup2\n      mstore\n      swap1\n      0x01\n      add\n      swap1\n      0x20\n      add\n      dup1\n      dup4\n      gt\n      tag_37\n      jumpi\n      dup3\n      swap1\n      sub\n      0x1f\n      and\n      dup3\n      add\n      swap2\n    tag_35:\n      pop\n      pop\n      pop\n      pop\n      pop\n      swap1\n      pop\n      dup3\n      jump\t// out\n        /* \"07_struct_02.sol\":408:506  function setPersonMap(Person calldata p, address addr) public {... */\n    tag_20:\n        /* \"07_struct_02.sol\":498:499  p */\n      dup2\n        /* \"07_struct_02.sol\":480:489  personMap */\n      0x01\n        /* \"07_struct_02.sol\":480:495  personMap[addr] */\n      0x00\n        /* \"07_struct_02.sol\":490:494  addr */\n      dup4\n        /* \"07_struct_02.sol\":480:495  personMap[addr] */\n      0xffffffffffffffffffffffffffffffffffffffff\n      and\n      0xffffffffffffffffffffffffffffffffffffffff\n      and\n      dup2\n      mstore\n      0x20\n      add\n      swap1\n      dup2\n      mstore\n      0x20\n      add\n      0x00\n      keccak256\n        /* \"07_struct_02.sol\":480:499  personMap[addr] = p */\n      dup2\n      dup2\n      tag_39\n      swap2\n      swap1\n      tag_29\n      jump\t// in\n    tag_39:\n      swap1\n      pop\n      pop\n        /* \"07_struct_02.sol\":408:506  function setPersonMap(Person calldata p, address addr) public {... */\n      pop\n      pop\n      jump\t// out\n        /* \"07_struct_02.sol\":276:319  mapping(address => Person) public personMap */\n    tag_24:\n      mstore(0x20, 0x01)\n      dup1\n      0x00\n      mstore\n      keccak256(0x00, 0x40)\n      0x00\n      swap2\n      pop\n      swap1\n      pop\n      dup1\n      0x00\n      add\n      sload\n      swap1\n      dup1\n      0x01\n      add\n      dup1\n      sload\n      tag_40\n      swap1\n      tag_33\n      jump\t// in\n    tag_40:\n      dup1\n      0x1f\n      add\n      0x20\n      dup1\n      swap2\n      div\n      mul\n      0x20\n      add\n      mload(0x40)\n      swap1\n      dup2\n      add\n      0x40\n      mstore\n      dup1\n      swap3\n      swap2\n      swap1\n      dup2\n      dup2\n      mstore\n      0x20\n      add\n      dup3\n      dup1\n      sload\n      tag_41\n      swap1\n      tag_33\n      jump\t// in\n    tag_41:\n      dup1\n      iszero\n      tag_42\n      jumpi\n      dup1\n      0x1f\n      lt\n      tag_43\n      jumpi\n      0x0100\n      dup1\n      dup4\n      sload\n      div\n      mul\n      dup4\n      mstore\n      swap2\n      0x20\n      add\n      swap2\n      jump(tag_42)\n    tag_43:\n      dup3\n      add\n      swap2\n      swap1\n      0x00\n      mstore\n      keccak256(0x00, 0x20)\n      swap1\n    tag_44:\n      dup2\n      sload\n      dup2\n      mstore\n      swap1\n      0x01\n      add\n      swap1\n      0x20\n      add\n      dup1\n      dup4\n      gt\n      tag_44\n      jumpi\n      dup3\n      swap1\n      sub\n      0x1f\n      and\n      dup3\n      add\n      swap2\n    tag_42:\n      pop\n      pop\n      pop\n      pop\n      pop\n      swap1\n      pop\n      dup3\n      jump\t// out\n        /* \"#utility.yul\":88:205   */\n    tag_46:\n        /* \"#utility.yul\":197:198   */\n      0x00\n        /* \"#utility.yul\":194:195   */\n      0x00\n        /* \"#utility.yul\":187:199   */\n      revert\n        /* \"#utility.yul\":211:328   */\n    tag_47:\n        /* \"#utility.yul\":320:321   */\n      0x00\n        /* \"#utility.yul\":317:318   */\n      0x00\n        /* \"#utility.yul\":310:322   */\n      revert\n        /* \"#utility.yul\":334:451   */\n    tag_48:\n        /* \"#utility.yul\":443:444   */\n      0x00\n        /* \"#utility.yul\":440:441   */\n      0x00\n        /* \"#utility.yul\":433:445   */\n      revert\n        /* \"#utility.yul\":489:717   */\n    tag_49:\n        /* \"#utility.yul\":559:564   */\n      0x00\n        /* \"#utility.yul\":600:602   */\n      0x60\n        /* \"#utility.yul\":591:597   */\n      dup3\n        /* \"#utility.yul\":586:589   */\n      dup5\n        /* \"#utility.yul\":582:598   */\n      sub\n        /* \"#utility.yul\":578:603   */\n      slt\n        /* \"#utility.yul\":575:687   */\n      iszero\n      tag_126\n      jumpi\n        /* \"#utility.yul\":606:685   */\n      tag_127\n      tag_48\n      jump\t// in\n    tag_127:\n        /* \"#utility.yul\":575:687   */\n    tag_126:\n        /* \"#utility.yul\":705:711   */\n      dup2\n        /* \"#utility.yul\":696:711   */\n      swap1\n      pop\n        /* \"#utility.yul\":489:717   */\n      swap3\n      swap2\n      pop\n      pop\n      jump\t// out\n        /* \"#utility.yul\":723:1260   */\n    tag_9:\n        /* \"#utility.yul\":806:812   */\n      0x00\n        /* \"#utility.yul\":855:857   */\n      0x20\n        /* \"#utility.yul\":843:852   */\n      dup3\n        /* \"#utility.yul\":834:841   */\n      dup5\n        /* \"#utility.yul\":830:853   */\n      sub\n        /* \"#utility.yul\":826:858   */\n      slt\n        /* \"#utility.yul\":823:942   */\n      iszero\n      tag_129\n      jumpi\n        /* \"#utility.yul\":861:940   */\n      tag_130\n      tag_46\n      jump\t// in\n    tag_130:\n        /* \"#utility.yul\":823:942   */\n    tag_129:\n        /* \"#utility.yul\":1009:1010   */\n      0x00\n        /* \"#utility.yul\":998:1007   */\n      dup3\n        /* \"#utility.yul\":994:1011   */\n      add\n        /* \"#utility.yul\":981:1012   */\n      calldataload\n        /* \"#utility.yul\":1039:1057   */\n      0xffffffffffffffff\n        /* \"#utility.yul\":1031:1037   */\n      dup2\n        /* \"#utility.yul\":1028:1058   */\n      gt\n        /* \"#utility.yul\":1025:1142   */\n      iszero\n      tag_131\n      jumpi\n        /* \"#utility.yul\":1061:1140   */\n      tag_132\n      tag_47\n      jump\t// in\n    tag_132:\n        /* \"#utility.yul\":1025:1142   */\n    tag_131:\n        /* \"#utility.yul\":1166:1243   */\n      tag_133\n        /* \"#utility.yul\":1235:1242   */\n      dup5\n        /* \"#utility.yul\":1226:1232   */\n      dup3\n        /* \"#utility.yul\":1215:1224   */\n      dup6\n        /* \"#utility.yul\":1211:1233   */\n      add\n        /* \"#utility.yul\":1166:1243   */\n      tag_49\n      jump\t// in\n    tag_133:\n        /* \"#utility.yul\":1156:1243   */\n      swap2\n      pop\n        /* \"#utility.yul\":952:1253   */\n      pop\n        /* \"#utility.yul\":723:1260   */\n      swap3\n      swap2\n      pop\n      pop\n      jump\t// out\n        /* \"#utility.yul\":1266:1343   */\n    tag_50:\n        /* \"#utility.yul\":1303:1310   */\n      0x00\n        /* \"#utility.yul\":1332:1337   */\n      dup2\n        /* \"#utility.yul\":1321:1337   */\n      swap1\n      pop\n        /* \"#utility.yul\":1266:1343   */\n      swap2\n      swap1\n      pop\n      jump\t// out\n        /* \"#utility.yul\":1349:1471   */\n    tag_51:\n        /* \"#utility.yul\":1422:1446   */\n      tag_136\n        /* \"#utility.yul\":1440:1445   */\n      dup2\n        /* \"#utility.yul\":1422:1446   */\n      tag_50\n      jump\t// in\n    tag_136:\n        /* \"#utility.yul\":1415:1420   */\n      dup2\n        /* \"#utility.yul\":1412:1447   */\n      eq\n        /* \"#utility.yul\":1402:1465   */\n      tag_137\n      jumpi\n        /* \"#utility.yul\":1461:1462   */\n      0x00\n        /* \"#utility.yul\":1458:1459   */\n      0x00\n        /* \"#utility.yul\":1451:1463   */\n      revert\n        /* \"#utility.yul\":1402:1465   */\n    tag_137:\n        /* \"#utility.yul\":1349:1471   */\n      pop\n      jump\t// out\n        /* \"#utility.yul\":1477:1616   */\n    tag_52:\n        /* \"#utility.yul\":1523:1528   */\n      0x00\n        /* \"#utility.yul\":1561:1567   */\n      dup2\n        /* \"#utility.yul\":1548:1568   */\n      calldataload\n        /* \"#utility.yul\":1539:1568   */\n      swap1\n      pop\n        /* \"#utility.yul\":1577:1610   */\n      tag_139\n        /* \"#utility.yul\":1604:1609   */\n      dup2\n        /* \"#utility.yul\":1577:1610   */\n      tag_51\n      jump\t// in\n    tag_139:\n        /* \"#utility.yul\":1477:1616   */\n      swap3\n      swap2\n      pop\n      pop\n      jump\t// out\n        /* \"#utility.yul\":1622:1951   */\n    tag_13:\n        /* \"#utility.yul\":1681:1687   */\n      0x00\n        /* \"#utility.yul\":1730:1732   */\n      0x20\n        /* \"#utility.yul\":1718:1727   */\n      dup3\n        /* \"#utility.yul\":1709:1716   */\n      dup5\n        /* \"#utility.yul\":1705:1728   */\n      sub\n        /* \"#utility.yul\":1701:1733   */\n      slt\n        /* \"#utility.yul\":1698:1817   */\n      iszero\n      tag_141\n      jumpi\n        /* \"#utility.yul\":1736:1815   */\n      tag_142\n      tag_46\n      jump\t// in\n    tag_142:\n        /* \"#utility.yul\":1698:1817   */\n    tag_141:\n        /* \"#utility.yul\":1856:1857   */\n      0x00\n        /* \"#utility.yul\":1881:1934   */\n      tag_143\n        /* \"#utility.yul\":1926:1933   */\n      dup5\n        /* \"#utility.yul\":1917:1923   */\n      dup3\n        /* \"#utility.yul\":1906:1915   */\n      dup6\n        /* \"#utility.yul\":1902:1924   */\n      add\n        /* \"#utility.yul\":1881:1934   */\n      tag_52\n      jump\t// in\n    tag_143:\n        /* \"#utility.yul\":1871:1934   */\n      swap2\n      pop\n        /* \"#utility.yul\":1827:1944   */\n      pop\n        /* \"#utility.yul\":1622:1951   */\n      swap3\n      swap2\n      pop\n      pop\n      jump\t// out\n        /* \"#utility.yul\":1957:2075   */\n    tag_53:\n        /* \"#utility.yul\":2044:2068   */\n      tag_145\n        /* \"#utility.yul\":2062:2067   */\n      dup2\n        /* \"#utility.yul\":2044:2068   */\n      tag_50\n      jump\t// in\n    tag_145:\n        /* \"#utility.yul\":2039:2042   */\n      dup3\n        /* \"#utility.yul\":2032:2069   */\n      mstore\n        /* \"#utility.yul\":1957:2075   */\n      pop\n      pop\n      jump\t// out\n        /* \"#utility.yul\":2081:2180   */\n    tag_54:\n        /* \"#utility.yul\":2133:2139   */\n      0x00\n        /* \"#utility.yul\":2167:2172   */\n      dup2\n        /* \"#utility.yul\":2161:2173   */\n      mload\n        /* \"#utility.yul\":2151:2173   */\n      swap1\n      pop\n        /* \"#utility.yul\":2081:2180   */\n      swap2\n      swap1\n      pop\n      jump\t// out\n        /* \"#utility.yul\":2186:2355   */\n    tag_55:\n        /* \"#utility.yul\":2270:2281   */\n      0x00\n        /* \"#utility.yul\":2304:2310   */\n      dup3\n        /* \"#utility.yul\":2299:2302   */\n      dup3\n        /* \"#utility.yul\":2292:2311   */\n      mstore\n        /* \"#utility.yul\":2344:2348   */\n      0x20\n        /* \"#utility.yul\":2339:2342   */\n      dup3\n        /* \"#utility.yul\":2335:2349   */\n      add\n        /* \"#utility.yul\":2320:2349   */\n      swap1\n      pop\n        /* \"#utility.yul\":2186:2355   */\n      swap3\n      swap2\n      pop\n      pop\n      jump\t// out\n        /* \"#utility.yul\":2361:2500   */\n    tag_56:\n        /* \"#utility.yul\":2450:2456   */\n      dup3\n        /* \"#utility.yul\":2445:2448   */\n      dup2\n        /* \"#utility.yul\":2440:2443   */\n      dup4\n        /* \"#utility.yul\":2434:2457   */\n      mcopy\n        /* \"#utility.yul\":2491:2492   */\n      0x00\n        /* \"#utility.yul\":2482:2488   */\n      dup4\n        /* \"#utility.yul\":2477:2480   */\n      dup4\n        /* \"#utility.yul\":2473:2489   */\n      add\n        /* \"#utility.yul\":2466:2493   */\n      mstore\n        /* \"#utility.yul\":2361:2500   */\n      pop\n      pop\n      pop\n      jump\t// out\n        /* \"#utility.yul\":2506:2608   */\n    tag_57:\n        /* \"#utility.yul\":2547:2553   */\n      0x00\n        /* \"#utility.yul\":2598:2600   */\n      0x1f\n        /* \"#utility.yul\":2594:2601   */\n      not\n        /* \"#utility.yul\":2589:2591   */\n      0x1f\n        /* \"#utility.yul\":2582:2587   */\n      dup4\n        /* \"#utility.yul\":2578:2592   */\n      add\n        /* \"#utility.yul\":2574:2602   */\n      and\n        /* \"#utility.yul\":2564:2602   */\n      swap1\n      pop\n        /* \"#utility.yul\":2506:2608   */\n      swap2\n      swap1\n      pop\n      jump\t// out\n        /* \"#utility.yul\":2614:2991   */\n    tag_58:\n        /* \"#utility.yul\":2702:2705   */\n      0x00\n        /* \"#utility.yul\":2730:2769   */\n      tag_151\n        /* \"#utility.yul\":2763:2768   */\n      dup3\n        /* \"#utility.yul\":2730:2769   */\n      tag_54\n      jump\t// in\n    tag_151:\n        /* \"#utility.yul\":2785:2856   */\n      tag_152\n        /* \"#utility.yul\":2849:2855   */\n      dup2\n        /* \"#utility.yul\":2844:2847   */\n      dup6\n        /* \"#utility.yul\":2785:2856   */\n      tag_55\n      jump\t// in\n    tag_152:\n        /* \"#utility.yul\":2778:2856   */\n      swap4\n      pop\n        /* \"#utility.yul\":2865:2930   */\n      tag_153\n        /* \"#utility.yul\":2923:2929   */\n      dup2\n        /* \"#utility.yul\":2918:2921   */\n      dup6\n        /* \"#utility.yul\":2911:2915   */\n      0x20\n        /* \"#utility.yul\":2904:2909   */\n      dup7\n        /* \"#utility.yul\":2900:2916   */\n      add\n        /* \"#utility.yul\":2865:2930   */\n      tag_56\n      jump\t// in\n    tag_153:\n        /* \"#utility.yul\":2955:2984   */\n      tag_154\n        /* \"#utility.yul\":2977:2983   */\n      dup2\n        /* \"#utility.yul\":2955:2984   */\n      tag_57\n      jump\t// in\n    tag_154:\n        /* \"#utility.yul\":2950:2953   */\n      dup5\n        /* \"#utility.yul\":2946:2985   */\n      add\n        /* \"#utility.yul\":2939:2985   */\n      swap2\n      pop\n        /* \"#utility.yul\":2706:2991   */\n      pop\n        /* \"#utility.yul\":2614:2991   */\n      swap3\n      swap2\n      pop\n      pop\n      jump\t// out\n        /* \"#utility.yul\":2997:3420   */\n    tag_16:\n        /* \"#utility.yul\":3138:3142   */\n      0x00\n        /* \"#utility.yul\":3176:3178   */\n      0x40\n        /* \"#utility.yul\":3165:3174   */\n      dup3\n        /* \"#utility.yul\":3161:3179   */\n      add\n        /* \"#utility.yul\":3153:3179   */\n      swap1\n      pop\n        /* \"#utility.yul\":3189:3260   */\n      tag_156\n        /* \"#utility.yul\":3257:3258   */\n      0x00\n        /* \"#utility.yul\":3246:3255   */\n      dup4\n        /* \"#utility.yul\":3242:3259   */\n      add\n        /* \"#utility.yul\":3233:3239   */\n      dup6\n        /* \"#utility.yul\":3189:3260   */\n      tag_53\n      jump\t// in\n    tag_156:\n        /* \"#utility.yul\":3307:3316   */\n      dup2\n        /* \"#utility.yul\":3301:3305   */\n      dup2\n        /* \"#utility.yul\":3297:3317   */\n      sub\n        /* \"#utility.yul\":3292:3294   */\n      0x20\n        /* \"#utility.yul\":3281:3290   */\n      dup4\n        /* \"#utility.yul\":3277:3295   */\n      add\n        /* \"#utility.yul\":3270:3318   */\n      mstore\n        /* \"#utility.yul\":3335:3413   */\n      tag_157\n        /* \"#utility.yul\":3408:3412   */\n      dup2\n        /* \"#utility.yul\":3399:3405   */\n      dup5\n        /* \"#utility.yul\":3335:3413   */\n      tag_58\n      jump\t// in\n    tag_157:\n        /* \"#utility.yul\":3327:3413   */\n      swap1\n      pop\n        /* \"#utility.yul\":2997:3420   */\n      swap4\n      swap3\n      pop\n      pop\n      pop\n      jump\t// out\n        /* \"#utility.yul\":3426:3552   */\n    tag_59:\n        /* \"#utility.yul\":3463:3470   */\n      0x00\n        /* \"#utility.yul\":3503:3545   */\n      0xffffffffffffffffffffffffffffffffffffffff\n        /* \"#utility.yul\":3496:3501   */\n      dup3\n        /* \"#utility.yul\":3492:3546   */\n      and\n        /* \"#utility.yul\":3481:3546   */\n      swap1\n      pop\n        /* \"#utility.yul\":3426:3552   */\n      swap2\n      swap1\n      pop\n      jump\t// out\n        /* \"#utility.yul\":3558:3654   */\n    tag_60:\n        /* \"#utility.yul\":3595:3602   */\n      0x00\n        /* \"#utility.yul\":3624:3648   */\n      tag_160\n        /* \"#utility.yul\":3642:3647   */\n      dup3\n        /* \"#utility.yul\":3624:3648   */\n      tag_59\n      jump\t// in\n    tag_160:\n        /* \"#utility.yul\":3613:3648   */\n      swap1\n      pop\n        /* \"#utility.yul\":3558:3654   */\n      swap2\n      swap1\n      pop\n      jump\t// out\n        /* \"#utility.yul\":3660:3782   */\n    tag_61:\n        /* \"#utility.yul\":3733:3757   */\n      tag_162\n        /* \"#utility.yul\":3751:3756   */\n      dup2\n        /* \"#utility.yul\":3733:3757   */\n      tag_60\n      jump\t// in\n    tag_162:\n        /* \"#utility.yul\":3726:3731   */\n      dup2\n        /* \"#utility.yul\":3723:3758   */\n      eq\n        /* \"#utility.yul\":3713:3776   */\n      tag_163\n      jumpi\n        /* \"#utility.yul\":3772:3773   */\n      0x00\n        /* \"#utility.yul\":3769:3770   */\n      0x00\n        /* \"#utility.yul\":3762:3774   */\n      revert\n        /* \"#utility.yul\":3713:3776   */\n    tag_163:\n        /* \"#utility.yul\":3660:3782   */\n      pop\n      jump\t// out\n        /* \"#utility.yul\":3788:3927   */\n    tag_62:\n        /* \"#utility.yul\":3834:3839   */\n      0x00\n        /* \"#utility.yul\":3872:3878   */\n      dup2\n        /* \"#utility.yul\":3859:3879   */\n      calldataload\n        /* \"#utility.yul\":3850:3879   */\n      swap1\n      pop\n        /* \"#utility.yul\":3888:3921   */\n      tag_165\n        /* \"#utility.yul\":3915:3920   */\n      dup2\n        /* \"#utility.yul\":3888:3921   */\n      tag_61\n      jump\t// in\n    tag_165:\n        /* \"#utility.yul\":3788:3927   */\n      swap3\n      swap2\n      pop\n      pop\n      jump\t// out\n        /* \"#utility.yul\":3933:4615   */\n    tag_19:\n        /* \"#utility.yul\":4025:4031   */\n      0x00\n        /* \"#utility.yul\":4033:4039   */\n      0x00\n        /* \"#utility.yul\":4082:4084   */\n      0x40\n        /* \"#utility.yul\":4070:4079   */\n      dup4\n        /* \"#utility.yul\":4061:4068   */\n      dup6\n        /* \"#utility.yul\":4057:4080   */\n      sub\n        /* \"#utility.yul\":4053:4085   */\n      slt\n        /* \"#utility.yul\":4050:4169   */\n      iszero\n      tag_167\n      jumpi\n        /* \"#utility.yul\":4088:4167   */\n      tag_168\n      tag_46\n      jump\t// in\n    tag_168:\n        /* \"#utility.yul\":4050:4169   */\n    tag_167:\n        /* \"#utility.yul\":4236:4237   */\n      0x00\n        /* \"#utility.yul\":4225:4234   */\n      dup4\n        /* \"#utility.yul\":4221:4238   */\n      add\n        /* \"#utility.yul\":4208:4239   */\n      calldataload\n        /* \"#utility.yul\":4266:4284   */\n      0xffffffffffffffff\n        /* \"#utility.yul\":4258:4264   */\n      dup2\n        /* \"#utility.yul\":4255:4285   */\n      gt\n        /* \"#utility.yul\":4252:4369   */\n      iszero\n      tag_169\n      jumpi\n        /* \"#utility.yul\":4288:4367   */\n      tag_170\n      tag_47\n      jump\t// in\n    tag_170:\n        /* \"#utility.yul\":4252:4369   */\n    tag_169:\n        /* \"#utility.yul\":4393:4470   */\n      tag_171\n        /* \"#utility.yul\":4462:4469   */\n      dup6\n        /* \"#utility.yul\":4453:4459   */\n      dup3\n        /* \"#utility.yul\":4442:4451   */\n      dup7\n        /* \"#utility.yul\":4438:4460   */\n      add\n        /* \"#utility.yul\":4393:4470   */\n      tag_49\n      jump\t// in\n    tag_171:\n        /* \"#utility.yul\":4383:4470   */\n      swap3\n      pop\n        /* \"#utility.yul\":4179:4480   */\n      pop\n        /* \"#utility.yul\":4519:4521   */\n      0x20\n        /* \"#utility.yul\":4545:4598   */\n      tag_172\n        /* \"#utility.yul\":4590:4597   */\n      dup6\n        /* \"#utility.yul\":4581:4587   */\n      dup3\n        /* \"#utility.yul\":4570:4579   */\n      dup7\n        /* \"#utility.yul\":4566:4588   */\n      add\n        /* \"#utility.yul\":4545:4598   */\n      tag_62\n      jump\t// in\n    tag_172:\n        /* \"#utility.yul\":4535:4598   */\n      swap2\n      pop\n        /* \"#utility.yul\":4490:4608   */\n      pop\n        /* \"#utility.yul\":3933:4615   */\n      swap3\n      pop\n      swap3\n      swap1\n      pop\n      jump\t// out\n        /* \"#utility.yul\":4621:4950   */\n    tag_23:\n        /* \"#utility.yul\":4680:4686   */\n      0x00\n        /* \"#utility.yul\":4729:4731   */\n      0x20\n        /* \"#utility.yul\":4717:4726   */\n      dup3\n        /* \"#utility.yul\":4708:4715   */\n      dup5\n        /* \"#utility.yul\":4704:4727   */\n      sub\n        /* \"#utility.yul\":4700:4732   */\n      slt\n        /* \"#utility.yul\":4697:4816   */\n      iszero\n      tag_174\n      jumpi\n        /* \"#utility.yul\":4735:4814   */\n      tag_175\n      tag_46\n      jump\t// in\n    tag_175:\n        /* \"#utility.yul\":4697:4816   */\n    tag_174:\n        /* \"#utility.yul\":4855:4856   */\n      0x00\n        /* \"#utility.yul\":4880:4933   */\n      tag_176\n        /* \"#utility.yul\":4925:4932   */\n      dup5\n        /* \"#utility.yul\":4916:4922   */\n      dup3\n        /* \"#utility.yul\":4905:4914   */\n      dup6\n        /* \"#utility.yul\":4901:4923   */\n      add\n        /* \"#utility.yul\":4880:4933   */\n      tag_62\n      jump\t// in\n    tag_176:\n        /* \"#utility.yul\":4870:4933   */\n      swap2\n      pop\n        /* \"#utility.yul\":4826:4943   */\n      pop\n        /* \"#utility.yul\":4621:4950   */\n      swap3\n      swap2\n      pop\n      pop\n      jump\t// out\n        /* \"#utility.yul\":4956:5136   */\n    tag_63:\n        /* \"#utility.yul\":5004:5081   */\n      0x4e487b7100000000000000000000000000000000000000000000000000000000\n        /* \"#utility.yul\":5001:5002   */\n      0x00\n        /* \"#utility.yul\":4994:5082   */\n      mstore\n        /* \"#utility.yul\":5101:5105   */\n      0x00\n        /* \"#utility.yul\":5098:5099   */\n      0x04\n        /* \"#utility.yul\":5091:5106   */\n      mstore\n        /* \"#utility.yul\":5125:5129   */\n      0x24\n        /* \"#utility.yul\":5122:5123   */\n      0x00\n        /* \"#utility.yul\":5115:5130   */\n      revert\n        /* \"#utility.yul\":5142:5328   */\n    tag_64:\n        /* \"#utility.yul\":5187:5198   */\n      0x00\n        /* \"#utility.yul\":5236:5239   */\n      dup2\n        /* \"#utility.yul\":5223:5240   */\n      calldataload\n        /* \"#utility.yul\":5249:5282   */\n      tag_179\n        /* \"#utility.yul\":5276:5281   */\n      dup2\n        /* \"#utility.yul\":5249:5282   */\n      tag_51\n      jump\t// in\n    tag_179:\n        /* \"#utility.yul\":5316:5321   */\n      dup1\n        /* \"#utility.yul\":5292:5321   */\n      swap2\n      pop\n        /* \"#utility.yul\":5199:5328   */\n      pop\n        /* \"#utility.yul\":5142:5328   */\n      swap2\n      swap1\n      pop\n      jump\t// out\n        /* \"#utility.yul\":5334:5426   */\n    tag_65:\n        /* \"#utility.yul\":5366:5374   */\n      0x00\n        /* \"#utility.yul\":5413:5418   */\n      dup2\n        /* \"#utility.yul\":5410:5411   */\n      0x00\n        /* \"#utility.yul\":5406:5419   */\n      shl\n        /* \"#utility.yul\":5385:5419   */\n      swap1\n      pop\n        /* \"#utility.yul\":5334:5426   */\n      swap2\n      swap1\n      pop\n      jump\t// out\n        /* \"#utility.yul\":5432:5722   */\n    tag_66:\n        /* \"#utility.yul\":5490:5496   */\n      0x00\n        /* \"#utility.yul\":5519:5585   */\n      0xffffffffffffffffffffffffffffffffffffffffffffffffffffffffffffffff\n        /* \"#utility.yul\":5606:5628   */\n      tag_182\n        /* \"#utility.yul\":5619:5627   */\n      dup5\n        /* \"#utility.yul\":5606:5628   */\n      tag_65\n      jump\t// in\n    tag_182:\n        /* \"#utility.yul\":5594:5628   */\n      swap4\n      pop\n        /* \"#utility.yul\":5661:5665   */\n      dup1\n        /* \"#utility.yul\":5657:5666   */\n      not\n        /* \"#utility.yul\":5650:5655   */\n      dup4\n        /* \"#utility.yul\":5646:5667   */\n      and\n        /* \"#utility.yul\":5637:5667   */\n      swap3\n      pop\n        /* \"#utility.yul\":5710:5714   */\n      dup1\n        /* \"#utility.yul\":5700:5708   */\n      dup5\n        /* \"#utility.yul\":5696:5715   */\n      and\n        /* \"#utility.yul\":5689:5694   */\n      dup4\n        /* \"#utility.yul\":5686:5716   */\n      or\n        /* \"#utility.yul\":5676:5716   */\n      swap2\n      pop\n        /* \"#utility.yul\":5497:5722   */\n      pop\n        /* \"#utility.yul\":5432:5722   */\n      swap3\n      swap2\n      pop\n      pop\n      jump\t// out\n        /* \"#utility.yul\":5728:5788   */\n    tag_67:\n        /* \"#utility.yul\":5756:5759   */\n      0x00\n        /* \"#utility.yul\":5777:5782   */\n      dup2\n        /* \"#utility.yul\":5770:5782   */\n      swap1\n      pop\n        /* \"#utility.yul\":5728:5788   */\n      swap2\n      swap1\n      pop\n      jump\t// out\n        /* \"#utility.yul\":5794:5936   */\n    tag_68:\n        /* \"#utility.yul\":5844:5853   */\n      0x00\n        /* \"#utility.yul\":5877:5930   */\n      tag_185\n        /* \"#utility.yul\":5895:5929   */\n      tag_186\n        /* \"#utility.yul\":5904:5928   */\n      tag_187\n        /* \"#utility.yul\":5922:5927   */\n      dup5\n        /* \"#utility.yul\":5904:5928   */\n      tag_50\n      jump\t// in\n    tag_187:\n        /* \"#utility.yul\":5895:5929   */\n      tag_67\n      jump\t// in\n    tag_186:\n        /* \"#utility.yul\":5877:5930   */\n      tag_50\n      jump\t// in\n    tag_185:\n        /* \"#utility.yul\":5864:5930   */\n      swap1\n      pop\n        /* \"#utility.yul\":5794:5936   */\n      swap2\n      swap1\n      pop\n      jump\t// out\n        /* \"#utility.yul\":5942:6017   */\n    tag_69:\n        /* \"#utility.yul\":5985:5988   */\n      0x00\n        /* \"#utility.yul\":6006:6011   */\n      dup2\n        /* \"#utility.yul\":5999:6011   */\n      swap1\n      pop\n        /* \"#utility.yul\":5942:6017   */\n      swap2\n      swap1\n      pop\n      jump\t// out\n        /* \"#utility.yul\":6023:6286   */\n    tag_70:\n        /* \"#utility.yul\":6134:6173   */\n      tag_190\n        /* \"#utility.yul\":6165:6172   */\n      dup3\n        /* \"#utility.yul\":6134:6173   */\n      tag_68\n      jump\t// in\n    tag_190:\n        /* \"#utility.yul\":6195:6279   */\n      tag_191\n        /* \"#utility.yul\":6237:6278   */\n      tag_192\n        /* \"#utility.yul\":6261:6277   */\n      dup3\n        /* \"#utility.yul\":6237:6278   */\n      tag_69\n      jump\t// in\n    tag_192:\n        /* \"#utility.yul\":6230:6234   */\n      dup4\n        /* \"#utility.yul\":6224:6235   */\n      sload\n        /* \"#utility.yul\":6195:6279   */\n      tag_66\n      jump\t// in\n    tag_191:\n        /* \"#utility.yul\":6189:6193   */\n      dup3\n        /* \"#utility.yul\":6182:6280   */\n      sstore\n        /* \"#utility.yul\":6100:6286   */\n      pop\n        /* \"#utility.yul\":6023:6286   */\n      pop\n      pop\n      jump\t// out\n        /* \"#utility.yul\":6292:6409   */\n    tag_71:\n        /* \"#utility.yul\":6401:6402   */\n      0x00\n        /* \"#utility.yul\":6398:6399   */\n      0x00\n        /* \"#utility.yul\":6391:6403   */\n      revert\n        /* \"#utility.yul\":6415:6532   */\n    tag_72:\n        /* \"#utility.yul\":6524:6525   */\n      0x00\n        /* \"#utility.yul\":6521:6522   */\n      0x00\n        /* \"#utility.yul\":6514:6526   */\n      revert\n        /* \"#utility.yul\":6538:6655   */\n    tag_73:\n        /* \"#utility.yul\":6647:6648   */\n      0x00\n        /* \"#utility.yul\":6644:6645   */\n      0x00\n        /* \"#utility.yul\":6637:6649   */\n      revert\n        /* \"#utility.yul\":6661:7386   */\n    tag_74:\n        /* \"#utility.yul\":6739:6743   */\n      0x00\n        /* \"#utility.yul\":6745:6751   */\n      0x00\n        /* \"#utility.yul\":6801:6812   */\n      dup4\n        /* \"#utility.yul\":6788:6813   */\n      calldataload\n        /* \"#utility.yul\":6901:6902   */\n      0x01\n        /* \"#utility.yul\":6895:6899   */\n      0x20\n        /* \"#utility.yul\":6891:6903   */\n      sub\n        /* \"#utility.yul\":6880:6888   */\n      dup5\n        /* \"#utility.yul\":6864:6878   */\n      calldatasize\n        /* \"#utility.yul\":6860:6889   */\n      sub\n        /* \"#utility.yul\":6856:6904   */\n      sub\n        /* \"#utility.yul\":6836:6854   */\n      dup2\n        /* \"#utility.yul\":6832:6905   */\n      slt\n        /* \"#utility.yul\":6822:6990   */\n      tag_197\n      jumpi\n        /* \"#utility.yul\":6909:6988   */\n      tag_198\n      tag_71\n      jump\t// in\n    tag_198:\n        /* \"#utility.yul\":6822:6990   */\n    tag_197:\n        /* \"#utility.yul\":7021:7039   */\n      dup1\n        /* \"#utility.yul\":7011:7019   */\n      dup5\n        /* \"#utility.yul\":7007:7040   */\n      add\n        /* \"#utility.yul\":6999:7040   */\n      swap3\n      pop\n        /* \"#utility.yul\":7073:7077   */\n      dup3\n        /* \"#utility.yul\":7060:7078   */\n      calldataload\n        /* \"#utility.yul\":7050:7078   */\n      swap2\n      pop\n        /* \"#utility.yul\":7101:7119   */\n      0xffffffffffffffff\n        /* \"#utility.yul\":7093:7099   */\n      dup3\n        /* \"#utility.yul\":7090:7120   */\n      gt\n        /* \"#utility.yul\":7087:7204   */\n      iszero\n      tag_199\n      jumpi\n        /* \"#utility.yul\":7123:7202   */\n      tag_200\n      tag_72\n      jump\t// in\n    tag_200:\n        /* \"#utility.yul\":7087:7204   */\n    tag_199:\n        /* \"#utility.yul\":7231:7233   */\n      0x20\n        /* \"#utility.yul\":7225:7229   */\n      dup4\n        /* \"#utility.yul\":7221:7234   */\n      add\n        /* \"#utility.yul\":7213:7234   */\n      swap3\n      pop\n        /* \"#utility.yul\":7288:7292   */\n      0x01\n        /* \"#utility.yul\":7280:7286   */\n      dup3\n        /* \"#utility.yul\":7276:7293   */\n      mul\n        /* \"#utility.yul\":7260:7274   */\n      calldatasize\n        /* \"#utility.yul\":7256:7294   */\n      sub\n        /* \"#utility.yul\":7250:7254   */\n      dup4\n        /* \"#utility.yul\":7246:7295   */\n      sgt\n        /* \"#utility.yul\":7243:7379   */\n      iszero\n      tag_201\n      jumpi\n        /* \"#utility.yul\":7298:7377   */\n      tag_202\n      tag_73\n      jump\t// in\n    tag_202:\n        /* \"#utility.yul\":7243:7379   */\n    tag_201:\n        /* \"#utility.yul\":6752:7386   */\n      pop\n        /* \"#utility.yul\":6661:7386   */\n      swap3\n      pop\n      swap3\n      swap1\n      pop\n      jump\t// out\n        /* \"#utility.yul\":7392:7489   */\n    tag_75:\n        /* \"#utility.yul\":7451:7457   */\n      0x00\n        /* \"#utility.yul\":7479:7482   */\n      dup3\n        /* \"#utility.yul\":7469:7482   */\n      swap1\n      pop\n        /* \"#utility.yul\":7392:7489   */\n      swap3\n      swap2\n      pop\n      pop\n      jump\t// out\n        /* \"#utility.yul\":7495:7675   */\n    tag_76:\n        /* \"#utility.yul\":7543:7620   */\n      0x4e487b7100000000000000000000000000000000000000000000000000000000\n        /* \"#utility.yul\":7540:7541   */\n      0x00\n        /* \"#utility.yul\":7533:7621   */\n      mstore\n        /* \"#utility.yul\":7640:7644   */\n      0x41\n        /* \"#utility.yul\":7637:7638   */\n      0x04\n        /* \"#utility.yul\":7630:7645   */\n      mstore\n        /* \"#utility.yul\":7664:7668   */\n      0x24\n        /* \"#utility.yul\":7661:7662   */\n      0x00\n        /* \"#utility.yul\":7654:7669   */\n      revert\n        /* \"#utility.yul\":7681:7861   */\n    tag_77:\n        /* \"#utility.yul\":7729:7806   */\n      0x4e487b7100000000000000000000000000000000000000000000000000000000\n        /* \"#utility.yul\":7726:7727   */\n      0x00\n        /* \"#utility.yul\":7719:7807   */\n      mstore\n        /* \"#utility.yul\":7826:7830   */\n      0x22\n        /* \"#utility.yul\":7823:7824   */\n      0x04\n        /* \"#utility.yul\":7816:7831   */\n      mstore\n        /* \"#utility.yul\":7850:7854   */\n      0x24\n        /* \"#utility.yul\":7847:7848   */\n      0x00\n        /* \"#utility.yul\":7840:7855   */\n      revert\n        /* \"#utility.yul\":7867:8187   */\n    tag_33:\n        /* \"#utility.yul\":7911:7917   */\n      0x00\n        /* \"#utility.yul\":7948:7949   */\n      0x02\n        /* \"#utility.yul\":7942:7946   */\n      dup3\n        /* \"#utility.yul\":7938:7950   */\n      div\n        /* \"#utility.yul\":7928:7950   */\n      swap1\n      pop\n        /* \"#utility.yul\":7995:7996   */\n      0x01\n        /* \"#utility.yul\":7989:7993   */\n      dup3\n        /* \"#utility.yul\":7985:7997   */\n      and\n        /* \"#utility.yul\":8016:8034   */\n      dup1\n        /* \"#utility.yul\":8006:8087   */\n      tag_207\n      jumpi\n        /* \"#utility.yul\":8072:8076   */\n      0x7f\n        /* \"#utility.yul\":8064:8070   */\n      dup3\n        /* \"#utility.yul\":8060:8077   */\n      and\n        /* \"#utility.yul\":8050:8077   */\n      swap2\n      pop\n        /* \"#utility.yul\":8006:8087   */\n    tag_207:\n        /* \"#utility.yul\":8134:8136   */\n      0x20\n        /* \"#utility.yul\":8126:8132   */\n      dup3\n        /* \"#utility.yul\":8123:8137   */\n      lt\n        /* \"#utility.yul\":8103:8121   */\n      dup2\n        /* \"#utility.yul\":8100:8138   */\n      sub\n        /* \"#utility.yul\":8097:8181   */\n      tag_208\n      jumpi\n        /* \"#utility.yul\":8153:8171   */\n      tag_209\n      tag_77\n      jump\t// in\n    tag_209:\n        /* \"#utility.yul\":8097:8181   */\n    tag_208:\n        /* \"#utility.yul\":7918:8187   */\n      pop\n        /* \"#utility.yul\":7867:8187   */\n      swap2\n      swap1\n      pop\n      jump\t// out\n        /* \"#utility.yul\":8193:8334   */\n    tag_78:\n        /* \"#utility.yul\":8242:8246   */\n      0x00\n        /* \"#utility.yul\":8265:8268   */\n      dup2\n        /* \"#utility.yul\":8257:8268   */\n      swap1\n      pop\n        /* \"#utility.yul\":8288:8291   */\n      dup2\n        /* \"#utility.yul\":8285:8286   */\n      0x00\n        /* \"#utility.yul\":8278:8292   */\n      mstore\n        /* \"#utility.yul\":8322:8326   */\n      0x20\n        /* \"#utility.yul\":8319:8320   */\n      0x00\n        /* \"#utility.yul\":8309:8327   */\n      keccak256\n        /* \"#utility.yul\":8301:8327   */\n      swap1\n      pop\n        /* \"#utility.yul\":8193:8334   */\n      swap2\n      swap1\n      pop\n      jump\t// out\n        /* \"#utility.yul\":8340:8433   */\n    tag_79:\n        /* \"#utility.yul\":8377:8383   */\n      0x00\n        /* \"#utility.yul\":8424:8426   */\n      0x20\n        /* \"#utility.yul\":8419:8421   */\n      0x1f\n        /* \"#utility.yul\":8412:8417   */\n      dup4\n        /* \"#utility.yul\":8408:8422   */\n      add\n        /* \"#utility.yul\":8404:8427   */\n      div\n        /* \"#utility.yul\":8394:8427   */\n      swap1\n      pop\n        /* \"#utility.yul\":8340:8433   */\n      swap2\n      swap1\n      pop\n      jump\t// out\n        /* \"#utility.yul\":8439:8546   */\n    tag_80:\n        /* \"#utility.yul\":8483:8491   */\n      0x00\n        /* \"#utility.yul\":8533:8538   */\n      dup3\n        /* \"#utility.yul\":8527:8531   */\n      dup3\n        /* \"#utility.yul\":8523:8539   */\n      shl\n        /* \"#utility.yul\":8502:8539   */\n      swap1\n      pop\n        /* \"#utility.yul\":8439:8546   */\n      swap3\n      swap2\n      pop\n      pop\n      jump\t// out\n        /* \"#utility.yul\":8552:8945   */\n    tag_81:\n        /* \"#utility.yul\":8621:8627   */\n      0x00\n        /* \"#utility.yul\":8671:8672   */\n      0x08\n        /* \"#utility.yul\":8659:8669   */\n      dup4\n        /* \"#utility.yul\":8655:8673   */\n      mul\n        /* \"#utility.yul\":8694:8791   */\n      tag_214\n        /* \"#utility.yul\":8724:8790   */\n      0xffffffffffffffffffffffffffffffffffffffffffffffffffffffffffffffff\n        /* \"#utility.yul\":8713:8722   */\n      dup3\n        /* \"#utility.yul\":8694:8791   */\n      tag_80\n      jump\t// in\n    tag_214:\n        /* \"#utility.yul\":8812:8851   */\n      tag_215\n        /* \"#utility.yul\":8842:8850   */\n      dup7\n        /* \"#utility.yul\":8831:8840   */\n      dup4\n        /* \"#utility.yul\":8812:8851   */\n      tag_80\n      jump\t// in\n    tag_215:\n        /* \"#utility.yul\":8800:8851   */\n      swap6\n      pop\n        /* \"#utility.yul\":8884:8888   */\n      dup1\n        /* \"#utility.yul\":8880:8889   */\n      not\n        /* \"#utility.yul\":8873:8878   */\n      dup5\n        /* \"#utility.yul\":8869:8890   */\n      and\n        /* \"#utility.yul\":8860:8890   */\n      swap4\n      pop\n        /* \"#utility.yul\":8933:8937   */\n      dup1\n        /* \"#utility.yul\":8923:8931   */\n      dup7\n        /* \"#utility.yul\":8919:8938   */\n      and\n        /* \"#utility.yul\":8912:8917   */\n      dup5\n        /* \"#utility.yul\":8909:8939   */\n      or\n        /* \"#utility.yul\":8899:8939   */\n      swap3\n      pop\n        /* \"#utility.yul\":8628:8945   */\n      pop\n      pop\n        /* \"#utility.yul\":8552:8945   */\n      swap4\n      swap3\n      pop\n      pop\n      pop\n      jump\t// out\n        /* \"#utility.yul\":8951:9220   */\n    tag_82:\n        /* \"#utility.yul\":9061:9100   */\n      tag_217\n        /* \"#utility.yul\":9092:9099   */\n      dup4\n        /* \"#utility.yul\":9061:9100   */\n      tag_68\n      jump\t// in\n    tag_217:\n        /* \"#utility.yul\":9122:9213   */\n      tag_218\n        /* \"#utility.yul\":9171:9212   */\n      tag_219\n        /* \"#utility.yul\":9195:9211   */\n      dup3\n        /* \"#utility.yul\":9171:9212   */\n      tag_69\n      jump\t// in\n    tag_219:\n        /* \"#utility.yul\":9163:9169   */\n      dup5\n        /* \"#utility.yul\":9156:9160   */\n      dup5\n        /* \"#utility.yul\":9150:9161   */\n      sload\n        /* \"#utility.yul\":9122:9213   */\n      tag_81\n      jump\t// in\n    tag_218:\n        /* \"#utility.yul\":9116:9120   */\n      dup3\n        /* \"#utility.yul\":9109:9214   */\n      sstore\n        /* \"#utility.yul\":9027:9220   */\n      pop\n        /* \"#utility.yul\":8951:9220   */\n      pop\n      pop\n      pop\n      jump\t// out\n        /* \"#utility.yul\":9226:9299   */\n    tag_83:\n        /* \"#utility.yul\":9271:9274   */\n      0x00\n        /* \"#utility.yul\":9292:9293   */\n      0x00\n        /* \"#utility.yul\":9285:9293   */\n      swap1\n      pop\n        /* \"#utility.yul\":9226:9299   */\n      swap1\n      jump\t// out\n        /* \"#utility.yul\":9305:9494   */\n    tag_84:\n        /* \"#utility.yul\":9382:9414   */\n      tag_222\n      tag_83\n      jump\t// in\n    tag_222:\n        /* \"#utility.yul\":9423:9488   */\n      tag_223\n        /* \"#utility.yul\":9481:9487   */\n      dup2\n        /* \"#utility.yul\":9473:9479   */\n      dup5\n        /* \"#utility.yul\":9467:9471   */\n      dup5\n        /* \"#utility.yul\":9423:9488   */\n      tag_82\n      jump\t// in\n    tag_223:\n        /* \"#utility.yul\":9358:9494   */\n      pop\n        /* \"#utility.yul\":9305:9494   */\n      pop\n      pop\n      jump\t// out\n        /* \"#utility.yul\":9500:9686   */\n    tag_85:\n        /* \"#utility.yul\":9560:9680   */\n    tag_225:\n        /* \"#utility.yul\":9577:9580   */\n      dup2\n        /* \"#utility.yul\":9570:9575   */\n      dup2\n        /* \"#utility.yul\":9567:9581   */\n      lt\n        /* \"#utility.yul\":9560:9680   */\n      iszero\n      tag_227\n      jumpi\n        /* \"#utility.yul\":9631:9670   */\n      tag_228\n        /* \"#utility.yul\":9668:9669   */\n      0x00\n        /* \"#utility.yul\":9661:9666   */\n      dup3\n        /* \"#utility.yul\":9631:9670   */\n      tag_84\n      jump\t// in\n    tag_228:\n        /* \"#utility.yul\":9604:9605   */\n      0x01\n        /* \"#utility.yul\":9597:9602   */\n      dup2\n        /* \"#utility.yul\":9593:9606   */\n      add\n        /* \"#utility.yul\":9584:9606   */\n      swap1\n      pop\n        /* \"#utility.yul\":9560:9680   */\n      jump(tag_225)\n    tag_227:\n        /* \"#utility.yul\":9500:9686   */\n      pop\n      pop\n      jump\t// out\n        /* \"#utility.yul\":9692:10235   */\n    tag_86:\n        /* \"#utility.yul\":9793:9795   */\n      0x1f\n        /* \"#utility.yul\":9788:9791   */\n      dup3\n        /* \"#utility.yul\":9785:9796   */\n      gt\n        /* \"#utility.yul\":9782:10228   */\n      iszero\n      tag_230\n      jumpi\n        /* \"#utility.yul\":9827:9865   */\n      tag_231\n        /* \"#utility.yul\":9859:9864   */\n      dup2\n        /* \"#utility.yul\":9827:9865   */\n      tag_78\n      jump\t// in\n    tag_231:\n        /* \"#utility.yul\":9911:9940   */\n      tag_232\n        /* \"#utility.yul\":9929:9939   */\n      dup5\n        /* \"#utility.yul\":9911:9940   */\n      tag_79\n      jump\t// in\n    tag_232:\n        /* \"#utility.yul\":9901:9909   */\n      dup2\n        /* \"#utility.yul\":9897:9941   */\n      add\n        /* \"#utility.yul\":10094:10096   */\n      0x20\n        /* \"#utility.yul\":10082:10092   */\n      dup6\n        /* \"#utility.yul\":10079:10097   */\n      lt\n        /* \"#utility.yul\":10076:10125   */\n      iszero\n      tag_233\n      jumpi\n        /* \"#utility.yul\":10115:10123   */\n      dup2\n        /* \"#utility.yul\":10100:10123   */\n      swap1\n      pop\n        /* \"#utility.yul\":10076:10125   */\n    tag_233:\n        /* \"#utility.yul\":10138:10218   */\n      tag_234\n        /* \"#utility.yul\":10194:10216   */\n      tag_235\n        /* \"#utility.yul\":10212:10215   */\n      dup6\n        /* \"#utility.yul\":10194:10216   */\n      tag_79\n      jump\t// in\n    tag_235:\n        /* \"#utility.yul\":10184:10192   */\n      dup4\n        /* \"#utility.yul\":10180:10217   */\n      add\n        /* \"#utility.yul\":10167:10178   */\n      dup3\n        /* \"#utility.yul\":10138:10218   */\n      tag_85\n      jump\t// in\n    tag_234:\n        /* \"#utility.yul\":9797:10228   */\n      pop\n      pop\n        /* \"#utility.yul\":9782:10228   */\n    tag_230:\n        /* \"#utility.yul\":9692:10235   */\n      pop\n      pop\n      pop\n      jump\t// out\n        /* \"#utility.yul\":10241:10358   */\n    tag_87:\n        /* \"#utility.yul\":10295:10303   */\n      0x00\n        /* \"#utility.yul\":10345:10350   */\n      dup3\n        /* \"#utility.yul\":10339:10343   */\n      dup3\n        /* \"#utility.yul\":10335:10351   */\n      shr\n        /* \"#utility.yul\":10314:10351   */\n      swap1\n      pop\n        /* \"#utility.yul\":10241:10358   */\n      swap3\n      swap2\n      pop\n      pop\n      jump\t// out\n        /* \"#utility.yul\":10364:10533   */\n    tag_88:\n        /* \"#utility.yul\":10408:10414   */\n      0x00\n        /* \"#utility.yul\":10441:10492   */\n      tag_238\n        /* \"#utility.yul\":10489:10490   */\n      0x00\n        /* \"#utility.yul\":10485:10491   */\n      not\n        /* \"#utility.yul\":10477:10482   */\n      dup5\n        /* \"#utility.yul\":10474:10475   */\n      0x08\n        /* \"#utility.yul\":10470:10483   */\n      mul\n        /* \"#utility.yul\":10441:10492   */\n      tag_87\n      jump\t// in\n    tag_238:\n        /* \"#utility.yul\":10437:10493   */\n      not\n        /* \"#utility.yul\":10522:10526   */\n      dup1\n        /* \"#utility.yul\":10516:10520   */\n      dup4\n        /* \"#utility.yul\":10512:10527   */\n      and\n        /* \"#utility.yul\":10502:10527   */\n      swap2\n      pop\n        /* \"#utility.yul\":10415:10533   */\n      pop\n        /* \"#utility.yul\":10364:10533   */\n      swap3\n      swap2\n      pop\n      pop\n      jump\t// out\n        /* \"#utility.yul\":10538:10833   */\n    tag_89:\n        /* \"#utility.yul\":10614:10618   */\n      0x00\n        /* \"#utility.yul\":10760:10789   */\n      tag_240\n        /* \"#utility.yul\":10785:10788   */\n      dup4\n        /* \"#utility.yul\":10779:10783   */\n      dup4\n        /* \"#utility.yul\":10760:10789   */\n      tag_88\n      jump\t// in\n    tag_240:\n        /* \"#utility.yul\":10752:10789   */\n      swap2\n      pop\n        /* \"#utility.yul\":10822:10825   */\n      dup3\n        /* \"#utility.yul\":10819:10820   */\n      0x02\n        /* \"#utility.yul\":10815:10826   */\n      mul\n        /* \"#utility.yul\":10809:10813   */\n      dup3\n        /* \"#utility.yul\":10806:10827   */\n      or\n        /* \"#utility.yul\":10798:10827   */\n      swap1\n      pop\n        /* \"#utility.yul\":10538:10833   */\n      swap3\n      swap2\n      pop\n      pop\n      jump\t// out\n        /* \"#utility.yul\":10838:12241   */\n    tag_90:\n        /* \"#utility.yul\":10962:11006   */\n      tag_242\n        /* \"#utility.yul\":11002:11005   */\n      dup4\n        /* \"#utility.yul\":10997:11000   */\n      dup4\n        /* \"#utility.yul\":10962:11006   */\n      tag_75\n      jump\t// in\n    tag_242:\n        /* \"#utility.yul\":11071:11089   */\n      0xffffffffffffffff\n        /* \"#utility.yul\":11063:11069   */\n      dup2\n        /* \"#utility.yul\":11060:11090   */\n      gt\n        /* \"#utility.yul\":11057:11113   */\n      iszero\n      tag_243\n      jumpi\n        /* \"#utility.yul\":11093:11111   */\n      tag_244\n      tag_76\n      jump\t// in\n    tag_244:\n        /* \"#utility.yul\":11057:11113   */\n    tag_243:\n        /* \"#utility.yul\":11137:11175   */\n      tag_245\n        /* \"#utility.yul\":11169:11173   */\n      dup3\n        /* \"#utility.yul\":11163:11174   */\n      sload\n        /* \"#utility.yul\":11137:11175   */\n      tag_33\n      jump\t// in\n    tag_245:\n        /* \"#utility.yul\":11222:11289   */\n      tag_246\n        /* \"#utility.yul\":11282:11288   */\n      dup3\n        /* \"#utility.yul\":11274:11280   */\n      dup3\n        /* \"#utility.yul\":11268:11272   */\n      dup6\n        /* \"#utility.yul\":11222:11289   */\n      tag_86\n      jump\t// in\n    tag_246:\n        /* \"#utility.yul\":11316:11317   */\n      0x00\n        /* \"#utility.yul\":11345:11347   */\n      0x1f\n        /* \"#utility.yul\":11337:11343   */\n      dup4\n        /* \"#utility.yul\":11334:11348   */\n      gt\n        /* \"#utility.yul\":11362:11363   */\n      0x01\n        /* \"#utility.yul\":11357:11989   */\n      dup2\n      eq\n      tag_248\n      jumpi\n        /* \"#utility.yul\":12033:12034   */\n      0x00\n        /* \"#utility.yul\":12050:12056   */\n      dup5\n        /* \"#utility.yul\":12047:12131   */\n      iszero\n      tag_249\n      jumpi\n        /* \"#utility.yul\":12106:12115   */\n      dup3\n        /* \"#utility.yul\":12101:12104   */\n      dup8\n        /* \"#utility.yul\":12097:12116   */\n      add\n        /* \"#utility.yul\":12084:12117   */\n      calldataload\n        /* \"#utility.yul\":12075:12117   */\n      swap1\n      pop\n        /* \"#utility.yul\":12047:12131   */\n    tag_249:\n        /* \"#utility.yul\":12157:12224   */\n      tag_250\n        /* \"#utility.yul\":12217:12223   */\n      dup6\n        /* \"#utility.yul\":12210:12215   */\n      dup3\n        /* \"#utility.yul\":12157:12224   */\n      tag_89\n      jump\t// in\n    tag_250:\n        /* \"#utility.yul\":12151:12155   */\n      dup7\n        /* \"#utility.yul\":12144:12225   */\n      sstore\n        /* \"#utility.yul\":12006:12235   */\n      pop\n        /* \"#utility.yul\":11327:12235   */\n      jump(tag_247)\n        /* \"#utility.yul\":11357:11989   */\n    tag_248:\n        /* \"#utility.yul\":11409:11413   */\n      0x1f\n        /* \"#utility.yul\":11405:11414   */\n      not\n        /* \"#utility.yul\":11397:11403   */\n      dup5\n        /* \"#utility.yul\":11393:11415   */\n      and\n        /* \"#utility.yul\":11443:11480   */\n      tag_251\n        /* \"#utility.yul\":11475:11479   */\n      dup7\n        /* \"#utility.yul\":11443:11480   */\n      tag_78\n      jump\t// in\n    tag_251:\n        /* \"#utility.yul\":11502:11503   */\n      0x00\n        /* \"#utility.yul\":11516:11731   */\n    tag_252:\n        /* \"#utility.yul\":11530:11537   */\n      dup3\n        /* \"#utility.yul\":11527:11528   */\n      dup2\n        /* \"#utility.yul\":11524:11538   */\n      lt\n        /* \"#utility.yul\":11516:11731   */\n      iszero\n      tag_254\n      jumpi\n        /* \"#utility.yul\":11616:11625   */\n      dup5\n        /* \"#utility.yul\":11611:11614   */\n      dup10\n        /* \"#utility.yul\":11607:11626   */\n      add\n        /* \"#utility.yul\":11594:11627   */\n      calldataload\n        /* \"#utility.yul\":11586:11592   */\n      dup3\n        /* \"#utility.yul\":11579:11628   */\n      sstore\n        /* \"#utility.yul\":11667:11668   */\n      0x01\n        /* \"#utility.yul\":11659:11665   */\n      dup3\n        /* \"#utility.yul\":11655:11669   */\n      add\n        /* \"#utility.yul\":11645:11669   */\n      swap2\n      pop\n        /* \"#utility.yul\":11714:11716   */\n      0x20\n        /* \"#utility.yul\":11703:11712   */\n      dup6\n        /* \"#utility.yul\":11699:11717   */\n      add\n        /* \"#utility.yul\":11686:11717   */\n      swap5\n      pop\n        /* \"#utility.yul\":11553:11557   */\n      0x20\n        /* \"#utility.yul\":11550:11551   */\n      dup2\n        /* \"#utility.yul\":11546:11558   */\n      add\n        /* \"#utility.yul\":11541:11558   */\n      swap1\n      pop\n        /* \"#utility.yul\":11516:11731   */\n      jump(tag_252)\n    tag_254:\n        /* \"#utility.yul\":11759:11765   */\n      dup7\n        /* \"#utility.yul\":11750:11757   */\n      dup4\n        /* \"#utility.yul\":11747:11766   */\n      lt\n        /* \"#utility.yul\":11744:11930   */\n      iszero\n      tag_255\n      jumpi\n        /* \"#utility.yul\":11824:11833   */\n      dup5\n        /* \"#utility.yul\":11819:11822   */\n      dup10\n        /* \"#utility.yul\":11815:11834   */\n      add\n        /* \"#utility.yul\":11802:11835   */\n      calldataload\n        /* \"#utility.yul\":11867:11915   */\n      tag_256\n        /* \"#utility.yul\":11909:11913   */\n      0x1f\n        /* \"#utility.yul\":11901:11907   */\n      dup10\n        /* \"#utility.yul\":11897:11914   */\n      and\n        /* \"#utility.yul\":11886:11895   */\n      dup3\n        /* \"#utility.yul\":11867:11915   */\n      tag_88\n      jump\t// in\n    tag_256:\n        /* \"#utility.yul\":11859:11865   */\n      dup4\n        /* \"#utility.yul\":11852:11916   */\n      sstore\n        /* \"#utility.yul\":11767:11930   */\n      pop\n        /* \"#utility.yul\":11744:11930   */\n    tag_255:\n        /* \"#utility.yul\":11976:11977   */\n      0x01\n        /* \"#utility.yul\":11972:11973   */\n      0x02\n        /* \"#utility.yul\":11964:11970   */\n      dup9\n        /* \"#utility.yul\":11960:11974   */\n      mul\n        /* \"#utility.yul\":11956:11978   */\n      add\n        /* \"#utility.yul\":11950:11954   */\n      dup9\n        /* \"#utility.yul\":11943:11979   */\n      sstore\n        /* \"#utility.yul\":11364:11989   */\n      pop\n      pop\n      pop\n        /* \"#utility.yul\":11327:12235   */\n    tag_247:\n      pop\n        /* \"#utility.yul\":10937:12241   */\n      pop\n      pop\n      pop\n        /* \"#utility.yul\":10838:12241   */\n      pop\n      pop\n      pop\n      jump\t// out\n        /* \"#utility.yul\":12247:12466   */\n    tag_91:\n        /* \"#utility.yul\":12363:12460   */\n      tag_258\n        /* \"#utility.yul\":12452:12459   */\n      dup4\n        /* \"#utility.yul\":12443:12450   */\n      dup4\n        /* \"#utility.yul\":12437:12441   */\n      dup4\n        /* \"#utility.yul\":12363:12460   */\n      tag_90\n      jump\t// in\n    tag_258:\n        /* \"#utility.yul\":12247:12466   */\n      pop\n      pop\n      pop\n      jump\t// out\n        /* \"#utility.yul\":12472:13236   */\n    tag_92:\n        /* \"#utility.yul\":12589:12593   */\n      0x00\n        /* \"#utility.yul\":12595:12601   */\n      0x00\n        /* \"#utility.yul\":12651:12662   */\n      dup4\n        /* \"#utility.yul\":12638:12663   */\n      calldataload\n        /* \"#utility.yul\":12751:12752   */\n      0x01\n        /* \"#utility.yul\":12745:12749   */\n      0x20\n        /* \"#utility.yul\":12741:12753   */\n      sub\n        /* \"#utility.yul\":12730:12738   */\n      dup5\n        /* \"#utility.yul\":12714:12728   */\n      calldatasize\n        /* \"#utility.yul\":12710:12739   */\n      sub\n        /* \"#utility.yul\":12706:12754   */\n      sub\n        /* \"#utility.yul\":12686:12704   */\n      dup2\n        /* \"#utility.yul\":12682:12755   */\n      slt\n        /* \"#utility.yul\":12672:12840   */\n      tag_260\n      jumpi\n        /* \"#utility.yul\":12759:12838   */\n      tag_261\n      tag_71\n      jump\t// in\n    tag_261:\n        /* \"#utility.yul\":12672:12840   */\n    tag_260:\n        /* \"#utility.yul\":12871:12889   */\n      dup1\n        /* \"#utility.yul\":12861:12869   */\n      dup5\n        /* \"#utility.yul\":12857:12890   */\n      add\n        /* \"#utility.yul\":12849:12890   */\n      swap3\n      pop\n        /* \"#utility.yul\":12923:12927   */\n      dup3\n        /* \"#utility.yul\":12910:12928   */\n      calldataload\n        /* \"#utility.yul\":12900:12928   */\n      swap2\n      pop\n        /* \"#utility.yul\":12951:12969   */\n      0xffffffffffffffff\n        /* \"#utility.yul\":12943:12949   */\n      dup3\n        /* \"#utility.yul\":12940:12970   */\n      gt\n        /* \"#utility.yul\":12937:13054   */\n      iszero\n      tag_262\n      jumpi\n        /* \"#utility.yul\":12973:13052   */\n      tag_263\n      tag_72\n      jump\t// in\n    tag_263:\n        /* \"#utility.yul\":12937:13054   */\n    tag_262:\n        /* \"#utility.yul\":13081:13083   */\n      0x20\n        /* \"#utility.yul\":13075:13079   */\n      dup4\n        /* \"#utility.yul\":13071:13084   */\n      add\n        /* \"#utility.yul\":13063:13084   */\n      swap3\n      pop\n        /* \"#utility.yul\":13138:13142   */\n      0x20\n        /* \"#utility.yul\":13130:13136   */\n      dup3\n        /* \"#utility.yul\":13126:13143   */\n      mul\n        /* \"#utility.yul\":13110:13124   */\n      calldatasize\n        /* \"#utility.yul\":13106:13144   */\n      sub\n        /* \"#utility.yul\":13100:13104   */\n      dup4\n        /* \"#utility.yul\":13096:13145   */\n      sgt\n        /* \"#utility.yul\":13093:13229   */\n      iszero\n      tag_264\n      jumpi\n        /* \"#utility.yul\":13148:13227   */\n      tag_265\n      tag_73\n      jump\t// in\n    tag_265:\n        /* \"#utility.yul\":13093:13229   */\n    tag_264:\n        /* \"#utility.yul\":12602:13236   */\n      pop\n        /* \"#utility.yul\":12472:13236   */\n      swap3\n      pop\n      swap3\n      swap1\n      pop\n      jump\t// out\n        /* \"#utility.yul\":13242:13368   */\n    tag_93:\n        /* \"#utility.yul\":13335:13339   */\n      0x00\n        /* \"#utility.yul\":13358:13361   */\n      dup2\n        /* \"#utility.yul\":13350:13361   */\n      swap1\n      pop\n        /* \"#utility.yul\":13242:13368   */\n      swap2\n      swap1\n      pop\n      jump\t// out\n        /* \"#utility.yul\":13374:13764   */\n    tag_94:\n        /* \"#utility.yul\":13464:13468   */\n      0x00\n        /* \"#utility.yul\":13518:13529   */\n      dup3\n        /* \"#utility.yul\":13505:13530   */\n      calldataload\n        /* \"#utility.yul\":13618:13619   */\n      0x01\n        /* \"#utility.yul\":13612:13616   */\n      0x40\n        /* \"#utility.yul\":13608:13620   */\n      sub\n        /* \"#utility.yul\":13597:13605   */\n      dup4\n        /* \"#utility.yul\":13581:13595   */\n      calldatasize\n        /* \"#utility.yul\":13577:13606   */\n      sub\n        /* \"#utility.yul\":13573:13621   */\n      sub\n        /* \"#utility.yul\":13553:13571   */\n      dup2\n        /* \"#utility.yul\":13549:13622   */\n      slt\n        /* \"#utility.yul\":13539:13707   */\n      tag_268\n      jumpi\n        /* \"#utility.yul\":13626:13705   */\n      tag_269\n      tag_71\n      jump\t// in\n    tag_269:\n        /* \"#utility.yul\":13539:13707   */\n    tag_268:\n        /* \"#utility.yul\":13738:13756   */\n      dup1\n        /* \"#utility.yul\":13728:13736   */\n      dup4\n        /* \"#utility.yul\":13724:13757   */\n      add\n        /* \"#utility.yul\":13716:13757   */\n      swap2\n      pop\n        /* \"#utility.yul\":13469:13764   */\n      pop\n        /* \"#utility.yul\":13374:13764   */\n      swap3\n      swap2\n      pop\n      pop\n      jump\t// out\n        /* \"#utility.yul\":13770:13900   */\n    tag_95:\n        /* \"#utility.yul\":13853:13859   */\n      0x00\n        /* \"#utility.yul\":13887:13892   */\n      dup2\n        /* \"#utility.yul\":13881:13893   */\n      sload\n        /* \"#utility.yul\":13871:13893   */\n      swap1\n      pop\n        /* \"#utility.yul\":13770:13900   */\n      swap2\n      swap1\n      pop\n      jump\t// out\n        /* \"#utility.yul\":13906:14086   */\n    tag_96:\n        /* \"#utility.yul\":13954:14031   */\n      0x4e487b7100000000000000000000000000000000000000000000000000000000\n        /* \"#utility.yul\":13951:13952   */\n      0x00\n        /* \"#utility.yul\":13944:14032   */\n      mstore\n        /* \"#utility.yul\":14051:14055   */\n      0x11\n        /* \"#utility.yul\":14048:14049   */\n      0x04\n        /* \"#utility.yul\":14041:14056   */\n      mstore\n        /* \"#utility.yul\":14075:14079   */\n      0x24\n        /* \"#utility.yul\":14072:14073   */\n      0x00\n        /* \"#utility.yul\":14065:14080   */\n      revert\n        /* \"#utility.yul\":14092:14502   */\n    tag_97:\n        /* \"#utility.yul\":14132:14139   */\n      0x00\n        /* \"#utility.yul\":14155:14175   */\n      tag_273\n        /* \"#utility.yul\":14173:14174   */\n      dup3\n        /* \"#utility.yul\":14155:14175   */\n      tag_50\n      jump\t// in\n    tag_273:\n        /* \"#utility.yul\":14150:14175   */\n      swap2\n      pop\n        /* \"#utility.yul\":14189:14209   */\n      tag_274\n        /* \"#utility.yul\":14207:14208   */\n      dup4\n        /* \"#utility.yul\":14189:14209   */\n      tag_50\n      jump\t// in\n    tag_274:\n        /* \"#utility.yul\":14184:14209   */\n      swap3\n      pop\n        /* \"#utility.yul\":14244:14245   */\n      dup3\n        /* \"#utility.yul\":14241:14242   */\n      dup3\n        /* \"#utility.yul\":14237:14246   */\n      mul\n        /* \"#utility.yul\":14266:14296   */\n      tag_275\n        /* \"#utility.yul\":14284:14295   */\n      dup2\n        /* \"#utility.yul\":14266:14296   */\n      tag_50\n      jump\t// in\n    tag_275:\n        /* \"#utility.yul\":14255:14296   */\n      swap2\n      pop\n        /* \"#utility.yul\":14445:14446   */\n      dup3\n        /* \"#utility.yul\":14436:14443   */\n      dup3\n        /* \"#utility.yul\":14432:14447   */\n      div\n        /* \"#utility.yul\":14429:14430   */\n      dup5\n        /* \"#utility.yul\":14426:14448   */\n      eq\n        /* \"#utility.yul\":14406:14407   */\n      dup4\n        /* \"#utility.yul\":14399:14408   */\n      iszero\n        /* \"#utility.yul\":14379:14462   */\n      or\n        /* \"#utility.yul\":14356:14495   */\n      tag_276\n      jumpi\n        /* \"#utility.yul\":14475:14493   */\n      tag_277\n      tag_96\n      jump\t// in\n    tag_277:\n        /* \"#utility.yul\":14356:14495   */\n    tag_276:\n        /* \"#utility.yul\":14140:14502   */\n      pop\n        /* \"#utility.yul\":14092:14502   */\n      swap3\n      swap2\n      pop\n      pop\n      jump\t// out\n        /* \"#utility.yul\":14508:14694   */\n    tag_98:\n        /* \"#utility.yul\":14608:14612   */\n      0x00\n        /* \"#utility.yul\":14631:14637   */\n      dup2\n        /* \"#utility.yul\":14623:14637   */\n      swap1\n      pop\n        /* \"#utility.yul\":14655:14687   */\n      tag_279\n        /* \"#utility.yul\":14680:14686   */\n      dup3\n        /* \"#utility.yul\":14677:14678   */\n      0x02\n        /* \"#utility.yul\":14655:14687   */\n      tag_97\n      jump\t// in\n    tag_279:\n        /* \"#utility.yul\":14647:14687   */\n      swap1\n      pop\n        /* \"#utility.yul\":14508:14694   */\n      swap2\n      swap1\n      pop\n      jump\t// out\n        /* \"#utility.yul\":14699:14874   */\n    tag_99:\n        /* \"#utility.yul\":14782:14786   */\n      0x00\n        /* \"#utility.yul\":14805:14808   */\n      dup2\n        /* \"#utility.yul\":14797:14808   */\n      swap1\n      pop\n        /* \"#utility.yul\":14828:14831   */\n      dup2\n        /* \"#utility.yul\":14825:14826   */\n      0x00\n        /* \"#utility.yul\":14818:14832   */\n      mstore\n        /* \"#utility.yul\":14862:14866   */\n      0x20\n        /* \"#utility.yul\":14859:14860   */\n      0x00\n        /* \"#utility.yul\":14849:14867   */\n      keccak256\n        /* \"#utility.yul\":14841:14867   */\n      swap1\n      pop\n        /* \"#utility.yul\":14699:14874   */\n      swap2\n      swap1\n      pop\n      jump\t// out\n        /* \"#utility.yul\":14880:15124   */\n    tag_100:\n        /* \"#utility.yul\":14952:15073   */\n      tag_282\n        /* \"#utility.yul\":15006:15072   */\n      0xffffffffffffffffffffffffffffffffffffffffffffffffffffffffffffffff\n        /* \"#utility.yul\":14996:15002   */\n      dup4\n        /* \"#utility.yul\":14992:14994   */\n      0x20\n        /* \"#utility.yul\":14988:15003   */\n      sub\n        /* \"#utility.yul\":14985:14986   */\n      0x08\n        /* \"#utility.yul\":14981:15004   */\n      mul\n        /* \"#utility.yul\":14952:15073   */\n      tag_87\n      jump\t// in\n    tag_282:\n        /* \"#utility.yul\":15111:15115   */\n      dup2\n        /* \"#utility.yul\":15105:15116   */\n      sload\n        /* \"#utility.yul\":15099:15103   */\n      dup2\n        /* \"#utility.yul\":15095:15117   */\n      and\n        /* \"#utility.yul\":15089:15093   */\n      dup3\n        /* \"#utility.yul\":15082:15118   */\n      sstore\n        /* \"#utility.yul\":14930:15124   */\n      pop\n        /* \"#utility.yul\":14880:15124   */\n      pop\n      pop\n      jump\t// out\n        /* \"#utility.yul\":15130:15560   */\n    tag_101:\n        /* \"#utility.yul\":15367:15405   */\n      tag_284\n        /* \"#utility.yul\":15399:15404   */\n      dup2\n        /* \"#utility.yul\":15367:15405   */\n      tag_78\n      jump\t// in\n    tag_284:\n        /* \"#utility.yul\":15426:15499   */\n      tag_285\n        /* \"#utility.yul\":15495:15498   */\n      dup4\n        /* \"#utility.yul\":15485:15492   */\n      dup3\n        /* \"#utility.yul\":15479:15493   */\n      sload\n        /* \"#utility.yul\":15426:15499   */\n      tag_89\n      jump\t// in\n    tag_285:\n        /* \"#utility.yul\":15522:15526   */\n      dup1\n        /* \"#utility.yul\":15515:15520   */\n      dup4\n        /* \"#utility.yul\":15508:15527   */\n      sstore\n        /* \"#utility.yul\":15552:15553   */\n      0x00\n        /* \"#utility.yul\":15543:15550   */\n      dup3\n        /* \"#utility.yul\":15536:15554   */\n      sstore\n        /* \"#utility.yul\":15201:15560   */\n      pop\n      pop\n        /* \"#utility.yul\":15130:15560   */\n      pop\n      pop\n      jump\t// out\n        /* \"#utility.yul\":15565:16804   */\n    tag_102:\n        /* \"#utility.yul\":15673:15675   */\n      0x20\n        /* \"#utility.yul\":15665:15671   */\n      dup5\n        /* \"#utility.yul\":15662:15676   */\n      lt\n        /* \"#utility.yul\":15691:15692   */\n      0x00\n        /* \"#utility.yul\":15685:16206   */\n      dup2\n      eq\n      tag_288\n      jumpi\n        /* \"#utility.yul\":16255:16257   */\n      0x1f\n        /* \"#utility.yul\":16247:16253   */\n      dup5\n        /* \"#utility.yul\":16244:16258   */\n      gt\n        /* \"#utility.yul\":16276:16277   */\n      0x01\n        /* \"#utility.yul\":16271:16654   */\n      dup2\n      eq\n      tag_290\n      jumpi\n        /* \"#utility.yul\":16707:16773   */\n      tag_291\n        /* \"#utility.yul\":16766:16772   */\n      dup7\n        /* \"#utility.yul\":16760:16764   */\n      dup6\n        /* \"#utility.yul\":16707:16773   */\n      tag_89\n      jump\t// in\n    tag_291:\n        /* \"#utility.yul\":16700:16705   */\n      dup4\n        /* \"#utility.yul\":16693:16774   */\n      sstore\n        /* \"#utility.yul\":16237:16788   */\n      jump(tag_289)\n        /* \"#utility.yul\":16271:16654   */\n    tag_290:\n        /* \"#utility.yul\":16318:16356   */\n      tag_292\n        /* \"#utility.yul\":16350:16355   */\n      dup4\n        /* \"#utility.yul\":16318:16356   */\n      tag_78\n      jump\t// in\n    tag_292:\n        /* \"#utility.yul\":16459:16559   */\n      tag_293\n        /* \"#utility.yul\":16532:16557   */\n      tag_294\n        /* \"#utility.yul\":16550:16556   */\n      dup8\n        /* \"#utility.yul\":16532:16557   */\n      tag_79\n      jump\t// in\n    tag_294:\n        /* \"#utility.yul\":16516:16530   */\n      dup3\n        /* \"#utility.yul\":16512:16558   */\n      add\n        /* \"#utility.yul\":16508:16509   */\n      0x01\n        /* \"#utility.yul\":16492:16506   */\n      dup4\n        /* \"#utility.yul\":16488:16510   */\n      add\n        /* \"#utility.yul\":16459:16559   */\n      tag_85\n      jump\t// in\n    tag_293:\n        /* \"#utility.yul\":16576:16640   */\n      tag_295\n        /* \"#utility.yul\":16633:16639   */\n      dup8\n        /* \"#utility.yul\":16626:16631   */\n      dup6\n        /* \"#utility.yul\":16576:16640   */\n      tag_101\n      jump\t// in\n    tag_295:\n        /* \"#utility.yul\":16278:16654   */\n      pop\n        /* \"#utility.yul\":16237:16788   */\n    tag_289:\n      pop\n        /* \"#utility.yul\":15655:16798   */\n      jump(tag_287)\n        /* \"#utility.yul\":15685:16206   */\n    tag_288:\n        /* \"#utility.yul\":15729:15767   */\n      tag_296\n        /* \"#utility.yul\":15761:15766   */\n      dup3\n        /* \"#utility.yul\":15729:15767   */\n      tag_78\n      jump\t// in\n    tag_296:\n        /* \"#utility.yul\":15819:15844   */\n      tag_297\n        /* \"#utility.yul\":15837:15843   */\n      dup7\n        /* \"#utility.yul\":15819:15844   */\n      tag_79\n      jump\t// in\n    tag_297:\n        /* \"#utility.yul\":15803:15817   */\n      dup2\n        /* \"#utility.yul\":15799:15845   */\n      add\n        /* \"#utility.yul\":15956:15960   */\n      0x1f\n        /* \"#utility.yul\":15948:15954   */\n      dup8\n        /* \"#utility.yul\":15944:15961   */\n      and\n        /* \"#utility.yul\":15977:15983   */\n      dup1\n        /* \"#utility.yul\":15974:16043   */\n      iszero\n      tag_298\n      jumpi\n        /* \"#utility.yul\":15986:16041   */\n      tag_299\n        /* \"#utility.yul\":16034:16040   */\n      dup2\n        /* \"#utility.yul\":16030:16031   */\n      0x01\n        /* \"#utility.yul\":16017:16028   */\n      dup5\n        /* \"#utility.yul\":16013:16032   */\n      sub\n        /* \"#utility.yul\":15986:16041   */\n      tag_100\n      jump\t// in\n    tag_299:\n        /* \"#utility.yul\":15974:16043   */\n    tag_298:\n        /* \"#utility.yul\":16057:16146   */\n      tag_300\n        /* \"#utility.yul\":16119:16144   */\n      tag_301\n        /* \"#utility.yul\":16137:16143   */\n      dup9\n        /* \"#utility.yul\":16119:16144   */\n      tag_79\n      jump\t// in\n    tag_301:\n        /* \"#utility.yul\":16103:16117   */\n      dup5\n        /* \"#utility.yul\":16099:16145   */\n      add\n        /* \"#utility.yul\":16086:16097   */\n      dup4\n        /* \"#utility.yul\":16057:16146   */\n      tag_85\n      jump\t// in\n    tag_300:\n        /* \"#utility.yul\":16193:16194   */\n      0x01\n        /* \"#utility.yul\":16184:16190   */\n      dup9\n        /* \"#utility.yul\":16181:16182   */\n      0x02\n        /* \"#utility.yul\":16177:16191   */\n      mul\n        /* \"#utility.yul\":16174:16195   */\n      or\n        /* \"#utility.yul\":16167:16172   */\n      dup6\n        /* \"#utility.yul\":16160:16196   */\n      sstore\n        /* \"#utility.yul\":15693:16206   */\n      pop\n      pop\n      pop\n        /* \"#utility.yul\":15655:16798   */\n    tag_287:\n      pop\n        /* \"#utility.yul\":15565:16804   */\n      pop\n      pop\n      pop\n      pop\n      jump\t// out\n        /* \"#utility.yul\":16809:17725   */\n    tag_103:\n        /* \"#utility.yul\":16914:16934   */\n      0x010000000000000000\n        /* \"#utility.yul\":16906:16912   */\n      dup5\n        /* \"#utility.yul\":16903:16935   */\n      gt\n        /* \"#utility.yul\":16900:16958   */\n      iszero\n      tag_303\n      jumpi\n        /* \"#utility.yul\":16938:16956   */\n      tag_304\n      tag_76\n      jump\t// in\n    tag_304:\n        /* \"#utility.yul\":16900:16958   */\n    tag_303:\n        /* \"#utility.yul\":16986:16988   */\n      0x20\n        /* \"#utility.yul\":16978:16984   */\n      dup4\n        /* \"#utility.yul\":16975:16989   */\n      lt\n        /* \"#utility.yul\":17003:17004   */\n      0x00\n        /* \"#utility.yul\":16998:17142   */\n      dup2\n      eq\n      tag_306\n      jumpi\n        /* \"#utility.yul\":17191:17193   */\n      0x20\n        /* \"#utility.yul\":17183:17189   */\n      dup6\n        /* \"#utility.yul\":17180:17194   */\n      lt\n        /* \"#utility.yul\":17212:17213   */\n      0x00\n        /* \"#utility.yul\":17207:17498   */\n      dup2\n      eq\n      tag_308\n      jumpi\n        /* \"#utility.yul\":17627:17693   */\n      tag_309\n        /* \"#utility.yul\":17686:17692   */\n      dup7\n        /* \"#utility.yul\":17680:17684   */\n      dup6\n        /* \"#utility.yul\":17627:17693   */\n      tag_89\n      jump\t// in\n    tag_309:\n        /* \"#utility.yul\":17620:17625   */\n      dup4\n        /* \"#utility.yul\":17613:17694   */\n      sstore\n        /* \"#utility.yul\":17173:17708   */\n      jump(tag_307)\n        /* \"#utility.yul\":17207:17498   */\n    tag_308:\n        /* \"#utility.yul\":17356:17360   */\n      dup4\n        /* \"#utility.yul\":17349:17353   */\n      0xff\n        /* \"#utility.yul\":17345:17354   */\n      not\n        /* \"#utility.yul\":17341:17361   */\n      and\n        /* \"#utility.yul\":17333:17361   */\n      swap4\n      pop\n        /* \"#utility.yul\":17425:17429   */\n      dup4\n        /* \"#utility.yul\":17385:17423   */\n      tag_310\n        /* \"#utility.yul\":17417:17422   */\n      dup5\n        /* \"#utility.yul\":17385:17423   */\n      tag_78\n      jump\t// in\n    tag_310:\n        /* \"#utility.yul\":17378:17430   */\n      sstore\n        /* \"#utility.yul\":17481:17482   */\n      0x01\n        /* \"#utility.yul\":17472:17478   */\n      dup7\n        /* \"#utility.yul\":17469:17470   */\n      0x02\n        /* \"#utility.yul\":17465:17479   */\n      mul\n        /* \"#utility.yul\":17461:17483   */\n      add\n        /* \"#utility.yul\":17454:17459   */\n      dup4\n        /* \"#utility.yul\":17447:17484   */\n      sstore\n        /* \"#utility.yul\":17173:17708   */\n    tag_307:\n      pop\n        /* \"#utility.yul\":16968:17718   */\n      jump(tag_305)\n        /* \"#utility.yul\":16998:17142   */\n    tag_306:\n        /* \"#utility.yul\":17129:17130   */\n      0x01\n        /* \"#utility.yul\":17120:17126   */\n      dup6\n        /* \"#utility.yul\":17117:17118   */\n      0x02\n        /* \"#utility.yul\":17113:17127   */\n      mul\n        /* \"#utility.yul\":17109:17131   */\n      add\n        /* \"#utility.yul\":17102:17107   */\n      dup3\n        /* \"#utility.yul\":17095:17132   */\n      sstore\n        /* \"#utility.yul\":16968:17718   */\n    tag_305:\n      pop\n        /* \"#utility.yul\":16809:17725   */\n      pop\n      pop\n      pop\n      pop\n      jump\t// out\n        /* \"#utility.yul\":17731:18133   */\n    tag_104:\n        /* \"#utility.yul\":17814:17819   */\n      dup1\n        /* \"#utility.yul\":17808:17820   */\n      sload\n        /* \"#utility.yul\":17843:17874   */\n      tag_312\n        /* \"#utility.yul\":17869:17873   */\n      dup2\n        /* \"#utility.yul\":17843:17874   */\n      tag_33\n      jump\t// in\n    tag_312:\n        /* \"#utility.yul\":17898:17904   */\n      dup1\n        /* \"#utility.yul\":17890:17896   */\n      dup5\n        /* \"#utility.yul\":17887:17905   */\n      gt\n        /* \"#utility.yul\":17884:18000   */\n      iszero\n      tag_313\n      jumpi\n        /* \"#utility.yul\":17920:17990   */\n      tag_314\n        /* \"#utility.yul\":17983:17989   */\n      dup5\n        /* \"#utility.yul\":17975:17981   */\n      dup3\n        /* \"#utility.yul\":17969:17973   */\n      dup5\n        /* \"#utility.yul\":17962:17967   */\n      dup7\n        /* \"#utility.yul\":17920:17990   */\n      tag_103\n      jump\t// in\n    tag_314:\n        /* \"#utility.yul\":17884:18000   */\n    tag_313:\n        /* \"#utility.yul\":18024:18030   */\n      dup1\n        /* \"#utility.yul\":18016:18022   */\n      dup5\n        /* \"#utility.yul\":18013:18031   */\n      lt\n        /* \"#utility.yul\":18010:18126   */\n      iszero\n      tag_315\n      jumpi\n        /* \"#utility.yul\":18046:18116   */\n      tag_316\n        /* \"#utility.yul\":18109:18115   */\n      dup5\n        /* \"#utility.yul\":18101:18107   */\n      dup3\n        /* \"#utility.yul\":18095:18099   */\n      dup5\n        /* \"#utility.yul\":18088:18093   */\n      dup7\n        /* \"#utility.yul\":18046:18116   */\n      tag_102\n      jump\t// in\n    tag_316:\n        /* \"#utility.yul\":18010:18126   */\n    tag_315:\n        /* \"#utility.yul\":17785:18133   */\n      pop\n      pop\n        /* \"#utility.yul\":17731:18133   */\n      pop\n      pop\n      jump\t// out\n        /* \"#utility.yul\":18200:18320   */\n    tag_318:\n        /* \"#utility.yul\":18217:18220   */\n      dup2\n        /* \"#utility.yul\":18210:18215   */\n      dup2\n        /* \"#utility.yul\":18207:18221   */\n      lt\n        /* \"#utility.yul\":18200:18320   */\n      iszero\n      tag_320\n      jumpi\n        /* \"#utility.yul\":18271:18310   */\n      tag_321\n        /* \"#utility.yul\":18308:18309   */\n      0x00\n        /* \"#utility.yul\":18301:18306   */\n      dup3\n        /* \"#utility.yul\":18271:18310   */\n      tag_84\n      jump\t// in\n    tag_321:\n        /* \"#utility.yul\":18244:18245   */\n      0x01\n        /* \"#utility.yul\":18237:18242   */\n      dup2\n        /* \"#utility.yul\":18233:18246   */\n      add\n        /* \"#utility.yul\":18224:18246   */\n      swap1\n      pop\n        /* \"#utility.yul\":18200:18320   */\n      jump(tag_318)\n    tag_320:\n        /* \"#utility.yul\":18139:18326   */\n      pop\n      pop\n      jump\t// out\n        /* \"#utility.yul\":18527:18635   */\n    tag_107:\n        /* \"#utility.yul\":18590:18628   */\n      tag_324\n        /* \"#utility.yul\":18626:18627   */\n      0x00\n        /* \"#utility.yul\":18620:18624   */\n      dup3\n        /* \"#utility.yul\":18590:18628   */\n      tag_104\n      jump\t// in\n    tag_324:\n        /* \"#utility.yul\":18527:18635   */\n      pop\n      jump\t// out\n        /* \"#utility.yul\":18641:18815   */\n    tag_108:\n        /* \"#utility.yul\":18732:18733   */\n      0x00\n        /* \"#utility.yul\":18724:18730   */\n      dup3\n        /* \"#utility.yul\":18721:18734   */\n      eq\n        /* \"#utility.yul\":18711:18758   */\n      tag_326\n      jumpi\n        /* \"#utility.yul\":18738:18756   */\n      tag_327\n      tag_63\n      jump\t// in\n    tag_327:\n        /* \"#utility.yul\":18711:18758   */\n    tag_326:\n        /* \"#utility.yul\":18767:18809   */\n      tag_328\n        /* \"#utility.yul\":18804:18808   */\n      dup2\n        /* \"#utility.yul\":18767:18809   */\n      tag_107\n      jump\t// in\n    tag_328:\n        /* \"#utility.yul\":18641:18815   */\n      pop\n      pop\n      jump\t// out\n        /* \"#utility.yul\":18821:19020   */\n    tag_109:\n        /* \"#utility.yul\":18897:18950   */\n      tag_330\n        /* \"#utility.yul\":18948:18949   */\n      0x00\n        /* \"#utility.yul\":18944:18945   */\n      0x00\n        /* \"#utility.yul\":18938:18942   */\n      dup4\n        /* \"#utility.yul\":18934:18946   */\n      add\n        /* \"#utility.yul\":18897:18950   */\n      tag_108\n      jump\t// in\n    tag_330:\n        /* \"#utility.yul\":18960:19013   */\n      tag_331\n        /* \"#utility.yul\":19011:19012   */\n      0x00\n        /* \"#utility.yul\":19007:19008   */\n      0x01\n        /* \"#utility.yul\":19001:19005   */\n      dup4\n        /* \"#utility.yul\":18997:19009   */\n      add\n        /* \"#utility.yul\":18960:19013   */\n      tag_108\n      jump\t// in\n    tag_331:\n        /* \"#utility.yul\":18821:19020   */\n      pop\n      jump\t// out\n        /* \"#utility.yul\":19026:19225   */\n    tag_110:\n        /* \"#utility.yul\":19129:19130   */\n      0x00\n        /* \"#utility.yul\":19121:19127   */\n      dup3\n        /* \"#utility.yul\":19118:19131   */\n      eq\n        /* \"#utility.yul\":19108:19155   */\n      tag_333\n      jumpi\n        /* \"#utility.yul\":19135:19153   */\n      tag_334\n      tag_63\n      jump\t// in\n    tag_334:\n        /* \"#utility.yul\":19108:19155   */\n    tag_333:\n        /* \"#utility.yul\":19164:19219   */\n      tag_335\n        /* \"#utility.yul\":19214:19218   */\n      dup2\n        /* \"#utility.yul\":19164:19219   */\n      tag_109\n      jump\t// in\n    tag_335:\n        /* \"#utility.yul\":19026:19225   */\n      pop\n      pop\n      jump\t// out\n        /* \"#utility.yul\":19231:19456   */\n    tag_111:\n        /* \"#utility.yul\":19311:19450   */\n    tag_337:\n        /* \"#utility.yul\":19328:19331   */\n      dup2\n        /* \"#utility.yul\":19321:19326   */\n      dup2\n        /* \"#utility.yul\":19318:19332   */\n      lt\n        /* \"#utility.yul\":19311:19450   */\n      iszero\n      tag_339\n      jumpi\n        /* \"#utility.yul\":19382:19440   */\n      tag_340\n        /* \"#utility.yul\":19438:19439   */\n      0x00\n        /* \"#utility.yul\":19431:19436   */\n      dup3\n        /* \"#utility.yul\":19382:19440   */\n      tag_110\n      jump\t// in\n    tag_340:\n        /* \"#utility.yul\":19355:19356   */\n      0x02\n        /* \"#utility.yul\":19348:19353   */\n      dup2\n        /* \"#utility.yul\":19344:19357   */\n      add\n        /* \"#utility.yul\":19335:19357   */\n      swap1\n      pop\n        /* \"#utility.yul\":19311:19450   */\n      jump(tag_337)\n    tag_339:\n        /* \"#utility.yul\":19231:19456   */\n      pop\n      pop\n      jump\t// out\n        /* \"#utility.yul\":19462:20238   */\n    tag_112:\n        /* \"#utility.yul\":19601:19604   */\n      dup2\n        /* \"#utility.yul\":19589:19599   */\n      dup4\n        /* \"#utility.yul\":19586:19605   */\n      lt\n        /* \"#utility.yul\":19583:20231   */\n      iszero\n      tag_342\n      jumpi\n        /* \"#utility.yul\":19692:19776   */\n      tag_343\n        /* \"#utility.yul\":19772:19775   */\n      dup3\n        /* \"#utility.yul\":19692:19776   */\n      tag_98\n      jump\t// in\n    tag_343:\n        /* \"#utility.yul\":19809:19900   */\n      tag_344\n        /* \"#utility.yul\":19889:19899   */\n      dup5\n        /* \"#utility.yul\":19809:19900   */\n      tag_98\n      jump\t// in\n    tag_344:\n        /* \"#utility.yul\":19935:20007   */\n      tag_345\n        /* \"#utility.yul\":20001:20006   */\n      dup4\n        /* \"#utility.yul\":19935:20007   */\n      tag_99\n      jump\t// in\n    tag_345:\n        /* \"#utility.yul\":20059:20071   */\n      dup2\n        /* \"#utility.yul\":20043:20057   */\n      dup2\n        /* \"#utility.yul\":20039:20072   */\n      add\n        /* \"#utility.yul\":20122:20134   */\n      dup4\n        /* \"#utility.yul\":20106:20120   */\n      dup3\n        /* \"#utility.yul\":20102:20135   */\n      add\n        /* \"#utility.yul\":20149:20221   */\n      tag_346\n        /* \"#utility.yul\":20211:20220   */\n      dup2\n        /* \"#utility.yul\":20198:20209   */\n      dup4\n        /* \"#utility.yul\":20149:20221   */\n      tag_111\n      jump\t// in\n    tag_346:\n        /* \"#utility.yul\":19606:20231   */\n      pop\n      pop\n      pop\n      pop\n      pop\n        /* \"#utility.yul\":19583:20231   */\n    tag_342:\n        /* \"#utility.yul\":19462:20238   */\n      pop\n      pop\n      pop\n      jump\t// out\n        /* \"#utility.yul\":20244:20689   */\n    tag_113:\n        /* \"#utility.yul\":20356:20376   */\n      0x010000000000000000\n        /* \"#utility.yul\":20348:20354   */\n      dup3\n        /* \"#utility.yul\":20345:20377   */\n      gt\n        /* \"#utility.yul\":20342:20420   */\n      iszero\n      tag_348\n      jumpi\n        /* \"#utility.yul\":20392:20410   */\n      tag_349\n      tag_76\n      jump\t// in\n    tag_349:\n        /* \"#utility.yul\":20342:20420   */\n    tag_348:\n        /* \"#utility.yul\":20444:20514   */\n      tag_350\n        /* \"#utility.yul\":20508:20513   */\n      dup2\n        /* \"#utility.yul\":20444:20514   */\n      tag_95\n      jump\t// in\n    tag_350:\n        /* \"#utility.yul\":20566:20572   */\n      dup3\n        /* \"#utility.yul\":20559:20564   */\n      dup3\n        /* \"#utility.yul\":20552:20573   */\n      sstore\n        /* \"#utility.yul\":20583:20682   */\n      tag_351\n        /* \"#utility.yul\":20675:20681   */\n      dup4\n        /* \"#utility.yul\":20667:20673   */\n      dup3\n        /* \"#utility.yul\":20660:20665   */\n      dup5\n        /* \"#utility.yul\":20583:20682   */\n      tag_112\n      jump\t// in\n    tag_351:\n        /* \"#utility.yul\":20332:20689   */\n      pop\n        /* \"#utility.yul\":20244:20689   */\n      pop\n      pop\n      jump\t// out\n        /* \"#utility.yul\":20694:20830   */\n    tag_114:\n        /* \"#utility.yul\":20792:20798   */\n      0x00\n        /* \"#utility.yul\":20820:20823   */\n      dup3\n        /* \"#utility.yul\":20810:20823   */\n      swap1\n      pop\n        /* \"#utility.yul\":20694:20830   */\n      swap3\n      swap2\n      pop\n      pop\n      jump\t// out\n        /* \"#utility.yul\":20836:21691   */\n    tag_115:\n        /* \"#utility.yul\":21006:21007   */\n      0x00\n        /* \"#utility.yul\":21000:21004   */\n      dup2\n        /* \"#utility.yul\":20996:21008   */\n      add\n        /* \"#utility.yul\":21052:21053   */\n      0x00\n        /* \"#utility.yul\":21045:21050   */\n      dup4\n        /* \"#utility.yul\":21041:21054   */\n      add\n        /* \"#utility.yul\":21117:21180   */\n      tag_354\n        /* \"#utility.yul\":21167:21179   */\n      dup2\n        /* \"#utility.yul\":21160:21165   */\n      dup6\n        /* \"#utility.yul\":21117:21180   */\n      tag_74\n      jump\t// in\n    tag_354:\n        /* \"#utility.yul\":21194:21307   */\n      tag_355\n        /* \"#utility.yul\":21293:21306   */\n      dup2\n        /* \"#utility.yul\":21278:21291   */\n      dup4\n        /* \"#utility.yul\":21266:21276   */\n      dup7\n        /* \"#utility.yul\":21194:21307   */\n      tag_91\n      jump\t// in\n    tag_355:\n        /* \"#utility.yul\":20963:21318   */\n      pop\n      pop\n      pop\n      pop\n        /* \"#utility.yul\":21371:21372   */\n      0x01\n        /* \"#utility.yul\":21365:21369   */\n      dup2\n        /* \"#utility.yul\":21361:21373   */\n      add\n        /* \"#utility.yul\":21417:21419   */\n      0x20\n        /* \"#utility.yul\":21410:21415   */\n      dup4\n        /* \"#utility.yul\":21406:21420   */\n      add\n        /* \"#utility.yul\":21483:21546   */\n      tag_356\n        /* \"#utility.yul\":21533:21545   */\n      dup2\n        /* \"#utility.yul\":21526:21531   */\n      dup6\n        /* \"#utility.yul\":21483:21546   */\n      tag_74\n      jump\t// in\n    tag_356:\n        /* \"#utility.yul\":21560:21673   */\n      tag_357\n        /* \"#utility.yul\":21659:21672   */\n      dup2\n        /* \"#utility.yul\":21644:21657   */\n      dup4\n        /* \"#utility.yul\":21632:21642   */\n      dup7\n        /* \"#utility.yul\":21560:21673   */\n      tag_91\n      jump\t// in\n    tag_357:\n        /* \"#utility.yul\":21328:21684   */\n      pop\n      pop\n      pop\n      pop\n        /* \"#utility.yul\":20836:21691   */\n      pop\n      pop\n      jump\t// out\n        /* \"#utility.yul\":21697:21942   */\n    tag_116:\n        /* \"#utility.yul\":21828:21936   */\n      tag_359\n        /* \"#utility.yul\":21928:21935   */\n      dup3\n        /* \"#utility.yul\":21922:21926   */\n      dup3\n        /* \"#utility.yul\":21828:21936   */\n      tag_115\n      jump\t// in\n    tag_359:\n        /* \"#utility.yul\":21697:21942   */\n      pop\n      pop\n      jump\t// out\n        /* \"#utility.yul\":21948:22934   */\n    tag_117:\n        /* \"#utility.yul\":22142:22227   */\n      tag_361\n        /* \"#utility.yul\":22223:22226   */\n      dup4\n        /* \"#utility.yul\":22216:22221   */\n      dup4\n        /* \"#utility.yul\":22142:22227   */\n      tag_114\n      jump\t// in\n    tag_361:\n        /* \"#utility.yul\":22237:22314   */\n      tag_362\n        /* \"#utility.yul\":22307:22313   */\n      dup2\n        /* \"#utility.yul\":22301:22305   */\n      dup4\n        /* \"#utility.yul\":22237:22314   */\n      tag_113\n      jump\t// in\n    tag_362:\n        /* \"#utility.yul\":22338:22420   */\n      tag_363\n        /* \"#utility.yul\":22414:22419   */\n      dup4\n        /* \"#utility.yul\":22338:22420   */\n      tag_93\n      jump\t// in\n    tag_363:\n        /* \"#utility.yul\":22449:22520   */\n      tag_364\n        /* \"#utility.yul\":22515:22519   */\n      dup4\n        /* \"#utility.yul\":22449:22520   */\n      tag_99\n      jump\t// in\n    tag_364:\n        /* \"#utility.yul\":22545:22546   */\n      0x00\n        /* \"#utility.yul\":22530:22928   */\n    tag_365:\n        /* \"#utility.yul\":22555:22561   */\n      dup4\n        /* \"#utility.yul\":22552:22553   */\n      dup2\n        /* \"#utility.yul\":22549:22562   */\n      lt\n        /* \"#utility.yul\":22530:22928   */\n      iszero\n      tag_367\n      jumpi\n        /* \"#utility.yul\":22627:22696   */\n      tag_368\n        /* \"#utility.yul\":22689:22695   */\n      dup4\n        /* \"#utility.yul\":22682:22687   */\n      dup8\n        /* \"#utility.yul\":22627:22696   */\n      tag_94\n      jump\t// in\n    tag_368:\n        /* \"#utility.yul\":22710:22831   */\n      tag_369\n        /* \"#utility.yul\":22819:22830   */\n      dup2\n        /* \"#utility.yul\":22806:22817   */\n      dup5\n        /* \"#utility.yul\":22710:22831   */\n      tag_116\n      jump\t// in\n    tag_369:\n        /* \"#utility.yul\":22867:22869   */\n      0x20\n        /* \"#utility.yul\":22859:22865   */\n      dup5\n        /* \"#utility.yul\":22855:22870   */\n      add\n        /* \"#utility.yul\":22845:22870   */\n      swap4\n      pop\n        /* \"#utility.yul\":22916:22917   */\n      0x02\n        /* \"#utility.yul\":22903:22914   */\n      dup4\n        /* \"#utility.yul\":22899:22918   */\n      add\n        /* \"#utility.yul\":22884:22918   */\n      swap3\n      pop\n        /* \"#utility.yul\":22580:22928   */\n      pop\n        /* \"#utility.yul\":22576:22577   */\n      0x01\n        /* \"#utility.yul\":22573:22574   */\n      dup2\n        /* \"#utility.yul\":22569:22578   */\n      add\n        /* \"#utility.yul\":22564:22578   */\n      swap1\n      pop\n        /* \"#utility.yul\":22530:22928   */\n      jump(tag_365)\n    tag_367:\n        /* \"#utility.yul\":22534:22548   */\n      pop\n        /* \"#utility.yul\":22117:22934   */\n      pop\n      pop\n      pop\n        /* \"#utility.yul\":21948:22934   */\n      pop\n      pop\n      pop\n      jump\t// out\n        /* \"#utility.yul\":22940:23300   */\n    tag_118:\n        /* \"#utility.yul\":23129:23294   */\n      tag_371\n        /* \"#utility.yul\":23286:23293   */\n      dup4\n        /* \"#utility.yul\":23277:23284   */\n      dup4\n        /* \"#utility.yul\":23271:23275   */\n      dup4\n        /* \"#utility.yul\":23129:23294   */\n      tag_117\n      jump\t// in\n    tag_371:\n        /* \"#utility.yul\":22940:23300   */\n      pop\n      pop\n      pop\n      jump\t// out\n        /* \"#utility.yul\":23306:24612   */\n    tag_119:\n        /* \"#utility.yul\":23476:23477   */\n      0x00\n        /* \"#utility.yul\":23470:23474   */\n      dup2\n        /* \"#utility.yul\":23466:23478   */\n      add\n        /* \"#utility.yul\":23522:23523   */\n      0x00\n        /* \"#utility.yul\":23515:23520   */\n      dup4\n        /* \"#utility.yul\":23511:23524   */\n      add\n        /* \"#utility.yul\":23572:23584   */\n      dup1\n        /* \"#utility.yul\":23615:23657   */\n      tag_373\n        /* \"#utility.yul\":23643:23656   */\n      dup2\n        /* \"#utility.yul\":23615:23657   */\n      tag_64\n      jump\t// in\n    tag_373:\n        /* \"#utility.yul\":23598:23657   */\n      swap1\n      pop\n        /* \"#utility.yul\":23671:23750   */\n      tag_374\n        /* \"#utility.yul\":23736:23749   */\n      dup2\n        /* \"#utility.yul\":23724:23734   */\n      dup5\n        /* \"#utility.yul\":23671:23750   */\n      tag_70\n      jump\t// in\n    tag_374:\n        /* \"#utility.yul\":23433:23761   */\n      pop\n      pop\n      pop\n        /* \"#utility.yul\":23814:23815   */\n      0x01\n        /* \"#utility.yul\":23808:23812   */\n      dup2\n        /* \"#utility.yul\":23804:23816   */\n      add\n        /* \"#utility.yul\":23860:23862   */\n      0x20\n        /* \"#utility.yul\":23853:23858   */\n      dup4\n        /* \"#utility.yul\":23849:23863   */\n      add\n        /* \"#utility.yul\":23926:23989   */\n      tag_375\n        /* \"#utility.yul\":23976:23988   */\n      dup2\n        /* \"#utility.yul\":23969:23974   */\n      dup6\n        /* \"#utility.yul\":23926:23989   */\n      tag_74\n      jump\t// in\n    tag_375:\n        /* \"#utility.yul\":24003:24116   */\n      tag_376\n        /* \"#utility.yul\":24102:24115   */\n      dup2\n        /* \"#utility.yul\":24087:24100   */\n      dup4\n        /* \"#utility.yul\":24075:24085   */\n      dup7\n        /* \"#utility.yul\":24003:24116   */\n      tag_91\n      jump\t// in\n    tag_376:\n        /* \"#utility.yul\":23771:24127   */\n      pop\n      pop\n      pop\n      pop\n        /* \"#utility.yul\":24180:24181   */\n      0x02\n        /* \"#utility.yul\":24174:24178   */\n      dup2\n        /* \"#utility.yul\":24170:24182   */\n      add\n        /* \"#utility.yul\":24226:24228   */\n      0x40\n        /* \"#utility.yul\":24219:24224   */\n      dup4\n        /* \"#utility.yul\":24215:24229   */\n      add\n        /* \"#utility.yul\":24292:24394   */\n      tag_377\n        /* \"#utility.yul\":24381:24393   */\n      dup2\n        /* \"#utility.yul\":24374:24379   */\n      dup6\n        /* \"#utility.yul\":24292:24394   */\n      tag_92\n      jump\t// in\n    tag_377:\n        /* \"#utility.yul\":24408:24594   */\n      tag_378\n        /* \"#utility.yul\":24580:24593   */\n      dup2\n        /* \"#utility.yul\":24565:24578   */\n      dup4\n        /* \"#utility.yul\":24553:24563   */\n      dup7\n        /* \"#utility.yul\":24408:24594   */\n      tag_118\n      jump\t// in\n    tag_378:\n        /* \"#utility.yul\":24137:24605   */\n      pop\n      pop\n      pop\n      pop\n        /* \"#utility.yul\":23306:24612   */\n      pop\n      pop\n      jump\t// out\n        /* \"#utility.yul\":24618:24863   */\n    tag_29:\n        /* \"#utility.yul\":24749:24857   */\n      tag_380\n        /* \"#utility.yul\":24849:24856   */\n      dup3\n        /* \"#utility.yul\":24843:24847   */\n      dup3\n        /* \"#utility.yul\":24749:24857   */\n      tag_119\n      jump\t// in\n    tag_380:\n        /* \"#utility.yul\":24618:24863   */\n      pop\n      pop\n      jump\t// out\n\n    auxdata: 0xa2646970667358221220e9c4ea5f74b7e0e6baac6fe20c8149e39a18a53fbd3f7aee7dde707bdc890f4b64736f6c634300081e0033\n}\n",
				"bytecode": {
					"linkReferences": {},
					"object": "6080604052348015600e575f5ffd5b50610ed48061001c5f395ff3fe608060405234801561000f575f5ffd5b506004361061004a575f3560e01c80635030e3701461004e578063a2f9eac61461006a578063c52e84651461009b578063ed3ac0de146100b7575b5f5ffd5b610068600480360381019061006391906102f6565b6100e8565b005b610084600480360381019061007f9190610370565b610121565b60405161009292919061041a565b60405180910390f35b6100b560048036038101906100b091906104a2565b6101d5565b005b6100d160048036038101906100cc91906104fc565b610226565b6040516100df92919061041a565b60405180910390f35b5f81908060018154018082558091505060019003905f5260205f2090600302015f90919091909150818161011c9190610e90565b505050565b5f818154811061012f575f80fd5b905f5260205f2090600302015f91509050805f015490806001018054610154906106dc565b80601f0160208091040260200160405190810160405280929190818152602001828054610180906106dc565b80156101cb5780601f106101a2576101008083540402835291602001916101cb565b820191905f5260205f20905b8154815290600101906020018083116101ae57829003601f168201915b5050505050905082565b8160015f8373ffffffffffffffffffffffffffffffffffffffff1673ffffffffffffffffffffffffffffffffffffffff1681526020019081526020015f20818161021f9190610e90565b9050505050565b6001602052805f5260405f205f91509050805f01549080600101805461024b906106dc565b80601f0160208091040260200160405190810160405280929190818152602001828054610277906106dc565b80156102c25780601f10610299576101008083540402835291602001916102c2565b820191905f5260205f20905b8154815290600101906020018083116102a557829003601f168201915b5050505050905082565b5f5ffd5b5f5ffd5b5f5ffd5b5f606082840312156102ed576102ec6102d4565b5b81905092915050565b5f6020828403121561030b5761030a6102cc565b5b5f82013567ffffffffffffffff811115610328576103276102d0565b5b610334848285016102d8565b91505092915050565b5f819050919050565b61034f8161033d565b8114610359575f5ffd5b50565b5f8135905061036a81610346565b92915050565b5f60208284031215610385576103846102cc565b5b5f6103928482850161035c565b91505092915050565b6103a48161033d565b82525050565b5f81519050919050565b5f82825260208201905092915050565b8281835e5f83830152505050565b5f601f19601f8301169050919050565b5f6103ec826103aa565b6103f681856103b4565b93506104068185602086016103c4565b61040f816103d2565b840191505092915050565b5f60408201905061042d5f83018561039b565b818103602083015261043f81846103e2565b90509392505050565b5f73ffffffffffffffffffffffffffffffffffffffff82169050919050565b5f61047182610448565b9050919050565b61048181610467565b811461048b575f5ffd5b50565b5f8135905061049c81610478565b92915050565b5f5f604083850312156104b8576104b76102cc565b5b5f83013567ffffffffffffffff8111156104d5576104d46102d0565b5b6104e1858286016102d8565b92505060206104f28582860161048e565b9150509250929050565b5f60208284031215610511576105106102cc565b5b5f61051e8482850161048e565b91505092915050565b7f4e487b71000000000000000000000000000000000000000000000000000000005f525f60045260245ffd5b5f813561055f81610346565b80915050919050565b5f815f1b9050919050565b5f7fffffffffffffffffffffffffffffffffffffffffffffffffffffffffffffffff61059e84610568565b9350801983169250808416831791505092915050565b5f819050919050565b5f6105d76105d26105cd8461033d565b6105b4565b61033d565b9050919050565b5f819050919050565b6105f0826105bd565b6106036105fc826105de565b8354610573565b8255505050565b5f5ffd5b5f5ffd5b5f5ffd5b5f5f833560016020038436030381126106325761063161060a565b5b80840192508235915067ffffffffffffffff8211156106545761065361060e565b5b6020830192506001820236038313156106705761066f610612565b5b509250929050565b5f82905092915050565b7f4e487b71000000000000000000000000000000000000000000000000000000005f52604160045260245ffd5b7f4e487b71000000000000000000000000000000000000000000000000000000005f52602260045260245ffd5b5f60028204905060018216806106f357607f821691505b602082108103610706576107056106af565b5b50919050565b5f819050815f5260205f209050919050565b5f6020601f8301049050919050565b5f82821b905092915050565b5f600883026107687fffffffffffffffffffffffffffffffffffffffffffffffffffffffffffffffff8261072d565b610772868361072d565b95508019841693508086168417925050509392505050565b610793836105bd565b6107a761079f826105de565b848454610739565b825550505050565b5f5f905090565b6107be6107af565b6107c981848461078a565b505050565b5b818110156107ec576107e15f826107b6565b6001810190506107cf565b5050565b601f821115610831576108028161070c565b61080b8461071e565b8101602085101561081a578190505b61082e6108268561071e565b8301826107ce565b50505b505050565b5f82821c905092915050565b5f6108515f1984600802610836565b1980831691505092915050565b5f6108698383610842565b9150826002028217905092915050565b6108838383610678565b67ffffffffffffffff81111561089c5761089b610682565b5b6108a682546106dc565b6108b18282856107f0565b5f601f8311600181146108de575f84156108cc578287013590505b6108d6858261085e565b86555061093d565b601f1984166108ec8661070c565b5f5b82811015610913578489013582556001820191506020850194506020810190506108ee565b86831015610930578489013561092c601f891682610842565b8355505b6001600288020188555050505b50505050505050565b610951838383610879565b505050565b5f5f833560016020038436030381126109725761097161060a565b5b80840192508235915067ffffffffffffffff8211156109945761099361060e565b5b6020830192506020820236038313156109b0576109af610612565b5b509250929050565b5f819050919050565b5f823560016040038336030381126109dc576109db61060a565b5b80830191505092915050565b5f81549050919050565b7f4e487b71000000000000000000000000000000000000000000000000000000005f52601160045260245ffd5b5f610a298261033d565b9150610a348361033d565b9250828202610a428161033d565b91508282048414831517610a5957610a586109f2565b5b5092915050565b5f819050610a6f826002610a1f565b9050919050565b5f819050815f5260205f209050919050565b610ab87fffffffffffffffffffffffffffffffffffffffffffffffffffffffffffffffff83602003600802610836565b815481168255505050565b610acc8161070c565b610ad783825461085e565b8083555f825550505050565b602084105f8114610b3d57601f841160018114610b0b57610b04868561085e565b8355610b37565b610b148361070c565b610b2b610b208761071e565b8201600183016107ce565b610b358785610ac3565b505b50610b8a565b610b468261070c565b610b4f8661071e565b8101601f87168015610b6957610b688160018403610a88565b5b610b7d610b758861071e565b8401836107ce565b6001886002021785555050505b5050505050565b68010000000000000000841115610bab57610baa610682565b5b602083105f8114610bf457602085105f8114610bd257610bcb868561085e565b8355610bee565b8360ff1916935083610be38461070c565b556001866002020183555b50610bfe565b6001856002020182555b5050505050565b8054610c10816106dc565b80841115610c2557610c2484828486610b91565b5b80841015610c3a57610c3984828486610ae3565b5b50505050565b81811015610c5d57610c525f826107b6565b600181019050610c40565b5050565b610c6b5f82610c05565b50565b5f8214610c7e57610c7d610527565b5b610c8781610c61565b5050565b610c975f5f8301610c6e565b610ca45f60018301610c6e565b50565b5f8214610cb757610cb6610527565b5b610cc081610c8b565b5050565b5b81811015610ce257610cd75f82610ca7565b600281019050610cc5565b5050565b81831015610d1f57610cf782610a60565b610d0084610a60565b610d0983610a76565b818101838201610d198183610cc4565b50505050505b505050565b68010000000000000000821115610d3e57610d3d610682565b5b610d47816109e8565b828255610d55838284610ce6565b505050565b5f82905092915050565b5f81015f8301610d748185610616565b610d7f818386610946565b505050506001810160208301610d958185610616565b610da0818386610946565b505050505050565b610db28282610d64565b5050565b610dc08383610d5a565b610dca8183610d24565b610dd3836109b8565b610ddc83610a76565b5f5b83811015610e1257610df083876109c1565b610dfa8184610da8565b60208401935060028301925050600181019050610dde565b50505050505050565b610e26838383610db6565b505050565b5f81015f830180610e3b81610553565b9050610e4781846105e7565b5050506001810160208301610e5c8185610616565b610e67818386610946565b505050506002810160408301610e7d8185610956565b610e88818386610e1b565b505050505050565b610e9a8282610e2b565b505056fea2646970667358221220e9c4ea5f74b7e0e6baac6fe20c8149e39a18a53fbd3f7aee7dde707bdc890f4b64736f6c634300081e0033",
					"opcodes": "PUSH1 0x80 PUSH1 0x40 MSTORE CALLVALUE DUP1 ISZERO PUSH1 0xE JUMPI PUSH0 PUSH0 REVERT JUMPDEST POP PUSH2 0xED4 DUP1 PUSH2 0x1C PUSH0 CODECOPY PUSH0 RETURN INVALID PUSH1 0x80 PUSH1 0x40 MSTORE CALLVALUE DUP1 ISZERO PUSH2 0xF JUMPI PUSH0 PUSH0 REVERT JUMPDEST POP PUSH1 0x4 CALLDATASIZE LT PUSH2 0x4A JUMPI PUSH0 CALLDATALOAD PUSH1 0xE0 SHR DUP1 PUSH4 0x5030E370 EQ PUSH2 0x4E JUMPI DUP1 PUSH4 0xA2F9EAC6 EQ PUSH2 0x6A JUMPI DUP1 PUSH4 0xC52E8465 EQ PUSH2 0x9B JUMPI DUP1 PUSH4 0xED3AC0DE EQ PUSH2 0xB7 JUMPI JUMPDEST PUSH0 PUSH0 REVERT JUMPDEST PUSH2 0x68 PUSH1 0x4 DUP1 CALLDATASIZE SUB DUP2 ADD SWAP1 PUSH2 0x63 SWAP2 SWAP1 PUSH2 0x2F6 JUMP JUMPDEST PUSH2 0xE8 JUMP JUMPDEST STOP JUMPDEST PUSH2 0x84 PUSH1 0x4 DUP1 CALLDATASIZE SUB DUP2 ADD SWAP1 PUSH2 0x7F SWAP2 SWAP1 PUSH2 0x370 JUMP JUMPDEST PUSH2 0x121 JUMP JUMPDEST PUSH1 0x40 MLOAD PUSH2 0x92 SWAP3 SWAP2 SWAP1 PUSH2 0x41A JUMP JUMPDEST PUSH1 0x40 MLOAD DUP1 SWAP2 SUB SWAP1 RETURN JUMPDEST PUSH2 0xB5 PUSH1 0x4 DUP1 CALLDATASIZE SUB DUP2 ADD SWAP1 PUSH2 0xB0 SWAP2 SWAP1 PUSH2 0x4A2 JUMP JUMPDEST PUSH2 0x1D5 JUMP JUMPDEST STOP JUMPDEST PUSH2 0xD1 PUSH1 0x4 DUP1 CALLDATASIZE SUB DUP2 ADD SWAP1 PUSH2 0xCC SWAP2 SWAP1 PUSH2 0x4FC JUMP JUMPDEST PUSH2 0x226 JUMP JUMPDEST PUSH1 0x40 MLOAD PUSH2 0xDF SWAP3 SWAP2 SWAP1 PUSH2 0x41A JUMP JUMPDEST PUSH1 0x40 MLOAD DUP1 SWAP2 SUB SWAP1 RETURN JUMPDEST PUSH0 DUP2 SWAP1 DUP1 PUSH1 0x1 DUP2 SLOAD ADD DUP1 DUP3 SSTORE DUP1 SWAP2 POP POP PUSH1 0x1 SWAP1 SUB SWAP1 PUSH0 MSTORE PUSH1 0x20 PUSH0 KECCAK256 SWAP1 PUSH1 0x3 MUL ADD PUSH0 SWAP1 SWAP2 SWAP1 SWAP2 SWAP1 SWAP2 POP DUP2 DUP2 PUSH2 0x11C SWAP2 SWAP1 PUSH2 0xE90 JUMP JUMPDEST POP POP POP JUMP JUMPDEST PUSH0 DUP2 DUP2 SLOAD DUP2 LT PUSH2 0x12F JUMPI PUSH0 DUP1 REVERT JUMPDEST SWAP1 PUSH0 MSTORE PUSH1 0x20 PUSH0 KECCAK256 SWAP1 PUSH1 0x3 MUL ADD PUSH0 SWAP2 POP SWAP1 POP DUP1 PUSH0 ADD SLOAD SWAP1 DUP1 PUSH1 0x1 ADD DUP1 SLOAD PUSH2 0x154 SWAP1 PUSH2 0x6DC JUMP JUMPDEST DUP1 PUSH1 0x1F ADD PUSH1 0x20 DUP1 SWAP2 DIV MUL PUSH1 0x20 ADD PUSH1 0x40 MLOAD SWAP1 DUP2 ADD PUSH1 0x40 MSTORE DUP1 SWAP3 SWAP2 SWAP1 DUP2 DUP2 MSTORE PUSH1 0x20 ADD DUP3 DUP1 SLOAD PUSH2 0x180 SWAP1 PUSH2 0x6DC JUMP JUMPDEST DUP1 ISZERO PUSH2 0x1CB JUMPI DUP1 PUSH1 0x1F LT PUSH2 0x1A2 JUMPI PUSH2 0x100 DUP1 DUP4 SLOAD DIV MUL DUP4 MSTORE SWAP2 PUSH1 0x20 ADD SWAP2 PUSH2 0x1CB JUMP JUMPDEST DUP3 ADD SWAP2 SWAP1 PUSH0 MSTORE PUSH1 0x20 PUSH0 KECCAK256 SWAP1 JUMPDEST DUP2 SLOAD DUP2 MSTORE SWAP1 PUSH1 0x1 ADD SWAP1 PUSH1 0x20 ADD DUP1 DUP4 GT PUSH2 0x1AE JUMPI DUP3 SWAP1 SUB PUSH1 0x1F AND DUP3 ADD SWAP2 JUMPDEST POP POP POP POP POP SWAP1 POP DUP3 JUMP JUMPDEST DUP2 PUSH1 0x1 PUSH0 DUP4 PUSH20 0xFFFFFFFFFFFFFFFFFFFFFFFFFFFFFFFFFFFFFFFF AND PUSH20 0xFFFFFFFFFFFFFFFFFFFFFFFFFFFFFFFFFFFFFFFF AND DUP2 MSTORE PUSH1 0x20 ADD SWAP1 DUP2 MSTORE PUSH1 0x20 ADD PUSH0 KECCAK256 DUP2 DUP2 PUSH2 0x21F SWAP2 SWAP1 PUSH2 0xE90 JUMP JUMPDEST SWAP1 POP POP POP POP JUMP JUMPDEST PUSH1 0x1 PUSH1 0x20 MSTORE DUP1 PUSH0 MSTORE PUSH1 0x40 PUSH0 KECCAK256 PUSH0 SWAP2 POP SWAP1 POP DUP1 PUSH0 ADD SLOAD SWAP1 DUP1 PUSH1 0x1 ADD DUP1 SLOAD PUSH2 0x24B SWAP1 PUSH2 0x6DC JUMP JUMPDEST DUP1 PUSH1 0x1F ADD PUSH1 0x20 DUP1 SWAP2 DIV MUL PUSH1 0x20 ADD PUSH1 0x40 MLOAD SWAP1 DUP2 ADD PUSH1 0x40 MSTORE DUP1 SWAP3 SWAP2 SWAP1 DUP2 DUP2 MSTORE PUSH1 0x20 ADD DUP3 DUP1 SLOAD PUSH2 0x277 SWAP1 PUSH2 0x6DC JUMP JUMPDEST DUP1 ISZERO PUSH2 0x2C2 JUMPI DUP1 PUSH1 0x1F LT PUSH2 0x299 JUMPI PUSH2 0x100 DUP1 DUP4 SLOAD DIV MUL DUP4 MSTORE SWAP2 PUSH1 0x20 ADD SWAP2 PUSH2 0x2C2 JUMP JUMPDEST DUP3 ADD SWAP2 SWAP1 PUSH0 MSTORE PUSH1 0x20 PUSH0 KECCAK256 SWAP1 JUMPDEST DUP2 SLOAD DUP2 MSTORE SWAP1 PUSH1 0x1 ADD SWAP1 PUSH1 0x20 ADD DUP1 DUP4 GT PUSH2 0x2A5 JUMPI DUP3 SWAP1 SUB PUSH1 0x1F AND DUP3 ADD SWAP2 JUMPDEST POP POP POP POP POP SWAP1 POP DUP3 JUMP JUMPDEST PUSH0 PUSH0 REVERT JUMPDEST PUSH0 PUSH0 REVERT JUMPDEST PUSH0 PUSH0 REVERT JUMPDEST PUSH0 PUSH1 0x60 DUP3 DUP5 SUB SLT ISZERO PUSH2 0x2ED JUMPI PUSH2 0x2EC PUSH2 0x2D4 JUMP JUMPDEST JUMPDEST DUP2 SWAP1 POP SWAP3 SWAP2 POP POP JUMP JUMPDEST PUSH0 PUSH1 0x20 DUP3 DUP5 SUB SLT ISZERO PUSH2 0x30B JUMPI PUSH2 0x30A PUSH2 0x2CC JUMP JUMPDEST JUMPDEST PUSH0 DUP3 ADD CALLDATALOAD PUSH8 0xFFFFFFFFFFFFFFFF DUP2 GT ISZERO PUSH2 0x328 JUMPI PUSH2 0x327 PUSH2 0x2D0 JUMP JUMPDEST JUMPDEST PUSH2 0x334 DUP5 DUP3 DUP6 ADD PUSH2 0x2D8 JUMP JUMPDEST SWAP2 POP POP SWAP3 SWAP2 POP POP JUMP JUMPDEST PUSH0 DUP2 SWAP1 POP SWAP2 SWAP1 POP JUMP JUMPDEST PUSH2 0x34F DUP2 PUSH2 0x33D JUMP JUMPDEST DUP2 EQ PUSH2 0x359 JUMPI PUSH0 PUSH0 REVERT JUMPDEST POP JUMP JUMPDEST PUSH0 DUP2 CALLDATALOAD SWAP1 POP PUSH2 0x36A DUP2 PUSH2 0x346 JUMP JUMPDEST SWAP3 SWAP2 POP POP JUMP JUMPDEST PUSH0 PUSH1 0x20 DUP3 DUP5 SUB SLT ISZERO PUSH2 0x385 JUMPI PUSH2 0x384 PUSH2 0x2CC JUMP JUMPDEST JUMPDEST PUSH0 PUSH2 0x392 DUP5 DUP3 DUP6 ADD PUSH2 0x35C JUMP JUMPDEST SWAP2 POP POP SWAP3 SWAP2 POP POP JUMP JUMPDEST PUSH2 0x3A4 DUP2 PUSH2 0x33D JUMP JUMPDEST DUP3 MSTORE POP POP JUMP JUMPDEST PUSH0 DUP2 MLOAD SWAP1 POP SWAP2 SWAP1 POP JUMP JUMPDEST PUSH0 DUP3 DUP3 MSTORE PUSH1 0x20 DUP3 ADD SWAP1 POP SWAP3 SWAP2 POP POP JUMP JUMPDEST DUP3 DUP2 DUP4 MCOPY PUSH0 DUP4 DUP4 ADD MSTORE POP POP POP JUMP JUMPDEST PUSH0 PUSH1 0x1F NOT PUSH1 0x1F DUP4 ADD AND SWAP1 POP SWAP2 SWAP1 POP JUMP JUMPDEST PUSH0 PUSH2 0x3EC DUP3 PUSH2 0x3AA JUMP JUMPDEST PUSH2 0x3F6 DUP2 DUP6 PUSH2 0x3B4 JUMP JUMPDEST SWAP4 POP PUSH2 0x406 DUP2 DUP6 PUSH1 0x20 DUP7 ADD PUSH2 0x3C4 JUMP JUMPDEST PUSH2 0x40F DUP2 PUSH2 0x3D2 JUMP JUMPDEST DUP5 ADD SWAP2 POP POP SWAP3 SWAP2 POP POP JUMP JUMPDEST PUSH0 PUSH1 0x40 DUP3 ADD SWAP1 POP PUSH2 0x42D PUSH0 DUP4 ADD DUP6 PUSH2 0x39B JUMP JUMPDEST DUP2 DUP2 SUB PUSH1 0x20 DUP4 ADD MSTORE PUSH2 0x43F DUP2 DUP5 PUSH2 0x3E2 JUMP JUMPDEST SWAP1 POP SWAP4 SWAP3 POP POP POP JUMP JUMPDEST PUSH0 PUSH20 0xFFFFFFFFFFFFFFFFFFFFFFFFFFFFFFFFFFFFFFFF DUP3 AND SWAP1 POP SWAP2 SWAP1 POP JUMP JUMPDEST PUSH0 PUSH2 0x471 DUP3 PUSH2 0x448 JUMP JUMPDEST SWAP1 POP SWAP2 SWAP1 POP JUMP JUMPDEST PUSH2 0x481 DUP2 PUSH2 0x467 JUMP JUMPDEST DUP2 EQ PUSH2 0x48B JUMPI PUSH0 PUSH0 REVERT JUMPDEST POP JUMP JUMPDEST PUSH0 DUP2 CALLDATALOAD SWAP1 POP PUSH2 0x49C DUP2 PUSH2 0x478 JUMP JUMPDEST SWAP3 SWAP2 POP POP JUMP JUMPDEST PUSH0 PUSH0 PUSH1 0x40 DUP4 DUP6 SUB SLT ISZERO PUSH2 0x4B8 JUMPI PUSH2 0x4B7 PUSH2 0x2CC JUMP JUMPDEST JUMPDEST PUSH0 DUP4 ADD CALLDATALOAD PUSH8 0xFFFFFFFFFFFFFFFF DUP2 GT ISZERO PUSH2 0x4D5 JUMPI PUSH2 0x4D4 PUSH2 0x2D0 JUMP JUMPDEST JUMPDEST PUSH2 0x4E1 DUP6 DUP3 DUP7 ADD PUSH2 0x2D8 JUMP JUMPDEST SWAP3 POP POP PUSH1 0x20 PUSH2 0x4F2 DUP6 DUP3 DUP7 ADD PUSH2 0x48E JUMP JUMPDEST SWAP2 POP POP SWAP3 POP SWAP3 SWAP1 POP JUMP JUMPDEST PUSH0 PUSH1 0x20 DUP3 DUP5 SUB SLT ISZERO PUSH2 0x511 JUMPI PUSH2 0x510 PUSH2 0x2CC JUMP JUMPDEST JUMPDEST PUSH0 PUSH2 0x51E DUP5 DUP3 DUP6 ADD PUSH2 0x48E JUMP JUMPDEST SWAP2 POP POP SWAP3 SWAP2 POP POP JUMP JUMPDEST PUSH32 0x4E487B7100000000000000000000000000000000000000000000000000000000 PUSH0 MSTORE PUSH0 PUSH1 0x4 MSTORE PUSH1 0x24 PUSH0 REVERT JUMPDEST PUSH0 DUP2 CALLDATALOAD PUSH2 0x55F DUP2 PUSH2 0x346 JUMP JUMPDEST DUP1 SWAP2 POP POP SWAP2 SWAP1 POP JUMP JUMPDEST PUSH0 DUP2 PUSH0 SHL SWAP1 POP SWAP2 SWAP1 POP JUMP JUMPDEST PUSH0 PUSH32 0xFFFFFFFFFFFFFFFFFFFFFFFFFFFFFFFFFFFFFFFFFFFFFFFFFFFFFFFFFFFFFFFF PUSH2 0x59E DUP5 PUSH2 0x568 JUMP JUMPDEST SWAP4 POP DUP1 NOT DUP4 AND SWAP3 POP DUP1 DUP5 AND DUP4 OR SWAP2 POP POP SWAP3 SWAP2 POP POP JUMP JUMPDEST PUSH0 DUP2 SWAP1 POP SWAP2 SWAP1 POP JUMP JUMPDEST PUSH0 PUSH2 0x5D7 PUSH2 0x5D2 PUSH2 0x5CD DUP5 PUSH2 0x33D JUMP JUMPDEST PUSH2 0x5B4 JUMP JUMPDEST PUSH2 0x33D JUMP JUMPDEST SWAP1 POP SWAP2 SWAP1 POP JUMP JUMPDEST PUSH0 DUP2 SWAP1 POP SWAP2 SWAP1 POP JUMP JUMPDEST PUSH2 0x5F0 DUP3 PUSH2 0x5BD JUMP JUMPDEST PUSH2 0x603 PUSH2 0x5FC DUP3 PUSH2 0x5DE JUMP JUMPDEST DUP4 SLOAD PUSH2 0x573 JUMP JUMPDEST DUP3 SSTORE POP POP POP JUMP JUMPDEST PUSH0 PUSH0 REVERT JUMPDEST PUSH0 PUSH0 REVERT JUMPDEST PUSH0 PUSH0 REVERT JUMPDEST PUSH0 PUSH0 DUP4 CALLDATALOAD PUSH1 0x1 PUSH1 0x20 SUB DUP5 CALLDATASIZE SUB SUB DUP2 SLT PUSH2 0x632 JUMPI PUSH2 0x631 PUSH2 0x60A JUMP JUMPDEST JUMPDEST DUP1 DUP5 ADD SWAP3 POP DUP3 CALLDATALOAD SWAP2 POP PUSH8 0xFFFFFFFFFFFFFFFF DUP3 GT ISZERO PUSH2 0x654 JUMPI PUSH2 0x653 PUSH2 0x60E JUMP JUMPDEST JUMPDEST PUSH1 0x20 DUP4 ADD SWAP3 POP PUSH1 0x1 DUP3 MUL CALLDATASIZE SUB DUP4 SGT ISZERO PUSH2 0x670 JUMPI PUSH2 0x66F PUSH2 0x612 JUMP JUMPDEST JUMPDEST POP SWAP3 POP SWAP3 SWAP1 POP JUMP JUMPDEST PUSH0 DUP3 SWAP1 POP SWAP3 SWAP2 POP POP JUMP JUMPDEST PUSH32 0x4E487B7100000000000000000000000000000000000000000000000000000000 PUSH0 MSTORE PUSH1 0x41 PUSH1 0x4 MSTORE PUSH1 0x24 PUSH0 REVERT JUMPDEST PUSH32 0x4E487B7100000000000000000000000000000000000000000000000000000000 PUSH0 MSTORE PUSH1 0x22 PUSH1 0x4 MSTORE PUSH1 0x24 PUSH0 REVERT JUMPDEST PUSH0 PUSH1 0x2 DUP3 DIV SWAP1 POP PUSH1 0x1 DUP3 AND DUP1 PUSH2 0x6F3 JUMPI PUSH1 0x7F DUP3 AND SWAP2 POP JUMPDEST PUSH1 0x20 DUP3 LT DUP2 SUB PUSH2 0x706 JUMPI PUSH2 0x705 PUSH2 0x6AF JUMP JUMPDEST JUMPDEST POP SWAP2 SWAP1 POP JUMP JUMPDEST PUSH0 DUP2 SWAP1 POP DUP2 PUSH0 MSTORE PUSH1 0x20 PUSH0 KECCAK256 SWAP1 POP SWAP2 SWAP1 POP JUMP JUMPDEST PUSH0 PUSH1 0x20 PUSH1 0x1F DUP4 ADD DIV SWAP1 POP SWAP2 SWAP1 POP JUMP JUMPDEST PUSH0 DUP3 DUP3 SHL SWAP1 POP SWAP3 SWAP2 POP POP JUMP JUMPDEST PUSH0 PUSH1 0x8 DUP4 MUL PUSH2 0x768 PUSH32 0xFFFFFFFFFFFFFFFFFFFFFFFFFFFFFFFFFFFFFFFFFFFFFFFFFFFFFFFFFFFFFFFF DUP3 PUSH2 0x72D JUMP JUMPDEST PUSH2 0x772 DUP7 DUP4 PUSH2 0x72D JUMP JUMPDEST SWAP6 POP DUP1 NOT DUP5 AND SWAP4 POP DUP1 DUP7 AND DUP5 OR SWAP3 POP POP POP SWAP4 SWAP3 POP POP POP JUMP JUMPDEST PUSH2 0x793 DUP4 PUSH2 0x5BD JUMP JUMPDEST PUSH2 0x7A7 PUSH2 0x79F DUP3 PUSH2 0x5DE JUMP JUMPDEST DUP5 DUP5 SLOAD PUSH2 0x739 JUMP JUMPDEST DUP3 SSTORE POP POP POP POP JUMP JUMPDEST PUSH0 PUSH0 SWAP1 POP SWAP1 JUMP JUMPDEST PUSH2 0x7BE PUSH2 0x7AF JUMP JUMPDEST PUSH2 0x7C9 DUP2 DUP5 DUP5 PUSH2 0x78A JUMP JUMPDEST POP POP POP JUMP JUMPDEST JUMPDEST DUP2 DUP2 LT ISZERO PUSH2 0x7EC JUMPI PUSH2 0x7E1 PUSH0 DUP3 PUSH2 0x7B6 JUMP JUMPDEST PUSH1 0x1 DUP2 ADD SWAP1 POP PUSH2 0x7CF JUMP JUMPDEST POP POP JUMP JUMPDEST PUSH1 0x1F DUP3 GT ISZERO PUSH2 0x831 JUMPI PUSH2 0x802 DUP2 PUSH2 0x70C JUMP JUMPDEST PUSH2 0x80B DUP5 PUSH2 0x71E JUMP JUMPDEST DUP2 ADD PUSH1 0x20 DUP6 LT ISZERO PUSH2 0x81A JUMPI DUP2 SWAP1 POP JUMPDEST PUSH2 0x82E PUSH2 0x826 DUP6 PUSH2 0x71E JUMP JUMPDEST DUP4 ADD DUP3 PUSH2 0x7CE JUMP JUMPDEST POP POP JUMPDEST POP POP POP JUMP JUMPDEST PUSH0 DUP3 DUP3 SHR SWAP1 POP SWAP3 SWAP2 POP POP JUMP JUMPDEST PUSH0 PUSH2 0x851 PUSH0 NOT DUP5 PUSH1 0x8 MUL PUSH2 0x836 JUMP JUMPDEST NOT DUP1 DUP4 AND SWAP2 POP POP SWAP3 SWAP2 POP POP JUMP JUMPDEST PUSH0 PUSH2 0x869 DUP4 DUP4 PUSH2 0x842 JUMP JUMPDEST SWAP2 POP DUP3 PUSH1 0x2 MUL DUP3 OR SWAP1 POP SWAP3 SWAP2 POP POP JUMP JUMPDEST PUSH2 0x883 DUP4 DUP4 PUSH2 0x678 JUMP JUMPDEST PUSH8 0xFFFFFFFFFFFFFFFF DUP2 GT ISZERO PUSH2 0x89C JUMPI PUSH2 0x89B PUSH2 0x682 JUMP JUMPDEST JUMPDEST PUSH2 0x8A6 DUP3 SLOAD PUSH2 0x6DC JUMP JUMPDEST PUSH2 0x8B1 DUP3 DUP3 DUP6 PUSH2 0x7F0 JUMP JUMPDEST PUSH0 PUSH1 0x1F DUP4 GT PUSH1 0x1 DUP2 EQ PUSH2 0x8DE JUMPI PUSH0 DUP5 ISZERO PUSH2 0x8CC JUMPI DUP3 DUP8 ADD CALLDATALOAD SWAP1 POP JUMPDEST PUSH2 0x8D6 DUP6 DUP3 PUSH2 0x85E JUMP JUMPDEST DUP7 SSTORE POP PUSH2 0x93D JUMP JUMPDEST PUSH1 0x1F NOT DUP5 AND PUSH2 0x8EC DUP7 PUSH2 0x70C JUMP JUMPDEST PUSH0 JUMPDEST DUP3 DUP2 LT ISZERO PUSH2 0x913 JUMPI DUP5 DUP10 ADD CALLDATALOAD DUP3 SSTORE PUSH1 0x1 DUP3 ADD SWAP2 POP PUSH1 0x20 DUP6 ADD SWAP5 POP PUSH1 0x20 DUP2 ADD SWAP1 POP PUSH2 0x8EE JUMP JUMPDEST DUP7 DUP4 LT ISZERO PUSH2 0x930 JUMPI DUP5 DUP10 ADD CALLDATALOAD PUSH2 0x92C PUSH1 0x1F DUP10 AND DUP3 PUSH2 0x842 JUMP JUMPDEST DUP4 SSTORE POP JUMPDEST PUSH1 0x1 PUSH1 0x2 DUP9 MUL ADD DUP9 SSTORE POP POP POP JUMPDEST POP POP POP POP POP POP POP JUMP JUMPDEST PUSH2 0x951 DUP4 DUP4 DUP4 PUSH2 0x879 JUMP JUMPDEST POP POP POP JUMP JUMPDEST PUSH0 PUSH0 DUP4 CALLDATALOAD PUSH1 0x1 PUSH1 0x20 SUB DUP5 CALLDATASIZE SUB SUB DUP2 SLT PUSH2 0x972 JUMPI PUSH2 0x971 PUSH2 0x60A JUMP JUMPDEST JUMPDEST DUP1 DUP5 ADD SWAP3 POP DUP3 CALLDATALOAD SWAP2 POP PUSH8 0xFFFFFFFFFFFFFFFF DUP3 GT ISZERO PUSH2 0x994 JUMPI PUSH2 0x993 PUSH2 0x60E JUMP JUMPDEST JUMPDEST PUSH1 0x20 DUP4 ADD SWAP3 POP PUSH1 0x20 DUP3 MUL CALLDATASIZE SUB DUP4 SGT ISZERO PUSH2 0x9B0 JUMPI PUSH2 0x9AF PUSH2 0x612 JUMP JUMPDEST JUMPDEST POP SWAP3 POP SWAP3 SWAP1 POP JUMP JUMPDEST PUSH0 DUP2 SWAP1 POP SWAP2 SWAP1 POP JUMP JUMPDEST PUSH0 DUP3 CALLDATALOAD PUSH1 0x1 PUSH1 0x40 SUB DUP4 CALLDATASIZE SUB SUB DUP2 SLT PUSH2 0x9DC JUMPI PUSH2 0x9DB PUSH2 0x60A JUMP JUMPDEST JUMPDEST DUP1 DUP4 ADD SWAP2 POP POP SWAP3 SWAP2 POP POP JUMP JUMPDEST PUSH0 DUP2 SLOAD SWAP1 POP SWAP2 SWAP1 POP JUMP JUMPDEST PUSH32 0x4E487B7100000000000000000000000000000000000000000000000000000000 PUSH0 MSTORE PUSH1 0x11 PUSH1 0x4 MSTORE PUSH1 0x24 PUSH0 REVERT JUMPDEST PUSH0 PUSH2 0xA29 DUP3 PUSH2 0x33D JUMP JUMPDEST SWAP2 POP PUSH2 0xA34 DUP4 PUSH2 0x33D JUMP JUMPDEST SWAP3 POP DUP3 DUP3 MUL PUSH2 0xA42 DUP2 PUSH2 0x33D JUMP JUMPDEST SWAP2 POP DUP3 DUP3 DIV DUP5 EQ DUP4 ISZERO OR PUSH2 0xA59 JUMPI PUSH2 0xA58 PUSH2 0x9F2 JUMP JUMPDEST JUMPDEST POP SWAP3 SWAP2 POP POP JUMP JUMPDEST PUSH0 DUP2 SWAP1 POP PUSH2 0xA6F DUP3 PUSH1 0x2 PUSH2 0xA1F JUMP JUMPDEST SWAP1 POP SWAP2 SWAP1 POP JUMP JUMPDEST PUSH0 DUP2 SWAP1 POP DUP2 PUSH0 MSTORE PUSH1 0x20 PUSH0 KECCAK256 SWAP1 POP SWAP2 SWAP1 POP JUMP JUMPDEST PUSH2 0xAB8 PUSH32 0xFFFFFFFFFFFFFFFFFFFFFFFFFFFFFFFFFFFFFFFFFFFFFFFFFFFFFFFFFFFFFFFF DUP4 PUSH1 0x20 SUB PUSH1 0x8 MUL PUSH2 0x836 JUMP JUMPDEST DUP2 SLOAD DUP2 AND DUP3 SSTORE POP POP POP JUMP JUMPDEST PUSH2 0xACC DUP2 PUSH2 0x70C JUMP JUMPDEST PUSH2 0xAD7 DUP4 DUP3 SLOAD PUSH2 0x85E JUMP JUMPDEST DUP1 DUP4 SSTORE PUSH0 DUP3 SSTORE POP POP POP POP JUMP JUMPDEST PUSH1 0x20 DUP5 LT PUSH0 DUP2 EQ PUSH2 0xB3D JUMPI PUSH1 0x1F DUP5 GT PUSH1 0x1 DUP2 EQ PUSH2 0xB0B JUMPI PUSH2 0xB04 DUP7 DUP6 PUSH2 0x85E JUMP JUMPDEST DUP4 SSTORE PUSH2 0xB37 JUMP JUMPDEST PUSH2 0xB14 DUP4 PUSH2 0x70C JUMP JUMPDEST PUSH2 0xB2B PUSH2 0xB20 DUP8 PUSH2 0x71E JUMP JUMPDEST DUP3 ADD PUSH1 0x1 DUP4 ADD PUSH2 0x7CE JUMP JUMPDEST PUSH2 0xB35 DUP8 DUP6 PUSH2 0xAC3 JUMP JUMPDEST POP JUMPDEST POP PUSH2 0xB8A JUMP JUMPDEST PUSH2 0xB46 DUP3 PUSH2 0x70C JUMP JUMPDEST PUSH2 0xB4F DUP7 PUSH2 0x71E JUMP JUMPDEST DUP2 ADD PUSH1 0x1F DUP8 AND DUP1 ISZERO PUSH2 0xB69 JUMPI PUSH2 0xB68 DUP2 PUSH1 0x1 DUP5 SUB PUSH2 0xA88 JUMP JUMPDEST JUMPDEST PUSH2 0xB7D PUSH2 0xB75 DUP9 PUSH2 0x71E JUMP JUMPDEST DUP5 ADD DUP4 PUSH2 0x7CE JUMP JUMPDEST PUSH1 0x1 DUP9 PUSH1 0x2 MUL OR DUP6 SSTORE POP POP POP JUMPDEST POP POP POP POP POP JUMP JUMPDEST PUSH9 0x10000000000000000 DUP5 GT ISZERO PUSH2 0xBAB JUMPI PUSH2 0xBAA PUSH2 0x682 JUMP JUMPDEST JUMPDEST PUSH1 0x20 DUP4 LT PUSH0 DUP2 EQ PUSH2 0xBF4 JUMPI PUSH1 0x20 DUP6 LT PUSH0 DUP2 EQ PUSH2 0xBD2 JUMPI PUSH2 0xBCB DUP7 DUP6 PUSH2 0x85E JUMP JUMPDEST DUP4 SSTORE PUSH2 0xBEE JUMP JUMPDEST DUP4 PUSH1 0xFF NOT AND SWAP4 POP DUP4 PUSH2 0xBE3 DUP5 PUSH2 0x70C JUMP JUMPDEST SSTORE PUSH1 0x1 DUP7 PUSH1 0x2 MUL ADD DUP4 SSTORE JUMPDEST POP PUSH2 0xBFE JUMP JUMPDEST PUSH1 0x1 DUP6 PUSH1 0x2 MUL ADD DUP3 SSTORE JUMPDEST POP POP POP POP POP JUMP JUMPDEST DUP1 SLOAD PUSH2 0xC10 DUP2 PUSH2 0x6DC JUMP JUMPDEST DUP1 DUP5 GT ISZERO PUSH2 0xC25 JUMPI PUSH2 0xC24 DUP5 DUP3 DUP5 DUP7 PUSH2 0xB91 JUMP JUMPDEST JUMPDEST DUP1 DUP5 LT ISZERO PUSH2 0xC3A JUMPI PUSH2 0xC39 DUP5 DUP3 DUP5 DUP7 PUSH2 0xAE3 JUMP JUMPDEST JUMPDEST POP POP POP POP JUMP JUMPDEST DUP2 DUP2 LT ISZERO PUSH2 0xC5D JUMPI PUSH2 0xC52 PUSH0 DUP3 PUSH2 0x7B6 JUMP JUMPDEST PUSH1 0x1 DUP2 ADD SWAP1 POP PUSH2 0xC40 JUMP JUMPDEST POP POP JUMP JUMPDEST PUSH2 0xC6B PUSH0 DUP3 PUSH2 0xC05 JUMP JUMPDEST POP JUMP JUMPDEST PUSH0 DUP3 EQ PUSH2 0xC7E JUMPI PUSH2 0xC7D PUSH2 0x527 JUMP JUMPDEST JUMPDEST PUSH2 0xC87 DUP2 PUSH2 0xC61 JUMP JUMPDEST POP POP JUMP JUMPDEST PUSH2 0xC97 PUSH0 PUSH0 DUP4 ADD PUSH2 0xC6E JUMP JUMPDEST PUSH2 0xCA4 PUSH0 PUSH1 0x1 DUP4 ADD PUSH2 0xC6E JUMP JUMPDEST POP JUMP JUMPDEST PUSH0 DUP3 EQ PUSH2 0xCB7 JUMPI PUSH2 0xCB6 PUSH2 0x527 JUMP JUMPDEST JUMPDEST PUSH2 0xCC0 DUP2 PUSH2 0xC8B JUMP JUMPDEST POP POP JUMP JUMPDEST JUMPDEST DUP2 DUP2 LT ISZERO PUSH2 0xCE2 JUMPI PUSH2 0xCD7 PUSH0 DUP3 PUSH2 0xCA7 JUMP JUMPDEST PUSH1 0x2 DUP2 ADD SWAP1 POP PUSH2 0xCC5 JUMP JUMPDEST POP POP JUMP JUMPDEST DUP2 DUP4 LT ISZERO PUSH2 0xD1F JUMPI PUSH2 0xCF7 DUP3 PUSH2 0xA60 JUMP JUMPDEST PUSH2 0xD00 DUP5 PUSH2 0xA60 JUMP JUMPDEST PUSH2 0xD09 DUP4 PUSH2 0xA76 JUMP JUMPDEST DUP2 DUP2 ADD DUP4 DUP3 ADD PUSH2 0xD19 DUP2 DUP4 PUSH2 0xCC4 JUMP JUMPDEST POP POP POP POP POP JUMPDEST POP POP POP JUMP JUMPDEST PUSH9 0x10000000000000000 DUP3 GT ISZERO PUSH2 0xD3E JUMPI PUSH2 0xD3D PUSH2 0x682 JUMP JUMPDEST JUMPDEST PUSH2 0xD47 DUP2 PUSH2 0x9E8 JUMP JUMPDEST DUP3 DUP3 SSTORE PUSH2 0xD55 DUP4 DUP3 DUP5 PUSH2 0xCE6 JUMP JUMPDEST POP POP POP JUMP JUMPDEST PUSH0 DUP3 SWAP1 POP SWAP3 SWAP2 POP POP JUMP JUMPDEST PUSH0 DUP2 ADD PUSH0 DUP4 ADD PUSH2 0xD74 DUP2 DUP6 PUSH2 0x616 JUMP JUMPDEST PUSH2 0xD7F DUP2 DUP4 DUP7 PUSH2 0x946 JUMP JUMPDEST POP POP POP POP PUSH1 0x1 DUP2 ADD PUSH1 0x20 DUP4 ADD PUSH2 0xD95 DUP2 DUP6 PUSH2 0x616 JUMP JUMPDEST PUSH2 0xDA0 DUP2 DUP4 DUP7 PUSH2 0x946 JUMP JUMPDEST POP POP POP POP POP POP JUMP JUMPDEST PUSH2 0xDB2 DUP3 DUP3 PUSH2 0xD64 JUMP JUMPDEST POP POP JUMP JUMPDEST PUSH2 0xDC0 DUP4 DUP4 PUSH2 0xD5A JUMP JUMPDEST PUSH2 0xDCA DUP2 DUP4 PUSH2 0xD24 JUMP JUMPDEST PUSH2 0xDD3 DUP4 PUSH2 0x9B8 JUMP JUMPDEST PUSH2 0xDDC DUP4 PUSH2 0xA76 JUMP JUMPDEST PUSH0 JUMPDEST DUP4 DUP2 LT ISZERO PUSH2 0xE12 JUMPI PUSH2 0xDF0 DUP4 DUP8 PUSH2 0x9C1 JUMP JUMPDEST PUSH2 0xDFA DUP2 DUP5 PUSH2 0xDA8 JUMP JUMPDEST PUSH1 0x20 DUP5 ADD SWAP4 POP PUSH1 0x2 DUP4 ADD SWAP3 POP POP PUSH1 0x1 DUP2 ADD SWAP1 POP PUSH2 0xDDE JUMP JUMPDEST POP POP POP POP POP POP POP JUMP JUMPDEST PUSH2 0xE26 DUP4 DUP4 DUP4 PUSH2 0xDB6 JUMP JUMPDEST POP POP POP JUMP JUMPDEST PUSH0 DUP2 ADD PUSH0 DUP4 ADD DUP1 PUSH2 0xE3B DUP2 PUSH2 0x553 JUMP JUMPDEST SWAP1 POP PUSH2 0xE47 DUP2 DUP5 PUSH2 0x5E7 JUMP JUMPDEST POP POP POP PUSH1 0x1 DUP2 ADD PUSH1 0x20 DUP4 ADD PUSH2 0xE5C DUP2 DUP6 PUSH2 0x616 JUMP JUMPDEST PUSH2 0xE67 DUP2 DUP4 DUP7 PUSH2 0x946 JUMP JUMPDEST POP POP POP POP PUSH1 0x2 DUP2 ADD PUSH1 0x40 DUP4 ADD PUSH2 0xE7D DUP2 DUP6 PUSH2 0x956 JUMP JUMPDEST PUSH2 0xE88 DUP2 DUP4 DUP7 PUSH2 0xE1B JUMP JUMPDEST POP POP POP POP POP POP JUMP JUMPDEST PUSH2 0xE9A DUP3 DUP3 PUSH2 0xE2B JUMP JUMPDEST POP POP JUMP INVALID LOG2 PUSH5 0x6970667358 0x22 SLT KECCAK256 0xE9 0xC4 0xEA PUSH0 PUSH21 0xB7E0E6BAAC6FE20C8149E39A18A53FBD3F7AEE7DDE PUSH17 0x7BDC890F4B64736F6C634300081E003300 "
				},
				"gasEstimates": {
					"creation": {
						"codeDepositCost": "759200",
						"executionCost": "790",
						"totalCost": "759990"
					},
					"external": {
						"addPerson((uint256,string,(string,string)[]))": "infinite",
						"personMap(address)": "infinite",
						"persons(uint256)": "infinite",
						"setPersonMap((uint256,string,(string,string)[]),address)": "infinite"
					}
				},
				"methodIdentifiers": {
					"addPerson((uint256,string,(string,string)[]))": "5030e370",
					"personMap(address)": "ed3ac0de",
					"persons(uint256)": "a2f9eac6",
					"setPersonMap((uint256,string,(string,string)[]),address)": "c52e8465"
				}
			},
			"storageLayout": {
				"storage": [
					{
						"astId": 19,
						"contract": "07_struct_02.sol:StructDemo",
						"label": "persons",
						"offset": 0,
						"slot": "0",
						"type": "t_array(t_struct(Person)10_storage)dyn_storage"
					},
					{
						"astId": 24,
						"contract": "07_struct_02.sol:StructDemo",
						"label": "personMap",
						"offset": 0,
						"slot": "1",
						"type": "t_mapping(t_address,t_struct(Person)10_storage)"
					}
				],
				"types": {
					"t_address": {
						"encoding": "inplace",
						"label": "address",
						"numberOfBytes": "20"
					},
					"t_array(t_struct(Hobbie)15_storage)dyn_storage": {
						"base": "t_struct(Hobbie)15_storage",
						"encoding": "dynamic_array",
						"label": "struct StructDemo.Hobbie[]",
						"numberOfBytes": "32"
					},
					"t_array(t_struct(Person)10_storage)dyn_storage": {
						"base": "t_struct(Person)10_storage",
						"encoding": "dynamic_array",
						"label": "struct StructDemo.Person[]",
						"numberOfBytes": "32"
					},
					"t_mapping(t_address,t_struct(Person)10_storage)": {
						"encoding": "mapping",
						"key": "t_address",
						"label": "mapping(address => struct StructDemo.Person)",
						"numberOfBytes": "32",
						"value": "t_struct(Person)10_storage"
					},
					"t_string_storage": {
						"encoding": "bytes",
						"label": "string",
						"numberOfBytes": "32"
					},
					"t_struct(Hobbie)15_storage": {
						"encoding": "inplace",
						"label": "struct StructDemo.Hobbie",
						"members": [
							{
								"astId": 12,
								"contract": "07_struct_02.sol:StructDemo",
								"label": "label",
								"offset": 0,
								"slot": "0",
								"type": "t_string_storage"
							},
							{
								"astId": 14,
								"contract": "07_struct_02.sol:StructDemo",
								"label": "value",
								"offset": 0,
								"slot": "1",
								"type": "t_string_storage"
							}
						],
						"numberOfBytes": "64"
					},
					"t_struct(Person)10_storage": {
						"encoding": "inplace",
						"label": "struct StructDemo.Person",
						"members": [
							{
								"astId": 3,
								"contract": "07_struct_02.sol:StructDemo",
								"label": "age",
								"offset": 0,
								"slot": "0",
								"type": "t_uint256"
							},
							{
								"astId": 5,
								"contract": "07_struct_02.sol:StructDemo",
								"label": "name",
								"offset": 0,
								"slot": "1",
								"type": "t_string_storage"
							},
							{
								"astId": 9,
								"contract": "07_struct_02.sol:StructDemo",
								"label": "hobbies",
								"offset": 0,
								"slot": "2",
								"type": "t_array(t_struct(Hobbie)15_storage)dyn_storage"
							}
						],
						"numberOfBytes": "96"
					},
					"t_uint256": {
						"encoding": "inplace",
						"label": "uint256",
						"numberOfBytes": "32"
					}
				}
			},
			"userdoc": {
				"kind": "user",
				"methods": {},
				"version": 1
			}
		}
	}
}