{
	"17_modifier.sol": {
		"Modifier": {
			"abi": [
				{
					"inputs": [],
					"stateMutability": "nonpayable",
					"type": "constructor"
				},
				{
					"anonymous": false,
					"inputs": [
						{
							"indexed": true,
							"internalType": "address",
							"name": "sender",
							"type": "address"
						},
						{
							"indexed": false,
							"internalType": "string",
							"name": "desc",
							"type": "string"
						}
					],
					"name": "eventModifier",
					"type": "event"
				},
				{
					"inputs": [
						{
							"internalType": "address",
							"name": "",
							"type": "address"
						}
					],
					"name": "balance",
					"outputs": [
						{
							"internalType": "uint256",
							"name": "",
							"type": "uint256"
						}
					],
					"stateMutability": "view",
					"type": "function"
				},
				{
					"inputs": [
						{
							"internalType": "address",
							"name": "_newOwner",
							"type": "address"
						}
					],
					"name": "changeOwner",
					"outputs": [],
					"stateMutability": "nonpayable",
					"type": "function"
				},
				{
					"inputs": [],
					"name": "deposit",
					"outputs": [],
					"stateMutability": "payable",
					"type": "function"
				},
				{
					"inputs": [],
					"name": "getBalance",
					"outputs": [
						{
							"internalType": "uint256",
							"name": "",
							"type": "uint256"
						}
					],
					"stateMutability": "view",
					"type": "function"
				},
				{
					"inputs": [],
					"name": "owner",
					"outputs": [
						{
							"internalType": "address",
							"name": "",
							"type": "address"
						}
					],
					"stateMutability": "view",
					"type": "function"
				},
				{
					"inputs": [
						{
							"internalType": "uint256",
							"name": "amount",
							"type": "uint256"
						}
					],
					"name": "withdraw",
					"outputs": [],
					"stateMutability": "nonpayable",
					"type": "function"
				}
			],
			"devdoc": {
				"kind": "dev",
				"methods": {},
				"version": 1
			},
			"evm": {
				"assembly": "    /* \"17_modifier.sol\":58:1845  contract Modifier {... */\n  mstore(0x40, 0x80)\n    /* \"17_modifier.sol\":158:207  constructor() {... */\n  callvalue\n  dup1\n  iszero\n  tag_1\n  jumpi\n  revert(0x00, 0x00)\ntag_1:\n  pop\n    /* \"17_modifier.sol\":190:200  msg.sender */\n  caller\n    /* \"17_modifier.sol\":182:187  owner */\n  0x00\n  0x00\n    /* \"17_modifier.sol\":182:200  owner = msg.sender */\n  0x0100\n  exp\n  dup2\n  sload\n  dup2\n  0xffffffffffffffffffffffffffffffffffffffff\n  mul\n  not\n  and\n  swap1\n  dup4\n  0xffffffffffffffffffffffffffffffffffffffff\n  and\n  mul\n  or\n  swap1\n  sstore\n  pop\n    /* \"17_modifier.sol\":58:1845  contract Modifier {... */\n  dataSize(sub_0)\n  dup1\n  dataOffset(sub_0)\n  0x00\n  codecopy\n  0x00\n  return\nstop\n\nsub_0: assembly {\n        /* \"17_modifier.sol\":58:1845  contract Modifier {... */\n      mstore(0x40, 0x80)\n      jumpi(tag_1, lt(calldatasize, 0x04))\n      shr(0xe0, calldataload(0x00))\n      dup1\n      0x12065fe0\n      eq\n      tag_2\n      jumpi\n      dup1\n      0x2e1a7d4d\n      eq\n      tag_3\n      jumpi\n      dup1\n      0x8da5cb5b\n      eq\n      tag_4\n      jumpi\n      dup1\n      0xa6f9dae1\n      eq\n      tag_5\n      jumpi\n      dup1\n      0xd0e30db0\n      eq\n      tag_6\n      jumpi\n      dup1\n      0xe3d670d7\n      eq\n      tag_7\n      jumpi\n    tag_1:\n      revert(0x00, 0x00)\n        /* \"17_modifier.sol\":1745:1843  function getBalance() external view returns(uint256) {... */\n    tag_2:\n      callvalue\n      dup1\n      iszero\n      tag_8\n      jumpi\n      revert(0x00, 0x00)\n    tag_8:\n      pop\n      tag_9\n      tag_10\n      jump\t// in\n    tag_9:\n      mload(0x40)\n      tag_11\n      swap2\n      swap1\n      tag_12\n      jump\t// in\n    tag_11:\n      mload(0x40)\n      dup1\n      swap2\n      sub\n      swap1\n      return\n        /* \"17_modifier.sol\":916:1396  function withdraw(uint256 amount) external onlyOwner validAmount(amount) {... */\n    tag_3:\n      callvalue\n      dup1\n      iszero\n      tag_13\n      jumpi\n      revert(0x00, 0x00)\n    tag_13:\n      pop\n      tag_14\n      0x04\n      dup1\n      calldatasize\n      sub\n      dup2\n      add\n      swap1\n      tag_15\n      swap2\n      swap1\n      tag_16\n      jump\t// in\n    tag_15:\n      tag_17\n      jump\t// in\n    tag_14:\n      stop\n        /* \"17_modifier.sol\":82:102  address public owner */\n    tag_4:\n      callvalue\n      dup1\n      iszero\n      tag_18\n      jumpi\n      revert(0x00, 0x00)\n    tag_18:\n      pop\n      tag_19\n      tag_20\n      jump\t// in\n    tag_19:\n      mload(0x40)\n      tag_21\n      swap2\n      swap1\n      tag_22\n      jump\t// in\n    tag_21:\n      mload(0x40)\n      dup1\n      swap2\n      sub\n      swap1\n      return\n        /* \"17_modifier.sol\":1504:1739  function changeOwner(address _newOwner) external onlyOwner EventModifier(_newOwner, \"changeOwner\"){... */\n    tag_5:\n      callvalue\n      dup1\n      iszero\n      tag_23\n      jumpi\n      revert(0x00, 0x00)\n    tag_23:\n      pop\n      tag_24\n      0x04\n      dup1\n      calldatasize\n      sub\n      dup2\n      add\n      swap1\n      tag_25\n      swap2\n      swap1\n      tag_26\n      jump\t// in\n    tag_25:\n      tag_27\n      jump\t// in\n    tag_24:\n      stop\n        /* \"17_modifier.sol\":276:438  function deposit() external payable {... */\n    tag_6:\n      tag_28\n      tag_29\n      jump\t// in\n    tag_28:\n      stop\n        /* \"17_modifier.sol\":108:151  mapping (address => uint256) public balance */\n    tag_7:\n      callvalue\n      dup1\n      iszero\n      tag_30\n      jumpi\n      revert(0x00, 0x00)\n    tag_30:\n      pop\n      tag_31\n      0x04\n      dup1\n      calldatasize\n      sub\n      dup2\n      add\n      swap1\n      tag_32\n      swap2\n      swap1\n      tag_26\n      jump\t// in\n    tag_32:\n      tag_33\n      jump\t// in\n    tag_31:\n      mload(0x40)\n      tag_34\n      swap2\n      swap1\n      tag_12\n      jump\t// in\n    tag_34:\n      mload(0x40)\n      dup1\n      swap2\n      sub\n      swap1\n      return\n        /* \"17_modifier.sol\":1745:1843  function getBalance() external view returns(uint256) {... */\n    tag_10:\n        /* \"17_modifier.sol\":1789:1796  uint256 */\n      0x00\n        /* \"17_modifier.sol\":1815:1836  address(this).balance */\n      selfbalance\n        /* \"17_modifier.sol\":1808:1836  return address(this).balance */\n      swap1\n      pop\n        /* \"17_modifier.sol\":1745:1843  function getBalance() external view returns(uint256) {... */\n      swap1\n      jump\t// out\n        /* \"17_modifier.sol\":916:1396  function withdraw(uint256 amount) external onlyOwner validAmount(amount) {... */\n    tag_17:\n        /* \"17_modifier.sol\":497:502  owner */\n      0x00\n      0x00\n      swap1\n      sload\n      swap1\n      0x0100\n      exp\n      swap1\n      div\n      0xffffffffffffffffffffffffffffffffffffffff\n      and\n        /* \"17_modifier.sol\":483:502  msg.sender == owner */\n      0xffffffffffffffffffffffffffffffffffffffff\n      and\n        /* \"17_modifier.sol\":483:493  msg.sender */\n      caller\n        /* \"17_modifier.sol\":483:502  msg.sender == owner */\n      0xffffffffffffffffffffffffffffffffffffffff\n      and\n      eq\n        /* \"17_modifier.sol\":475:517  require(msg.sender == owner, \"Only Owner\") */\n      tag_37\n      jumpi\n      mload(0x40)\n      0x08c379a000000000000000000000000000000000000000000000000000000000\n      dup2\n      mstore\n      0x04\n      add\n      tag_38\n      swap1\n      tag_39\n      jump\t// in\n    tag_38:\n      mload(0x40)\n      dup1\n      swap2\n      sub\n      swap1\n      revert\n    tag_37:\n        /* \"17_modifier.sol\":981:987  amount */\n      dup1\n        /* \"17_modifier.sol\":618:619  0 */\n      0x00\n        /* \"17_modifier.sol\":609:615  amount */\n      dup2\n        /* \"17_modifier.sol\":609:619  amount > 0 */\n      gt\n        /* \"17_modifier.sol\":601:667  require(amount > 0, \"!!!!amount value must be greater than 0!!!!\") */\n      tag_41\n      jumpi\n      mload(0x40)\n      0x08c379a000000000000000000000000000000000000000000000000000000000\n      dup2\n      mstore\n      0x04\n      add\n      tag_42\n      swap1\n      tag_43\n      jump\t// in\n    tag_42:\n      mload(0x40)\n      dup1\n      swap2\n      sub\n      swap1\n      revert\n    tag_41:\n        /* \"17_modifier.sol\":1249:1270  address(this).balance */\n      selfbalance\n        /* \"17_modifier.sol\":1239:1245  amount */\n      dup3\n        /* \"17_modifier.sol\":1239:1270  amount <= address(this).balance */\n      gt\n      iszero\n        /* \"17_modifier.sol\":1231:1304  require(amount <= address(this).balance, \"Insufficient contract balance\") */\n      tag_45\n      jumpi\n      mload(0x40)\n      0x08c379a000000000000000000000000000000000000000000000000000000000\n      dup2\n      mstore\n      0x04\n      add\n      tag_46\n      swap1\n      tag_47\n      jump\t// in\n    tag_46:\n      mload(0x40)\n      dup1\n      swap2\n      sub\n      swap1\n      revert\n    tag_45:\n        /* \"17_modifier.sol\":1337:1343  amount */\n      dup2\n        /* \"17_modifier.sol\":1314:1321  balance */\n      0x01\n        /* \"17_modifier.sol\":1314:1333  balance[msg.sender] */\n      0x00\n        /* \"17_modifier.sol\":1322:1332  msg.sender */\n      caller\n        /* \"17_modifier.sol\":1314:1333  balance[msg.sender] */\n      0xffffffffffffffffffffffffffffffffffffffff\n      and\n      0xffffffffffffffffffffffffffffffffffffffff\n      and\n      dup2\n      mstore\n      0x20\n      add\n      swap1\n      dup2\n      mstore\n      0x20\n      add\n      0x00\n      keccak256\n      0x00\n        /* \"17_modifier.sol\":1314:1343  balance[msg.sender] -= amount */\n      dup3\n      dup3\n      sload\n      tag_48\n      swap2\n      swap1\n      tag_49\n      jump\t// in\n    tag_48:\n      swap3\n      pop\n      pop\n      dup2\n      swap1\n      sstore\n      pop\n        /* \"17_modifier.sol\":1361:1371  msg.sender */\n      caller\n        /* \"17_modifier.sol\":1353:1381  payable(msg.sender).transfer */\n      0xffffffffffffffffffffffffffffffffffffffff\n      and\n        /* \"17_modifier.sol\":1353:1389  payable(msg.sender).transfer(amount) */\n      0x08fc\n        /* \"17_modifier.sol\":1382:1388  amount */\n      dup4\n        /* \"17_modifier.sol\":1353:1389  payable(msg.sender).transfer(amount) */\n      swap1\n      dup2\n      iszero\n      mul\n      swap1\n      mload(0x40)\n      0x00\n      mload(0x40)\n      dup1\n      dup4\n      sub\n      dup2\n      dup6\n      dup9\n      dup9\n      call\n      swap4\n      pop\n      pop\n      pop\n      pop\n      iszero\n      dup1\n      iszero\n      tag_51\n      jumpi\n      returndatacopy(0x00, 0x00, returndatasize)\n      revert(0x00, returndatasize)\n    tag_51:\n      pop\n        /* \"17_modifier.sol\":527:528  _ */\n      pop\n        /* \"17_modifier.sol\":916:1396  function withdraw(uint256 amount) external onlyOwner validAmount(amount) {... */\n      pop\n      jump\t// out\n        /* \"17_modifier.sol\":82:102  address public owner */\n    tag_20:\n      0x00\n      0x00\n      swap1\n      sload\n      swap1\n      0x0100\n      exp\n      swap1\n      div\n      0xffffffffffffffffffffffffffffffffffffffff\n      and\n      dup2\n      jump\t// out\n        /* \"17_modifier.sol\":1504:1739  function changeOwner(address _newOwner) external onlyOwner EventModifier(_newOwner, \"changeOwner\"){... */\n    tag_27:\n        /* \"17_modifier.sol\":497:502  owner */\n      0x00\n      0x00\n      swap1\n      sload\n      swap1\n      0x0100\n      exp\n      swap1\n      div\n      0xffffffffffffffffffffffffffffffffffffffff\n      and\n        /* \"17_modifier.sol\":483:502  msg.sender == owner */\n      0xffffffffffffffffffffffffffffffffffffffff\n      and\n        /* \"17_modifier.sol\":483:493  msg.sender */\n      caller\n        /* \"17_modifier.sol\":483:502  msg.sender == owner */\n      0xffffffffffffffffffffffffffffffffffffffff\n      and\n      eq\n        /* \"17_modifier.sol\":475:517  require(msg.sender == owner, \"Only Owner\") */\n      tag_53\n      jumpi\n      mload(0x40)\n      0x08c379a000000000000000000000000000000000000000000000000000000000\n      dup2\n      mstore\n      0x04\n      add\n      tag_54\n      swap1\n      tag_39\n      jump\t// in\n    tag_54:\n      mload(0x40)\n      dup1\n      swap2\n      sub\n      swap1\n      revert\n    tag_53:\n        /* \"17_modifier.sol\":1577:1586  _newOwner */\n      dup1\n        /* \"17_modifier.sol\":691:910  modifier EventModifier(address sender, string memory func) {... */\n      mload(0x40)\n      dup1\n      0x40\n      add\n      0x40\n      mstore\n      dup1\n      0x0b\n      dup2\n      mstore\n      0x20\n      add\n      0x6368616e67654f776e6572000000000000000000000000000000000000000000\n      dup2\n      mstore\n      pop\n        /* \"17_modifier.sol\":779:785  sender */\n      dup2\n        /* \"17_modifier.sol\":765:821  eventModifier(sender, string.concat(\"before::::\", func)) */\n      0xffffffffffffffffffffffffffffffffffffffff\n      and\n      0x10b08d393cf38a1bd8d4bac86a132bf2494d5aa5146b6389d13cf6008650b3e6\n        /* \"17_modifier.sol\":815:819  func */\n      dup3\n        /* \"17_modifier.sol\":787:820  string.concat(\"before::::\", func) */\n      add(0x20, mload(0x40))\n      tag_56\n      swap2\n      swap1\n      tag_57\n      jump\t// in\n    tag_56:\n      mload(0x40)\n      0x20\n      dup2\n      dup4\n      sub\n      sub\n      dup2\n      mstore\n      swap1\n      0x40\n      mstore\n        /* \"17_modifier.sol\":765:821  eventModifier(sender, string.concat(\"before::::\", func)) */\n      mload(0x40)\n      tag_58\n      swap2\n      swap1\n      tag_59\n      jump\t// in\n    tag_58:\n      mload(0x40)\n      dup1\n      swap2\n      sub\n      swap1\n      log2\n        /* \"17_modifier.sol\":1723:1732  _newOwner */\n      dup3\n        /* \"17_modifier.sol\":1715:1720  owner */\n      0x00\n      0x00\n        /* \"17_modifier.sol\":1715:1732  owner = _newOwner */\n      0x0100\n      exp\n      dup2\n      sload\n      dup2\n      0xffffffffffffffffffffffffffffffffffffffff\n      mul\n      not\n      and\n      swap1\n      dup4\n      0xffffffffffffffffffffffffffffffffffffffff\n      and\n      mul\n      or\n      swap1\n      sstore\n      pop\n        /* \"17_modifier.sol\":861:867  sender */\n      dup2\n        /* \"17_modifier.sol\":847:903  eventModifier(sender, string.concat(\"after---->\", func)) */\n      0xffffffffffffffffffffffffffffffffffffffff\n      and\n      0x10b08d393cf38a1bd8d4bac86a132bf2494d5aa5146b6389d13cf6008650b3e6\n        /* \"17_modifier.sol\":897:901  func */\n      dup3\n        /* \"17_modifier.sol\":869:902  string.concat(\"after---->\", func) */\n      add(0x20, mload(0x40))\n      tag_61\n      swap2\n      swap1\n      tag_62\n      jump\t// in\n    tag_61:\n      mload(0x40)\n      0x20\n      dup2\n      dup4\n      sub\n      sub\n      dup2\n      mstore\n      swap1\n      0x40\n      mstore\n        /* \"17_modifier.sol\":847:903  eventModifier(sender, string.concat(\"after---->\", func)) */\n      mload(0x40)\n      tag_63\n      swap2\n      swap1\n      tag_59\n      jump\t// in\n    tag_63:\n      mload(0x40)\n      dup1\n      swap2\n      sub\n      swap1\n      log2\n        /* \"17_modifier.sol\":527:528  _ */\n      pop\n      pop\n        /* \"17_modifier.sol\":1504:1739  function changeOwner(address _newOwner) external onlyOwner EventModifier(_newOwner, \"changeOwner\"){... */\n      pop\n      jump\t// out\n        /* \"17_modifier.sol\":276:438  function deposit() external payable {... */\n    tag_29:\n        /* \"17_modifier.sol\":342:343  0 */\n      0x00\n        /* \"17_modifier.sol\":330:339  msg.value */\n      callvalue\n        /* \"17_modifier.sol\":330:343  msg.value > 0 */\n      gt\n        /* \"17_modifier.sol\":322:389  require(msg.value > 0, \"Deposit amount must be greater than 0 wei\") */\n      tag_65\n      jumpi\n      mload(0x40)\n      0x08c379a000000000000000000000000000000000000000000000000000000000\n      dup2\n      mstore\n      0x04\n      add\n      tag_66\n      swap1\n      tag_67\n      jump\t// in\n    tag_66:\n      mload(0x40)\n      dup1\n      swap2\n      sub\n      swap1\n      revert\n    tag_65:\n        /* \"17_modifier.sol\":422:431  msg.value */\n      callvalue\n        /* \"17_modifier.sol\":399:406  balance */\n      0x01\n        /* \"17_modifier.sol\":399:418  balance[msg.sender] */\n      0x00\n        /* \"17_modifier.sol\":407:417  msg.sender */\n      caller\n        /* \"17_modifier.sol\":399:418  balance[msg.sender] */\n      0xffffffffffffffffffffffffffffffffffffffff\n      and\n      0xffffffffffffffffffffffffffffffffffffffff\n      and\n      dup2\n      mstore\n      0x20\n      add\n      swap1\n      dup2\n      mstore\n      0x20\n      add\n      0x00\n      keccak256\n      0x00\n        /* \"17_modifier.sol\":399:431  balance[msg.sender] += msg.value */\n      dup3\n      dup3\n      sload\n      tag_68\n      swap2\n      swap1\n      tag_69\n      jump\t// in\n    tag_68:\n      swap3\n      pop\n      pop\n      dup2\n      swap1\n      sstore\n      pop\n        /* \"17_modifier.sol\":276:438  function deposit() external payable {... */\n      jump\t// out\n        /* \"17_modifier.sol\":108:151  mapping (address => uint256) public balance */\n    tag_33:\n      mstore(0x20, 0x01)\n      dup1\n      0x00\n      mstore\n      keccak256(0x00, 0x40)\n      0x00\n      swap2\n      pop\n      swap1\n      pop\n      sload\n      dup2\n      jump\t// out\n        /* \"#utility.yul\":7:84   */\n    tag_70:\n        /* \"#utility.yul\":44:51   */\n      0x00\n        /* \"#utility.yul\":73:78   */\n      dup2\n        /* \"#utility.yul\":62:78   */\n      swap1\n      pop\n        /* \"#utility.yul\":7:84   */\n      swap2\n      swap1\n      pop\n      jump\t// out\n        /* \"#utility.yul\":90:208   */\n    tag_71:\n        /* \"#utility.yul\":177:201   */\n      tag_103\n        /* \"#utility.yul\":195:200   */\n      dup2\n        /* \"#utility.yul\":177:201   */\n      tag_70\n      jump\t// in\n    tag_103:\n        /* \"#utility.yul\":172:175   */\n      dup3\n        /* \"#utility.yul\":165:202   */\n      mstore\n        /* \"#utility.yul\":90:208   */\n      pop\n      pop\n      jump\t// out\n        /* \"#utility.yul\":214:436   */\n    tag_12:\n        /* \"#utility.yul\":307:311   */\n      0x00\n        /* \"#utility.yul\":345:347   */\n      0x20\n        /* \"#utility.yul\":334:343   */\n      dup3\n        /* \"#utility.yul\":330:348   */\n      add\n        /* \"#utility.yul\":322:348   */\n      swap1\n      pop\n        /* \"#utility.yul\":358:429   */\n      tag_105\n        /* \"#utility.yul\":426:427   */\n      0x00\n        /* \"#utility.yul\":415:424   */\n      dup4\n        /* \"#utility.yul\":411:428   */\n      add\n        /* \"#utility.yul\":402:408   */\n      dup5\n        /* \"#utility.yul\":358:429   */\n      tag_71\n      jump\t// in\n    tag_105:\n        /* \"#utility.yul\":214:436   */\n      swap3\n      swap2\n      pop\n      pop\n      jump\t// out\n        /* \"#utility.yul\":523:640   */\n    tag_73:\n        /* \"#utility.yul\":632:633   */\n      0x00\n        /* \"#utility.yul\":629:630   */\n      0x00\n        /* \"#utility.yul\":622:634   */\n      revert\n        /* \"#utility.yul\":769:891   */\n    tag_75:\n        /* \"#utility.yul\":842:866   */\n      tag_110\n        /* \"#utility.yul\":860:865   */\n      dup2\n        /* \"#utility.yul\":842:866   */\n      tag_70\n      jump\t// in\n    tag_110:\n        /* \"#utility.yul\":835:840   */\n      dup2\n        /* \"#utility.yul\":832:867   */\n      eq\n        /* \"#utility.yul\":822:885   */\n      tag_111\n      jumpi\n        /* \"#utility.yul\":881:882   */\n      0x00\n        /* \"#utility.yul\":878:879   */\n      0x00\n        /* \"#utility.yul\":871:883   */\n      revert\n        /* \"#utility.yul\":822:885   */\n    tag_111:\n        /* \"#utility.yul\":769:891   */\n      pop\n      jump\t// out\n        /* \"#utility.yul\":897:1036   */\n    tag_76:\n        /* \"#utility.yul\":943:948   */\n      0x00\n        /* \"#utility.yul\":981:987   */\n      dup2\n        /* \"#utility.yul\":968:988   */\n      calldataload\n        /* \"#utility.yul\":959:988   */\n      swap1\n      pop\n        /* \"#utility.yul\":997:1030   */\n      tag_113\n        /* \"#utility.yul\":1024:1029   */\n      dup2\n        /* \"#utility.yul\":997:1030   */\n      tag_75\n      jump\t// in\n    tag_113:\n        /* \"#utility.yul\":897:1036   */\n      swap3\n      swap2\n      pop\n      pop\n      jump\t// out\n        /* \"#utility.yul\":1042:1371   */\n    tag_16:\n        /* \"#utility.yul\":1101:1107   */\n      0x00\n        /* \"#utility.yul\":1150:1152   */\n      0x20\n        /* \"#utility.yul\":1138:1147   */\n      dup3\n        /* \"#utility.yul\":1129:1136   */\n      dup5\n        /* \"#utility.yul\":1125:1148   */\n      sub\n        /* \"#utility.yul\":1121:1153   */\n      slt\n        /* \"#utility.yul\":1118:1237   */\n      iszero\n      tag_115\n      jumpi\n        /* \"#utility.yul\":1156:1235   */\n      tag_116\n      tag_73\n      jump\t// in\n    tag_116:\n        /* \"#utility.yul\":1118:1237   */\n    tag_115:\n        /* \"#utility.yul\":1276:1277   */\n      0x00\n        /* \"#utility.yul\":1301:1354   */\n      tag_117\n        /* \"#utility.yul\":1346:1353   */\n      dup5\n        /* \"#utility.yul\":1337:1343   */\n      dup3\n        /* \"#utility.yul\":1326:1335   */\n      dup6\n        /* \"#utility.yul\":1322:1344   */\n      add\n        /* \"#utility.yul\":1301:1354   */\n      tag_76\n      jump\t// in\n    tag_117:\n        /* \"#utility.yul\":1291:1354   */\n      swap2\n      pop\n        /* \"#utility.yul\":1247:1364   */\n      pop\n        /* \"#utility.yul\":1042:1371   */\n      swap3\n      swap2\n      pop\n      pop\n      jump\t// out\n        /* \"#utility.yul\":1377:1503   */\n    tag_77:\n        /* \"#utility.yul\":1414:1421   */\n      0x00\n        /* \"#utility.yul\":1454:1496   */\n      0xffffffffffffffffffffffffffffffffffffffff\n        /* \"#utility.yul\":1447:1452   */\n      dup3\n        /* \"#utility.yul\":1443:1497   */\n      and\n        /* \"#utility.yul\":1432:1497   */\n      swap1\n      pop\n        /* \"#utility.yul\":1377:1503   */\n      swap2\n      swap1\n      pop\n      jump\t// out\n        /* \"#utility.yul\":1509:1605   */\n    tag_78:\n        /* \"#utility.yul\":1546:1553   */\n      0x00\n        /* \"#utility.yul\":1575:1599   */\n      tag_120\n        /* \"#utility.yul\":1593:1598   */\n      dup3\n        /* \"#utility.yul\":1575:1599   */\n      tag_77\n      jump\t// in\n    tag_120:\n        /* \"#utility.yul\":1564:1599   */\n      swap1\n      pop\n        /* \"#utility.yul\":1509:1605   */\n      swap2\n      swap1\n      pop\n      jump\t// out\n        /* \"#utility.yul\":1611:1729   */\n    tag_79:\n        /* \"#utility.yul\":1698:1722   */\n      tag_122\n        /* \"#utility.yul\":1716:1721   */\n      dup2\n        /* \"#utility.yul\":1698:1722   */\n      tag_78\n      jump\t// in\n    tag_122:\n        /* \"#utility.yul\":1693:1696   */\n      dup3\n        /* \"#utility.yul\":1686:1723   */\n      mstore\n        /* \"#utility.yul\":1611:1729   */\n      pop\n      pop\n      jump\t// out\n        /* \"#utility.yul\":1735:1957   */\n    tag_22:\n        /* \"#utility.yul\":1828:1832   */\n      0x00\n        /* \"#utility.yul\":1866:1868   */\n      0x20\n        /* \"#utility.yul\":1855:1864   */\n      dup3\n        /* \"#utility.yul\":1851:1869   */\n      add\n        /* \"#utility.yul\":1843:1869   */\n      swap1\n      pop\n        /* \"#utility.yul\":1879:1950   */\n      tag_124\n        /* \"#utility.yul\":1947:1948   */\n      0x00\n        /* \"#utility.yul\":1936:1945   */\n      dup4\n        /* \"#utility.yul\":1932:1949   */\n      add\n        /* \"#utility.yul\":1923:1929   */\n      dup5\n        /* \"#utility.yul\":1879:1950   */\n      tag_79\n      jump\t// in\n    tag_124:\n        /* \"#utility.yul\":1735:1957   */\n      swap3\n      swap2\n      pop\n      pop\n      jump\t// out\n        /* \"#utility.yul\":1963:2085   */\n    tag_80:\n        /* \"#utility.yul\":2036:2060   */\n      tag_126\n        /* \"#utility.yul\":2054:2059   */\n      dup2\n        /* \"#utility.yul\":2036:2060   */\n      tag_78\n      jump\t// in\n    tag_126:\n        /* \"#utility.yul\":2029:2034   */\n      dup2\n        /* \"#utility.yul\":2026:2061   */\n      eq\n        /* \"#utility.yul\":2016:2079   */\n      tag_127\n      jumpi\n        /* \"#utility.yul\":2075:2076   */\n      0x00\n        /* \"#utility.yul\":2072:2073   */\n      0x00\n        /* \"#utility.yul\":2065:2077   */\n      revert\n        /* \"#utility.yul\":2016:2079   */\n    tag_127:\n        /* \"#utility.yul\":1963:2085   */\n      pop\n      jump\t// out\n        /* \"#utility.yul\":2091:2230   */\n    tag_81:\n        /* \"#utility.yul\":2137:2142   */\n      0x00\n        /* \"#utility.yul\":2175:2181   */\n      dup2\n        /* \"#utility.yul\":2162:2182   */\n      calldataload\n        /* \"#utility.yul\":2153:2182   */\n      swap1\n      pop\n        /* \"#utility.yul\":2191:2224   */\n      tag_129\n        /* \"#utility.yul\":2218:2223   */\n      dup2\n        /* \"#utility.yul\":2191:2224   */\n      tag_80\n      jump\t// in\n    tag_129:\n        /* \"#utility.yul\":2091:2230   */\n      swap3\n      swap2\n      pop\n      pop\n      jump\t// out\n        /* \"#utility.yul\":2236:2565   */\n    tag_26:\n        /* \"#utility.yul\":2295:2301   */\n      0x00\n        /* \"#utility.yul\":2344:2346   */\n      0x20\n        /* \"#utility.yul\":2332:2341   */\n      dup3\n        /* \"#utility.yul\":2323:2330   */\n      dup5\n        /* \"#utility.yul\":2319:2342   */\n      sub\n        /* \"#utility.yul\":2315:2347   */\n      slt\n        /* \"#utility.yul\":2312:2431   */\n      iszero\n      tag_131\n      jumpi\n        /* \"#utility.yul\":2350:2429   */\n      tag_132\n      tag_73\n      jump\t// in\n    tag_132:\n        /* \"#utility.yul\":2312:2431   */\n    tag_131:\n        /* \"#utility.yul\":2470:2471   */\n      0x00\n        /* \"#utility.yul\":2495:2548   */\n      tag_133\n        /* \"#utility.yul\":2540:2547   */\n      dup5\n        /* \"#utility.yul\":2531:2537   */\n      dup3\n        /* \"#utility.yul\":2520:2529   */\n      dup6\n        /* \"#utility.yul\":2516:2538   */\n      add\n        /* \"#utility.yul\":2495:2548   */\n      tag_81\n      jump\t// in\n    tag_133:\n        /* \"#utility.yul\":2485:2548   */\n      swap2\n      pop\n        /* \"#utility.yul\":2441:2558   */\n      pop\n        /* \"#utility.yul\":2236:2565   */\n      swap3\n      swap2\n      pop\n      pop\n      jump\t// out\n        /* \"#utility.yul\":2571:2740   */\n    tag_82:\n        /* \"#utility.yul\":2655:2666   */\n      0x00\n        /* \"#utility.yul\":2689:2695   */\n      dup3\n        /* \"#utility.yul\":2684:2687   */\n      dup3\n        /* \"#utility.yul\":2677:2696   */\n      mstore\n        /* \"#utility.yul\":2729:2733   */\n      0x20\n        /* \"#utility.yul\":2724:2727   */\n      dup3\n        /* \"#utility.yul\":2720:2734   */\n      add\n        /* \"#utility.yul\":2705:2734   */\n      swap1\n      pop\n        /* \"#utility.yul\":2571:2740   */\n      swap3\n      swap2\n      pop\n      pop\n      jump\t// out\n        /* \"#utility.yul\":2746:2906   */\n    tag_83:\n        /* \"#utility.yul\":2886:2898   */\n      0x4f6e6c79204f776e657200000000000000000000000000000000000000000000\n        /* \"#utility.yul\":2882:2883   */\n      0x00\n        /* \"#utility.yul\":2874:2880   */\n      dup3\n        /* \"#utility.yul\":2870:2884   */\n      add\n        /* \"#utility.yul\":2863:2899   */\n      mstore\n        /* \"#utility.yul\":2746:2906   */\n      pop\n      jump\t// out\n        /* \"#utility.yul\":2912:3278   */\n    tag_84:\n        /* \"#utility.yul\":3054:3057   */\n      0x00\n        /* \"#utility.yul\":3075:3142   */\n      tag_137\n        /* \"#utility.yul\":3139:3141   */\n      0x0a\n        /* \"#utility.yul\":3134:3137   */\n      dup4\n        /* \"#utility.yul\":3075:3142   */\n      tag_82\n      jump\t// in\n    tag_137:\n        /* \"#utility.yul\":3068:3142   */\n      swap2\n      pop\n        /* \"#utility.yul\":3151:3244   */\n      tag_138\n        /* \"#utility.yul\":3240:3243   */\n      dup3\n        /* \"#utility.yul\":3151:3244   */\n      tag_83\n      jump\t// in\n    tag_138:\n        /* \"#utility.yul\":3269:3271   */\n      0x20\n        /* \"#utility.yul\":3264:3267   */\n      dup3\n        /* \"#utility.yul\":3260:3272   */\n      add\n        /* \"#utility.yul\":3253:3272   */\n      swap1\n      pop\n        /* \"#utility.yul\":2912:3278   */\n      swap2\n      swap1\n      pop\n      jump\t// out\n        /* \"#utility.yul\":3284:3703   */\n    tag_39:\n        /* \"#utility.yul\":3450:3454   */\n      0x00\n        /* \"#utility.yul\":3488:3490   */\n      0x20\n        /* \"#utility.yul\":3477:3486   */\n      dup3\n        /* \"#utility.yul\":3473:3491   */\n      add\n        /* \"#utility.yul\":3465:3491   */\n      swap1\n      pop\n        /* \"#utility.yul\":3537:3546   */\n      dup2\n        /* \"#utility.yul\":3531:3535   */\n      dup2\n        /* \"#utility.yul\":3527:3547   */\n      sub\n        /* \"#utility.yul\":3523:3524   */\n      0x00\n        /* \"#utility.yul\":3512:3521   */\n      dup4\n        /* \"#utility.yul\":3508:3525   */\n      add\n        /* \"#utility.yul\":3501:3548   */\n      mstore\n        /* \"#utility.yul\":3565:3696   */\n      tag_140\n        /* \"#utility.yul\":3691:3695   */\n      dup2\n        /* \"#utility.yul\":3565:3696   */\n      tag_84\n      jump\t// in\n    tag_140:\n        /* \"#utility.yul\":3557:3696   */\n      swap1\n      pop\n        /* \"#utility.yul\":3284:3703   */\n      swap2\n      swap1\n      pop\n      jump\t// out\n        /* \"#utility.yul\":3709:3939   */\n    tag_85:\n        /* \"#utility.yul\":3849:3883   */\n      0x21212121616d6f756e742076616c7565206d7573742062652067726561746572\n        /* \"#utility.yul\":3845:3846   */\n      0x00\n        /* \"#utility.yul\":3837:3843   */\n      dup3\n        /* \"#utility.yul\":3833:3847   */\n      add\n        /* \"#utility.yul\":3826:3884   */\n      mstore\n        /* \"#utility.yul\":3918:3931   */\n      0x207468616e203021212121000000000000000000000000000000000000000000\n        /* \"#utility.yul\":3913:3915   */\n      0x20\n        /* \"#utility.yul\":3905:3911   */\n      dup3\n        /* \"#utility.yul\":3901:3916   */\n      add\n        /* \"#utility.yul\":3894:3932   */\n      mstore\n        /* \"#utility.yul\":3709:3939   */\n      pop\n      jump\t// out\n        /* \"#utility.yul\":3945:4311   */\n    tag_86:\n        /* \"#utility.yul\":4087:4090   */\n      0x00\n        /* \"#utility.yul\":4108:4175   */\n      tag_143\n        /* \"#utility.yul\":4172:4174   */\n      0x2b\n        /* \"#utility.yul\":4167:4170   */\n      dup4\n        /* \"#utility.yul\":4108:4175   */\n      tag_82\n      jump\t// in\n    tag_143:\n        /* \"#utility.yul\":4101:4175   */\n      swap2\n      pop\n        /* \"#utility.yul\":4184:4277   */\n      tag_144\n        /* \"#utility.yul\":4273:4276   */\n      dup3\n        /* \"#utility.yul\":4184:4277   */\n      tag_85\n      jump\t// in\n    tag_144:\n        /* \"#utility.yul\":4302:4304   */\n      0x40\n        /* \"#utility.yul\":4297:4300   */\n      dup3\n        /* \"#utility.yul\":4293:4305   */\n      add\n        /* \"#utility.yul\":4286:4305   */\n      swap1\n      pop\n        /* \"#utility.yul\":3945:4311   */\n      swap2\n      swap1\n      pop\n      jump\t// out\n        /* \"#utility.yul\":4317:4736   */\n    tag_43:\n        /* \"#utility.yul\":4483:4487   */\n      0x00\n        /* \"#utility.yul\":4521:4523   */\n      0x20\n        /* \"#utility.yul\":4510:4519   */\n      dup3\n        /* \"#utility.yul\":4506:4524   */\n      add\n        /* \"#utility.yul\":4498:4524   */\n      swap1\n      pop\n        /* \"#utility.yul\":4570:4579   */\n      dup2\n        /* \"#utility.yul\":4564:4568   */\n      dup2\n        /* \"#utility.yul\":4560:4580   */\n      sub\n        /* \"#utility.yul\":4556:4557   */\n      0x00\n        /* \"#utility.yul\":4545:4554   */\n      dup4\n        /* \"#utility.yul\":4541:4558   */\n      add\n        /* \"#utility.yul\":4534:4581   */\n      mstore\n        /* \"#utility.yul\":4598:4729   */\n      tag_146\n        /* \"#utility.yul\":4724:4728   */\n      dup2\n        /* \"#utility.yul\":4598:4729   */\n      tag_86\n      jump\t// in\n    tag_146:\n        /* \"#utility.yul\":4590:4729   */\n      swap1\n      pop\n        /* \"#utility.yul\":4317:4736   */\n      swap2\n      swap1\n      pop\n      jump\t// out\n        /* \"#utility.yul\":4742:4921   */\n    tag_87:\n        /* \"#utility.yul\":4882:4913   */\n      0x496e73756666696369656e7420636f6e74726163742062616c616e6365000000\n        /* \"#utility.yul\":4878:4879   */\n      0x00\n        /* \"#utility.yul\":4870:4876   */\n      dup3\n        /* \"#utility.yul\":4866:4880   */\n      add\n        /* \"#utility.yul\":4859:4914   */\n      mstore\n        /* \"#utility.yul\":4742:4921   */\n      pop\n      jump\t// out\n        /* \"#utility.yul\":4927:5293   */\n    tag_88:\n        /* \"#utility.yul\":5069:5072   */\n      0x00\n        /* \"#utility.yul\":5090:5157   */\n      tag_149\n        /* \"#utility.yul\":5154:5156   */\n      0x1d\n        /* \"#utility.yul\":5149:5152   */\n      dup4\n        /* \"#utility.yul\":5090:5157   */\n      tag_82\n      jump\t// in\n    tag_149:\n        /* \"#utility.yul\":5083:5157   */\n      swap2\n      pop\n        /* \"#utility.yul\":5166:5259   */\n      tag_150\n        /* \"#utility.yul\":5255:5258   */\n      dup3\n        /* \"#utility.yul\":5166:5259   */\n      tag_87\n      jump\t// in\n    tag_150:\n        /* \"#utility.yul\":5284:5286   */\n      0x20\n        /* \"#utility.yul\":5279:5282   */\n      dup3\n        /* \"#utility.yul\":5275:5287   */\n      add\n        /* \"#utility.yul\":5268:5287   */\n      swap1\n      pop\n        /* \"#utility.yul\":4927:5293   */\n      swap2\n      swap1\n      pop\n      jump\t// out\n        /* \"#utility.yul\":5299:5718   */\n    tag_47:\n        /* \"#utility.yul\":5465:5469   */\n      0x00\n        /* \"#utility.yul\":5503:5505   */\n      0x20\n        /* \"#utility.yul\":5492:5501   */\n      dup3\n        /* \"#utility.yul\":5488:5506   */\n      add\n        /* \"#utility.yul\":5480:5506   */\n      swap1\n      pop\n        /* \"#utility.yul\":5552:5561   */\n      dup2\n        /* \"#utility.yul\":5546:5550   */\n      dup2\n        /* \"#utility.yul\":5542:5562   */\n      sub\n        /* \"#utility.yul\":5538:5539   */\n      0x00\n        /* \"#utility.yul\":5527:5536   */\n      dup4\n        /* \"#utility.yul\":5523:5540   */\n      add\n        /* \"#utility.yul\":5516:5563   */\n      mstore\n        /* \"#utility.yul\":5580:5711   */\n      tag_152\n        /* \"#utility.yul\":5706:5710   */\n      dup2\n        /* \"#utility.yul\":5580:5711   */\n      tag_88\n      jump\t// in\n    tag_152:\n        /* \"#utility.yul\":5572:5711   */\n      swap1\n      pop\n        /* \"#utility.yul\":5299:5718   */\n      swap2\n      swap1\n      pop\n      jump\t// out\n        /* \"#utility.yul\":5724:5904   */\n    tag_89:\n        /* \"#utility.yul\":5772:5849   */\n      0x4e487b7100000000000000000000000000000000000000000000000000000000\n        /* \"#utility.yul\":5769:5770   */\n      0x00\n        /* \"#utility.yul\":5762:5850   */\n      mstore\n        /* \"#utility.yul\":5869:5873   */\n      0x11\n        /* \"#utility.yul\":5866:5867   */\n      0x04\n        /* \"#utility.yul\":5859:5874   */\n      mstore\n        /* \"#utility.yul\":5893:5897   */\n      0x24\n        /* \"#utility.yul\":5890:5891   */\n      0x00\n        /* \"#utility.yul\":5883:5898   */\n      revert\n        /* \"#utility.yul\":5910:6104   */\n    tag_49:\n        /* \"#utility.yul\":5950:5954   */\n      0x00\n        /* \"#utility.yul\":5970:5990   */\n      tag_155\n        /* \"#utility.yul\":5988:5989   */\n      dup3\n        /* \"#utility.yul\":5970:5990   */\n      tag_70\n      jump\t// in\n    tag_155:\n        /* \"#utility.yul\":5965:5990   */\n      swap2\n      pop\n        /* \"#utility.yul\":6004:6024   */\n      tag_156\n        /* \"#utility.yul\":6022:6023   */\n      dup4\n        /* \"#utility.yul\":6004:6024   */\n      tag_70\n      jump\t// in\n    tag_156:\n        /* \"#utility.yul\":5999:6024   */\n      swap3\n      pop\n        /* \"#utility.yul\":6048:6049   */\n      dup3\n        /* \"#utility.yul\":6045:6046   */\n      dup3\n        /* \"#utility.yul\":6041:6050   */\n      sub\n        /* \"#utility.yul\":6033:6050   */\n      swap1\n      pop\n        /* \"#utility.yul\":6072:6073   */\n      dup2\n        /* \"#utility.yul\":6066:6070   */\n      dup2\n        /* \"#utility.yul\":6063:6074   */\n      gt\n        /* \"#utility.yul\":6060:6097   */\n      iszero\n      tag_157\n      jumpi\n        /* \"#utility.yul\":6077:6095   */\n      tag_158\n      tag_89\n      jump\t// in\n    tag_158:\n        /* \"#utility.yul\":6060:6097   */\n    tag_157:\n        /* \"#utility.yul\":5910:6104   */\n      swap3\n      swap2\n      pop\n      pop\n      jump\t// out\n        /* \"#utility.yul\":6110:6298   */\n    tag_90:\n        /* \"#utility.yul\":6279:6291   */\n      0x6265666f72653a3a3a3a00000000000000000000000000000000000000000000\n        /* \"#utility.yul\":6274:6277   */\n      dup2\n        /* \"#utility.yul\":6267:6292   */\n      mstore\n        /* \"#utility.yul\":6110:6298   */\n      pop\n      jump\t// out\n        /* \"#utility.yul\":6304:6403   */\n    tag_91:\n        /* \"#utility.yul\":6356:6362   */\n      0x00\n        /* \"#utility.yul\":6390:6395   */\n      dup2\n        /* \"#utility.yul\":6384:6396   */\n      mload\n        /* \"#utility.yul\":6374:6396   */\n      swap1\n      pop\n        /* \"#utility.yul\":6304:6403   */\n      swap2\n      swap1\n      pop\n      jump\t// out\n        /* \"#utility.yul\":6409:6557   */\n    tag_92:\n        /* \"#utility.yul\":6511:6522   */\n      0x00\n        /* \"#utility.yul\":6548:6551   */\n      dup2\n        /* \"#utility.yul\":6533:6551   */\n      swap1\n      pop\n        /* \"#utility.yul\":6409:6557   */\n      swap3\n      swap2\n      pop\n      pop\n      jump\t// out\n        /* \"#utility.yul\":6563:6702   */\n    tag_93:\n        /* \"#utility.yul\":6652:6658   */\n      dup3\n        /* \"#utility.yul\":6647:6650   */\n      dup2\n        /* \"#utility.yul\":6642:6645   */\n      dup4\n        /* \"#utility.yul\":6636:6659   */\n      mcopy\n        /* \"#utility.yul\":6693:6694   */\n      0x00\n        /* \"#utility.yul\":6684:6690   */\n      dup4\n        /* \"#utility.yul\":6679:6682   */\n      dup4\n        /* \"#utility.yul\":6675:6691   */\n      add\n        /* \"#utility.yul\":6668:6695   */\n      mstore\n        /* \"#utility.yul\":6563:6702   */\n      pop\n      pop\n      pop\n      jump\t// out\n        /* \"#utility.yul\":6708:7098   */\n    tag_94:\n        /* \"#utility.yul\":6814:6817   */\n      0x00\n        /* \"#utility.yul\":6842:6881   */\n      tag_164\n        /* \"#utility.yul\":6875:6880   */\n      dup3\n        /* \"#utility.yul\":6842:6881   */\n      tag_91\n      jump\t// in\n    tag_164:\n        /* \"#utility.yul\":6897:6986   */\n      tag_165\n        /* \"#utility.yul\":6979:6985   */\n      dup2\n        /* \"#utility.yul\":6974:6977   */\n      dup6\n        /* \"#utility.yul\":6897:6986   */\n      tag_92\n      jump\t// in\n    tag_165:\n        /* \"#utility.yul\":6890:6986   */\n      swap4\n      pop\n        /* \"#utility.yul\":6995:7060   */\n      tag_166\n        /* \"#utility.yul\":7053:7059   */\n      dup2\n        /* \"#utility.yul\":7048:7051   */\n      dup6\n        /* \"#utility.yul\":7041:7045   */\n      0x20\n        /* \"#utility.yul\":7034:7039   */\n      dup7\n        /* \"#utility.yul\":7030:7046   */\n      add\n        /* \"#utility.yul\":6995:7060   */\n      tag_93\n      jump\t// in\n    tag_166:\n        /* \"#utility.yul\":7085:7091   */\n      dup1\n        /* \"#utility.yul\":7080:7083   */\n      dup5\n        /* \"#utility.yul\":7076:7092   */\n      add\n        /* \"#utility.yul\":7069:7092   */\n      swap2\n      pop\n        /* \"#utility.yul\":6818:7098   */\n      pop\n        /* \"#utility.yul\":6708:7098   */\n      swap3\n      swap2\n      pop\n      pop\n      jump\t// out\n        /* \"#utility.yul\":7104:7646   */\n    tag_57:\n        /* \"#utility.yul\":7327:7330   */\n      0x00\n        /* \"#utility.yul\":7342:7480   */\n      tag_168\n        /* \"#utility.yul\":7476:7479   */\n      dup3\n        /* \"#utility.yul\":7342:7480   */\n      tag_90\n      jump\t// in\n    tag_168:\n        /* \"#utility.yul\":7505:7507   */\n      0x0a\n        /* \"#utility.yul\":7500:7503   */\n      dup3\n        /* \"#utility.yul\":7496:7508   */\n      add\n        /* \"#utility.yul\":7489:7508   */\n      swap2\n      pop\n        /* \"#utility.yul\":7525:7620   */\n      tag_169\n        /* \"#utility.yul\":7616:7619   */\n      dup3\n        /* \"#utility.yul\":7607:7613   */\n      dup5\n        /* \"#utility.yul\":7525:7620   */\n      tag_94\n      jump\t// in\n    tag_169:\n        /* \"#utility.yul\":7518:7620   */\n      swap2\n      pop\n        /* \"#utility.yul\":7637:7640   */\n      dup2\n        /* \"#utility.yul\":7630:7640   */\n      swap1\n      pop\n        /* \"#utility.yul\":7104:7646   */\n      swap3\n      swap2\n      pop\n      pop\n      jump\t// out\n        /* \"#utility.yul\":7652:7754   */\n    tag_95:\n        /* \"#utility.yul\":7693:7699   */\n      0x00\n        /* \"#utility.yul\":7744:7746   */\n      0x1f\n        /* \"#utility.yul\":7740:7747   */\n      not\n        /* \"#utility.yul\":7735:7737   */\n      0x1f\n        /* \"#utility.yul\":7728:7733   */\n      dup4\n        /* \"#utility.yul\":7724:7738   */\n      add\n        /* \"#utility.yul\":7720:7748   */\n      and\n        /* \"#utility.yul\":7710:7748   */\n      swap1\n      pop\n        /* \"#utility.yul\":7652:7754   */\n      swap2\n      swap1\n      pop\n      jump\t// out\n        /* \"#utility.yul\":7760:8137   */\n    tag_96:\n        /* \"#utility.yul\":7848:7851   */\n      0x00\n        /* \"#utility.yul\":7876:7915   */\n      tag_172\n        /* \"#utility.yul\":7909:7914   */\n      dup3\n        /* \"#utility.yul\":7876:7915   */\n      tag_91\n      jump\t// in\n    tag_172:\n        /* \"#utility.yul\":7931:8002   */\n      tag_173\n        /* \"#utility.yul\":7995:8001   */\n      dup2\n        /* \"#utility.yul\":7990:7993   */\n      dup6\n        /* \"#utility.yul\":7931:8002   */\n      tag_82\n      jump\t// in\n    tag_173:\n        /* \"#utility.yul\":7924:8002   */\n      swap4\n      pop\n        /* \"#utility.yul\":8011:8076   */\n      tag_174\n        /* \"#utility.yul\":8069:8075   */\n      dup2\n        /* \"#utility.yul\":8064:8067   */\n      dup6\n        /* \"#utility.yul\":8057:8061   */\n      0x20\n        /* \"#utility.yul\":8050:8055   */\n      dup7\n        /* \"#utility.yul\":8046:8062   */\n      add\n        /* \"#utility.yul\":8011:8076   */\n      tag_93\n      jump\t// in\n    tag_174:\n        /* \"#utility.yul\":8101:8130   */\n      tag_175\n        /* \"#utility.yul\":8123:8129   */\n      dup2\n        /* \"#utility.yul\":8101:8130   */\n      tag_95\n      jump\t// in\n    tag_175:\n        /* \"#utility.yul\":8096:8099   */\n      dup5\n        /* \"#utility.yul\":8092:8131   */\n      add\n        /* \"#utility.yul\":8085:8131   */\n      swap2\n      pop\n        /* \"#utility.yul\":7852:8137   */\n      pop\n        /* \"#utility.yul\":7760:8137   */\n      swap3\n      swap2\n      pop\n      pop\n      jump\t// out\n        /* \"#utility.yul\":8143:8456   */\n    tag_59:\n        /* \"#utility.yul\":8256:8260   */\n      0x00\n        /* \"#utility.yul\":8294:8296   */\n      0x20\n        /* \"#utility.yul\":8283:8292   */\n      dup3\n        /* \"#utility.yul\":8279:8297   */\n      add\n        /* \"#utility.yul\":8271:8297   */\n      swap1\n      pop\n        /* \"#utility.yul\":8343:8352   */\n      dup2\n        /* \"#utility.yul\":8337:8341   */\n      dup2\n        /* \"#utility.yul\":8333:8353   */\n      sub\n        /* \"#utility.yul\":8329:8330   */\n      0x00\n        /* \"#utility.yul\":8318:8327   */\n      dup4\n        /* \"#utility.yul\":8314:8331   */\n      add\n        /* \"#utility.yul\":8307:8354   */\n      mstore\n        /* \"#utility.yul\":8371:8449   */\n      tag_177\n        /* \"#utility.yul\":8444:8448   */\n      dup2\n        /* \"#utility.yul\":8435:8441   */\n      dup5\n        /* \"#utility.yul\":8371:8449   */\n      tag_96\n      jump\t// in\n    tag_177:\n        /* \"#utility.yul\":8363:8449   */\n      swap1\n      pop\n        /* \"#utility.yul\":8143:8456   */\n      swap3\n      swap2\n      pop\n      pop\n      jump\t// out\n        /* \"#utility.yul\":8462:8650   */\n    tag_97:\n        /* \"#utility.yul\":8631:8643   */\n      0x61667465722d2d2d2d3e00000000000000000000000000000000000000000000\n        /* \"#utility.yul\":8626:8629   */\n      dup2\n        /* \"#utility.yul\":8619:8644   */\n      mstore\n        /* \"#utility.yul\":8462:8650   */\n      pop\n      jump\t// out\n        /* \"#utility.yul\":8656:9198   */\n    tag_62:\n        /* \"#utility.yul\":8879:8882   */\n      0x00\n        /* \"#utility.yul\":8894:9032   */\n      tag_180\n        /* \"#utility.yul\":9028:9031   */\n      dup3\n        /* \"#utility.yul\":8894:9032   */\n      tag_97\n      jump\t// in\n    tag_180:\n        /* \"#utility.yul\":9057:9059   */\n      0x0a\n        /* \"#utility.yul\":9052:9055   */\n      dup3\n        /* \"#utility.yul\":9048:9060   */\n      add\n        /* \"#utility.yul\":9041:9060   */\n      swap2\n      pop\n        /* \"#utility.yul\":9077:9172   */\n      tag_181\n        /* \"#utility.yul\":9168:9171   */\n      dup3\n        /* \"#utility.yul\":9159:9165   */\n      dup5\n        /* \"#utility.yul\":9077:9172   */\n      tag_94\n      jump\t// in\n    tag_181:\n        /* \"#utility.yul\":9070:9172   */\n      swap2\n      pop\n        /* \"#utility.yul\":9189:9192   */\n      dup2\n        /* \"#utility.yul\":9182:9192   */\n      swap1\n      pop\n        /* \"#utility.yul\":8656:9198   */\n      swap3\n      swap2\n      pop\n      pop\n      jump\t// out\n        /* \"#utility.yul\":9204:9432   */\n    tag_98:\n        /* \"#utility.yul\":9344:9378   */\n      0x4465706f73697420616d6f756e74206d75737420626520677265617465722074\n        /* \"#utility.yul\":9340:9341   */\n      0x00\n        /* \"#utility.yul\":9332:9338   */\n      dup3\n        /* \"#utility.yul\":9328:9342   */\n      add\n        /* \"#utility.yul\":9321:9379   */\n      mstore\n        /* \"#utility.yul\":9413:9424   */\n      0x68616e2030207765690000000000000000000000000000000000000000000000\n        /* \"#utility.yul\":9408:9410   */\n      0x20\n        /* \"#utility.yul\":9400:9406   */\n      dup3\n        /* \"#utility.yul\":9396:9411   */\n      add\n        /* \"#utility.yul\":9389:9425   */\n      mstore\n        /* \"#utility.yul\":9204:9432   */\n      pop\n      jump\t// out\n        /* \"#utility.yul\":9438:9804   */\n    tag_99:\n        /* \"#utility.yul\":9580:9583   */\n      0x00\n        /* \"#utility.yul\":9601:9668   */\n      tag_184\n        /* \"#utility.yul\":9665:9667   */\n      0x29\n        /* \"#utility.yul\":9660:9663   */\n      dup4\n        /* \"#utility.yul\":9601:9668   */\n      tag_82\n      jump\t// in\n    tag_184:\n        /* \"#utility.yul\":9594:9668   */\n      swap2\n      pop\n        /* \"#utility.yul\":9677:9770   */\n      tag_185\n        /* \"#utility.yul\":9766:9769   */\n      dup3\n        /* \"#utility.yul\":9677:9770   */\n      tag_98\n      jump\t// in\n    tag_185:\n        /* \"#utility.yul\":9795:9797   */\n      0x40\n        /* \"#utility.yul\":9790:9793   */\n      dup3\n        /* \"#utility.yul\":9786:9798   */\n      add\n        /* \"#utility.yul\":9779:9798   */\n      swap1\n      pop\n        /* \"#utility.yul\":9438:9804   */\n      swap2\n      swap1\n      pop\n      jump\t// out\n        /* \"#utility.yul\":9810:10229   */\n    tag_67:\n        /* \"#utility.yul\":9976:9980   */\n      0x00\n        /* \"#utility.yul\":10014:10016   */\n      0x20\n        /* \"#utility.yul\":10003:10012   */\n      dup3\n        /* \"#utility.yul\":9999:10017   */\n      add\n        /* \"#utility.yul\":9991:10017   */\n      swap1\n      pop\n        /* \"#utility.yul\":10063:10072   */\n      dup2\n        /* \"#utility.yul\":10057:10061   */\n      dup2\n        /* \"#utility.yul\":10053:10073   */\n      sub\n        /* \"#utility.yul\":10049:10050   */\n      0x00\n        /* \"#utility.yul\":10038:10047   */\n      dup4\n        /* \"#utility.yul\":10034:10051   */\n      add\n        /* \"#utility.yul\":10027:10074   */\n      mstore\n        /* \"#utility.yul\":10091:10222   */\n      tag_187\n        /* \"#utility.yul\":10217:10221   */\n      dup2\n        /* \"#utility.yul\":10091:10222   */\n      tag_99\n      jump\t// in\n    tag_187:\n        /* \"#utility.yul\":10083:10222   */\n      swap1\n      pop\n        /* \"#utility.yul\":9810:10229   */\n      swap2\n      swap1\n      pop\n      jump\t// out\n        /* \"#utility.yul\":10235:10426   */\n    tag_69:\n        /* \"#utility.yul\":10275:10278   */\n      0x00\n        /* \"#utility.yul\":10294:10314   */\n      tag_189\n        /* \"#utility.yul\":10312:10313   */\n      dup3\n        /* \"#utility.yul\":10294:10314   */\n      tag_70\n      jump\t// in\n    tag_189:\n        /* \"#utility.yul\":10289:10314   */\n      swap2\n      pop\n        /* \"#utility.yul\":10328:10348   */\n      tag_190\n        /* \"#utility.yul\":10346:10347   */\n      dup4\n        /* \"#utility.yul\":10328:10348   */\n      tag_70\n      jump\t// in\n    tag_190:\n        /* \"#utility.yul\":10323:10348   */\n      swap3\n      pop\n        /* \"#utility.yul\":10371:10372   */\n      dup3\n        /* \"#utility.yul\":10368:10369   */\n      dup3\n        /* \"#utility.yul\":10364:10373   */\n      add\n        /* \"#utility.yul\":10357:10373   */\n      swap1\n      pop\n        /* \"#utility.yul\":10392:10395   */\n      dup1\n        /* \"#utility.yul\":10389:10390   */\n      dup3\n        /* \"#utility.yul\":10386:10396   */\n      gt\n        /* \"#utility.yul\":10383:10419   */\n      iszero\n      tag_191\n      jumpi\n        /* \"#utility.yul\":10399:10417   */\n      tag_192\n      tag_89\n      jump\t// in\n    tag_192:\n        /* \"#utility.yul\":10383:10419   */\n    tag_191:\n        /* \"#utility.yul\":10235:10426   */\n      swap3\n      swap2\n      pop\n      pop\n      jump\t// out\n\n    auxdata: 0xa2646970667358221220e6496fc7aa08e2ce336c362884340c0b9f9bb10263042c1040ad8593316bf9e564736f6c634300081e0033\n}\n",
				"bytecode": {
					"linkReferences": {},
					"object": "6080604052348015600e575f5ffd5b50335f5f6101000a81548173ffffffffffffffffffffffffffffffffffffffff021916908373ffffffffffffffffffffffffffffffffffffffff160217905550610af78061005b5f395ff3fe608060405260043610610054575f3560e01c806312065fe0146100585780632e1a7d4d146100825780638da5cb5b146100aa578063a6f9dae1146100d4578063d0e30db0146100fc578063e3d670d714610106575b5f5ffd5b348015610063575f5ffd5b5061006c610142565b60405161007991906105c3565b60405180910390f35b34801561008d575f5ffd5b506100a860048036038101906100a3919061060a565b610149565b005b3480156100b5575f5ffd5b506100be6102f8565b6040516100cb9190610674565b60405180910390f35b3480156100df575f5ffd5b506100fa60048036038101906100f591906106b7565b61031c565b005b6101046104ff565b005b348015610111575f5ffd5b5061012c600480360381019061012791906106b7565b610596565b60405161013991906105c3565b60405180910390f35b5f47905090565b5f5f9054906101000a900473ffffffffffffffffffffffffffffffffffffffff1673ffffffffffffffffffffffffffffffffffffffff163373ffffffffffffffffffffffffffffffffffffffff16146101d7576040517f08c379a00000000000000000000000000000000000000000000000000000000081526004016101ce9061073c565b60405180910390fd5b805f811161021a576040517f08c379a0000000000000000000000000000000000000000000000000000000008152600401610211906107ca565b60405180910390fd5b4782111561025d576040517f08c379a000000000000000000000000000000000000000000000000000000000815260040161025490610832565b60405180910390fd5b8160015f3373ffffffffffffffffffffffffffffffffffffffff1673ffffffffffffffffffffffffffffffffffffffff1681526020019081526020015f205f8282546102a9919061087d565b925050819055503373ffffffffffffffffffffffffffffffffffffffff166108fc8390811502906040515f60405180830381858888f193505050501580156102f3573d5f5f3e3d5ffd5b505050565b5f5f9054906101000a900473ffffffffffffffffffffffffffffffffffffffff1681565b5f5f9054906101000a900473ffffffffffffffffffffffffffffffffffffffff1673ffffffffffffffffffffffffffffffffffffffff163373ffffffffffffffffffffffffffffffffffffffff16146103aa576040517f08c379a00000000000000000000000000000000000000000000000000000000081526004016103a19061073c565b60405180910390fd5b806040518060400160405280600b81526020017f6368616e67654f776e65720000000000000000000000000000000000000000008152508173ffffffffffffffffffffffffffffffffffffffff167f10b08d393cf38a1bd8d4bac86a132bf2494d5aa5146b6389d13cf6008650b3e68260405160200161042a9190610928565b6040516020818303038152906040526040516104469190610995565b60405180910390a2825f5f6101000a81548173ffffffffffffffffffffffffffffffffffffffff021916908373ffffffffffffffffffffffffffffffffffffffff1602179055508173ffffffffffffffffffffffffffffffffffffffff167f10b08d393cf38a1bd8d4bac86a132bf2494d5aa5146b6389d13cf6008650b3e6826040516020016104d691906109db565b6040516020818303038152906040526040516104f29190610995565b60405180910390a2505050565b5f3411610541576040517f08c379a000000000000000000000000000000000000000000000000000000000815260040161053890610a70565b60405180910390fd5b3460015f3373ffffffffffffffffffffffffffffffffffffffff1673ffffffffffffffffffffffffffffffffffffffff1681526020019081526020015f205f82825461058d9190610a8e565b92505081905550565b6001602052805f5260405f205f915090505481565b5f819050919050565b6105bd816105ab565b82525050565b5f6020820190506105d65f8301846105b4565b92915050565b5f5ffd5b6105e9816105ab565b81146105f3575f5ffd5b50565b5f81359050610604816105e0565b92915050565b5f6020828403121561061f5761061e6105dc565b5b5f61062c848285016105f6565b91505092915050565b5f73ffffffffffffffffffffffffffffffffffffffff82169050919050565b5f61065e82610635565b9050919050565b61066e81610654565b82525050565b5f6020820190506106875f830184610665565b92915050565b61069681610654565b81146106a0575f5ffd5b50565b5f813590506106b18161068d565b92915050565b5f602082840312156106cc576106cb6105dc565b5b5f6106d9848285016106a3565b91505092915050565b5f82825260208201905092915050565b7f4f6e6c79204f776e6572000000000000000000000000000000000000000000005f82015250565b5f610726600a836106e2565b9150610731826106f2565b602082019050919050565b5f6020820190508181035f8301526107538161071a565b9050919050565b7f21212121616d6f756e742076616c7565206d75737420626520677265617465725f8201527f207468616e203021212121000000000000000000000000000000000000000000602082015250565b5f6107b4602b836106e2565b91506107bf8261075a565b604082019050919050565b5f6020820190508181035f8301526107e1816107a8565b9050919050565b7f496e73756666696369656e7420636f6e74726163742062616c616e63650000005f82015250565b5f61081c601d836106e2565b9150610827826107e8565b602082019050919050565b5f6020820190508181035f83015261084981610810565b9050919050565b7f4e487b71000000000000000000000000000000000000000000000000000000005f52601160045260245ffd5b5f610887826105ab565b9150610892836105ab565b92508282039050818111156108aa576108a9610850565b5b92915050565b7f6265666f72653a3a3a3a00000000000000000000000000000000000000000000815250565b5f81519050919050565b5f81905092915050565b8281835e5f83830152505050565b5f610902826108d6565b61090c81856108e0565b935061091c8185602086016108ea565b80840191505092915050565b5f610932826108b0565b600a8201915061094282846108f8565b915081905092915050565b5f601f19601f8301169050919050565b5f610967826108d6565b61097181856106e2565b93506109818185602086016108ea565b61098a8161094d565b840191505092915050565b5f6020820190508181035f8301526109ad818461095d565b905092915050565b7f61667465722d2d2d2d3e00000000000000000000000000000000000000000000815250565b5f6109e5826109b5565b600a820191506109f582846108f8565b915081905092915050565b7f4465706f73697420616d6f756e74206d757374206265206772656174657220745f8201527f68616e2030207765690000000000000000000000000000000000000000000000602082015250565b5f610a5a6029836106e2565b9150610a6582610a00565b604082019050919050565b5f6020820190508181035f830152610a8781610a4e565b9050919050565b5f610a98826105ab565b9150610aa3836105ab565b9250828201905080821115610abb57610aba610850565b5b9291505056fea2646970667358221220e6496fc7aa08e2ce336c362884340c0b9f9bb10263042c1040ad8593316bf9e564736f6c634300081e0033",
					"opcodes": "PUSH1 0x80 PUSH1 0x40 MSTORE CALLVALUE DUP1 ISZERO PUSH1 0xE JUMPI PUSH0 PUSH0 REVERT JUMPDEST POP CALLER PUSH0 PUSH0 PUSH2 0x100 EXP DUP2 SLOAD DUP2 PUSH20 0xFFFFFFFFFFFFFFFFFFFFFFFFFFFFFFFFFFFFFFFF MUL NOT AND SWAP1 DUP4 PUSH20 0xFFFFFFFFFFFFFFFFFFFFFFFFFFFFFFFFFFFFFFFF AND MUL OR SWAP1 SSTORE POP PUSH2 0xAF7 DUP1 PUSH2 0x5B PUSH0 CODECOPY PUSH0 RETURN INVALID PUSH1 0x80 PUSH1 0x40 MSTORE PUSH1 0x4 CALLDATASIZE LT PUSH2 0x54 JUMPI PUSH0 CALLDATALOAD PUSH1 0xE0 SHR DUP1 PUSH4 0x12065FE0 EQ PUSH2 0x58 JUMPI DUP1 PUSH4 0x2E1A7D4D EQ PUSH2 0x82 JUMPI DUP1 PUSH4 0x8DA5CB5B EQ PUSH2 0xAA JUMPI DUP1 PUSH4 0xA6F9DAE1 EQ PUSH2 0xD4 JUMPI DUP1 PUSH4 0xD0E30DB0 EQ PUSH2 0xFC JUMPI DUP1 PUSH4 0xE3D670D7 EQ PUSH2 0x106 JUMPI JUMPDEST PUSH0 PUSH0 REVERT JUMPDEST CALLVALUE DUP1 ISZERO PUSH2 0x63 JUMPI PUSH0 PUSH0 REVERT JUMPDEST POP PUSH2 0x6C PUSH2 0x142 JUMP JUMPDEST PUSH1 0x40 MLOAD PUSH2 0x79 SWAP2 SWAP1 PUSH2 0x5C3 JUMP JUMPDEST PUSH1 0x40 MLOAD DUP1 SWAP2 SUB SWAP1 RETURN JUMPDEST CALLVALUE DUP1 ISZERO PUSH2 0x8D JUMPI PUSH0 PUSH0 REVERT JUMPDEST POP PUSH2 0xA8 PUSH1 0x4 DUP1 CALLDATASIZE SUB DUP2 ADD SWAP1 PUSH2 0xA3 SWAP2 SWAP1 PUSH2 0x60A JUMP JUMPDEST PUSH2 0x149 JUMP JUMPDEST STOP JUMPDEST CALLVALUE DUP1 ISZERO PUSH2 0xB5 JUMPI PUSH0 PUSH0 REVERT JUMPDEST POP PUSH2 0xBE PUSH2 0x2F8 JUMP JUMPDEST PUSH1 0x40 MLOAD PUSH2 0xCB SWAP2 SWAP1 PUSH2 0x674 JUMP JUMPDEST PUSH1 0x40 MLOAD DUP1 SWAP2 SUB SWAP1 RETURN JUMPDEST CALLVALUE DUP1 ISZERO PUSH2 0xDF JUMPI PUSH0 PUSH0 REVERT JUMPDEST POP PUSH2 0xFA PUSH1 0x4 DUP1 CALLDATASIZE SUB DUP2 ADD SWAP1 PUSH2 0xF5 SWAP2 SWAP1 PUSH2 0x6B7 JUMP JUMPDEST PUSH2 0x31C JUMP JUMPDEST STOP JUMPDEST PUSH2 0x104 PUSH2 0x4FF JUMP JUMPDEST STOP JUMPDEST CALLVALUE DUP1 ISZERO PUSH2 0x111 JUMPI PUSH0 PUSH0 REVERT JUMPDEST POP PUSH2 0x12C PUSH1 0x4 DUP1 CALLDATASIZE SUB DUP2 ADD SWAP1 PUSH2 0x127 SWAP2 SWAP1 PUSH2 0x6B7 JUMP JUMPDEST PUSH2 0x596 JUMP JUMPDEST PUSH1 0x40 MLOAD PUSH2 0x139 SWAP2 SWAP1 PUSH2 0x5C3 JUMP JUMPDEST PUSH1 0x40 MLOAD DUP1 SWAP2 SUB SWAP1 RETURN JUMPDEST PUSH0 SELFBALANCE SWAP1 POP SWAP1 JUMP JUMPDEST PUSH0 PUSH0 SWAP1 SLOAD SWAP1 PUSH2 0x100 EXP SWAP1 DIV PUSH20 0xFFFFFFFFFFFFFFFFFFFFFFFFFFFFFFFFFFFFFFFF AND PUSH20 0xFFFFFFFFFFFFFFFFFFFFFFFFFFFFFFFFFFFFFFFF AND CALLER PUSH20 0xFFFFFFFFFFFFFFFFFFFFFFFFFFFFFFFFFFFFFFFF AND EQ PUSH2 0x1D7 JUMPI PUSH1 0x40 MLOAD PUSH32 0x8C379A000000000000000000000000000000000000000000000000000000000 DUP2 MSTORE PUSH1 0x4 ADD PUSH2 0x1CE SWAP1 PUSH2 0x73C JUMP JUMPDEST PUSH1 0x40 MLOAD DUP1 SWAP2 SUB SWAP1 REVERT JUMPDEST DUP1 PUSH0 DUP2 GT PUSH2 0x21A JUMPI PUSH1 0x40 MLOAD PUSH32 0x8C379A000000000000000000000000000000000000000000000000000000000 DUP2 MSTORE PUSH1 0x4 ADD PUSH2 0x211 SWAP1 PUSH2 0x7CA JUMP JUMPDEST PUSH1 0x40 MLOAD DUP1 SWAP2 SUB SWAP1 REVERT JUMPDEST SELFBALANCE DUP3 GT ISZERO PUSH2 0x25D JUMPI PUSH1 0x40 MLOAD PUSH32 0x8C379A000000000000000000000000000000000000000000000000000000000 DUP2 MSTORE PUSH1 0x4 ADD PUSH2 0x254 SWAP1 PUSH2 0x832 JUMP JUMPDEST PUSH1 0x40 MLOAD DUP1 SWAP2 SUB SWAP1 REVERT JUMPDEST DUP2 PUSH1 0x1 PUSH0 CALLER PUSH20 0xFFFFFFFFFFFFFFFFFFFFFFFFFFFFFFFFFFFFFFFF AND PUSH20 0xFFFFFFFFFFFFFFFFFFFFFFFFFFFFFFFFFFFFFFFF AND DUP2 MSTORE PUSH1 0x20 ADD SWAP1 DUP2 MSTORE PUSH1 0x20 ADD PUSH0 KECCAK256 PUSH0 DUP3 DUP3 SLOAD PUSH2 0x2A9 SWAP2 SWAP1 PUSH2 0x87D JUMP JUMPDEST SWAP3 POP POP DUP2 SWAP1 SSTORE POP CALLER PUSH20 0xFFFFFFFFFFFFFFFFFFFFFFFFFFFFFFFFFFFFFFFF AND PUSH2 0x8FC DUP4 SWAP1 DUP2 ISZERO MUL SWAP1 PUSH1 0x40 MLOAD PUSH0 PUSH1 0x40 MLOAD DUP1 DUP4 SUB DUP2 DUP6 DUP9 DUP9 CALL SWAP4 POP POP POP POP ISZERO DUP1 ISZERO PUSH2 0x2F3 JUMPI RETURNDATASIZE PUSH0 PUSH0 RETURNDATACOPY RETURNDATASIZE PUSH0 REVERT JUMPDEST POP POP POP JUMP JUMPDEST PUSH0 PUSH0 SWAP1 SLOAD SWAP1 PUSH2 0x100 EXP SWAP1 DIV PUSH20 0xFFFFFFFFFFFFFFFFFFFFFFFFFFFFFFFFFFFFFFFF AND DUP2 JUMP JUMPDEST PUSH0 PUSH0 SWAP1 SLOAD SWAP1 PUSH2 0x100 EXP SWAP1 DIV PUSH20 0xFFFFFFFFFFFFFFFFFFFFFFFFFFFFFFFFFFFFFFFF AND PUSH20 0xFFFFFFFFFFFFFFFFFFFFFFFFFFFFFFFFFFFFFFFF AND CALLER PUSH20 0xFFFFFFFFFFFFFFFFFFFFFFFFFFFFFFFFFFFFFFFF AND EQ PUSH2 0x3AA JUMPI PUSH1 0x40 MLOAD PUSH32 0x8C379A000000000000000000000000000000000000000000000000000000000 DUP2 MSTORE PUSH1 0x4 ADD PUSH2 0x3A1 SWAP1 PUSH2 0x73C JUMP JUMPDEST PUSH1 0x40 MLOAD DUP1 SWAP2 SUB SWAP1 REVERT JUMPDEST DUP1 PUSH1 0x40 MLOAD DUP1 PUSH1 0x40 ADD PUSH1 0x40 MSTORE DUP1 PUSH1 0xB DUP2 MSTORE PUSH1 0x20 ADD PUSH32 0x6368616E67654F776E6572000000000000000000000000000000000000000000 DUP2 MSTORE POP DUP2 PUSH20 0xFFFFFFFFFFFFFFFFFFFFFFFFFFFFFFFFFFFFFFFF AND PUSH32 0x10B08D393CF38A1BD8D4BAC86A132BF2494D5AA5146B6389D13CF6008650B3E6 DUP3 PUSH1 0x40 MLOAD PUSH1 0x20 ADD PUSH2 0x42A SWAP2 SWAP1 PUSH2 0x928 JUMP JUMPDEST PUSH1 0x40 MLOAD PUSH1 0x20 DUP2 DUP4 SUB SUB DUP2 MSTORE SWAP1 PUSH1 0x40 MSTORE PUSH1 0x40 MLOAD PUSH2 0x446 SWAP2 SWAP1 PUSH2 0x995 JUMP JUMPDEST PUSH1 0x40 MLOAD DUP1 SWAP2 SUB SWAP1 LOG2 DUP3 PUSH0 PUSH0 PUSH2 0x100 EXP DUP2 SLOAD DUP2 PUSH20 0xFFFFFFFFFFFFFFFFFFFFFFFFFFFFFFFFFFFFFFFF MUL NOT AND SWAP1 DUP4 PUSH20 0xFFFFFFFFFFFFFFFFFFFFFFFFFFFFFFFFFFFFFFFF AND MUL OR SWAP1 SSTORE POP DUP2 PUSH20 0xFFFFFFFFFFFFFFFFFFFFFFFFFFFFFFFFFFFFFFFF AND PUSH32 0x10B08D393CF38A1BD8D4BAC86A132BF2494D5AA5146B6389D13CF6008650B3E6 DUP3 PUSH1 0x40 MLOAD PUSH1 0x20 ADD PUSH2 0x4D6 SWAP2 SWAP1 PUSH2 0x9DB JUMP JUMPDEST PUSH1 0x40 MLOAD PUSH1 0x20 DUP2 DUP4 SUB SUB DUP2 MSTORE SWAP1 PUSH1 0x40 MSTORE PUSH1 0x40 MLOAD PUSH2 0x4F2 SWAP2 SWAP1 PUSH2 0x995 JUMP JUMPDEST PUSH1 0x40 MLOAD DUP1 SWAP2 SUB SWAP1 LOG2 POP POP POP JUMP JUMPDEST PUSH0 CALLVALUE GT PUSH2 0x541 JUMPI PUSH1 0x40 MLOAD PUSH32 0x8C379A000000000000000000000000000000000000000000000000000000000 DUP2 MSTORE PUSH1 0x4 ADD PUSH2 0x538 SWAP1 PUSH2 0xA70 JUMP JUMPDEST PUSH1 0x40 MLOAD DUP1 SWAP2 SUB SWAP1 REVERT JUMPDEST CALLVALUE PUSH1 0x1 PUSH0 CALLER PUSH20 0xFFFFFFFFFFFFFFFFFFFFFFFFFFFFFFFFFFFFFFFF AND PUSH20 0xFFFFFFFFFFFFFFFFFFFFFFFFFFFFFFFFFFFFFFFF AND DUP2 MSTORE PUSH1 0x20 ADD SWAP1 DUP2 MSTORE PUSH1 0x20 ADD PUSH0 KECCAK256 PUSH0 DUP3 DUP3 SLOAD PUSH2 0x58D SWAP2 SWAP1 PUSH2 0xA8E JUMP JUMPDEST SWAP3 POP POP DUP2 SWAP1 SSTORE POP JUMP JUMPDEST PUSH1 0x1 PUSH1 0x20 MSTORE DUP1 PUSH0 MSTORE PUSH1 0x40 PUSH0 KECCAK256 PUSH0 SWAP2 POP SWAP1 POP SLOAD DUP2 JUMP JUMPDEST PUSH0 DUP2 SWAP1 POP SWAP2 SWAP1 POP JUMP JUMPDEST PUSH2 0x5BD DUP2 PUSH2 0x5AB JUMP JUMPDEST DUP3 MSTORE POP POP JUMP JUMPDEST PUSH0 PUSH1 0x20 DUP3 ADD SWAP1 POP PUSH2 0x5D6 PUSH0 DUP4 ADD DUP5 PUSH2 0x5B4 JUMP JUMPDEST SWAP3 SWAP2 POP POP JUMP JUMPDEST PUSH0 PUSH0 REVERT JUMPDEST PUSH2 0x5E9 DUP2 PUSH2 0x5AB JUMP JUMPDEST DUP2 EQ PUSH2 0x5F3 JUMPI PUSH0 PUSH0 REVERT JUMPDEST POP JUMP JUMPDEST PUSH0 DUP2 CALLDATALOAD SWAP1 POP PUSH2 0x604 DUP2 PUSH2 0x5E0 JUMP JUMPDEST SWAP3 SWAP2 POP POP JUMP JUMPDEST PUSH0 PUSH1 0x20 DUP3 DUP5 SUB SLT ISZERO PUSH2 0x61F JUMPI PUSH2 0x61E PUSH2 0x5DC JUMP JUMPDEST JUMPDEST PUSH0 PUSH2 0x62C DUP5 DUP3 DUP6 ADD PUSH2 0x5F6 JUMP JUMPDEST SWAP2 POP POP SWAP3 SWAP2 POP POP JUMP JUMPDEST PUSH0 PUSH20 0xFFFFFFFFFFFFFFFFFFFFFFFFFFFFFFFFFFFFFFFF DUP3 AND SWAP1 POP SWAP2 SWAP1 POP JUMP JUMPDEST PUSH0 PUSH2 0x65E DUP3 PUSH2 0x635 JUMP JUMPDEST SWAP1 POP SWAP2 SWAP1 POP JUMP JUMPDEST PUSH2 0x66E DUP2 PUSH2 0x654 JUMP JUMPDEST DUP3 MSTORE POP POP JUMP JUMPDEST PUSH0 PUSH1 0x20 DUP3 ADD SWAP1 POP PUSH2 0x687 PUSH0 DUP4 ADD DUP5 PUSH2 0x665 JUMP JUMPDEST SWAP3 SWAP2 POP POP JUMP JUMPDEST PUSH2 0x696 DUP2 PUSH2 0x654 JUMP JUMPDEST DUP2 EQ PUSH2 0x6A0 JUMPI PUSH0 PUSH0 REVERT JUMPDEST POP JUMP JUMPDEST PUSH0 DUP2 CALLDATALOAD SWAP1 POP PUSH2 0x6B1 DUP2 PUSH2 0x68D JUMP JUMPDEST SWAP3 SWAP2 POP POP JUMP JUMPDEST PUSH0 PUSH1 0x20 DUP3 DUP5 SUB SLT ISZERO PUSH2 0x6CC JUMPI PUSH2 0x6CB PUSH2 0x5DC JUMP JUMPDEST JUMPDEST PUSH0 PUSH2 0x6D9 DUP5 DUP3 DUP6 ADD PUSH2 0x6A3 JUMP JUMPDEST SWAP2 POP POP SWAP3 SWAP2 POP POP JUMP JUMPDEST PUSH0 DUP3 DUP3 MSTORE PUSH1 0x20 DUP3 ADD SWAP1 POP SWAP3 SWAP2 POP POP JUMP JUMPDEST PUSH32 0x4F6E6C79204F776E657200000000000000000000000000000000000000000000 PUSH0 DUP3 ADD MSTORE POP JUMP JUMPDEST PUSH0 PUSH2 0x726 PUSH1 0xA DUP4 PUSH2 0x6E2 JUMP JUMPDEST SWAP2 POP PUSH2 0x731 DUP3 PUSH2 0x6F2 JUMP JUMPDEST PUSH1 0x20 DUP3 ADD SWAP1 POP SWAP2 SWAP1 POP JUMP JUMPDEST PUSH0 PUSH1 0x20 DUP3 ADD SWAP1 POP DUP2 DUP2 SUB PUSH0 DUP4 ADD MSTORE PUSH2 0x753 DUP2 PUSH2 0x71A JUMP JUMPDEST SWAP1 POP SWAP2 SWAP1 POP JUMP JUMPDEST PUSH32 0x21212121616D6F756E742076616C7565206D7573742062652067726561746572 PUSH0 DUP3 ADD MSTORE PUSH32 0x207468616E203021212121000000000000000000000000000000000000000000 PUSH1 0x20 DUP3 ADD MSTORE POP JUMP JUMPDEST PUSH0 PUSH2 0x7B4 PUSH1 0x2B DUP4 PUSH2 0x6E2 JUMP JUMPDEST SWAP2 POP PUSH2 0x7BF DUP3 PUSH2 0x75A JUMP JUMPDEST PUSH1 0x40 DUP3 ADD SWAP1 POP SWAP2 SWAP1 POP JUMP JUMPDEST PUSH0 PUSH1 0x20 DUP3 ADD SWAP1 POP DUP2 DUP2 SUB PUSH0 DUP4 ADD MSTORE PUSH2 0x7E1 DUP2 PUSH2 0x7A8 JUMP JUMPDEST SWAP1 POP SWAP2 SWAP1 POP JUMP JUMPDEST PUSH32 0x496E73756666696369656E7420636F6E74726163742062616C616E6365000000 PUSH0 DUP3 ADD MSTORE POP JUMP JUMPDEST PUSH0 PUSH2 0x81C PUSH1 0x1D DUP4 PUSH2 0x6E2 JUMP JUMPDEST SWAP2 POP PUSH2 0x827 DUP3 PUSH2 0x7E8 JUMP JUMPDEST PUSH1 0x20 DUP3 ADD SWAP1 POP SWAP2 SWAP1 POP JUMP JUMPDEST PUSH0 PUSH1 0x20 DUP3 ADD SWAP1 POP DUP2 DUP2 SUB PUSH0 DUP4 ADD MSTORE PUSH2 0x849 DUP2 PUSH2 0x810 JUMP JUMPDEST SWAP1 POP SWAP2 SWAP1 POP JUMP JUMPDEST PUSH32 0x4E487B7100000000000000000000000000000000000000000000000000000000 PUSH0 MSTORE PUSH1 0x11 PUSH1 0x4 MSTORE PUSH1 0x24 PUSH0 REVERT JUMPDEST PUSH0 PUSH2 0x887 DUP3 PUSH2 0x5AB JUMP JUMPDEST SWAP2 POP PUSH2 0x892 DUP4 PUSH2 0x5AB JUMP JUMPDEST SWAP3 POP DUP3 DUP3 SUB SWAP1 POP DUP2 DUP2 GT ISZERO PUSH2 0x8AA JUMPI PUSH2 0x8A9 PUSH2 0x850 JUMP JUMPDEST JUMPDEST SWAP3 SWAP2 POP POP JUMP JUMPDEST PUSH32 0x6265666F72653A3A3A3A00000000000000000000000000000000000000000000 DUP2 MSTORE POP JUMP JUMPDEST PUSH0 DUP2 MLOAD SWAP1 POP SWAP2 SWAP1 POP JUMP JUMPDEST PUSH0 DUP2 SWAP1 POP SWAP3 SWAP2 POP POP JUMP JUMPDEST DUP3 DUP2 DUP4 MCOPY PUSH0 DUP4 DUP4 ADD MSTORE POP POP POP JUMP JUMPDEST PUSH0 PUSH2 0x902 DUP3 PUSH2 0x8D6 JUMP JUMPDEST PUSH2 0x90C DUP2 DUP6 PUSH2 0x8E0 JUMP JUMPDEST SWAP4 POP PUSH2 0x91C DUP2 DUP6 PUSH1 0x20 DUP7 ADD PUSH2 0x8EA JUMP JUMPDEST DUP1 DUP5 ADD SWAP2 POP POP SWAP3 SWAP2 POP POP JUMP JUMPDEST PUSH0 PUSH2 0x932 DUP3 PUSH2 0x8B0 JUMP JUMPDEST PUSH1 0xA DUP3 ADD SWAP2 POP PUSH2 0x942 DUP3 DUP5 PUSH2 0x8F8 JUMP JUMPDEST SWAP2 POP DUP2 SWAP1 POP SWAP3 SWAP2 POP POP JUMP JUMPDEST PUSH0 PUSH1 0x1F NOT PUSH1 0x1F DUP4 ADD AND SWAP1 POP SWAP2 SWAP1 POP JUMP JUMPDEST PUSH0 PUSH2 0x967 DUP3 PUSH2 0x8D6 JUMP JUMPDEST PUSH2 0x971 DUP2 DUP6 PUSH2 0x6E2 JUMP JUMPDEST SWAP4 POP PUSH2 0x981 DUP2 DUP6 PUSH1 0x20 DUP7 ADD PUSH2 0x8EA JUMP JUMPDEST PUSH2 0x98A DUP2 PUSH2 0x94D JUMP JUMPDEST DUP5 ADD SWAP2 POP POP SWAP3 SWAP2 POP POP JUMP JUMPDEST PUSH0 PUSH1 0x20 DUP3 ADD SWAP1 POP DUP2 DUP2 SUB PUSH0 DUP4 ADD MSTORE PUSH2 0x9AD DUP2 DUP5 PUSH2 0x95D JUMP JUMPDEST SWAP1 POP SWAP3 SWAP2 POP POP JUMP JUMPDEST PUSH32 0x61667465722D2D2D2D3E00000000000000000000000000000000000000000000 DUP2 MSTORE POP JUMP JUMPDEST PUSH0 PUSH2 0x9E5 DUP3 PUSH2 0x9B5 JUMP JUMPDEST PUSH1 0xA DUP3 ADD SWAP2 POP PUSH2 0x9F5 DUP3 DUP5 PUSH2 0x8F8 JUMP JUMPDEST SWAP2 POP DUP2 SWAP1 POP SWAP3 SWAP2 POP POP JUMP JUMPDEST PUSH32 0x4465706F73697420616D6F756E74206D75737420626520677265617465722074 PUSH0 DUP3 ADD MSTORE PUSH32 0x68616E2030207765690000000000000000000000000000000000000000000000 PUSH1 0x20 DUP3 ADD MSTORE POP JUMP JUMPDEST PUSH0 PUSH2 0xA5A PUSH1 0x29 DUP4 PUSH2 0x6E2 JUMP JUMPDEST SWAP2 POP PUSH2 0xA65 DUP3 PUSH2 0xA00 JUMP JUMPDEST PUSH1 0x40 DUP3 ADD SWAP1 POP SWAP2 SWAP1 POP JUMP JUMPDEST PUSH0 PUSH1 0x20 DUP3 ADD SWAP1 POP DUP2 DUP2 SUB PUSH0 DUP4 ADD MSTORE PUSH2 0xA87 DUP2 PUSH2 0xA4E JUMP JUMPDEST SWAP1 POP SWAP2 SWAP1 POP JUMP JUMPDEST PUSH0 PUSH2 0xA98 DUP3 PUSH2 0x5AB JUMP JUMPDEST SWAP2 POP PUSH2 0xAA3 DUP4 PUSH2 0x5AB JUMP JUMPDEST SWAP3 POP DUP3 DUP3 ADD SWAP1 POP DUP1 DUP3 GT ISZERO PUSH2 0xABB JUMPI PUSH2 0xABA PUSH2 0x850 JUMP JUMPDEST JUMPDEST SWAP3 SWAP2 POP POP JUMP INVALID LOG2 PUSH5 0x6970667358 0x22 SLT KECCAK256 DUPN 0x49 PUSH16 0xC7AA08E2CE336C362884340C0B9F9BB1 MUL PUSH4 0x42C1040 0xAD DUP6 SWAP4 BALANCE PUSH12 0xF9E564736F6C634300081E00 CALLER "
				},
				"gasEstimates": {
					"creation": {
						"codeDepositCost": "561400",
						"executionCost": "24856",
						"totalCost": "586256"
					},
					"external": {
						"balance(address)": "2890",
						"changeOwner(address)": "infinite",
						"deposit()": "infinite",
						"getBalance()": "312",
						"owner()": "2529",
						"withdraw(uint256)": "infinite"
					}
				},
				"methodIdentifiers": {
					"balance(address)": "e3d670d7",
					"changeOwner(address)": "a6f9dae1",
					"deposit()": "d0e30db0",
					"getBalance()": "12065fe0",
					"owner()": "8da5cb5b",
					"withdraw(uint256)": "2e1a7d4d"
				}
			},
			"storageLayout": {
				"storage": [
					{
						"astId": 3,
						"contract": "17_modifier.sol:Modifier",
						"label": "owner",
						"offset": 0,
						"slot": "0",
						"type": "t_address"
					},
					{
						"astId": 7,
						"contract": "17_modifier.sol:Modifier",
						"label": "balance",
						"offset": 0,
						"slot": "1",
						"type": "t_mapping(t_address,t_uint256)"
					}
				],
				"types": {
					"t_address": {
						"encoding": "inplace",
						"label": "address",
						"numberOfBytes": "20"
					},
					"t_mapping(t_address,t_uint256)": {
						"encoding": "mapping",
						"key": "t_address",
						"label": "mapping(address => uint256)",
						"numberOfBytes": "32",
						"value": "t_uint256"
					},
					"t_uint256": {
						"encoding": "inplace",
						"label": "uint256",
						"numberOfBytes": "32"
					}
				}
			},
			"userdoc": {
				"kind": "user",
				"methods": {},
				"version": 1
			}
		}
	}
}