{
	"21_sendETH.sol": {
		"SendEthereum": {
			"abi": [
				{
					"inputs": [],
					"stateMutability": "payable",
					"type": "constructor"
				},
				{
					"anonymous": false,
					"inputs": [
						{
							"indexed": false,
							"internalType": "string",
							"name": "message",
							"type": "string"
						}
					],
					"name": "Log",
					"type": "event"
				},
				{
					"stateMutability": "payable",
					"type": "fallback"
				},
				{
					"inputs": [],
					"name": "deposit",
					"outputs": [],
					"stateMutability": "payable",
					"type": "function"
				},
				{
					"inputs": [],
					"name": "owner",
					"outputs": [
						{
							"internalType": "address payable",
							"name": "",
							"type": "address"
						}
					],
					"stateMutability": "view",
					"type": "function"
				},
				{
					"inputs": [
						{
							"internalType": "address payable",
							"name": "_to",
							"type": "address"
						},
						{
							"internalType": "uint256",
							"name": "amount",
							"type": "uint256"
						}
					],
					"name": "transfer",
					"outputs": [],
					"stateMutability": "nonpayable",
					"type": "function"
				},
				{
					"inputs": [],
					"name": "withdraw",
					"outputs": [],
					"stateMutability": "nonpayable",
					"type": "function"
				},
				{
					"stateMutability": "payable",
					"type": "receive"
				}
			],
			"devdoc": {
				"kind": "dev",
				"methods": {},
				"version": 1
			},
			"evm": {
				"assembly": "    /* \"21_sendETH.sol\":58:922  contract SendEthereum {... */\n  mstore(0x40, 0x80)\n    /* \"21_sendETH.sol\":201:211  msg.sender */\n  caller\n    /* \"21_sendETH.sol\":185:190  owner */\n  0x00\n  0x00\n    /* \"21_sendETH.sol\":185:212  owner = payable(msg.sender) */\n  0x0100\n  exp\n  dup2\n  sload\n  dup2\n  0xffffffffffffffffffffffffffffffffffffffff\n  mul\n  not\n  and\n  swap1\n  dup4\n  0xffffffffffffffffffffffffffffffffffffffff\n  and\n  mul\n  or\n  swap1\n  sstore\n  pop\n    /* \"21_sendETH.sol\":222:227  owner */\n  0x00\n  0x00\n  swap1\n  sload\n  swap1\n  0x0100\n  exp\n  swap1\n  div\n  0xffffffffffffffffffffffffffffffffffffffff\n  and\n    /* \"21_sendETH.sol\":222:236  owner.transfer */\n  0xffffffffffffffffffffffffffffffffffffffff\n  and\n    /* \"21_sendETH.sol\":222:259  owner.transfer(address(this).balance) */\n  0x08fc\n    /* \"21_sendETH.sol\":237:258  address(this).balance */\n  selfbalance\n    /* \"21_sendETH.sol\":222:259  owner.transfer(address(this).balance) */\n  swap1\n  dup2\n  iszero\n  mul\n  swap1\n  mload(0x40)\n  0x00\n  mload(0x40)\n  dup1\n  dup4\n  sub\n  dup2\n  dup6\n  dup9\n  dup9\n  call\n  swap4\n  pop\n  pop\n  pop\n  pop\n  iszero\n  dup1\n  iszero\n  tag_4\n  jumpi\n  returndatacopy(0x00, 0x00, returndatasize)\n  revert(0x00, returndatasize)\ntag_4:\n  pop\n    /* \"21_sendETH.sol\":58:922  contract SendEthereum {... */\n  dataSize(sub_0)\n  dup1\n  dataOffset(sub_0)\n  0x00\n  codecopy\n  0x00\n  return\nstop\n\nsub_0: assembly {\n        /* \"21_sendETH.sol\":58:922  contract SendEthereum {... */\n      mstore(0x40, 0x80)\n      jumpi(tag_1, lt(calldatasize, 0x04))\n      shr(0xe0, calldataload(0x00))\n      dup1\n      0x3ccfd60b\n      eq\n      tag_3\n      jumpi\n      dup1\n      0x8da5cb5b\n      eq\n      tag_4\n      jumpi\n      dup1\n      0xa9059cbb\n      eq\n      tag_5\n      jumpi\n      dup1\n      0xd0e30db0\n      eq\n      tag_6\n      jumpi\n      jump(tag_2)\n    tag_1:\n      jumpi(tag_2, calldatasize)\n        /* \"21_sendETH.sol\":779:819  Log(\"receive called+++++++++++++++++++\") */\n      0xcf34ef537ac33ee1ac626ca1587a0a7e8e51561e5514f8cb36afa1c5102b3bab\n      mload(0x40)\n      tag_9\n      swap1\n      tag_10\n      jump\t// in\n    tag_9:\n      mload(0x40)\n      dup1\n      swap2\n      sub\n      swap1\n      log1\n        /* \"21_sendETH.sol\":58:922  contract SendEthereum {... */\n      stop\n    tag_2:\n        /* \"21_sendETH.sol\":874:913  Log(\"fallback called~~~~~~~~~~~~~~~~~\") */\n      0xcf34ef537ac33ee1ac626ca1587a0a7e8e51561e5514f8cb36afa1c5102b3bab\n      mload(0x40)\n      tag_13\n      swap1\n      tag_14\n      jump\t// in\n    tag_13:\n      mload(0x40)\n      dup1\n      swap2\n      sub\n      swap1\n      log1\n        /* \"21_sendETH.sol\":58:922  contract SendEthereum {... */\n      stop\n        /* \"21_sendETH.sol\":321:556  function withdraw() public {... */\n    tag_3:\n      callvalue\n      dup1\n      iszero\n      tag_15\n      jumpi\n      revert(0x00, 0x00)\n    tag_15:\n      pop\n      tag_16\n      tag_17\n      jump\t// in\n    tag_16:\n      stop\n        /* \"21_sendETH.sol\":86:114  address payable public owner */\n    tag_4:\n      callvalue\n      dup1\n      iszero\n      tag_18\n      jumpi\n      revert(0x00, 0x00)\n    tag_18:\n      pop\n      tag_19\n      tag_20\n      jump\t// in\n    tag_19:\n      mload(0x40)\n      tag_21\n      swap2\n      swap1\n      tag_22\n      jump\t// in\n    tag_21:\n      mload(0x40)\n      dup1\n      swap2\n      sub\n      swap1\n      return\n        /* \"21_sendETH.sol\":562:731  function transfer(address payable _to, uint256 amount) public {... */\n    tag_5:\n      callvalue\n      dup1\n      iszero\n      tag_23\n      jumpi\n      revert(0x00, 0x00)\n    tag_23:\n      pop\n      tag_24\n      0x04\n      dup1\n      calldatasize\n      sub\n      dup2\n      add\n      swap1\n      tag_25\n      swap2\n      swap1\n      tag_26\n      jump\t// in\n    tag_25:\n      tag_27\n      jump\t// in\n    tag_24:\n      stop\n        /* \"21_sendETH.sol\":273:315  function deposit() payable public {... */\n    tag_6:\n      tag_28\n      tag_29\n      jump\t// in\n    tag_28:\n      stop\n        /* \"21_sendETH.sol\":321:556  function withdraw() public {... */\n    tag_17:\n        /* \"21_sendETH.sol\":408:422  uint256 amount */\n      0x00\n        /* \"21_sendETH.sol\":426:447  address(this).balance */\n      selfbalance\n        /* \"21_sendETH.sol\":408:447  uint256 amount =  address(this).balance */\n      swap1\n      pop\n        /* \"21_sendETH.sol\":458:470  bool success */\n      0x00\n        /* \"21_sendETH.sol\":476:481  owner */\n      0x00\n      0x00\n      swap1\n      sload\n      swap1\n      0x0100\n      exp\n      swap1\n      div\n      0xffffffffffffffffffffffffffffffffffffffff\n      and\n        /* \"21_sendETH.sol\":476:486  owner.call */\n      0xffffffffffffffffffffffffffffffffffffffff\n      and\n        /* \"21_sendETH.sol\":493:499  amount */\n      dup3\n        /* \"21_sendETH.sol\":476:504  owner.call{value:amount}(\"\") */\n      mload(0x40)\n      tag_31\n      swap1\n      tag_32\n      jump\t// in\n    tag_31:\n      0x00\n      mload(0x40)\n      dup1\n      dup4\n      sub\n      dup2\n      dup6\n      dup8\n      gas\n      call\n      swap3\n      pop\n      pop\n      pop\n      returndatasize\n      dup1\n      0x00\n      dup2\n      eq\n      tag_35\n      jumpi\n      mload(0x40)\n      swap2\n      pop\n      and(add(returndatasize, 0x3f), not(0x1f))\n      dup3\n      add\n      0x40\n      mstore\n      returndatasize\n      dup3\n      mstore\n      returndatasize\n      0x00\n      0x20\n      dup5\n      add\n      returndatacopy\n      jump(tag_34)\n    tag_35:\n      0x60\n      swap2\n      pop\n    tag_34:\n      pop\n        /* \"21_sendETH.sol\":457:504  (bool success, ) = owner.call{value:amount}(\"\") */\n      pop\n      swap1\n      pop\n        /* \"21_sendETH.sol\":522:529  success */\n      dup1\n        /* \"21_sendETH.sol\":514:549  require(success, \"transfer failed\") */\n      tag_36\n      jumpi\n      mload(0x40)\n      0x08c379a000000000000000000000000000000000000000000000000000000000\n      dup2\n      mstore\n      0x04\n      add\n      tag_37\n      swap1\n      tag_38\n      jump\t// in\n    tag_37:\n      mload(0x40)\n      dup1\n      swap2\n      sub\n      swap1\n      revert\n    tag_36:\n        /* \"21_sendETH.sol\":348:556  {... */\n      pop\n      pop\n        /* \"21_sendETH.sol\":321:556  function withdraw() public {... */\n      jump\t// out\n        /* \"21_sendETH.sol\":86:114  address payable public owner */\n    tag_20:\n      0x00\n      0x00\n      swap1\n      sload\n      swap1\n      0x0100\n      exp\n      swap1\n      div\n      0xffffffffffffffffffffffffffffffffffffffff\n      and\n      dup2\n      jump\t// out\n        /* \"21_sendETH.sol\":562:731  function transfer(address payable _to, uint256 amount) public {... */\n    tag_27:\n        /* \"21_sendETH.sol\":635:647  bool success */\n      0x00\n        /* \"21_sendETH.sol\":653:656  _to */\n      dup3\n        /* \"21_sendETH.sol\":653:661  _to.call */\n      0xffffffffffffffffffffffffffffffffffffffff\n      and\n        /* \"21_sendETH.sol\":668:674  amount */\n      dup3\n        /* \"21_sendETH.sol\":653:679  _to.call{value:amount}(\"\") */\n      mload(0x40)\n      tag_40\n      swap1\n      tag_32\n      jump\t// in\n    tag_40:\n      0x00\n      mload(0x40)\n      dup1\n      dup4\n      sub\n      dup2\n      dup6\n      dup8\n      gas\n      call\n      swap3\n      pop\n      pop\n      pop\n      returndatasize\n      dup1\n      0x00\n      dup2\n      eq\n      tag_43\n      jumpi\n      mload(0x40)\n      swap2\n      pop\n      and(add(returndatasize, 0x3f), not(0x1f))\n      dup3\n      add\n      0x40\n      mstore\n      returndatasize\n      dup3\n      mstore\n      returndatasize\n      0x00\n      0x20\n      dup5\n      add\n      returndatacopy\n      jump(tag_42)\n    tag_43:\n      0x60\n      swap2\n      pop\n    tag_42:\n      pop\n        /* \"21_sendETH.sol\":634:679  (bool success, ) = _to.call{value:amount}(\"\") */\n      pop\n      swap1\n      pop\n        /* \"21_sendETH.sol\":697:704  success */\n      dup1\n        /* \"21_sendETH.sol\":689:724  require(success, \"transfer failed\") */\n      tag_44\n      jumpi\n      mload(0x40)\n      0x08c379a000000000000000000000000000000000000000000000000000000000\n      dup2\n      mstore\n      0x04\n      add\n      tag_45\n      swap1\n      tag_38\n      jump\t// in\n    tag_45:\n      mload(0x40)\n      dup1\n      swap2\n      sub\n      swap1\n      revert\n    tag_44:\n        /* \"21_sendETH.sol\":624:731  {... */\n      pop\n        /* \"21_sendETH.sol\":562:731  function transfer(address payable _to, uint256 amount) public {... */\n      pop\n      pop\n      jump\t// out\n        /* \"21_sendETH.sol\":273:315  function deposit() payable public {... */\n    tag_29:\n      jump\t// out\n        /* \"#utility.yul\":7:176   */\n    tag_47:\n        /* \"#utility.yul\":91:102   */\n      0x00\n        /* \"#utility.yul\":125:131   */\n      dup3\n        /* \"#utility.yul\":120:123   */\n      dup3\n        /* \"#utility.yul\":113:132   */\n      mstore\n        /* \"#utility.yul\":165:169   */\n      0x20\n        /* \"#utility.yul\":160:163   */\n      dup3\n        /* \"#utility.yul\":156:170   */\n      add\n        /* \"#utility.yul\":141:170   */\n      swap1\n      pop\n        /* \"#utility.yul\":7:176   */\n      swap3\n      swap2\n      pop\n      pop\n      jump\t// out\n        /* \"#utility.yul\":182:402   */\n    tag_48:\n        /* \"#utility.yul\":322:356   */\n      0x726563656976652063616c6c65642b2b2b2b2b2b2b2b2b2b2b2b2b2b2b2b2b2b\n        /* \"#utility.yul\":318:319   */\n      0x00\n        /* \"#utility.yul\":310:316   */\n      dup3\n        /* \"#utility.yul\":306:320   */\n      add\n        /* \"#utility.yul\":299:357   */\n      mstore\n        /* \"#utility.yul\":391:394   */\n      0x2b00000000000000000000000000000000000000000000000000000000000000\n        /* \"#utility.yul\":386:388   */\n      0x20\n        /* \"#utility.yul\":378:384   */\n      dup3\n        /* \"#utility.yul\":374:389   */\n      add\n        /* \"#utility.yul\":367:395   */\n      mstore\n        /* \"#utility.yul\":182:402   */\n      pop\n      jump\t// out\n        /* \"#utility.yul\":408:774   */\n    tag_49:\n        /* \"#utility.yul\":550:553   */\n      0x00\n        /* \"#utility.yul\":571:638   */\n      tag_72\n        /* \"#utility.yul\":635:637   */\n      0x21\n        /* \"#utility.yul\":630:633   */\n      dup4\n        /* \"#utility.yul\":571:638   */\n      tag_47\n      jump\t// in\n    tag_72:\n        /* \"#utility.yul\":564:638   */\n      swap2\n      pop\n        /* \"#utility.yul\":647:740   */\n      tag_73\n        /* \"#utility.yul\":736:739   */\n      dup3\n        /* \"#utility.yul\":647:740   */\n      tag_48\n      jump\t// in\n    tag_73:\n        /* \"#utility.yul\":765:767   */\n      0x40\n        /* \"#utility.yul\":760:763   */\n      dup3\n        /* \"#utility.yul\":756:768   */\n      add\n        /* \"#utility.yul\":749:768   */\n      swap1\n      pop\n        /* \"#utility.yul\":408:774   */\n      swap2\n      swap1\n      pop\n      jump\t// out\n        /* \"#utility.yul\":780:1199   */\n    tag_10:\n        /* \"#utility.yul\":946:950   */\n      0x00\n        /* \"#utility.yul\":984:986   */\n      0x20\n        /* \"#utility.yul\":973:982   */\n      dup3\n        /* \"#utility.yul\":969:987   */\n      add\n        /* \"#utility.yul\":961:987   */\n      swap1\n      pop\n        /* \"#utility.yul\":1033:1042   */\n      dup2\n        /* \"#utility.yul\":1027:1031   */\n      dup2\n        /* \"#utility.yul\":1023:1043   */\n      sub\n        /* \"#utility.yul\":1019:1020   */\n      0x00\n        /* \"#utility.yul\":1008:1017   */\n      dup4\n        /* \"#utility.yul\":1004:1021   */\n      add\n        /* \"#utility.yul\":997:1044   */\n      mstore\n        /* \"#utility.yul\":1061:1192   */\n      tag_75\n        /* \"#utility.yul\":1187:1191   */\n      dup2\n        /* \"#utility.yul\":1061:1192   */\n      tag_49\n      jump\t// in\n    tag_75:\n        /* \"#utility.yul\":1053:1192   */\n      swap1\n      pop\n        /* \"#utility.yul\":780:1199   */\n      swap2\n      swap1\n      pop\n      jump\t// out\n        /* \"#utility.yul\":1205:1387   */\n    tag_50:\n        /* \"#utility.yul\":1345:1379   */\n      0x66616c6c6261636b2063616c6c65647e7e7e7e7e7e7e7e7e7e7e7e7e7e7e7e7e\n        /* \"#utility.yul\":1341:1342   */\n      0x00\n        /* \"#utility.yul\":1333:1339   */\n      dup3\n        /* \"#utility.yul\":1329:1343   */\n      add\n        /* \"#utility.yul\":1322:1380   */\n      mstore\n        /* \"#utility.yul\":1205:1387   */\n      pop\n      jump\t// out\n        /* \"#utility.yul\":1393:1759   */\n    tag_51:\n        /* \"#utility.yul\":1535:1538   */\n      0x00\n        /* \"#utility.yul\":1556:1623   */\n      tag_78\n        /* \"#utility.yul\":1620:1622   */\n      0x20\n        /* \"#utility.yul\":1615:1618   */\n      dup4\n        /* \"#utility.yul\":1556:1623   */\n      tag_47\n      jump\t// in\n    tag_78:\n        /* \"#utility.yul\":1549:1623   */\n      swap2\n      pop\n        /* \"#utility.yul\":1632:1725   */\n      tag_79\n        /* \"#utility.yul\":1721:1724   */\n      dup3\n        /* \"#utility.yul\":1632:1725   */\n      tag_50\n      jump\t// in\n    tag_79:\n        /* \"#utility.yul\":1750:1752   */\n      0x20\n        /* \"#utility.yul\":1745:1748   */\n      dup3\n        /* \"#utility.yul\":1741:1753   */\n      add\n        /* \"#utility.yul\":1734:1753   */\n      swap1\n      pop\n        /* \"#utility.yul\":1393:1759   */\n      swap2\n      swap1\n      pop\n      jump\t// out\n        /* \"#utility.yul\":1765:2184   */\n    tag_14:\n        /* \"#utility.yul\":1931:1935   */\n      0x00\n        /* \"#utility.yul\":1969:1971   */\n      0x20\n        /* \"#utility.yul\":1958:1967   */\n      dup3\n        /* \"#utility.yul\":1954:1972   */\n      add\n        /* \"#utility.yul\":1946:1972   */\n      swap1\n      pop\n        /* \"#utility.yul\":2018:2027   */\n      dup2\n        /* \"#utility.yul\":2012:2016   */\n      dup2\n        /* \"#utility.yul\":2008:2028   */\n      sub\n        /* \"#utility.yul\":2004:2005   */\n      0x00\n        /* \"#utility.yul\":1993:2002   */\n      dup4\n        /* \"#utility.yul\":1989:2006   */\n      add\n        /* \"#utility.yul\":1982:2029   */\n      mstore\n        /* \"#utility.yul\":2046:2177   */\n      tag_81\n        /* \"#utility.yul\":2172:2176   */\n      dup2\n        /* \"#utility.yul\":2046:2177   */\n      tag_51\n      jump\t// in\n    tag_81:\n        /* \"#utility.yul\":2038:2177   */\n      swap1\n      pop\n        /* \"#utility.yul\":1765:2184   */\n      swap2\n      swap1\n      pop\n      jump\t// out\n        /* \"#utility.yul\":2190:2316   */\n    tag_52:\n        /* \"#utility.yul\":2227:2234   */\n      0x00\n        /* \"#utility.yul\":2267:2309   */\n      0xffffffffffffffffffffffffffffffffffffffff\n        /* \"#utility.yul\":2260:2265   */\n      dup3\n        /* \"#utility.yul\":2256:2310   */\n      and\n        /* \"#utility.yul\":2245:2310   */\n      swap1\n      pop\n        /* \"#utility.yul\":2190:2316   */\n      swap2\n      swap1\n      pop\n      jump\t// out\n        /* \"#utility.yul\":2322:2426   */\n    tag_53:\n        /* \"#utility.yul\":2367:2374   */\n      0x00\n        /* \"#utility.yul\":2396:2420   */\n      tag_84\n        /* \"#utility.yul\":2414:2419   */\n      dup3\n        /* \"#utility.yul\":2396:2420   */\n      tag_52\n      jump\t// in\n    tag_84:\n        /* \"#utility.yul\":2385:2420   */\n      swap1\n      pop\n        /* \"#utility.yul\":2322:2426   */\n      swap2\n      swap1\n      pop\n      jump\t// out\n        /* \"#utility.yul\":2432:2574   */\n    tag_54:\n        /* \"#utility.yul\":2535:2567   */\n      tag_86\n        /* \"#utility.yul\":2561:2566   */\n      dup2\n        /* \"#utility.yul\":2535:2567   */\n      tag_53\n      jump\t// in\n    tag_86:\n        /* \"#utility.yul\":2530:2533   */\n      dup3\n        /* \"#utility.yul\":2523:2568   */\n      mstore\n        /* \"#utility.yul\":2432:2574   */\n      pop\n      pop\n      jump\t// out\n        /* \"#utility.yul\":2580:2834   */\n    tag_22:\n        /* \"#utility.yul\":2689:2693   */\n      0x00\n        /* \"#utility.yul\":2727:2729   */\n      0x20\n        /* \"#utility.yul\":2716:2725   */\n      dup3\n        /* \"#utility.yul\":2712:2730   */\n      add\n        /* \"#utility.yul\":2704:2730   */\n      swap1\n      pop\n        /* \"#utility.yul\":2740:2827   */\n      tag_88\n        /* \"#utility.yul\":2824:2825   */\n      0x00\n        /* \"#utility.yul\":2813:2822   */\n      dup4\n        /* \"#utility.yul\":2809:2826   */\n      add\n        /* \"#utility.yul\":2800:2806   */\n      dup5\n        /* \"#utility.yul\":2740:2827   */\n      tag_54\n      jump\t// in\n    tag_88:\n        /* \"#utility.yul\":2580:2834   */\n      swap3\n      swap2\n      pop\n      pop\n      jump\t// out\n        /* \"#utility.yul\":2921:3038   */\n    tag_56:\n        /* \"#utility.yul\":3030:3031   */\n      0x00\n        /* \"#utility.yul\":3027:3028   */\n      0x00\n        /* \"#utility.yul\":3020:3032   */\n      revert\n        /* \"#utility.yul\":3167:3305   */\n    tag_58:\n        /* \"#utility.yul\":3248:3280   */\n      tag_93\n        /* \"#utility.yul\":3274:3279   */\n      dup2\n        /* \"#utility.yul\":3248:3280   */\n      tag_53\n      jump\t// in\n    tag_93:\n        /* \"#utility.yul\":3241:3246   */\n      dup2\n        /* \"#utility.yul\":3238:3281   */\n      eq\n        /* \"#utility.yul\":3228:3299   */\n      tag_94\n      jumpi\n        /* \"#utility.yul\":3295:3296   */\n      0x00\n        /* \"#utility.yul\":3292:3293   */\n      0x00\n        /* \"#utility.yul\":3285:3297   */\n      revert\n        /* \"#utility.yul\":3228:3299   */\n    tag_94:\n        /* \"#utility.yul\":3167:3305   */\n      pop\n      jump\t// out\n        /* \"#utility.yul\":3311:3466   */\n    tag_59:\n        /* \"#utility.yul\":3365:3370   */\n      0x00\n        /* \"#utility.yul\":3403:3409   */\n      dup2\n        /* \"#utility.yul\":3390:3410   */\n      calldataload\n        /* \"#utility.yul\":3381:3410   */\n      swap1\n      pop\n        /* \"#utility.yul\":3419:3460   */\n      tag_96\n        /* \"#utility.yul\":3454:3459   */\n      dup2\n        /* \"#utility.yul\":3419:3460   */\n      tag_58\n      jump\t// in\n    tag_96:\n        /* \"#utility.yul\":3311:3466   */\n      swap3\n      swap2\n      pop\n      pop\n      jump\t// out\n        /* \"#utility.yul\":3472:3549   */\n    tag_60:\n        /* \"#utility.yul\":3509:3516   */\n      0x00\n        /* \"#utility.yul\":3538:3543   */\n      dup2\n        /* \"#utility.yul\":3527:3543   */\n      swap1\n      pop\n        /* \"#utility.yul\":3472:3549   */\n      swap2\n      swap1\n      pop\n      jump\t// out\n        /* \"#utility.yul\":3555:3677   */\n    tag_61:\n        /* \"#utility.yul\":3628:3652   */\n      tag_99\n        /* \"#utility.yul\":3646:3651   */\n      dup2\n        /* \"#utility.yul\":3628:3652   */\n      tag_60\n      jump\t// in\n    tag_99:\n        /* \"#utility.yul\":3621:3626   */\n      dup2\n        /* \"#utility.yul\":3618:3653   */\n      eq\n        /* \"#utility.yul\":3608:3671   */\n      tag_100\n      jumpi\n        /* \"#utility.yul\":3667:3668   */\n      0x00\n        /* \"#utility.yul\":3664:3665   */\n      0x00\n        /* \"#utility.yul\":3657:3669   */\n      revert\n        /* \"#utility.yul\":3608:3671   */\n    tag_100:\n        /* \"#utility.yul\":3555:3677   */\n      pop\n      jump\t// out\n        /* \"#utility.yul\":3683:3822   */\n    tag_62:\n        /* \"#utility.yul\":3729:3734   */\n      0x00\n        /* \"#utility.yul\":3767:3773   */\n      dup2\n        /* \"#utility.yul\":3754:3774   */\n      calldataload\n        /* \"#utility.yul\":3745:3774   */\n      swap1\n      pop\n        /* \"#utility.yul\":3783:3816   */\n      tag_102\n        /* \"#utility.yul\":3810:3815   */\n      dup2\n        /* \"#utility.yul\":3783:3816   */\n      tag_61\n      jump\t// in\n    tag_102:\n        /* \"#utility.yul\":3683:3822   */\n      swap3\n      swap2\n      pop\n      pop\n      jump\t// out\n        /* \"#utility.yul\":3828:4318   */\n    tag_26:\n        /* \"#utility.yul\":3904:3910   */\n      0x00\n        /* \"#utility.yul\":3912:3918   */\n      0x00\n        /* \"#utility.yul\":3961:3963   */\n      0x40\n        /* \"#utility.yul\":3949:3958   */\n      dup4\n        /* \"#utility.yul\":3940:3947   */\n      dup6\n        /* \"#utility.yul\":3936:3959   */\n      sub\n        /* \"#utility.yul\":3932:3964   */\n      slt\n        /* \"#utility.yul\":3929:4048   */\n      iszero\n      tag_104\n      jumpi\n        /* \"#utility.yul\":3967:4046   */\n      tag_105\n      tag_56\n      jump\t// in\n    tag_105:\n        /* \"#utility.yul\":3929:4048   */\n    tag_104:\n        /* \"#utility.yul\":4087:4088   */\n      0x00\n        /* \"#utility.yul\":4112:4173   */\n      tag_106\n        /* \"#utility.yul\":4165:4172   */\n      dup6\n        /* \"#utility.yul\":4156:4162   */\n      dup3\n        /* \"#utility.yul\":4145:4154   */\n      dup7\n        /* \"#utility.yul\":4141:4163   */\n      add\n        /* \"#utility.yul\":4112:4173   */\n      tag_59\n      jump\t// in\n    tag_106:\n        /* \"#utility.yul\":4102:4173   */\n      swap3\n      pop\n        /* \"#utility.yul\":4058:4183   */\n      pop\n        /* \"#utility.yul\":4222:4224   */\n      0x20\n        /* \"#utility.yul\":4248:4301   */\n      tag_107\n        /* \"#utility.yul\":4293:4300   */\n      dup6\n        /* \"#utility.yul\":4284:4290   */\n      dup3\n        /* \"#utility.yul\":4273:4282   */\n      dup7\n        /* \"#utility.yul\":4269:4291   */\n      add\n        /* \"#utility.yul\":4248:4301   */\n      tag_62\n      jump\t// in\n    tag_107:\n        /* \"#utility.yul\":4238:4301   */\n      swap2\n      pop\n        /* \"#utility.yul\":4193:4311   */\n      pop\n        /* \"#utility.yul\":3828:4318   */\n      swap3\n      pop\n      swap3\n      swap1\n      pop\n      jump\t// out\n        /* \"#utility.yul\":4324:4471   */\n    tag_63:\n        /* \"#utility.yul\":4425:4436   */\n      0x00\n        /* \"#utility.yul\":4462:4465   */\n      dup2\n        /* \"#utility.yul\":4447:4465   */\n      swap1\n      pop\n        /* \"#utility.yul\":4324:4471   */\n      swap3\n      swap2\n      pop\n      pop\n      jump\t// out\n        /* \"#utility.yul\":4477:4591   */\n    tag_64:\n      pop\n      jump\t// out\n        /* \"#utility.yul\":4597:4995   */\n    tag_65:\n        /* \"#utility.yul\":4756:4759   */\n      0x00\n        /* \"#utility.yul\":4777:4860   */\n      tag_111\n        /* \"#utility.yul\":4858:4859   */\n      0x00\n        /* \"#utility.yul\":4853:4856   */\n      dup4\n        /* \"#utility.yul\":4777:4860   */\n      tag_63\n      jump\t// in\n    tag_111:\n        /* \"#utility.yul\":4770:4860   */\n      swap2\n      pop\n        /* \"#utility.yul\":4869:4962   */\n      tag_112\n        /* \"#utility.yul\":4958:4961   */\n      dup3\n        /* \"#utility.yul\":4869:4962   */\n      tag_64\n      jump\t// in\n    tag_112:\n        /* \"#utility.yul\":4987:4988   */\n      0x00\n        /* \"#utility.yul\":4982:4985   */\n      dup3\n        /* \"#utility.yul\":4978:4989   */\n      add\n        /* \"#utility.yul\":4971:4989   */\n      swap1\n      pop\n        /* \"#utility.yul\":4597:4995   */\n      swap2\n      swap1\n      pop\n      jump\t// out\n        /* \"#utility.yul\":5001:5380   */\n    tag_32:\n        /* \"#utility.yul\":5185:5188   */\n      0x00\n        /* \"#utility.yul\":5207:5354   */\n      tag_114\n        /* \"#utility.yul\":5350:5353   */\n      dup3\n        /* \"#utility.yul\":5207:5354   */\n      tag_65\n      jump\t// in\n    tag_114:\n        /* \"#utility.yul\":5200:5354   */\n      swap2\n      pop\n        /* \"#utility.yul\":5371:5374   */\n      dup2\n        /* \"#utility.yul\":5364:5374   */\n      swap1\n      pop\n        /* \"#utility.yul\":5001:5380   */\n      swap2\n      swap1\n      pop\n      jump\t// out\n        /* \"#utility.yul\":5386:5551   */\n    tag_66:\n        /* \"#utility.yul\":5526:5543   */\n      0x7472616e73666572206661696c65640000000000000000000000000000000000\n        /* \"#utility.yul\":5522:5523   */\n      0x00\n        /* \"#utility.yul\":5514:5520   */\n      dup3\n        /* \"#utility.yul\":5510:5524   */\n      add\n        /* \"#utility.yul\":5503:5544   */\n      mstore\n        /* \"#utility.yul\":5386:5551   */\n      pop\n      jump\t// out\n        /* \"#utility.yul\":5557:5923   */\n    tag_67:\n        /* \"#utility.yul\":5699:5702   */\n      0x00\n        /* \"#utility.yul\":5720:5787   */\n      tag_117\n        /* \"#utility.yul\":5784:5786   */\n      0x0f\n        /* \"#utility.yul\":5779:5782   */\n      dup4\n        /* \"#utility.yul\":5720:5787   */\n      tag_47\n      jump\t// in\n    tag_117:\n        /* \"#utility.yul\":5713:5787   */\n      swap2\n      pop\n        /* \"#utility.yul\":5796:5889   */\n      tag_118\n        /* \"#utility.yul\":5885:5888   */\n      dup3\n        /* \"#utility.yul\":5796:5889   */\n      tag_66\n      jump\t// in\n    tag_118:\n        /* \"#utility.yul\":5914:5916   */\n      0x20\n        /* \"#utility.yul\":5909:5912   */\n      dup3\n        /* \"#utility.yul\":5905:5917   */\n      add\n        /* \"#utility.yul\":5898:5917   */\n      swap1\n      pop\n        /* \"#utility.yul\":5557:5923   */\n      swap2\n      swap1\n      pop\n      jump\t// out\n        /* \"#utility.yul\":5929:6348   */\n    tag_38:\n        /* \"#utility.yul\":6095:6099   */\n      0x00\n        /* \"#utility.yul\":6133:6135   */\n      0x20\n        /* \"#utility.yul\":6122:6131   */\n      dup3\n        /* \"#utility.yul\":6118:6136   */\n      add\n        /* \"#utility.yul\":6110:6136   */\n      swap1\n      pop\n        /* \"#utility.yul\":6182:6191   */\n      dup2\n        /* \"#utility.yul\":6176:6180   */\n      dup2\n        /* \"#utility.yul\":6172:6192   */\n      sub\n        /* \"#utility.yul\":6168:6169   */\n      0x00\n        /* \"#utility.yul\":6157:6166   */\n      dup4\n        /* \"#utility.yul\":6153:6170   */\n      add\n        /* \"#utility.yul\":6146:6193   */\n      mstore\n        /* \"#utility.yul\":6210:6341   */\n      tag_120\n        /* \"#utility.yul\":6336:6340   */\n      dup2\n        /* \"#utility.yul\":6210:6341   */\n      tag_67\n      jump\t// in\n    tag_120:\n        /* \"#utility.yul\":6202:6341   */\n      swap1\n      pop\n        /* \"#utility.yul\":5929:6348   */\n      swap2\n      swap1\n      pop\n      jump\t// out\n\n    auxdata: 0xa264697066735822122030144532ad469a9d0685d44a3dd7cbaebd921dfec001c0e21e7cd654a984f28f64736f6c634300081e0033\n}\n",
				"bytecode": {
					"linkReferences": {},
					"object": "6080604052335f5f6101000a81548173ffffffffffffffffffffffffffffffffffffffff021916908373ffffffffffffffffffffffffffffffffffffffff1602179055505f5f9054906101000a900473ffffffffffffffffffffffffffffffffffffffff1673ffffffffffffffffffffffffffffffffffffffff166108fc4790811502906040515f60405180830381858888f1935050505015801560a5573d5f5f3e3d5ffd5b506105a6806100b35f395ff3fe608060405260043610610042575f3560e01c80633ccfd60b146100b55780638da5cb5b146100cb578063a9059cbb146100f5578063d0e30db01461011d5761007e565b3661007e577fcf34ef537ac33ee1ac626ca1587a0a7e8e51561e5514f8cb36afa1c5102b3bab6040516100749061034a565b60405180910390a1005b7fcf34ef537ac33ee1ac626ca1587a0a7e8e51561e5514f8cb36afa1c5102b3bab6040516100ab906103b2565b60405180910390a1005b3480156100c0575f5ffd5b506100c9610127565b005b3480156100d6575f5ffd5b506100df6101f7565b6040516100ec919061040f565b60405180910390f35b348015610100575f5ffd5b5061011b60048036038101906101169190610489565b61021b565b005b6101256102c8565b005b5f4790505f5f5f9054906101000a900473ffffffffffffffffffffffffffffffffffffffff1673ffffffffffffffffffffffffffffffffffffffff1682604051610170906104f4565b5f6040518083038185875af1925050503d805f81146101aa576040519150601f19603f3d011682016040523d82523d5f602084013e6101af565b606091505b50509050806101f3576040517f08c379a00000000000000000000000000000000000000000000000000000000081526004016101ea90610552565b60405180910390fd5b5050565b5f5f9054906101000a900473ffffffffffffffffffffffffffffffffffffffff1681565b5f8273ffffffffffffffffffffffffffffffffffffffff1682604051610240906104f4565b5f6040518083038185875af1925050503d805f811461027a576040519150601f19603f3d011682016040523d82523d5f602084013e61027f565b606091505b50509050806102c3576040517f08c379a00000000000000000000000000000000000000000000000000000000081526004016102ba90610552565b60405180910390fd5b505050565b565b5f82825260208201905092915050565b7f726563656976652063616c6c65642b2b2b2b2b2b2b2b2b2b2b2b2b2b2b2b2b2b5f8201527f2b00000000000000000000000000000000000000000000000000000000000000602082015250565b5f6103346021836102ca565b915061033f826102da565b604082019050919050565b5f6020820190508181035f83015261036181610328565b9050919050565b7f66616c6c6261636b2063616c6c65647e7e7e7e7e7e7e7e7e7e7e7e7e7e7e7e7e5f82015250565b5f61039c6020836102ca565b91506103a782610368565b602082019050919050565b5f6020820190508181035f8301526103c981610390565b9050919050565b5f73ffffffffffffffffffffffffffffffffffffffff82169050919050565b5f6103f9826103d0565b9050919050565b610409816103ef565b82525050565b5f6020820190506104225f830184610400565b92915050565b5f5ffd5b610435816103ef565b811461043f575f5ffd5b50565b5f813590506104508161042c565b92915050565b5f819050919050565b61046881610456565b8114610472575f5ffd5b50565b5f813590506104838161045f565b92915050565b5f5f6040838503121561049f5761049e610428565b5b5f6104ac85828601610442565b92505060206104bd85828601610475565b9150509250929050565b5f81905092915050565b50565b5f6104df5f836104c7565b91506104ea826104d1565b5f82019050919050565b5f6104fe826104d4565b9150819050919050565b7f7472616e73666572206661696c656400000000000000000000000000000000005f82015250565b5f61053c600f836102ca565b915061054782610508565b602082019050919050565b5f6020820190508181035f83015261056981610530565b905091905056fea264697066735822122030144532ad469a9d0685d44a3dd7cbaebd921dfec001c0e21e7cd654a984f28f64736f6c634300081e0033",
					"opcodes": "PUSH1 0x80 PUSH1 0x40 MSTORE CALLER PUSH0 PUSH0 PUSH2 0x100 EXP DUP2 SLOAD DUP2 PUSH20 0xFFFFFFFFFFFFFFFFFFFFFFFFFFFFFFFFFFFFFFFF MUL NOT AND SWAP1 DUP4 PUSH20 0xFFFFFFFFFFFFFFFFFFFFFFFFFFFFFFFFFFFFFFFF AND MUL OR SWAP1 SSTORE POP PUSH0 PUSH0 SWAP1 SLOAD SWAP1 PUSH2 0x100 EXP SWAP1 DIV PUSH20 0xFFFFFFFFFFFFFFFFFFFFFFFFFFFFFFFFFFFFFFFF AND PUSH20 0xFFFFFFFFFFFFFFFFFFFFFFFFFFFFFFFFFFFFFFFF AND PUSH2 0x8FC SELFBALANCE SWAP1 DUP2 ISZERO MUL SWAP1 PUSH1 0x40 MLOAD PUSH0 PUSH1 0x40 MLOAD DUP1 DUP4 SUB DUP2 DUP6 DUP9 DUP9 CALL SWAP4 POP POP POP POP ISZERO DUP1 ISZERO PUSH1 0xA5 JUMPI RETURNDATASIZE PUSH0 PUSH0 RETURNDATACOPY RETURNDATASIZE PUSH0 REVERT JUMPDEST POP PUSH2 0x5A6 DUP1 PUSH2 0xB3 PUSH0 CODECOPY PUSH0 RETURN INVALID PUSH1 0x80 PUSH1 0x40 MSTORE PUSH1 0x4 CALLDATASIZE LT PUSH2 0x42 JUMPI PUSH0 CALLDATALOAD PUSH1 0xE0 SHR DUP1 PUSH4 0x3CCFD60B EQ PUSH2 0xB5 JUMPI DUP1 PUSH4 0x8DA5CB5B EQ PUSH2 0xCB JUMPI DUP1 PUSH4 0xA9059CBB EQ PUSH2 0xF5 JUMPI DUP1 PUSH4 0xD0E30DB0 EQ PUSH2 0x11D JUMPI PUSH2 0x7E JUMP JUMPDEST CALLDATASIZE PUSH2 0x7E JUMPI PUSH32 0xCF34EF537AC33EE1AC626CA1587A0A7E8E51561E5514F8CB36AFA1C5102B3BAB PUSH1 0x40 MLOAD PUSH2 0x74 SWAP1 PUSH2 0x34A JUMP JUMPDEST PUSH1 0x40 MLOAD DUP1 SWAP2 SUB SWAP1 LOG1 STOP JUMPDEST PUSH32 0xCF34EF537AC33EE1AC626CA1587A0A7E8E51561E5514F8CB36AFA1C5102B3BAB PUSH1 0x40 MLOAD PUSH2 0xAB SWAP1 PUSH2 0x3B2 JUMP JUMPDEST PUSH1 0x40 MLOAD DUP1 SWAP2 SUB SWAP1 LOG1 STOP JUMPDEST CALLVALUE DUP1 ISZERO PUSH2 0xC0 JUMPI PUSH0 PUSH0 REVERT JUMPDEST POP PUSH2 0xC9 PUSH2 0x127 JUMP JUMPDEST STOP JUMPDEST CALLVALUE DUP1 ISZERO PUSH2 0xD6 JUMPI PUSH0 PUSH0 REVERT JUMPDEST POP PUSH2 0xDF PUSH2 0x1F7 JUMP JUMPDEST PUSH1 0x40 MLOAD PUSH2 0xEC SWAP2 SWAP1 PUSH2 0x40F JUMP JUMPDEST PUSH1 0x40 MLOAD DUP1 SWAP2 SUB SWAP1 RETURN JUMPDEST CALLVALUE DUP1 ISZERO PUSH2 0x100 JUMPI PUSH0 PUSH0 REVERT JUMPDEST POP PUSH2 0x11B PUSH1 0x4 DUP1 CALLDATASIZE SUB DUP2 ADD SWAP1 PUSH2 0x116 SWAP2 SWAP1 PUSH2 0x489 JUMP JUMPDEST PUSH2 0x21B JUMP JUMPDEST STOP JUMPDEST PUSH2 0x125 PUSH2 0x2C8 JUMP JUMPDEST STOP JUMPDEST PUSH0 SELFBALANCE SWAP1 POP PUSH0 PUSH0 PUSH0 SWAP1 SLOAD SWAP1 PUSH2 0x100 EXP SWAP1 DIV PUSH20 0xFFFFFFFFFFFFFFFFFFFFFFFFFFFFFFFFFFFFFFFF AND PUSH20 0xFFFFFFFFFFFFFFFFFFFFFFFFFFFFFFFFFFFFFFFF AND DUP3 PUSH1 0x40 MLOAD PUSH2 0x170 SWAP1 PUSH2 0x4F4 JUMP JUMPDEST PUSH0 PUSH1 0x40 MLOAD DUP1 DUP4 SUB DUP2 DUP6 DUP8 GAS CALL SWAP3 POP POP POP RETURNDATASIZE DUP1 PUSH0 DUP2 EQ PUSH2 0x1AA JUMPI PUSH1 0x40 MLOAD SWAP2 POP PUSH1 0x1F NOT PUSH1 0x3F RETURNDATASIZE ADD AND DUP3 ADD PUSH1 0x40 MSTORE RETURNDATASIZE DUP3 MSTORE RETURNDATASIZE PUSH0 PUSH1 0x20 DUP5 ADD RETURNDATACOPY PUSH2 0x1AF JUMP JUMPDEST PUSH1 0x60 SWAP2 POP JUMPDEST POP POP SWAP1 POP DUP1 PUSH2 0x1F3 JUMPI PUSH1 0x40 MLOAD PUSH32 0x8C379A000000000000000000000000000000000000000000000000000000000 DUP2 MSTORE PUSH1 0x4 ADD PUSH2 0x1EA SWAP1 PUSH2 0x552 JUMP JUMPDEST PUSH1 0x40 MLOAD DUP1 SWAP2 SUB SWAP1 REVERT JUMPDEST POP POP JUMP JUMPDEST PUSH0 PUSH0 SWAP1 SLOAD SWAP1 PUSH2 0x100 EXP SWAP1 DIV PUSH20 0xFFFFFFFFFFFFFFFFFFFFFFFFFFFFFFFFFFFFFFFF AND DUP2 JUMP JUMPDEST PUSH0 DUP3 PUSH20 0xFFFFFFFFFFFFFFFFFFFFFFFFFFFFFFFFFFFFFFFF AND DUP3 PUSH1 0x40 MLOAD PUSH2 0x240 SWAP1 PUSH2 0x4F4 JUMP JUMPDEST PUSH0 PUSH1 0x40 MLOAD DUP1 DUP4 SUB DUP2 DUP6 DUP8 GAS CALL SWAP3 POP POP POP RETURNDATASIZE DUP1 PUSH0 DUP2 EQ PUSH2 0x27A JUMPI PUSH1 0x40 MLOAD SWAP2 POP PUSH1 0x1F NOT PUSH1 0x3F RETURNDATASIZE ADD AND DUP3 ADD PUSH1 0x40 MSTORE RETURNDATASIZE DUP3 MSTORE RETURNDATASIZE PUSH0 PUSH1 0x20 DUP5 ADD RETURNDATACOPY PUSH2 0x27F JUMP JUMPDEST PUSH1 0x60 SWAP2 POP JUMPDEST POP POP SWAP1 POP DUP1 PUSH2 0x2C3 JUMPI PUSH1 0x40 MLOAD PUSH32 0x8C379A000000000000000000000000000000000000000000000000000000000 DUP2 MSTORE PUSH1 0x4 ADD PUSH2 0x2BA SWAP1 PUSH2 0x552 JUMP JUMPDEST PUSH1 0x40 MLOAD DUP1 SWAP2 SUB SWAP1 REVERT JUMPDEST POP POP POP JUMP JUMPDEST JUMP JUMPDEST PUSH0 DUP3 DUP3 MSTORE PUSH1 0x20 DUP3 ADD SWAP1 POP SWAP3 SWAP2 POP POP JUMP JUMPDEST PUSH32 0x726563656976652063616C6C65642B2B2B2B2B2B2B2B2B2B2B2B2B2B2B2B2B2B PUSH0 DUP3 ADD MSTORE PUSH32 0x2B00000000000000000000000000000000000000000000000000000000000000 PUSH1 0x20 DUP3 ADD MSTORE POP JUMP JUMPDEST PUSH0 PUSH2 0x334 PUSH1 0x21 DUP4 PUSH2 0x2CA JUMP JUMPDEST SWAP2 POP PUSH2 0x33F DUP3 PUSH2 0x2DA JUMP JUMPDEST PUSH1 0x40 DUP3 ADD SWAP1 POP SWAP2 SWAP1 POP JUMP JUMPDEST PUSH0 PUSH1 0x20 DUP3 ADD SWAP1 POP DUP2 DUP2 SUB PUSH0 DUP4 ADD MSTORE PUSH2 0x361 DUP2 PUSH2 0x328 JUMP JUMPDEST SWAP1 POP SWAP2 SWAP1 POP JUMP JUMPDEST PUSH32 0x66616C6C6261636B2063616C6C65647E7E7E7E7E7E7E7E7E7E7E7E7E7E7E7E7E PUSH0 DUP3 ADD MSTORE POP JUMP JUMPDEST PUSH0 PUSH2 0x39C PUSH1 0x20 DUP4 PUSH2 0x2CA JUMP JUMPDEST SWAP2 POP PUSH2 0x3A7 DUP3 PUSH2 0x368 JUMP JUMPDEST PUSH1 0x20 DUP3 ADD SWAP1 POP SWAP2 SWAP1 POP JUMP JUMPDEST PUSH0 PUSH1 0x20 DUP3 ADD SWAP1 POP DUP2 DUP2 SUB PUSH0 DUP4 ADD MSTORE PUSH2 0x3C9 DUP2 PUSH2 0x390 JUMP JUMPDEST SWAP1 POP SWAP2 SWAP1 POP JUMP JUMPDEST PUSH0 PUSH20 0xFFFFFFFFFFFFFFFFFFFFFFFFFFFFFFFFFFFFFFFF DUP3 AND SWAP1 POP SWAP2 SWAP1 POP JUMP JUMPDEST PUSH0 PUSH2 0x3F9 DUP3 PUSH2 0x3D0 JUMP JUMPDEST SWAP1 POP SWAP2 SWAP1 POP JUMP JUMPDEST PUSH2 0x409 DUP2 PUSH2 0x3EF JUMP JUMPDEST DUP3 MSTORE POP POP JUMP JUMPDEST PUSH0 PUSH1 0x20 DUP3 ADD SWAP1 POP PUSH2 0x422 PUSH0 DUP4 ADD DUP5 PUSH2 0x400 JUMP JUMPDEST SWAP3 SWAP2 POP POP JUMP JUMPDEST PUSH0 PUSH0 REVERT JUMPDEST PUSH2 0x435 DUP2 PUSH2 0x3EF JUMP JUMPDEST DUP2 EQ PUSH2 0x43F JUMPI PUSH0 PUSH0 REVERT JUMPDEST POP JUMP JUMPDEST PUSH0 DUP2 CALLDATALOAD SWAP1 POP PUSH2 0x450 DUP2 PUSH2 0x42C JUMP JUMPDEST SWAP3 SWAP2 POP POP JUMP JUMPDEST PUSH0 DUP2 SWAP1 POP SWAP2 SWAP1 POP JUMP JUMPDEST PUSH2 0x468 DUP2 PUSH2 0x456 JUMP JUMPDEST DUP2 EQ PUSH2 0x472 JUMPI PUSH0 PUSH0 REVERT JUMPDEST POP JUMP JUMPDEST PUSH0 DUP2 CALLDATALOAD SWAP1 POP PUSH2 0x483 DUP2 PUSH2 0x45F JUMP JUMPDEST SWAP3 SWAP2 POP POP JUMP JUMPDEST PUSH0 PUSH0 PUSH1 0x40 DUP4 DUP6 SUB SLT ISZERO PUSH2 0x49F JUMPI PUSH2 0x49E PUSH2 0x428 JUMP JUMPDEST JUMPDEST PUSH0 PUSH2 0x4AC DUP6 DUP3 DUP7 ADD PUSH2 0x442 JUMP JUMPDEST SWAP3 POP POP PUSH1 0x20 PUSH2 0x4BD DUP6 DUP3 DUP7 ADD PUSH2 0x475 JUMP JUMPDEST SWAP2 POP POP SWAP3 POP SWAP3 SWAP1 POP JUMP JUMPDEST PUSH0 DUP2 SWAP1 POP SWAP3 SWAP2 POP POP JUMP JUMPDEST POP JUMP JUMPDEST PUSH0 PUSH2 0x4DF PUSH0 DUP4 PUSH2 0x4C7 JUMP JUMPDEST SWAP2 POP PUSH2 0x4EA DUP3 PUSH2 0x4D1 JUMP JUMPDEST PUSH0 DUP3 ADD SWAP1 POP SWAP2 SWAP1 POP JUMP JUMPDEST PUSH0 PUSH2 0x4FE DUP3 PUSH2 0x4D4 JUMP JUMPDEST SWAP2 POP DUP2 SWAP1 POP SWAP2 SWAP1 POP JUMP JUMPDEST PUSH32 0x7472616E73666572206661696C65640000000000000000000000000000000000 PUSH0 DUP3 ADD MSTORE POP JUMP JUMPDEST PUSH0 PUSH2 0x53C PUSH1 0xF DUP4 PUSH2 0x2CA JUMP JUMPDEST SWAP2 POP PUSH2 0x547 DUP3 PUSH2 0x508 JUMP JUMPDEST PUSH1 0x20 DUP3 ADD SWAP1 POP SWAP2 SWAP1 POP JUMP JUMPDEST PUSH0 PUSH1 0x20 DUP3 ADD SWAP1 POP DUP2 DUP2 SUB PUSH0 DUP4 ADD MSTORE PUSH2 0x569 DUP2 PUSH2 0x530 JUMP JUMPDEST SWAP1 POP SWAP2 SWAP1 POP JUMP INVALID LOG2 PUSH5 0x6970667358 0x22 SLT KECCAK256 ADDRESS EQ GASLIMIT ORIGIN 0xAD CHAINID SWAP11 SWAP14 MOD DUP6 0xD4 BLOBBASEFEE RETURNDATASIZE 0xD7 0xCB 0xAE 0xBD SWAP3 SAR INVALID 0xC0 ADD 0xC0 0xE2 0x1E PUSH29 0xD654A984F28F64736F6C634300081E0033000000000000000000000000 "
				},
				"gasEstimates": {
					"creation": {
						"codeDepositCost": "289200",
						"executionCost": "infinite",
						"totalCost": "infinite"
					},
					"external": {
						"": "1947",
						"deposit()": "163",
						"owner()": "2507",
						"transfer(address,uint256)": "infinite",
						"withdraw()": "infinite"
					}
				},
				"methodIdentifiers": {
					"deposit()": "d0e30db0",
					"owner()": "8da5cb5b",
					"transfer(address,uint256)": "a9059cbb",
					"withdraw()": "3ccfd60b"
				}
			},
			"storageLayout": {
				"storage": [
					{
						"astId": 3,
						"contract": "21_sendETH.sol:SendEthereum",
						"label": "owner",
						"offset": 0,
						"slot": "0",
						"type": "t_address_payable"
					}
				],
				"types": {
					"t_address_payable": {
						"encoding": "inplace",
						"label": "address payable",
						"numberOfBytes": "20"
					}
				}
			},
			"userdoc": {
				"kind": "user",
				"methods": {},
				"version": 1
			}
		}
	}
}