{
	"21_sendETH.sol": {
		"SenderEth": {
			"abi": [
				{
					"inputs": [
						{
							"internalType": "address payable",
							"name": "_to",
							"type": "address"
						}
					],
					"name": "sendViaSend",
					"outputs": [],
					"stateMutability": "payable",
					"type": "function"
				},
				{
					"inputs": [
						{
							"internalType": "address payable",
							"name": "_to",
							"type": "address"
						}
					],
					"name": "sendViaTranfer",
					"outputs": [],
					"stateMutability": "payable",
					"type": "function"
				},
				{
					"inputs": [
						{
							"internalType": "address payable",
							"name": "_to",
							"type": "address"
						}
					],
					"name": "sendVicCall",
					"outputs": [],
					"stateMutability": "payable",
					"type": "function"
				}
			],
			"devdoc": {
				"kind": "dev",
				"methods": {},
				"version": 1
			},
			"evm": {
				"assembly": "    /* \"21_sendETH.sol\":924:1508  contract SenderEth {... */\n  mstore(0x40, 0x80)\n  callvalue\n  dup1\n  iszero\n  tag_1\n  jumpi\n  revert(0x00, 0x00)\ntag_1:\n  pop\n  dataSize(sub_0)\n  dup1\n  dataOffset(sub_0)\n  0x00\n  codecopy\n  0x00\n  return\nstop\n\nsub_0: assembly {\n        /* \"21_sendETH.sol\":924:1508  contract SenderEth {... */\n      mstore(0x40, 0x80)\n      jumpi(tag_1, lt(calldatasize, 0x04))\n      shr(0xe0, calldataload(0x00))\n      dup1\n      0x619454f3\n      eq\n      tag_2\n      jumpi\n      dup1\n      0x74be4806\n      eq\n      tag_3\n      jumpi\n      dup1\n      0xd4e3e1ac\n      eq\n      tag_4\n      jumpi\n    tag_1:\n      revert(0x00, 0x00)\n        /* \"21_sendETH.sol\":1406:1506  function sendViaTranfer(address payable _to) public payable {... */\n    tag_2:\n      tag_5\n      0x04\n      dup1\n      calldatasize\n      sub\n      dup2\n      add\n      swap1\n      tag_6\n      swap2\n      swap1\n      tag_7\n      jump\t// in\n    tag_6:\n      tag_8\n      jump\t// in\n    tag_5:\n      stop\n        /* \"21_sendETH.sol\":1224:1371  function sendViaSend(address payable _to) public payable {... */\n    tag_3:\n      tag_9\n      0x04\n      dup1\n      calldatasize\n      sub\n      dup2\n      add\n      swap1\n      tag_10\n      swap2\n      swap1\n      tag_7\n      jump\t// in\n    tag_10:\n      tag_11\n      jump\t// in\n    tag_9:\n      stop\n        /* \"21_sendETH.sol\":973:1194  function sendVicCall(address payable _to) public payable {... */\n    tag_4:\n      tag_12\n      0x04\n      dup1\n      calldatasize\n      sub\n      dup2\n      add\n      swap1\n      tag_13\n      swap2\n      swap1\n      tag_7\n      jump\t// in\n    tag_13:\n      tag_14\n      jump\t// in\n    tag_12:\n      stop\n        /* \"21_sendETH.sol\":1406:1506  function sendViaTranfer(address payable _to) public payable {... */\n    tag_8:\n        /* \"21_sendETH.sol\":1476:1479  _to */\n      dup1\n        /* \"21_sendETH.sol\":1476:1488  _to.transfer */\n      0xffffffffffffffffffffffffffffffffffffffff\n      and\n        /* \"21_sendETH.sol\":1476:1499  _to.transfer(msg.value) */\n      0x08fc\n        /* \"21_sendETH.sol\":1489:1498  msg.value */\n      callvalue\n        /* \"21_sendETH.sol\":1476:1499  _to.transfer(msg.value) */\n      swap1\n      dup2\n      iszero\n      mul\n      swap1\n      mload(0x40)\n      0x00\n      mload(0x40)\n      dup1\n      dup4\n      sub\n      dup2\n      dup6\n      dup9\n      dup9\n      call\n      swap4\n      pop\n      pop\n      pop\n      pop\n      iszero\n      dup1\n      iszero\n      tag_17\n      jumpi\n      returndatacopy(0x00, 0x00, returndatasize)\n      revert(0x00, returndatasize)\n    tag_17:\n      pop\n        /* \"21_sendETH.sol\":1406:1506  function sendViaTranfer(address payable _to) public payable {... */\n      pop\n      jump\t// out\n        /* \"21_sendETH.sol\":1224:1371  function sendViaSend(address payable _to) public payable {... */\n    tag_11:\n        /* \"21_sendETH.sol\":1291:1300  bool sent */\n      0x00\n        /* \"21_sendETH.sol\":1303:1306  _to */\n      dup2\n        /* \"21_sendETH.sol\":1303:1311  _to.send */\n      0xffffffffffffffffffffffffffffffffffffffff\n      and\n        /* \"21_sendETH.sol\":1303:1322  _to.send(msg.value) */\n      0x08fc\n        /* \"21_sendETH.sol\":1312:1321  msg.value */\n      callvalue\n        /* \"21_sendETH.sol\":1303:1322  _to.send(msg.value) */\n      swap1\n      dup2\n      iszero\n      mul\n      swap1\n      mload(0x40)\n      0x00\n      mload(0x40)\n      dup1\n      dup4\n      sub\n      dup2\n      dup6\n      dup9\n      dup9\n      call\n      swap4\n      pop\n      pop\n      pop\n      pop\n        /* \"21_sendETH.sol\":1291:1322  bool sent = _to.send(msg.value) */\n      swap1\n      pop\n        /* \"21_sendETH.sol\":1340:1344  sent */\n      dup1\n        /* \"21_sendETH.sol\":1332:1364  require(sent, \"transfer failed\") */\n      tag_20\n      jumpi\n      mload(0x40)\n      0x08c379a000000000000000000000000000000000000000000000000000000000\n      dup2\n      mstore\n      0x04\n      add\n      tag_21\n      swap1\n      tag_22\n      jump\t// in\n    tag_21:\n      mload(0x40)\n      dup1\n      swap2\n      sub\n      swap1\n      revert\n    tag_20:\n        /* \"21_sendETH.sol\":1281:1371  {... */\n      pop\n        /* \"21_sendETH.sol\":1224:1371  function sendViaSend(address payable _to) public payable {... */\n      pop\n      jump\t// out\n        /* \"21_sendETH.sol\":973:1194  function sendVicCall(address payable _to) public payable {... */\n    tag_14:\n        /* \"21_sendETH.sol\":1041:1050  bool sent */\n      0x00\n        /* \"21_sendETH.sol\":1052:1069  bytes memory data */\n      0x00\n        /* \"21_sendETH.sol\":1072:1075  _to */\n      dup3\n        /* \"21_sendETH.sol\":1072:1080  _to.call */\n      0xffffffffffffffffffffffffffffffffffffffff\n      and\n        /* \"21_sendETH.sol\":1089:1098  msg.value */\n      callvalue\n        /* \"21_sendETH.sol\":1101:1144  abi.encodeWithSignature(\"notExistenFunc()\") */\n      add(0x24, mload(0x40))\n      mload(0x40)\n      0x20\n      dup2\n      dup4\n      sub\n      sub\n      dup2\n      mstore\n      swap1\n      0x40\n      mstore\n      and(not(0xffffffffffffffffffffffffffffffffffffffffffffffffffffffff), 0x37983b6700000000000000000000000000000000000000000000000000000000)\n      0x20\n      dup3\n      add\n      dup1\n      mload\n      0xffffffffffffffffffffffffffffffffffffffffffffffffffffffff\n      dup4\n      dup2\n      dup4\n      and\n      or\n      dup4\n      mstore\n      pop\n      pop\n      pop\n      pop\n        /* \"21_sendETH.sol\":1072:1145  _to.call{ value: msg.value }(abi.encodeWithSignature(\"notExistenFunc()\")) */\n      mload(0x40)\n      tag_24\n      swap2\n      swap1\n      tag_25\n      jump\t// in\n    tag_24:\n      0x00\n      mload(0x40)\n      dup1\n      dup4\n      sub\n      dup2\n      dup6\n      dup8\n      gas\n      call\n      swap3\n      pop\n      pop\n      pop\n      returndatasize\n      dup1\n      0x00\n      dup2\n      eq\n      tag_28\n      jumpi\n      mload(0x40)\n      swap2\n      pop\n      and(add(returndatasize, 0x3f), not(0x1f))\n      dup3\n      add\n      0x40\n      mstore\n      returndatasize\n      dup3\n      mstore\n      returndatasize\n      0x00\n      0x20\n      dup5\n      add\n      returndatacopy\n      jump(tag_27)\n    tag_28:\n      0x60\n      swap2\n      pop\n    tag_27:\n      pop\n        /* \"21_sendETH.sol\":1040:1145  (bool sent, bytes memory data)= _to.call{ value: msg.value }(abi.encodeWithSignature(\"notExistenFunc()\")) */\n      swap2\n      pop\n      swap2\n      pop\n        /* \"21_sendETH.sol\":1163:1167  sent */\n      dup2\n        /* \"21_sendETH.sol\":1155:1187  require(sent, \"transfer failed\") */\n      tag_29\n      jumpi\n      mload(0x40)\n      0x08c379a000000000000000000000000000000000000000000000000000000000\n      dup2\n      mstore\n      0x04\n      add\n      tag_30\n      swap1\n      tag_22\n      jump\t// in\n    tag_30:\n      mload(0x40)\n      dup1\n      swap2\n      sub\n      swap1\n      revert\n    tag_29:\n        /* \"21_sendETH.sol\":1030:1194  {... */\n      pop\n      pop\n        /* \"21_sendETH.sol\":973:1194  function sendVicCall(address payable _to) public payable {... */\n      pop\n      jump\t// out\n        /* \"#utility.yul\":88:205   */\n    tag_32:\n        /* \"#utility.yul\":197:198   */\n      0x00\n        /* \"#utility.yul\":194:195   */\n      0x00\n        /* \"#utility.yul\":187:199   */\n      revert\n        /* \"#utility.yul\":334:460   */\n    tag_34:\n        /* \"#utility.yul\":371:378   */\n      0x00\n        /* \"#utility.yul\":411:453   */\n      0xffffffffffffffffffffffffffffffffffffffff\n        /* \"#utility.yul\":404:409   */\n      dup3\n        /* \"#utility.yul\":400:454   */\n      and\n        /* \"#utility.yul\":389:454   */\n      swap1\n      pop\n        /* \"#utility.yul\":334:460   */\n      swap2\n      swap1\n      pop\n      jump\t// out\n        /* \"#utility.yul\":466:570   */\n    tag_35:\n        /* \"#utility.yul\":511:518   */\n      0x00\n        /* \"#utility.yul\":540:564   */\n      tag_51\n        /* \"#utility.yul\":558:563   */\n      dup3\n        /* \"#utility.yul\":540:564   */\n      tag_34\n      jump\t// in\n    tag_51:\n        /* \"#utility.yul\":529:564   */\n      swap1\n      pop\n        /* \"#utility.yul\":466:570   */\n      swap2\n      swap1\n      pop\n      jump\t// out\n        /* \"#utility.yul\":576:714   */\n    tag_36:\n        /* \"#utility.yul\":657:689   */\n      tag_53\n        /* \"#utility.yul\":683:688   */\n      dup2\n        /* \"#utility.yul\":657:689   */\n      tag_35\n      jump\t// in\n    tag_53:\n        /* \"#utility.yul\":650:655   */\n      dup2\n        /* \"#utility.yul\":647:690   */\n      eq\n        /* \"#utility.yul\":637:708   */\n      tag_54\n      jumpi\n        /* \"#utility.yul\":704:705   */\n      0x00\n        /* \"#utility.yul\":701:702   */\n      0x00\n        /* \"#utility.yul\":694:706   */\n      revert\n        /* \"#utility.yul\":637:708   */\n    tag_54:\n        /* \"#utility.yul\":576:714   */\n      pop\n      jump\t// out\n        /* \"#utility.yul\":720:875   */\n    tag_37:\n        /* \"#utility.yul\":774:779   */\n      0x00\n        /* \"#utility.yul\":812:818   */\n      dup2\n        /* \"#utility.yul\":799:819   */\n      calldataload\n        /* \"#utility.yul\":790:819   */\n      swap1\n      pop\n        /* \"#utility.yul\":828:869   */\n      tag_56\n        /* \"#utility.yul\":863:868   */\n      dup2\n        /* \"#utility.yul\":828:869   */\n      tag_36\n      jump\t// in\n    tag_56:\n        /* \"#utility.yul\":720:875   */\n      swap3\n      swap2\n      pop\n      pop\n      jump\t// out\n        /* \"#utility.yul\":881:1226   */\n    tag_7:\n        /* \"#utility.yul\":948:954   */\n      0x00\n        /* \"#utility.yul\":997:999   */\n      0x20\n        /* \"#utility.yul\":985:994   */\n      dup3\n        /* \"#utility.yul\":976:983   */\n      dup5\n        /* \"#utility.yul\":972:995   */\n      sub\n        /* \"#utility.yul\":968:1000   */\n      slt\n        /* \"#utility.yul\":965:1084   */\n      iszero\n      tag_58\n      jumpi\n        /* \"#utility.yul\":1003:1082   */\n      tag_59\n      tag_32\n      jump\t// in\n    tag_59:\n        /* \"#utility.yul\":965:1084   */\n    tag_58:\n        /* \"#utility.yul\":1123:1124   */\n      0x00\n        /* \"#utility.yul\":1148:1209   */\n      tag_60\n        /* \"#utility.yul\":1201:1208   */\n      dup5\n        /* \"#utility.yul\":1192:1198   */\n      dup3\n        /* \"#utility.yul\":1181:1190   */\n      dup6\n        /* \"#utility.yul\":1177:1199   */\n      add\n        /* \"#utility.yul\":1148:1209   */\n      tag_37\n      jump\t// in\n    tag_60:\n        /* \"#utility.yul\":1138:1209   */\n      swap2\n      pop\n        /* \"#utility.yul\":1094:1219   */\n      pop\n        /* \"#utility.yul\":881:1226   */\n      swap3\n      swap2\n      pop\n      pop\n      jump\t// out\n        /* \"#utility.yul\":1232:1401   */\n    tag_38:\n        /* \"#utility.yul\":1316:1327   */\n      0x00\n        /* \"#utility.yul\":1350:1356   */\n      dup3\n        /* \"#utility.yul\":1345:1348   */\n      dup3\n        /* \"#utility.yul\":1338:1357   */\n      mstore\n        /* \"#utility.yul\":1390:1394   */\n      0x20\n        /* \"#utility.yul\":1385:1388   */\n      dup3\n        /* \"#utility.yul\":1381:1395   */\n      add\n        /* \"#utility.yul\":1366:1395   */\n      swap1\n      pop\n        /* \"#utility.yul\":1232:1401   */\n      swap3\n      swap2\n      pop\n      pop\n      jump\t// out\n        /* \"#utility.yul\":1407:1572   */\n    tag_39:\n        /* \"#utility.yul\":1547:1564   */\n      0x7472616e73666572206661696c65640000000000000000000000000000000000\n        /* \"#utility.yul\":1543:1544   */\n      0x00\n        /* \"#utility.yul\":1535:1541   */\n      dup3\n        /* \"#utility.yul\":1531:1545   */\n      add\n        /* \"#utility.yul\":1524:1565   */\n      mstore\n        /* \"#utility.yul\":1407:1572   */\n      pop\n      jump\t// out\n        /* \"#utility.yul\":1578:1944   */\n    tag_40:\n        /* \"#utility.yul\":1720:1723   */\n      0x00\n        /* \"#utility.yul\":1741:1808   */\n      tag_64\n        /* \"#utility.yul\":1805:1807   */\n      0x0f\n        /* \"#utility.yul\":1800:1803   */\n      dup4\n        /* \"#utility.yul\":1741:1808   */\n      tag_38\n      jump\t// in\n    tag_64:\n        /* \"#utility.yul\":1734:1808   */\n      swap2\n      pop\n        /* \"#utility.yul\":1817:1910   */\n      tag_65\n        /* \"#utility.yul\":1906:1909   */\n      dup3\n        /* \"#utility.yul\":1817:1910   */\n      tag_39\n      jump\t// in\n    tag_65:\n        /* \"#utility.yul\":1935:1937   */\n      0x20\n        /* \"#utility.yul\":1930:1933   */\n      dup3\n        /* \"#utility.yul\":1926:1938   */\n      add\n        /* \"#utility.yul\":1919:1938   */\n      swap1\n      pop\n        /* \"#utility.yul\":1578:1944   */\n      swap2\n      swap1\n      pop\n      jump\t// out\n        /* \"#utility.yul\":1950:2369   */\n    tag_22:\n        /* \"#utility.yul\":2116:2120   */\n      0x00\n        /* \"#utility.yul\":2154:2156   */\n      0x20\n        /* \"#utility.yul\":2143:2152   */\n      dup3\n        /* \"#utility.yul\":2139:2157   */\n      add\n        /* \"#utility.yul\":2131:2157   */\n      swap1\n      pop\n        /* \"#utility.yul\":2203:2212   */\n      dup2\n        /* \"#utility.yul\":2197:2201   */\n      dup2\n        /* \"#utility.yul\":2193:2213   */\n      sub\n        /* \"#utility.yul\":2189:2190   */\n      0x00\n        /* \"#utility.yul\":2178:2187   */\n      dup4\n        /* \"#utility.yul\":2174:2191   */\n      add\n        /* \"#utility.yul\":2167:2214   */\n      mstore\n        /* \"#utility.yul\":2231:2362   */\n      tag_67\n        /* \"#utility.yul\":2357:2361   */\n      dup2\n        /* \"#utility.yul\":2231:2362   */\n      tag_40\n      jump\t// in\n    tag_67:\n        /* \"#utility.yul\":2223:2362   */\n      swap1\n      pop\n        /* \"#utility.yul\":1950:2369   */\n      swap2\n      swap1\n      pop\n      jump\t// out\n        /* \"#utility.yul\":2375:2473   */\n    tag_41:\n        /* \"#utility.yul\":2426:2432   */\n      0x00\n        /* \"#utility.yul\":2460:2465   */\n      dup2\n        /* \"#utility.yul\":2454:2466   */\n      mload\n        /* \"#utility.yul\":2444:2466   */\n      swap1\n      pop\n        /* \"#utility.yul\":2375:2473   */\n      swap2\n      swap1\n      pop\n      jump\t// out\n        /* \"#utility.yul\":2479:2626   */\n    tag_42:\n        /* \"#utility.yul\":2580:2591   */\n      0x00\n        /* \"#utility.yul\":2617:2620   */\n      dup2\n        /* \"#utility.yul\":2602:2620   */\n      swap1\n      pop\n        /* \"#utility.yul\":2479:2626   */\n      swap3\n      swap2\n      pop\n      pop\n      jump\t// out\n        /* \"#utility.yul\":2632:2771   */\n    tag_43:\n        /* \"#utility.yul\":2721:2727   */\n      dup3\n        /* \"#utility.yul\":2716:2719   */\n      dup2\n        /* \"#utility.yul\":2711:2714   */\n      dup4\n        /* \"#utility.yul\":2705:2728   */\n      mcopy\n        /* \"#utility.yul\":2762:2763   */\n      0x00\n        /* \"#utility.yul\":2753:2759   */\n      dup4\n        /* \"#utility.yul\":2748:2751   */\n      dup4\n        /* \"#utility.yul\":2744:2760   */\n      add\n        /* \"#utility.yul\":2737:2764   */\n      mstore\n        /* \"#utility.yul\":2632:2771   */\n      pop\n      pop\n      pop\n      jump\t// out\n        /* \"#utility.yul\":2777:3163   */\n    tag_44:\n        /* \"#utility.yul\":2881:2884   */\n      0x00\n        /* \"#utility.yul\":2909:2947   */\n      tag_72\n        /* \"#utility.yul\":2941:2946   */\n      dup3\n        /* \"#utility.yul\":2909:2947   */\n      tag_41\n      jump\t// in\n    tag_72:\n        /* \"#utility.yul\":2963:3051   */\n      tag_73\n        /* \"#utility.yul\":3044:3050   */\n      dup2\n        /* \"#utility.yul\":3039:3042   */\n      dup6\n        /* \"#utility.yul\":2963:3051   */\n      tag_42\n      jump\t// in\n    tag_73:\n        /* \"#utility.yul\":2956:3051   */\n      swap4\n      pop\n        /* \"#utility.yul\":3060:3125   */\n      tag_74\n        /* \"#utility.yul\":3118:3124   */\n      dup2\n        /* \"#utility.yul\":3113:3116   */\n      dup6\n        /* \"#utility.yul\":3106:3110   */\n      0x20\n        /* \"#utility.yul\":3099:3104   */\n      dup7\n        /* \"#utility.yul\":3095:3111   */\n      add\n        /* \"#utility.yul\":3060:3125   */\n      tag_43\n      jump\t// in\n    tag_74:\n        /* \"#utility.yul\":3150:3156   */\n      dup1\n        /* \"#utility.yul\":3145:3148   */\n      dup5\n        /* \"#utility.yul\":3141:3157   */\n      add\n        /* \"#utility.yul\":3134:3157   */\n      swap2\n      pop\n        /* \"#utility.yul\":2885:3163   */\n      pop\n        /* \"#utility.yul\":2777:3163   */\n      swap3\n      swap2\n      pop\n      pop\n      jump\t// out\n        /* \"#utility.yul\":3169:3440   */\n    tag_25:\n        /* \"#utility.yul\":3299:3302   */\n      0x00\n        /* \"#utility.yul\":3321:3414   */\n      tag_76\n        /* \"#utility.yul\":3410:3413   */\n      dup3\n        /* \"#utility.yul\":3401:3407   */\n      dup5\n        /* \"#utility.yul\":3321:3414   */\n      tag_44\n      jump\t// in\n    tag_76:\n        /* \"#utility.yul\":3314:3414   */\n      swap2\n      pop\n        /* \"#utility.yul\":3431:3434   */\n      dup2\n        /* \"#utility.yul\":3424:3434   */\n      swap1\n      pop\n        /* \"#utility.yul\":3169:3440   */\n      swap3\n      swap2\n      pop\n      pop\n      jump\t// out\n\n    auxdata: 0xa2646970667358221220c73414b6b48cba25d0d92ecf371734cf69867740e6cb68289b10c4f0ee5386ce64736f6c634300081e0033\n}\n",
				"bytecode": {
					"linkReferences": {},
					"object": "6080604052348015600e575f5ffd5b5061041f8061001c5f395ff3fe608060405260043610610033575f3560e01c8063619454f31461003757806374be480614610053578063d4e3e1ac1461006f575b5f5ffd5b610051600480360381019061004c91906102de565b61008b565b005b61006d600480360381019061006891906102de565b6100d2565b005b610089600480360381019061008491906102de565b61014d565b005b8073ffffffffffffffffffffffffffffffffffffffff166108fc3490811502906040515f60405180830381858888f193505050501580156100ce573d5f5f3e3d5ffd5b5050565b5f8173ffffffffffffffffffffffffffffffffffffffff166108fc3490811502906040515f60405180830381858888f19350505050905080610149576040517f08c379a000000000000000000000000000000000000000000000000000000000815260040161014090610363565b60405180910390fd5b5050565b5f5f8273ffffffffffffffffffffffffffffffffffffffff16346040516024016040516020818303038152906040527f37983b67000000000000000000000000000000000000000000000000000000007bffffffffffffffffffffffffffffffffffffffffffffffffffffffff19166020820180517bffffffffffffffffffffffffffffffffffffffffffffffffffffffff83818316178352505050506040516101f791906103d3565b5f6040518083038185875af1925050503d805f8114610231576040519150601f19603f3d011682016040523d82523d5f602084013e610236565b606091505b50915091508161027b576040517f08c379a000000000000000000000000000000000000000000000000000000000815260040161027290610363565b60405180910390fd5b505050565b5f5ffd5b5f73ffffffffffffffffffffffffffffffffffffffff82169050919050565b5f6102ad82610284565b9050919050565b6102bd816102a3565b81146102c7575f5ffd5b50565b5f813590506102d8816102b4565b92915050565b5f602082840312156102f3576102f2610280565b5b5f610300848285016102ca565b91505092915050565b5f82825260208201905092915050565b7f7472616e73666572206661696c656400000000000000000000000000000000005f82015250565b5f61034d600f83610309565b915061035882610319565b602082019050919050565b5f6020820190508181035f83015261037a81610341565b9050919050565b5f81519050919050565b5f81905092915050565b8281835e5f83830152505050565b5f6103ad82610381565b6103b7818561038b565b93506103c7818560208601610395565b80840191505092915050565b5f6103de82846103a3565b91508190509291505056fea2646970667358221220c73414b6b48cba25d0d92ecf371734cf69867740e6cb68289b10c4f0ee5386ce64736f6c634300081e0033",
					"opcodes": "PUSH1 0x80 PUSH1 0x40 MSTORE CALLVALUE DUP1 ISZERO PUSH1 0xE JUMPI PUSH0 PUSH0 REVERT JUMPDEST POP PUSH2 0x41F DUP1 PUSH2 0x1C PUSH0 CODECOPY PUSH0 RETURN INVALID PUSH1 0x80 PUSH1 0x40 MSTORE PUSH1 0x4 CALLDATASIZE LT PUSH2 0x33 JUMPI PUSH0 CALLDATALOAD PUSH1 0xE0 SHR DUP1 PUSH4 0x619454F3 EQ PUSH2 0x37 JUMPI DUP1 PUSH4 0x74BE4806 EQ PUSH2 0x53 JUMPI DUP1 PUSH4 0xD4E3E1AC EQ PUSH2 0x6F JUMPI JUMPDEST PUSH0 PUSH0 REVERT JUMPDEST PUSH2 0x51 PUSH1 0x4 DUP1 CALLDATASIZE SUB DUP2 ADD SWAP1 PUSH2 0x4C SWAP2 SWAP1 PUSH2 0x2DE JUMP JUMPDEST PUSH2 0x8B JUMP JUMPDEST STOP JUMPDEST PUSH2 0x6D PUSH1 0x4 DUP1 CALLDATASIZE SUB DUP2 ADD SWAP1 PUSH2 0x68 SWAP2 SWAP1 PUSH2 0x2DE JUMP JUMPDEST PUSH2 0xD2 JUMP JUMPDEST STOP JUMPDEST PUSH2 0x89 PUSH1 0x4 DUP1 CALLDATASIZE SUB DUP2 ADD SWAP1 PUSH2 0x84 SWAP2 SWAP1 PUSH2 0x2DE JUMP JUMPDEST PUSH2 0x14D JUMP JUMPDEST STOP JUMPDEST DUP1 PUSH20 0xFFFFFFFFFFFFFFFFFFFFFFFFFFFFFFFFFFFFFFFF AND PUSH2 0x8FC CALLVALUE SWAP1 DUP2 ISZERO MUL SWAP1 PUSH1 0x40 MLOAD PUSH0 PUSH1 0x40 MLOAD DUP1 DUP4 SUB DUP2 DUP6 DUP9 DUP9 CALL SWAP4 POP POP POP POP ISZERO DUP1 ISZERO PUSH2 0xCE JUMPI RETURNDATASIZE PUSH0 PUSH0 RETURNDATACOPY RETURNDATASIZE PUSH0 REVERT JUMPDEST POP POP JUMP JUMPDEST PUSH0 DUP2 PUSH20 0xFFFFFFFFFFFFFFFFFFFFFFFFFFFFFFFFFFFFFFFF AND PUSH2 0x8FC CALLVALUE SWAP1 DUP2 ISZERO MUL SWAP1 PUSH1 0x40 MLOAD PUSH0 PUSH1 0x40 MLOAD DUP1 DUP4 SUB DUP2 DUP6 DUP9 DUP9 CALL SWAP4 POP POP POP POP SWAP1 POP DUP1 PUSH2 0x149 JUMPI PUSH1 0x40 MLOAD PUSH32 0x8C379A000000000000000000000000000000000000000000000000000000000 DUP2 MSTORE PUSH1 0x4 ADD PUSH2 0x140 SWAP1 PUSH2 0x363 JUMP JUMPDEST PUSH1 0x40 MLOAD DUP1 SWAP2 SUB SWAP1 REVERT JUMPDEST POP POP JUMP JUMPDEST PUSH0 PUSH0 DUP3 PUSH20 0xFFFFFFFFFFFFFFFFFFFFFFFFFFFFFFFFFFFFFFFF AND CALLVALUE PUSH1 0x40 MLOAD PUSH1 0x24 ADD PUSH1 0x40 MLOAD PUSH1 0x20 DUP2 DUP4 SUB SUB DUP2 MSTORE SWAP1 PUSH1 0x40 MSTORE PUSH32 0x37983B6700000000000000000000000000000000000000000000000000000000 PUSH28 0xFFFFFFFFFFFFFFFFFFFFFFFFFFFFFFFFFFFFFFFFFFFFFFFFFFFFFFFF NOT AND PUSH1 0x20 DUP3 ADD DUP1 MLOAD PUSH28 0xFFFFFFFFFFFFFFFFFFFFFFFFFFFFFFFFFFFFFFFFFFFFFFFFFFFFFFFF DUP4 DUP2 DUP4 AND OR DUP4 MSTORE POP POP POP POP PUSH1 0x40 MLOAD PUSH2 0x1F7 SWAP2 SWAP1 PUSH2 0x3D3 JUMP JUMPDEST PUSH0 PUSH1 0x40 MLOAD DUP1 DUP4 SUB DUP2 DUP6 DUP8 GAS CALL SWAP3 POP POP POP RETURNDATASIZE DUP1 PUSH0 DUP2 EQ PUSH2 0x231 JUMPI PUSH1 0x40 MLOAD SWAP2 POP PUSH1 0x1F NOT PUSH1 0x3F RETURNDATASIZE ADD AND DUP3 ADD PUSH1 0x40 MSTORE RETURNDATASIZE DUP3 MSTORE RETURNDATASIZE PUSH0 PUSH1 0x20 DUP5 ADD RETURNDATACOPY PUSH2 0x236 JUMP JUMPDEST PUSH1 0x60 SWAP2 POP JUMPDEST POP SWAP2 POP SWAP2 POP DUP2 PUSH2 0x27B JUMPI PUSH1 0x40 MLOAD PUSH32 0x8C379A000000000000000000000000000000000000000000000000000000000 DUP2 MSTORE PUSH1 0x4 ADD PUSH2 0x272 SWAP1 PUSH2 0x363 JUMP JUMPDEST PUSH1 0x40 MLOAD DUP1 SWAP2 SUB SWAP1 REVERT JUMPDEST POP POP POP JUMP JUMPDEST PUSH0 PUSH0 REVERT JUMPDEST PUSH0 PUSH20 0xFFFFFFFFFFFFFFFFFFFFFFFFFFFFFFFFFFFFFFFF DUP3 AND SWAP1 POP SWAP2 SWAP1 POP JUMP JUMPDEST PUSH0 PUSH2 0x2AD DUP3 PUSH2 0x284 JUMP JUMPDEST SWAP1 POP SWAP2 SWAP1 POP JUMP JUMPDEST PUSH2 0x2BD DUP2 PUSH2 0x2A3 JUMP JUMPDEST DUP2 EQ PUSH2 0x2C7 JUMPI PUSH0 PUSH0 REVERT JUMPDEST POP JUMP JUMPDEST PUSH0 DUP2 CALLDATALOAD SWAP1 POP PUSH2 0x2D8 DUP2 PUSH2 0x2B4 JUMP JUMPDEST SWAP3 SWAP2 POP POP JUMP JUMPDEST PUSH0 PUSH1 0x20 DUP3 DUP5 SUB SLT ISZERO PUSH2 0x2F3 JUMPI PUSH2 0x2F2 PUSH2 0x280 JUMP JUMPDEST JUMPDEST PUSH0 PUSH2 0x300 DUP5 DUP3 DUP6 ADD PUSH2 0x2CA JUMP JUMPDEST SWAP2 POP POP SWAP3 SWAP2 POP POP JUMP JUMPDEST PUSH0 DUP3 DUP3 MSTORE PUSH1 0x20 DUP3 ADD SWAP1 POP SWAP3 SWAP2 POP POP JUMP JUMPDEST PUSH32 0x7472616E73666572206661696C65640000000000000000000000000000000000 PUSH0 DUP3 ADD MSTORE POP JUMP JUMPDEST PUSH0 PUSH2 0x34D PUSH1 0xF DUP4 PUSH2 0x309 JUMP JUMPDEST SWAP2 POP PUSH2 0x358 DUP3 PUSH2 0x319 JUMP JUMPDEST PUSH1 0x20 DUP3 ADD SWAP1 POP SWAP2 SWAP1 POP JUMP JUMPDEST PUSH0 PUSH1 0x20 DUP3 ADD SWAP1 POP DUP2 DUP2 SUB PUSH0 DUP4 ADD MSTORE PUSH2 0x37A DUP2 PUSH2 0x341 JUMP JUMPDEST SWAP1 POP SWAP2 SWAP1 POP JUMP JUMPDEST PUSH0 DUP2 MLOAD SWAP1 POP SWAP2 SWAP1 POP JUMP JUMPDEST PUSH0 DUP2 SWAP1 POP SWAP3 SWAP2 POP POP JUMP JUMPDEST DUP3 DUP2 DUP4 MCOPY PUSH0 DUP4 DUP4 ADD MSTORE POP POP POP JUMP JUMPDEST PUSH0 PUSH2 0x3AD DUP3 PUSH2 0x381 JUMP JUMPDEST PUSH2 0x3B7 DUP2 DUP6 PUSH2 0x38B JUMP JUMPDEST SWAP4 POP PUSH2 0x3C7 DUP2 DUP6 PUSH1 0x20 DUP7 ADD PUSH2 0x395 JUMP JUMPDEST DUP1 DUP5 ADD SWAP2 POP POP SWAP3 SWAP2 POP POP JUMP JUMPDEST PUSH0 PUSH2 0x3DE DUP3 DUP5 PUSH2 0x3A3 JUMP JUMPDEST SWAP2 POP DUP2 SWAP1 POP SWAP3 SWAP2 POP POP JUMP INVALID LOG2 PUSH5 0x6970667358 0x22 SLT KECCAK256 0xC7 CALLVALUE EQ 0xB6 0xB4 DUP13 0xBA 0x25 0xD0 0xD9 0x2E 0xCF CALLDATACOPY OR CALLVALUE 0xCF PUSH10 0x867740E6CB68289B10C4 CREATE RETURNCONTRACT 0x53 DUP7 0xCE PUSH5 0x736F6C6343 STOP ADDMOD 0x1E STOP CALLER "
				},
				"gasEstimates": {
					"creation": {
						"codeDepositCost": "211000",
						"executionCost": "249",
						"totalCost": "211249"
					},
					"external": {
						"sendViaSend(address)": "infinite",
						"sendViaTranfer(address)": "infinite",
						"sendVicCall(address)": "infinite"
					}
				},
				"methodIdentifiers": {
					"sendViaSend(address)": "74be4806",
					"sendViaTranfer(address)": "619454f3",
					"sendVicCall(address)": "d4e3e1ac"
				}
			},
			"storageLayout": {
				"storage": [],
				"types": null
			},
			"userdoc": {
				"kind": "user",
				"methods": {},
				"version": 1
			}
		}
	}
}