{
	"16_require_revert_assert.sol": {
		"RequireRevertAssert": {
			"abi": [
				{
					"inputs": [],
					"stateMutability": "nonpayable",
					"type": "constructor"
				},
				{
					"inputs": [
						{
							"internalType": "uint256",
							"name": "now",
							"type": "uint256"
						},
						{
							"internalType": "uint256",
							"name": "need",
							"type": "uint256"
						}
					],
					"name": "NotEnough",
					"type": "error"
				},
				{
					"inputs": [],
					"name": "deposit",
					"outputs": [],
					"stateMutability": "payable",
					"type": "function"
				},
				{
					"inputs": [],
					"name": "getContractBalance",
					"outputs": [
						{
							"internalType": "uint256",
							"name": "",
							"type": "uint256"
						}
					],
					"stateMutability": "view",
					"type": "function"
				},
				{
					"inputs": [],
					"name": "owner",
					"outputs": [
						{
							"internalType": "address",
							"name": "",
							"type": "address"
						}
					],
					"stateMutability": "view",
					"type": "function"
				},
				{
					"inputs": [
						{
							"internalType": "uint256",
							"name": "amount",
							"type": "uint256"
						}
					],
					"name": "ownerWithdraw",
					"outputs": [],
					"stateMutability": "nonpayable",
					"type": "function"
				},
				{
					"inputs": [
						{
							"internalType": "uint256",
							"name": "amount",
							"type": "uint256"
						}
					],
					"name": "withdraw",
					"outputs": [],
					"stateMutability": "nonpayable",
					"type": "function"
				}
			],
			"devdoc": {
				"kind": "dev",
				"methods": {},
				"version": 1
			},
			"evm": {
				"assembly": "    /* \"16_require_revert_assert.sol\":58:1633  contract RequireRevertAssert {... */\n  mstore(0x40, 0x80)\n    /* \"16_require_revert_assert.sol\":266:315  constructor() {... */\n  callvalue\n  dup1\n  iszero\n  tag_1\n  jumpi\n  revert(0x00, 0x00)\ntag_1:\n  pop\n    /* \"16_require_revert_assert.sol\":298:308  msg.sender */\n  caller\n    /* \"16_require_revert_assert.sol\":290:295  owner */\n  0x00\n  0x00\n    /* \"16_require_revert_assert.sol\":290:308  owner = msg.sender */\n  0x0100\n  exp\n  dup2\n  sload\n  dup2\n  0xffffffffffffffffffffffffffffffffffffffff\n  mul\n  not\n  and\n  swap1\n  dup4\n  0xffffffffffffffffffffffffffffffffffffffff\n  and\n  mul\n  or\n  swap1\n  sstore\n  pop\n    /* \"16_require_revert_assert.sol\":58:1633  contract RequireRevertAssert {... */\n  dataSize(sub_0)\n  dup1\n  dataOffset(sub_0)\n  0x00\n  codecopy\n  0x00\n  return\nstop\n\nsub_0: assembly {\n        /* \"16_require_revert_assert.sol\":58:1633  contract RequireRevertAssert {... */\n      mstore(0x40, 0x80)\n      jumpi(tag_1, lt(calldatasize, 0x04))\n      shr(0xe0, calldataload(0x00))\n      dup1\n      0x2e1a7d4d\n      eq\n      tag_2\n      jumpi\n      dup1\n      0x33f707d1\n      eq\n      tag_3\n      jumpi\n      dup1\n      0x6f9fb98a\n      eq\n      tag_4\n      jumpi\n      dup1\n      0x8da5cb5b\n      eq\n      tag_5\n      jumpi\n      dup1\n      0xd0e30db0\n      eq\n      tag_6\n      jumpi\n    tag_1:\n      revert(0x00, 0x00)\n        /* \"16_require_revert_assert.sol\":599:926  function withdraw(uint256 amount) external {... */\n    tag_2:\n      callvalue\n      dup1\n      iszero\n      tag_7\n      jumpi\n      revert(0x00, 0x00)\n    tag_7:\n      pop\n      tag_8\n      0x04\n      dup1\n      calldatasize\n      sub\n      dup2\n      add\n      swap1\n      tag_9\n      swap2\n      swap1\n      tag_10\n      jump\t// in\n    tag_9:\n      tag_11\n      jump\t// in\n    tag_8:\n      stop\n        /* \"16_require_revert_assert.sol\":1002:1518  function ownerWithdraw(uint256 amount) external {... */\n    tag_3:\n      callvalue\n      dup1\n      iszero\n      tag_12\n      jumpi\n      revert(0x00, 0x00)\n    tag_12:\n      pop\n      tag_13\n      0x04\n      dup1\n      calldatasize\n      sub\n      dup2\n      add\n      swap1\n      tag_14\n      swap2\n      swap1\n      tag_10\n      jump\t// in\n    tag_14:\n      tag_15\n      jump\t// in\n    tag_13:\n      stop\n        /* \"16_require_revert_assert.sol\":1524:1631  function getContractBalance() external view returns (uint256) {... */\n    tag_4:\n      callvalue\n      dup1\n      iszero\n      tag_16\n      jumpi\n      revert(0x00, 0x00)\n    tag_16:\n      pop\n      tag_17\n      tag_18\n      jump\t// in\n    tag_17:\n      mload(0x40)\n      tag_19\n      swap2\n      swap1\n      tag_20\n      jump\t// in\n    tag_19:\n      mload(0x40)\n      dup1\n      swap2\n      sub\n      swap1\n      return\n        /* \"16_require_revert_assert.sol\":93:113  address public owner */\n    tag_5:\n      callvalue\n      dup1\n      iszero\n      tag_21\n      jumpi\n      revert(0x00, 0x00)\n    tag_21:\n      pop\n      tag_22\n      tag_23\n      jump\t// in\n    tag_22:\n      mload(0x40)\n      tag_24\n      swap2\n      swap1\n      tag_25\n      jump\t// in\n    tag_24:\n      mload(0x40)\n      dup1\n      swap2\n      sub\n      swap1\n      return\n        /* \"16_require_revert_assert.sol\":375:520  function deposit() external payable {... */\n    tag_6:\n      tag_26\n      tag_27\n      jump\t// in\n    tag_26:\n      stop\n        /* \"16_require_revert_assert.sol\":599:926  function withdraw(uint256 amount) external {... */\n    tag_11:\n        /* \"16_require_revert_assert.sol\":666:667  0 */\n      0x00\n        /* \"16_require_revert_assert.sol\":656:662  amount */\n      dup2\n        /* \"16_require_revert_assert.sol\":656:667  amount == 0 */\n      eq\n        /* \"16_require_revert_assert.sol\":656:701  amount == 0 || amount >  balances[msg.sender] */\n      dup1\n      tag_29\n      jumpi\n      pop\n        /* \"16_require_revert_assert.sol\":681:689  balances */\n      0x01\n        /* \"16_require_revert_assert.sol\":681:701  balances[msg.sender] */\n      0x00\n        /* \"16_require_revert_assert.sol\":690:700  msg.sender */\n      caller\n        /* \"16_require_revert_assert.sol\":681:701  balances[msg.sender] */\n      0xffffffffffffffffffffffffffffffffffffffff\n      and\n      0xffffffffffffffffffffffffffffffffffffffff\n      and\n      dup2\n      mstore\n      0x20\n      add\n      swap1\n      dup2\n      mstore\n      0x20\n      add\n      0x00\n      keccak256\n      sload\n        /* \"16_require_revert_assert.sol\":671:677  amount */\n      dup2\n        /* \"16_require_revert_assert.sol\":671:701  amount >  balances[msg.sender] */\n      gt\n        /* \"16_require_revert_assert.sol\":656:701  amount == 0 || amount >  balances[msg.sender] */\n    tag_29:\n        /* \"16_require_revert_assert.sol\":652:833  if (amount == 0 || amount >  balances[msg.sender]) {... */\n      iszero\n      tag_30\n      jumpi\n        /* \"16_require_revert_assert.sol\":757:765  balances */\n      0x01\n        /* \"16_require_revert_assert.sol\":757:777  balances[msg.sender] */\n      0x00\n        /* \"16_require_revert_assert.sol\":766:776  msg.sender */\n      caller\n        /* \"16_require_revert_assert.sol\":757:777  balances[msg.sender] */\n      0xffffffffffffffffffffffffffffffffffffffff\n      and\n      0xffffffffffffffffffffffffffffffffffffffff\n      and\n      dup2\n      mstore\n      0x20\n      add\n      swap1\n      dup2\n      mstore\n      0x20\n      add\n      0x00\n      keccak256\n      sload\n        /* \"16_require_revert_assert.sol\":801:807  amount */\n      dup2\n        /* \"16_require_revert_assert.sol\":724:822  NotEnough({... */\n      mload(0x40)\n      0x8b29af5900000000000000000000000000000000000000000000000000000000\n      dup2\n      mstore\n      0x04\n      add\n      tag_31\n      swap3\n      swap2\n      swap1\n      tag_32\n      jump\t// in\n    tag_31:\n      mload(0x40)\n      dup1\n      swap2\n      sub\n      swap1\n      revert\n        /* \"16_require_revert_assert.sol\":652:833  if (amount == 0 || amount >  balances[msg.sender]) {... */\n    tag_30:\n        /* \"16_require_revert_assert.sol\":867:873  amount */\n      dup1\n        /* \"16_require_revert_assert.sol\":843:851  balances */\n      0x01\n        /* \"16_require_revert_assert.sol\":843:863  balances[msg.sender] */\n      0x00\n        /* \"16_require_revert_assert.sol\":852:862  msg.sender */\n      caller\n        /* \"16_require_revert_assert.sol\":843:863  balances[msg.sender] */\n      0xffffffffffffffffffffffffffffffffffffffff\n      and\n      0xffffffffffffffffffffffffffffffffffffffff\n      and\n      dup2\n      mstore\n      0x20\n      add\n      swap1\n      dup2\n      mstore\n      0x20\n      add\n      0x00\n      keccak256\n      0x00\n        /* \"16_require_revert_assert.sol\":843:873  balances[msg.sender] -= amount */\n      dup3\n      dup3\n      sload\n      tag_33\n      swap2\n      swap1\n      tag_34\n      jump\t// in\n    tag_33:\n      swap3\n      pop\n      pop\n      dup2\n      swap1\n      sstore\n      pop\n        /* \"16_require_revert_assert.sol\":891:901  msg.sender */\n      caller\n        /* \"16_require_revert_assert.sol\":883:911  payable(msg.sender).transfer */\n      0xffffffffffffffffffffffffffffffffffffffff\n      and\n        /* \"16_require_revert_assert.sol\":883:919  payable(msg.sender).transfer(amount) */\n      0x08fc\n        /* \"16_require_revert_assert.sol\":912:918  amount */\n      dup3\n        /* \"16_require_revert_assert.sol\":883:919  payable(msg.sender).transfer(amount) */\n      swap1\n      dup2\n      iszero\n      mul\n      swap1\n      mload(0x40)\n      0x00\n      mload(0x40)\n      dup1\n      dup4\n      sub\n      dup2\n      dup6\n      dup9\n      dup9\n      call\n      swap4\n      pop\n      pop\n      pop\n      pop\n      iszero\n      dup1\n      iszero\n      tag_36\n      jumpi\n      returndatacopy(0x00, 0x00, returndatasize)\n      revert(0x00, returndatasize)\n    tag_36:\n      pop\n        /* \"16_require_revert_assert.sol\":599:926  function withdraw(uint256 amount) external {... */\n      pop\n      jump\t// out\n        /* \"16_require_revert_assert.sol\":1002:1518  function ownerWithdraw(uint256 amount) external {... */\n    tag_15:\n        /* \"16_require_revert_assert.sol\":1082:1087  owner */\n      0x00\n      0x00\n      swap1\n      sload\n      swap1\n      0x0100\n      exp\n      swap1\n      div\n      0xffffffffffffffffffffffffffffffffffffffff\n      and\n        /* \"16_require_revert_assert.sol\":1068:1087  msg.sender == owner */\n      0xffffffffffffffffffffffffffffffffffffffff\n      and\n        /* \"16_require_revert_assert.sol\":1068:1078  msg.sender */\n      caller\n        /* \"16_require_revert_assert.sol\":1068:1087  msg.sender == owner */\n      0xffffffffffffffffffffffffffffffffffffffff\n      and\n      eq\n        /* \"16_require_revert_assert.sol\":1060:1122  require(msg.sender == owner, \"owner: only owner can withdraw\") */\n      tag_38\n      jumpi\n      mload(0x40)\n      0x08c379a000000000000000000000000000000000000000000000000000000000\n      dup2\n      mstore\n      0x04\n      add\n      tag_39\n      swap1\n      tag_40\n      jump\t// in\n    tag_39:\n      mload(0x40)\n      dup1\n      swap2\n      sub\n      swap1\n      revert\n    tag_38:\n        /* \"16_require_revert_assert.sol\":1150:1171  address(this).balance */\n      selfbalance\n        /* \"16_require_revert_assert.sol\":1140:1146  amount */\n      dup2\n        /* \"16_require_revert_assert.sol\":1140:1171  amount <= address(this).balance */\n      gt\n      iszero\n        /* \"16_require_revert_assert.sol\":1132:1205  require(amount <= address(this).balance, \"Insufficient contract balance\") */\n      tag_41\n      jumpi\n      mload(0x40)\n      0x08c379a000000000000000000000000000000000000000000000000000000000\n      dup2\n      mstore\n      0x04\n      add\n      tag_42\n      swap1\n      tag_43\n      jump\t// in\n    tag_42:\n      mload(0x40)\n      dup1\n      swap2\n      sub\n      swap1\n      revert\n    tag_41:\n        /* \"16_require_revert_assert.sol\":1252:1281  uint256 contractBalanceBefore */\n      0x00\n        /* \"16_require_revert_assert.sol\":1284:1305  address(this).balance */\n      selfbalance\n        /* \"16_require_revert_assert.sol\":1252:1305  uint256 contractBalanceBefore = address(this).balance */\n      swap1\n      pop\n        /* \"16_require_revert_assert.sol\":1353:1358  owner */\n      0x00\n      0x00\n      swap1\n      sload\n      swap1\n      0x0100\n      exp\n      swap1\n      div\n      0xffffffffffffffffffffffffffffffffffffffff\n      and\n        /* \"16_require_revert_assert.sol\":1345:1368  payable(owner).transfer */\n      0xffffffffffffffffffffffffffffffffffffffff\n      and\n        /* \"16_require_revert_assert.sol\":1345:1376  payable(owner).transfer(amount) */\n      0x08fc\n        /* \"16_require_revert_assert.sol\":1369:1375  amount */\n      dup4\n        /* \"16_require_revert_assert.sol\":1345:1376  payable(owner).transfer(amount) */\n      swap1\n      dup2\n      iszero\n      mul\n      swap1\n      mload(0x40)\n      0x00\n      mload(0x40)\n      dup1\n      dup4\n      sub\n      dup2\n      dup6\n      dup9\n      dup9\n      call\n      swap4\n      pop\n      pop\n      pop\n      pop\n      iszero\n      dup1\n      iszero\n      tag_45\n      jumpi\n      returndatacopy(0x00, 0x00, returndatasize)\n      revert(0x00, returndatasize)\n    tag_45:\n      pop\n        /* \"16_require_revert_assert.sol\":1504:1510  amount */\n      dup2\n        /* \"16_require_revert_assert.sol\":1480:1501  contractBalanceBefore */\n      dup2\n        /* \"16_require_revert_assert.sol\":1480:1510  contractBalanceBefore - amount */\n      tag_46\n      swap2\n      swap1\n      tag_34\n      jump\t// in\n    tag_46:\n        /* \"16_require_revert_assert.sol\":1455:1476  address(this).balance */\n      selfbalance\n        /* \"16_require_revert_assert.sol\":1455:1510  address(this).balance == contractBalanceBefore - amount */\n      eq\n        /* \"16_require_revert_assert.sol\":1448:1511  assert(address(this).balance == contractBalanceBefore - amount) */\n      tag_47\n      jumpi\n      tag_48\n      tag_49\n      jump\t// in\n    tag_48:\n    tag_47:\n        /* \"16_require_revert_assert.sol\":1050:1518  {... */\n      pop\n        /* \"16_require_revert_assert.sol\":1002:1518  function ownerWithdraw(uint256 amount) external {... */\n      pop\n      jump\t// out\n        /* \"16_require_revert_assert.sol\":1524:1631  function getContractBalance() external view returns (uint256) {... */\n    tag_18:\n        /* \"16_require_revert_assert.sol\":1577:1584  uint256 */\n      0x00\n        /* \"16_require_revert_assert.sol\":1603:1624  address(this).balance */\n      selfbalance\n        /* \"16_require_revert_assert.sol\":1596:1624  return address(this).balance */\n      swap1\n      pop\n        /* \"16_require_revert_assert.sol\":1524:1631  function getContractBalance() external view returns (uint256) {... */\n      swap1\n      jump\t// out\n        /* \"16_require_revert_assert.sol\":93:113  address public owner */\n    tag_23:\n      0x00\n      0x00\n      swap1\n      sload\n      swap1\n      0x0100\n      exp\n      swap1\n      div\n      0xffffffffffffffffffffffffffffffffffffffff\n      and\n      dup2\n      jump\t// out\n        /* \"16_require_revert_assert.sol\":375:520  function deposit() external payable {... */\n    tag_27:\n        /* \"16_require_revert_assert.sol\":441:442  0 */\n      0x00\n        /* \"16_require_revert_assert.sol\":429:438  msg.value */\n      callvalue\n        /* \"16_require_revert_assert.sol\":429:442  msg.value > 0 */\n      gt\n        /* \"16_require_revert_assert.sol\":421:470  require(msg.value > 0, \"deposit: value must > 0\") */\n      tag_52\n      jumpi\n      mload(0x40)\n      0x08c379a000000000000000000000000000000000000000000000000000000000\n      dup2\n      mstore\n      0x04\n      add\n      tag_53\n      swap1\n      tag_54\n      jump\t// in\n    tag_53:\n      mload(0x40)\n      dup1\n      swap2\n      sub\n      swap1\n      revert\n    tag_52:\n        /* \"16_require_revert_assert.sol\":504:513  msg.value */\n      callvalue\n        /* \"16_require_revert_assert.sol\":480:488  balances */\n      0x01\n        /* \"16_require_revert_assert.sol\":480:500  balances[msg.sender] */\n      0x00\n        /* \"16_require_revert_assert.sol\":489:499  msg.sender */\n      caller\n        /* \"16_require_revert_assert.sol\":480:500  balances[msg.sender] */\n      0xffffffffffffffffffffffffffffffffffffffff\n      and\n      0xffffffffffffffffffffffffffffffffffffffff\n      and\n      dup2\n      mstore\n      0x20\n      add\n      swap1\n      dup2\n      mstore\n      0x20\n      add\n      0x00\n      keccak256\n      0x00\n        /* \"16_require_revert_assert.sol\":480:513  balances[msg.sender] += msg.value */\n      dup3\n      dup3\n      sload\n      tag_55\n      swap2\n      swap1\n      tag_56\n      jump\t// in\n    tag_55:\n      swap3\n      pop\n      pop\n      dup2\n      swap1\n      sstore\n      pop\n        /* \"16_require_revert_assert.sol\":375:520  function deposit() external payable {... */\n      jump\t// out\n        /* \"#utility.yul\":88:205   */\n    tag_58:\n        /* \"#utility.yul\":197:198   */\n      0x00\n        /* \"#utility.yul\":194:195   */\n      0x00\n        /* \"#utility.yul\":187:199   */\n      revert\n        /* \"#utility.yul\":334:411   */\n    tag_60:\n        /* \"#utility.yul\":371:378   */\n      0x00\n        /* \"#utility.yul\":400:405   */\n      dup2\n        /* \"#utility.yul\":389:405   */\n      swap1\n      pop\n        /* \"#utility.yul\":334:411   */\n      swap2\n      swap1\n      pop\n      jump\t// out\n        /* \"#utility.yul\":417:539   */\n    tag_61:\n        /* \"#utility.yul\":490:514   */\n      tag_81\n        /* \"#utility.yul\":508:513   */\n      dup2\n        /* \"#utility.yul\":490:514   */\n      tag_60\n      jump\t// in\n    tag_81:\n        /* \"#utility.yul\":483:488   */\n      dup2\n        /* \"#utility.yul\":480:515   */\n      eq\n        /* \"#utility.yul\":470:533   */\n      tag_82\n      jumpi\n        /* \"#utility.yul\":529:530   */\n      0x00\n        /* \"#utility.yul\":526:527   */\n      0x00\n        /* \"#utility.yul\":519:531   */\n      revert\n        /* \"#utility.yul\":470:533   */\n    tag_82:\n        /* \"#utility.yul\":417:539   */\n      pop\n      jump\t// out\n        /* \"#utility.yul\":545:684   */\n    tag_62:\n        /* \"#utility.yul\":591:596   */\n      0x00\n        /* \"#utility.yul\":629:635   */\n      dup2\n        /* \"#utility.yul\":616:636   */\n      calldataload\n        /* \"#utility.yul\":607:636   */\n      swap1\n      pop\n        /* \"#utility.yul\":645:678   */\n      tag_84\n        /* \"#utility.yul\":672:677   */\n      dup2\n        /* \"#utility.yul\":645:678   */\n      tag_61\n      jump\t// in\n    tag_84:\n        /* \"#utility.yul\":545:684   */\n      swap3\n      swap2\n      pop\n      pop\n      jump\t// out\n        /* \"#utility.yul\":690:1019   */\n    tag_10:\n        /* \"#utility.yul\":749:755   */\n      0x00\n        /* \"#utility.yul\":798:800   */\n      0x20\n        /* \"#utility.yul\":786:795   */\n      dup3\n        /* \"#utility.yul\":777:784   */\n      dup5\n        /* \"#utility.yul\":773:796   */\n      sub\n        /* \"#utility.yul\":769:801   */\n      slt\n        /* \"#utility.yul\":766:885   */\n      iszero\n      tag_86\n      jumpi\n        /* \"#utility.yul\":804:883   */\n      tag_87\n      tag_58\n      jump\t// in\n    tag_87:\n        /* \"#utility.yul\":766:885   */\n    tag_86:\n        /* \"#utility.yul\":924:925   */\n      0x00\n        /* \"#utility.yul\":949:1002   */\n      tag_88\n        /* \"#utility.yul\":994:1001   */\n      dup5\n        /* \"#utility.yul\":985:991   */\n      dup3\n        /* \"#utility.yul\":974:983   */\n      dup6\n        /* \"#utility.yul\":970:992   */\n      add\n        /* \"#utility.yul\":949:1002   */\n      tag_62\n      jump\t// in\n    tag_88:\n        /* \"#utility.yul\":939:1002   */\n      swap2\n      pop\n        /* \"#utility.yul\":895:1012   */\n      pop\n        /* \"#utility.yul\":690:1019   */\n      swap3\n      swap2\n      pop\n      pop\n      jump\t// out\n        /* \"#utility.yul\":1025:1143   */\n    tag_63:\n        /* \"#utility.yul\":1112:1136   */\n      tag_90\n        /* \"#utility.yul\":1130:1135   */\n      dup2\n        /* \"#utility.yul\":1112:1136   */\n      tag_60\n      jump\t// in\n    tag_90:\n        /* \"#utility.yul\":1107:1110   */\n      dup3\n        /* \"#utility.yul\":1100:1137   */\n      mstore\n        /* \"#utility.yul\":1025:1143   */\n      pop\n      pop\n      jump\t// out\n        /* \"#utility.yul\":1149:1371   */\n    tag_20:\n        /* \"#utility.yul\":1242:1246   */\n      0x00\n        /* \"#utility.yul\":1280:1282   */\n      0x20\n        /* \"#utility.yul\":1269:1278   */\n      dup3\n        /* \"#utility.yul\":1265:1283   */\n      add\n        /* \"#utility.yul\":1257:1283   */\n      swap1\n      pop\n        /* \"#utility.yul\":1293:1364   */\n      tag_92\n        /* \"#utility.yul\":1361:1362   */\n      0x00\n        /* \"#utility.yul\":1350:1359   */\n      dup4\n        /* \"#utility.yul\":1346:1363   */\n      add\n        /* \"#utility.yul\":1337:1343   */\n      dup5\n        /* \"#utility.yul\":1293:1364   */\n      tag_63\n      jump\t// in\n    tag_92:\n        /* \"#utility.yul\":1149:1371   */\n      swap3\n      swap2\n      pop\n      pop\n      jump\t// out\n        /* \"#utility.yul\":1377:1503   */\n    tag_64:\n        /* \"#utility.yul\":1414:1421   */\n      0x00\n        /* \"#utility.yul\":1454:1496   */\n      0xffffffffffffffffffffffffffffffffffffffff\n        /* \"#utility.yul\":1447:1452   */\n      dup3\n        /* \"#utility.yul\":1443:1497   */\n      and\n        /* \"#utility.yul\":1432:1497   */\n      swap1\n      pop\n        /* \"#utility.yul\":1377:1503   */\n      swap2\n      swap1\n      pop\n      jump\t// out\n        /* \"#utility.yul\":1509:1605   */\n    tag_65:\n        /* \"#utility.yul\":1546:1553   */\n      0x00\n        /* \"#utility.yul\":1575:1599   */\n      tag_95\n        /* \"#utility.yul\":1593:1598   */\n      dup3\n        /* \"#utility.yul\":1575:1599   */\n      tag_64\n      jump\t// in\n    tag_95:\n        /* \"#utility.yul\":1564:1599   */\n      swap1\n      pop\n        /* \"#utility.yul\":1509:1605   */\n      swap2\n      swap1\n      pop\n      jump\t// out\n        /* \"#utility.yul\":1611:1729   */\n    tag_66:\n        /* \"#utility.yul\":1698:1722   */\n      tag_97\n        /* \"#utility.yul\":1716:1721   */\n      dup2\n        /* \"#utility.yul\":1698:1722   */\n      tag_65\n      jump\t// in\n    tag_97:\n        /* \"#utility.yul\":1693:1696   */\n      dup3\n        /* \"#utility.yul\":1686:1723   */\n      mstore\n        /* \"#utility.yul\":1611:1729   */\n      pop\n      pop\n      jump\t// out\n        /* \"#utility.yul\":1735:1957   */\n    tag_25:\n        /* \"#utility.yul\":1828:1832   */\n      0x00\n        /* \"#utility.yul\":1866:1868   */\n      0x20\n        /* \"#utility.yul\":1855:1864   */\n      dup3\n        /* \"#utility.yul\":1851:1869   */\n      add\n        /* \"#utility.yul\":1843:1869   */\n      swap1\n      pop\n        /* \"#utility.yul\":1879:1950   */\n      tag_99\n        /* \"#utility.yul\":1947:1948   */\n      0x00\n        /* \"#utility.yul\":1936:1945   */\n      dup4\n        /* \"#utility.yul\":1932:1949   */\n      add\n        /* \"#utility.yul\":1923:1929   */\n      dup5\n        /* \"#utility.yul\":1879:1950   */\n      tag_66\n      jump\t// in\n    tag_99:\n        /* \"#utility.yul\":1735:1957   */\n      swap3\n      swap2\n      pop\n      pop\n      jump\t// out\n        /* \"#utility.yul\":1963:2295   */\n    tag_32:\n        /* \"#utility.yul\":2084:2088   */\n      0x00\n        /* \"#utility.yul\":2122:2124   */\n      0x40\n        /* \"#utility.yul\":2111:2120   */\n      dup3\n        /* \"#utility.yul\":2107:2125   */\n      add\n        /* \"#utility.yul\":2099:2125   */\n      swap1\n      pop\n        /* \"#utility.yul\":2135:2206   */\n      tag_101\n        /* \"#utility.yul\":2203:2204   */\n      0x00\n        /* \"#utility.yul\":2192:2201   */\n      dup4\n        /* \"#utility.yul\":2188:2205   */\n      add\n        /* \"#utility.yul\":2179:2185   */\n      dup6\n        /* \"#utility.yul\":2135:2206   */\n      tag_63\n      jump\t// in\n    tag_101:\n        /* \"#utility.yul\":2216:2288   */\n      tag_102\n        /* \"#utility.yul\":2284:2286   */\n      0x20\n        /* \"#utility.yul\":2273:2282   */\n      dup4\n        /* \"#utility.yul\":2269:2287   */\n      add\n        /* \"#utility.yul\":2260:2266   */\n      dup5\n        /* \"#utility.yul\":2216:2288   */\n      tag_63\n      jump\t// in\n    tag_102:\n        /* \"#utility.yul\":1963:2295   */\n      swap4\n      swap3\n      pop\n      pop\n      pop\n      jump\t// out\n        /* \"#utility.yul\":2301:2481   */\n    tag_67:\n        /* \"#utility.yul\":2349:2426   */\n      0x4e487b7100000000000000000000000000000000000000000000000000000000\n        /* \"#utility.yul\":2346:2347   */\n      0x00\n        /* \"#utility.yul\":2339:2427   */\n      mstore\n        /* \"#utility.yul\":2446:2450   */\n      0x11\n        /* \"#utility.yul\":2443:2444   */\n      0x04\n        /* \"#utility.yul\":2436:2451   */\n      mstore\n        /* \"#utility.yul\":2470:2474   */\n      0x24\n        /* \"#utility.yul\":2467:2468   */\n      0x00\n        /* \"#utility.yul\":2460:2475   */\n      revert\n        /* \"#utility.yul\":2487:2681   */\n    tag_34:\n        /* \"#utility.yul\":2527:2531   */\n      0x00\n        /* \"#utility.yul\":2547:2567   */\n      tag_105\n        /* \"#utility.yul\":2565:2566   */\n      dup3\n        /* \"#utility.yul\":2547:2567   */\n      tag_60\n      jump\t// in\n    tag_105:\n        /* \"#utility.yul\":2542:2567   */\n      swap2\n      pop\n        /* \"#utility.yul\":2581:2601   */\n      tag_106\n        /* \"#utility.yul\":2599:2600   */\n      dup4\n        /* \"#utility.yul\":2581:2601   */\n      tag_60\n      jump\t// in\n    tag_106:\n        /* \"#utility.yul\":2576:2601   */\n      swap3\n      pop\n        /* \"#utility.yul\":2625:2626   */\n      dup3\n        /* \"#utility.yul\":2622:2623   */\n      dup3\n        /* \"#utility.yul\":2618:2627   */\n      sub\n        /* \"#utility.yul\":2610:2627   */\n      swap1\n      pop\n        /* \"#utility.yul\":2649:2650   */\n      dup2\n        /* \"#utility.yul\":2643:2647   */\n      dup2\n        /* \"#utility.yul\":2640:2651   */\n      gt\n        /* \"#utility.yul\":2637:2674   */\n      iszero\n      tag_107\n      jumpi\n        /* \"#utility.yul\":2654:2672   */\n      tag_108\n      tag_67\n      jump\t// in\n    tag_108:\n        /* \"#utility.yul\":2637:2674   */\n    tag_107:\n        /* \"#utility.yul\":2487:2681   */\n      swap3\n      swap2\n      pop\n      pop\n      jump\t// out\n        /* \"#utility.yul\":2687:2856   */\n    tag_68:\n        /* \"#utility.yul\":2771:2782   */\n      0x00\n        /* \"#utility.yul\":2805:2811   */\n      dup3\n        /* \"#utility.yul\":2800:2803   */\n      dup3\n        /* \"#utility.yul\":2793:2812   */\n      mstore\n        /* \"#utility.yul\":2845:2849   */\n      0x20\n        /* \"#utility.yul\":2840:2843   */\n      dup3\n        /* \"#utility.yul\":2836:2850   */\n      add\n        /* \"#utility.yul\":2821:2850   */\n      swap1\n      pop\n        /* \"#utility.yul\":2687:2856   */\n      swap3\n      swap2\n      pop\n      pop\n      jump\t// out\n        /* \"#utility.yul\":2862:3042   */\n    tag_69:\n        /* \"#utility.yul\":3002:3034   */\n      0x6f776e65723a206f6e6c79206f776e65722063616e2077697468647261770000\n        /* \"#utility.yul\":2998:2999   */\n      0x00\n        /* \"#utility.yul\":2990:2996   */\n      dup3\n        /* \"#utility.yul\":2986:3000   */\n      add\n        /* \"#utility.yul\":2979:3035   */\n      mstore\n        /* \"#utility.yul\":2862:3042   */\n      pop\n      jump\t// out\n        /* \"#utility.yul\":3048:3414   */\n    tag_70:\n        /* \"#utility.yul\":3190:3193   */\n      0x00\n        /* \"#utility.yul\":3211:3278   */\n      tag_112\n        /* \"#utility.yul\":3275:3277   */\n      0x1e\n        /* \"#utility.yul\":3270:3273   */\n      dup4\n        /* \"#utility.yul\":3211:3278   */\n      tag_68\n      jump\t// in\n    tag_112:\n        /* \"#utility.yul\":3204:3278   */\n      swap2\n      pop\n        /* \"#utility.yul\":3287:3380   */\n      tag_113\n        /* \"#utility.yul\":3376:3379   */\n      dup3\n        /* \"#utility.yul\":3287:3380   */\n      tag_69\n      jump\t// in\n    tag_113:\n        /* \"#utility.yul\":3405:3407   */\n      0x20\n        /* \"#utility.yul\":3400:3403   */\n      dup3\n        /* \"#utility.yul\":3396:3408   */\n      add\n        /* \"#utility.yul\":3389:3408   */\n      swap1\n      pop\n        /* \"#utility.yul\":3048:3414   */\n      swap2\n      swap1\n      pop\n      jump\t// out\n        /* \"#utility.yul\":3420:3839   */\n    tag_40:\n        /* \"#utility.yul\":3586:3590   */\n      0x00\n        /* \"#utility.yul\":3624:3626   */\n      0x20\n        /* \"#utility.yul\":3613:3622   */\n      dup3\n        /* \"#utility.yul\":3609:3627   */\n      add\n        /* \"#utility.yul\":3601:3627   */\n      swap1\n      pop\n        /* \"#utility.yul\":3673:3682   */\n      dup2\n        /* \"#utility.yul\":3667:3671   */\n      dup2\n        /* \"#utility.yul\":3663:3683   */\n      sub\n        /* \"#utility.yul\":3659:3660   */\n      0x00\n        /* \"#utility.yul\":3648:3657   */\n      dup4\n        /* \"#utility.yul\":3644:3661   */\n      add\n        /* \"#utility.yul\":3637:3684   */\n      mstore\n        /* \"#utility.yul\":3701:3832   */\n      tag_115\n        /* \"#utility.yul\":3827:3831   */\n      dup2\n        /* \"#utility.yul\":3701:3832   */\n      tag_70\n      jump\t// in\n    tag_115:\n        /* \"#utility.yul\":3693:3832   */\n      swap1\n      pop\n        /* \"#utility.yul\":3420:3839   */\n      swap2\n      swap1\n      pop\n      jump\t// out\n        /* \"#utility.yul\":3845:4024   */\n    tag_71:\n        /* \"#utility.yul\":3985:4016   */\n      0x496e73756666696369656e7420636f6e74726163742062616c616e6365000000\n        /* \"#utility.yul\":3981:3982   */\n      0x00\n        /* \"#utility.yul\":3973:3979   */\n      dup3\n        /* \"#utility.yul\":3969:3983   */\n      add\n        /* \"#utility.yul\":3962:4017   */\n      mstore\n        /* \"#utility.yul\":3845:4024   */\n      pop\n      jump\t// out\n        /* \"#utility.yul\":4030:4396   */\n    tag_72:\n        /* \"#utility.yul\":4172:4175   */\n      0x00\n        /* \"#utility.yul\":4193:4260   */\n      tag_118\n        /* \"#utility.yul\":4257:4259   */\n      0x1d\n        /* \"#utility.yul\":4252:4255   */\n      dup4\n        /* \"#utility.yul\":4193:4260   */\n      tag_68\n      jump\t// in\n    tag_118:\n        /* \"#utility.yul\":4186:4260   */\n      swap2\n      pop\n        /* \"#utility.yul\":4269:4362   */\n      tag_119\n        /* \"#utility.yul\":4358:4361   */\n      dup3\n        /* \"#utility.yul\":4269:4362   */\n      tag_71\n      jump\t// in\n    tag_119:\n        /* \"#utility.yul\":4387:4389   */\n      0x20\n        /* \"#utility.yul\":4382:4385   */\n      dup3\n        /* \"#utility.yul\":4378:4390   */\n      add\n        /* \"#utility.yul\":4371:4390   */\n      swap1\n      pop\n        /* \"#utility.yul\":4030:4396   */\n      swap2\n      swap1\n      pop\n      jump\t// out\n        /* \"#utility.yul\":4402:4821   */\n    tag_43:\n        /* \"#utility.yul\":4568:4572   */\n      0x00\n        /* \"#utility.yul\":4606:4608   */\n      0x20\n        /* \"#utility.yul\":4595:4604   */\n      dup3\n        /* \"#utility.yul\":4591:4609   */\n      add\n        /* \"#utility.yul\":4583:4609   */\n      swap1\n      pop\n        /* \"#utility.yul\":4655:4664   */\n      dup2\n        /* \"#utility.yul\":4649:4653   */\n      dup2\n        /* \"#utility.yul\":4645:4665   */\n      sub\n        /* \"#utility.yul\":4641:4642   */\n      0x00\n        /* \"#utility.yul\":4630:4639   */\n      dup4\n        /* \"#utility.yul\":4626:4643   */\n      add\n        /* \"#utility.yul\":4619:4666   */\n      mstore\n        /* \"#utility.yul\":4683:4814   */\n      tag_121\n        /* \"#utility.yul\":4809:4813   */\n      dup2\n        /* \"#utility.yul\":4683:4814   */\n      tag_72\n      jump\t// in\n    tag_121:\n        /* \"#utility.yul\":4675:4814   */\n      swap1\n      pop\n        /* \"#utility.yul\":4402:4821   */\n      swap2\n      swap1\n      pop\n      jump\t// out\n        /* \"#utility.yul\":4827:5007   */\n    tag_49:\n        /* \"#utility.yul\":4875:4952   */\n      0x4e487b7100000000000000000000000000000000000000000000000000000000\n        /* \"#utility.yul\":4872:4873   */\n      0x00\n        /* \"#utility.yul\":4865:4953   */\n      mstore\n        /* \"#utility.yul\":4972:4976   */\n      0x01\n        /* \"#utility.yul\":4969:4970   */\n      0x04\n        /* \"#utility.yul\":4962:4977   */\n      mstore\n        /* \"#utility.yul\":4996:5000   */\n      0x24\n        /* \"#utility.yul\":4993:4994   */\n      0x00\n        /* \"#utility.yul\":4986:5001   */\n      revert\n        /* \"#utility.yul\":5013:5186   */\n    tag_73:\n        /* \"#utility.yul\":5153:5178   */\n      0x6465706f7369743a2076616c7565206d757374203e2030000000000000000000\n        /* \"#utility.yul\":5149:5150   */\n      0x00\n        /* \"#utility.yul\":5141:5147   */\n      dup3\n        /* \"#utility.yul\":5137:5151   */\n      add\n        /* \"#utility.yul\":5130:5179   */\n      mstore\n        /* \"#utility.yul\":5013:5186   */\n      pop\n      jump\t// out\n        /* \"#utility.yul\":5192:5558   */\n    tag_74:\n        /* \"#utility.yul\":5334:5337   */\n      0x00\n        /* \"#utility.yul\":5355:5422   */\n      tag_125\n        /* \"#utility.yul\":5419:5421   */\n      0x17\n        /* \"#utility.yul\":5414:5417   */\n      dup4\n        /* \"#utility.yul\":5355:5422   */\n      tag_68\n      jump\t// in\n    tag_125:\n        /* \"#utility.yul\":5348:5422   */\n      swap2\n      pop\n        /* \"#utility.yul\":5431:5524   */\n      tag_126\n        /* \"#utility.yul\":5520:5523   */\n      dup3\n        /* \"#utility.yul\":5431:5524   */\n      tag_73\n      jump\t// in\n    tag_126:\n        /* \"#utility.yul\":5549:5551   */\n      0x20\n        /* \"#utility.yul\":5544:5547   */\n      dup3\n        /* \"#utility.yul\":5540:5552   */\n      add\n        /* \"#utility.yul\":5533:5552   */\n      swap1\n      pop\n        /* \"#utility.yul\":5192:5558   */\n      swap2\n      swap1\n      pop\n      jump\t// out\n        /* \"#utility.yul\":5564:5983   */\n    tag_54:\n        /* \"#utility.yul\":5730:5734   */\n      0x00\n        /* \"#utility.yul\":5768:5770   */\n      0x20\n        /* \"#utility.yul\":5757:5766   */\n      dup3\n        /* \"#utility.yul\":5753:5771   */\n      add\n        /* \"#utility.yul\":5745:5771   */\n      swap1\n      pop\n        /* \"#utility.yul\":5817:5826   */\n      dup2\n        /* \"#utility.yul\":5811:5815   */\n      dup2\n        /* \"#utility.yul\":5807:5827   */\n      sub\n        /* \"#utility.yul\":5803:5804   */\n      0x00\n        /* \"#utility.yul\":5792:5801   */\n      dup4\n        /* \"#utility.yul\":5788:5805   */\n      add\n        /* \"#utility.yul\":5781:5828   */\n      mstore\n        /* \"#utility.yul\":5845:5976   */\n      tag_128\n        /* \"#utility.yul\":5971:5975   */\n      dup2\n        /* \"#utility.yul\":5845:5976   */\n      tag_74\n      jump\t// in\n    tag_128:\n        /* \"#utility.yul\":5837:5976   */\n      swap1\n      pop\n        /* \"#utility.yul\":5564:5983   */\n      swap2\n      swap1\n      pop\n      jump\t// out\n        /* \"#utility.yul\":5989:6180   */\n    tag_56:\n        /* \"#utility.yul\":6029:6032   */\n      0x00\n        /* \"#utility.yul\":6048:6068   */\n      tag_130\n        /* \"#utility.yul\":6066:6067   */\n      dup3\n        /* \"#utility.yul\":6048:6068   */\n      tag_60\n      jump\t// in\n    tag_130:\n        /* \"#utility.yul\":6043:6068   */\n      swap2\n      pop\n        /* \"#utility.yul\":6082:6102   */\n      tag_131\n        /* \"#utility.yul\":6100:6101   */\n      dup4\n        /* \"#utility.yul\":6082:6102   */\n      tag_60\n      jump\t// in\n    tag_131:\n        /* \"#utility.yul\":6077:6102   */\n      swap3\n      pop\n        /* \"#utility.yul\":6125:6126   */\n      dup3\n        /* \"#utility.yul\":6122:6123   */\n      dup3\n        /* \"#utility.yul\":6118:6127   */\n      add\n        /* \"#utility.yul\":6111:6127   */\n      swap1\n      pop\n        /* \"#utility.yul\":6146:6149   */\n      dup1\n        /* \"#utility.yul\":6143:6144   */\n      dup3\n        /* \"#utility.yul\":6140:6150   */\n      gt\n        /* \"#utility.yul\":6137:6173   */\n      iszero\n      tag_132\n      jumpi\n        /* \"#utility.yul\":6153:6171   */\n      tag_133\n      tag_67\n      jump\t// in\n    tag_133:\n        /* \"#utility.yul\":6137:6173   */\n    tag_132:\n        /* \"#utility.yul\":5989:6180   */\n      swap3\n      swap2\n      pop\n      pop\n      jump\t// out\n\n    auxdata: 0xa2646970667358221220e04c4c7072675f95caac359e85f59a8e7b1a7995e967162b0b02c62de1f7585364736f6c634300081e0033\n}\n",
				"bytecode": {
					"linkReferences": {},
					"object": "6080604052348015600e575f5ffd5b50335f5f6101000a81548173ffffffffffffffffffffffffffffffffffffffff021916908373ffffffffffffffffffffffffffffffffffffffff1602179055506107c18061005b5f395ff3fe608060405260043610610049575f3560e01c80632e1a7d4d1461004d57806333f707d1146100755780636f9fb98a1461009d5780638da5cb5b146100c7578063d0e30db0146100f1575b5f5ffd5b348015610058575f5ffd5b50610073600480360381019061006e91906104b1565b6100fb565b005b348015610080575f5ffd5b5061009b600480360381019061009691906104b1565b610260565b005b3480156100a8575f5ffd5b506100b16103b8565b6040516100be91906104eb565b60405180910390f35b3480156100d2575f5ffd5b506100db6103bf565b6040516100e89190610543565b60405180910390f35b6100f96103e3565b005b5f811480610145575060015f3373ffffffffffffffffffffffffffffffffffffffff1673ffffffffffffffffffffffffffffffffffffffff1681526020019081526020015f205481115b156101c65760015f3373ffffffffffffffffffffffffffffffffffffffff1673ffffffffffffffffffffffffffffffffffffffff1681526020019081526020015f2054816040517f8b29af590000000000000000000000000000000000000000000000000000000081526004016101bd92919061055c565b60405180910390fd5b8060015f3373ffffffffffffffffffffffffffffffffffffffff1673ffffffffffffffffffffffffffffffffffffffff1681526020019081526020015f205f82825461021291906105b0565b925050819055503373ffffffffffffffffffffffffffffffffffffffff166108fc8290811502906040515f60405180830381858888f1935050505015801561025c573d5f5f3e3d5ffd5b5050565b5f5f9054906101000a900473ffffffffffffffffffffffffffffffffffffffff1673ffffffffffffffffffffffffffffffffffffffff163373ffffffffffffffffffffffffffffffffffffffff16146102ee576040517f08c379a00000000000000000000000000000000000000000000000000000000081526004016102e59061063d565b60405180910390fd5b47811115610331576040517f08c379a0000000000000000000000000000000000000000000000000000000008152600401610328906106a5565b60405180910390fd5b5f4790505f5f9054906101000a900473ffffffffffffffffffffffffffffffffffffffff1673ffffffffffffffffffffffffffffffffffffffff166108fc8390811502906040515f60405180830381858888f19350505050158015610398573d5f5f3e3d5ffd5b5081816103a591906105b0565b47146103b4576103b36106c3565b5b5050565b5f47905090565b5f5f9054906101000a900473ffffffffffffffffffffffffffffffffffffffff1681565b5f3411610425576040517f08c379a000000000000000000000000000000000000000000000000000000000815260040161041c9061073a565b60405180910390fd5b3460015f3373ffffffffffffffffffffffffffffffffffffffff1673ffffffffffffffffffffffffffffffffffffffff1681526020019081526020015f205f8282546104719190610758565b92505081905550565b5f5ffd5b5f819050919050565b6104908161047e565b811461049a575f5ffd5b50565b5f813590506104ab81610487565b92915050565b5f602082840312156104c6576104c561047a565b5b5f6104d38482850161049d565b91505092915050565b6104e58161047e565b82525050565b5f6020820190506104fe5f8301846104dc565b92915050565b5f73ffffffffffffffffffffffffffffffffffffffff82169050919050565b5f61052d82610504565b9050919050565b61053d81610523565b82525050565b5f6020820190506105565f830184610534565b92915050565b5f60408201905061056f5f8301856104dc565b61057c60208301846104dc565b9392505050565b7f4e487b71000000000000000000000000000000000000000000000000000000005f52601160045260245ffd5b5f6105ba8261047e565b91506105c58361047e565b92508282039050818111156105dd576105dc610583565b5b92915050565b5f82825260208201905092915050565b7f6f776e65723a206f6e6c79206f776e65722063616e20776974686472617700005f82015250565b5f610627601e836105e3565b9150610632826105f3565b602082019050919050565b5f6020820190508181035f8301526106548161061b565b9050919050565b7f496e73756666696369656e7420636f6e74726163742062616c616e63650000005f82015250565b5f61068f601d836105e3565b915061069a8261065b565b602082019050919050565b5f6020820190508181035f8301526106bc81610683565b9050919050565b7f4e487b71000000000000000000000000000000000000000000000000000000005f52600160045260245ffd5b7f6465706f7369743a2076616c7565206d757374203e20300000000000000000005f82015250565b5f6107246017836105e3565b915061072f826106f0565b602082019050919050565b5f6020820190508181035f83015261075181610718565b9050919050565b5f6107628261047e565b915061076d8361047e565b925082820190508082111561078557610784610583565b5b9291505056fea2646970667358221220e04c4c7072675f95caac359e85f59a8e7b1a7995e967162b0b02c62de1f7585364736f6c634300081e0033",
					"opcodes": "PUSH1 0x80 PUSH1 0x40 MSTORE CALLVALUE DUP1 ISZERO PUSH1 0xE JUMPI PUSH0 PUSH0 REVERT JUMPDEST POP CALLER PUSH0 PUSH0 PUSH2 0x100 EXP DUP2 SLOAD DUP2 PUSH20 0xFFFFFFFFFFFFFFFFFFFFFFFFFFFFFFFFFFFFFFFF MUL NOT AND SWAP1 DUP4 PUSH20 0xFFFFFFFFFFFFFFFFFFFFFFFFFFFFFFFFFFFFFFFF AND MUL OR SWAP1 SSTORE POP PUSH2 0x7C1 DUP1 PUSH2 0x5B PUSH0 CODECOPY PUSH0 RETURN INVALID PUSH1 0x80 PUSH1 0x40 MSTORE PUSH1 0x4 CALLDATASIZE LT PUSH2 0x49 JUMPI PUSH0 CALLDATALOAD PUSH1 0xE0 SHR DUP1 PUSH4 0x2E1A7D4D EQ PUSH2 0x4D JUMPI DUP1 PUSH4 0x33F707D1 EQ PUSH2 0x75 JUMPI DUP1 PUSH4 0x6F9FB98A EQ PUSH2 0x9D JUMPI DUP1 PUSH4 0x8DA5CB5B EQ PUSH2 0xC7 JUMPI DUP1 PUSH4 0xD0E30DB0 EQ PUSH2 0xF1 JUMPI JUMPDEST PUSH0 PUSH0 REVERT JUMPDEST CALLVALUE DUP1 ISZERO PUSH2 0x58 JUMPI PUSH0 PUSH0 REVERT JUMPDEST POP PUSH2 0x73 PUSH1 0x4 DUP1 CALLDATASIZE SUB DUP2 ADD SWAP1 PUSH2 0x6E SWAP2 SWAP1 PUSH2 0x4B1 JUMP JUMPDEST PUSH2 0xFB JUMP JUMPDEST STOP JUMPDEST CALLVALUE DUP1 ISZERO PUSH2 0x80 JUMPI PUSH0 PUSH0 REVERT JUMPDEST POP PUSH2 0x9B PUSH1 0x4 DUP1 CALLDATASIZE SUB DUP2 ADD SWAP1 PUSH2 0x96 SWAP2 SWAP1 PUSH2 0x4B1 JUMP JUMPDEST PUSH2 0x260 JUMP JUMPDEST STOP JUMPDEST CALLVALUE DUP1 ISZERO PUSH2 0xA8 JUMPI PUSH0 PUSH0 REVERT JUMPDEST POP PUSH2 0xB1 PUSH2 0x3B8 JUMP JUMPDEST PUSH1 0x40 MLOAD PUSH2 0xBE SWAP2 SWAP1 PUSH2 0x4EB JUMP JUMPDEST PUSH1 0x40 MLOAD DUP1 SWAP2 SUB SWAP1 RETURN JUMPDEST CALLVALUE DUP1 ISZERO PUSH2 0xD2 JUMPI PUSH0 PUSH0 REVERT JUMPDEST POP PUSH2 0xDB PUSH2 0x3BF JUMP JUMPDEST PUSH1 0x40 MLOAD PUSH2 0xE8 SWAP2 SWAP1 PUSH2 0x543 JUMP JUMPDEST PUSH1 0x40 MLOAD DUP1 SWAP2 SUB SWAP1 RETURN JUMPDEST PUSH2 0xF9 PUSH2 0x3E3 JUMP JUMPDEST STOP JUMPDEST PUSH0 DUP2 EQ DUP1 PUSH2 0x145 JUMPI POP PUSH1 0x1 PUSH0 CALLER PUSH20 0xFFFFFFFFFFFFFFFFFFFFFFFFFFFFFFFFFFFFFFFF AND PUSH20 0xFFFFFFFFFFFFFFFFFFFFFFFFFFFFFFFFFFFFFFFF AND DUP2 MSTORE PUSH1 0x20 ADD SWAP1 DUP2 MSTORE PUSH1 0x20 ADD PUSH0 KECCAK256 SLOAD DUP2 GT JUMPDEST ISZERO PUSH2 0x1C6 JUMPI PUSH1 0x1 PUSH0 CALLER PUSH20 0xFFFFFFFFFFFFFFFFFFFFFFFFFFFFFFFFFFFFFFFF AND PUSH20 0xFFFFFFFFFFFFFFFFFFFFFFFFFFFFFFFFFFFFFFFF AND DUP2 MSTORE PUSH1 0x20 ADD SWAP1 DUP2 MSTORE PUSH1 0x20 ADD PUSH0 KECCAK256 SLOAD DUP2 PUSH1 0x40 MLOAD PUSH32 0x8B29AF5900000000000000000000000000000000000000000000000000000000 DUP2 MSTORE PUSH1 0x4 ADD PUSH2 0x1BD SWAP3 SWAP2 SWAP1 PUSH2 0x55C JUMP JUMPDEST PUSH1 0x40 MLOAD DUP1 SWAP2 SUB SWAP1 REVERT JUMPDEST DUP1 PUSH1 0x1 PUSH0 CALLER PUSH20 0xFFFFFFFFFFFFFFFFFFFFFFFFFFFFFFFFFFFFFFFF AND PUSH20 0xFFFFFFFFFFFFFFFFFFFFFFFFFFFFFFFFFFFFFFFF AND DUP2 MSTORE PUSH1 0x20 ADD SWAP1 DUP2 MSTORE PUSH1 0x20 ADD PUSH0 KECCAK256 PUSH0 DUP3 DUP3 SLOAD PUSH2 0x212 SWAP2 SWAP1 PUSH2 0x5B0 JUMP JUMPDEST SWAP3 POP POP DUP2 SWAP1 SSTORE POP CALLER PUSH20 0xFFFFFFFFFFFFFFFFFFFFFFFFFFFFFFFFFFFFFFFF AND PUSH2 0x8FC DUP3 SWAP1 DUP2 ISZERO MUL SWAP1 PUSH1 0x40 MLOAD PUSH0 PUSH1 0x40 MLOAD DUP1 DUP4 SUB DUP2 DUP6 DUP9 DUP9 CALL SWAP4 POP POP POP POP ISZERO DUP1 ISZERO PUSH2 0x25C JUMPI RETURNDATASIZE PUSH0 PUSH0 RETURNDATACOPY RETURNDATASIZE PUSH0 REVERT JUMPDEST POP POP JUMP JUMPDEST PUSH0 PUSH0 SWAP1 SLOAD SWAP1 PUSH2 0x100 EXP SWAP1 DIV PUSH20 0xFFFFFFFFFFFFFFFFFFFFFFFFFFFFFFFFFFFFFFFF AND PUSH20 0xFFFFFFFFFFFFFFFFFFFFFFFFFFFFFFFFFFFFFFFF AND CALLER PUSH20 0xFFFFFFFFFFFFFFFFFFFFFFFFFFFFFFFFFFFFFFFF AND EQ PUSH2 0x2EE JUMPI PUSH1 0x40 MLOAD PUSH32 0x8C379A000000000000000000000000000000000000000000000000000000000 DUP2 MSTORE PUSH1 0x4 ADD PUSH2 0x2E5 SWAP1 PUSH2 0x63D JUMP JUMPDEST PUSH1 0x40 MLOAD DUP1 SWAP2 SUB SWAP1 REVERT JUMPDEST SELFBALANCE DUP2 GT ISZERO PUSH2 0x331 JUMPI PUSH1 0x40 MLOAD PUSH32 0x8C379A000000000000000000000000000000000000000000000000000000000 DUP2 MSTORE PUSH1 0x4 ADD PUSH2 0x328 SWAP1 PUSH2 0x6A5 JUMP JUMPDEST PUSH1 0x40 MLOAD DUP1 SWAP2 SUB SWAP1 REVERT JUMPDEST PUSH0 SELFBALANCE SWAP1 POP PUSH0 PUSH0 SWAP1 SLOAD SWAP1 PUSH2 0x100 EXP SWAP1 DIV PUSH20 0xFFFFFFFFFFFFFFFFFFFFFFFFFFFFFFFFFFFFFFFF AND PUSH20 0xFFFFFFFFFFFFFFFFFFFFFFFFFFFFFFFFFFFFFFFF AND PUSH2 0x8FC DUP4 SWAP1 DUP2 ISZERO MUL SWAP1 PUSH1 0x40 MLOAD PUSH0 PUSH1 0x40 MLOAD DUP1 DUP4 SUB DUP2 DUP6 DUP9 DUP9 CALL SWAP4 POP POP POP POP ISZERO DUP1 ISZERO PUSH2 0x398 JUMPI RETURNDATASIZE PUSH0 PUSH0 RETURNDATACOPY RETURNDATASIZE PUSH0 REVERT JUMPDEST POP DUP2 DUP2 PUSH2 0x3A5 SWAP2 SWAP1 PUSH2 0x5B0 JUMP JUMPDEST SELFBALANCE EQ PUSH2 0x3B4 JUMPI PUSH2 0x3B3 PUSH2 0x6C3 JUMP JUMPDEST JUMPDEST POP POP JUMP JUMPDEST PUSH0 SELFBALANCE SWAP1 POP SWAP1 JUMP JUMPDEST PUSH0 PUSH0 SWAP1 SLOAD SWAP1 PUSH2 0x100 EXP SWAP1 DIV PUSH20 0xFFFFFFFFFFFFFFFFFFFFFFFFFFFFFFFFFFFFFFFF AND DUP2 JUMP JUMPDEST PUSH0 CALLVALUE GT PUSH2 0x425 JUMPI PUSH1 0x40 MLOAD PUSH32 0x8C379A000000000000000000000000000000000000000000000000000000000 DUP2 MSTORE PUSH1 0x4 ADD PUSH2 0x41C SWAP1 PUSH2 0x73A JUMP JUMPDEST PUSH1 0x40 MLOAD DUP1 SWAP2 SUB SWAP1 REVERT JUMPDEST CALLVALUE PUSH1 0x1 PUSH0 CALLER PUSH20 0xFFFFFFFFFFFFFFFFFFFFFFFFFFFFFFFFFFFFFFFF AND PUSH20 0xFFFFFFFFFFFFFFFFFFFFFFFFFFFFFFFFFFFFFFFF AND DUP2 MSTORE PUSH1 0x20 ADD SWAP1 DUP2 MSTORE PUSH1 0x20 ADD PUSH0 KECCAK256 PUSH0 DUP3 DUP3 SLOAD PUSH2 0x471 SWAP2 SWAP1 PUSH2 0x758 JUMP JUMPDEST SWAP3 POP POP DUP2 SWAP1 SSTORE POP JUMP JUMPDEST PUSH0 PUSH0 REVERT JUMPDEST PUSH0 DUP2 SWAP1 POP SWAP2 SWAP1 POP JUMP JUMPDEST PUSH2 0x490 DUP2 PUSH2 0x47E JUMP JUMPDEST DUP2 EQ PUSH2 0x49A JUMPI PUSH0 PUSH0 REVERT JUMPDEST POP JUMP JUMPDEST PUSH0 DUP2 CALLDATALOAD SWAP1 POP PUSH2 0x4AB DUP2 PUSH2 0x487 JUMP JUMPDEST SWAP3 SWAP2 POP POP JUMP JUMPDEST PUSH0 PUSH1 0x20 DUP3 DUP5 SUB SLT ISZERO PUSH2 0x4C6 JUMPI PUSH2 0x4C5 PUSH2 0x47A JUMP JUMPDEST JUMPDEST PUSH0 PUSH2 0x4D3 DUP5 DUP3 DUP6 ADD PUSH2 0x49D JUMP JUMPDEST SWAP2 POP POP SWAP3 SWAP2 POP POP JUMP JUMPDEST PUSH2 0x4E5 DUP2 PUSH2 0x47E JUMP JUMPDEST DUP3 MSTORE POP POP JUMP JUMPDEST PUSH0 PUSH1 0x20 DUP3 ADD SWAP1 POP PUSH2 0x4FE PUSH0 DUP4 ADD DUP5 PUSH2 0x4DC JUMP JUMPDEST SWAP3 SWAP2 POP POP JUMP JUMPDEST PUSH0 PUSH20 0xFFFFFFFFFFFFFFFFFFFFFFFFFFFFFFFFFFFFFFFF DUP3 AND SWAP1 POP SWAP2 SWAP1 POP JUMP JUMPDEST PUSH0 PUSH2 0x52D DUP3 PUSH2 0x504 JUMP JUMPDEST SWAP1 POP SWAP2 SWAP1 POP JUMP JUMPDEST PUSH2 0x53D DUP2 PUSH2 0x523 JUMP JUMPDEST DUP3 MSTORE POP POP JUMP JUMPDEST PUSH0 PUSH1 0x20 DUP3 ADD SWAP1 POP PUSH2 0x556 PUSH0 DUP4 ADD DUP5 PUSH2 0x534 JUMP JUMPDEST SWAP3 SWAP2 POP POP JUMP JUMPDEST PUSH0 PUSH1 0x40 DUP3 ADD SWAP1 POP PUSH2 0x56F PUSH0 DUP4 ADD DUP6 PUSH2 0x4DC JUMP JUMPDEST PUSH2 0x57C PUSH1 0x20 DUP4 ADD DUP5 PUSH2 0x4DC JUMP JUMPDEST SWAP4 SWAP3 POP POP POP JUMP JUMPDEST PUSH32 0x4E487B7100000000000000000000000000000000000000000000000000000000 PUSH0 MSTORE PUSH1 0x11 PUSH1 0x4 MSTORE PUSH1 0x24 PUSH0 REVERT JUMPDEST PUSH0 PUSH2 0x5BA DUP3 PUSH2 0x47E JUMP JUMPDEST SWAP2 POP PUSH2 0x5C5 DUP4 PUSH2 0x47E JUMP JUMPDEST SWAP3 POP DUP3 DUP3 SUB SWAP1 POP DUP2 DUP2 GT ISZERO PUSH2 0x5DD JUMPI PUSH2 0x5DC PUSH2 0x583 JUMP JUMPDEST JUMPDEST SWAP3 SWAP2 POP POP JUMP JUMPDEST PUSH0 DUP3 DUP3 MSTORE PUSH1 0x20 DUP3 ADD SWAP1 POP SWAP3 SWAP2 POP POP JUMP JUMPDEST PUSH32 0x6F776E65723A206F6E6C79206F776E65722063616E2077697468647261770000 PUSH0 DUP3 ADD MSTORE POP JUMP JUMPDEST PUSH0 PUSH2 0x627 PUSH1 0x1E DUP4 PUSH2 0x5E3 JUMP JUMPDEST SWAP2 POP PUSH2 0x632 DUP3 PUSH2 0x5F3 JUMP JUMPDEST PUSH1 0x20 DUP3 ADD SWAP1 POP SWAP2 SWAP1 POP JUMP JUMPDEST PUSH0 PUSH1 0x20 DUP3 ADD SWAP1 POP DUP2 DUP2 SUB PUSH0 DUP4 ADD MSTORE PUSH2 0x654 DUP2 PUSH2 0x61B JUMP JUMPDEST SWAP1 POP SWAP2 SWAP1 POP JUMP JUMPDEST PUSH32 0x496E73756666696369656E7420636F6E74726163742062616C616E6365000000 PUSH0 DUP3 ADD MSTORE POP JUMP JUMPDEST PUSH0 PUSH2 0x68F PUSH1 0x1D DUP4 PUSH2 0x5E3 JUMP JUMPDEST SWAP2 POP PUSH2 0x69A DUP3 PUSH2 0x65B JUMP JUMPDEST PUSH1 0x20 DUP3 ADD SWAP1 POP SWAP2 SWAP1 POP JUMP JUMPDEST PUSH0 PUSH1 0x20 DUP3 ADD SWAP1 POP DUP2 DUP2 SUB PUSH0 DUP4 ADD MSTORE PUSH2 0x6BC DUP2 PUSH2 0x683 JUMP JUMPDEST SWAP1 POP SWAP2 SWAP1 POP JUMP JUMPDEST PUSH32 0x4E487B7100000000000000000000000000000000000000000000000000000000 PUSH0 MSTORE PUSH1 0x1 PUSH1 0x4 MSTORE PUSH1 0x24 PUSH0 REVERT JUMPDEST PUSH32 0x6465706F7369743A2076616C7565206D757374203E2030000000000000000000 PUSH0 DUP3 ADD MSTORE POP JUMP JUMPDEST PUSH0 PUSH2 0x724 PUSH1 0x17 DUP4 PUSH2 0x5E3 JUMP JUMPDEST SWAP2 POP PUSH2 0x72F DUP3 PUSH2 0x6F0 JUMP JUMPDEST PUSH1 0x20 DUP3 ADD SWAP1 POP SWAP2 SWAP1 POP JUMP JUMPDEST PUSH0 PUSH1 0x20 DUP3 ADD SWAP1 POP DUP2 DUP2 SUB PUSH0 DUP4 ADD MSTORE PUSH2 0x751 DUP2 PUSH2 0x718 JUMP JUMPDEST SWAP1 POP SWAP2 SWAP1 POP JUMP JUMPDEST PUSH0 PUSH2 0x762 DUP3 PUSH2 0x47E JUMP JUMPDEST SWAP2 POP PUSH2 0x76D DUP4 PUSH2 0x47E JUMP JUMPDEST SWAP3 POP DUP3 DUP3 ADD SWAP1 POP DUP1 DUP3 GT ISZERO PUSH2 0x785 JUMPI PUSH2 0x784 PUSH2 0x583 JUMP JUMPDEST JUMPDEST SWAP3 SWAP2 POP POP JUMP INVALID LOG2 PUSH5 0x6970667358 0x22 SLT KECCAK256 RJUMP 0x4C4C PUSH17 0x72675F95CAAC359E85F59A8E7B1A7995E9 PUSH8 0x162B0B02C62DE1F7 PC MSTORE8 PUSH5 0x736F6C6343 STOP ADDMOD 0x1E STOP CALLER "
				},
				"gasEstimates": {
					"creation": {
						"codeDepositCost": "397000",
						"executionCost": "24698",
						"totalCost": "421698"
					},
					"external": {
						"deposit()": "infinite",
						"getContractBalance()": "356",
						"owner()": "2551",
						"ownerWithdraw(uint256)": "infinite",
						"withdraw(uint256)": "infinite"
					}
				},
				"methodIdentifiers": {
					"deposit()": "d0e30db0",
					"getContractBalance()": "6f9fb98a",
					"owner()": "8da5cb5b",
					"ownerWithdraw(uint256)": "33f707d1",
					"withdraw(uint256)": "2e1a7d4d"
				}
			},
			"storageLayout": {
				"storage": [
					{
						"astId": 3,
						"contract": "16_require_revert_assert.sol:RequireRevertAssert",
						"label": "owner",
						"offset": 0,
						"slot": "0",
						"type": "t_address"
					},
					{
						"astId": 7,
						"contract": "16_require_revert_assert.sol:RequireRevertAssert",
						"label": "balances",
						"offset": 0,
						"slot": "1",
						"type": "t_mapping(t_address,t_uint256)"
					}
				],
				"types": {
					"t_address": {
						"encoding": "inplace",
						"label": "address",
						"numberOfBytes": "20"
					},
					"t_mapping(t_address,t_uint256)": {
						"encoding": "mapping",
						"key": "t_address",
						"label": "mapping(address => uint256)",
						"numberOfBytes": "32",
						"value": "t_uint256"
					},
					"t_uint256": {
						"encoding": "inplace",
						"label": "uint256",
						"numberOfBytes": "32"
					}
				}
			},
			"userdoc": {
				"kind": "user",
				"methods": {},
				"version": 1
			}
		}
	}
}