{
	"06_mapping.sol": {
		"MultiMapping": {
			"abi": [
				{
					"inputs": [
						{
							"internalType": "address",
							"name": "addr",
							"type": "address"
						},
						{
							"internalType": "string",
							"name": "currency",
							"type": "string"
						}
					],
					"name": "deleteUserBalance",
					"outputs": [],
					"stateMutability": "nonpayable",
					"type": "function"
				},
				{
					"inputs": [
						{
							"internalType": "address",
							"name": "user",
							"type": "address"
						},
						{
							"internalType": "string",
							"name": "currency",
							"type": "string"
						}
					],
					"name": "getUserBalance",
					"outputs": [
						{
							"internalType": "uint256",
							"name": "",
							"type": "uint256"
						}
					],
					"stateMutability": "view",
					"type": "function"
				},
				{
					"inputs": [
						{
							"internalType": "address",
							"name": "addr",
							"type": "address"
						},
						{
							"internalType": "string",
							"name": "currency",
							"type": "string"
						},
						{
							"internalType": "uint256",
							"name": "amount",
							"type": "uint256"
						}
					],
					"name": "setUserBalance",
					"outputs": [],
					"stateMutability": "nonpayable",
					"type": "function"
				},
				{
					"inputs": [
						{
							"internalType": "address",
							"name": "",
							"type": "address"
						},
						{
							"internalType": "string",
							"name": "",
							"type": "string"
						}
					],
					"name": "userBalance",
					"outputs": [
						{
							"internalType": "uint256",
							"name": "",
							"type": "uint256"
						}
					],
					"stateMutability": "view",
					"type": "function"
				}
			],
			"devdoc": {
				"kind": "dev",
				"methods": {},
				"version": 1
			},
			"evm": {
				"assembly": "    /* \"06_mapping.sol\":366:881  contract MultiMapping {... */\n  mstore(0x40, 0x80)\n  callvalue\n  dup1\n  iszero\n  tag_1\n  jumpi\n  revert(0x00, 0x00)\ntag_1:\n  pop\n  dataSize(sub_0)\n  dup1\n  dataOffset(sub_0)\n  0x00\n  codecopy\n  0x00\n  return\nstop\n\nsub_0: assembly {\n        /* \"06_mapping.sol\":366:881  contract MultiMapping {... */\n      mstore(0x40, 0x80)\n      callvalue\n      dup1\n      iszero\n      tag_1\n      jumpi\n      revert(0x00, 0x00)\n    tag_1:\n      pop\n      jumpi(tag_2, lt(calldatasize, 0x04))\n      shr(0xe0, calldataload(0x00))\n      dup1\n      0x3226bc49\n      eq\n      tag_3\n      jumpi\n      dup1\n      0xbf129290\n      eq\n      tag_4\n      jumpi\n      dup1\n      0xd59d65c1\n      eq\n      tag_5\n      jumpi\n      dup1\n      0xe8827cec\n      eq\n      tag_6\n      jumpi\n    tag_2:\n      revert(0x00, 0x00)\n        /* \"06_mapping.sol\":394:461  mapping (address => mapping (string => uint256)) public userBalance */\n    tag_3:\n      tag_7\n      0x04\n      dup1\n      calldatasize\n      sub\n      dup2\n      add\n      swap1\n      tag_8\n      swap2\n      swap1\n      tag_9\n      jump\t// in\n    tag_8:\n      tag_10\n      jump\t// in\n    tag_7:\n      mload(0x40)\n      tag_11\n      swap2\n      swap1\n      tag_12\n      jump\t// in\n    tag_11:\n      mload(0x40)\n      dup1\n      swap2\n      sub\n      swap1\n      return\n        /* \"06_mapping.sol\":468:602  function setUserBalance(address addr,string memory currency, uint amount) public {... */\n    tag_4:\n      tag_13\n      0x04\n      dup1\n      calldatasize\n      sub\n      dup2\n      add\n      swap1\n      tag_14\n      swap2\n      swap1\n      tag_15\n      jump\t// in\n    tag_14:\n      tag_16\n      jump\t// in\n    tag_13:\n      stop\n        /* \"06_mapping.sol\":756:879  function deleteUserBalance(address addr, string memory currency) public {... */\n    tag_5:\n      tag_17\n      0x04\n      dup1\n      calldatasize\n      sub\n      dup2\n      add\n      swap1\n      tag_18\n      swap2\n      swap1\n      tag_9\n      jump\t// in\n    tag_18:\n      tag_19\n      jump\t// in\n    tag_17:\n      stop\n        /* \"06_mapping.sol\":607:750  function getUserBalance(address user, string memory currency) public view returns (uint256) {... */\n    tag_6:\n      tag_20\n      0x04\n      dup1\n      calldatasize\n      sub\n      dup2\n      add\n      swap1\n      tag_21\n      swap2\n      swap1\n      tag_9\n      jump\t// in\n    tag_21:\n      tag_22\n      jump\t// in\n    tag_20:\n      mload(0x40)\n      tag_23\n      swap2\n      swap1\n      tag_12\n      jump\t// in\n    tag_23:\n      mload(0x40)\n      dup1\n      swap2\n      sub\n      swap1\n      return\n        /* \"06_mapping.sol\":394:461  mapping (address => mapping (string => uint256)) public userBalance */\n    tag_10:\n      mstore(0x20, 0x00)\n      dup2\n      0x00\n      mstore\n      keccak256(0x00, 0x40)\n      dup2\n      dup1\n      mload\n      0x20\n      dup2\n      add\n      dup3\n      add\n      dup1\n      mload\n      dup5\n      dup3\n      mstore\n      0x20\n      dup4\n      add\n      0x20\n      dup6\n      add\n      keccak256\n      dup2\n      dup4\n      mstore\n      dup1\n      swap6\n      pop\n      pop\n      pop\n      pop\n      pop\n      pop\n      0x00\n      swap2\n      pop\n      swap2\n      pop\n      pop\n      sload\n      dup2\n      jump\t// out\n        /* \"06_mapping.sol\":468:602  function setUserBalance(address addr,string memory currency, uint amount) public {... */\n    tag_16:\n        /* \"06_mapping.sol\":589:595  amount */\n      dup1\n        /* \"06_mapping.sol\":559:570  userBalance */\n      0x00\n        /* \"06_mapping.sol\":559:576  userBalance[addr] */\n      0x00\n        /* \"06_mapping.sol\":571:575  addr */\n      dup6\n        /* \"06_mapping.sol\":559:576  userBalance[addr] */\n      0xffffffffffffffffffffffffffffffffffffffff\n      and\n      0xffffffffffffffffffffffffffffffffffffffff\n      and\n      dup2\n      mstore\n      0x20\n      add\n      swap1\n      dup2\n      mstore\n      0x20\n      add\n      0x00\n      keccak256\n        /* \"06_mapping.sol\":577:585  currency */\n      dup4\n        /* \"06_mapping.sol\":559:586  userBalance[addr][currency] */\n      mload(0x40)\n      tag_25\n      swap2\n      swap1\n      tag_26\n      jump\t// in\n    tag_25:\n      swap1\n      dup2\n      mstore\n      0x20\n      add\n      mload(0x40)\n      dup1\n      swap2\n      sub\n      swap1\n      keccak256\n        /* \"06_mapping.sol\":559:595  userBalance[addr][currency] = amount */\n      dup2\n      swap1\n      sstore\n      pop\n        /* \"06_mapping.sol\":468:602  function setUserBalance(address addr,string memory currency, uint amount) public {... */\n      pop\n      pop\n      pop\n      jump\t// out\n        /* \"06_mapping.sol\":756:879  function deleteUserBalance(address addr, string memory currency) public {... */\n    tag_19:\n        /* \"06_mapping.sol\":845:856  userBalance */\n      0x00\n        /* \"06_mapping.sol\":845:862  userBalance[addr] */\n      0x00\n        /* \"06_mapping.sol\":857:861  addr */\n      dup4\n        /* \"06_mapping.sol\":845:862  userBalance[addr] */\n      0xffffffffffffffffffffffffffffffffffffffff\n      and\n      0xffffffffffffffffffffffffffffffffffffffff\n      and\n      dup2\n      mstore\n      0x20\n      add\n      swap1\n      dup2\n      mstore\n      0x20\n      add\n      0x00\n      keccak256\n        /* \"06_mapping.sol\":863:871  currency */\n      dup2\n        /* \"06_mapping.sol\":845:872  userBalance[addr][currency] */\n      mload(0x40)\n      tag_28\n      swap2\n      swap1\n      tag_26\n      jump\t// in\n    tag_28:\n      swap1\n      dup2\n      mstore\n      0x20\n      add\n      mload(0x40)\n      dup1\n      swap2\n      sub\n      swap1\n      keccak256\n        /* \"06_mapping.sol\":838:872  delete userBalance[addr][currency] */\n      0x00\n      swap1\n      sstore\n        /* \"06_mapping.sol\":756:879  function deleteUserBalance(address addr, string memory currency) public {... */\n      pop\n      pop\n      jump\t// out\n        /* \"06_mapping.sol\":607:750  function getUserBalance(address user, string memory currency) public view returns (uint256) {... */\n    tag_22:\n        /* \"06_mapping.sol\":690:697  uint256 */\n      0x00\n        /* \"06_mapping.sol\":716:727  userBalance */\n      0x00\n        /* \"06_mapping.sol\":716:733  userBalance[user] */\n      0x00\n        /* \"06_mapping.sol\":728:732  user */\n      dup5\n        /* \"06_mapping.sol\":716:733  userBalance[user] */\n      0xffffffffffffffffffffffffffffffffffffffff\n      and\n      0xffffffffffffffffffffffffffffffffffffffff\n      and\n      dup2\n      mstore\n      0x20\n      add\n      swap1\n      dup2\n      mstore\n      0x20\n      add\n      0x00\n      keccak256\n        /* \"06_mapping.sol\":734:742  currency */\n      dup3\n        /* \"06_mapping.sol\":716:743  userBalance[user][currency] */\n      mload(0x40)\n      tag_30\n      swap2\n      swap1\n      tag_26\n      jump\t// in\n    tag_30:\n      swap1\n      dup2\n      mstore\n      0x20\n      add\n      mload(0x40)\n      dup1\n      swap2\n      sub\n      swap1\n      keccak256\n      sload\n        /* \"06_mapping.sol\":709:743  return userBalance[user][currency] */\n      swap1\n      pop\n        /* \"06_mapping.sol\":607:750  function getUserBalance(address user, string memory currency) public view returns (uint256) {... */\n      swap3\n      swap2\n      pop\n      pop\n      jump\t// out\n        /* \"#utility.yul\":7:82   */\n    tag_31:\n        /* \"#utility.yul\":40:46   */\n      0x00\n        /* \"#utility.yul\":73:75   */\n      0x40\n        /* \"#utility.yul\":67:76   */\n      mload\n        /* \"#utility.yul\":57:76   */\n      swap1\n      pop\n        /* \"#utility.yul\":7:82   */\n      swap1\n      jump\t// out\n        /* \"#utility.yul\":88:205   */\n    tag_32:\n        /* \"#utility.yul\":197:198   */\n      0x00\n        /* \"#utility.yul\":194:195   */\n      0x00\n        /* \"#utility.yul\":187:199   */\n      revert\n        /* \"#utility.yul\":211:328   */\n    tag_33:\n        /* \"#utility.yul\":320:321   */\n      0x00\n        /* \"#utility.yul\":317:318   */\n      0x00\n        /* \"#utility.yul\":310:322   */\n      revert\n        /* \"#utility.yul\":334:460   */\n    tag_34:\n        /* \"#utility.yul\":371:378   */\n      0x00\n        /* \"#utility.yul\":411:453   */\n      0xffffffffffffffffffffffffffffffffffffffff\n        /* \"#utility.yul\":404:409   */\n      dup3\n        /* \"#utility.yul\":400:454   */\n      and\n        /* \"#utility.yul\":389:454   */\n      swap1\n      pop\n        /* \"#utility.yul\":334:460   */\n      swap2\n      swap1\n      pop\n      jump\t// out\n        /* \"#utility.yul\":466:562   */\n    tag_35:\n        /* \"#utility.yul\":503:510   */\n      0x00\n        /* \"#utility.yul\":532:556   */\n      tag_62\n        /* \"#utility.yul\":550:555   */\n      dup3\n        /* \"#utility.yul\":532:556   */\n      tag_34\n      jump\t// in\n    tag_62:\n        /* \"#utility.yul\":521:556   */\n      swap1\n      pop\n        /* \"#utility.yul\":466:562   */\n      swap2\n      swap1\n      pop\n      jump\t// out\n        /* \"#utility.yul\":568:690   */\n    tag_36:\n        /* \"#utility.yul\":641:665   */\n      tag_64\n        /* \"#utility.yul\":659:664   */\n      dup2\n        /* \"#utility.yul\":641:665   */\n      tag_35\n      jump\t// in\n    tag_64:\n        /* \"#utility.yul\":634:639   */\n      dup2\n        /* \"#utility.yul\":631:666   */\n      eq\n        /* \"#utility.yul\":621:684   */\n      tag_65\n      jumpi\n        /* \"#utility.yul\":680:681   */\n      0x00\n        /* \"#utility.yul\":677:678   */\n      0x00\n        /* \"#utility.yul\":670:682   */\n      revert\n        /* \"#utility.yul\":621:684   */\n    tag_65:\n        /* \"#utility.yul\":568:690   */\n      pop\n      jump\t// out\n        /* \"#utility.yul\":696:835   */\n    tag_37:\n        /* \"#utility.yul\":742:747   */\n      0x00\n        /* \"#utility.yul\":780:786   */\n      dup2\n        /* \"#utility.yul\":767:787   */\n      calldataload\n        /* \"#utility.yul\":758:787   */\n      swap1\n      pop\n        /* \"#utility.yul\":796:829   */\n      tag_67\n        /* \"#utility.yul\":823:828   */\n      dup2\n        /* \"#utility.yul\":796:829   */\n      tag_36\n      jump\t// in\n    tag_67:\n        /* \"#utility.yul\":696:835   */\n      swap3\n      swap2\n      pop\n      pop\n      jump\t// out\n        /* \"#utility.yul\":841:958   */\n    tag_38:\n        /* \"#utility.yul\":950:951   */\n      0x00\n        /* \"#utility.yul\":947:948   */\n      0x00\n        /* \"#utility.yul\":940:952   */\n      revert\n        /* \"#utility.yul\":964:1081   */\n    tag_39:\n        /* \"#utility.yul\":1073:1074   */\n      0x00\n        /* \"#utility.yul\":1070:1071   */\n      0x00\n        /* \"#utility.yul\":1063:1075   */\n      revert\n        /* \"#utility.yul\":1087:1189   */\n    tag_40:\n        /* \"#utility.yul\":1128:1134   */\n      0x00\n        /* \"#utility.yul\":1179:1181   */\n      0x1f\n        /* \"#utility.yul\":1175:1182   */\n      not\n        /* \"#utility.yul\":1170:1172   */\n      0x1f\n        /* \"#utility.yul\":1163:1168   */\n      dup4\n        /* \"#utility.yul\":1159:1173   */\n      add\n        /* \"#utility.yul\":1155:1183   */\n      and\n        /* \"#utility.yul\":1145:1183   */\n      swap1\n      pop\n        /* \"#utility.yul\":1087:1189   */\n      swap2\n      swap1\n      pop\n      jump\t// out\n        /* \"#utility.yul\":1195:1375   */\n    tag_41:\n        /* \"#utility.yul\":1243:1320   */\n      0x4e487b7100000000000000000000000000000000000000000000000000000000\n        /* \"#utility.yul\":1240:1241   */\n      0x00\n        /* \"#utility.yul\":1233:1321   */\n      mstore\n        /* \"#utility.yul\":1340:1344   */\n      0x41\n        /* \"#utility.yul\":1337:1338   */\n      0x04\n        /* \"#utility.yul\":1330:1345   */\n      mstore\n        /* \"#utility.yul\":1364:1368   */\n      0x24\n        /* \"#utility.yul\":1361:1362   */\n      0x00\n        /* \"#utility.yul\":1354:1369   */\n      revert\n        /* \"#utility.yul\":1381:1662   */\n    tag_42:\n        /* \"#utility.yul\":1464:1491   */\n      tag_73\n        /* \"#utility.yul\":1486:1490   */\n      dup3\n        /* \"#utility.yul\":1464:1491   */\n      tag_40\n      jump\t// in\n    tag_73:\n        /* \"#utility.yul\":1456:1462   */\n      dup2\n        /* \"#utility.yul\":1452:1492   */\n      add\n        /* \"#utility.yul\":1594:1600   */\n      dup2\n        /* \"#utility.yul\":1582:1592   */\n      dup2\n        /* \"#utility.yul\":1579:1601   */\n      lt\n        /* \"#utility.yul\":1558:1576   */\n      0xffffffffffffffff\n        /* \"#utility.yul\":1546:1556   */\n      dup3\n        /* \"#utility.yul\":1543:1577   */\n      gt\n        /* \"#utility.yul\":1540:1602   */\n      or\n        /* \"#utility.yul\":1537:1625   */\n      iszero\n      tag_74\n      jumpi\n        /* \"#utility.yul\":1605:1623   */\n      tag_75\n      tag_41\n      jump\t// in\n    tag_75:\n        /* \"#utility.yul\":1537:1625   */\n    tag_74:\n        /* \"#utility.yul\":1645:1655   */\n      dup1\n        /* \"#utility.yul\":1641:1643   */\n      0x40\n        /* \"#utility.yul\":1634:1656   */\n      mstore\n        /* \"#utility.yul\":1424:1662   */\n      pop\n        /* \"#utility.yul\":1381:1662   */\n      pop\n      pop\n      jump\t// out\n        /* \"#utility.yul\":1668:1797   */\n    tag_43:\n        /* \"#utility.yul\":1702:1708   */\n      0x00\n        /* \"#utility.yul\":1729:1749   */\n      tag_77\n      tag_31\n      jump\t// in\n    tag_77:\n        /* \"#utility.yul\":1719:1749   */\n      swap1\n      pop\n        /* \"#utility.yul\":1758:1791   */\n      tag_78\n        /* \"#utility.yul\":1786:1790   */\n      dup3\n        /* \"#utility.yul\":1778:1784   */\n      dup3\n        /* \"#utility.yul\":1758:1791   */\n      tag_42\n      jump\t// in\n    tag_78:\n        /* \"#utility.yul\":1668:1797   */\n      swap2\n      swap1\n      pop\n      jump\t// out\n        /* \"#utility.yul\":1803:2111   */\n    tag_44:\n        /* \"#utility.yul\":1865:1869   */\n      0x00\n        /* \"#utility.yul\":1955:1973   */\n      0xffffffffffffffff\n        /* \"#utility.yul\":1947:1953   */\n      dup3\n        /* \"#utility.yul\":1944:1974   */\n      gt\n        /* \"#utility.yul\":1941:1997   */\n      iszero\n      tag_80\n      jumpi\n        /* \"#utility.yul\":1977:1995   */\n      tag_81\n      tag_41\n      jump\t// in\n    tag_81:\n        /* \"#utility.yul\":1941:1997   */\n    tag_80:\n        /* \"#utility.yul\":2015:2044   */\n      tag_82\n        /* \"#utility.yul\":2037:2043   */\n      dup3\n        /* \"#utility.yul\":2015:2044   */\n      tag_40\n      jump\t// in\n    tag_82:\n        /* \"#utility.yul\":2007:2044   */\n      swap1\n      pop\n        /* \"#utility.yul\":2099:2103   */\n      0x20\n        /* \"#utility.yul\":2093:2097   */\n      dup2\n        /* \"#utility.yul\":2089:2104   */\n      add\n        /* \"#utility.yul\":2081:2104   */\n      swap1\n      pop\n        /* \"#utility.yul\":1803:2111   */\n      swap2\n      swap1\n      pop\n      jump\t// out\n        /* \"#utility.yul\":2117:2265   */\n    tag_45:\n        /* \"#utility.yul\":2215:2221   */\n      dup3\n        /* \"#utility.yul\":2210:2213   */\n      dup2\n        /* \"#utility.yul\":2205:2208   */\n      dup4\n        /* \"#utility.yul\":2192:2222   */\n      calldatacopy\n        /* \"#utility.yul\":2256:2257   */\n      0x00\n        /* \"#utility.yul\":2247:2253   */\n      dup4\n        /* \"#utility.yul\":2242:2245   */\n      dup4\n        /* \"#utility.yul\":2238:2254   */\n      add\n        /* \"#utility.yul\":2231:2258   */\n      mstore\n        /* \"#utility.yul\":2117:2265   */\n      pop\n      pop\n      pop\n      jump\t// out\n        /* \"#utility.yul\":2271:2696   */\n    tag_46:\n        /* \"#utility.yul\":2349:2354   */\n      0x00\n        /* \"#utility.yul\":2374:2440   */\n      tag_85\n        /* \"#utility.yul\":2390:2439   */\n      tag_86\n        /* \"#utility.yul\":2432:2438   */\n      dup5\n        /* \"#utility.yul\":2390:2439   */\n      tag_44\n      jump\t// in\n    tag_86:\n        /* \"#utility.yul\":2374:2440   */\n      tag_43\n      jump\t// in\n    tag_85:\n        /* \"#utility.yul\":2365:2440   */\n      swap1\n      pop\n        /* \"#utility.yul\":2463:2469   */\n      dup3\n        /* \"#utility.yul\":2456:2461   */\n      dup2\n        /* \"#utility.yul\":2449:2470   */\n      mstore\n        /* \"#utility.yul\":2501:2505   */\n      0x20\n        /* \"#utility.yul\":2494:2499   */\n      dup2\n        /* \"#utility.yul\":2490:2506   */\n      add\n        /* \"#utility.yul\":2539:2542   */\n      dup5\n        /* \"#utility.yul\":2530:2536   */\n      dup5\n        /* \"#utility.yul\":2525:2528   */\n      dup5\n        /* \"#utility.yul\":2521:2537   */\n      add\n        /* \"#utility.yul\":2518:2543   */\n      gt\n        /* \"#utility.yul\":2515:2627   */\n      iszero\n      tag_87\n      jumpi\n        /* \"#utility.yul\":2546:2625   */\n      tag_88\n      tag_39\n      jump\t// in\n    tag_88:\n        /* \"#utility.yul\":2515:2627   */\n    tag_87:\n        /* \"#utility.yul\":2636:2690   */\n      tag_89\n        /* \"#utility.yul\":2683:2689   */\n      dup5\n        /* \"#utility.yul\":2678:2681   */\n      dup3\n        /* \"#utility.yul\":2673:2676   */\n      dup6\n        /* \"#utility.yul\":2636:2690   */\n      tag_45\n      jump\t// in\n    tag_89:\n        /* \"#utility.yul\":2355:2696   */\n      pop\n        /* \"#utility.yul\":2271:2696   */\n      swap4\n      swap3\n      pop\n      pop\n      pop\n      jump\t// out\n        /* \"#utility.yul\":2716:3056   */\n    tag_47:\n        /* \"#utility.yul\":2772:2777   */\n      0x00\n        /* \"#utility.yul\":2821:2824   */\n      dup3\n        /* \"#utility.yul\":2814:2818   */\n      0x1f\n        /* \"#utility.yul\":2806:2812   */\n      dup4\n        /* \"#utility.yul\":2802:2819   */\n      add\n        /* \"#utility.yul\":2798:2825   */\n      slt\n        /* \"#utility.yul\":2788:2910   */\n      tag_91\n      jumpi\n        /* \"#utility.yul\":2829:2908   */\n      tag_92\n      tag_38\n      jump\t// in\n    tag_92:\n        /* \"#utility.yul\":2788:2910   */\n    tag_91:\n        /* \"#utility.yul\":2946:2952   */\n      dup2\n        /* \"#utility.yul\":2933:2953   */\n      calldataload\n        /* \"#utility.yul\":2971:3050   */\n      tag_93\n        /* \"#utility.yul\":3046:3049   */\n      dup5\n        /* \"#utility.yul\":3038:3044   */\n      dup3\n        /* \"#utility.yul\":3031:3035   */\n      0x20\n        /* \"#utility.yul\":3023:3029   */\n      dup7\n        /* \"#utility.yul\":3019:3036   */\n      add\n        /* \"#utility.yul\":2971:3050   */\n      tag_46\n      jump\t// in\n    tag_93:\n        /* \"#utility.yul\":2962:3050   */\n      swap2\n      pop\n        /* \"#utility.yul\":2778:3056   */\n      pop\n        /* \"#utility.yul\":2716:3056   */\n      swap3\n      swap2\n      pop\n      pop\n      jump\t// out\n        /* \"#utility.yul\":3062:3716   */\n    tag_9:\n        /* \"#utility.yul\":3140:3146   */\n      0x00\n        /* \"#utility.yul\":3148:3154   */\n      0x00\n        /* \"#utility.yul\":3197:3199   */\n      0x40\n        /* \"#utility.yul\":3185:3194   */\n      dup4\n        /* \"#utility.yul\":3176:3183   */\n      dup6\n        /* \"#utility.yul\":3172:3195   */\n      sub\n        /* \"#utility.yul\":3168:3200   */\n      slt\n        /* \"#utility.yul\":3165:3284   */\n      iszero\n      tag_95\n      jumpi\n        /* \"#utility.yul\":3203:3282   */\n      tag_96\n      tag_32\n      jump\t// in\n    tag_96:\n        /* \"#utility.yul\":3165:3284   */\n    tag_95:\n        /* \"#utility.yul\":3323:3324   */\n      0x00\n        /* \"#utility.yul\":3348:3401   */\n      tag_97\n        /* \"#utility.yul\":3393:3400   */\n      dup6\n        /* \"#utility.yul\":3384:3390   */\n      dup3\n        /* \"#utility.yul\":3373:3382   */\n      dup7\n        /* \"#utility.yul\":3369:3391   */\n      add\n        /* \"#utility.yul\":3348:3401   */\n      tag_37\n      jump\t// in\n    tag_97:\n        /* \"#utility.yul\":3338:3401   */\n      swap3\n      pop\n        /* \"#utility.yul\":3294:3411   */\n      pop\n        /* \"#utility.yul\":3478:3480   */\n      0x20\n        /* \"#utility.yul\":3467:3476   */\n      dup4\n        /* \"#utility.yul\":3463:3481   */\n      add\n        /* \"#utility.yul\":3450:3482   */\n      calldataload\n        /* \"#utility.yul\":3509:3527   */\n      0xffffffffffffffff\n        /* \"#utility.yul\":3501:3507   */\n      dup2\n        /* \"#utility.yul\":3498:3528   */\n      gt\n        /* \"#utility.yul\":3495:3612   */\n      iszero\n      tag_98\n      jumpi\n        /* \"#utility.yul\":3531:3610   */\n      tag_99\n      tag_33\n      jump\t// in\n    tag_99:\n        /* \"#utility.yul\":3495:3612   */\n    tag_98:\n        /* \"#utility.yul\":3636:3699   */\n      tag_100\n        /* \"#utility.yul\":3691:3698   */\n      dup6\n        /* \"#utility.yul\":3682:3688   */\n      dup3\n        /* \"#utility.yul\":3671:3680   */\n      dup7\n        /* \"#utility.yul\":3667:3689   */\n      add\n        /* \"#utility.yul\":3636:3699   */\n      tag_47\n      jump\t// in\n    tag_100:\n        /* \"#utility.yul\":3626:3699   */\n      swap2\n      pop\n        /* \"#utility.yul\":3421:3709   */\n      pop\n        /* \"#utility.yul\":3062:3716   */\n      swap3\n      pop\n      swap3\n      swap1\n      pop\n      jump\t// out\n        /* \"#utility.yul\":3722:3799   */\n    tag_48:\n        /* \"#utility.yul\":3759:3766   */\n      0x00\n        /* \"#utility.yul\":3788:3793   */\n      dup2\n        /* \"#utility.yul\":3777:3793   */\n      swap1\n      pop\n        /* \"#utility.yul\":3722:3799   */\n      swap2\n      swap1\n      pop\n      jump\t// out\n        /* \"#utility.yul\":3805:3923   */\n    tag_49:\n        /* \"#utility.yul\":3892:3916   */\n      tag_103\n        /* \"#utility.yul\":3910:3915   */\n      dup2\n        /* \"#utility.yul\":3892:3916   */\n      tag_48\n      jump\t// in\n    tag_103:\n        /* \"#utility.yul\":3887:3890   */\n      dup3\n        /* \"#utility.yul\":3880:3917   */\n      mstore\n        /* \"#utility.yul\":3805:3923   */\n      pop\n      pop\n      jump\t// out\n        /* \"#utility.yul\":3929:4151   */\n    tag_12:\n        /* \"#utility.yul\":4022:4026   */\n      0x00\n        /* \"#utility.yul\":4060:4062   */\n      0x20\n        /* \"#utility.yul\":4049:4058   */\n      dup3\n        /* \"#utility.yul\":4045:4063   */\n      add\n        /* \"#utility.yul\":4037:4063   */\n      swap1\n      pop\n        /* \"#utility.yul\":4073:4144   */\n      tag_105\n        /* \"#utility.yul\":4141:4142   */\n      0x00\n        /* \"#utility.yul\":4130:4139   */\n      dup4\n        /* \"#utility.yul\":4126:4143   */\n      add\n        /* \"#utility.yul\":4117:4123   */\n      dup5\n        /* \"#utility.yul\":4073:4144   */\n      tag_49\n      jump\t// in\n    tag_105:\n        /* \"#utility.yul\":3929:4151   */\n      swap3\n      swap2\n      pop\n      pop\n      jump\t// out\n        /* \"#utility.yul\":4157:4279   */\n    tag_50:\n        /* \"#utility.yul\":4230:4254   */\n      tag_107\n        /* \"#utility.yul\":4248:4253   */\n      dup2\n        /* \"#utility.yul\":4230:4254   */\n      tag_48\n      jump\t// in\n    tag_107:\n        /* \"#utility.yul\":4223:4228   */\n      dup2\n        /* \"#utility.yul\":4220:4255   */\n      eq\n        /* \"#utility.yul\":4210:4273   */\n      tag_108\n      jumpi\n        /* \"#utility.yul\":4269:4270   */\n      0x00\n        /* \"#utility.yul\":4266:4267   */\n      0x00\n        /* \"#utility.yul\":4259:4271   */\n      revert\n        /* \"#utility.yul\":4210:4273   */\n    tag_108:\n        /* \"#utility.yul\":4157:4279   */\n      pop\n      jump\t// out\n        /* \"#utility.yul\":4285:4424   */\n    tag_51:\n        /* \"#utility.yul\":4331:4336   */\n      0x00\n        /* \"#utility.yul\":4369:4375   */\n      dup2\n        /* \"#utility.yul\":4356:4376   */\n      calldataload\n        /* \"#utility.yul\":4347:4376   */\n      swap1\n      pop\n        /* \"#utility.yul\":4385:4418   */\n      tag_110\n        /* \"#utility.yul\":4412:4417   */\n      dup2\n        /* \"#utility.yul\":4385:4418   */\n      tag_50\n      jump\t// in\n    tag_110:\n        /* \"#utility.yul\":4285:4424   */\n      swap3\n      swap2\n      pop\n      pop\n      jump\t// out\n        /* \"#utility.yul\":4430:5229   */\n    tag_15:\n        /* \"#utility.yul\":4517:4523   */\n      0x00\n        /* \"#utility.yul\":4525:4531   */\n      0x00\n        /* \"#utility.yul\":4533:4539   */\n      0x00\n        /* \"#utility.yul\":4582:4584   */\n      0x60\n        /* \"#utility.yul\":4570:4579   */\n      dup5\n        /* \"#utility.yul\":4561:4568   */\n      dup7\n        /* \"#utility.yul\":4557:4580   */\n      sub\n        /* \"#utility.yul\":4553:4585   */\n      slt\n        /* \"#utility.yul\":4550:4669   */\n      iszero\n      tag_112\n      jumpi\n        /* \"#utility.yul\":4588:4667   */\n      tag_113\n      tag_32\n      jump\t// in\n    tag_113:\n        /* \"#utility.yul\":4550:4669   */\n    tag_112:\n        /* \"#utility.yul\":4708:4709   */\n      0x00\n        /* \"#utility.yul\":4733:4786   */\n      tag_114\n        /* \"#utility.yul\":4778:4785   */\n      dup7\n        /* \"#utility.yul\":4769:4775   */\n      dup3\n        /* \"#utility.yul\":4758:4767   */\n      dup8\n        /* \"#utility.yul\":4754:4776   */\n      add\n        /* \"#utility.yul\":4733:4786   */\n      tag_37\n      jump\t// in\n    tag_114:\n        /* \"#utility.yul\":4723:4786   */\n      swap4\n      pop\n        /* \"#utility.yul\":4679:4796   */\n      pop\n        /* \"#utility.yul\":4863:4865   */\n      0x20\n        /* \"#utility.yul\":4852:4861   */\n      dup5\n        /* \"#utility.yul\":4848:4866   */\n      add\n        /* \"#utility.yul\":4835:4867   */\n      calldataload\n        /* \"#utility.yul\":4894:4912   */\n      0xffffffffffffffff\n        /* \"#utility.yul\":4886:4892   */\n      dup2\n        /* \"#utility.yul\":4883:4913   */\n      gt\n        /* \"#utility.yul\":4880:4997   */\n      iszero\n      tag_115\n      jumpi\n        /* \"#utility.yul\":4916:4995   */\n      tag_116\n      tag_33\n      jump\t// in\n    tag_116:\n        /* \"#utility.yul\":4880:4997   */\n    tag_115:\n        /* \"#utility.yul\":5021:5084   */\n      tag_117\n        /* \"#utility.yul\":5076:5083   */\n      dup7\n        /* \"#utility.yul\":5067:5073   */\n      dup3\n        /* \"#utility.yul\":5056:5065   */\n      dup8\n        /* \"#utility.yul\":5052:5074   */\n      add\n        /* \"#utility.yul\":5021:5084   */\n      tag_47\n      jump\t// in\n    tag_117:\n        /* \"#utility.yul\":5011:5084   */\n      swap3\n      pop\n        /* \"#utility.yul\":4806:5094   */\n      pop\n        /* \"#utility.yul\":5133:5135   */\n      0x40\n        /* \"#utility.yul\":5159:5212   */\n      tag_118\n        /* \"#utility.yul\":5204:5211   */\n      dup7\n        /* \"#utility.yul\":5195:5201   */\n      dup3\n        /* \"#utility.yul\":5184:5193   */\n      dup8\n        /* \"#utility.yul\":5180:5202   */\n      add\n        /* \"#utility.yul\":5159:5212   */\n      tag_51\n      jump\t// in\n    tag_118:\n        /* \"#utility.yul\":5149:5212   */\n      swap2\n      pop\n        /* \"#utility.yul\":5104:5222   */\n      pop\n        /* \"#utility.yul\":4430:5229   */\n      swap3\n      pop\n      swap3\n      pop\n      swap3\n      jump\t// out\n        /* \"#utility.yul\":5235:5334   */\n    tag_52:\n        /* \"#utility.yul\":5287:5293   */\n      0x00\n        /* \"#utility.yul\":5321:5326   */\n      dup2\n        /* \"#utility.yul\":5315:5327   */\n      mload\n        /* \"#utility.yul\":5305:5327   */\n      swap1\n      pop\n        /* \"#utility.yul\":5235:5334   */\n      swap2\n      swap1\n      pop\n      jump\t// out\n        /* \"#utility.yul\":5340:5488   */\n    tag_53:\n        /* \"#utility.yul\":5442:5453   */\n      0x00\n        /* \"#utility.yul\":5479:5482   */\n      dup2\n        /* \"#utility.yul\":5464:5482   */\n      swap1\n      pop\n        /* \"#utility.yul\":5340:5488   */\n      swap3\n      swap2\n      pop\n      pop\n      jump\t// out\n        /* \"#utility.yul\":5494:5633   */\n    tag_54:\n        /* \"#utility.yul\":5583:5589   */\n      dup3\n        /* \"#utility.yul\":5578:5581   */\n      dup2\n        /* \"#utility.yul\":5573:5576   */\n      dup4\n        /* \"#utility.yul\":5567:5590   */\n      mcopy\n        /* \"#utility.yul\":5624:5625   */\n      0x00\n        /* \"#utility.yul\":5615:5621   */\n      dup4\n        /* \"#utility.yul\":5610:5613   */\n      dup4\n        /* \"#utility.yul\":5606:5622   */\n      add\n        /* \"#utility.yul\":5599:5626   */\n      mstore\n        /* \"#utility.yul\":5494:5633   */\n      pop\n      pop\n      pop\n      jump\t// out\n        /* \"#utility.yul\":5639:6029   */\n    tag_55:\n        /* \"#utility.yul\":5745:5748   */\n      0x00\n        /* \"#utility.yul\":5773:5812   */\n      tag_123\n        /* \"#utility.yul\":5806:5811   */\n      dup3\n        /* \"#utility.yul\":5773:5812   */\n      tag_52\n      jump\t// in\n    tag_123:\n        /* \"#utility.yul\":5828:5917   */\n      tag_124\n        /* \"#utility.yul\":5910:5916   */\n      dup2\n        /* \"#utility.yul\":5905:5908   */\n      dup6\n        /* \"#utility.yul\":5828:5917   */\n      tag_53\n      jump\t// in\n    tag_124:\n        /* \"#utility.yul\":5821:5917   */\n      swap4\n      pop\n        /* \"#utility.yul\":5926:5991   */\n      tag_125\n        /* \"#utility.yul\":5984:5990   */\n      dup2\n        /* \"#utility.yul\":5979:5982   */\n      dup6\n        /* \"#utility.yul\":5972:5976   */\n      0x20\n        /* \"#utility.yul\":5965:5970   */\n      dup7\n        /* \"#utility.yul\":5961:5977   */\n      add\n        /* \"#utility.yul\":5926:5991   */\n      tag_54\n      jump\t// in\n    tag_125:\n        /* \"#utility.yul\":6016:6022   */\n      dup1\n        /* \"#utility.yul\":6011:6014   */\n      dup5\n        /* \"#utility.yul\":6007:6023   */\n      add\n        /* \"#utility.yul\":6000:6023   */\n      swap2\n      pop\n        /* \"#utility.yul\":5749:6029   */\n      pop\n        /* \"#utility.yul\":5639:6029   */\n      swap3\n      swap2\n      pop\n      pop\n      jump\t// out\n        /* \"#utility.yul\":6035:6310   */\n    tag_26:\n        /* \"#utility.yul\":6167:6170   */\n      0x00\n        /* \"#utility.yul\":6189:6284   */\n      tag_127\n        /* \"#utility.yul\":6280:6283   */\n      dup3\n        /* \"#utility.yul\":6271:6277   */\n      dup5\n        /* \"#utility.yul\":6189:6284   */\n      tag_55\n      jump\t// in\n    tag_127:\n        /* \"#utility.yul\":6182:6284   */\n      swap2\n      pop\n        /* \"#utility.yul\":6301:6304   */\n      dup2\n        /* \"#utility.yul\":6294:6304   */\n      swap1\n      pop\n        /* \"#utility.yul\":6035:6310   */\n      swap3\n      swap2\n      pop\n      pop\n      jump\t// out\n\n    auxdata: 0xa2646970667358221220dded480658866c069bccfb5f9ef0e5e29e36495b0117260873d63fe9eae4a5e464736f6c634300081e0033\n}\n",
				"bytecode": {
					"linkReferences": {},
					"object": "6080604052348015600e575f5ffd5b506105a68061001c5f395ff3fe608060405234801561000f575f5ffd5b506004361061004a575f3560e01c80633226bc491461004e578063bf1292901461007e578063d59d65c11461009a578063e8827cec146100b6575b5f5ffd5b610068600480360381019061006391906103e7565b6100e6565b6040516100759190610459565b60405180910390f35b6100986004803603810190610093919061049c565b61011d565b005b6100b460048036038101906100af91906103e7565b61017f565b005b6100d060048036038101906100cb91906103e7565b6101de565b6040516100dd9190610459565b60405180910390f35b5f602052815f5260405f20818051602081018201805184825260208301602085012081835280955050505050505f91509150505481565b805f5f8573ffffffffffffffffffffffffffffffffffffffff1673ffffffffffffffffffffffffffffffffffffffff1681526020019081526020015f2083604051610168919061055a565b908152602001604051809103902081905550505050565b5f5f8373ffffffffffffffffffffffffffffffffffffffff1673ffffffffffffffffffffffffffffffffffffffff1681526020019081526020015f20816040516101c9919061055a565b90815260200160405180910390205f90555050565b5f5f5f8473ffffffffffffffffffffffffffffffffffffffff1673ffffffffffffffffffffffffffffffffffffffff1681526020019081526020015f2082604051610229919061055a565b908152602001604051809103902054905092915050565b5f604051905090565b5f5ffd5b5f5ffd5b5f73ffffffffffffffffffffffffffffffffffffffff82169050919050565b5f61027a82610251565b9050919050565b61028a81610270565b8114610294575f5ffd5b50565b5f813590506102a581610281565b92915050565b5f5ffd5b5f5ffd5b5f601f19601f8301169050919050565b7f4e487b71000000000000000000000000000000000000000000000000000000005f52604160045260245ffd5b6102f9826102b3565b810181811067ffffffffffffffff82111715610318576103176102c3565b5b80604052505050565b5f61032a610240565b905061033682826102f0565b919050565b5f67ffffffffffffffff821115610355576103546102c3565b5b61035e826102b3565b9050602081019050919050565b828183375f83830152505050565b5f61038b6103868461033b565b610321565b9050828152602081018484840111156103a7576103a66102af565b5b6103b284828561036b565b509392505050565b5f82601f8301126103ce576103cd6102ab565b5b81356103de848260208601610379565b91505092915050565b5f5f604083850312156103fd576103fc610249565b5b5f61040a85828601610297565b925050602083013567ffffffffffffffff81111561042b5761042a61024d565b5b610437858286016103ba565b9150509250929050565b5f819050919050565b61045381610441565b82525050565b5f60208201905061046c5f83018461044a565b92915050565b61047b81610441565b8114610485575f5ffd5b50565b5f8135905061049681610472565b92915050565b5f5f5f606084860312156104b3576104b2610249565b5b5f6104c086828701610297565b935050602084013567ffffffffffffffff8111156104e1576104e061024d565b5b6104ed868287016103ba565b92505060406104fe86828701610488565b9150509250925092565b5f81519050919050565b5f81905092915050565b8281835e5f83830152505050565b5f61053482610508565b61053e8185610512565b935061054e81856020860161051c565b80840191505092915050565b5f610565828461052a565b91508190509291505056fea2646970667358221220dded480658866c069bccfb5f9ef0e5e29e36495b0117260873d63fe9eae4a5e464736f6c634300081e0033",
					"opcodes": "PUSH1 0x80 PUSH1 0x40 MSTORE CALLVALUE DUP1 ISZERO PUSH1 0xE JUMPI PUSH0 PUSH0 REVERT JUMPDEST POP PUSH2 0x5A6 DUP1 PUSH2 0x1C PUSH0 CODECOPY PUSH0 RETURN INVALID PUSH1 0x80 PUSH1 0x40 MSTORE CALLVALUE DUP1 ISZERO PUSH2 0xF JUMPI PUSH0 PUSH0 REVERT JUMPDEST POP PUSH1 0x4 CALLDATASIZE LT PUSH2 0x4A JUMPI PUSH0 CALLDATALOAD PUSH1 0xE0 SHR DUP1 PUSH4 0x3226BC49 EQ PUSH2 0x4E JUMPI DUP1 PUSH4 0xBF129290 EQ PUSH2 0x7E JUMPI DUP1 PUSH4 0xD59D65C1 EQ PUSH2 0x9A JUMPI DUP1 PUSH4 0xE8827CEC EQ PUSH2 0xB6 JUMPI JUMPDEST PUSH0 PUSH0 REVERT JUMPDEST PUSH2 0x68 PUSH1 0x4 DUP1 CALLDATASIZE SUB DUP2 ADD SWAP1 PUSH2 0x63 SWAP2 SWAP1 PUSH2 0x3E7 JUMP JUMPDEST PUSH2 0xE6 JUMP JUMPDEST PUSH1 0x40 MLOAD PUSH2 0x75 SWAP2 SWAP1 PUSH2 0x459 JUMP JUMPDEST PUSH1 0x40 MLOAD DUP1 SWAP2 SUB SWAP1 RETURN JUMPDEST PUSH2 0x98 PUSH1 0x4 DUP1 CALLDATASIZE SUB DUP2 ADD SWAP1 PUSH2 0x93 SWAP2 SWAP1 PUSH2 0x49C JUMP JUMPDEST PUSH2 0x11D JUMP JUMPDEST STOP JUMPDEST PUSH2 0xB4 PUSH1 0x4 DUP1 CALLDATASIZE SUB DUP2 ADD SWAP1 PUSH2 0xAF SWAP2 SWAP1 PUSH2 0x3E7 JUMP JUMPDEST PUSH2 0x17F JUMP JUMPDEST STOP JUMPDEST PUSH2 0xD0 PUSH1 0x4 DUP1 CALLDATASIZE SUB DUP2 ADD SWAP1 PUSH2 0xCB SWAP2 SWAP1 PUSH2 0x3E7 JUMP JUMPDEST PUSH2 0x1DE JUMP JUMPDEST PUSH1 0x40 MLOAD PUSH2 0xDD SWAP2 SWAP1 PUSH2 0x459 JUMP JUMPDEST PUSH1 0x40 MLOAD DUP1 SWAP2 SUB SWAP1 RETURN JUMPDEST PUSH0 PUSH1 0x20 MSTORE DUP2 PUSH0 MSTORE PUSH1 0x40 PUSH0 KECCAK256 DUP2 DUP1 MLOAD PUSH1 0x20 DUP2 ADD DUP3 ADD DUP1 MLOAD DUP5 DUP3 MSTORE PUSH1 0x20 DUP4 ADD PUSH1 0x20 DUP6 ADD KECCAK256 DUP2 DUP4 MSTORE DUP1 SWAP6 POP POP POP POP POP POP PUSH0 SWAP2 POP SWAP2 POP POP SLOAD DUP2 JUMP JUMPDEST DUP1 PUSH0 PUSH0 DUP6 PUSH20 0xFFFFFFFFFFFFFFFFFFFFFFFFFFFFFFFFFFFFFFFF AND PUSH20 0xFFFFFFFFFFFFFFFFFFFFFFFFFFFFFFFFFFFFFFFF AND DUP2 MSTORE PUSH1 0x20 ADD SWAP1 DUP2 MSTORE PUSH1 0x20 ADD PUSH0 KECCAK256 DUP4 PUSH1 0x40 MLOAD PUSH2 0x168 SWAP2 SWAP1 PUSH2 0x55A JUMP JUMPDEST SWAP1 DUP2 MSTORE PUSH1 0x20 ADD PUSH1 0x40 MLOAD DUP1 SWAP2 SUB SWAP1 KECCAK256 DUP2 SWAP1 SSTORE POP POP POP POP JUMP JUMPDEST PUSH0 PUSH0 DUP4 PUSH20 0xFFFFFFFFFFFFFFFFFFFFFFFFFFFFFFFFFFFFFFFF AND PUSH20 0xFFFFFFFFFFFFFFFFFFFFFFFFFFFFFFFFFFFFFFFF AND DUP2 MSTORE PUSH1 0x20 ADD SWAP1 DUP2 MSTORE PUSH1 0x20 ADD PUSH0 KECCAK256 DUP2 PUSH1 0x40 MLOAD PUSH2 0x1C9 SWAP2 SWAP1 PUSH2 0x55A JUMP JUMPDEST SWAP1 DUP2 MSTORE PUSH1 0x20 ADD PUSH1 0x40 MLOAD DUP1 SWAP2 SUB SWAP1 KECCAK256 PUSH0 SWAP1 SSTORE POP POP JUMP JUMPDEST PUSH0 PUSH0 PUSH0 DUP5 PUSH20 0xFFFFFFFFFFFFFFFFFFFFFFFFFFFFFFFFFFFFFFFF AND PUSH20 0xFFFFFFFFFFFFFFFFFFFFFFFFFFFFFFFFFFFFFFFF AND DUP2 MSTORE PUSH1 0x20 ADD SWAP1 DUP2 MSTORE PUSH1 0x20 ADD PUSH0 KECCAK256 DUP3 PUSH1 0x40 MLOAD PUSH2 0x229 SWAP2 SWAP1 PUSH2 0x55A JUMP JUMPDEST SWAP1 DUP2 MSTORE PUSH1 0x20 ADD PUSH1 0x40 MLOAD DUP1 SWAP2 SUB SWAP1 KECCAK256 SLOAD SWAP1 POP SWAP3 SWAP2 POP POP JUMP JUMPDEST PUSH0 PUSH1 0x40 MLOAD SWAP1 POP SWAP1 JUMP JUMPDEST PUSH0 PUSH0 REVERT JUMPDEST PUSH0 PUSH0 REVERT JUMPDEST PUSH0 PUSH20 0xFFFFFFFFFFFFFFFFFFFFFFFFFFFFFFFFFFFFFFFF DUP3 AND SWAP1 POP SWAP2 SWAP1 POP JUMP JUMPDEST PUSH0 PUSH2 0x27A DUP3 PUSH2 0x251 JUMP JUMPDEST SWAP1 POP SWAP2 SWAP1 POP JUMP JUMPDEST PUSH2 0x28A DUP2 PUSH2 0x270 JUMP JUMPDEST DUP2 EQ PUSH2 0x294 JUMPI PUSH0 PUSH0 REVERT JUMPDEST POP JUMP JUMPDEST PUSH0 DUP2 CALLDATALOAD SWAP1 POP PUSH2 0x2A5 DUP2 PUSH2 0x281 JUMP JUMPDEST SWAP3 SWAP2 POP POP JUMP JUMPDEST PUSH0 PUSH0 REVERT JUMPDEST PUSH0 PUSH0 REVERT JUMPDEST PUSH0 PUSH1 0x1F NOT PUSH1 0x1F DUP4 ADD AND SWAP1 POP SWAP2 SWAP1 POP JUMP JUMPDEST PUSH32 0x4E487B7100000000000000000000000000000000000000000000000000000000 PUSH0 MSTORE PUSH1 0x41 PUSH1 0x4 MSTORE PUSH1 0x24 PUSH0 REVERT JUMPDEST PUSH2 0x2F9 DUP3 PUSH2 0x2B3 JUMP JUMPDEST DUP2 ADD DUP2 DUP2 LT PUSH8 0xFFFFFFFFFFFFFFFF DUP3 GT OR ISZERO PUSH2 0x318 JUMPI PUSH2 0x317 PUSH2 0x2C3 JUMP JUMPDEST JUMPDEST DUP1 PUSH1 0x40 MSTORE POP POP POP JUMP JUMPDEST PUSH0 PUSH2 0x32A PUSH2 0x240 JUMP JUMPDEST SWAP1 POP PUSH2 0x336 DUP3 DUP3 PUSH2 0x2F0 JUMP JUMPDEST SWAP2 SWAP1 POP JUMP JUMPDEST PUSH0 PUSH8 0xFFFFFFFFFFFFFFFF DUP3 GT ISZERO PUSH2 0x355 JUMPI PUSH2 0x354 PUSH2 0x2C3 JUMP JUMPDEST JUMPDEST PUSH2 0x35E DUP3 PUSH2 0x2B3 JUMP JUMPDEST SWAP1 POP PUSH1 0x20 DUP2 ADD SWAP1 POP SWAP2 SWAP1 POP JUMP JUMPDEST DUP3 DUP2 DUP4 CALLDATACOPY PUSH0 DUP4 DUP4 ADD MSTORE POP POP POP JUMP JUMPDEST PUSH0 PUSH2 0x38B PUSH2 0x386 DUP5 PUSH2 0x33B JUMP JUMPDEST PUSH2 0x321 JUMP JUMPDEST SWAP1 POP DUP3 DUP2 MSTORE PUSH1 0x20 DUP2 ADD DUP5 DUP5 DUP5 ADD GT ISZERO PUSH2 0x3A7 JUMPI PUSH2 0x3A6 PUSH2 0x2AF JUMP JUMPDEST JUMPDEST PUSH2 0x3B2 DUP5 DUP3 DUP6 PUSH2 0x36B JUMP JUMPDEST POP SWAP4 SWAP3 POP POP POP JUMP JUMPDEST PUSH0 DUP3 PUSH1 0x1F DUP4 ADD SLT PUSH2 0x3CE JUMPI PUSH2 0x3CD PUSH2 0x2AB JUMP JUMPDEST JUMPDEST DUP2 CALLDATALOAD PUSH2 0x3DE DUP5 DUP3 PUSH1 0x20 DUP7 ADD PUSH2 0x379 JUMP JUMPDEST SWAP2 POP POP SWAP3 SWAP2 POP POP JUMP JUMPDEST PUSH0 PUSH0 PUSH1 0x40 DUP4 DUP6 SUB SLT ISZERO PUSH2 0x3FD JUMPI PUSH2 0x3FC PUSH2 0x249 JUMP JUMPDEST JUMPDEST PUSH0 PUSH2 0x40A DUP6 DUP3 DUP7 ADD PUSH2 0x297 JUMP JUMPDEST SWAP3 POP POP PUSH1 0x20 DUP4 ADD CALLDATALOAD PUSH8 0xFFFFFFFFFFFFFFFF DUP2 GT ISZERO PUSH2 0x42B JUMPI PUSH2 0x42A PUSH2 0x24D JUMP JUMPDEST JUMPDEST PUSH2 0x437 DUP6 DUP3 DUP7 ADD PUSH2 0x3BA JUMP JUMPDEST SWAP2 POP POP SWAP3 POP SWAP3 SWAP1 POP JUMP JUMPDEST PUSH0 DUP2 SWAP1 POP SWAP2 SWAP1 POP JUMP JUMPDEST PUSH2 0x453 DUP2 PUSH2 0x441 JUMP JUMPDEST DUP3 MSTORE POP POP JUMP JUMPDEST PUSH0 PUSH1 0x20 DUP3 ADD SWAP1 POP PUSH2 0x46C PUSH0 DUP4 ADD DUP5 PUSH2 0x44A JUMP JUMPDEST SWAP3 SWAP2 POP POP JUMP JUMPDEST PUSH2 0x47B DUP2 PUSH2 0x441 JUMP JUMPDEST DUP2 EQ PUSH2 0x485 JUMPI PUSH0 PUSH0 REVERT JUMPDEST POP JUMP JUMPDEST PUSH0 DUP2 CALLDATALOAD SWAP1 POP PUSH2 0x496 DUP2 PUSH2 0x472 JUMP JUMPDEST SWAP3 SWAP2 POP POP JUMP JUMPDEST PUSH0 PUSH0 PUSH0 PUSH1 0x60 DUP5 DUP7 SUB SLT ISZERO PUSH2 0x4B3 JUMPI PUSH2 0x4B2 PUSH2 0x249 JUMP JUMPDEST JUMPDEST PUSH0 PUSH2 0x4C0 DUP7 DUP3 DUP8 ADD PUSH2 0x297 JUMP JUMPDEST SWAP4 POP POP PUSH1 0x20 DUP5 ADD CALLDATALOAD PUSH8 0xFFFFFFFFFFFFFFFF DUP2 GT ISZERO PUSH2 0x4E1 JUMPI PUSH2 0x4E0 PUSH2 0x24D JUMP JUMPDEST JUMPDEST PUSH2 0x4ED DUP7 DUP3 DUP8 ADD PUSH2 0x3BA JUMP JUMPDEST SWAP3 POP POP PUSH1 0x40 PUSH2 0x4FE DUP7 DUP3 DUP8 ADD PUSH2 0x488 JUMP JUMPDEST SWAP2 POP POP SWAP3 POP SWAP3 POP SWAP3 JUMP JUMPDEST PUSH0 DUP2 MLOAD SWAP1 POP SWAP2 SWAP1 POP JUMP JUMPDEST PUSH0 DUP2 SWAP1 POP SWAP3 SWAP2 POP POP JUMP JUMPDEST DUP3 DUP2 DUP4 MCOPY PUSH0 DUP4 DUP4 ADD MSTORE POP POP POP JUMP JUMPDEST PUSH0 PUSH2 0x534 DUP3 PUSH2 0x508 JUMP JUMPDEST PUSH2 0x53E DUP2 DUP6 PUSH2 0x512 JUMP JUMPDEST SWAP4 POP PUSH2 0x54E DUP2 DUP6 PUSH1 0x20 DUP7 ADD PUSH2 0x51C JUMP JUMPDEST DUP1 DUP5 ADD SWAP2 POP POP SWAP3 SWAP2 POP POP JUMP JUMPDEST PUSH0 PUSH2 0x565 DUP3 DUP5 PUSH2 0x52A JUMP JUMPDEST SWAP2 POP DUP2 SWAP1 POP SWAP3 SWAP2 POP POP JUMP INVALID LOG2 PUSH5 0x6970667358 0x22 SLT KECCAK256 0xDD 0xED BASEFEE MOD PC DUP7 PUSH13 0x69BCCFB5F9EF0E5E29E36495B ADD OR 0x26 ADDMOD PUSH20 0xD63FE9EAE4A5E464736F6C634300081E00330000 "
				},
				"gasEstimates": {
					"creation": {
						"codeDepositCost": "289200",
						"executionCost": "329",
						"totalCost": "289529"
					},
					"external": {
						"deleteUserBalance(address,string)": "infinite",
						"getUserBalance(address,string)": "infinite",
						"setUserBalance(address,string,uint256)": "infinite",
						"userBalance(address,string)": "infinite"
					}
				},
				"methodIdentifiers": {
					"deleteUserBalance(address,string)": "d59d65c1",
					"getUserBalance(address,string)": "e8827cec",
					"setUserBalance(address,string,uint256)": "bf129290",
					"userBalance(address,string)": "3226bc49"
				}
			},
			"storageLayout": {
				"storage": [
					{
						"astId": 7,
						"contract": "06_mapping.sol:MultiMapping",
						"label": "userBalance",
						"offset": 0,
						"slot": "0",
						"type": "t_mapping(t_address,t_mapping(t_string_memory_ptr,t_uint256))"
					}
				],
				"types": {
					"t_address": {
						"encoding": "inplace",
						"label": "address",
						"numberOfBytes": "20"
					},
					"t_mapping(t_address,t_mapping(t_string_memory_ptr,t_uint256))": {
						"encoding": "mapping",
						"key": "t_address",
						"label": "mapping(address => mapping(string => uint256))",
						"numberOfBytes": "32",
						"value": "t_mapping(t_string_memory_ptr,t_uint256)"
					},
					"t_mapping(t_string_memory_ptr,t_uint256)": {
						"encoding": "mapping",
						"key": "t_string_memory_ptr",
						"label": "mapping(string => uint256)",
						"numberOfBytes": "32",
						"value": "t_uint256"
					},
					"t_string_memory_ptr": {
						"encoding": "bytes",
						"label": "string",
						"numberOfBytes": "32"
					},
					"t_uint256": {
						"encoding": "inplace",
						"label": "uint256",
						"numberOfBytes": "32"
					}
				}
			},
			"userdoc": {
				"kind": "user",
				"methods": {},
				"version": 1
			}
		}
	}
}