{
	"10_variable.sol": {
		"Var": {
			"abi": [
				{
					"inputs": [],
					"stateMutability": "nonpayable",
					"type": "constructor"
				},
				{
					"inputs": [],
					"name": "owner",
					"outputs": [
						{
							"internalType": "address",
							"name": "",
							"type": "address"
						}
					],
					"stateMutability": "view",
					"type": "function"
				},
				{
					"inputs": [
						{
							"internalType": "uint256",
							"name": "a",
							"type": "uint256"
						},
						{
							"internalType": "uint256",
							"name": "b",
							"type": "uint256"
						}
					],
					"name": "sum",
					"outputs": [
						{
							"internalType": "uint256",
							"name": "",
							"type": "uint256"
						}
					],
					"stateMutability": "pure",
					"type": "function"
				},
				{
					"inputs": [],
					"name": "timestamp",
					"outputs": [
						{
							"internalType": "uint256",
							"name": "",
							"type": "uint256"
						}
					],
					"stateMutability": "view",
					"type": "function"
				}
			],
			"devdoc": {
				"kind": "dev",
				"methods": {},
				"version": 1
			},
			"evm": {
				"assembly": "    /* \"10_variable.sol\":55:448  contract Var {... */\n  mstore(0x40, 0x80)\n    /* \"10_variable.sol\":153:266  constructor() {... */\n  callvalue\n  dup1\n  iszero\n  tag_1\n  jumpi\n  revert(0x00, 0x00)\ntag_1:\n  pop\n    /* \"10_variable.sol\":212:222  msg.sender */\n  caller\n    /* \"10_variable.sol\":204:209  owner */\n  0x01\n  0x00\n    /* \"10_variable.sol\":204:222  owner = msg.sender */\n  0x0100\n  exp\n  dup2\n  sload\n  dup2\n  0xffffffffffffffffffffffffffffffffffffffff\n  mul\n  not\n  and\n  swap1\n  dup4\n  0xffffffffffffffffffffffffffffffffffffffff\n  and\n  mul\n  or\n  swap1\n  sstore\n  pop\n    /* \"10_variable.sol\":244:259  block.timestamp */\n  timestamp\n    /* \"10_variable.sol\":232:241  timestamp */\n  0x00\n    /* \"10_variable.sol\":232:259  timestamp = block.timestamp */\n  dup2\n  swap1\n  sstore\n  pop\n    /* \"10_variable.sol\":55:448  contract Var {... */\n  dataSize(sub_0)\n  dup1\n  dataOffset(sub_0)\n  0x00\n  codecopy\n  0x00\n  return\nstop\n\nsub_0: assembly {\n        /* \"10_variable.sol\":55:448  contract Var {... */\n      mstore(0x40, 0x80)\n      callvalue\n      dup1\n      iszero\n      tag_1\n      jumpi\n      revert(0x00, 0x00)\n    tag_1:\n      pop\n      jumpi(tag_2, lt(calldatasize, 0x04))\n      shr(0xe0, calldataload(0x00))\n      dup1\n      0x8da5cb5b\n      eq\n      tag_3\n      jumpi\n      dup1\n      0xb80777ea\n      eq\n      tag_4\n      jumpi\n      dup1\n      0xcad0899b\n      eq\n      tag_5\n      jumpi\n    tag_2:\n      revert(0x00, 0x00)\n        /* \"10_variable.sol\":126:146  address public owner */\n    tag_3:\n      tag_6\n      tag_7\n      jump\t// in\n    tag_6:\n      mload(0x40)\n      tag_8\n      swap2\n      swap1\n      tag_9\n      jump\t// in\n    tag_8:\n      mload(0x40)\n      dup1\n      swap2\n      sub\n      swap1\n      return\n        /* \"10_variable.sol\":96:120  uint256 public timestamp */\n    tag_4:\n      tag_10\n      tag_11\n      jump\t// in\n    tag_10:\n      mload(0x40)\n      tag_12\n      swap2\n      swap1\n      tag_13\n      jump\t// in\n    tag_12:\n      mload(0x40)\n      dup1\n      swap2\n      sub\n      swap1\n      return\n        /* \"10_variable.sol\":272:446  function sum(uint256 a, uint256 b) public pure returns (uint256) {... */\n    tag_5:\n      tag_14\n      0x04\n      dup1\n      calldatasize\n      sub\n      dup2\n      add\n      swap1\n      tag_15\n      swap2\n      swap1\n      tag_16\n      jump\t// in\n    tag_15:\n      tag_17\n      jump\t// in\n    tag_14:\n      mload(0x40)\n      tag_18\n      swap2\n      swap1\n      tag_13\n      jump\t// in\n    tag_18:\n      mload(0x40)\n      dup1\n      swap2\n      sub\n      swap1\n      return\n        /* \"10_variable.sol\":126:146  address public owner */\n    tag_7:\n      0x01\n      0x00\n      swap1\n      sload\n      swap1\n      0x0100\n      exp\n      swap1\n      div\n      0xffffffffffffffffffffffffffffffffffffffff\n      and\n      dup2\n      jump\t// out\n        /* \"10_variable.sol\":96:120  uint256 public timestamp */\n    tag_11:\n      sload(0x00)\n      dup2\n      jump\t// out\n        /* \"10_variable.sol\":272:446  function sum(uint256 a, uint256 b) public pure returns (uint256) {... */\n    tag_17:\n        /* \"10_variable.sol\":328:335  uint256 */\n      0x00\n        /* \"10_variable.sol\":373:379  uint c */\n      0x00\n        /* \"10_variable.sol\":386:387  b */\n      dup3\n        /* \"10_variable.sol\":382:383  a */\n      dup5\n        /* \"10_variable.sol\":382:387  a + b */\n      tag_20\n      swap2\n      swap1\n      tag_21\n      jump\t// in\n    tag_20:\n        /* \"10_variable.sol\":373:387  uint c = a + b */\n      swap1\n      pop\n        /* \"10_variable.sol\":438:439  c */\n      dup1\n        /* \"10_variable.sol\":431:439  return c */\n      swap2\n      pop\n      pop\n        /* \"10_variable.sol\":272:446  function sum(uint256 a, uint256 b) public pure returns (uint256) {... */\n      swap3\n      swap2\n      pop\n      pop\n      jump\t// out\n        /* \"#utility.yul\":7:133   */\n    tag_22:\n        /* \"#utility.yul\":44:51   */\n      0x00\n        /* \"#utility.yul\":84:126   */\n      0xffffffffffffffffffffffffffffffffffffffff\n        /* \"#utility.yul\":77:82   */\n      dup3\n        /* \"#utility.yul\":73:127   */\n      and\n        /* \"#utility.yul\":62:127   */\n      swap1\n      pop\n        /* \"#utility.yul\":7:133   */\n      swap2\n      swap1\n      pop\n      jump\t// out\n        /* \"#utility.yul\":139:235   */\n    tag_23:\n        /* \"#utility.yul\":176:183   */\n      0x00\n        /* \"#utility.yul\":205:229   */\n      tag_36\n        /* \"#utility.yul\":223:228   */\n      dup3\n        /* \"#utility.yul\":205:229   */\n      tag_22\n      jump\t// in\n    tag_36:\n        /* \"#utility.yul\":194:229   */\n      swap1\n      pop\n        /* \"#utility.yul\":139:235   */\n      swap2\n      swap1\n      pop\n      jump\t// out\n        /* \"#utility.yul\":241:359   */\n    tag_24:\n        /* \"#utility.yul\":328:352   */\n      tag_38\n        /* \"#utility.yul\":346:351   */\n      dup2\n        /* \"#utility.yul\":328:352   */\n      tag_23\n      jump\t// in\n    tag_38:\n        /* \"#utility.yul\":323:326   */\n      dup3\n        /* \"#utility.yul\":316:353   */\n      mstore\n        /* \"#utility.yul\":241:359   */\n      pop\n      pop\n      jump\t// out\n        /* \"#utility.yul\":365:587   */\n    tag_9:\n        /* \"#utility.yul\":458:462   */\n      0x00\n        /* \"#utility.yul\":496:498   */\n      0x20\n        /* \"#utility.yul\":485:494   */\n      dup3\n        /* \"#utility.yul\":481:499   */\n      add\n        /* \"#utility.yul\":473:499   */\n      swap1\n      pop\n        /* \"#utility.yul\":509:580   */\n      tag_40\n        /* \"#utility.yul\":577:578   */\n      0x00\n        /* \"#utility.yul\":566:575   */\n      dup4\n        /* \"#utility.yul\":562:579   */\n      add\n        /* \"#utility.yul\":553:559   */\n      dup5\n        /* \"#utility.yul\":509:580   */\n      tag_24\n      jump\t// in\n    tag_40:\n        /* \"#utility.yul\":365:587   */\n      swap3\n      swap2\n      pop\n      pop\n      jump\t// out\n        /* \"#utility.yul\":593:670   */\n    tag_25:\n        /* \"#utility.yul\":630:637   */\n      0x00\n        /* \"#utility.yul\":659:664   */\n      dup2\n        /* \"#utility.yul\":648:664   */\n      swap1\n      pop\n        /* \"#utility.yul\":593:670   */\n      swap2\n      swap1\n      pop\n      jump\t// out\n        /* \"#utility.yul\":676:794   */\n    tag_26:\n        /* \"#utility.yul\":763:787   */\n      tag_43\n        /* \"#utility.yul\":781:786   */\n      dup2\n        /* \"#utility.yul\":763:787   */\n      tag_25\n      jump\t// in\n    tag_43:\n        /* \"#utility.yul\":758:761   */\n      dup3\n        /* \"#utility.yul\":751:788   */\n      mstore\n        /* \"#utility.yul\":676:794   */\n      pop\n      pop\n      jump\t// out\n        /* \"#utility.yul\":800:1022   */\n    tag_13:\n        /* \"#utility.yul\":893:897   */\n      0x00\n        /* \"#utility.yul\":931:933   */\n      0x20\n        /* \"#utility.yul\":920:929   */\n      dup3\n        /* \"#utility.yul\":916:934   */\n      add\n        /* \"#utility.yul\":908:934   */\n      swap1\n      pop\n        /* \"#utility.yul\":944:1015   */\n      tag_45\n        /* \"#utility.yul\":1012:1013   */\n      0x00\n        /* \"#utility.yul\":1001:1010   */\n      dup4\n        /* \"#utility.yul\":997:1014   */\n      add\n        /* \"#utility.yul\":988:994   */\n      dup5\n        /* \"#utility.yul\":944:1015   */\n      tag_26\n      jump\t// in\n    tag_45:\n        /* \"#utility.yul\":800:1022   */\n      swap3\n      swap2\n      pop\n      pop\n      jump\t// out\n        /* \"#utility.yul\":1109:1226   */\n    tag_28:\n        /* \"#utility.yul\":1218:1219   */\n      0x00\n        /* \"#utility.yul\":1215:1216   */\n      0x00\n        /* \"#utility.yul\":1208:1220   */\n      revert\n        /* \"#utility.yul\":1355:1477   */\n    tag_30:\n        /* \"#utility.yul\":1428:1452   */\n      tag_50\n        /* \"#utility.yul\":1446:1451   */\n      dup2\n        /* \"#utility.yul\":1428:1452   */\n      tag_25\n      jump\t// in\n    tag_50:\n        /* \"#utility.yul\":1421:1426   */\n      dup2\n        /* \"#utility.yul\":1418:1453   */\n      eq\n        /* \"#utility.yul\":1408:1471   */\n      tag_51\n      jumpi\n        /* \"#utility.yul\":1467:1468   */\n      0x00\n        /* \"#utility.yul\":1464:1465   */\n      0x00\n        /* \"#utility.yul\":1457:1469   */\n      revert\n        /* \"#utility.yul\":1408:1471   */\n    tag_51:\n        /* \"#utility.yul\":1355:1477   */\n      pop\n      jump\t// out\n        /* \"#utility.yul\":1483:1622   */\n    tag_31:\n        /* \"#utility.yul\":1529:1534   */\n      0x00\n        /* \"#utility.yul\":1567:1573   */\n      dup2\n        /* \"#utility.yul\":1554:1574   */\n      calldataload\n        /* \"#utility.yul\":1545:1574   */\n      swap1\n      pop\n        /* \"#utility.yul\":1583:1616   */\n      tag_53\n        /* \"#utility.yul\":1610:1615   */\n      dup2\n        /* \"#utility.yul\":1583:1616   */\n      tag_30\n      jump\t// in\n    tag_53:\n        /* \"#utility.yul\":1483:1622   */\n      swap3\n      swap2\n      pop\n      pop\n      jump\t// out\n        /* \"#utility.yul\":1628:2102   */\n    tag_16:\n        /* \"#utility.yul\":1696:1702   */\n      0x00\n        /* \"#utility.yul\":1704:1710   */\n      0x00\n        /* \"#utility.yul\":1753:1755   */\n      0x40\n        /* \"#utility.yul\":1741:1750   */\n      dup4\n        /* \"#utility.yul\":1732:1739   */\n      dup6\n        /* \"#utility.yul\":1728:1751   */\n      sub\n        /* \"#utility.yul\":1724:1756   */\n      slt\n        /* \"#utility.yul\":1721:1840   */\n      iszero\n      tag_55\n      jumpi\n        /* \"#utility.yul\":1759:1838   */\n      tag_56\n      tag_28\n      jump\t// in\n    tag_56:\n        /* \"#utility.yul\":1721:1840   */\n    tag_55:\n        /* \"#utility.yul\":1879:1880   */\n      0x00\n        /* \"#utility.yul\":1904:1957   */\n      tag_57\n        /* \"#utility.yul\":1949:1956   */\n      dup6\n        /* \"#utility.yul\":1940:1946   */\n      dup3\n        /* \"#utility.yul\":1929:1938   */\n      dup7\n        /* \"#utility.yul\":1925:1947   */\n      add\n        /* \"#utility.yul\":1904:1957   */\n      tag_31\n      jump\t// in\n    tag_57:\n        /* \"#utility.yul\":1894:1957   */\n      swap3\n      pop\n        /* \"#utility.yul\":1850:1967   */\n      pop\n        /* \"#utility.yul\":2006:2008   */\n      0x20\n        /* \"#utility.yul\":2032:2085   */\n      tag_58\n        /* \"#utility.yul\":2077:2084   */\n      dup6\n        /* \"#utility.yul\":2068:2074   */\n      dup3\n        /* \"#utility.yul\":2057:2066   */\n      dup7\n        /* \"#utility.yul\":2053:2075   */\n      add\n        /* \"#utility.yul\":2032:2085   */\n      tag_31\n      jump\t// in\n    tag_58:\n        /* \"#utility.yul\":2022:2085   */\n      swap2\n      pop\n        /* \"#utility.yul\":1977:2095   */\n      pop\n        /* \"#utility.yul\":1628:2102   */\n      swap3\n      pop\n      swap3\n      swap1\n      pop\n      jump\t// out\n        /* \"#utility.yul\":2108:2288   */\n    tag_32:\n        /* \"#utility.yul\":2156:2233   */\n      0x4e487b7100000000000000000000000000000000000000000000000000000000\n        /* \"#utility.yul\":2153:2154   */\n      0x00\n        /* \"#utility.yul\":2146:2234   */\n      mstore\n        /* \"#utility.yul\":2253:2257   */\n      0x11\n        /* \"#utility.yul\":2250:2251   */\n      0x04\n        /* \"#utility.yul\":2243:2258   */\n      mstore\n        /* \"#utility.yul\":2277:2281   */\n      0x24\n        /* \"#utility.yul\":2274:2275   */\n      0x00\n        /* \"#utility.yul\":2267:2282   */\n      revert\n        /* \"#utility.yul\":2294:2485   */\n    tag_21:\n        /* \"#utility.yul\":2334:2337   */\n      0x00\n        /* \"#utility.yul\":2353:2373   */\n      tag_61\n        /* \"#utility.yul\":2371:2372   */\n      dup3\n        /* \"#utility.yul\":2353:2373   */\n      tag_25\n      jump\t// in\n    tag_61:\n        /* \"#utility.yul\":2348:2373   */\n      swap2\n      pop\n        /* \"#utility.yul\":2387:2407   */\n      tag_62\n        /* \"#utility.yul\":2405:2406   */\n      dup4\n        /* \"#utility.yul\":2387:2407   */\n      tag_25\n      jump\t// in\n    tag_62:\n        /* \"#utility.yul\":2382:2407   */\n      swap3\n      pop\n        /* \"#utility.yul\":2430:2431   */\n      dup3\n        /* \"#utility.yul\":2427:2428   */\n      dup3\n        /* \"#utility.yul\":2423:2432   */\n      add\n        /* \"#utility.yul\":2416:2432   */\n      swap1\n      pop\n        /* \"#utility.yul\":2451:2454   */\n      dup1\n        /* \"#utility.yul\":2448:2449   */\n      dup3\n        /* \"#utility.yul\":2445:2455   */\n      gt\n        /* \"#utility.yul\":2442:2478   */\n      iszero\n      tag_63\n      jumpi\n        /* \"#utility.yul\":2458:2476   */\n      tag_64\n      tag_32\n      jump\t// in\n    tag_64:\n        /* \"#utility.yul\":2442:2478   */\n    tag_63:\n        /* \"#utility.yul\":2294:2485   */\n      swap3\n      swap2\n      pop\n      pop\n      jump\t// out\n\n    auxdata: 0xa2646970667358221220db9b556c8e16d55e767116e376e4908d400779c5c5c7f416827ddbf590d3ba2064736f6c634300081e0033\n}\n",
				"bytecode": {
					"linkReferences": {},
					"object": "6080604052348015600e575f5ffd5b503360015f6101000a81548173ffffffffffffffffffffffffffffffffffffffff021916908373ffffffffffffffffffffffffffffffffffffffff160217905550425f8190555061027e806100625f395ff3fe608060405234801561000f575f5ffd5b506004361061003f575f3560e01c80638da5cb5b14610043578063b80777ea14610061578063cad0899b1461007f575b5f5ffd5b61004b6100af565b6040516100589190610132565b60405180910390f35b6100696100d4565b6040516100769190610163565b60405180910390f35b610099600480360381019061009491906101aa565b6100d9565b6040516100a69190610163565b60405180910390f35b60015f9054906101000a900473ffffffffffffffffffffffffffffffffffffffff1681565b5f5481565b5f5f82846100e79190610215565b90508091505092915050565b5f73ffffffffffffffffffffffffffffffffffffffff82169050919050565b5f61011c826100f3565b9050919050565b61012c81610112565b82525050565b5f6020820190506101455f830184610123565b92915050565b5f819050919050565b61015d8161014b565b82525050565b5f6020820190506101765f830184610154565b92915050565b5f5ffd5b6101898161014b565b8114610193575f5ffd5b50565b5f813590506101a481610180565b92915050565b5f5f604083850312156101c0576101bf61017c565b5b5f6101cd85828601610196565b92505060206101de85828601610196565b9150509250929050565b7f4e487b71000000000000000000000000000000000000000000000000000000005f52601160045260245ffd5b5f61021f8261014b565b915061022a8361014b565b9250828201905080821115610242576102416101e8565b5b9291505056fea2646970667358221220db9b556c8e16d55e767116e376e4908d400779c5c5c7f416827ddbf590d3ba2064736f6c634300081e0033",
					"opcodes": "PUSH1 0x80 PUSH1 0x40 MSTORE CALLVALUE DUP1 ISZERO PUSH1 0xE JUMPI PUSH0 PUSH0 REVERT JUMPDEST POP CALLER PUSH1 0x1 PUSH0 PUSH2 0x100 EXP DUP2 SLOAD DUP2 PUSH20 0xFFFFFFFFFFFFFFFFFFFFFFFFFFFFFFFFFFFFFFFF MUL NOT AND SWAP1 DUP4 PUSH20 0xFFFFFFFFFFFFFFFFFFFFFFFFFFFFFFFFFFFFFFFF AND MUL OR SWAP1 SSTORE POP TIMESTAMP PUSH0 DUP2 SWAP1 SSTORE POP PUSH2 0x27E DUP1 PUSH2 0x62 PUSH0 CODECOPY PUSH0 RETURN INVALID PUSH1 0x80 PUSH1 0x40 MSTORE CALLVALUE DUP1 ISZERO PUSH2 0xF JUMPI PUSH0 PUSH0 REVERT JUMPDEST POP PUSH1 0x4 CALLDATASIZE LT PUSH2 0x3F JUMPI PUSH0 CALLDATALOAD PUSH1 0xE0 SHR DUP1 PUSH4 0x8DA5CB5B EQ PUSH2 0x43 JUMPI DUP1 PUSH4 0xB80777EA EQ PUSH2 0x61 JUMPI DUP1 PUSH4 0xCAD0899B EQ PUSH2 0x7F JUMPI JUMPDEST PUSH0 PUSH0 REVERT JUMPDEST PUSH2 0x4B PUSH2 0xAF JUMP JUMPDEST PUSH1 0x40 MLOAD PUSH2 0x58 SWAP2 SWAP1 PUSH2 0x132 JUMP JUMPDEST PUSH1 0x40 MLOAD DUP1 SWAP2 SUB SWAP1 RETURN JUMPDEST PUSH2 0x69 PUSH2 0xD4 JUMP JUMPDEST PUSH1 0x40 MLOAD PUSH2 0x76 SWAP2 SWAP1 PUSH2 0x163 JUMP JUMPDEST PUSH1 0x40 MLOAD DUP1 SWAP2 SUB SWAP1 RETURN JUMPDEST PUSH2 0x99 PUSH1 0x4 DUP1 CALLDATASIZE SUB DUP2 ADD SWAP1 PUSH2 0x94 SWAP2 SWAP1 PUSH2 0x1AA JUMP JUMPDEST PUSH2 0xD9 JUMP JUMPDEST PUSH1 0x40 MLOAD PUSH2 0xA6 SWAP2 SWAP1 PUSH2 0x163 JUMP JUMPDEST PUSH1 0x40 MLOAD DUP1 SWAP2 SUB SWAP1 RETURN JUMPDEST PUSH1 0x1 PUSH0 SWAP1 SLOAD SWAP1 PUSH2 0x100 EXP SWAP1 DIV PUSH20 0xFFFFFFFFFFFFFFFFFFFFFFFFFFFFFFFFFFFFFFFF AND DUP2 JUMP JUMPDEST PUSH0 SLOAD DUP2 JUMP JUMPDEST PUSH0 PUSH0 DUP3 DUP5 PUSH2 0xE7 SWAP2 SWAP1 PUSH2 0x215 JUMP JUMPDEST SWAP1 POP DUP1 SWAP2 POP POP SWAP3 SWAP2 POP POP JUMP JUMPDEST PUSH0 PUSH20 0xFFFFFFFFFFFFFFFFFFFFFFFFFFFFFFFFFFFFFFFF DUP3 AND SWAP1 POP SWAP2 SWAP1 POP JUMP JUMPDEST PUSH0 PUSH2 0x11C DUP3 PUSH2 0xF3 JUMP JUMPDEST SWAP1 POP SWAP2 SWAP1 POP JUMP JUMPDEST PUSH2 0x12C DUP2 PUSH2 0x112 JUMP JUMPDEST DUP3 MSTORE POP POP JUMP JUMPDEST PUSH0 PUSH1 0x20 DUP3 ADD SWAP1 POP PUSH2 0x145 PUSH0 DUP4 ADD DUP5 PUSH2 0x123 JUMP JUMPDEST SWAP3 SWAP2 POP POP JUMP JUMPDEST PUSH0 DUP2 SWAP1 POP SWAP2 SWAP1 POP JUMP JUMPDEST PUSH2 0x15D DUP2 PUSH2 0x14B JUMP JUMPDEST DUP3 MSTORE POP POP JUMP JUMPDEST PUSH0 PUSH1 0x20 DUP3 ADD SWAP1 POP PUSH2 0x176 PUSH0 DUP4 ADD DUP5 PUSH2 0x154 JUMP JUMPDEST SWAP3 SWAP2 POP POP JUMP JUMPDEST PUSH0 PUSH0 REVERT JUMPDEST PUSH2 0x189 DUP2 PUSH2 0x14B JUMP JUMPDEST DUP2 EQ PUSH2 0x193 JUMPI PUSH0 PUSH0 REVERT JUMPDEST POP JUMP JUMPDEST PUSH0 DUP2 CALLDATALOAD SWAP1 POP PUSH2 0x1A4 DUP2 PUSH2 0x180 JUMP JUMPDEST SWAP3 SWAP2 POP POP JUMP JUMPDEST PUSH0 PUSH0 PUSH1 0x40 DUP4 DUP6 SUB SLT ISZERO PUSH2 0x1C0 JUMPI PUSH2 0x1BF PUSH2 0x17C JUMP JUMPDEST JUMPDEST PUSH0 PUSH2 0x1CD DUP6 DUP3 DUP7 ADD PUSH2 0x196 JUMP JUMPDEST SWAP3 POP POP PUSH1 0x20 PUSH2 0x1DE DUP6 DUP3 DUP7 ADD PUSH2 0x196 JUMP JUMPDEST SWAP2 POP POP SWAP3 POP SWAP3 SWAP1 POP JUMP JUMPDEST PUSH32 0x4E487B7100000000000000000000000000000000000000000000000000000000 PUSH0 MSTORE PUSH1 0x11 PUSH1 0x4 MSTORE PUSH1 0x24 PUSH0 REVERT JUMPDEST PUSH0 PUSH2 0x21F DUP3 PUSH2 0x14B JUMP JUMPDEST SWAP2 POP PUSH2 0x22A DUP4 PUSH2 0x14B JUMP JUMPDEST SWAP3 POP DUP3 DUP3 ADD SWAP1 POP DUP1 DUP3 GT ISZERO PUSH2 0x242 JUMPI PUSH2 0x241 PUSH2 0x1E8 JUMP JUMPDEST JUMPDEST SWAP3 SWAP2 POP POP JUMP INVALID LOG2 PUSH5 0x6970667358 0x22 SLT KECCAK256 0xDB SWAP12 SSTORE PUSH13 0x8E16D55E767116E376E4908D40 SMOD PUSH26 0xC5C5C7F416827DDBF590D3BA2064736F6C634300081E00330000 "
				},
				"gasEstimates": {
					"creation": {
						"codeDepositCost": "127600",
						"executionCost": "46546",
						"totalCost": "174146"
					},
					"external": {
						"owner()": "2486",
						"sum(uint256,uint256)": "infinite",
						"timestamp()": "2424"
					}
				},
				"methodIdentifiers": {
					"owner()": "8da5cb5b",
					"sum(uint256,uint256)": "cad0899b",
					"timestamp()": "b80777ea"
				}
			},
			"storageLayout": {
				"storage": [
					{
						"astId": 3,
						"contract": "10_variable.sol:Var",
						"label": "timestamp",
						"offset": 0,
						"slot": "0",
						"type": "t_uint256"
					},
					{
						"astId": 5,
						"contract": "10_variable.sol:Var",
						"label": "owner",
						"offset": 0,
						"slot": "1",
						"type": "t_address"
					}
				],
				"types": {
					"t_address": {
						"encoding": "inplace",
						"label": "address",
						"numberOfBytes": "20"
					},
					"t_uint256": {
						"encoding": "inplace",
						"label": "uint256",
						"numberOfBytes": "32"
					}
				}
			},
			"userdoc": {
				"kind": "user",
				"methods": {},
				"version": 1
			}
		}
	}
}