{
	"19_VisibleWords.sol": {
		"Parent": {
			"abi": [
				{
					"inputs": [],
					"name": "externalFunc",
					"outputs": [
						{
							"internalType": "int256",
							"name": "",
							"type": "int256"
						}
					],
					"stateMutability": "view",
					"type": "function"
				},
				{
					"inputs": [],
					"name": "publicFunc",
					"outputs": [
						{
							"internalType": "int256",
							"name": "",
							"type": "int256"
						}
					],
					"stateMutability": "view",
					"type": "function"
				},
				{
					"inputs": [],
					"name": "publicValue",
					"outputs": [
						{
							"internalType": "int256",
							"name": "",
							"type": "int256"
						}
					],
					"stateMutability": "view",
					"type": "function"
				}
			],
			"devdoc": {
				"kind": "dev",
				"methods": {},
				"version": 1
			},
			"evm": {
				"assembly": "    /* \"19_VisibleWords.sol\":58:815  contract Parent {... */\n  mstore(0x40, 0x80)\n    /* \"19_VisibleWords.sol\":107:108  1 */\n  0x01\n    /* \"19_VisibleWords.sol\":80:108  int private privateValue = 1 */\n  0x00\n  sstore\n    /* \"19_VisibleWords.sol\":139:140  3 */\n  0x03\n    /* \"19_VisibleWords.sol\":114:140  int public publicValue = 3 */\n  0x01\n  sstore\n    /* \"19_VisibleWords.sol\":175:176  4 */\n  0x04\n    /* \"19_VisibleWords.sol\":146:176  int internal internalValue = 4 */\n  0x02\n  sstore\n    /* \"19_VisibleWords.sol\":58:815  contract Parent {... */\n  callvalue\n  dup1\n  iszero\n  tag_1\n  jumpi\n  revert(0x00, 0x00)\ntag_1:\n  pop\n  dataSize(sub_0)\n  dup1\n  dataOffset(sub_0)\n  0x00\n  codecopy\n  0x00\n  return\nstop\n\nsub_0: assembly {\n        /* \"19_VisibleWords.sol\":58:815  contract Parent {... */\n      mstore(0x40, 0x80)\n      callvalue\n      dup1\n      iszero\n      tag_1\n      jumpi\n      revert(0x00, 0x00)\n    tag_1:\n      pop\n      jumpi(tag_2, lt(calldatasize, 0x04))\n      shr(0xe0, calldataload(0x00))\n      dup1\n      0x42b148aa\n      eq\n      tag_3\n      jumpi\n      dup1\n      0x4b73383f\n      eq\n      tag_4\n      jumpi\n      dup1\n      0x59f12755\n      eq\n      tag_5\n      jumpi\n    tag_2:\n      revert(0x00, 0x00)\n        /* \"19_VisibleWords.sol\":694:813  function externalFunc() external view returns(int) {... */\n    tag_3:\n      tag_6\n      tag_7\n      jump\t// in\n    tag_6:\n      mload(0x40)\n      tag_8\n      swap2\n      swap1\n      tag_9\n      jump\t// in\n    tag_8:\n      mload(0x40)\n      dup1\n      swap2\n      sub\n      swap1\n      return\n        /* \"19_VisibleWords.sol\":452:565  function publicFunc() public view returns (int) {... */\n    tag_4:\n      tag_10\n      tag_11\n      jump\t// in\n    tag_10:\n      mload(0x40)\n      tag_12\n      swap2\n      swap1\n      tag_9\n      jump\t// in\n    tag_12:\n      mload(0x40)\n      dup1\n      swap2\n      sub\n      swap1\n      return\n        /* \"19_VisibleWords.sol\":114:140  int public publicValue = 3 */\n    tag_5:\n      tag_13\n      tag_14\n      jump\t// in\n    tag_13:\n      mload(0x40)\n      tag_15\n      swap2\n      swap1\n      tag_9\n      jump\t// in\n    tag_15:\n      mload(0x40)\n      dup1\n      swap2\n      sub\n      swap1\n      return\n        /* \"19_VisibleWords.sol\":694:813  function externalFunc() external view returns(int) {... */\n    tag_7:\n        /* \"19_VisibleWords.sol\":740:743  int */\n      0x00\n        /* \"19_VisibleWords.sol\":794:806  privateValue */\n      sload(0x00)\n        /* \"19_VisibleWords.sol\":778:791  internalValue */\n      sload(0x02)\n        /* \"19_VisibleWords.sol\":762:775  internalValue */\n      sload(0x02)\n        /* \"19_VisibleWords.sol\":762:791  internalValue + internalValue */\n      tag_17\n      swap2\n      swap1\n      tag_18\n      jump\t// in\n    tag_17:\n        /* \"19_VisibleWords.sol\":762:806  internalValue + internalValue + privateValue */\n      tag_19\n      swap2\n      swap1\n      tag_18\n      jump\t// in\n    tag_19:\n        /* \"19_VisibleWords.sol\":755:806  return internalValue + internalValue + privateValue */\n      swap1\n      pop\n        /* \"19_VisibleWords.sol\":694:813  function externalFunc() external view returns(int) {... */\n      swap1\n      jump\t// out\n        /* \"19_VisibleWords.sol\":452:565  function publicFunc() public view returns (int) {... */\n    tag_11:\n        /* \"19_VisibleWords.sol\":495:498  int */\n      0x00\n        /* \"19_VisibleWords.sol\":545:558  internalValue */\n      sload(0x02)\n        /* \"19_VisibleWords.sol\":531:542  publicValue */\n      sload(0x01)\n        /* \"19_VisibleWords.sol\":517:528  publicValue */\n      sload(0x01)\n        /* \"19_VisibleWords.sol\":517:542  publicValue + publicValue */\n      tag_21\n      swap2\n      swap1\n      tag_18\n      jump\t// in\n    tag_21:\n        /* \"19_VisibleWords.sol\":517:558  publicValue + publicValue + internalValue */\n      tag_22\n      swap2\n      swap1\n      tag_18\n      jump\t// in\n    tag_22:\n        /* \"19_VisibleWords.sol\":510:558  return publicValue + publicValue + internalValue */\n      swap1\n      pop\n        /* \"19_VisibleWords.sol\":452:565  function publicFunc() public view returns (int) {... */\n      swap1\n      jump\t// out\n        /* \"19_VisibleWords.sol\":114:140  int public publicValue = 3 */\n    tag_14:\n      sload(0x01)\n      dup2\n      jump\t// out\n        /* \"#utility.yul\":7:83   */\n    tag_23:\n        /* \"#utility.yul\":43:50   */\n      0x00\n        /* \"#utility.yul\":72:77   */\n      dup2\n        /* \"#utility.yul\":61:77   */\n      swap1\n      pop\n        /* \"#utility.yul\":7:83   */\n      swap2\n      swap1\n      pop\n      jump\t// out\n        /* \"#utility.yul\":89:204   */\n    tag_24:\n        /* \"#utility.yul\":174:197   */\n      tag_29\n        /* \"#utility.yul\":191:196   */\n      dup2\n        /* \"#utility.yul\":174:197   */\n      tag_23\n      jump\t// in\n    tag_29:\n        /* \"#utility.yul\":169:172   */\n      dup3\n        /* \"#utility.yul\":162:198   */\n      mstore\n        /* \"#utility.yul\":89:204   */\n      pop\n      pop\n      jump\t// out\n        /* \"#utility.yul\":210:428   */\n    tag_9:\n        /* \"#utility.yul\":301:305   */\n      0x00\n        /* \"#utility.yul\":339:341   */\n      0x20\n        /* \"#utility.yul\":328:337   */\n      dup3\n        /* \"#utility.yul\":324:342   */\n      add\n        /* \"#utility.yul\":316:342   */\n      swap1\n      pop\n        /* \"#utility.yul\":352:421   */\n      tag_31\n        /* \"#utility.yul\":418:419   */\n      0x00\n        /* \"#utility.yul\":407:416   */\n      dup4\n        /* \"#utility.yul\":403:420   */\n      add\n        /* \"#utility.yul\":394:400   */\n      dup5\n        /* \"#utility.yul\":352:421   */\n      tag_24\n      jump\t// in\n    tag_31:\n        /* \"#utility.yul\":210:428   */\n      swap3\n      swap2\n      pop\n      pop\n      jump\t// out\n        /* \"#utility.yul\":434:614   */\n    tag_25:\n        /* \"#utility.yul\":482:559   */\n      0x4e487b7100000000000000000000000000000000000000000000000000000000\n        /* \"#utility.yul\":479:480   */\n      0x00\n        /* \"#utility.yul\":472:560   */\n      mstore\n        /* \"#utility.yul\":579:583   */\n      0x11\n        /* \"#utility.yul\":576:577   */\n      0x04\n        /* \"#utility.yul\":569:584   */\n      mstore\n        /* \"#utility.yul\":603:607   */\n      0x24\n        /* \"#utility.yul\":600:601   */\n      0x00\n        /* \"#utility.yul\":593:608   */\n      revert\n        /* \"#utility.yul\":620:995   */\n    tag_18:\n        /* \"#utility.yul\":659:662   */\n      0x00\n        /* \"#utility.yul\":678:697   */\n      tag_34\n        /* \"#utility.yul\":695:696   */\n      dup3\n        /* \"#utility.yul\":678:697   */\n      tag_23\n      jump\t// in\n    tag_34:\n        /* \"#utility.yul\":673:697   */\n      swap2\n      pop\n        /* \"#utility.yul\":711:730   */\n      tag_35\n        /* \"#utility.yul\":728:729   */\n      dup4\n        /* \"#utility.yul\":711:730   */\n      tag_23\n      jump\t// in\n    tag_35:\n        /* \"#utility.yul\":706:730   */\n      swap3\n      pop\n        /* \"#utility.yul\":753:754   */\n      dup3\n        /* \"#utility.yul\":750:751   */\n      dup3\n        /* \"#utility.yul\":746:755   */\n      add\n        /* \"#utility.yul\":739:755   */\n      swap1\n      pop\n        /* \"#utility.yul\":951:952   */\n      dup3\n        /* \"#utility.yul\":946:949   */\n      dup2\n        /* \"#utility.yul\":942:953   */\n      slt\n        /* \"#utility.yul\":935:954   */\n      iszero\n        /* \"#utility.yul\":931:932   */\n      0x00\n        /* \"#utility.yul\":928:929   */\n      dup4\n        /* \"#utility.yul\":924:933   */\n      slt\n        /* \"#utility.yul\":920:955   */\n      and\n        /* \"#utility.yul\":903:904   */\n      dup4\n        /* \"#utility.yul\":898:901   */\n      dup3\n        /* \"#utility.yul\":894:905   */\n      slt\n        /* \"#utility.yul\":889:890   */\n      0x00\n        /* \"#utility.yul\":886:887   */\n      dup5\n        /* \"#utility.yul\":882:891   */\n      slt\n        /* \"#utility.yul\":875:892   */\n      iszero\n        /* \"#utility.yul\":871:906   */\n      and\n        /* \"#utility.yul\":855:965   */\n      or\n        /* \"#utility.yul\":852:988   */\n      iszero\n      tag_36\n      jumpi\n        /* \"#utility.yul\":968:986   */\n      tag_37\n      tag_25\n      jump\t// in\n    tag_37:\n        /* \"#utility.yul\":852:988   */\n    tag_36:\n        /* \"#utility.yul\":620:995   */\n      swap3\n      swap2\n      pop\n      pop\n      jump\t// out\n\n    auxdata: 0xa264697066735822122080ccc430db7b7112e37554a1d9870db84140d8cdf3a7e970541b82d338f4222b64736f6c634300081e0033\n}\n",
				"bytecode": {
					"linkReferences": {},
					"object": "608060405260015f5560036001556004600255348015601c575f5ffd5b506101bd8061002a5f395ff3fe608060405234801561000f575f5ffd5b506004361061003f575f3560e01c806342b148aa146100435780634b73383f1461006157806359f127551461007f575b5f5ffd5b61004b61009d565b6040516100589190610100565b60405180910390f35b6100696100bf565b6040516100769190610100565b60405180910390f35b6100876100e2565b6040516100949190610100565b60405180910390f35b5f5f546002546002546100b09190610146565b6100ba9190610146565b905090565b5f6002546001546001546100d39190610146565b6100dd9190610146565b905090565b60015481565b5f819050919050565b6100fa816100e8565b82525050565b5f6020820190506101135f8301846100f1565b92915050565b7f4e487b71000000000000000000000000000000000000000000000000000000005f52601160045260245ffd5b5f610150826100e8565b915061015b836100e8565b92508282019050828112155f8312168382125f84121516171561018157610180610119565b5b9291505056fea264697066735822122080ccc430db7b7112e37554a1d9870db84140d8cdf3a7e970541b82d338f4222b64736f6c634300081e0033",
					"opcodes": "PUSH1 0x80 PUSH1 0x40 MSTORE PUSH1 0x1 PUSH0 SSTORE PUSH1 0x3 PUSH1 0x1 SSTORE PUSH1 0x4 PUSH1 0x2 SSTORE CALLVALUE DUP1 ISZERO PUSH1 0x1C JUMPI PUSH0 PUSH0 REVERT JUMPDEST POP PUSH2 0x1BD DUP1 PUSH2 0x2A PUSH0 CODECOPY PUSH0 RETURN INVALID PUSH1 0x80 PUSH1 0x40 MSTORE CALLVALUE DUP1 ISZERO PUSH2 0xF JUMPI PUSH0 PUSH0 REVERT JUMPDEST POP PUSH1 0x4 CALLDATASIZE LT PUSH2 0x3F JUMPI PUSH0 CALLDATALOAD PUSH1 0xE0 SHR DUP1 PUSH4 0x42B148AA EQ PUSH2 0x43 JUMPI DUP1 PUSH4 0x4B73383F EQ PUSH2 0x61 JUMPI DUP1 PUSH4 0x59F12755 EQ PUSH2 0x7F JUMPI JUMPDEST PUSH0 PUSH0 REVERT JUMPDEST PUSH2 0x4B PUSH2 0x9D JUMP JUMPDEST PUSH1 0x40 MLOAD PUSH2 0x58 SWAP2 SWAP1 PUSH2 0x100 JUMP JUMPDEST PUSH1 0x40 MLOAD DUP1 SWAP2 SUB SWAP1 RETURN JUMPDEST PUSH2 0x69 PUSH2 0xBF JUMP JUMPDEST PUSH1 0x40 MLOAD PUSH2 0x76 SWAP2 SWAP1 PUSH2 0x100 JUMP JUMPDEST PUSH1 0x40 MLOAD DUP1 SWAP2 SUB SWAP1 RETURN JUMPDEST PUSH2 0x87 PUSH2 0xE2 JUMP JUMPDEST PUSH1 0x40 MLOAD PUSH2 0x94 SWAP2 SWAP1 PUSH2 0x100 JUMP JUMPDEST PUSH1 0x40 MLOAD DUP1 SWAP2 SUB SWAP1 RETURN JUMPDEST PUSH0 PUSH0 SLOAD PUSH1 0x2 SLOAD PUSH1 0x2 SLOAD PUSH2 0xB0 SWAP2 SWAP1 PUSH2 0x146 JUMP JUMPDEST PUSH2 0xBA SWAP2 SWAP1 PUSH2 0x146 JUMP JUMPDEST SWAP1 POP SWAP1 JUMP JUMPDEST PUSH0 PUSH1 0x2 SLOAD PUSH1 0x1 SLOAD PUSH1 0x1 SLOAD PUSH2 0xD3 SWAP2 SWAP1 PUSH2 0x146 JUMP JUMPDEST PUSH2 0xDD SWAP2 SWAP1 PUSH2 0x146 JUMP JUMPDEST SWAP1 POP SWAP1 JUMP JUMPDEST PUSH1 0x1 SLOAD DUP2 JUMP JUMPDEST PUSH0 DUP2 SWAP1 POP SWAP2 SWAP1 POP JUMP JUMPDEST PUSH2 0xFA DUP2 PUSH2 0xE8 JUMP JUMPDEST DUP3 MSTORE POP POP JUMP JUMPDEST PUSH0 PUSH1 0x20 DUP3 ADD SWAP1 POP PUSH2 0x113 PUSH0 DUP4 ADD DUP5 PUSH2 0xF1 JUMP JUMPDEST SWAP3 SWAP2 POP POP JUMP JUMPDEST PUSH32 0x4E487B7100000000000000000000000000000000000000000000000000000000 PUSH0 MSTORE PUSH1 0x11 PUSH1 0x4 MSTORE PUSH1 0x24 PUSH0 REVERT JUMPDEST PUSH0 PUSH2 0x150 DUP3 PUSH2 0xE8 JUMP JUMPDEST SWAP2 POP PUSH2 0x15B DUP4 PUSH2 0xE8 JUMP JUMPDEST SWAP3 POP DUP3 DUP3 ADD SWAP1 POP DUP3 DUP2 SLT ISZERO PUSH0 DUP4 SLT AND DUP4 DUP3 SLT PUSH0 DUP5 SLT ISZERO AND OR ISZERO PUSH2 0x181 JUMPI PUSH2 0x180 PUSH2 0x119 JUMP JUMPDEST JUMPDEST SWAP3 SWAP2 POP POP JUMP INVALID LOG2 PUSH5 0x6970667358 0x22 SLT KECCAK256 DUP1 0xCC 0xC4 ADDRESS 0xDB PUSH28 0x7112E37554A1D9870DB84140D8CDF3A7E970541B82D338F4222B6473 PUSH16 0x6C634300081E00330000000000000000 "
				},
				"gasEstimates": {
					"creation": {
						"codeDepositCost": "89000",
						"executionCost": "66450",
						"totalCost": "155450"
					},
					"external": {
						"externalFunc()": "infinite",
						"publicFunc()": "infinite",
						"publicValue()": "2447"
					},
					"internal": {
						"internalFunc()": "infinite",
						"privateFunc()": "infinite"
					}
				},
				"methodIdentifiers": {
					"externalFunc()": "42b148aa",
					"publicFunc()": "4b73383f",
					"publicValue()": "59f12755"
				}
			},
			"storageLayout": {
				"storage": [
					{
						"astId": 4,
						"contract": "19_VisibleWords.sol:Parent",
						"label": "privateValue",
						"offset": 0,
						"slot": "0",
						"type": "t_int256"
					},
					{
						"astId": 7,
						"contract": "19_VisibleWords.sol:Parent",
						"label": "publicValue",
						"offset": 0,
						"slot": "1",
						"type": "t_int256"
					},
					{
						"astId": 10,
						"contract": "19_VisibleWords.sol:Parent",
						"label": "internalValue",
						"offset": 0,
						"slot": "2",
						"type": "t_int256"
					}
				],
				"types": {
					"t_int256": {
						"encoding": "inplace",
						"label": "int256",
						"numberOfBytes": "32"
					}
				}
			},
			"userdoc": {
				"kind": "user",
				"methods": {},
				"version": 1
			}
		}
	}
}