{
	"22_delegateCall.sol": {
		"ProxyContract": {
			"abi": [
				{
					"inputs": [
						{
							"internalType": "address",
							"name": "_logicContract",
							"type": "address"
						}
					],
					"stateMutability": "nonpayable",
					"type": "constructor"
				},
				{
					"stateMutability": "payable",
					"type": "fallback"
				},
				{
					"inputs": [
						{
							"internalType": "address",
							"name": "_logicContract",
							"type": "address"
						}
					],
					"name": "SetLogicContract",
					"outputs": [],
					"stateMutability": "nonpayable",
					"type": "function"
				},
				{
					"inputs": [],
					"name": "logicContract",
					"outputs": [
						{
							"internalType": "address",
							"name": "",
							"type": "address"
						}
					],
					"stateMutability": "view",
					"type": "function"
				},
				{
					"inputs": [],
					"name": "value",
					"outputs": [
						{
							"internalType": "uint256",
							"name": "",
							"type": "uint256"
						}
					],
					"stateMutability": "view",
					"type": "function"
				},
				{
					"stateMutability": "payable",
					"type": "receive"
				}
			],
			"devdoc": {
				"kind": "dev",
				"methods": {},
				"version": 1
			},
			"evm": {
				"assembly": "    /* \"22_delegateCall.sol\":397:1040  contract ProxyContract {... */\n  mstore(0x40, 0x80)\n    /* \"22_delegateCall.sol\":539:623  constructor(address _logicContract ) {... */\n  callvalue\n  dup1\n  iszero\n  tag_1\n  jumpi\n  revert(0x00, 0x00)\ntag_1:\n  pop\n  mload(0x40)\n  sub(codesize, bytecodeSize)\n  dup1\n  bytecodeSize\n  dup4\n  codecopy\n  dup2\n  dup2\n  add\n  0x40\n  mstore\n  dup2\n  add\n  swap1\n  tag_2\n  swap2\n  swap1\n  tag_3\n  jump\t// in\ntag_2:\n    /* \"22_delegateCall.sol\":602:616  _logicContract */\n  dup1\n    /* \"22_delegateCall.sol\":586:599  logicContract */\n  0x01\n  0x00\n    /* \"22_delegateCall.sol\":586:616  logicContract = _logicContract */\n  0x0100\n  exp\n  dup2\n  sload\n  dup2\n  0xffffffffffffffffffffffffffffffffffffffff\n  mul\n  not\n  and\n  swap1\n  dup4\n  0xffffffffffffffffffffffffffffffffffffffff\n  and\n  mul\n  or\n  swap1\n  sstore\n  pop\n    /* \"22_delegateCall.sol\":539:623  constructor(address _logicContract ) {... */\n  pop\n    /* \"22_delegateCall.sol\":397:1040  contract ProxyContract {... */\n  jump(tag_6)\n    /* \"#utility.yul\":88:205   */\ntag_8:\n    /* \"#utility.yul\":197:198   */\n  0x00\n    /* \"#utility.yul\":194:195   */\n  0x00\n    /* \"#utility.yul\":187:199   */\n  revert\n    /* \"#utility.yul\":334:460   */\ntag_10:\n    /* \"#utility.yul\":371:378   */\n  0x00\n    /* \"#utility.yul\":411:453   */\n  0xffffffffffffffffffffffffffffffffffffffff\n    /* \"#utility.yul\":404:409   */\n  dup3\n    /* \"#utility.yul\":400:454   */\n  and\n    /* \"#utility.yul\":389:454   */\n  swap1\n  pop\n    /* \"#utility.yul\":334:460   */\n  swap2\n  swap1\n  pop\n  jump\t// out\n    /* \"#utility.yul\":466:562   */\ntag_11:\n    /* \"#utility.yul\":503:510   */\n  0x00\n    /* \"#utility.yul\":532:556   */\n  tag_20\n    /* \"#utility.yul\":550:555   */\n  dup3\n    /* \"#utility.yul\":532:556   */\n  tag_10\n  jump\t// in\ntag_20:\n    /* \"#utility.yul\":521:556   */\n  swap1\n  pop\n    /* \"#utility.yul\":466:562   */\n  swap2\n  swap1\n  pop\n  jump\t// out\n    /* \"#utility.yul\":568:690   */\ntag_12:\n    /* \"#utility.yul\":641:665   */\n  tag_22\n    /* \"#utility.yul\":659:664   */\n  dup2\n    /* \"#utility.yul\":641:665   */\n  tag_11\n  jump\t// in\ntag_22:\n    /* \"#utility.yul\":634:639   */\n  dup2\n    /* \"#utility.yul\":631:666   */\n  eq\n    /* \"#utility.yul\":621:684   */\n  tag_23\n  jumpi\n    /* \"#utility.yul\":680:681   */\n  0x00\n    /* \"#utility.yul\":677:678   */\n  0x00\n    /* \"#utility.yul\":670:682   */\n  revert\n    /* \"#utility.yul\":621:684   */\ntag_23:\n    /* \"#utility.yul\":568:690   */\n  pop\n  jump\t// out\n    /* \"#utility.yul\":696:839   */\ntag_13:\n    /* \"#utility.yul\":753:758   */\n  0x00\n    /* \"#utility.yul\":784:790   */\n  dup2\n    /* \"#utility.yul\":778:791   */\n  mload\n    /* \"#utility.yul\":769:791   */\n  swap1\n  pop\n    /* \"#utility.yul\":800:833   */\n  tag_25\n    /* \"#utility.yul\":827:832   */\n  dup2\n    /* \"#utility.yul\":800:833   */\n  tag_12\n  jump\t// in\ntag_25:\n    /* \"#utility.yul\":696:839   */\n  swap3\n  swap2\n  pop\n  pop\n  jump\t// out\n    /* \"#utility.yul\":845:1196   */\ntag_3:\n    /* \"#utility.yul\":915:921   */\n  0x00\n    /* \"#utility.yul\":964:966   */\n  0x20\n    /* \"#utility.yul\":952:961   */\n  dup3\n    /* \"#utility.yul\":943:950   */\n  dup5\n    /* \"#utility.yul\":939:962   */\n  sub\n    /* \"#utility.yul\":935:967   */\n  slt\n    /* \"#utility.yul\":932:1051   */\n  iszero\n  tag_27\n  jumpi\n    /* \"#utility.yul\":970:1049   */\n  tag_28\n  tag_8\n  jump\t// in\ntag_28:\n    /* \"#utility.yul\":932:1051   */\ntag_27:\n    /* \"#utility.yul\":1090:1091   */\n  0x00\n    /* \"#utility.yul\":1115:1179   */\n  tag_29\n    /* \"#utility.yul\":1171:1178   */\n  dup5\n    /* \"#utility.yul\":1162:1168   */\n  dup3\n    /* \"#utility.yul\":1151:1160   */\n  dup6\n    /* \"#utility.yul\":1147:1169   */\n  add\n    /* \"#utility.yul\":1115:1179   */\n  tag_13\n  jump\t// in\ntag_29:\n    /* \"#utility.yul\":1105:1179   */\n  swap2\n  pop\n    /* \"#utility.yul\":1061:1189   */\n  pop\n    /* \"#utility.yul\":845:1196   */\n  swap3\n  swap2\n  pop\n  pop\n  jump\t// out\n    /* \"22_delegateCall.sol\":397:1040  contract ProxyContract {... */\ntag_6:\n  dataSize(sub_0)\n  dup1\n  dataOffset(sub_0)\n  0x00\n  codecopy\n  0x00\n  return\nstop\n\nsub_0: assembly {\n        /* \"22_delegateCall.sol\":397:1040  contract ProxyContract {... */\n      mstore(0x40, 0x80)\n      jumpi(tag_1, lt(calldatasize, 0x04))\n      shr(0xe0, calldataload(0x00))\n      dup1\n      0x3fa4f245\n      eq\n      tag_3\n      jumpi\n      dup1\n      0x9b3fb34a\n      eq\n      tag_4\n      jumpi\n      dup1\n      0xcc0e97c9\n      eq\n      tag_5\n      jumpi\n      jump(tag_2)\n    tag_1:\n      jumpi(tag_2, calldatasize)\n      stop\n    tag_2:\n        /* \"22_delegateCall.sol\":929:941  bool success */\n      0x00\n        /* \"22_delegateCall.sol\":946:959  logicContract */\n      0x01\n      0x00\n      swap1\n      sload\n      swap1\n      0x0100\n      exp\n      swap1\n      div\n      0xffffffffffffffffffffffffffffffffffffffff\n      and\n        /* \"22_delegateCall.sol\":946:972  logicContract.delegatecall */\n      0xffffffffffffffffffffffffffffffffffffffff\n      and\n        /* \"22_delegateCall.sol\":973:981  msg.data */\n      0x00\n      calldatasize\n        /* \"22_delegateCall.sol\":946:982  logicContract.delegatecall(msg.data) */\n      mload(0x40)\n      tag_10\n      swap3\n      swap2\n      swap1\n      tag_11\n      jump\t// in\n    tag_10:\n      0x00\n      mload(0x40)\n      dup1\n      dup4\n      sub\n      dup2\n      dup6\n      gas\n      delegatecall\n      swap2\n      pop\n      pop\n      returndatasize\n      dup1\n      0x00\n      dup2\n      eq\n      tag_14\n      jumpi\n      mload(0x40)\n      swap2\n      pop\n      and(add(returndatasize, 0x3f), not(0x1f))\n      dup3\n      add\n      0x40\n      mstore\n      returndatasize\n      dup3\n      mstore\n      returndatasize\n      0x00\n      0x20\n      dup5\n      add\n      returndatacopy\n      jump(tag_13)\n    tag_14:\n      0x60\n      swap2\n      pop\n    tag_13:\n      pop\n        /* \"22_delegateCall.sol\":928:982  (bool success,) = logicContract.delegatecall(msg.data) */\n      pop\n      swap1\n      pop\n        /* \"22_delegateCall.sol\":1000:1007  success */\n      dup1\n        /* \"22_delegateCall.sol\":992:1031  require(success, \"Delegatecall failed\") */\n      tag_15\n      jumpi\n      mload(0x40)\n      0x08c379a000000000000000000000000000000000000000000000000000000000\n      dup2\n      mstore\n      0x04\n      add\n      tag_16\n      swap1\n      tag_17\n      jump\t// in\n    tag_16:\n      mload(0x40)\n      dup1\n      swap2\n      sub\n      swap1\n      revert\n    tag_15:\n        /* \"22_delegateCall.sol\":831:1038  {... */\n      stop\n        /* \"22_delegateCall.sol\":426:446  uint256 public value */\n    tag_3:\n      callvalue\n      dup1\n      iszero\n      tag_18\n      jumpi\n      revert(0x00, 0x00)\n    tag_18:\n      pop\n      tag_19\n      tag_20\n      jump\t// in\n    tag_19:\n      mload(0x40)\n      tag_21\n      swap2\n      swap1\n      tag_22\n      jump\t// in\n    tag_21:\n      mload(0x40)\n      dup1\n      swap2\n      sub\n      swap1\n      return\n        /* \"22_delegateCall.sol\":629:763  function SetLogicContract(address _logicContract) public {... */\n    tag_4:\n      callvalue\n      dup1\n      iszero\n      tag_23\n      jumpi\n      revert(0x00, 0x00)\n    tag_23:\n      pop\n      tag_24\n      0x04\n      dup1\n      calldatasize\n      sub\n      dup2\n      add\n      swap1\n      tag_25\n      swap2\n      swap1\n      tag_26\n      jump\t// in\n    tag_25:\n      tag_27\n      jump\t// in\n    tag_24:\n      stop\n        /* \"22_delegateCall.sol\":504:532  address public logicContract */\n    tag_5:\n      callvalue\n      dup1\n      iszero\n      tag_28\n      jumpi\n      revert(0x00, 0x00)\n    tag_28:\n      pop\n      tag_29\n      tag_30\n      jump\t// in\n    tag_29:\n      mload(0x40)\n      tag_31\n      swap2\n      swap1\n      tag_32\n      jump\t// in\n    tag_31:\n      mload(0x40)\n      dup1\n      swap2\n      sub\n      swap1\n      return\n        /* \"22_delegateCall.sol\":426:446  uint256 public value */\n    tag_20:\n      sload(0x00)\n      dup2\n      jump\t// out\n        /* \"22_delegateCall.sol\":629:763  function SetLogicContract(address _logicContract) public {... */\n    tag_27:\n        /* \"22_delegateCall.sol\":742:756  _logicContract */\n      dup1\n        /* \"22_delegateCall.sol\":726:739  logicContract */\n      0x01\n      0x00\n        /* \"22_delegateCall.sol\":726:756  logicContract = _logicContract */\n      0x0100\n      exp\n      dup2\n      sload\n      dup2\n      0xffffffffffffffffffffffffffffffffffffffff\n      mul\n      not\n      and\n      swap1\n      dup4\n      0xffffffffffffffffffffffffffffffffffffffff\n      and\n      mul\n      or\n      swap1\n      sstore\n      pop\n        /* \"22_delegateCall.sol\":629:763  function SetLogicContract(address _logicContract) public {... */\n      pop\n      jump\t// out\n        /* \"22_delegateCall.sol\":504:532  address public logicContract */\n    tag_30:\n      0x01\n      0x00\n      swap1\n      sload\n      swap1\n      0x0100\n      exp\n      swap1\n      div\n      0xffffffffffffffffffffffffffffffffffffffff\n      and\n      dup2\n      jump\t// out\n        /* \"#utility.yul\":7:154   */\n    tag_34:\n        /* \"#utility.yul\":108:119   */\n      0x00\n        /* \"#utility.yul\":145:148   */\n      dup2\n        /* \"#utility.yul\":130:148   */\n      swap1\n      pop\n        /* \"#utility.yul\":7:154   */\n      swap3\n      swap2\n      pop\n      pop\n      jump\t// out\n        /* \"#utility.yul\":160:308   */\n    tag_35:\n        /* \"#utility.yul\":258:264   */\n      dup3\n        /* \"#utility.yul\":253:256   */\n      dup2\n        /* \"#utility.yul\":248:251   */\n      dup4\n        /* \"#utility.yul\":235:265   */\n      calldatacopy\n        /* \"#utility.yul\":299:300   */\n      0x00\n        /* \"#utility.yul\":290:296   */\n      dup4\n        /* \"#utility.yul\":285:288   */\n      dup4\n        /* \"#utility.yul\":281:297   */\n      add\n        /* \"#utility.yul\":274:301   */\n      mstore\n        /* \"#utility.yul\":160:308   */\n      pop\n      pop\n      pop\n      jump\t// out\n        /* \"#utility.yul\":336:663   */\n    tag_36:\n        /* \"#utility.yul\":450:453   */\n      0x00\n        /* \"#utility.yul\":471:559   */\n      tag_54\n        /* \"#utility.yul\":552:558   */\n      dup4\n        /* \"#utility.yul\":547:550   */\n      dup6\n        /* \"#utility.yul\":471:559   */\n      tag_34\n      jump\t// in\n    tag_54:\n        /* \"#utility.yul\":464:559   */\n      swap4\n      pop\n        /* \"#utility.yul\":569:625   */\n      tag_55\n        /* \"#utility.yul\":618:624   */\n      dup4\n        /* \"#utility.yul\":613:616   */\n      dup6\n        /* \"#utility.yul\":606:611   */\n      dup5\n        /* \"#utility.yul\":569:625   */\n      tag_35\n      jump\t// in\n    tag_55:\n        /* \"#utility.yul\":650:656   */\n      dup3\n        /* \"#utility.yul\":645:648   */\n      dup5\n        /* \"#utility.yul\":641:657   */\n      add\n        /* \"#utility.yul\":634:657   */\n      swap1\n      pop\n        /* \"#utility.yul\":336:663   */\n      swap4\n      swap3\n      pop\n      pop\n      pop\n      jump\t// out\n        /* \"#utility.yul\":669:960   */\n    tag_11:\n        /* \"#utility.yul\":809:812   */\n      0x00\n        /* \"#utility.yul\":831:934   */\n      tag_57\n        /* \"#utility.yul\":930:933   */\n      dup3\n        /* \"#utility.yul\":921:927   */\n      dup5\n        /* \"#utility.yul\":913:919   */\n      dup7\n        /* \"#utility.yul\":831:934   */\n      tag_36\n      jump\t// in\n    tag_57:\n        /* \"#utility.yul\":824:934   */\n      swap2\n      pop\n        /* \"#utility.yul\":951:954   */\n      dup2\n        /* \"#utility.yul\":944:954   */\n      swap1\n      pop\n        /* \"#utility.yul\":669:960   */\n      swap4\n      swap3\n      pop\n      pop\n      pop\n      jump\t// out\n        /* \"#utility.yul\":966:1135   */\n    tag_37:\n        /* \"#utility.yul\":1050:1061   */\n      0x00\n        /* \"#utility.yul\":1084:1090   */\n      dup3\n        /* \"#utility.yul\":1079:1082   */\n      dup3\n        /* \"#utility.yul\":1072:1091   */\n      mstore\n        /* \"#utility.yul\":1124:1128   */\n      0x20\n        /* \"#utility.yul\":1119:1122   */\n      dup3\n        /* \"#utility.yul\":1115:1129   */\n      add\n        /* \"#utility.yul\":1100:1129   */\n      swap1\n      pop\n        /* \"#utility.yul\":966:1135   */\n      swap3\n      swap2\n      pop\n      pop\n      jump\t// out\n        /* \"#utility.yul\":1141:1310   */\n    tag_38:\n        /* \"#utility.yul\":1281:1302   */\n      0x44656c656761746563616c6c206661696c656400000000000000000000000000\n        /* \"#utility.yul\":1277:1278   */\n      0x00\n        /* \"#utility.yul\":1269:1275   */\n      dup3\n        /* \"#utility.yul\":1265:1279   */\n      add\n        /* \"#utility.yul\":1258:1303   */\n      mstore\n        /* \"#utility.yul\":1141:1310   */\n      pop\n      jump\t// out\n        /* \"#utility.yul\":1316:1682   */\n    tag_39:\n        /* \"#utility.yul\":1458:1461   */\n      0x00\n        /* \"#utility.yul\":1479:1546   */\n      tag_61\n        /* \"#utility.yul\":1543:1545   */\n      0x13\n        /* \"#utility.yul\":1538:1541   */\n      dup4\n        /* \"#utility.yul\":1479:1546   */\n      tag_37\n      jump\t// in\n    tag_61:\n        /* \"#utility.yul\":1472:1546   */\n      swap2\n      pop\n        /* \"#utility.yul\":1555:1648   */\n      tag_62\n        /* \"#utility.yul\":1644:1647   */\n      dup3\n        /* \"#utility.yul\":1555:1648   */\n      tag_38\n      jump\t// in\n    tag_62:\n        /* \"#utility.yul\":1673:1675   */\n      0x20\n        /* \"#utility.yul\":1668:1671   */\n      dup3\n        /* \"#utility.yul\":1664:1676   */\n      add\n        /* \"#utility.yul\":1657:1676   */\n      swap1\n      pop\n        /* \"#utility.yul\":1316:1682   */\n      swap2\n      swap1\n      pop\n      jump\t// out\n        /* \"#utility.yul\":1688:2107   */\n    tag_17:\n        /* \"#utility.yul\":1854:1858   */\n      0x00\n        /* \"#utility.yul\":1892:1894   */\n      0x20\n        /* \"#utility.yul\":1881:1890   */\n      dup3\n        /* \"#utility.yul\":1877:1895   */\n      add\n        /* \"#utility.yul\":1869:1895   */\n      swap1\n      pop\n        /* \"#utility.yul\":1941:1950   */\n      dup2\n        /* \"#utility.yul\":1935:1939   */\n      dup2\n        /* \"#utility.yul\":1931:1951   */\n      sub\n        /* \"#utility.yul\":1927:1928   */\n      0x00\n        /* \"#utility.yul\":1916:1925   */\n      dup4\n        /* \"#utility.yul\":1912:1929   */\n      add\n        /* \"#utility.yul\":1905:1952   */\n      mstore\n        /* \"#utility.yul\":1969:2100   */\n      tag_64\n        /* \"#utility.yul\":2095:2099   */\n      dup2\n        /* \"#utility.yul\":1969:2100   */\n      tag_39\n      jump\t// in\n    tag_64:\n        /* \"#utility.yul\":1961:2100   */\n      swap1\n      pop\n        /* \"#utility.yul\":1688:2107   */\n      swap2\n      swap1\n      pop\n      jump\t// out\n        /* \"#utility.yul\":2113:2190   */\n    tag_40:\n        /* \"#utility.yul\":2150:2157   */\n      0x00\n        /* \"#utility.yul\":2179:2184   */\n      dup2\n        /* \"#utility.yul\":2168:2184   */\n      swap1\n      pop\n        /* \"#utility.yul\":2113:2190   */\n      swap2\n      swap1\n      pop\n      jump\t// out\n        /* \"#utility.yul\":2196:2314   */\n    tag_41:\n        /* \"#utility.yul\":2283:2307   */\n      tag_67\n        /* \"#utility.yul\":2301:2306   */\n      dup2\n        /* \"#utility.yul\":2283:2307   */\n      tag_40\n      jump\t// in\n    tag_67:\n        /* \"#utility.yul\":2278:2281   */\n      dup3\n        /* \"#utility.yul\":2271:2308   */\n      mstore\n        /* \"#utility.yul\":2196:2314   */\n      pop\n      pop\n      jump\t// out\n        /* \"#utility.yul\":2320:2542   */\n    tag_22:\n        /* \"#utility.yul\":2413:2417   */\n      0x00\n        /* \"#utility.yul\":2451:2453   */\n      0x20\n        /* \"#utility.yul\":2440:2449   */\n      dup3\n        /* \"#utility.yul\":2436:2454   */\n      add\n        /* \"#utility.yul\":2428:2454   */\n      swap1\n      pop\n        /* \"#utility.yul\":2464:2535   */\n      tag_69\n        /* \"#utility.yul\":2532:2533   */\n      0x00\n        /* \"#utility.yul\":2521:2530   */\n      dup4\n        /* \"#utility.yul\":2517:2534   */\n      add\n        /* \"#utility.yul\":2508:2514   */\n      dup5\n        /* \"#utility.yul\":2464:2535   */\n      tag_41\n      jump\t// in\n    tag_69:\n        /* \"#utility.yul\":2320:2542   */\n      swap3\n      swap2\n      pop\n      pop\n      jump\t// out\n        /* \"#utility.yul\":2629:2746   */\n    tag_43:\n        /* \"#utility.yul\":2738:2739   */\n      0x00\n        /* \"#utility.yul\":2735:2736   */\n      0x00\n        /* \"#utility.yul\":2728:2740   */\n      revert\n        /* \"#utility.yul\":2875:3001   */\n    tag_45:\n        /* \"#utility.yul\":2912:2919   */\n      0x00\n        /* \"#utility.yul\":2952:2994   */\n      0xffffffffffffffffffffffffffffffffffffffff\n        /* \"#utility.yul\":2945:2950   */\n      dup3\n        /* \"#utility.yul\":2941:2995   */\n      and\n        /* \"#utility.yul\":2930:2995   */\n      swap1\n      pop\n        /* \"#utility.yul\":2875:3001   */\n      swap2\n      swap1\n      pop\n      jump\t// out\n        /* \"#utility.yul\":3007:3103   */\n    tag_46:\n        /* \"#utility.yul\":3044:3051   */\n      0x00\n        /* \"#utility.yul\":3073:3097   */\n      tag_75\n        /* \"#utility.yul\":3091:3096   */\n      dup3\n        /* \"#utility.yul\":3073:3097   */\n      tag_45\n      jump\t// in\n    tag_75:\n        /* \"#utility.yul\":3062:3097   */\n      swap1\n      pop\n        /* \"#utility.yul\":3007:3103   */\n      swap2\n      swap1\n      pop\n      jump\t// out\n        /* \"#utility.yul\":3109:3231   */\n    tag_47:\n        /* \"#utility.yul\":3182:3206   */\n      tag_77\n        /* \"#utility.yul\":3200:3205   */\n      dup2\n        /* \"#utility.yul\":3182:3206   */\n      tag_46\n      jump\t// in\n    tag_77:\n        /* \"#utility.yul\":3175:3180   */\n      dup2\n        /* \"#utility.yul\":3172:3207   */\n      eq\n        /* \"#utility.yul\":3162:3225   */\n      tag_78\n      jumpi\n        /* \"#utility.yul\":3221:3222   */\n      0x00\n        /* \"#utility.yul\":3218:3219   */\n      0x00\n        /* \"#utility.yul\":3211:3223   */\n      revert\n        /* \"#utility.yul\":3162:3225   */\n    tag_78:\n        /* \"#utility.yul\":3109:3231   */\n      pop\n      jump\t// out\n        /* \"#utility.yul\":3237:3376   */\n    tag_48:\n        /* \"#utility.yul\":3283:3288   */\n      0x00\n        /* \"#utility.yul\":3321:3327   */\n      dup2\n        /* \"#utility.yul\":3308:3328   */\n      calldataload\n        /* \"#utility.yul\":3299:3328   */\n      swap1\n      pop\n        /* \"#utility.yul\":3337:3370   */\n      tag_80\n        /* \"#utility.yul\":3364:3369   */\n      dup2\n        /* \"#utility.yul\":3337:3370   */\n      tag_47\n      jump\t// in\n    tag_80:\n        /* \"#utility.yul\":3237:3376   */\n      swap3\n      swap2\n      pop\n      pop\n      jump\t// out\n        /* \"#utility.yul\":3382:3711   */\n    tag_26:\n        /* \"#utility.yul\":3441:3447   */\n      0x00\n        /* \"#utility.yul\":3490:3492   */\n      0x20\n        /* \"#utility.yul\":3478:3487   */\n      dup3\n        /* \"#utility.yul\":3469:3476   */\n      dup5\n        /* \"#utility.yul\":3465:3488   */\n      sub\n        /* \"#utility.yul\":3461:3493   */\n      slt\n        /* \"#utility.yul\":3458:3577   */\n      iszero\n      tag_82\n      jumpi\n        /* \"#utility.yul\":3496:3575   */\n      tag_83\n      tag_43\n      jump\t// in\n    tag_83:\n        /* \"#utility.yul\":3458:3577   */\n    tag_82:\n        /* \"#utility.yul\":3616:3617   */\n      0x00\n        /* \"#utility.yul\":3641:3694   */\n      tag_84\n        /* \"#utility.yul\":3686:3693   */\n      dup5\n        /* \"#utility.yul\":3677:3683   */\n      dup3\n        /* \"#utility.yul\":3666:3675   */\n      dup6\n        /* \"#utility.yul\":3662:3684   */\n      add\n        /* \"#utility.yul\":3641:3694   */\n      tag_48\n      jump\t// in\n    tag_84:\n        /* \"#utility.yul\":3631:3694   */\n      swap2\n      pop\n        /* \"#utility.yul\":3587:3704   */\n      pop\n        /* \"#utility.yul\":3382:3711   */\n      swap3\n      swap2\n      pop\n      pop\n      jump\t// out\n        /* \"#utility.yul\":3717:3835   */\n    tag_49:\n        /* \"#utility.yul\":3804:3828   */\n      tag_86\n        /* \"#utility.yul\":3822:3827   */\n      dup2\n        /* \"#utility.yul\":3804:3828   */\n      tag_46\n      jump\t// in\n    tag_86:\n        /* \"#utility.yul\":3799:3802   */\n      dup3\n        /* \"#utility.yul\":3792:3829   */\n      mstore\n        /* \"#utility.yul\":3717:3835   */\n      pop\n      pop\n      jump\t// out\n        /* \"#utility.yul\":3841:4063   */\n    tag_32:\n        /* \"#utility.yul\":3934:3938   */\n      0x00\n        /* \"#utility.yul\":3972:3974   */\n      0x20\n        /* \"#utility.yul\":3961:3970   */\n      dup3\n        /* \"#utility.yul\":3957:3975   */\n      add\n        /* \"#utility.yul\":3949:3975   */\n      swap1\n      pop\n        /* \"#utility.yul\":3985:4056   */\n      tag_88\n        /* \"#utility.yul\":4053:4054   */\n      0x00\n        /* \"#utility.yul\":4042:4051   */\n      dup4\n        /* \"#utility.yul\":4038:4055   */\n      add\n        /* \"#utility.yul\":4029:4035   */\n      dup5\n        /* \"#utility.yul\":3985:4056   */\n      tag_49\n      jump\t// in\n    tag_88:\n        /* \"#utility.yul\":3841:4063   */\n      swap3\n      swap2\n      pop\n      pop\n      jump\t// out\n\n    auxdata: 0xa2646970667358221220ad332d5c684d0a720421b8ef8cd418319c2255cac1a6a105b2bc94e31b96b2d264736f6c634300081e0033\n}\n",
				"bytecode": {
					"linkReferences": {},
					"object": "608060405234801561000f575f5ffd5b506040516104e43803806104e4833981810160405281019061003191906100d5565b8060015f6101000a81548173ffffffffffffffffffffffffffffffffffffffff021916908373ffffffffffffffffffffffffffffffffffffffff16021790555050610100565b5f5ffd5b5f73ffffffffffffffffffffffffffffffffffffffff82169050919050565b5f6100a48261007b565b9050919050565b6100b48161009a565b81146100be575f5ffd5b50565b5f815190506100cf816100ab565b92915050565b5f602082840312156100ea576100e9610077565b5b5f6100f7848285016100c1565b91505092915050565b6103d78061010d5f395ff3fe608060405260043610610037575f3560e01c80633fa4f2451461010a5780639b3fb34a14610134578063cc0e97c91461015c5761003e565b3661003e57005b5f60015f9054906101000a900473ffffffffffffffffffffffffffffffffffffffff1673ffffffffffffffffffffffffffffffffffffffff165f3660405161008792919061022f565b5f60405180830381855af49150503d805f81146100bf576040519150601f19603f3d011682016040523d82523d5f602084013e6100c4565b606091505b5050905080610108576040517f08c379a00000000000000000000000000000000000000000000000000000000081526004016100ff906102a1565b60405180910390fd5b005b348015610115575f5ffd5b5061011e610186565b60405161012b91906102d7565b60405180910390f35b34801561013f575f5ffd5b5061015a6004803603810190610155919061034e565b61018b565b005b348015610167575f5ffd5b506101706101ce565b60405161017d9190610388565b60405180910390f35b5f5481565b8060015f6101000a81548173ffffffffffffffffffffffffffffffffffffffff021916908373ffffffffffffffffffffffffffffffffffffffff16021790555050565b60015f9054906101000a900473ffffffffffffffffffffffffffffffffffffffff1681565b5f81905092915050565b828183375f83830152505050565b5f61021683856101f3565b93506102238385846101fd565b82840190509392505050565b5f61023b82848661020b565b91508190509392505050565b5f82825260208201905092915050565b7f44656c656761746563616c6c206661696c6564000000000000000000000000005f82015250565b5f61028b601383610247565b915061029682610257565b602082019050919050565b5f6020820190508181035f8301526102b88161027f565b9050919050565b5f819050919050565b6102d1816102bf565b82525050565b5f6020820190506102ea5f8301846102c8565b92915050565b5f5ffd5b5f73ffffffffffffffffffffffffffffffffffffffff82169050919050565b5f61031d826102f4565b9050919050565b61032d81610313565b8114610337575f5ffd5b50565b5f8135905061034881610324565b92915050565b5f60208284031215610363576103626102f0565b5b5f6103708482850161033a565b91505092915050565b61038281610313565b82525050565b5f60208201905061039b5f830184610379565b9291505056fea2646970667358221220ad332d5c684d0a720421b8ef8cd418319c2255cac1a6a105b2bc94e31b96b2d264736f6c634300081e0033",
					"opcodes": "PUSH1 0x80 PUSH1 0x40 MSTORE CALLVALUE DUP1 ISZERO PUSH2 0xF JUMPI PUSH0 PUSH0 REVERT JUMPDEST POP PUSH1 0x40 MLOAD PUSH2 0x4E4 CODESIZE SUB DUP1 PUSH2 0x4E4 DUP4 CODECOPY DUP2 DUP2 ADD PUSH1 0x40 MSTORE DUP2 ADD SWAP1 PUSH2 0x31 SWAP2 SWAP1 PUSH2 0xD5 JUMP JUMPDEST DUP1 PUSH1 0x1 PUSH0 PUSH2 0x100 EXP DUP2 SLOAD DUP2 PUSH20 0xFFFFFFFFFFFFFFFFFFFFFFFFFFFFFFFFFFFFFFFF MUL NOT AND SWAP1 DUP4 PUSH20 0xFFFFFFFFFFFFFFFFFFFFFFFFFFFFFFFFFFFFFFFF AND MUL OR SWAP1 SSTORE POP POP PUSH2 0x100 JUMP JUMPDEST PUSH0 PUSH0 REVERT JUMPDEST PUSH0 PUSH20 0xFFFFFFFFFFFFFFFFFFFFFFFFFFFFFFFFFFFFFFFF DUP3 AND SWAP1 POP SWAP2 SWAP1 POP JUMP JUMPDEST PUSH0 PUSH2 0xA4 DUP3 PUSH2 0x7B JUMP JUMPDEST SWAP1 POP SWAP2 SWAP1 POP JUMP JUMPDEST PUSH2 0xB4 DUP2 PUSH2 0x9A JUMP JUMPDEST DUP2 EQ PUSH2 0xBE JUMPI PUSH0 PUSH0 REVERT JUMPDEST POP JUMP JUMPDEST PUSH0 DUP2 MLOAD SWAP1 POP PUSH2 0xCF DUP2 PUSH2 0xAB JUMP JUMPDEST SWAP3 SWAP2 POP POP JUMP JUMPDEST PUSH0 PUSH1 0x20 DUP3 DUP5 SUB SLT ISZERO PUSH2 0xEA JUMPI PUSH2 0xE9 PUSH2 0x77 JUMP JUMPDEST JUMPDEST PUSH0 PUSH2 0xF7 DUP5 DUP3 DUP6 ADD PUSH2 0xC1 JUMP JUMPDEST SWAP2 POP POP SWAP3 SWAP2 POP POP JUMP JUMPDEST PUSH2 0x3D7 DUP1 PUSH2 0x10D PUSH0 CODECOPY PUSH0 RETURN INVALID PUSH1 0x80 PUSH1 0x40 MSTORE PUSH1 0x4 CALLDATASIZE LT PUSH2 0x37 JUMPI PUSH0 CALLDATALOAD PUSH1 0xE0 SHR DUP1 PUSH4 0x3FA4F245 EQ PUSH2 0x10A JUMPI DUP1 PUSH4 0x9B3FB34A EQ PUSH2 0x134 JUMPI DUP1 PUSH4 0xCC0E97C9 EQ PUSH2 0x15C JUMPI PUSH2 0x3E JUMP JUMPDEST CALLDATASIZE PUSH2 0x3E JUMPI STOP JUMPDEST PUSH0 PUSH1 0x1 PUSH0 SWAP1 SLOAD SWAP1 PUSH2 0x100 EXP SWAP1 DIV PUSH20 0xFFFFFFFFFFFFFFFFFFFFFFFFFFFFFFFFFFFFFFFF AND PUSH20 0xFFFFFFFFFFFFFFFFFFFFFFFFFFFFFFFFFFFFFFFF AND PUSH0 CALLDATASIZE PUSH1 0x40 MLOAD PUSH2 0x87 SWAP3 SWAP2 SWAP1 PUSH2 0x22F JUMP JUMPDEST PUSH0 PUSH1 0x40 MLOAD DUP1 DUP4 SUB DUP2 DUP6 GAS DELEGATECALL SWAP2 POP POP RETURNDATASIZE DUP1 PUSH0 DUP2 EQ PUSH2 0xBF JUMPI PUSH1 0x40 MLOAD SWAP2 POP PUSH1 0x1F NOT PUSH1 0x3F RETURNDATASIZE ADD AND DUP3 ADD PUSH1 0x40 MSTORE RETURNDATASIZE DUP3 MSTORE RETURNDATASIZE PUSH0 PUSH1 0x20 DUP5 ADD RETURNDATACOPY PUSH2 0xC4 JUMP JUMPDEST PUSH1 0x60 SWAP2 POP JUMPDEST POP POP SWAP1 POP DUP1 PUSH2 0x108 JUMPI PUSH1 0x40 MLOAD PUSH32 0x8C379A000000000000000000000000000000000000000000000000000000000 DUP2 MSTORE PUSH1 0x4 ADD PUSH2 0xFF SWAP1 PUSH2 0x2A1 JUMP JUMPDEST PUSH1 0x40 MLOAD DUP1 SWAP2 SUB SWAP1 REVERT JUMPDEST STOP JUMPDEST CALLVALUE DUP1 ISZERO PUSH2 0x115 JUMPI PUSH0 PUSH0 REVERT JUMPDEST POP PUSH2 0x11E PUSH2 0x186 JUMP JUMPDEST PUSH1 0x40 MLOAD PUSH2 0x12B SWAP2 SWAP1 PUSH2 0x2D7 JUMP JUMPDEST PUSH1 0x40 MLOAD DUP1 SWAP2 SUB SWAP1 RETURN JUMPDEST CALLVALUE DUP1 ISZERO PUSH2 0x13F JUMPI PUSH0 PUSH0 REVERT JUMPDEST POP PUSH2 0x15A PUSH1 0x4 DUP1 CALLDATASIZE SUB DUP2 ADD SWAP1 PUSH2 0x155 SWAP2 SWAP1 PUSH2 0x34E JUMP JUMPDEST PUSH2 0x18B JUMP JUMPDEST STOP JUMPDEST CALLVALUE DUP1 ISZERO PUSH2 0x167 JUMPI PUSH0 PUSH0 REVERT JUMPDEST POP PUSH2 0x170 PUSH2 0x1CE JUMP JUMPDEST PUSH1 0x40 MLOAD PUSH2 0x17D SWAP2 SWAP1 PUSH2 0x388 JUMP JUMPDEST PUSH1 0x40 MLOAD DUP1 SWAP2 SUB SWAP1 RETURN JUMPDEST PUSH0 SLOAD DUP2 JUMP JUMPDEST DUP1 PUSH1 0x1 PUSH0 PUSH2 0x100 EXP DUP2 SLOAD DUP2 PUSH20 0xFFFFFFFFFFFFFFFFFFFFFFFFFFFFFFFFFFFFFFFF MUL NOT AND SWAP1 DUP4 PUSH20 0xFFFFFFFFFFFFFFFFFFFFFFFFFFFFFFFFFFFFFFFF AND MUL OR SWAP1 SSTORE POP POP JUMP JUMPDEST PUSH1 0x1 PUSH0 SWAP1 SLOAD SWAP1 PUSH2 0x100 EXP SWAP1 DIV PUSH20 0xFFFFFFFFFFFFFFFFFFFFFFFFFFFFFFFFFFFFFFFF AND DUP2 JUMP JUMPDEST PUSH0 DUP2 SWAP1 POP SWAP3 SWAP2 POP POP JUMP JUMPDEST DUP3 DUP2 DUP4 CALLDATACOPY PUSH0 DUP4 DUP4 ADD MSTORE POP POP POP JUMP JUMPDEST PUSH0 PUSH2 0x216 DUP4 DUP6 PUSH2 0x1F3 JUMP JUMPDEST SWAP4 POP PUSH2 0x223 DUP4 DUP6 DUP5 PUSH2 0x1FD JUMP JUMPDEST DUP3 DUP5 ADD SWAP1 POP SWAP4 SWAP3 POP POP POP JUMP JUMPDEST PUSH0 PUSH2 0x23B DUP3 DUP5 DUP7 PUSH2 0x20B JUMP JUMPDEST SWAP2 POP DUP2 SWAP1 POP SWAP4 SWAP3 POP POP POP JUMP JUMPDEST PUSH0 DUP3 DUP3 MSTORE PUSH1 0x20 DUP3 ADD SWAP1 POP SWAP3 SWAP2 POP POP JUMP JUMPDEST PUSH32 0x44656C656761746563616C6C206661696C656400000000000000000000000000 PUSH0 DUP3 ADD MSTORE POP JUMP JUMPDEST PUSH0 PUSH2 0x28B PUSH1 0x13 DUP4 PUSH2 0x247 JUMP JUMPDEST SWAP2 POP PUSH2 0x296 DUP3 PUSH2 0x257 JUMP JUMPDEST PUSH1 0x20 DUP3 ADD SWAP1 POP SWAP2 SWAP1 POP JUMP JUMPDEST PUSH0 PUSH1 0x20 DUP3 ADD SWAP1 POP DUP2 DUP2 SUB PUSH0 DUP4 ADD MSTORE PUSH2 0x2B8 DUP2 PUSH2 0x27F JUMP JUMPDEST SWAP1 POP SWAP2 SWAP1 POP JUMP JUMPDEST PUSH0 DUP2 SWAP1 POP SWAP2 SWAP1 POP JUMP JUMPDEST PUSH2 0x2D1 DUP2 PUSH2 0x2BF JUMP JUMPDEST DUP3 MSTORE POP POP JUMP JUMPDEST PUSH0 PUSH1 0x20 DUP3 ADD SWAP1 POP PUSH2 0x2EA PUSH0 DUP4 ADD DUP5 PUSH2 0x2C8 JUMP JUMPDEST SWAP3 SWAP2 POP POP JUMP JUMPDEST PUSH0 PUSH0 REVERT JUMPDEST PUSH0 PUSH20 0xFFFFFFFFFFFFFFFFFFFFFFFFFFFFFFFFFFFFFFFF DUP3 AND SWAP1 POP SWAP2 SWAP1 POP JUMP JUMPDEST PUSH0 PUSH2 0x31D DUP3 PUSH2 0x2F4 JUMP JUMPDEST SWAP1 POP SWAP2 SWAP1 POP JUMP JUMPDEST PUSH2 0x32D DUP2 PUSH2 0x313 JUMP JUMPDEST DUP2 EQ PUSH2 0x337 JUMPI PUSH0 PUSH0 REVERT JUMPDEST POP JUMP JUMPDEST PUSH0 DUP2 CALLDATALOAD SWAP1 POP PUSH2 0x348 DUP2 PUSH2 0x324 JUMP JUMPDEST SWAP3 SWAP2 POP POP JUMP JUMPDEST PUSH0 PUSH1 0x20 DUP3 DUP5 SUB SLT ISZERO PUSH2 0x363 JUMPI PUSH2 0x362 PUSH2 0x2F0 JUMP JUMPDEST JUMPDEST PUSH0 PUSH2 0x370 DUP5 DUP3 DUP6 ADD PUSH2 0x33A JUMP JUMPDEST SWAP2 POP POP SWAP3 SWAP2 POP POP JUMP JUMPDEST PUSH2 0x382 DUP2 PUSH2 0x313 JUMP JUMPDEST DUP3 MSTORE POP POP JUMP JUMPDEST PUSH0 PUSH1 0x20 DUP3 ADD SWAP1 POP PUSH2 0x39B PUSH0 DUP4 ADD DUP5 PUSH2 0x379 JUMP JUMPDEST SWAP3 SWAP2 POP POP JUMP INVALID LOG2 PUSH5 0x6970667358 0x22 SLT KECCAK256 0xAD CALLER 0x2D TLOAD PUSH9 0x4D0A720421B8EF8CD4 XOR BALANCE SWAP13 0x22 SSTORE 0xCA 0xC1 0xA6 LOG1 SDIV 0xB2 0xBC SWAP5 CALLF 0x1B96 0xB2 0xD2 PUSH5 0x736F6C6343 STOP ADDMOD 0x1E STOP CALLER "
				},
				"gasEstimates": {
					"creation": {
						"codeDepositCost": "196600",
						"executionCost": "infinite",
						"totalCost": "infinite"
					},
					"external": {
						"": "infinite",
						"SetLogicContract(address)": "24715",
						"logicContract()": "2530",
						"value()": "2402"
					}
				},
				"methodIdentifiers": {
					"SetLogicContract(address)": "9b3fb34a",
					"logicContract()": "cc0e97c9",
					"value()": "3fa4f245"
				}
			},
			"storageLayout": {
				"storage": [
					{
						"astId": 25,
						"contract": "22_delegateCall.sol:ProxyContract",
						"label": "value",
						"offset": 0,
						"slot": "0",
						"type": "t_uint256"
					},
					{
						"astId": 27,
						"contract": "22_delegateCall.sol:ProxyContract",
						"label": "logicContract",
						"offset": 0,
						"slot": "1",
						"type": "t_address"
					}
				],
				"types": {
					"t_address": {
						"encoding": "inplace",
						"label": "address",
						"numberOfBytes": "20"
					},
					"t_uint256": {
						"encoding": "inplace",
						"label": "uint256",
						"numberOfBytes": "32"
					}
				}
			},
			"userdoc": {
				"kind": "user",
				"methods": {},
				"version": 1
			}
		}
	}
}