{
	"22_delegateCall.sol": {
		"Client": {
			"abi": [
				{
					"inputs": [
						{
							"internalType": "address",
							"name": "_proxy",
							"type": "address"
						}
					],
					"stateMutability": "nonpayable",
					"type": "constructor"
				},
				{
					"inputs": [],
					"name": "AddValue",
					"outputs": [],
					"stateMutability": "nonpayable",
					"type": "function"
				},
				{
					"inputs": [],
					"name": "proxy",
					"outputs": [
						{
							"internalType": "address",
							"name": "",
							"type": "address"
						}
					],
					"stateMutability": "view",
					"type": "function"
				}
			],
			"devdoc": {
				"kind": "dev",
				"methods": {},
				"version": 1
			},
			"evm": {
				"assembly": "    /* \"22_delegateCall.sol\":1042:1504  contract Client {... */\n  mstore(0x40, 0x80)\n    /* \"22_delegateCall.sol\":1090:1149  constructor(address _proxy) {... */\n  callvalue\n  dup1\n  iszero\n  tag_1\n  jumpi\n  revert(0x00, 0x00)\ntag_1:\n  pop\n  mload(0x40)\n  sub(codesize, bytecodeSize)\n  dup1\n  bytecodeSize\n  dup4\n  codecopy\n  dup2\n  dup2\n  add\n  0x40\n  mstore\n  dup2\n  add\n  swap1\n  tag_2\n  swap2\n  swap1\n  tag_3\n  jump\t// in\ntag_2:\n    /* \"22_delegateCall.sol\":1136:1142  _proxy */\n  dup1\n    /* \"22_delegateCall.sol\":1128:1133  proxy */\n  0x00\n  0x00\n    /* \"22_delegateCall.sol\":1128:1142  proxy = _proxy */\n  0x0100\n  exp\n  dup2\n  sload\n  dup2\n  0xffffffffffffffffffffffffffffffffffffffff\n  mul\n  not\n  and\n  swap1\n  dup4\n  0xffffffffffffffffffffffffffffffffffffffff\n  and\n  mul\n  or\n  swap1\n  sstore\n  pop\n    /* \"22_delegateCall.sol\":1090:1149  constructor(address _proxy) {... */\n  pop\n    /* \"22_delegateCall.sol\":1042:1504  contract Client {... */\n  jump(tag_6)\n    /* \"#utility.yul\":88:205   */\ntag_8:\n    /* \"#utility.yul\":197:198   */\n  0x00\n    /* \"#utility.yul\":194:195   */\n  0x00\n    /* \"#utility.yul\":187:199   */\n  revert\n    /* \"#utility.yul\":334:460   */\ntag_10:\n    /* \"#utility.yul\":371:378   */\n  0x00\n    /* \"#utility.yul\":411:453   */\n  0xffffffffffffffffffffffffffffffffffffffff\n    /* \"#utility.yul\":404:409   */\n  dup3\n    /* \"#utility.yul\":400:454   */\n  and\n    /* \"#utility.yul\":389:454   */\n  swap1\n  pop\n    /* \"#utility.yul\":334:460   */\n  swap2\n  swap1\n  pop\n  jump\t// out\n    /* \"#utility.yul\":466:562   */\ntag_11:\n    /* \"#utility.yul\":503:510   */\n  0x00\n    /* \"#utility.yul\":532:556   */\n  tag_20\n    /* \"#utility.yul\":550:555   */\n  dup3\n    /* \"#utility.yul\":532:556   */\n  tag_10\n  jump\t// in\ntag_20:\n    /* \"#utility.yul\":521:556   */\n  swap1\n  pop\n    /* \"#utility.yul\":466:562   */\n  swap2\n  swap1\n  pop\n  jump\t// out\n    /* \"#utility.yul\":568:690   */\ntag_12:\n    /* \"#utility.yul\":641:665   */\n  tag_22\n    /* \"#utility.yul\":659:664   */\n  dup2\n    /* \"#utility.yul\":641:665   */\n  tag_11\n  jump\t// in\ntag_22:\n    /* \"#utility.yul\":634:639   */\n  dup2\n    /* \"#utility.yul\":631:666   */\n  eq\n    /* \"#utility.yul\":621:684   */\n  tag_23\n  jumpi\n    /* \"#utility.yul\":680:681   */\n  0x00\n    /* \"#utility.yul\":677:678   */\n  0x00\n    /* \"#utility.yul\":670:682   */\n  revert\n    /* \"#utility.yul\":621:684   */\ntag_23:\n    /* \"#utility.yul\":568:690   */\n  pop\n  jump\t// out\n    /* \"#utility.yul\":696:839   */\ntag_13:\n    /* \"#utility.yul\":753:758   */\n  0x00\n    /* \"#utility.yul\":784:790   */\n  dup2\n    /* \"#utility.yul\":778:791   */\n  mload\n    /* \"#utility.yul\":769:791   */\n  swap1\n  pop\n    /* \"#utility.yul\":800:833   */\n  tag_25\n    /* \"#utility.yul\":827:832   */\n  dup2\n    /* \"#utility.yul\":800:833   */\n  tag_12\n  jump\t// in\ntag_25:\n    /* \"#utility.yul\":696:839   */\n  swap3\n  swap2\n  pop\n  pop\n  jump\t// out\n    /* \"#utility.yul\":845:1196   */\ntag_3:\n    /* \"#utility.yul\":915:921   */\n  0x00\n    /* \"#utility.yul\":964:966   */\n  0x20\n    /* \"#utility.yul\":952:961   */\n  dup3\n    /* \"#utility.yul\":943:950   */\n  dup5\n    /* \"#utility.yul\":939:962   */\n  sub\n    /* \"#utility.yul\":935:967   */\n  slt\n    /* \"#utility.yul\":932:1051   */\n  iszero\n  tag_27\n  jumpi\n    /* \"#utility.yul\":970:1049   */\n  tag_28\n  tag_8\n  jump\t// in\ntag_28:\n    /* \"#utility.yul\":932:1051   */\ntag_27:\n    /* \"#utility.yul\":1090:1091   */\n  0x00\n    /* \"#utility.yul\":1115:1179   */\n  tag_29\n    /* \"#utility.yul\":1171:1178   */\n  dup5\n    /* \"#utility.yul\":1162:1168   */\n  dup3\n    /* \"#utility.yul\":1151:1160   */\n  dup6\n    /* \"#utility.yul\":1147:1169   */\n  add\n    /* \"#utility.yul\":1115:1179   */\n  tag_13\n  jump\t// in\ntag_29:\n    /* \"#utility.yul\":1105:1179   */\n  swap2\n  pop\n    /* \"#utility.yul\":1061:1189   */\n  pop\n    /* \"#utility.yul\":845:1196   */\n  swap3\n  swap2\n  pop\n  pop\n  jump\t// out\n    /* \"22_delegateCall.sol\":1042:1504  contract Client {... */\ntag_6:\n  dataSize(sub_0)\n  dup1\n  dataOffset(sub_0)\n  0x00\n  codecopy\n  0x00\n  return\nstop\n\nsub_0: assembly {\n        /* \"22_delegateCall.sol\":1042:1504  contract Client {... */\n      mstore(0x40, 0x80)\n      callvalue\n      dup1\n      iszero\n      tag_1\n      jumpi\n      revert(0x00, 0x00)\n    tag_1:\n      pop\n      jumpi(tag_2, lt(calldatasize, 0x04))\n      shr(0xe0, calldataload(0x00))\n      dup1\n      0xb5697598\n      eq\n      tag_3\n      jumpi\n      dup1\n      0xec556889\n      eq\n      tag_4\n      jumpi\n    tag_2:\n      revert(0x00, 0x00)\n        /* \"22_delegateCall.sol\":1159:1502  function AddValue() public {... */\n    tag_3:\n      tag_5\n      tag_6\n      jump\t// in\n    tag_5:\n      stop\n        /* \"22_delegateCall.sol\":1064:1084  address public proxy */\n    tag_4:\n      tag_7\n      tag_8\n      jump\t// in\n    tag_7:\n      mload(0x40)\n      tag_9\n      swap2\n      swap1\n      tag_10\n      jump\t// in\n    tag_9:\n      mload(0x40)\n      dup1\n      swap2\n      sub\n      swap1\n      return\n        /* \"22_delegateCall.sol\":1159:1502  function AddValue() public {... */\n    tag_6:\n        /* \"22_delegateCall.sol\":1378:1390  bool success */\n      0x00\n        /* \"22_delegateCall.sol\":1396:1401  proxy */\n      0x00\n      0x00\n      swap1\n      sload\n      swap1\n      0x0100\n      exp\n      swap1\n      div\n      0xffffffffffffffffffffffffffffffffffffffff\n      and\n        /* \"22_delegateCall.sol\":1396:1406  proxy.call */\n      0xffffffffffffffffffffffffffffffffffffffff\n      and\n        /* \"22_delegateCall.sol\":1407:1444  abi.encodeWithSignature(\"AddValue()\") */\n      add(0x24, mload(0x40))\n      mload(0x40)\n      0x20\n      dup2\n      dup4\n      sub\n      sub\n      dup2\n      mstore\n      swap1\n      0x40\n      mstore\n      and(not(0xffffffffffffffffffffffffffffffffffffffffffffffffffffffff), 0xb569759800000000000000000000000000000000000000000000000000000000)\n      0x20\n      dup3\n      add\n      dup1\n      mload\n      0xffffffffffffffffffffffffffffffffffffffffffffffffffffffff\n      dup4\n      dup2\n      dup4\n      and\n      or\n      dup4\n      mstore\n      pop\n      pop\n      pop\n      pop\n        /* \"22_delegateCall.sol\":1396:1445  proxy.call(abi.encodeWithSignature(\"AddValue()\")) */\n      mload(0x40)\n      tag_12\n      swap2\n      swap1\n      tag_13\n      jump\t// in\n    tag_12:\n      0x00\n      mload(0x40)\n      dup1\n      dup4\n      sub\n      dup2\n      0x00\n      dup7\n      gas\n      call\n      swap2\n      pop\n      pop\n      returndatasize\n      dup1\n      0x00\n      dup2\n      eq\n      tag_16\n      jumpi\n      mload(0x40)\n      swap2\n      pop\n      and(add(returndatasize, 0x3f), not(0x1f))\n      dup3\n      add\n      0x40\n      mstore\n      returndatasize\n      dup3\n      mstore\n      returndatasize\n      0x00\n      0x20\n      dup5\n      add\n      returndatacopy\n      jump(tag_15)\n    tag_16:\n      0x60\n      swap2\n      pop\n    tag_15:\n      pop\n        /* \"22_delegateCall.sol\":1377:1445  (bool success, ) = proxy.call(abi.encodeWithSignature(\"AddValue()\")) */\n      pop\n      swap1\n      pop\n        /* \"22_delegateCall.sol\":1463:1470  success */\n      dup1\n        /* \"22_delegateCall.sol\":1455:1495  require(success, \"Delegate call failed\") */\n      tag_17\n      jumpi\n      mload(0x40)\n      0x08c379a000000000000000000000000000000000000000000000000000000000\n      dup2\n      mstore\n      0x04\n      add\n      tag_18\n      swap1\n      tag_19\n      jump\t// in\n    tag_18:\n      mload(0x40)\n      dup1\n      swap2\n      sub\n      swap1\n      revert\n    tag_17:\n        /* \"22_delegateCall.sol\":1186:1502  {... */\n      pop\n        /* \"22_delegateCall.sol\":1159:1502  function AddValue() public {... */\n      jump\t// out\n        /* \"22_delegateCall.sol\":1064:1084  address public proxy */\n    tag_8:\n      0x00\n      0x00\n      swap1\n      sload\n      swap1\n      0x0100\n      exp\n      swap1\n      div\n      0xffffffffffffffffffffffffffffffffffffffff\n      and\n      dup2\n      jump\t// out\n        /* \"#utility.yul\":7:133   */\n    tag_20:\n        /* \"#utility.yul\":44:51   */\n      0x00\n        /* \"#utility.yul\":84:126   */\n      0xffffffffffffffffffffffffffffffffffffffff\n        /* \"#utility.yul\":77:82   */\n      dup3\n        /* \"#utility.yul\":73:127   */\n      and\n        /* \"#utility.yul\":62:127   */\n      swap1\n      pop\n        /* \"#utility.yul\":7:133   */\n      swap2\n      swap1\n      pop\n      jump\t// out\n        /* \"#utility.yul\":139:235   */\n    tag_21:\n        /* \"#utility.yul\":176:183   */\n      0x00\n        /* \"#utility.yul\":205:229   */\n      tag_33\n        /* \"#utility.yul\":223:228   */\n      dup3\n        /* \"#utility.yul\":205:229   */\n      tag_20\n      jump\t// in\n    tag_33:\n        /* \"#utility.yul\":194:229   */\n      swap1\n      pop\n        /* \"#utility.yul\":139:235   */\n      swap2\n      swap1\n      pop\n      jump\t// out\n        /* \"#utility.yul\":241:359   */\n    tag_22:\n        /* \"#utility.yul\":328:352   */\n      tag_35\n        /* \"#utility.yul\":346:351   */\n      dup2\n        /* \"#utility.yul\":328:352   */\n      tag_21\n      jump\t// in\n    tag_35:\n        /* \"#utility.yul\":323:326   */\n      dup3\n        /* \"#utility.yul\":316:353   */\n      mstore\n        /* \"#utility.yul\":241:359   */\n      pop\n      pop\n      jump\t// out\n        /* \"#utility.yul\":365:587   */\n    tag_10:\n        /* \"#utility.yul\":458:462   */\n      0x00\n        /* \"#utility.yul\":496:498   */\n      0x20\n        /* \"#utility.yul\":485:494   */\n      dup3\n        /* \"#utility.yul\":481:499   */\n      add\n        /* \"#utility.yul\":473:499   */\n      swap1\n      pop\n        /* \"#utility.yul\":509:580   */\n      tag_37\n        /* \"#utility.yul\":577:578   */\n      0x00\n        /* \"#utility.yul\":566:575   */\n      dup4\n        /* \"#utility.yul\":562:579   */\n      add\n        /* \"#utility.yul\":553:559   */\n      dup5\n        /* \"#utility.yul\":509:580   */\n      tag_22\n      jump\t// in\n    tag_37:\n        /* \"#utility.yul\":365:587   */\n      swap3\n      swap2\n      pop\n      pop\n      jump\t// out\n        /* \"#utility.yul\":593:691   */\n    tag_23:\n        /* \"#utility.yul\":644:650   */\n      0x00\n        /* \"#utility.yul\":678:683   */\n      dup2\n        /* \"#utility.yul\":672:684   */\n      mload\n        /* \"#utility.yul\":662:684   */\n      swap1\n      pop\n        /* \"#utility.yul\":593:691   */\n      swap2\n      swap1\n      pop\n      jump\t// out\n        /* \"#utility.yul\":697:844   */\n    tag_24:\n        /* \"#utility.yul\":798:809   */\n      0x00\n        /* \"#utility.yul\":835:838   */\n      dup2\n        /* \"#utility.yul\":820:838   */\n      swap1\n      pop\n        /* \"#utility.yul\":697:844   */\n      swap3\n      swap2\n      pop\n      pop\n      jump\t// out\n        /* \"#utility.yul\":850:989   */\n    tag_25:\n        /* \"#utility.yul\":939:945   */\n      dup3\n        /* \"#utility.yul\":934:937   */\n      dup2\n        /* \"#utility.yul\":929:932   */\n      dup4\n        /* \"#utility.yul\":923:946   */\n      mcopy\n        /* \"#utility.yul\":980:981   */\n      0x00\n        /* \"#utility.yul\":971:977   */\n      dup4\n        /* \"#utility.yul\":966:969   */\n      dup4\n        /* \"#utility.yul\":962:978   */\n      add\n        /* \"#utility.yul\":955:982   */\n      mstore\n        /* \"#utility.yul\":850:989   */\n      pop\n      pop\n      pop\n      jump\t// out\n        /* \"#utility.yul\":995:1381   */\n    tag_26:\n        /* \"#utility.yul\":1099:1102   */\n      0x00\n        /* \"#utility.yul\":1127:1165   */\n      tag_42\n        /* \"#utility.yul\":1159:1164   */\n      dup3\n        /* \"#utility.yul\":1127:1165   */\n      tag_23\n      jump\t// in\n    tag_42:\n        /* \"#utility.yul\":1181:1269   */\n      tag_43\n        /* \"#utility.yul\":1262:1268   */\n      dup2\n        /* \"#utility.yul\":1257:1260   */\n      dup6\n        /* \"#utility.yul\":1181:1269   */\n      tag_24\n      jump\t// in\n    tag_43:\n        /* \"#utility.yul\":1174:1269   */\n      swap4\n      pop\n        /* \"#utility.yul\":1278:1343   */\n      tag_44\n        /* \"#utility.yul\":1336:1342   */\n      dup2\n        /* \"#utility.yul\":1331:1334   */\n      dup6\n        /* \"#utility.yul\":1324:1328   */\n      0x20\n        /* \"#utility.yul\":1317:1322   */\n      dup7\n        /* \"#utility.yul\":1313:1329   */\n      add\n        /* \"#utility.yul\":1278:1343   */\n      tag_25\n      jump\t// in\n    tag_44:\n        /* \"#utility.yul\":1368:1374   */\n      dup1\n        /* \"#utility.yul\":1363:1366   */\n      dup5\n        /* \"#utility.yul\":1359:1375   */\n      add\n        /* \"#utility.yul\":1352:1375   */\n      swap2\n      pop\n        /* \"#utility.yul\":1103:1381   */\n      pop\n        /* \"#utility.yul\":995:1381   */\n      swap3\n      swap2\n      pop\n      pop\n      jump\t// out\n        /* \"#utility.yul\":1387:1658   */\n    tag_13:\n        /* \"#utility.yul\":1517:1520   */\n      0x00\n        /* \"#utility.yul\":1539:1632   */\n      tag_46\n        /* \"#utility.yul\":1628:1631   */\n      dup3\n        /* \"#utility.yul\":1619:1625   */\n      dup5\n        /* \"#utility.yul\":1539:1632   */\n      tag_26\n      jump\t// in\n    tag_46:\n        /* \"#utility.yul\":1532:1632   */\n      swap2\n      pop\n        /* \"#utility.yul\":1649:1652   */\n      dup2\n        /* \"#utility.yul\":1642:1652   */\n      swap1\n      pop\n        /* \"#utility.yul\":1387:1658   */\n      swap3\n      swap2\n      pop\n      pop\n      jump\t// out\n        /* \"#utility.yul\":1664:1833   */\n    tag_27:\n        /* \"#utility.yul\":1748:1759   */\n      0x00\n        /* \"#utility.yul\":1782:1788   */\n      dup3\n        /* \"#utility.yul\":1777:1780   */\n      dup3\n        /* \"#utility.yul\":1770:1789   */\n      mstore\n        /* \"#utility.yul\":1822:1826   */\n      0x20\n        /* \"#utility.yul\":1817:1820   */\n      dup3\n        /* \"#utility.yul\":1813:1827   */\n      add\n        /* \"#utility.yul\":1798:1827   */\n      swap1\n      pop\n        /* \"#utility.yul\":1664:1833   */\n      swap3\n      swap2\n      pop\n      pop\n      jump\t// out\n        /* \"#utility.yul\":1839:2009   */\n    tag_28:\n        /* \"#utility.yul\":1979:2001   */\n      0x44656c65676174652063616c6c206661696c6564000000000000000000000000\n        /* \"#utility.yul\":1975:1976   */\n      0x00\n        /* \"#utility.yul\":1967:1973   */\n      dup3\n        /* \"#utility.yul\":1963:1977   */\n      add\n        /* \"#utility.yul\":1956:2002   */\n      mstore\n        /* \"#utility.yul\":1839:2009   */\n      pop\n      jump\t// out\n        /* \"#utility.yul\":2015:2381   */\n    tag_29:\n        /* \"#utility.yul\":2157:2160   */\n      0x00\n        /* \"#utility.yul\":2178:2245   */\n      tag_50\n        /* \"#utility.yul\":2242:2244   */\n      0x14\n        /* \"#utility.yul\":2237:2240   */\n      dup4\n        /* \"#utility.yul\":2178:2245   */\n      tag_27\n      jump\t// in\n    tag_50:\n        /* \"#utility.yul\":2171:2245   */\n      swap2\n      pop\n        /* \"#utility.yul\":2254:2347   */\n      tag_51\n        /* \"#utility.yul\":2343:2346   */\n      dup3\n        /* \"#utility.yul\":2254:2347   */\n      tag_28\n      jump\t// in\n    tag_51:\n        /* \"#utility.yul\":2372:2374   */\n      0x20\n        /* \"#utility.yul\":2367:2370   */\n      dup3\n        /* \"#utility.yul\":2363:2375   */\n      add\n        /* \"#utility.yul\":2356:2375   */\n      swap1\n      pop\n        /* \"#utility.yul\":2015:2381   */\n      swap2\n      swap1\n      pop\n      jump\t// out\n        /* \"#utility.yul\":2387:2806   */\n    tag_19:\n        /* \"#utility.yul\":2553:2557   */\n      0x00\n        /* \"#utility.yul\":2591:2593   */\n      0x20\n        /* \"#utility.yul\":2580:2589   */\n      dup3\n        /* \"#utility.yul\":2576:2594   */\n      add\n        /* \"#utility.yul\":2568:2594   */\n      swap1\n      pop\n        /* \"#utility.yul\":2640:2649   */\n      dup2\n        /* \"#utility.yul\":2634:2638   */\n      dup2\n        /* \"#utility.yul\":2630:2650   */\n      sub\n        /* \"#utility.yul\":2626:2627   */\n      0x00\n        /* \"#utility.yul\":2615:2624   */\n      dup4\n        /* \"#utility.yul\":2611:2628   */\n      add\n        /* \"#utility.yul\":2604:2651   */\n      mstore\n        /* \"#utility.yul\":2668:2799   */\n      tag_53\n        /* \"#utility.yul\":2794:2798   */\n      dup2\n        /* \"#utility.yul\":2668:2799   */\n      tag_29\n      jump\t// in\n    tag_53:\n        /* \"#utility.yul\":2660:2799   */\n      swap1\n      pop\n        /* \"#utility.yul\":2387:2806   */\n      swap2\n      swap1\n      pop\n      jump\t// out\n\n    auxdata: 0xa26469706673582212209ae4a9f1b5282d6624261863cb3d8d2853d5fde55f1d19556f40135062f8692064736f6c634300081e0033\n}\n",
				"bytecode": {
					"linkReferences": {},
					"object": "608060405234801561000f575f5ffd5b5060405161044b38038061044b833981810160405281019061003191906100d4565b805f5f6101000a81548173ffffffffffffffffffffffffffffffffffffffff021916908373ffffffffffffffffffffffffffffffffffffffff160217905550506100ff565b5f5ffd5b5f73ffffffffffffffffffffffffffffffffffffffff82169050919050565b5f6100a38261007a565b9050919050565b6100b381610099565b81146100bd575f5ffd5b50565b5f815190506100ce816100aa565b92915050565b5f602082840312156100e9576100e8610076565b5b5f6100f6848285016100c0565b91505092915050565b61033f8061010c5f395ff3fe608060405234801561000f575f5ffd5b5060043610610034575f3560e01c8063b569759814610038578063ec55688914610042575b5f5ffd5b610040610060565b005b61004a6101ad565b6040516100579190610210565b60405180910390f35b5f5f5f9054906101000a900473ffffffffffffffffffffffffffffffffffffffff1673ffffffffffffffffffffffffffffffffffffffff166040516024016040516020818303038152906040527fb5697598000000000000000000000000000000000000000000000000000000007bffffffffffffffffffffffffffffffffffffffffffffffffffffffff19166020820180517bffffffffffffffffffffffffffffffffffffffffffffffffffffffff8381831617835250505050604051610128919061027b565b5f604051808303815f865af19150503d805f8114610161576040519150601f19603f3d011682016040523d82523d5f602084013e610166565b606091505b50509050806101aa576040517f08c379a00000000000000000000000000000000000000000000000000000000081526004016101a1906102eb565b60405180910390fd5b50565b5f5f9054906101000a900473ffffffffffffffffffffffffffffffffffffffff1681565b5f73ffffffffffffffffffffffffffffffffffffffff82169050919050565b5f6101fa826101d1565b9050919050565b61020a816101f0565b82525050565b5f6020820190506102235f830184610201565b92915050565b5f81519050919050565b5f81905092915050565b8281835e5f83830152505050565b5f61025582610229565b61025f8185610233565b935061026f81856020860161023d565b80840191505092915050565b5f610286828461024b565b915081905092915050565b5f82825260208201905092915050565b7f44656c65676174652063616c6c206661696c65640000000000000000000000005f82015250565b5f6102d5601483610291565b91506102e0826102a1565b602082019050919050565b5f6020820190508181035f830152610302816102c9565b905091905056fea26469706673582212209ae4a9f1b5282d6624261863cb3d8d2853d5fde55f1d19556f40135062f8692064736f6c634300081e0033",
					"opcodes": "PUSH1 0x80 PUSH1 0x40 MSTORE CALLVALUE DUP1 ISZERO PUSH2 0xF JUMPI PUSH0 PUSH0 REVERT JUMPDEST POP PUSH1 0x40 MLOAD PUSH2 0x44B CODESIZE SUB DUP1 PUSH2 0x44B DUP4 CODECOPY DUP2 DUP2 ADD PUSH1 0x40 MSTORE DUP2 ADD SWAP1 PUSH2 0x31 SWAP2 SWAP1 PUSH2 0xD4 JUMP JUMPDEST DUP1 PUSH0 PUSH0 PUSH2 0x100 EXP DUP2 SLOAD DUP2 PUSH20 0xFFFFFFFFFFFFFFFFFFFFFFFFFFFFFFFFFFFFFFFF MUL NOT AND SWAP1 DUP4 PUSH20 0xFFFFFFFFFFFFFFFFFFFFFFFFFFFFFFFFFFFFFFFF AND MUL OR SWAP1 SSTORE POP POP PUSH2 0xFF JUMP JUMPDEST PUSH0 PUSH0 REVERT JUMPDEST PUSH0 PUSH20 0xFFFFFFFFFFFFFFFFFFFFFFFFFFFFFFFFFFFFFFFF DUP3 AND SWAP1 POP SWAP2 SWAP1 POP JUMP JUMPDEST PUSH0 PUSH2 0xA3 DUP3 PUSH2 0x7A JUMP JUMPDEST SWAP1 POP SWAP2 SWAP1 POP JUMP JUMPDEST PUSH2 0xB3 DUP2 PUSH2 0x99 JUMP JUMPDEST DUP2 EQ PUSH2 0xBD JUMPI PUSH0 PUSH0 REVERT JUMPDEST POP JUMP JUMPDEST PUSH0 DUP2 MLOAD SWAP1 POP PUSH2 0xCE DUP2 PUSH2 0xAA JUMP JUMPDEST SWAP3 SWAP2 POP POP JUMP JUMPDEST PUSH0 PUSH1 0x20 DUP3 DUP5 SUB SLT ISZERO PUSH2 0xE9 JUMPI PUSH2 0xE8 PUSH2 0x76 JUMP JUMPDEST JUMPDEST PUSH0 PUSH2 0xF6 DUP5 DUP3 DUP6 ADD PUSH2 0xC0 JUMP JUMPDEST SWAP2 POP POP SWAP3 SWAP2 POP POP JUMP JUMPDEST PUSH2 0x33F DUP1 PUSH2 0x10C PUSH0 CODECOPY PUSH0 RETURN INVALID PUSH1 0x80 PUSH1 0x40 MSTORE CALLVALUE DUP1 ISZERO PUSH2 0xF JUMPI PUSH0 PUSH0 REVERT JUMPDEST POP PUSH1 0x4 CALLDATASIZE LT PUSH2 0x34 JUMPI PUSH0 CALLDATALOAD PUSH1 0xE0 SHR DUP1 PUSH4 0xB5697598 EQ PUSH2 0x38 JUMPI DUP1 PUSH4 0xEC556889 EQ PUSH2 0x42 JUMPI JUMPDEST PUSH0 PUSH0 REVERT JUMPDEST PUSH2 0x40 PUSH2 0x60 JUMP JUMPDEST STOP JUMPDEST PUSH2 0x4A PUSH2 0x1AD JUMP JUMPDEST PUSH1 0x40 MLOAD PUSH2 0x57 SWAP2 SWAP1 PUSH2 0x210 JUMP JUMPDEST PUSH1 0x40 MLOAD DUP1 SWAP2 SUB SWAP1 RETURN JUMPDEST PUSH0 PUSH0 PUSH0 SWAP1 SLOAD SWAP1 PUSH2 0x100 EXP SWAP1 DIV PUSH20 0xFFFFFFFFFFFFFFFFFFFFFFFFFFFFFFFFFFFFFFFF AND PUSH20 0xFFFFFFFFFFFFFFFFFFFFFFFFFFFFFFFFFFFFFFFF AND PUSH1 0x40 MLOAD PUSH1 0x24 ADD PUSH1 0x40 MLOAD PUSH1 0x20 DUP2 DUP4 SUB SUB DUP2 MSTORE SWAP1 PUSH1 0x40 MSTORE PUSH32 0xB569759800000000000000000000000000000000000000000000000000000000 PUSH28 0xFFFFFFFFFFFFFFFFFFFFFFFFFFFFFFFFFFFFFFFFFFFFFFFFFFFFFFFF NOT AND PUSH1 0x20 DUP3 ADD DUP1 MLOAD PUSH28 0xFFFFFFFFFFFFFFFFFFFFFFFFFFFFFFFFFFFFFFFFFFFFFFFFFFFFFFFF DUP4 DUP2 DUP4 AND OR DUP4 MSTORE POP POP POP POP PUSH1 0x40 MLOAD PUSH2 0x128 SWAP2 SWAP1 PUSH2 0x27B JUMP JUMPDEST PUSH0 PUSH1 0x40 MLOAD DUP1 DUP4 SUB DUP2 PUSH0 DUP7 GAS CALL SWAP2 POP POP RETURNDATASIZE DUP1 PUSH0 DUP2 EQ PUSH2 0x161 JUMPI PUSH1 0x40 MLOAD SWAP2 POP PUSH1 0x1F NOT PUSH1 0x3F RETURNDATASIZE ADD AND DUP3 ADD PUSH1 0x40 MSTORE RETURNDATASIZE DUP3 MSTORE RETURNDATASIZE PUSH0 PUSH1 0x20 DUP5 ADD RETURNDATACOPY PUSH2 0x166 JUMP JUMPDEST PUSH1 0x60 SWAP2 POP JUMPDEST POP POP SWAP1 POP DUP1 PUSH2 0x1AA JUMPI PUSH1 0x40 MLOAD PUSH32 0x8C379A000000000000000000000000000000000000000000000000000000000 DUP2 MSTORE PUSH1 0x4 ADD PUSH2 0x1A1 SWAP1 PUSH2 0x2EB JUMP JUMPDEST PUSH1 0x40 MLOAD DUP1 SWAP2 SUB SWAP1 REVERT JUMPDEST POP JUMP JUMPDEST PUSH0 PUSH0 SWAP1 SLOAD SWAP1 PUSH2 0x100 EXP SWAP1 DIV PUSH20 0xFFFFFFFFFFFFFFFFFFFFFFFFFFFFFFFFFFFFFFFF AND DUP2 JUMP JUMPDEST PUSH0 PUSH20 0xFFFFFFFFFFFFFFFFFFFFFFFFFFFFFFFFFFFFFFFF DUP3 AND SWAP1 POP SWAP2 SWAP1 POP JUMP JUMPDEST PUSH0 PUSH2 0x1FA DUP3 PUSH2 0x1D1 JUMP JUMPDEST SWAP1 POP SWAP2 SWAP1 POP JUMP JUMPDEST PUSH2 0x20A DUP2 PUSH2 0x1F0 JUMP JUMPDEST DUP3 MSTORE POP POP JUMP JUMPDEST PUSH0 PUSH1 0x20 DUP3 ADD SWAP1 POP PUSH2 0x223 PUSH0 DUP4 ADD DUP5 PUSH2 0x201 JUMP JUMPDEST SWAP3 SWAP2 POP POP JUMP JUMPDEST PUSH0 DUP2 MLOAD SWAP1 POP SWAP2 SWAP1 POP JUMP JUMPDEST PUSH0 DUP2 SWAP1 POP SWAP3 SWAP2 POP POP JUMP JUMPDEST DUP3 DUP2 DUP4 MCOPY PUSH0 DUP4 DUP4 ADD MSTORE POP POP POP JUMP JUMPDEST PUSH0 PUSH2 0x255 DUP3 PUSH2 0x229 JUMP JUMPDEST PUSH2 0x25F DUP2 DUP6 PUSH2 0x233 JUMP JUMPDEST SWAP4 POP PUSH2 0x26F DUP2 DUP6 PUSH1 0x20 DUP7 ADD PUSH2 0x23D JUMP JUMPDEST DUP1 DUP5 ADD SWAP2 POP POP SWAP3 SWAP2 POP POP JUMP JUMPDEST PUSH0 PUSH2 0x286 DUP3 DUP5 PUSH2 0x24B JUMP JUMPDEST SWAP2 POP DUP2 SWAP1 POP SWAP3 SWAP2 POP POP JUMP JUMPDEST PUSH0 DUP3 DUP3 MSTORE PUSH1 0x20 DUP3 ADD SWAP1 POP SWAP3 SWAP2 POP POP JUMP JUMPDEST PUSH32 0x44656C65676174652063616C6C206661696C6564000000000000000000000000 PUSH0 DUP3 ADD MSTORE POP JUMP JUMPDEST PUSH0 PUSH2 0x2D5 PUSH1 0x14 DUP4 PUSH2 0x291 JUMP JUMPDEST SWAP2 POP PUSH2 0x2E0 DUP3 PUSH2 0x2A1 JUMP JUMPDEST PUSH1 0x20 DUP3 ADD SWAP1 POP SWAP2 SWAP1 POP JUMP JUMPDEST PUSH0 PUSH1 0x20 DUP3 ADD SWAP1 POP DUP2 DUP2 SUB PUSH0 DUP4 ADD MSTORE PUSH2 0x302 DUP2 PUSH2 0x2C9 JUMP JUMPDEST SWAP1 POP SWAP2 SWAP1 POP JUMP INVALID LOG2 PUSH5 0x6970667358 0x22 SLT KECCAK256 SWAP11 RETF 0xA9 CALL 0xB5 0x28 0x2D PUSH7 0x24261863CB3D8D 0x28 MSTORE8 0xD5 REVERT JUMPF 0x5F1D NOT SSTORE PUSH16 0x40135062F8692064736F6C634300081E STOP CALLER "
				},
				"gasEstimates": {
					"creation": {
						"codeDepositCost": "166200",
						"executionCost": "infinite",
						"totalCost": "infinite"
					},
					"external": {
						"AddValue()": "infinite",
						"proxy()": "2507"
					}
				},
				"methodIdentifiers": {
					"AddValue()": "b5697598",
					"proxy()": "ec556889"
				}
			},
			"storageLayout": {
				"storage": [
					{
						"astId": 71,
						"contract": "22_delegateCall.sol:Client",
						"label": "proxy",
						"offset": 0,
						"slot": "0",
						"type": "t_address"
					}
				],
				"types": {
					"t_address": {
						"encoding": "inplace",
						"label": "address",
						"numberOfBytes": "20"
					}
				}
			},
			"userdoc": {
				"kind": "user",
				"methods": {},
				"version": 1
			}
		}
	}
}