{
	"27_Abi.sol": {
		"Abi": {
			"abi": [
				{
					"inputs": [
						{
							"internalType": "bytes",
							"name": "data",
							"type": "bytes"
						}
					],
					"name": "decodeData",
					"outputs": [
						{
							"internalType": "address",
							"name": "",
							"type": "address"
						},
						{
							"internalType": "uint256",
							"name": "",
							"type": "uint256"
						}
					],
					"stateMutability": "pure",
					"type": "function"
				},
				{
					"inputs": [
						{
							"internalType": "address",
							"name": "_addr",
							"type": "address"
						},
						{
							"internalType": "uint256",
							"name": "_val",
							"type": "uint256"
						}
					],
					"name": "getEncode",
					"outputs": [
						{
							"internalType": "bytes",
							"name": "",
							"type": "bytes"
						}
					],
					"stateMutability": "pure",
					"type": "function"
				},
				{
					"inputs": [
						{
							"internalType": "address",
							"name": "_addr",
							"type": "address"
						},
						{
							"internalType": "uint256",
							"name": "_val",
							"type": "uint256"
						}
					],
					"name": "getEncodePacked",
					"outputs": [
						{
							"internalType": "bytes",
							"name": "",
							"type": "bytes"
						}
					],
					"stateMutability": "pure",
					"type": "function"
				},
				{
					"inputs": [
						{
							"internalType": "address",
							"name": "_addr",
							"type": "address"
						},
						{
							"internalType": "uint256",
							"name": "_val",
							"type": "uint256"
						}
					],
					"name": "getEncodeWithSelector",
					"outputs": [
						{
							"internalType": "bytes",
							"name": "",
							"type": "bytes"
						}
					],
					"stateMutability": "pure",
					"type": "function"
				},
				{
					"inputs": [
						{
							"internalType": "address",
							"name": "_addr",
							"type": "address"
						},
						{
							"internalType": "uint256",
							"name": "_val",
							"type": "uint256"
						}
					],
					"name": "getEncodeWithSignature",
					"outputs": [
						{
							"internalType": "bytes",
							"name": "",
							"type": "bytes"
						}
					],
					"stateMutability": "pure",
					"type": "function"
				}
			],
			"devdoc": {
				"kind": "dev",
				"methods": {},
				"version": 1
			},
			"evm": {
				"assembly": "    /* \"27_Abi.sol\":58:1167  contract Abi {... */\n  mstore(0x40, 0x80)\n  callvalue\n  dup1\n  iszero\n  tag_1\n  jumpi\n  revert(0x00, 0x00)\ntag_1:\n  pop\n  dataSize(sub_0)\n  dup1\n  dataOffset(sub_0)\n  0x00\n  codecopy\n  0x00\n  return\nstop\n\nsub_0: assembly {\n        /* \"27_Abi.sol\":58:1167  contract Abi {... */\n      mstore(0x40, 0x80)\n      callvalue\n      dup1\n      iszero\n      tag_1\n      jumpi\n      revert(0x00, 0x00)\n    tag_1:\n      pop\n      jumpi(tag_2, lt(calldatasize, 0x04))\n      shr(0xe0, calldataload(0x00))\n      dup1\n      0x1d486411\n      eq\n      tag_3\n      jumpi\n      dup1\n      0x447a06f5\n      eq\n      tag_4\n      jumpi\n      dup1\n      0x562d173a\n      eq\n      tag_5\n      jumpi\n      dup1\n      0x5fcde8c4\n      eq\n      tag_6\n      jumpi\n      dup1\n      0x97c8e3d5\n      eq\n      tag_7\n      jumpi\n    tag_2:\n      revert(0x00, 0x00)\n        /* \"27_Abi.sol\":212:353  function getEncodePacked(address _addr, uint256 _val) pure public returns(bytes memory) {... */\n    tag_3:\n      tag_8\n      0x04\n      dup1\n      calldatasize\n      sub\n      dup2\n      add\n      swap1\n      tag_9\n      swap2\n      swap1\n      tag_10\n      jump\t// in\n    tag_9:\n      tag_11\n      jump\t// in\n    tag_8:\n      mload(0x40)\n      tag_12\n      swap2\n      swap1\n      tag_13\n      jump\t// in\n    tag_12:\n      mload(0x40)\n      dup1\n      swap2\n      sub\n      swap1\n      return\n        /* \"27_Abi.sol\":977:1165  function decodeData(bytes memory data) pure public returns (address, uint256){... */\n    tag_4:\n      tag_14\n      0x04\n      dup1\n      calldatasize\n      sub\n      dup2\n      add\n      swap1\n      tag_15\n      swap2\n      swap1\n      tag_16\n      jump\t// in\n    tag_15:\n      tag_17\n      jump\t// in\n    tag_14:\n      mload(0x40)\n      tag_18\n      swap3\n      swap2\n      swap1\n      tag_19\n      jump\t// in\n    tag_18:\n      mload(0x40)\n      dup1\n      swap2\n      sub\n      swap1\n      return\n        /* \"27_Abi.sol\":359:635  function getEncodeWithSelector(address _addr, uint256 _val) pure public returns (bytes memory) {... */\n    tag_5:\n      tag_20\n      0x04\n      dup1\n      calldatasize\n      sub\n      dup2\n      add\n      swap1\n      tag_21\n      swap2\n      swap1\n      tag_10\n      jump\t// in\n    tag_21:\n      tag_22\n      jump\t// in\n    tag_20:\n      mload(0x40)\n      tag_23\n      swap2\n      swap1\n      tag_13\n      jump\t// in\n    tag_23:\n      mload(0x40)\n      dup1\n      swap2\n      sub\n      swap1\n      return\n        /* \"27_Abi.sol\":754:971  function getEncodeWithSignature(address _addr, uint256 _val) pure public returns (bytes memory) {... */\n    tag_6:\n      tag_24\n      0x04\n      dup1\n      calldatasize\n      sub\n      dup2\n      add\n      swap1\n      tag_25\n      swap2\n      swap1\n      tag_10\n      jump\t// in\n    tag_25:\n      tag_26\n      jump\t// in\n    tag_24:\n      mload(0x40)\n      tag_27\n      swap2\n      swap1\n      tag_13\n      jump\t// in\n    tag_27:\n      mload(0x40)\n      dup1\n      swap2\n      sub\n      swap1\n      return\n        /* \"27_Abi.sol\":77:206  function getEncode(address _addr, uint256 _val) pure public returns(bytes memory) {... */\n    tag_7:\n      tag_28\n      0x04\n      dup1\n      calldatasize\n      sub\n      dup2\n      add\n      swap1\n      tag_29\n      swap2\n      swap1\n      tag_10\n      jump\t// in\n    tag_29:\n      tag_30\n      jump\t// in\n    tag_28:\n      mload(0x40)\n      tag_31\n      swap2\n      swap1\n      tag_13\n      jump\t// in\n    tag_31:\n      mload(0x40)\n      dup1\n      swap2\n      sub\n      swap1\n      return\n        /* \"27_Abi.sol\":212:353  function getEncodePacked(address _addr, uint256 _val) pure public returns(bytes memory) {... */\n    tag_11:\n        /* \"27_Abi.sol\":286:298  bytes memory */\n      0x60\n        /* \"27_Abi.sol\":334:339  _addr */\n      dup3\n        /* \"27_Abi.sol\":341:345  _val */\n      dup3\n        /* \"27_Abi.sol\":317:346  abi.encodePacked(_addr, _val) */\n      add(0x20, mload(0x40))\n      tag_33\n      swap3\n      swap2\n      swap1\n      tag_34\n      jump\t// in\n    tag_33:\n      mload(0x40)\n      0x20\n      dup2\n      dup4\n      sub\n      sub\n      dup2\n      mstore\n      swap1\n      0x40\n      mstore\n        /* \"27_Abi.sol\":310:346  return abi.encodePacked(_addr, _val) */\n      swap1\n      pop\n        /* \"27_Abi.sol\":212:353  function getEncodePacked(address _addr, uint256 _val) pure public returns(bytes memory) {... */\n      swap3\n      swap2\n      pop\n      pop\n      jump\t// out\n        /* \"27_Abi.sol\":977:1165  function decodeData(bytes memory data) pure public returns (address, uint256){... */\n    tag_17:\n        /* \"27_Abi.sol\":1037:1044  address */\n      0x00\n        /* \"27_Abi.sol\":1046:1053  uint256 */\n      0x00\n        /* \"27_Abi.sol\":1065:1077  address addr */\n      0x00\n        /* \"27_Abi.sol\":1079:1090  uint256 val */\n      0x00\n        /* \"27_Abi.sol\":1105:1109  data */\n      dup5\n        /* \"27_Abi.sol\":1094:1130  abi.decode(data, (address, uint256)) */\n      dup1\n      0x20\n      add\n      swap1\n      mload\n      dup2\n      add\n      swap1\n      tag_36\n      swap2\n      swap1\n      tag_37\n      jump\t// in\n    tag_36:\n        /* \"27_Abi.sol\":1064:1130  (address addr, uint256 val) = abi.decode(data, (address, uint256)) */\n      swap2\n      pop\n      swap2\n      pop\n        /* \"27_Abi.sol\":1148:1152  addr */\n      dup2\n        /* \"27_Abi.sol\":1154:1157  val */\n      dup2\n        /* \"27_Abi.sol\":1140:1158  return (addr, val) */\n      swap4\n      pop\n      swap4\n      pop\n      pop\n      pop\n        /* \"27_Abi.sol\":977:1165  function decodeData(bytes memory data) pure public returns (address, uint256){... */\n      swap2\n      pop\n      swap2\n      jump\t// out\n        /* \"27_Abi.sol\":359:635  function getEncodeWithSelector(address _addr, uint256 _val) pure public returns (bytes memory) {... */\n    tag_22:\n        /* \"27_Abi.sol\":440:452  bytes memory */\n      0x60\n        /* \"27_Abi.sol\":464:479  bytes4 selector */\n      0x00\n        /* \"27_Abi.sol\":499:530  bytes(\"transfer(address,uint)\") */\n      mload(0x40)\n      dup1\n      0x40\n      add\n      0x40\n      mstore\n      dup1\n      0x16\n      dup2\n      mstore\n      0x20\n      add\n      0x7472616e7366657228616464726573732c75696e742900000000000000000000\n      dup2\n      mstore\n      pop\n        /* \"27_Abi.sol\":489:531  keccak256(bytes(\"transfer(address,uint)\")) */\n      dup1\n      mload\n      swap1\n      0x20\n      add\n      keccak256\n        /* \"27_Abi.sol\":464:532  bytes4 selector = bytes4(keccak256(bytes(\"transfer(address,uint)\"))) */\n      swap1\n      pop\n        /* \"27_Abi.sol\":542:559  bytes memory data */\n      0x00\n        /* \"27_Abi.sol\":585:593  selector */\n      dup2\n        /* \"27_Abi.sol\":595:600  _addr */\n      dup6\n        /* \"27_Abi.sol\":602:606  _val */\n      dup6\n        /* \"27_Abi.sol\":562:607  abi.encodeWithSelector(selector, _addr, _val) */\n      add(0x24, mload(0x40))\n      tag_39\n      swap3\n      swap2\n      swap1\n      tag_19\n      jump\t// in\n    tag_39:\n      mload(0x40)\n      0x20\n      dup2\n      dup4\n      sub\n      sub\n      dup2\n      mstore\n      swap1\n      0x40\n      mstore\n      swap1\n      not(0xffffffffffffffffffffffffffffffffffffffffffffffffffffffff)\n      and\n      0x20\n      dup3\n      add\n      dup1\n      mload\n      0xffffffffffffffffffffffffffffffffffffffffffffffffffffffff\n      dup4\n      dup2\n      dup4\n      and\n      or\n      dup4\n      mstore\n      pop\n      pop\n      pop\n      pop\n        /* \"27_Abi.sol\":542:607  bytes memory data = abi.encodeWithSelector(selector, _addr, _val) */\n      swap1\n      pop\n        /* \"27_Abi.sol\":624:628  data */\n      dup1\n        /* \"27_Abi.sol\":617:628  return data */\n      swap3\n      pop\n      pop\n      pop\n        /* \"27_Abi.sol\":359:635  function getEncodeWithSelector(address _addr, uint256 _val) pure public returns (bytes memory) {... */\n      swap3\n      swap2\n      pop\n      pop\n      jump\t// out\n        /* \"27_Abi.sol\":754:971  function getEncodeWithSignature(address _addr, uint256 _val) pure public returns (bytes memory) {... */\n    tag_26:\n        /* \"27_Abi.sol\":836:848  bytes memory */\n      0x60\n        /* \"27_Abi.sol\":860:877  bytes memory data */\n      0x00\n        /* \"27_Abi.sol\":931:936  _addr */\n      dup4\n        /* \"27_Abi.sol\":938:942  _val */\n      dup4\n        /* \"27_Abi.sol\":880:943  abi.encodeWithSignature(\"transfer(address, uint)\", _addr, _val) */\n      add(0x24, mload(0x40))\n      tag_41\n      swap3\n      swap2\n      swap1\n      tag_19\n      jump\t// in\n    tag_41:\n      mload(0x40)\n      0x20\n      dup2\n      dup4\n      sub\n      sub\n      dup2\n      mstore\n      swap1\n      0x40\n      mstore\n      and(not(0xffffffffffffffffffffffffffffffffffffffffffffffffffffffff), 0x9e17553b00000000000000000000000000000000000000000000000000000000)\n      0x20\n      dup3\n      add\n      dup1\n      mload\n      0xffffffffffffffffffffffffffffffffffffffffffffffffffffffff\n      dup4\n      dup2\n      dup4\n      and\n      or\n      dup4\n      mstore\n      pop\n      pop\n      pop\n      pop\n        /* \"27_Abi.sol\":860:943  bytes memory data = abi.encodeWithSignature(\"transfer(address, uint)\", _addr, _val) */\n      swap1\n      pop\n        /* \"27_Abi.sol\":960:964  data */\n      dup1\n        /* \"27_Abi.sol\":953:964  return data */\n      swap2\n      pop\n      pop\n        /* \"27_Abi.sol\":754:971  function getEncodeWithSignature(address _addr, uint256 _val) pure public returns (bytes memory) {... */\n      swap3\n      swap2\n      pop\n      pop\n      jump\t// out\n        /* \"27_Abi.sol\":77:206  function getEncode(address _addr, uint256 _val) pure public returns(bytes memory) {... */\n    tag_30:\n        /* \"27_Abi.sol\":145:157  bytes memory */\n      0x60\n        /* \"27_Abi.sol\":187:192  _addr */\n      dup3\n        /* \"27_Abi.sol\":194:198  _val */\n      dup3\n        /* \"27_Abi.sol\":176:199  abi.encode(_addr, _val) */\n      add(0x20, mload(0x40))\n      tag_43\n      swap3\n      swap2\n      swap1\n      tag_19\n      jump\t// in\n    tag_43:\n      mload(0x40)\n      0x20\n      dup2\n      dup4\n      sub\n      sub\n      dup2\n      mstore\n      swap1\n      0x40\n      mstore\n        /* \"27_Abi.sol\":169:199  return abi.encode(_addr, _val) */\n      swap1\n      pop\n        /* \"27_Abi.sol\":77:206  function getEncode(address _addr, uint256 _val) pure public returns(bytes memory) {... */\n      swap3\n      swap2\n      pop\n      pop\n      jump\t// out\n        /* \"#utility.yul\":7:82   */\n    tag_44:\n        /* \"#utility.yul\":40:46   */\n      0x00\n        /* \"#utility.yul\":73:75   */\n      0x40\n        /* \"#utility.yul\":67:76   */\n      mload\n        /* \"#utility.yul\":57:76   */\n      swap1\n      pop\n        /* \"#utility.yul\":7:82   */\n      swap1\n      jump\t// out\n        /* \"#utility.yul\":88:205   */\n    tag_45:\n        /* \"#utility.yul\":197:198   */\n      0x00\n        /* \"#utility.yul\":194:195   */\n      0x00\n        /* \"#utility.yul\":187:199   */\n      revert\n        /* \"#utility.yul\":211:328   */\n    tag_46:\n        /* \"#utility.yul\":320:321   */\n      0x00\n        /* \"#utility.yul\":317:318   */\n      0x00\n        /* \"#utility.yul\":310:322   */\n      revert\n        /* \"#utility.yul\":334:460   */\n    tag_47:\n        /* \"#utility.yul\":371:378   */\n      0x00\n        /* \"#utility.yul\":411:453   */\n      0xffffffffffffffffffffffffffffffffffffffff\n        /* \"#utility.yul\":404:409   */\n      dup3\n        /* \"#utility.yul\":400:454   */\n      and\n        /* \"#utility.yul\":389:454   */\n      swap1\n      pop\n        /* \"#utility.yul\":334:460   */\n      swap2\n      swap1\n      pop\n      jump\t// out\n        /* \"#utility.yul\":466:562   */\n    tag_48:\n        /* \"#utility.yul\":503:510   */\n      0x00\n        /* \"#utility.yul\":532:556   */\n      tag_86\n        /* \"#utility.yul\":550:555   */\n      dup3\n        /* \"#utility.yul\":532:556   */\n      tag_47\n      jump\t// in\n    tag_86:\n        /* \"#utility.yul\":521:556   */\n      swap1\n      pop\n        /* \"#utility.yul\":466:562   */\n      swap2\n      swap1\n      pop\n      jump\t// out\n        /* \"#utility.yul\":568:690   */\n    tag_49:\n        /* \"#utility.yul\":641:665   */\n      tag_88\n        /* \"#utility.yul\":659:664   */\n      dup2\n        /* \"#utility.yul\":641:665   */\n      tag_48\n      jump\t// in\n    tag_88:\n        /* \"#utility.yul\":634:639   */\n      dup2\n        /* \"#utility.yul\":631:666   */\n      eq\n        /* \"#utility.yul\":621:684   */\n      tag_89\n      jumpi\n        /* \"#utility.yul\":680:681   */\n      0x00\n        /* \"#utility.yul\":677:678   */\n      0x00\n        /* \"#utility.yul\":670:682   */\n      revert\n        /* \"#utility.yul\":621:684   */\n    tag_89:\n        /* \"#utility.yul\":568:690   */\n      pop\n      jump\t// out\n        /* \"#utility.yul\":696:835   */\n    tag_50:\n        /* \"#utility.yul\":742:747   */\n      0x00\n        /* \"#utility.yul\":780:786   */\n      dup2\n        /* \"#utility.yul\":767:787   */\n      calldataload\n        /* \"#utility.yul\":758:787   */\n      swap1\n      pop\n        /* \"#utility.yul\":796:829   */\n      tag_91\n        /* \"#utility.yul\":823:828   */\n      dup2\n        /* \"#utility.yul\":796:829   */\n      tag_49\n      jump\t// in\n    tag_91:\n        /* \"#utility.yul\":696:835   */\n      swap3\n      swap2\n      pop\n      pop\n      jump\t// out\n        /* \"#utility.yul\":841:918   */\n    tag_51:\n        /* \"#utility.yul\":878:885   */\n      0x00\n        /* \"#utility.yul\":907:912   */\n      dup2\n        /* \"#utility.yul\":896:912   */\n      swap1\n      pop\n        /* \"#utility.yul\":841:918   */\n      swap2\n      swap1\n      pop\n      jump\t// out\n        /* \"#utility.yul\":924:1046   */\n    tag_52:\n        /* \"#utility.yul\":997:1021   */\n      tag_94\n        /* \"#utility.yul\":1015:1020   */\n      dup2\n        /* \"#utility.yul\":997:1021   */\n      tag_51\n      jump\t// in\n    tag_94:\n        /* \"#utility.yul\":990:995   */\n      dup2\n        /* \"#utility.yul\":987:1022   */\n      eq\n        /* \"#utility.yul\":977:1040   */\n      tag_95\n      jumpi\n        /* \"#utility.yul\":1036:1037   */\n      0x00\n        /* \"#utility.yul\":1033:1034   */\n      0x00\n        /* \"#utility.yul\":1026:1038   */\n      revert\n        /* \"#utility.yul\":977:1040   */\n    tag_95:\n        /* \"#utility.yul\":924:1046   */\n      pop\n      jump\t// out\n        /* \"#utility.yul\":1052:1191   */\n    tag_53:\n        /* \"#utility.yul\":1098:1103   */\n      0x00\n        /* \"#utility.yul\":1136:1142   */\n      dup2\n        /* \"#utility.yul\":1123:1143   */\n      calldataload\n        /* \"#utility.yul\":1114:1143   */\n      swap1\n      pop\n        /* \"#utility.yul\":1152:1185   */\n      tag_97\n        /* \"#utility.yul\":1179:1184   */\n      dup2\n        /* \"#utility.yul\":1152:1185   */\n      tag_52\n      jump\t// in\n    tag_97:\n        /* \"#utility.yul\":1052:1191   */\n      swap3\n      swap2\n      pop\n      pop\n      jump\t// out\n        /* \"#utility.yul\":1197:1671   */\n    tag_10:\n        /* \"#utility.yul\":1265:1271   */\n      0x00\n        /* \"#utility.yul\":1273:1279   */\n      0x00\n        /* \"#utility.yul\":1322:1324   */\n      0x40\n        /* \"#utility.yul\":1310:1319   */\n      dup4\n        /* \"#utility.yul\":1301:1308   */\n      dup6\n        /* \"#utility.yul\":1297:1320   */\n      sub\n        /* \"#utility.yul\":1293:1325   */\n      slt\n        /* \"#utility.yul\":1290:1409   */\n      iszero\n      tag_99\n      jumpi\n        /* \"#utility.yul\":1328:1407   */\n      tag_100\n      tag_45\n      jump\t// in\n    tag_100:\n        /* \"#utility.yul\":1290:1409   */\n    tag_99:\n        /* \"#utility.yul\":1448:1449   */\n      0x00\n        /* \"#utility.yul\":1473:1526   */\n      tag_101\n        /* \"#utility.yul\":1518:1525   */\n      dup6\n        /* \"#utility.yul\":1509:1515   */\n      dup3\n        /* \"#utility.yul\":1498:1507   */\n      dup7\n        /* \"#utility.yul\":1494:1516   */\n      add\n        /* \"#utility.yul\":1473:1526   */\n      tag_50\n      jump\t// in\n    tag_101:\n        /* \"#utility.yul\":1463:1526   */\n      swap3\n      pop\n        /* \"#utility.yul\":1419:1536   */\n      pop\n        /* \"#utility.yul\":1575:1577   */\n      0x20\n        /* \"#utility.yul\":1601:1654   */\n      tag_102\n        /* \"#utility.yul\":1646:1653   */\n      dup6\n        /* \"#utility.yul\":1637:1643   */\n      dup3\n        /* \"#utility.yul\":1626:1635   */\n      dup7\n        /* \"#utility.yul\":1622:1644   */\n      add\n        /* \"#utility.yul\":1601:1654   */\n      tag_53\n      jump\t// in\n    tag_102:\n        /* \"#utility.yul\":1591:1654   */\n      swap2\n      pop\n        /* \"#utility.yul\":1546:1664   */\n      pop\n        /* \"#utility.yul\":1197:1671   */\n      swap3\n      pop\n      swap3\n      swap1\n      pop\n      jump\t// out\n        /* \"#utility.yul\":1677:1775   */\n    tag_54:\n        /* \"#utility.yul\":1728:1734   */\n      0x00\n        /* \"#utility.yul\":1762:1767   */\n      dup2\n        /* \"#utility.yul\":1756:1768   */\n      mload\n        /* \"#utility.yul\":1746:1768   */\n      swap1\n      pop\n        /* \"#utility.yul\":1677:1775   */\n      swap2\n      swap1\n      pop\n      jump\t// out\n        /* \"#utility.yul\":1781:1949   */\n    tag_55:\n        /* \"#utility.yul\":1864:1875   */\n      0x00\n        /* \"#utility.yul\":1898:1904   */\n      dup3\n        /* \"#utility.yul\":1893:1896   */\n      dup3\n        /* \"#utility.yul\":1886:1905   */\n      mstore\n        /* \"#utility.yul\":1938:1942   */\n      0x20\n        /* \"#utility.yul\":1933:1936   */\n      dup3\n        /* \"#utility.yul\":1929:1943   */\n      add\n        /* \"#utility.yul\":1914:1943   */\n      swap1\n      pop\n        /* \"#utility.yul\":1781:1949   */\n      swap3\n      swap2\n      pop\n      pop\n      jump\t// out\n        /* \"#utility.yul\":1955:2094   */\n    tag_56:\n        /* \"#utility.yul\":2044:2050   */\n      dup3\n        /* \"#utility.yul\":2039:2042   */\n      dup2\n        /* \"#utility.yul\":2034:2037   */\n      dup4\n        /* \"#utility.yul\":2028:2051   */\n      mcopy\n        /* \"#utility.yul\":2085:2086   */\n      0x00\n        /* \"#utility.yul\":2076:2082   */\n      dup4\n        /* \"#utility.yul\":2071:2074   */\n      dup4\n        /* \"#utility.yul\":2067:2083   */\n      add\n        /* \"#utility.yul\":2060:2087   */\n      mstore\n        /* \"#utility.yul\":1955:2094   */\n      pop\n      pop\n      pop\n      jump\t// out\n        /* \"#utility.yul\":2100:2202   */\n    tag_57:\n        /* \"#utility.yul\":2141:2147   */\n      0x00\n        /* \"#utility.yul\":2192:2194   */\n      0x1f\n        /* \"#utility.yul\":2188:2195   */\n      not\n        /* \"#utility.yul\":2183:2185   */\n      0x1f\n        /* \"#utility.yul\":2176:2181   */\n      dup4\n        /* \"#utility.yul\":2172:2186   */\n      add\n        /* \"#utility.yul\":2168:2196   */\n      and\n        /* \"#utility.yul\":2158:2196   */\n      swap1\n      pop\n        /* \"#utility.yul\":2100:2202   */\n      swap2\n      swap1\n      pop\n      jump\t// out\n        /* \"#utility.yul\":2208:2581   */\n    tag_58:\n        /* \"#utility.yul\":2294:2297   */\n      0x00\n        /* \"#utility.yul\":2322:2360   */\n      tag_108\n        /* \"#utility.yul\":2354:2359   */\n      dup3\n        /* \"#utility.yul\":2322:2360   */\n      tag_54\n      jump\t// in\n    tag_108:\n        /* \"#utility.yul\":2376:2446   */\n      tag_109\n        /* \"#utility.yul\":2439:2445   */\n      dup2\n        /* \"#utility.yul\":2434:2437   */\n      dup6\n        /* \"#utility.yul\":2376:2446   */\n      tag_55\n      jump\t// in\n    tag_109:\n        /* \"#utility.yul\":2369:2446   */\n      swap4\n      pop\n        /* \"#utility.yul\":2455:2520   */\n      tag_110\n        /* \"#utility.yul\":2513:2519   */\n      dup2\n        /* \"#utility.yul\":2508:2511   */\n      dup6\n        /* \"#utility.yul\":2501:2505   */\n      0x20\n        /* \"#utility.yul\":2494:2499   */\n      dup7\n        /* \"#utility.yul\":2490:2506   */\n      add\n        /* \"#utility.yul\":2455:2520   */\n      tag_56\n      jump\t// in\n    tag_110:\n        /* \"#utility.yul\":2545:2574   */\n      tag_111\n        /* \"#utility.yul\":2567:2573   */\n      dup2\n        /* \"#utility.yul\":2545:2574   */\n      tag_57\n      jump\t// in\n    tag_111:\n        /* \"#utility.yul\":2540:2543   */\n      dup5\n        /* \"#utility.yul\":2536:2575   */\n      add\n        /* \"#utility.yul\":2529:2575   */\n      swap2\n      pop\n        /* \"#utility.yul\":2298:2581   */\n      pop\n        /* \"#utility.yul\":2208:2581   */\n      swap3\n      swap2\n      pop\n      pop\n      jump\t// out\n        /* \"#utility.yul\":2587:2896   */\n    tag_13:\n        /* \"#utility.yul\":2698:2702   */\n      0x00\n        /* \"#utility.yul\":2736:2738   */\n      0x20\n        /* \"#utility.yul\":2725:2734   */\n      dup3\n        /* \"#utility.yul\":2721:2739   */\n      add\n        /* \"#utility.yul\":2713:2739   */\n      swap1\n      pop\n        /* \"#utility.yul\":2785:2794   */\n      dup2\n        /* \"#utility.yul\":2779:2783   */\n      dup2\n        /* \"#utility.yul\":2775:2795   */\n      sub\n        /* \"#utility.yul\":2771:2772   */\n      0x00\n        /* \"#utility.yul\":2760:2769   */\n      dup4\n        /* \"#utility.yul\":2756:2773   */\n      add\n        /* \"#utility.yul\":2749:2796   */\n      mstore\n        /* \"#utility.yul\":2813:2889   */\n      tag_113\n        /* \"#utility.yul\":2884:2888   */\n      dup2\n        /* \"#utility.yul\":2875:2881   */\n      dup5\n        /* \"#utility.yul\":2813:2889   */\n      tag_58\n      jump\t// in\n    tag_113:\n        /* \"#utility.yul\":2805:2889   */\n      swap1\n      pop\n        /* \"#utility.yul\":2587:2896   */\n      swap3\n      swap2\n      pop\n      pop\n      jump\t// out\n        /* \"#utility.yul\":2902:3019   */\n    tag_59:\n        /* \"#utility.yul\":3011:3012   */\n      0x00\n        /* \"#utility.yul\":3008:3009   */\n      0x00\n        /* \"#utility.yul\":3001:3013   */\n      revert\n        /* \"#utility.yul\":3025:3142   */\n    tag_60:\n        /* \"#utility.yul\":3134:3135   */\n      0x00\n        /* \"#utility.yul\":3131:3132   */\n      0x00\n        /* \"#utility.yul\":3124:3136   */\n      revert\n        /* \"#utility.yul\":3148:3328   */\n    tag_61:\n        /* \"#utility.yul\":3196:3273   */\n      0x4e487b7100000000000000000000000000000000000000000000000000000000\n        /* \"#utility.yul\":3193:3194   */\n      0x00\n        /* \"#utility.yul\":3186:3274   */\n      mstore\n        /* \"#utility.yul\":3293:3297   */\n      0x41\n        /* \"#utility.yul\":3290:3291   */\n      0x04\n        /* \"#utility.yul\":3283:3298   */\n      mstore\n        /* \"#utility.yul\":3317:3321   */\n      0x24\n        /* \"#utility.yul\":3314:3315   */\n      0x00\n        /* \"#utility.yul\":3307:3322   */\n      revert\n        /* \"#utility.yul\":3334:3615   */\n    tag_62:\n        /* \"#utility.yul\":3417:3444   */\n      tag_118\n        /* \"#utility.yul\":3439:3443   */\n      dup3\n        /* \"#utility.yul\":3417:3444   */\n      tag_57\n      jump\t// in\n    tag_118:\n        /* \"#utility.yul\":3409:3415   */\n      dup2\n        /* \"#utility.yul\":3405:3445   */\n      add\n        /* \"#utility.yul\":3547:3553   */\n      dup2\n        /* \"#utility.yul\":3535:3545   */\n      dup2\n        /* \"#utility.yul\":3532:3554   */\n      lt\n        /* \"#utility.yul\":3511:3529   */\n      0xffffffffffffffff\n        /* \"#utility.yul\":3499:3509   */\n      dup3\n        /* \"#utility.yul\":3496:3530   */\n      gt\n        /* \"#utility.yul\":3493:3555   */\n      or\n        /* \"#utility.yul\":3490:3578   */\n      iszero\n      tag_119\n      jumpi\n        /* \"#utility.yul\":3558:3576   */\n      tag_120\n      tag_61\n      jump\t// in\n    tag_120:\n        /* \"#utility.yul\":3490:3578   */\n    tag_119:\n        /* \"#utility.yul\":3598:3608   */\n      dup1\n        /* \"#utility.yul\":3594:3596   */\n      0x40\n        /* \"#utility.yul\":3587:3609   */\n      mstore\n        /* \"#utility.yul\":3377:3615   */\n      pop\n        /* \"#utility.yul\":3334:3615   */\n      pop\n      pop\n      jump\t// out\n        /* \"#utility.yul\":3621:3750   */\n    tag_63:\n        /* \"#utility.yul\":3655:3661   */\n      0x00\n        /* \"#utility.yul\":3682:3702   */\n      tag_122\n      tag_44\n      jump\t// in\n    tag_122:\n        /* \"#utility.yul\":3672:3702   */\n      swap1\n      pop\n        /* \"#utility.yul\":3711:3744   */\n      tag_123\n        /* \"#utility.yul\":3739:3743   */\n      dup3\n        /* \"#utility.yul\":3731:3737   */\n      dup3\n        /* \"#utility.yul\":3711:3744   */\n      tag_62\n      jump\t// in\n    tag_123:\n        /* \"#utility.yul\":3621:3750   */\n      swap2\n      swap1\n      pop\n      jump\t// out\n        /* \"#utility.yul\":3756:4063   */\n    tag_64:\n        /* \"#utility.yul\":3817:3821   */\n      0x00\n        /* \"#utility.yul\":3907:3925   */\n      0xffffffffffffffff\n        /* \"#utility.yul\":3899:3905   */\n      dup3\n        /* \"#utility.yul\":3896:3926   */\n      gt\n        /* \"#utility.yul\":3893:3949   */\n      iszero\n      tag_125\n      jumpi\n        /* \"#utility.yul\":3929:3947   */\n      tag_126\n      tag_61\n      jump\t// in\n    tag_126:\n        /* \"#utility.yul\":3893:3949   */\n    tag_125:\n        /* \"#utility.yul\":3967:3996   */\n      tag_127\n        /* \"#utility.yul\":3989:3995   */\n      dup3\n        /* \"#utility.yul\":3967:3996   */\n      tag_57\n      jump\t// in\n    tag_127:\n        /* \"#utility.yul\":3959:3996   */\n      swap1\n      pop\n        /* \"#utility.yul\":4051:4055   */\n      0x20\n        /* \"#utility.yul\":4045:4049   */\n      dup2\n        /* \"#utility.yul\":4041:4056   */\n      add\n        /* \"#utility.yul\":4033:4056   */\n      swap1\n      pop\n        /* \"#utility.yul\":3756:4063   */\n      swap2\n      swap1\n      pop\n      jump\t// out\n        /* \"#utility.yul\":4069:4217   */\n    tag_65:\n        /* \"#utility.yul\":4167:4173   */\n      dup3\n        /* \"#utility.yul\":4162:4165   */\n      dup2\n        /* \"#utility.yul\":4157:4160   */\n      dup4\n        /* \"#utility.yul\":4144:4174   */\n      calldatacopy\n        /* \"#utility.yul\":4208:4209   */\n      0x00\n        /* \"#utility.yul\":4199:4205   */\n      dup4\n        /* \"#utility.yul\":4194:4197   */\n      dup4\n        /* \"#utility.yul\":4190:4206   */\n      add\n        /* \"#utility.yul\":4183:4210   */\n      mstore\n        /* \"#utility.yul\":4069:4217   */\n      pop\n      pop\n      pop\n      jump\t// out\n        /* \"#utility.yul\":4223:4646   */\n    tag_66:\n        /* \"#utility.yul\":4300:4305   */\n      0x00\n        /* \"#utility.yul\":4325:4390   */\n      tag_130\n        /* \"#utility.yul\":4341:4389   */\n      tag_131\n        /* \"#utility.yul\":4382:4388   */\n      dup5\n        /* \"#utility.yul\":4341:4389   */\n      tag_64\n      jump\t// in\n    tag_131:\n        /* \"#utility.yul\":4325:4390   */\n      tag_63\n      jump\t// in\n    tag_130:\n        /* \"#utility.yul\":4316:4390   */\n      swap1\n      pop\n        /* \"#utility.yul\":4413:4419   */\n      dup3\n        /* \"#utility.yul\":4406:4411   */\n      dup2\n        /* \"#utility.yul\":4399:4420   */\n      mstore\n        /* \"#utility.yul\":4451:4455   */\n      0x20\n        /* \"#utility.yul\":4444:4449   */\n      dup2\n        /* \"#utility.yul\":4440:4456   */\n      add\n        /* \"#utility.yul\":4489:4492   */\n      dup5\n        /* \"#utility.yul\":4480:4486   */\n      dup5\n        /* \"#utility.yul\":4475:4478   */\n      dup5\n        /* \"#utility.yul\":4471:4487   */\n      add\n        /* \"#utility.yul\":4468:4493   */\n      gt\n        /* \"#utility.yul\":4465:4577   */\n      iszero\n      tag_132\n      jumpi\n        /* \"#utility.yul\":4496:4575   */\n      tag_133\n      tag_60\n      jump\t// in\n    tag_133:\n        /* \"#utility.yul\":4465:4577   */\n    tag_132:\n        /* \"#utility.yul\":4586:4640   */\n      tag_134\n        /* \"#utility.yul\":4633:4639   */\n      dup5\n        /* \"#utility.yul\":4628:4631   */\n      dup3\n        /* \"#utility.yul\":4623:4626   */\n      dup6\n        /* \"#utility.yul\":4586:4640   */\n      tag_65\n      jump\t// in\n    tag_134:\n        /* \"#utility.yul\":4306:4646   */\n      pop\n        /* \"#utility.yul\":4223:4646   */\n      swap4\n      swap3\n      pop\n      pop\n      pop\n      jump\t// out\n        /* \"#utility.yul\":4665:5003   */\n    tag_67:\n        /* \"#utility.yul\":4720:4725   */\n      0x00\n        /* \"#utility.yul\":4769:4772   */\n      dup3\n        /* \"#utility.yul\":4762:4766   */\n      0x1f\n        /* \"#utility.yul\":4754:4760   */\n      dup4\n        /* \"#utility.yul\":4750:4767   */\n      add\n        /* \"#utility.yul\":4746:4773   */\n      slt\n        /* \"#utility.yul\":4736:4858   */\n      tag_136\n      jumpi\n        /* \"#utility.yul\":4777:4856   */\n      tag_137\n      tag_59\n      jump\t// in\n    tag_137:\n        /* \"#utility.yul\":4736:4858   */\n    tag_136:\n        /* \"#utility.yul\":4894:4900   */\n      dup2\n        /* \"#utility.yul\":4881:4901   */\n      calldataload\n        /* \"#utility.yul\":4919:4997   */\n      tag_138\n        /* \"#utility.yul\":4993:4996   */\n      dup5\n        /* \"#utility.yul\":4985:4991   */\n      dup3\n        /* \"#utility.yul\":4978:4982   */\n      0x20\n        /* \"#utility.yul\":4970:4976   */\n      dup7\n        /* \"#utility.yul\":4966:4983   */\n      add\n        /* \"#utility.yul\":4919:4997   */\n      tag_66\n      jump\t// in\n    tag_138:\n        /* \"#utility.yul\":4910:4997   */\n      swap2\n      pop\n        /* \"#utility.yul\":4726:5003   */\n      pop\n        /* \"#utility.yul\":4665:5003   */\n      swap3\n      swap2\n      pop\n      pop\n      jump\t// out\n        /* \"#utility.yul\":5009:5516   */\n    tag_16:\n        /* \"#utility.yul\":5077:5083   */\n      0x00\n        /* \"#utility.yul\":5126:5128   */\n      0x20\n        /* \"#utility.yul\":5114:5123   */\n      dup3\n        /* \"#utility.yul\":5105:5112   */\n      dup5\n        /* \"#utility.yul\":5101:5124   */\n      sub\n        /* \"#utility.yul\":5097:5129   */\n      slt\n        /* \"#utility.yul\":5094:5213   */\n      iszero\n      tag_140\n      jumpi\n        /* \"#utility.yul\":5132:5211   */\n      tag_141\n      tag_45\n      jump\t// in\n    tag_141:\n        /* \"#utility.yul\":5094:5213   */\n    tag_140:\n        /* \"#utility.yul\":5280:5281   */\n      0x00\n        /* \"#utility.yul\":5269:5278   */\n      dup3\n        /* \"#utility.yul\":5265:5282   */\n      add\n        /* \"#utility.yul\":5252:5283   */\n      calldataload\n        /* \"#utility.yul\":5310:5328   */\n      0xffffffffffffffff\n        /* \"#utility.yul\":5302:5308   */\n      dup2\n        /* \"#utility.yul\":5299:5329   */\n      gt\n        /* \"#utility.yul\":5296:5413   */\n      iszero\n      tag_142\n      jumpi\n        /* \"#utility.yul\":5332:5411   */\n      tag_143\n      tag_46\n      jump\t// in\n    tag_143:\n        /* \"#utility.yul\":5296:5413   */\n    tag_142:\n        /* \"#utility.yul\":5437:5499   */\n      tag_144\n        /* \"#utility.yul\":5491:5498   */\n      dup5\n        /* \"#utility.yul\":5482:5488   */\n      dup3\n        /* \"#utility.yul\":5471:5480   */\n      dup6\n        /* \"#utility.yul\":5467:5489   */\n      add\n        /* \"#utility.yul\":5437:5499   */\n      tag_67\n      jump\t// in\n    tag_144:\n        /* \"#utility.yul\":5427:5499   */\n      swap2\n      pop\n        /* \"#utility.yul\":5223:5509   */\n      pop\n        /* \"#utility.yul\":5009:5516   */\n      swap3\n      swap2\n      pop\n      pop\n      jump\t// out\n        /* \"#utility.yul\":5522:5640   */\n    tag_68:\n        /* \"#utility.yul\":5609:5633   */\n      tag_146\n        /* \"#utility.yul\":5627:5632   */\n      dup2\n        /* \"#utility.yul\":5609:5633   */\n      tag_48\n      jump\t// in\n    tag_146:\n        /* \"#utility.yul\":5604:5607   */\n      dup3\n        /* \"#utility.yul\":5597:5634   */\n      mstore\n        /* \"#utility.yul\":5522:5640   */\n      pop\n      pop\n      jump\t// out\n        /* \"#utility.yul\":5646:5764   */\n    tag_69:\n        /* \"#utility.yul\":5733:5757   */\n      tag_148\n        /* \"#utility.yul\":5751:5756   */\n      dup2\n        /* \"#utility.yul\":5733:5757   */\n      tag_51\n      jump\t// in\n    tag_148:\n        /* \"#utility.yul\":5728:5731   */\n      dup3\n        /* \"#utility.yul\":5721:5758   */\n      mstore\n        /* \"#utility.yul\":5646:5764   */\n      pop\n      pop\n      jump\t// out\n        /* \"#utility.yul\":5770:6102   */\n    tag_19:\n        /* \"#utility.yul\":5891:5895   */\n      0x00\n        /* \"#utility.yul\":5929:5931   */\n      0x40\n        /* \"#utility.yul\":5918:5927   */\n      dup3\n        /* \"#utility.yul\":5914:5932   */\n      add\n        /* \"#utility.yul\":5906:5932   */\n      swap1\n      pop\n        /* \"#utility.yul\":5942:6013   */\n      tag_150\n        /* \"#utility.yul\":6010:6011   */\n      0x00\n        /* \"#utility.yul\":5999:6008   */\n      dup4\n        /* \"#utility.yul\":5995:6012   */\n      add\n        /* \"#utility.yul\":5986:5992   */\n      dup6\n        /* \"#utility.yul\":5942:6013   */\n      tag_68\n      jump\t// in\n    tag_150:\n        /* \"#utility.yul\":6023:6095   */\n      tag_151\n        /* \"#utility.yul\":6091:6093   */\n      0x20\n        /* \"#utility.yul\":6080:6089   */\n      dup4\n        /* \"#utility.yul\":6076:6094   */\n      add\n        /* \"#utility.yul\":6067:6073   */\n      dup5\n        /* \"#utility.yul\":6023:6095   */\n      tag_69\n      jump\t// in\n    tag_151:\n        /* \"#utility.yul\":5770:6102   */\n      swap4\n      swap3\n      pop\n      pop\n      pop\n      jump\t// out\n        /* \"#utility.yul\":6108:6202   */\n    tag_70:\n        /* \"#utility.yul\":6141:6149   */\n      0x00\n        /* \"#utility.yul\":6189:6194   */\n      dup2\n        /* \"#utility.yul\":6185:6187   */\n      0x60\n        /* \"#utility.yul\":6181:6195   */\n      shl\n        /* \"#utility.yul\":6160:6195   */\n      swap1\n      pop\n        /* \"#utility.yul\":6108:6202   */\n      swap2\n      swap1\n      pop\n      jump\t// out\n        /* \"#utility.yul\":6208:6302   */\n    tag_71:\n        /* \"#utility.yul\":6247:6254   */\n      0x00\n        /* \"#utility.yul\":6276:6296   */\n      tag_154\n        /* \"#utility.yul\":6290:6295   */\n      dup3\n        /* \"#utility.yul\":6276:6296   */\n      tag_70\n      jump\t// in\n    tag_154:\n        /* \"#utility.yul\":6265:6296   */\n      swap1\n      pop\n        /* \"#utility.yul\":6208:6302   */\n      swap2\n      swap1\n      pop\n      jump\t// out\n        /* \"#utility.yul\":6308:6408   */\n    tag_72:\n        /* \"#utility.yul\":6347:6354   */\n      0x00\n        /* \"#utility.yul\":6376:6402   */\n      tag_156\n        /* \"#utility.yul\":6396:6401   */\n      dup3\n        /* \"#utility.yul\":6376:6402   */\n      tag_71\n      jump\t// in\n    tag_156:\n        /* \"#utility.yul\":6365:6402   */\n      swap1\n      pop\n        /* \"#utility.yul\":6308:6408   */\n      swap2\n      swap1\n      pop\n      jump\t// out\n        /* \"#utility.yul\":6414:6571   */\n    tag_73:\n        /* \"#utility.yul\":6519:6564   */\n      tag_158\n        /* \"#utility.yul\":6539:6563   */\n      tag_159\n        /* \"#utility.yul\":6557:6562   */\n      dup3\n        /* \"#utility.yul\":6539:6563   */\n      tag_48\n      jump\t// in\n    tag_159:\n        /* \"#utility.yul\":6519:6564   */\n      tag_72\n      jump\t// in\n    tag_158:\n        /* \"#utility.yul\":6514:6517   */\n      dup3\n        /* \"#utility.yul\":6507:6565   */\n      mstore\n        /* \"#utility.yul\":6414:6571   */\n      pop\n      pop\n      jump\t// out\n        /* \"#utility.yul\":6577:6656   */\n    tag_74:\n        /* \"#utility.yul\":6616:6623   */\n      0x00\n        /* \"#utility.yul\":6645:6650   */\n      dup2\n        /* \"#utility.yul\":6634:6650   */\n      swap1\n      pop\n        /* \"#utility.yul\":6577:6656   */\n      swap2\n      swap1\n      pop\n      jump\t// out\n        /* \"#utility.yul\":6662:6819   */\n    tag_75:\n        /* \"#utility.yul\":6767:6812   */\n      tag_162\n        /* \"#utility.yul\":6787:6811   */\n      tag_163\n        /* \"#utility.yul\":6805:6810   */\n      dup3\n        /* \"#utility.yul\":6787:6811   */\n      tag_51\n      jump\t// in\n    tag_163:\n        /* \"#utility.yul\":6767:6812   */\n      tag_74\n      jump\t// in\n    tag_162:\n        /* \"#utility.yul\":6762:6765   */\n      dup3\n        /* \"#utility.yul\":6755:6813   */\n      mstore\n        /* \"#utility.yul\":6662:6819   */\n      pop\n      pop\n      jump\t// out\n        /* \"#utility.yul\":6825:7222   */\n    tag_34:\n        /* \"#utility.yul\":6965:6968   */\n      0x00\n        /* \"#utility.yul\":6980:7055   */\n      tag_165\n        /* \"#utility.yul\":7051:7054   */\n      dup3\n        /* \"#utility.yul\":7042:7048   */\n      dup6\n        /* \"#utility.yul\":6980:7055   */\n      tag_73\n      jump\t// in\n    tag_165:\n        /* \"#utility.yul\":7080:7082   */\n      0x14\n        /* \"#utility.yul\":7075:7078   */\n      dup3\n        /* \"#utility.yul\":7071:7083   */\n      add\n        /* \"#utility.yul\":7064:7083   */\n      swap2\n      pop\n        /* \"#utility.yul\":7093:7168   */\n      tag_166\n        /* \"#utility.yul\":7164:7167   */\n      dup3\n        /* \"#utility.yul\":7155:7161   */\n      dup5\n        /* \"#utility.yul\":7093:7168   */\n      tag_75\n      jump\t// in\n    tag_166:\n        /* \"#utility.yul\":7193:7195   */\n      0x20\n        /* \"#utility.yul\":7188:7191   */\n      dup3\n        /* \"#utility.yul\":7184:7196   */\n      add\n        /* \"#utility.yul\":7177:7196   */\n      swap2\n      pop\n        /* \"#utility.yul\":7213:7216   */\n      dup2\n        /* \"#utility.yul\":7206:7216   */\n      swap1\n      pop\n        /* \"#utility.yul\":6825:7222   */\n      swap4\n      swap3\n      pop\n      pop\n      pop\n      jump\t// out\n        /* \"#utility.yul\":7228:7332   */\n    tag_76:\n        /* \"#utility.yul\":7273:7280   */\n      0x00\n        /* \"#utility.yul\":7302:7326   */\n      tag_168\n        /* \"#utility.yul\":7320:7325   */\n      dup3\n        /* \"#utility.yul\":7302:7326   */\n      tag_47\n      jump\t// in\n    tag_168:\n        /* \"#utility.yul\":7291:7326   */\n      swap1\n      pop\n        /* \"#utility.yul\":7228:7332   */\n      swap2\n      swap1\n      pop\n      jump\t// out\n        /* \"#utility.yul\":7338:7476   */\n    tag_77:\n        /* \"#utility.yul\":7419:7451   */\n      tag_170\n        /* \"#utility.yul\":7445:7450   */\n      dup2\n        /* \"#utility.yul\":7419:7451   */\n      tag_76\n      jump\t// in\n    tag_170:\n        /* \"#utility.yul\":7412:7417   */\n      dup2\n        /* \"#utility.yul\":7409:7452   */\n      eq\n        /* \"#utility.yul\":7399:7470   */\n      tag_171\n      jumpi\n        /* \"#utility.yul\":7466:7467   */\n      0x00\n        /* \"#utility.yul\":7463:7464   */\n      0x00\n        /* \"#utility.yul\":7456:7468   */\n      revert\n        /* \"#utility.yul\":7399:7470   */\n    tag_171:\n        /* \"#utility.yul\":7338:7476   */\n      pop\n      jump\t// out\n        /* \"#utility.yul\":7482:7641   */\n    tag_78:\n        /* \"#utility.yul\":7547:7552   */\n      0x00\n        /* \"#utility.yul\":7578:7584   */\n      dup2\n        /* \"#utility.yul\":7572:7585   */\n      mload\n        /* \"#utility.yul\":7563:7585   */\n      swap1\n      pop\n        /* \"#utility.yul\":7594:7635   */\n      tag_173\n        /* \"#utility.yul\":7629:7634   */\n      dup2\n        /* \"#utility.yul\":7594:7635   */\n      tag_77\n      jump\t// in\n    tag_173:\n        /* \"#utility.yul\":7482:7641   */\n      swap3\n      swap2\n      pop\n      pop\n      jump\t// out\n        /* \"#utility.yul\":7647:7790   */\n    tag_79:\n        /* \"#utility.yul\":7704:7709   */\n      0x00\n        /* \"#utility.yul\":7735:7741   */\n      dup2\n        /* \"#utility.yul\":7729:7742   */\n      mload\n        /* \"#utility.yul\":7720:7742   */\n      swap1\n      pop\n        /* \"#utility.yul\":7751:7784   */\n      tag_175\n        /* \"#utility.yul\":7778:7783   */\n      dup2\n        /* \"#utility.yul\":7751:7784   */\n      tag_52\n      jump\t// in\n    tag_175:\n        /* \"#utility.yul\":7647:7790   */\n      swap3\n      swap2\n      pop\n      pop\n      jump\t// out\n        /* \"#utility.yul\":7796:8319   */\n    tag_37:\n        /* \"#utility.yul\":7883:7889   */\n      0x00\n        /* \"#utility.yul\":7891:7897   */\n      0x00\n        /* \"#utility.yul\":7940:7942   */\n      0x40\n        /* \"#utility.yul\":7928:7937   */\n      dup4\n        /* \"#utility.yul\":7919:7926   */\n      dup6\n        /* \"#utility.yul\":7915:7938   */\n      sub\n        /* \"#utility.yul\":7911:7943   */\n      slt\n        /* \"#utility.yul\":7908:8027   */\n      iszero\n      tag_177\n      jumpi\n        /* \"#utility.yul\":7946:8025   */\n      tag_178\n      tag_45\n      jump\t// in\n    tag_178:\n        /* \"#utility.yul\":7908:8027   */\n    tag_177:\n        /* \"#utility.yul\":8066:8067   */\n      0x00\n        /* \"#utility.yul\":8091:8163   */\n      tag_179\n        /* \"#utility.yul\":8155:8162   */\n      dup6\n        /* \"#utility.yul\":8146:8152   */\n      dup3\n        /* \"#utility.yul\":8135:8144   */\n      dup7\n        /* \"#utility.yul\":8131:8153   */\n      add\n        /* \"#utility.yul\":8091:8163   */\n      tag_78\n      jump\t// in\n    tag_179:\n        /* \"#utility.yul\":8081:8163   */\n      swap3\n      pop\n        /* \"#utility.yul\":8037:8173   */\n      pop\n        /* \"#utility.yul\":8212:8214   */\n      0x20\n        /* \"#utility.yul\":8238:8302   */\n      tag_180\n        /* \"#utility.yul\":8294:8301   */\n      dup6\n        /* \"#utility.yul\":8285:8291   */\n      dup3\n        /* \"#utility.yul\":8274:8283   */\n      dup7\n        /* \"#utility.yul\":8270:8292   */\n      add\n        /* \"#utility.yul\":8238:8302   */\n      tag_79\n      jump\t// in\n    tag_180:\n        /* \"#utility.yul\":8228:8302   */\n      swap2\n      pop\n        /* \"#utility.yul\":8183:8312   */\n      pop\n        /* \"#utility.yul\":7796:8319   */\n      swap3\n      pop\n      swap3\n      swap1\n      pop\n      jump\t// out\n\n    auxdata: 0xa2646970667358221220096022ee53acefecf5c29bc45b1320923c4700404c8ad3dd53bf8375d17cfc3d64736f6c634300081e0033\n}\n",
				"bytecode": {
					"linkReferences": {},
					"object": "6080604052348015600e575f5ffd5b506107a28061001c5f395ff3fe608060405234801561000f575f5ffd5b5060043610610055575f3560e01c80631d48641114610059578063447a06f514610089578063562d173a146100ba5780635fcde8c4146100ea57806397c8e3d51461011a575b5f5ffd5b610073600480360381019061006e91906103c9565b61014a565b6040516100809190610477565b60405180910390f35b6100a3600480360381019061009e91906105c3565b610176565b6040516100b1929190610628565b60405180910390f35b6100d460048036038101906100cf91906103c9565b61019f565b6040516100e19190610477565b60405180910390f35b61010460048036038101906100ff91906103c9565b610260565b6040516101119190610477565b60405180910390f35b610134600480360381019061012f91906103c9565b6102ff565b6040516101419190610477565b60405180910390f35b6060828260405160200161015f9291906106b4565b604051602081830303815290604052905092915050565b5f5f5f5f8480602001905181019061018e919061072e565b915091508181935093505050915091565b60605f6040518060400160405280601681526020017f7472616e7366657228616464726573732c75696e7429000000000000000000008152508051906020012090505f8185856040516024016101f6929190610628565b604051602081830303815290604052907bffffffffffffffffffffffffffffffffffffffffffffffffffffffff19166020820180517bffffffffffffffffffffffffffffffffffffffffffffffffffffffff83818316178352505050509050809250505092915050565b60605f8383604051602401610276929190610628565b6040516020818303038152906040527f9e17553b000000000000000000000000000000000000000000000000000000007bffffffffffffffffffffffffffffffffffffffffffffffffffffffff19166020820180517bffffffffffffffffffffffffffffffffffffffffffffffffffffffff838183161783525050505090508091505092915050565b60608282604051602001610314929190610628565b604051602081830303815290604052905092915050565b5f604051905090565b5f5ffd5b5f5ffd5b5f73ffffffffffffffffffffffffffffffffffffffff82169050919050565b5f6103658261033c565b9050919050565b6103758161035b565b811461037f575f5ffd5b50565b5f813590506103908161036c565b92915050565b5f819050919050565b6103a881610396565b81146103b2575f5ffd5b50565b5f813590506103c38161039f565b92915050565b5f5f604083850312156103df576103de610334565b5b5f6103ec85828601610382565b92505060206103fd858286016103b5565b9150509250929050565b5f81519050919050565b5f82825260208201905092915050565b8281835e5f83830152505050565b5f601f19601f8301169050919050565b5f61044982610407565b6104538185610411565b9350610463818560208601610421565b61046c8161042f565b840191505092915050565b5f6020820190508181035f83015261048f818461043f565b905092915050565b5f5ffd5b5f5ffd5b7f4e487b71000000000000000000000000000000000000000000000000000000005f52604160045260245ffd5b6104d58261042f565b810181811067ffffffffffffffff821117156104f4576104f361049f565b5b80604052505050565b5f61050661032b565b905061051282826104cc565b919050565b5f67ffffffffffffffff8211156105315761053061049f565b5b61053a8261042f565b9050602081019050919050565b828183375f83830152505050565b5f61056761056284610517565b6104fd565b9050828152602081018484840111156105835761058261049b565b5b61058e848285610547565b509392505050565b5f82601f8301126105aa576105a9610497565b5b81356105ba848260208601610555565b91505092915050565b5f602082840312156105d8576105d7610334565b5b5f82013567ffffffffffffffff8111156105f5576105f4610338565b5b61060184828501610596565b91505092915050565b6106138161035b565b82525050565b61062281610396565b82525050565b5f60408201905061063b5f83018561060a565b6106486020830184610619565b9392505050565b5f8160601b9050919050565b5f6106658261064f565b9050919050565b5f6106768261065b565b9050919050565b61068e6106898261035b565b61066c565b82525050565b5f819050919050565b6106ae6106a982610396565b610694565b82525050565b5f6106bf828561067d565b6014820191506106cf828461069d565b6020820191508190509392505050565b5f6106e98261033c565b9050919050565b6106f9816106df565b8114610703575f5ffd5b50565b5f81519050610714816106f0565b92915050565b5f815190506107288161039f565b92915050565b5f5f6040838503121561074457610743610334565b5b5f61075185828601610706565b92505060206107628582860161071a565b915050925092905056fea2646970667358221220096022ee53acefecf5c29bc45b1320923c4700404c8ad3dd53bf8375d17cfc3d64736f6c634300081e0033",
					"opcodes": "PUSH1 0x80 PUSH1 0x40 MSTORE CALLVALUE DUP1 ISZERO PUSH1 0xE JUMPI PUSH0 PUSH0 REVERT JUMPDEST POP PUSH2 0x7A2 DUP1 PUSH2 0x1C PUSH0 CODECOPY PUSH0 RETURN INVALID PUSH1 0x80 PUSH1 0x40 MSTORE CALLVALUE DUP1 ISZERO PUSH2 0xF JUMPI PUSH0 PUSH0 REVERT JUMPDEST POP PUSH1 0x4 CALLDATASIZE LT PUSH2 0x55 JUMPI PUSH0 CALLDATALOAD PUSH1 0xE0 SHR DUP1 PUSH4 0x1D486411 EQ PUSH2 0x59 JUMPI DUP1 PUSH4 0x447A06F5 EQ PUSH2 0x89 JUMPI DUP1 PUSH4 0x562D173A EQ PUSH2 0xBA JUMPI DUP1 PUSH4 0x5FCDE8C4 EQ PUSH2 0xEA JUMPI DUP1 PUSH4 0x97C8E3D5 EQ PUSH2 0x11A JUMPI JUMPDEST PUSH0 PUSH0 REVERT JUMPDEST PUSH2 0x73 PUSH1 0x4 DUP1 CALLDATASIZE SUB DUP2 ADD SWAP1 PUSH2 0x6E SWAP2 SWAP1 PUSH2 0x3C9 JUMP JUMPDEST PUSH2 0x14A JUMP JUMPDEST PUSH1 0x40 MLOAD PUSH2 0x80 SWAP2 SWAP1 PUSH2 0x477 JUMP JUMPDEST PUSH1 0x40 MLOAD DUP1 SWAP2 SUB SWAP1 RETURN JUMPDEST PUSH2 0xA3 PUSH1 0x4 DUP1 CALLDATASIZE SUB DUP2 ADD SWAP1 PUSH2 0x9E SWAP2 SWAP1 PUSH2 0x5C3 JUMP JUMPDEST PUSH2 0x176 JUMP JUMPDEST PUSH1 0x40 MLOAD PUSH2 0xB1 SWAP3 SWAP2 SWAP1 PUSH2 0x628 JUMP JUMPDEST PUSH1 0x40 MLOAD DUP1 SWAP2 SUB SWAP1 RETURN JUMPDEST PUSH2 0xD4 PUSH1 0x4 DUP1 CALLDATASIZE SUB DUP2 ADD SWAP1 PUSH2 0xCF SWAP2 SWAP1 PUSH2 0x3C9 JUMP JUMPDEST PUSH2 0x19F JUMP JUMPDEST PUSH1 0x40 MLOAD PUSH2 0xE1 SWAP2 SWAP1 PUSH2 0x477 JUMP JUMPDEST PUSH1 0x40 MLOAD DUP1 SWAP2 SUB SWAP1 RETURN JUMPDEST PUSH2 0x104 PUSH1 0x4 DUP1 CALLDATASIZE SUB DUP2 ADD SWAP1 PUSH2 0xFF SWAP2 SWAP1 PUSH2 0x3C9 JUMP JUMPDEST PUSH2 0x260 JUMP JUMPDEST PUSH1 0x40 MLOAD PUSH2 0x111 SWAP2 SWAP1 PUSH2 0x477 JUMP JUMPDEST PUSH1 0x40 MLOAD DUP1 SWAP2 SUB SWAP1 RETURN JUMPDEST PUSH2 0x134 PUSH1 0x4 DUP1 CALLDATASIZE SUB DUP2 ADD SWAP1 PUSH2 0x12F SWAP2 SWAP1 PUSH2 0x3C9 JUMP JUMPDEST PUSH2 0x2FF JUMP JUMPDEST PUSH1 0x40 MLOAD PUSH2 0x141 SWAP2 SWAP1 PUSH2 0x477 JUMP JUMPDEST PUSH1 0x40 MLOAD DUP1 SWAP2 SUB SWAP1 RETURN JUMPDEST PUSH1 0x60 DUP3 DUP3 PUSH1 0x40 MLOAD PUSH1 0x20 ADD PUSH2 0x15F SWAP3 SWAP2 SWAP1 PUSH2 0x6B4 JUMP JUMPDEST PUSH1 0x40 MLOAD PUSH1 0x20 DUP2 DUP4 SUB SUB DUP2 MSTORE SWAP1 PUSH1 0x40 MSTORE SWAP1 POP SWAP3 SWAP2 POP POP JUMP JUMPDEST PUSH0 PUSH0 PUSH0 PUSH0 DUP5 DUP1 PUSH1 0x20 ADD SWAP1 MLOAD DUP2 ADD SWAP1 PUSH2 0x18E SWAP2 SWAP1 PUSH2 0x72E JUMP JUMPDEST SWAP2 POP SWAP2 POP DUP2 DUP2 SWAP4 POP SWAP4 POP POP POP SWAP2 POP SWAP2 JUMP JUMPDEST PUSH1 0x60 PUSH0 PUSH1 0x40 MLOAD DUP1 PUSH1 0x40 ADD PUSH1 0x40 MSTORE DUP1 PUSH1 0x16 DUP2 MSTORE PUSH1 0x20 ADD PUSH32 0x7472616E7366657228616464726573732C75696E742900000000000000000000 DUP2 MSTORE POP DUP1 MLOAD SWAP1 PUSH1 0x20 ADD KECCAK256 SWAP1 POP PUSH0 DUP2 DUP6 DUP6 PUSH1 0x40 MLOAD PUSH1 0x24 ADD PUSH2 0x1F6 SWAP3 SWAP2 SWAP1 PUSH2 0x628 JUMP JUMPDEST PUSH1 0x40 MLOAD PUSH1 0x20 DUP2 DUP4 SUB SUB DUP2 MSTORE SWAP1 PUSH1 0x40 MSTORE SWAP1 PUSH28 0xFFFFFFFFFFFFFFFFFFFFFFFFFFFFFFFFFFFFFFFFFFFFFFFFFFFFFFFF NOT AND PUSH1 0x20 DUP3 ADD DUP1 MLOAD PUSH28 0xFFFFFFFFFFFFFFFFFFFFFFFFFFFFFFFFFFFFFFFFFFFFFFFFFFFFFFFF DUP4 DUP2 DUP4 AND OR DUP4 MSTORE POP POP POP POP SWAP1 POP DUP1 SWAP3 POP POP POP SWAP3 SWAP2 POP POP JUMP JUMPDEST PUSH1 0x60 PUSH0 DUP4 DUP4 PUSH1 0x40 MLOAD PUSH1 0x24 ADD PUSH2 0x276 SWAP3 SWAP2 SWAP1 PUSH2 0x628 JUMP JUMPDEST PUSH1 0x40 MLOAD PUSH1 0x20 DUP2 DUP4 SUB SUB DUP2 MSTORE SWAP1 PUSH1 0x40 MSTORE PUSH32 0x9E17553B00000000000000000000000000000000000000000000000000000000 PUSH28 0xFFFFFFFFFFFFFFFFFFFFFFFFFFFFFFFFFFFFFFFFFFFFFFFFFFFFFFFF NOT AND PUSH1 0x20 DUP3 ADD DUP1 MLOAD PUSH28 0xFFFFFFFFFFFFFFFFFFFFFFFFFFFFFFFFFFFFFFFFFFFFFFFFFFFFFFFF DUP4 DUP2 DUP4 AND OR DUP4 MSTORE POP POP POP POP SWAP1 POP DUP1 SWAP2 POP POP SWAP3 SWAP2 POP POP JUMP JUMPDEST PUSH1 0x60 DUP3 DUP3 PUSH1 0x40 MLOAD PUSH1 0x20 ADD PUSH2 0x314 SWAP3 SWAP2 SWAP1 PUSH2 0x628 JUMP JUMPDEST PUSH1 0x40 MLOAD PUSH1 0x20 DUP2 DUP4 SUB SUB DUP2 MSTORE SWAP1 PUSH1 0x40 MSTORE SWAP1 POP SWAP3 SWAP2 POP POP JUMP JUMPDEST PUSH0 PUSH1 0x40 MLOAD SWAP1 POP SWAP1 JUMP JUMPDEST PUSH0 PUSH0 REVERT JUMPDEST PUSH0 PUSH0 REVERT JUMPDEST PUSH0 PUSH20 0xFFFFFFFFFFFFFFFFFFFFFFFFFFFFFFFFFFFFFFFF DUP3 AND SWAP1 POP SWAP2 SWAP1 POP JUMP JUMPDEST PUSH0 PUSH2 0x365 DUP3 PUSH2 0x33C JUMP JUMPDEST SWAP1 POP SWAP2 SWAP1 POP JUMP JUMPDEST PUSH2 0x375 DUP2 PUSH2 0x35B JUMP JUMPDEST DUP2 EQ PUSH2 0x37F JUMPI PUSH0 PUSH0 REVERT JUMPDEST POP JUMP JUMPDEST PUSH0 DUP2 CALLDATALOAD SWAP1 POP PUSH2 0x390 DUP2 PUSH2 0x36C JUMP JUMPDEST SWAP3 SWAP2 POP POP JUMP JUMPDEST PUSH0 DUP2 SWAP1 POP SWAP2 SWAP1 POP JUMP JUMPDEST PUSH2 0x3A8 DUP2 PUSH2 0x396 JUMP JUMPDEST DUP2 EQ PUSH2 0x3B2 JUMPI PUSH0 PUSH0 REVERT JUMPDEST POP JUMP JUMPDEST PUSH0 DUP2 CALLDATALOAD SWAP1 POP PUSH2 0x3C3 DUP2 PUSH2 0x39F JUMP JUMPDEST SWAP3 SWAP2 POP POP JUMP JUMPDEST PUSH0 PUSH0 PUSH1 0x40 DUP4 DUP6 SUB SLT ISZERO PUSH2 0x3DF JUMPI PUSH2 0x3DE PUSH2 0x334 JUMP JUMPDEST JUMPDEST PUSH0 PUSH2 0x3EC DUP6 DUP3 DUP7 ADD PUSH2 0x382 JUMP JUMPDEST SWAP3 POP POP PUSH1 0x20 PUSH2 0x3FD DUP6 DUP3 DUP7 ADD PUSH2 0x3B5 JUMP JUMPDEST SWAP2 POP POP SWAP3 POP SWAP3 SWAP1 POP JUMP JUMPDEST PUSH0 DUP2 MLOAD SWAP1 POP SWAP2 SWAP1 POP JUMP JUMPDEST PUSH0 DUP3 DUP3 MSTORE PUSH1 0x20 DUP3 ADD SWAP1 POP SWAP3 SWAP2 POP POP JUMP JUMPDEST DUP3 DUP2 DUP4 MCOPY PUSH0 DUP4 DUP4 ADD MSTORE POP POP POP JUMP JUMPDEST PUSH0 PUSH1 0x1F NOT PUSH1 0x1F DUP4 ADD AND SWAP1 POP SWAP2 SWAP1 POP JUMP JUMPDEST PUSH0 PUSH2 0x449 DUP3 PUSH2 0x407 JUMP JUMPDEST PUSH2 0x453 DUP2 DUP6 PUSH2 0x411 JUMP JUMPDEST SWAP4 POP PUSH2 0x463 DUP2 DUP6 PUSH1 0x20 DUP7 ADD PUSH2 0x421 JUMP JUMPDEST PUSH2 0x46C DUP2 PUSH2 0x42F JUMP JUMPDEST DUP5 ADD SWAP2 POP POP SWAP3 SWAP2 POP POP JUMP JUMPDEST PUSH0 PUSH1 0x20 DUP3 ADD SWAP1 POP DUP2 DUP2 SUB PUSH0 DUP4 ADD MSTORE PUSH2 0x48F DUP2 DUP5 PUSH2 0x43F JUMP JUMPDEST SWAP1 POP SWAP3 SWAP2 POP POP JUMP JUMPDEST PUSH0 PUSH0 REVERT JUMPDEST PUSH0 PUSH0 REVERT JUMPDEST PUSH32 0x4E487B7100000000000000000000000000000000000000000000000000000000 PUSH0 MSTORE PUSH1 0x41 PUSH1 0x4 MSTORE PUSH1 0x24 PUSH0 REVERT JUMPDEST PUSH2 0x4D5 DUP3 PUSH2 0x42F JUMP JUMPDEST DUP2 ADD DUP2 DUP2 LT PUSH8 0xFFFFFFFFFFFFFFFF DUP3 GT OR ISZERO PUSH2 0x4F4 JUMPI PUSH2 0x4F3 PUSH2 0x49F JUMP JUMPDEST JUMPDEST DUP1 PUSH1 0x40 MSTORE POP POP POP JUMP JUMPDEST PUSH0 PUSH2 0x506 PUSH2 0x32B JUMP JUMPDEST SWAP1 POP PUSH2 0x512 DUP3 DUP3 PUSH2 0x4CC JUMP JUMPDEST SWAP2 SWAP1 POP JUMP JUMPDEST PUSH0 PUSH8 0xFFFFFFFFFFFFFFFF DUP3 GT ISZERO PUSH2 0x531 JUMPI PUSH2 0x530 PUSH2 0x49F JUMP JUMPDEST JUMPDEST PUSH2 0x53A DUP3 PUSH2 0x42F JUMP JUMPDEST SWAP1 POP PUSH1 0x20 DUP2 ADD SWAP1 POP SWAP2 SWAP1 POP JUMP JUMPDEST DUP3 DUP2 DUP4 CALLDATACOPY PUSH0 DUP4 DUP4 ADD MSTORE POP POP POP JUMP JUMPDEST PUSH0 PUSH2 0x567 PUSH2 0x562 DUP5 PUSH2 0x517 JUMP JUMPDEST PUSH2 0x4FD JUMP JUMPDEST SWAP1 POP DUP3 DUP2 MSTORE PUSH1 0x20 DUP2 ADD DUP5 DUP5 DUP5 ADD GT ISZERO PUSH2 0x583 JUMPI PUSH2 0x582 PUSH2 0x49B JUMP JUMPDEST JUMPDEST PUSH2 0x58E DUP5 DUP3 DUP6 PUSH2 0x547 JUMP JUMPDEST POP SWAP4 SWAP3 POP POP POP JUMP JUMPDEST PUSH0 DUP3 PUSH1 0x1F DUP4 ADD SLT PUSH2 0x5AA JUMPI PUSH2 0x5A9 PUSH2 0x497 JUMP JUMPDEST JUMPDEST DUP2 CALLDATALOAD PUSH2 0x5BA DUP5 DUP3 PUSH1 0x20 DUP7 ADD PUSH2 0x555 JUMP JUMPDEST SWAP2 POP POP SWAP3 SWAP2 POP POP JUMP JUMPDEST PUSH0 PUSH1 0x20 DUP3 DUP5 SUB SLT ISZERO PUSH2 0x5D8 JUMPI PUSH2 0x5D7 PUSH2 0x334 JUMP JUMPDEST JUMPDEST PUSH0 DUP3 ADD CALLDATALOAD PUSH8 0xFFFFFFFFFFFFFFFF DUP2 GT ISZERO PUSH2 0x5F5 JUMPI PUSH2 0x5F4 PUSH2 0x338 JUMP JUMPDEST JUMPDEST PUSH2 0x601 DUP5 DUP3 DUP6 ADD PUSH2 0x596 JUMP JUMPDEST SWAP2 POP POP SWAP3 SWAP2 POP POP JUMP JUMPDEST PUSH2 0x613 DUP2 PUSH2 0x35B JUMP JUMPDEST DUP3 MSTORE POP POP JUMP JUMPDEST PUSH2 0x622 DUP2 PUSH2 0x396 JUMP JUMPDEST DUP3 MSTORE POP POP JUMP JUMPDEST PUSH0 PUSH1 0x40 DUP3 ADD SWAP1 POP PUSH2 0x63B PUSH0 DUP4 ADD DUP6 PUSH2 0x60A JUMP JUMPDEST PUSH2 0x648 PUSH1 0x20 DUP4 ADD DUP5 PUSH2 0x619 JUMP JUMPDEST SWAP4 SWAP3 POP POP POP JUMP JUMPDEST PUSH0 DUP2 PUSH1 0x60 SHL SWAP1 POP SWAP2 SWAP1 POP JUMP JUMPDEST PUSH0 PUSH2 0x665 DUP3 PUSH2 0x64F JUMP JUMPDEST SWAP1 POP SWAP2 SWAP1 POP JUMP JUMPDEST PUSH0 PUSH2 0x676 DUP3 PUSH2 0x65B JUMP JUMPDEST SWAP1 POP SWAP2 SWAP1 POP JUMP JUMPDEST PUSH2 0x68E PUSH2 0x689 DUP3 PUSH2 0x35B JUMP JUMPDEST PUSH2 0x66C JUMP JUMPDEST DUP3 MSTORE POP POP JUMP JUMPDEST PUSH0 DUP2 SWAP1 POP SWAP2 SWAP1 POP JUMP JUMPDEST PUSH2 0x6AE PUSH2 0x6A9 DUP3 PUSH2 0x396 JUMP JUMPDEST PUSH2 0x694 JUMP JUMPDEST DUP3 MSTORE POP POP JUMP JUMPDEST PUSH0 PUSH2 0x6BF DUP3 DUP6 PUSH2 0x67D JUMP JUMPDEST PUSH1 0x14 DUP3 ADD SWAP2 POP PUSH2 0x6CF DUP3 DUP5 PUSH2 0x69D JUMP JUMPDEST PUSH1 0x20 DUP3 ADD SWAP2 POP DUP2 SWAP1 POP SWAP4 SWAP3 POP POP POP JUMP JUMPDEST PUSH0 PUSH2 0x6E9 DUP3 PUSH2 0x33C JUMP JUMPDEST SWAP1 POP SWAP2 SWAP1 POP JUMP JUMPDEST PUSH2 0x6F9 DUP2 PUSH2 0x6DF JUMP JUMPDEST DUP2 EQ PUSH2 0x703 JUMPI PUSH0 PUSH0 REVERT JUMPDEST POP JUMP JUMPDEST PUSH0 DUP2 MLOAD SWAP1 POP PUSH2 0x714 DUP2 PUSH2 0x6F0 JUMP JUMPDEST SWAP3 SWAP2 POP POP JUMP JUMPDEST PUSH0 DUP2 MLOAD SWAP1 POP PUSH2 0x728 DUP2 PUSH2 0x39F JUMP JUMPDEST SWAP3 SWAP2 POP POP JUMP JUMPDEST PUSH0 PUSH0 PUSH1 0x40 DUP4 DUP6 SUB SLT ISZERO PUSH2 0x744 JUMPI PUSH2 0x743 PUSH2 0x334 JUMP JUMPDEST JUMPDEST PUSH0 PUSH2 0x751 DUP6 DUP3 DUP7 ADD PUSH2 0x706 JUMP JUMPDEST SWAP3 POP POP PUSH1 0x20 PUSH2 0x762 DUP6 DUP3 DUP7 ADD PUSH2 0x71A JUMP JUMPDEST SWAP2 POP POP SWAP3 POP SWAP3 SWAP1 POP JUMP INVALID LOG2 PUSH5 0x6970667358 0x22 SLT KECCAK256 MULMOD PUSH1 0x22 RETURNCONTRACT 0x53 0xAC 0xEF EOFCREATE 0xF5 0xC2 SWAP12 0xC4 JUMPDEST SGT KECCAK256 SWAP3 EXTCODECOPY SELFBALANCE STOP BLOCKHASH 0x4C DUP11 0xD3 0xDD MSTORE8 0xBF DUP4 PUSH22 0xD17CFC3D64736F6C634300081E003300000000000000 "
				},
				"gasEstimates": {
					"creation": {
						"codeDepositCost": "390800",
						"executionCost": "428",
						"totalCost": "391228"
					},
					"external": {
						"decodeData(bytes)": "infinite",
						"getEncode(address,uint256)": "infinite",
						"getEncodePacked(address,uint256)": "infinite",
						"getEncodeWithSelector(address,uint256)": "infinite",
						"getEncodeWithSignature(address,uint256)": "infinite"
					}
				},
				"methodIdentifiers": {
					"decodeData(bytes)": "447a06f5",
					"getEncode(address,uint256)": "97c8e3d5",
					"getEncodePacked(address,uint256)": "1d486411",
					"getEncodeWithSelector(address,uint256)": "562d173a",
					"getEncodeWithSignature(address,uint256)": "5fcde8c4"
				}
			},
			"storageLayout": {
				"storage": [],
				"types": null
			},
			"userdoc": {
				"kind": "user",
				"methods": {},
				"version": 1
			}
		}
	}
}