{
	"07_struct.sol": {
		"UserRegistry": {
			"abi": [
				{
					"inputs": [
						{
							"internalType": "address",
							"name": "user",
							"type": "address"
						}
					],
					"name": "getUser",
					"outputs": [
						{
							"internalType": "string",
							"name": "",
							"type": "string"
						},
						{
							"internalType": "uint256",
							"name": "",
							"type": "uint256"
						},
						{
							"internalType": "bool",
							"name": "",
							"type": "bool"
						}
					],
					"stateMutability": "view",
					"type": "function"
				},
				{
					"inputs": [
						{
							"internalType": "string",
							"name": "name",
							"type": "string"
						},
						{
							"internalType": "uint256",
							"name": "age",
							"type": "uint256"
						}
					],
					"name": "registerUser",
					"outputs": [],
					"stateMutability": "nonpayable",
					"type": "function"
				},
				{
					"inputs": [
						{
							"internalType": "address",
							"name": "",
							"type": "address"
						}
					],
					"name": "users",
					"outputs": [
						{
							"internalType": "string",
							"name": "name",
							"type": "string"
						},
						{
							"internalType": "uint256",
							"name": "age",
							"type": "uint256"
						},
						{
							"internalType": "bool",
							"name": "isRegistered",
							"type": "bool"
						}
					],
					"stateMutability": "view",
					"type": "function"
				}
			],
			"devdoc": {
				"kind": "dev",
				"methods": {},
				"version": 1
			},
			"evm": {
				"assembly": "    /* \"07_struct.sol\":753:1350  contract UserRegistry {... */\n  mstore(0x40, 0x80)\n  callvalue\n  dup1\n  iszero\n  tag_1\n  jumpi\n  revert(0x00, 0x00)\ntag_1:\n  pop\n  dataSize(sub_0)\n  dup1\n  dataOffset(sub_0)\n  0x00\n  codecopy\n  0x00\n  return\nstop\n\nsub_0: assembly {\n        /* \"07_struct.sol\":753:1350  contract UserRegistry {... */\n      mstore(0x40, 0x80)\n      callvalue\n      dup1\n      iszero\n      tag_1\n      jumpi\n      revert(0x00, 0x00)\n    tag_1:\n      pop\n      jumpi(tag_2, lt(calldatasize, 0x04))\n      shr(0xe0, calldataload(0x00))\n      dup1\n      0x6f77926b\n      eq\n      tag_3\n      jumpi\n      dup1\n      0xa87430ba\n      eq\n      tag_4\n      jumpi\n      dup1\n      0xd3951002\n      eq\n      tag_5\n      jumpi\n    tag_2:\n      revert(0x00, 0x00)\n        /* \"07_struct.sol\":1118:1348  function getUser(address user) public view returns(string memory, uint, bool) {... */\n    tag_3:\n      tag_6\n      0x04\n      dup1\n      calldatasize\n      sub\n      dup2\n      add\n      swap1\n      tag_7\n      swap2\n      swap1\n      tag_8\n      jump\t// in\n    tag_7:\n      tag_9\n      jump\t// in\n    tag_6:\n      mload(0x40)\n      tag_10\n      swap4\n      swap3\n      swap2\n      swap1\n      tag_11\n      jump\t// in\n    tag_10:\n      mload(0x40)\n      dup1\n      swap2\n      sub\n      swap1\n      return\n        /* \"07_struct.sol\":874:912  mapping (address => User) public users */\n    tag_4:\n      tag_12\n      0x04\n      dup1\n      calldatasize\n      sub\n      dup2\n      add\n      swap1\n      tag_13\n      swap2\n      swap1\n      tag_8\n      jump\t// in\n    tag_13:\n      tag_14\n      jump\t// in\n    tag_12:\n      mload(0x40)\n      tag_15\n      swap4\n      swap3\n      swap2\n      swap1\n      tag_11\n      jump\t// in\n    tag_15:\n      mload(0x40)\n      dup1\n      swap2\n      sub\n      swap1\n      return\n        /* \"07_struct.sol\":918:1113  function registerUser(string memory name, uint age) public {... */\n    tag_5:\n      tag_16\n      0x04\n      dup1\n      calldatasize\n      sub\n      dup2\n      add\n      swap1\n      tag_17\n      swap2\n      swap1\n      tag_18\n      jump\t// in\n    tag_17:\n      tag_19\n      jump\t// in\n    tag_16:\n      stop\n        /* \"07_struct.sol\":1118:1348  function getUser(address user) public view returns(string memory, uint, bool) {... */\n    tag_9:\n        /* \"07_struct.sol\":1169:1182  string memory */\n      0x60\n        /* \"07_struct.sol\":1184:1188  uint */\n      0x00\n        /* \"07_struct.sol\":1190:1194  bool */\n      0x00\n        /* \"07_struct.sol\":1214:1219  users */\n      0x00\n        /* \"07_struct.sol\":1214:1225  users[user] */\n      0x00\n        /* \"07_struct.sol\":1220:1224  user */\n      dup6\n        /* \"07_struct.sol\":1214:1225  users[user] */\n      0xffffffffffffffffffffffffffffffffffffffff\n      and\n      0xffffffffffffffffffffffffffffffffffffffff\n      and\n      dup2\n      mstore\n      0x20\n      add\n      swap1\n      dup2\n      mstore\n      0x20\n      add\n      0x00\n      keccak256\n        /* \"07_struct.sol\":1214:1238  users[user].isRegistered */\n      0x02\n      add\n      0x00\n      swap1\n      sload\n      swap1\n      0x0100\n      exp\n      swap1\n      div\n      0xff\n      and\n        /* \"07_struct.sol\":1206:1263  require(users[user].isRegistered, \"User not registered!\") */\n      tag_21\n      jumpi\n      mload(0x40)\n      0x08c379a000000000000000000000000000000000000000000000000000000000\n      dup2\n      mstore\n      0x04\n      add\n      tag_22\n      swap1\n      tag_23\n      jump\t// in\n    tag_22:\n      mload(0x40)\n      dup1\n      swap2\n      sub\n      swap1\n      revert\n    tag_21:\n        /* \"07_struct.sol\":1281:1286  users */\n      0x00\n        /* \"07_struct.sol\":1281:1292  users[user] */\n      0x00\n        /* \"07_struct.sol\":1287:1291  user */\n      dup6\n        /* \"07_struct.sol\":1281:1292  users[user] */\n      0xffffffffffffffffffffffffffffffffffffffff\n      and\n      0xffffffffffffffffffffffffffffffffffffffff\n      and\n      dup2\n      mstore\n      0x20\n      add\n      swap1\n      dup2\n      mstore\n      0x20\n      add\n      0x00\n      keccak256\n        /* \"07_struct.sol\":1281:1297  users[user].name */\n      0x00\n      add\n        /* \"07_struct.sol\":1299:1304  users */\n      0x00\n        /* \"07_struct.sol\":1299:1310  users[user] */\n      0x00\n        /* \"07_struct.sol\":1305:1309  user */\n      dup7\n        /* \"07_struct.sol\":1299:1310  users[user] */\n      0xffffffffffffffffffffffffffffffffffffffff\n      and\n      0xffffffffffffffffffffffffffffffffffffffff\n      and\n      dup2\n      mstore\n      0x20\n      add\n      swap1\n      dup2\n      mstore\n      0x20\n      add\n      0x00\n      keccak256\n        /* \"07_struct.sol\":1299:1314  users[user].age */\n      0x01\n      add\n      sload\n        /* \"07_struct.sol\":1316:1321  users */\n      0x00\n        /* \"07_struct.sol\":1316:1327  users[user] */\n      0x00\n        /* \"07_struct.sol\":1322:1326  user */\n      dup8\n        /* \"07_struct.sol\":1316:1327  users[user] */\n      0xffffffffffffffffffffffffffffffffffffffff\n      and\n      0xffffffffffffffffffffffffffffffffffffffff\n      and\n      dup2\n      mstore\n      0x20\n      add\n      swap1\n      dup2\n      mstore\n      0x20\n      add\n      0x00\n      keccak256\n        /* \"07_struct.sol\":1316:1340  users[user].isRegistered */\n      0x02\n      add\n      0x00\n      swap1\n      sload\n      swap1\n      0x0100\n      exp\n      swap1\n      div\n      0xff\n      and\n        /* \"07_struct.sol\":1273:1341  return (users[user].name, users[user].age, users[user].isRegistered) */\n      dup3\n      dup1\n      sload\n      tag_24\n      swap1\n      tag_25\n      jump\t// in\n    tag_24:\n      dup1\n      0x1f\n      add\n      0x20\n      dup1\n      swap2\n      div\n      mul\n      0x20\n      add\n      mload(0x40)\n      swap1\n      dup2\n      add\n      0x40\n      mstore\n      dup1\n      swap3\n      swap2\n      swap1\n      dup2\n      dup2\n      mstore\n      0x20\n      add\n      dup3\n      dup1\n      sload\n      tag_26\n      swap1\n      tag_25\n      jump\t// in\n    tag_26:\n      dup1\n      iszero\n      tag_27\n      jumpi\n      dup1\n      0x1f\n      lt\n      tag_28\n      jumpi\n      0x0100\n      dup1\n      dup4\n      sload\n      div\n      mul\n      dup4\n      mstore\n      swap2\n      0x20\n      add\n      swap2\n      jump(tag_27)\n    tag_28:\n      dup3\n      add\n      swap2\n      swap1\n      0x00\n      mstore\n      keccak256(0x00, 0x20)\n      swap1\n    tag_29:\n      dup2\n      sload\n      dup2\n      mstore\n      swap1\n      0x01\n      add\n      swap1\n      0x20\n      add\n      dup1\n      dup4\n      gt\n      tag_29\n      jumpi\n      dup3\n      swap1\n      sub\n      0x1f\n      and\n      dup3\n      add\n      swap2\n    tag_27:\n      pop\n      pop\n      pop\n      pop\n      pop\n      swap3\n      pop\n      swap3\n      pop\n      swap3\n      pop\n      swap3\n      pop\n        /* \"07_struct.sol\":1118:1348  function getUser(address user) public view returns(string memory, uint, bool) {... */\n      swap2\n      swap4\n      swap1\n      swap3\n      pop\n      jump\t// out\n        /* \"07_struct.sol\":874:912  mapping (address => User) public users */\n    tag_14:\n      mstore(0x20, 0x00)\n      dup1\n      0x00\n      mstore\n      keccak256(0x00, 0x40)\n      0x00\n      swap2\n      pop\n      swap1\n      pop\n      dup1\n      0x00\n      add\n      dup1\n      sload\n      tag_30\n      swap1\n      tag_25\n      jump\t// in\n    tag_30:\n      dup1\n      0x1f\n      add\n      0x20\n      dup1\n      swap2\n      div\n      mul\n      0x20\n      add\n      mload(0x40)\n      swap1\n      dup2\n      add\n      0x40\n      mstore\n      dup1\n      swap3\n      swap2\n      swap1\n      dup2\n      dup2\n      mstore\n      0x20\n      add\n      dup3\n      dup1\n      sload\n      tag_31\n      swap1\n      tag_25\n      jump\t// in\n    tag_31:\n      dup1\n      iszero\n      tag_32\n      jumpi\n      dup1\n      0x1f\n      lt\n      tag_33\n      jumpi\n      0x0100\n      dup1\n      dup4\n      sload\n      div\n      mul\n      dup4\n      mstore\n      swap2\n      0x20\n      add\n      swap2\n      jump(tag_32)\n    tag_33:\n      dup3\n      add\n      swap2\n      swap1\n      0x00\n      mstore\n      keccak256(0x00, 0x20)\n      swap1\n    tag_34:\n      dup2\n      sload\n      dup2\n      mstore\n      swap1\n      0x01\n      add\n      swap1\n      0x20\n      add\n      dup1\n      dup4\n      gt\n      tag_34\n      jumpi\n      dup3\n      swap1\n      sub\n      0x1f\n      and\n      dup3\n      add\n      swap2\n    tag_32:\n      pop\n      pop\n      pop\n      pop\n      pop\n      swap1\n      dup1\n      0x01\n      add\n      sload\n      swap1\n      dup1\n      0x02\n      add\n      0x00\n      swap1\n      sload\n      swap1\n      0x0100\n      exp\n      swap1\n      div\n      0xff\n      and\n      swap1\n      pop\n      dup4\n      jump\t// out\n        /* \"07_struct.sol\":918:1113  function registerUser(string memory name, uint age) public {... */\n    tag_19:\n        /* \"07_struct.sol\":996:1001  users */\n      0x00\n        /* \"07_struct.sol\":996:1013  users[msg.sender] */\n      0x00\n        /* \"07_struct.sol\":1002:1012  msg.sender */\n      caller\n        /* \"07_struct.sol\":996:1013  users[msg.sender] */\n      0xffffffffffffffffffffffffffffffffffffffff\n      and\n      0xffffffffffffffffffffffffffffffffffffffff\n      and\n      dup2\n      mstore\n      0x20\n      add\n      swap1\n      dup2\n      mstore\n      0x20\n      add\n      0x00\n      keccak256\n        /* \"07_struct.sol\":996:1026  users[msg.sender].isRegistered */\n      0x02\n      add\n      0x00\n      swap1\n      sload\n      swap1\n      0x0100\n      exp\n      swap1\n      div\n      0xff\n      and\n        /* \"07_struct.sol\":995:1026  !users[msg.sender].isRegistered */\n      iszero\n        /* \"07_struct.sol\":987:1055  require(!users[msg.sender].isRegistered, \"User already registered!\") */\n      tag_36\n      jumpi\n      mload(0x40)\n      0x08c379a000000000000000000000000000000000000000000000000000000000\n      dup2\n      mstore\n      0x04\n      add\n      tag_37\n      swap1\n      tag_38\n      jump\t// in\n    tag_37:\n      mload(0x40)\n      dup1\n      swap2\n      sub\n      swap1\n      revert\n    tag_36:\n        /* \"07_struct.sol\":1085:1106  User(name, age, true) */\n      mload(0x40)\n      dup1\n      0x60\n      add\n      0x40\n      mstore\n      dup1\n        /* \"07_struct.sol\":1090:1094  name */\n      dup4\n        /* \"07_struct.sol\":1085:1106  User(name, age, true) */\n      dup2\n      mstore\n      0x20\n      add\n        /* \"07_struct.sol\":1096:1099  age */\n      dup3\n        /* \"07_struct.sol\":1085:1106  User(name, age, true) */\n      dup2\n      mstore\n      0x20\n      add\n        /* \"07_struct.sol\":1101:1105  true */\n      0x01\n        /* \"07_struct.sol\":1085:1106  User(name, age, true) */\n      iszero\n      iszero\n      dup2\n      mstore\n      pop\n        /* \"07_struct.sol\":1065:1070  users */\n      0x00\n        /* \"07_struct.sol\":1065:1082  users[msg.sender] */\n      0x00\n        /* \"07_struct.sol\":1071:1081  msg.sender */\n      caller\n        /* \"07_struct.sol\":1065:1082  users[msg.sender] */\n      0xffffffffffffffffffffffffffffffffffffffff\n      and\n      0xffffffffffffffffffffffffffffffffffffffff\n      and\n      dup2\n      mstore\n      0x20\n      add\n      swap1\n      dup2\n      mstore\n      0x20\n      add\n      0x00\n      keccak256\n        /* \"07_struct.sol\":1065:1106  users[msg.sender] = User(name, age, true) */\n      0x00\n      dup3\n      add\n      mload\n      dup2\n      0x00\n      add\n      swap1\n      dup2\n      tag_39\n      swap2\n      swap1\n      tag_40\n      jump\t// in\n    tag_39:\n      pop\n      0x20\n      dup3\n      add\n      mload\n      dup2\n      0x01\n      add\n      sstore\n      0x40\n      dup3\n      add\n      mload\n      dup2\n      0x02\n      add\n      exp(0x0100, 0x00)\n      dup2\n      sload\n      dup2\n      0xff\n      mul\n      not\n      and\n      swap1\n      dup4\n      iszero\n      iszero\n      mul\n      or\n      swap1\n      sstore\n      pop\n      swap1\n      pop\n      pop\n        /* \"07_struct.sol\":918:1113  function registerUser(string memory name, uint age) public {... */\n      pop\n      pop\n      jump\t// out\n        /* \"#utility.yul\":7:82   */\n    tag_41:\n        /* \"#utility.yul\":40:46   */\n      0x00\n        /* \"#utility.yul\":73:75   */\n      0x40\n        /* \"#utility.yul\":67:76   */\n      mload\n        /* \"#utility.yul\":57:76   */\n      swap1\n      pop\n        /* \"#utility.yul\":7:82   */\n      swap1\n      jump\t// out\n        /* \"#utility.yul\":88:205   */\n    tag_42:\n        /* \"#utility.yul\":197:198   */\n      0x00\n        /* \"#utility.yul\":194:195   */\n      0x00\n        /* \"#utility.yul\":187:199   */\n      revert\n        /* \"#utility.yul\":211:328   */\n    tag_43:\n        /* \"#utility.yul\":320:321   */\n      0x00\n        /* \"#utility.yul\":317:318   */\n      0x00\n        /* \"#utility.yul\":310:322   */\n      revert\n        /* \"#utility.yul\":334:460   */\n    tag_44:\n        /* \"#utility.yul\":371:378   */\n      0x00\n        /* \"#utility.yul\":411:453   */\n      0xffffffffffffffffffffffffffffffffffffffff\n        /* \"#utility.yul\":404:409   */\n      dup3\n        /* \"#utility.yul\":400:454   */\n      and\n        /* \"#utility.yul\":389:454   */\n      swap1\n      pop\n        /* \"#utility.yul\":334:460   */\n      swap2\n      swap1\n      pop\n      jump\t// out\n        /* \"#utility.yul\":466:562   */\n    tag_45:\n        /* \"#utility.yul\":503:510   */\n      0x00\n        /* \"#utility.yul\":532:556   */\n      tag_94\n        /* \"#utility.yul\":550:555   */\n      dup3\n        /* \"#utility.yul\":532:556   */\n      tag_44\n      jump\t// in\n    tag_94:\n        /* \"#utility.yul\":521:556   */\n      swap1\n      pop\n        /* \"#utility.yul\":466:562   */\n      swap2\n      swap1\n      pop\n      jump\t// out\n        /* \"#utility.yul\":568:690   */\n    tag_46:\n        /* \"#utility.yul\":641:665   */\n      tag_96\n        /* \"#utility.yul\":659:664   */\n      dup2\n        /* \"#utility.yul\":641:665   */\n      tag_45\n      jump\t// in\n    tag_96:\n        /* \"#utility.yul\":634:639   */\n      dup2\n        /* \"#utility.yul\":631:666   */\n      eq\n        /* \"#utility.yul\":621:684   */\n      tag_97\n      jumpi\n        /* \"#utility.yul\":680:681   */\n      0x00\n        /* \"#utility.yul\":677:678   */\n      0x00\n        /* \"#utility.yul\":670:682   */\n      revert\n        /* \"#utility.yul\":621:684   */\n    tag_97:\n        /* \"#utility.yul\":568:690   */\n      pop\n      jump\t// out\n        /* \"#utility.yul\":696:835   */\n    tag_47:\n        /* \"#utility.yul\":742:747   */\n      0x00\n        /* \"#utility.yul\":780:786   */\n      dup2\n        /* \"#utility.yul\":767:787   */\n      calldataload\n        /* \"#utility.yul\":758:787   */\n      swap1\n      pop\n        /* \"#utility.yul\":796:829   */\n      tag_99\n        /* \"#utility.yul\":823:828   */\n      dup2\n        /* \"#utility.yul\":796:829   */\n      tag_46\n      jump\t// in\n    tag_99:\n        /* \"#utility.yul\":696:835   */\n      swap3\n      swap2\n      pop\n      pop\n      jump\t// out\n        /* \"#utility.yul\":841:1170   */\n    tag_8:\n        /* \"#utility.yul\":900:906   */\n      0x00\n        /* \"#utility.yul\":949:951   */\n      0x20\n        /* \"#utility.yul\":937:946   */\n      dup3\n        /* \"#utility.yul\":928:935   */\n      dup5\n        /* \"#utility.yul\":924:947   */\n      sub\n        /* \"#utility.yul\":920:952   */\n      slt\n        /* \"#utility.yul\":917:1036   */\n      iszero\n      tag_101\n      jumpi\n        /* \"#utility.yul\":955:1034   */\n      tag_102\n      tag_42\n      jump\t// in\n    tag_102:\n        /* \"#utility.yul\":917:1036   */\n    tag_101:\n        /* \"#utility.yul\":1075:1076   */\n      0x00\n        /* \"#utility.yul\":1100:1153   */\n      tag_103\n        /* \"#utility.yul\":1145:1152   */\n      dup5\n        /* \"#utility.yul\":1136:1142   */\n      dup3\n        /* \"#utility.yul\":1125:1134   */\n      dup6\n        /* \"#utility.yul\":1121:1143   */\n      add\n        /* \"#utility.yul\":1100:1153   */\n      tag_47\n      jump\t// in\n    tag_103:\n        /* \"#utility.yul\":1090:1153   */\n      swap2\n      pop\n        /* \"#utility.yul\":1046:1163   */\n      pop\n        /* \"#utility.yul\":841:1170   */\n      swap3\n      swap2\n      pop\n      pop\n      jump\t// out\n        /* \"#utility.yul\":1176:1275   */\n    tag_48:\n        /* \"#utility.yul\":1228:1234   */\n      0x00\n        /* \"#utility.yul\":1262:1267   */\n      dup2\n        /* \"#utility.yul\":1256:1268   */\n      mload\n        /* \"#utility.yul\":1246:1268   */\n      swap1\n      pop\n        /* \"#utility.yul\":1176:1275   */\n      swap2\n      swap1\n      pop\n      jump\t// out\n        /* \"#utility.yul\":1281:1450   */\n    tag_49:\n        /* \"#utility.yul\":1365:1376   */\n      0x00\n        /* \"#utility.yul\":1399:1405   */\n      dup3\n        /* \"#utility.yul\":1394:1397   */\n      dup3\n        /* \"#utility.yul\":1387:1406   */\n      mstore\n        /* \"#utility.yul\":1439:1443   */\n      0x20\n        /* \"#utility.yul\":1434:1437   */\n      dup3\n        /* \"#utility.yul\":1430:1444   */\n      add\n        /* \"#utility.yul\":1415:1444   */\n      swap1\n      pop\n        /* \"#utility.yul\":1281:1450   */\n      swap3\n      swap2\n      pop\n      pop\n      jump\t// out\n        /* \"#utility.yul\":1456:1595   */\n    tag_50:\n        /* \"#utility.yul\":1545:1551   */\n      dup3\n        /* \"#utility.yul\":1540:1543   */\n      dup2\n        /* \"#utility.yul\":1535:1538   */\n      dup4\n        /* \"#utility.yul\":1529:1552   */\n      mcopy\n        /* \"#utility.yul\":1586:1587   */\n      0x00\n        /* \"#utility.yul\":1577:1583   */\n      dup4\n        /* \"#utility.yul\":1572:1575   */\n      dup4\n        /* \"#utility.yul\":1568:1584   */\n      add\n        /* \"#utility.yul\":1561:1588   */\n      mstore\n        /* \"#utility.yul\":1456:1595   */\n      pop\n      pop\n      pop\n      jump\t// out\n        /* \"#utility.yul\":1601:1703   */\n    tag_51:\n        /* \"#utility.yul\":1642:1648   */\n      0x00\n        /* \"#utility.yul\":1693:1695   */\n      0x1f\n        /* \"#utility.yul\":1689:1696   */\n      not\n        /* \"#utility.yul\":1684:1686   */\n      0x1f\n        /* \"#utility.yul\":1677:1682   */\n      dup4\n        /* \"#utility.yul\":1673:1687   */\n      add\n        /* \"#utility.yul\":1669:1697   */\n      and\n        /* \"#utility.yul\":1659:1697   */\n      swap1\n      pop\n        /* \"#utility.yul\":1601:1703   */\n      swap2\n      swap1\n      pop\n      jump\t// out\n        /* \"#utility.yul\":1709:2086   */\n    tag_52:\n        /* \"#utility.yul\":1797:1800   */\n      0x00\n        /* \"#utility.yul\":1825:1864   */\n      tag_109\n        /* \"#utility.yul\":1858:1863   */\n      dup3\n        /* \"#utility.yul\":1825:1864   */\n      tag_48\n      jump\t// in\n    tag_109:\n        /* \"#utility.yul\":1880:1951   */\n      tag_110\n        /* \"#utility.yul\":1944:1950   */\n      dup2\n        /* \"#utility.yul\":1939:1942   */\n      dup6\n        /* \"#utility.yul\":1880:1951   */\n      tag_49\n      jump\t// in\n    tag_110:\n        /* \"#utility.yul\":1873:1951   */\n      swap4\n      pop\n        /* \"#utility.yul\":1960:2025   */\n      tag_111\n        /* \"#utility.yul\":2018:2024   */\n      dup2\n        /* \"#utility.yul\":2013:2016   */\n      dup6\n        /* \"#utility.yul\":2006:2010   */\n      0x20\n        /* \"#utility.yul\":1999:2004   */\n      dup7\n        /* \"#utility.yul\":1995:2011   */\n      add\n        /* \"#utility.yul\":1960:2025   */\n      tag_50\n      jump\t// in\n    tag_111:\n        /* \"#utility.yul\":2050:2079   */\n      tag_112\n        /* \"#utility.yul\":2072:2078   */\n      dup2\n        /* \"#utility.yul\":2050:2079   */\n      tag_51\n      jump\t// in\n    tag_112:\n        /* \"#utility.yul\":2045:2048   */\n      dup5\n        /* \"#utility.yul\":2041:2080   */\n      add\n        /* \"#utility.yul\":2034:2080   */\n      swap2\n      pop\n        /* \"#utility.yul\":1801:2086   */\n      pop\n        /* \"#utility.yul\":1709:2086   */\n      swap3\n      swap2\n      pop\n      pop\n      jump\t// out\n        /* \"#utility.yul\":2092:2169   */\n    tag_53:\n        /* \"#utility.yul\":2129:2136   */\n      0x00\n        /* \"#utility.yul\":2158:2163   */\n      dup2\n        /* \"#utility.yul\":2147:2163   */\n      swap1\n      pop\n        /* \"#utility.yul\":2092:2169   */\n      swap2\n      swap1\n      pop\n      jump\t// out\n        /* \"#utility.yul\":2175:2293   */\n    tag_54:\n        /* \"#utility.yul\":2262:2286   */\n      tag_115\n        /* \"#utility.yul\":2280:2285   */\n      dup2\n        /* \"#utility.yul\":2262:2286   */\n      tag_53\n      jump\t// in\n    tag_115:\n        /* \"#utility.yul\":2257:2260   */\n      dup3\n        /* \"#utility.yul\":2250:2287   */\n      mstore\n        /* \"#utility.yul\":2175:2293   */\n      pop\n      pop\n      jump\t// out\n        /* \"#utility.yul\":2299:2389   */\n    tag_55:\n        /* \"#utility.yul\":2333:2340   */\n      0x00\n        /* \"#utility.yul\":2376:2381   */\n      dup2\n        /* \"#utility.yul\":2369:2382   */\n      iszero\n        /* \"#utility.yul\":2362:2383   */\n      iszero\n        /* \"#utility.yul\":2351:2383   */\n      swap1\n      pop\n        /* \"#utility.yul\":2299:2389   */\n      swap2\n      swap1\n      pop\n      jump\t// out\n        /* \"#utility.yul\":2395:2504   */\n    tag_56:\n        /* \"#utility.yul\":2476:2497   */\n      tag_118\n        /* \"#utility.yul\":2491:2496   */\n      dup2\n        /* \"#utility.yul\":2476:2497   */\n      tag_55\n      jump\t// in\n    tag_118:\n        /* \"#utility.yul\":2471:2474   */\n      dup3\n        /* \"#utility.yul\":2464:2498   */\n      mstore\n        /* \"#utility.yul\":2395:2504   */\n      pop\n      pop\n      jump\t// out\n        /* \"#utility.yul\":2510:3031   */\n    tag_11:\n        /* \"#utility.yul\":2673:2677   */\n      0x00\n        /* \"#utility.yul\":2711:2713   */\n      0x60\n        /* \"#utility.yul\":2700:2709   */\n      dup3\n        /* \"#utility.yul\":2696:2714   */\n      add\n        /* \"#utility.yul\":2688:2714   */\n      swap1\n      pop\n        /* \"#utility.yul\":2760:2769   */\n      dup2\n        /* \"#utility.yul\":2754:2758   */\n      dup2\n        /* \"#utility.yul\":2750:2770   */\n      sub\n        /* \"#utility.yul\":2746:2747   */\n      0x00\n        /* \"#utility.yul\":2735:2744   */\n      dup4\n        /* \"#utility.yul\":2731:2748   */\n      add\n        /* \"#utility.yul\":2724:2771   */\n      mstore\n        /* \"#utility.yul\":2788:2866   */\n      tag_120\n        /* \"#utility.yul\":2861:2865   */\n      dup2\n        /* \"#utility.yul\":2852:2858   */\n      dup7\n        /* \"#utility.yul\":2788:2866   */\n      tag_52\n      jump\t// in\n    tag_120:\n        /* \"#utility.yul\":2780:2866   */\n      swap1\n      pop\n        /* \"#utility.yul\":2876:2948   */\n      tag_121\n        /* \"#utility.yul\":2944:2946   */\n      0x20\n        /* \"#utility.yul\":2933:2942   */\n      dup4\n        /* \"#utility.yul\":2929:2947   */\n      add\n        /* \"#utility.yul\":2920:2926   */\n      dup6\n        /* \"#utility.yul\":2876:2948   */\n      tag_54\n      jump\t// in\n    tag_121:\n        /* \"#utility.yul\":2958:3024   */\n      tag_122\n        /* \"#utility.yul\":3020:3022   */\n      0x40\n        /* \"#utility.yul\":3009:3018   */\n      dup4\n        /* \"#utility.yul\":3005:3023   */\n      add\n        /* \"#utility.yul\":2996:3002   */\n      dup5\n        /* \"#utility.yul\":2958:3024   */\n      tag_56\n      jump\t// in\n    tag_122:\n        /* \"#utility.yul\":2510:3031   */\n      swap5\n      swap4\n      pop\n      pop\n      pop\n      pop\n      jump\t// out\n        /* \"#utility.yul\":3037:3154   */\n    tag_57:\n        /* \"#utility.yul\":3146:3147   */\n      0x00\n        /* \"#utility.yul\":3143:3144   */\n      0x00\n        /* \"#utility.yul\":3136:3148   */\n      revert\n        /* \"#utility.yul\":3160:3277   */\n    tag_58:\n        /* \"#utility.yul\":3269:3270   */\n      0x00\n        /* \"#utility.yul\":3266:3267   */\n      0x00\n        /* \"#utility.yul\":3259:3271   */\n      revert\n        /* \"#utility.yul\":3283:3463   */\n    tag_59:\n        /* \"#utility.yul\":3331:3408   */\n      0x4e487b7100000000000000000000000000000000000000000000000000000000\n        /* \"#utility.yul\":3328:3329   */\n      0x00\n        /* \"#utility.yul\":3321:3409   */\n      mstore\n        /* \"#utility.yul\":3428:3432   */\n      0x41\n        /* \"#utility.yul\":3425:3426   */\n      0x04\n        /* \"#utility.yul\":3418:3433   */\n      mstore\n        /* \"#utility.yul\":3452:3456   */\n      0x24\n        /* \"#utility.yul\":3449:3450   */\n      0x00\n        /* \"#utility.yul\":3442:3457   */\n      revert\n        /* \"#utility.yul\":3469:3750   */\n    tag_60:\n        /* \"#utility.yul\":3552:3579   */\n      tag_127\n        /* \"#utility.yul\":3574:3578   */\n      dup3\n        /* \"#utility.yul\":3552:3579   */\n      tag_51\n      jump\t// in\n    tag_127:\n        /* \"#utility.yul\":3544:3550   */\n      dup2\n        /* \"#utility.yul\":3540:3580   */\n      add\n        /* \"#utility.yul\":3682:3688   */\n      dup2\n        /* \"#utility.yul\":3670:3680   */\n      dup2\n        /* \"#utility.yul\":3667:3689   */\n      lt\n        /* \"#utility.yul\":3646:3664   */\n      0xffffffffffffffff\n        /* \"#utility.yul\":3634:3644   */\n      dup3\n        /* \"#utility.yul\":3631:3665   */\n      gt\n        /* \"#utility.yul\":3628:3690   */\n      or\n        /* \"#utility.yul\":3625:3713   */\n      iszero\n      tag_128\n      jumpi\n        /* \"#utility.yul\":3693:3711   */\n      tag_129\n      tag_59\n      jump\t// in\n    tag_129:\n        /* \"#utility.yul\":3625:3713   */\n    tag_128:\n        /* \"#utility.yul\":3733:3743   */\n      dup1\n        /* \"#utility.yul\":3729:3731   */\n      0x40\n        /* \"#utility.yul\":3722:3744   */\n      mstore\n        /* \"#utility.yul\":3512:3750   */\n      pop\n        /* \"#utility.yul\":3469:3750   */\n      pop\n      pop\n      jump\t// out\n        /* \"#utility.yul\":3756:3885   */\n    tag_61:\n        /* \"#utility.yul\":3790:3796   */\n      0x00\n        /* \"#utility.yul\":3817:3837   */\n      tag_131\n      tag_41\n      jump\t// in\n    tag_131:\n        /* \"#utility.yul\":3807:3837   */\n      swap1\n      pop\n        /* \"#utility.yul\":3846:3879   */\n      tag_132\n        /* \"#utility.yul\":3874:3878   */\n      dup3\n        /* \"#utility.yul\":3866:3872   */\n      dup3\n        /* \"#utility.yul\":3846:3879   */\n      tag_60\n      jump\t// in\n    tag_132:\n        /* \"#utility.yul\":3756:3885   */\n      swap2\n      swap1\n      pop\n      jump\t// out\n        /* \"#utility.yul\":3891:4199   */\n    tag_62:\n        /* \"#utility.yul\":3953:3957   */\n      0x00\n        /* \"#utility.yul\":4043:4061   */\n      0xffffffffffffffff\n        /* \"#utility.yul\":4035:4041   */\n      dup3\n        /* \"#utility.yul\":4032:4062   */\n      gt\n        /* \"#utility.yul\":4029:4085   */\n      iszero\n      tag_134\n      jumpi\n        /* \"#utility.yul\":4065:4083   */\n      tag_135\n      tag_59\n      jump\t// in\n    tag_135:\n        /* \"#utility.yul\":4029:4085   */\n    tag_134:\n        /* \"#utility.yul\":4103:4132   */\n      tag_136\n        /* \"#utility.yul\":4125:4131   */\n      dup3\n        /* \"#utility.yul\":4103:4132   */\n      tag_51\n      jump\t// in\n    tag_136:\n        /* \"#utility.yul\":4095:4132   */\n      swap1\n      pop\n        /* \"#utility.yul\":4187:4191   */\n      0x20\n        /* \"#utility.yul\":4181:4185   */\n      dup2\n        /* \"#utility.yul\":4177:4192   */\n      add\n        /* \"#utility.yul\":4169:4192   */\n      swap1\n      pop\n        /* \"#utility.yul\":3891:4199   */\n      swap2\n      swap1\n      pop\n      jump\t// out\n        /* \"#utility.yul\":4205:4353   */\n    tag_63:\n        /* \"#utility.yul\":4303:4309   */\n      dup3\n        /* \"#utility.yul\":4298:4301   */\n      dup2\n        /* \"#utility.yul\":4293:4296   */\n      dup4\n        /* \"#utility.yul\":4280:4310   */\n      calldatacopy\n        /* \"#utility.yul\":4344:4345   */\n      0x00\n        /* \"#utility.yul\":4335:4341   */\n      dup4\n        /* \"#utility.yul\":4330:4333   */\n      dup4\n        /* \"#utility.yul\":4326:4342   */\n      add\n        /* \"#utility.yul\":4319:4346   */\n      mstore\n        /* \"#utility.yul\":4205:4353   */\n      pop\n      pop\n      pop\n      jump\t// out\n        /* \"#utility.yul\":4359:4784   */\n    tag_64:\n        /* \"#utility.yul\":4437:4442   */\n      0x00\n        /* \"#utility.yul\":4462:4528   */\n      tag_139\n        /* \"#utility.yul\":4478:4527   */\n      tag_140\n        /* \"#utility.yul\":4520:4526   */\n      dup5\n        /* \"#utility.yul\":4478:4527   */\n      tag_62\n      jump\t// in\n    tag_140:\n        /* \"#utility.yul\":4462:4528   */\n      tag_61\n      jump\t// in\n    tag_139:\n        /* \"#utility.yul\":4453:4528   */\n      swap1\n      pop\n        /* \"#utility.yul\":4551:4557   */\n      dup3\n        /* \"#utility.yul\":4544:4549   */\n      dup2\n        /* \"#utility.yul\":4537:4558   */\n      mstore\n        /* \"#utility.yul\":4589:4593   */\n      0x20\n        /* \"#utility.yul\":4582:4587   */\n      dup2\n        /* \"#utility.yul\":4578:4594   */\n      add\n        /* \"#utility.yul\":4627:4630   */\n      dup5\n        /* \"#utility.yul\":4618:4624   */\n      dup5\n        /* \"#utility.yul\":4613:4616   */\n      dup5\n        /* \"#utility.yul\":4609:4625   */\n      add\n        /* \"#utility.yul\":4606:4631   */\n      gt\n        /* \"#utility.yul\":4603:4715   */\n      iszero\n      tag_141\n      jumpi\n        /* \"#utility.yul\":4634:4713   */\n      tag_142\n      tag_58\n      jump\t// in\n    tag_142:\n        /* \"#utility.yul\":4603:4715   */\n    tag_141:\n        /* \"#utility.yul\":4724:4778   */\n      tag_143\n        /* \"#utility.yul\":4771:4777   */\n      dup5\n        /* \"#utility.yul\":4766:4769   */\n      dup3\n        /* \"#utility.yul\":4761:4764   */\n      dup6\n        /* \"#utility.yul\":4724:4778   */\n      tag_63\n      jump\t// in\n    tag_143:\n        /* \"#utility.yul\":4443:4784   */\n      pop\n        /* \"#utility.yul\":4359:4784   */\n      swap4\n      swap3\n      pop\n      pop\n      pop\n      jump\t// out\n        /* \"#utility.yul\":4804:5144   */\n    tag_65:\n        /* \"#utility.yul\":4860:4865   */\n      0x00\n        /* \"#utility.yul\":4909:4912   */\n      dup3\n        /* \"#utility.yul\":4902:4906   */\n      0x1f\n        /* \"#utility.yul\":4894:4900   */\n      dup4\n        /* \"#utility.yul\":4890:4907   */\n      add\n        /* \"#utility.yul\":4886:4913   */\n      slt\n        /* \"#utility.yul\":4876:4998   */\n      tag_145\n      jumpi\n        /* \"#utility.yul\":4917:4996   */\n      tag_146\n      tag_57\n      jump\t// in\n    tag_146:\n        /* \"#utility.yul\":4876:4998   */\n    tag_145:\n        /* \"#utility.yul\":5034:5040   */\n      dup2\n        /* \"#utility.yul\":5021:5041   */\n      calldataload\n        /* \"#utility.yul\":5059:5138   */\n      tag_147\n        /* \"#utility.yul\":5134:5137   */\n      dup5\n        /* \"#utility.yul\":5126:5132   */\n      dup3\n        /* \"#utility.yul\":5119:5123   */\n      0x20\n        /* \"#utility.yul\":5111:5117   */\n      dup7\n        /* \"#utility.yul\":5107:5124   */\n      add\n        /* \"#utility.yul\":5059:5138   */\n      tag_64\n      jump\t// in\n    tag_147:\n        /* \"#utility.yul\":5050:5138   */\n      swap2\n      pop\n        /* \"#utility.yul\":4866:5144   */\n      pop\n        /* \"#utility.yul\":4804:5144   */\n      swap3\n      swap2\n      pop\n      pop\n      jump\t// out\n        /* \"#utility.yul\":5150:5272   */\n    tag_66:\n        /* \"#utility.yul\":5223:5247   */\n      tag_149\n        /* \"#utility.yul\":5241:5246   */\n      dup2\n        /* \"#utility.yul\":5223:5247   */\n      tag_53\n      jump\t// in\n    tag_149:\n        /* \"#utility.yul\":5216:5221   */\n      dup2\n        /* \"#utility.yul\":5213:5248   */\n      eq\n        /* \"#utility.yul\":5203:5266   */\n      tag_150\n      jumpi\n        /* \"#utility.yul\":5262:5263   */\n      0x00\n        /* \"#utility.yul\":5259:5260   */\n      0x00\n        /* \"#utility.yul\":5252:5264   */\n      revert\n        /* \"#utility.yul\":5203:5266   */\n    tag_150:\n        /* \"#utility.yul\":5150:5272   */\n      pop\n      jump\t// out\n        /* \"#utility.yul\":5278:5417   */\n    tag_67:\n        /* \"#utility.yul\":5324:5329   */\n      0x00\n        /* \"#utility.yul\":5362:5368   */\n      dup2\n        /* \"#utility.yul\":5349:5369   */\n      calldataload\n        /* \"#utility.yul\":5340:5369   */\n      swap1\n      pop\n        /* \"#utility.yul\":5378:5411   */\n      tag_152\n        /* \"#utility.yul\":5405:5410   */\n      dup2\n        /* \"#utility.yul\":5378:5411   */\n      tag_66\n      jump\t// in\n    tag_152:\n        /* \"#utility.yul\":5278:5417   */\n      swap3\n      swap2\n      pop\n      pop\n      jump\t// out\n        /* \"#utility.yul\":5423:6077   */\n    tag_18:\n        /* \"#utility.yul\":5501:5507   */\n      0x00\n        /* \"#utility.yul\":5509:5515   */\n      0x00\n        /* \"#utility.yul\":5558:5560   */\n      0x40\n        /* \"#utility.yul\":5546:5555   */\n      dup4\n        /* \"#utility.yul\":5537:5544   */\n      dup6\n        /* \"#utility.yul\":5533:5556   */\n      sub\n        /* \"#utility.yul\":5529:5561   */\n      slt\n        /* \"#utility.yul\":5526:5645   */\n      iszero\n      tag_154\n      jumpi\n        /* \"#utility.yul\":5564:5643   */\n      tag_155\n      tag_42\n      jump\t// in\n    tag_155:\n        /* \"#utility.yul\":5526:5645   */\n    tag_154:\n        /* \"#utility.yul\":5712:5713   */\n      0x00\n        /* \"#utility.yul\":5701:5710   */\n      dup4\n        /* \"#utility.yul\":5697:5714   */\n      add\n        /* \"#utility.yul\":5684:5715   */\n      calldataload\n        /* \"#utility.yul\":5742:5760   */\n      0xffffffffffffffff\n        /* \"#utility.yul\":5734:5740   */\n      dup2\n        /* \"#utility.yul\":5731:5761   */\n      gt\n        /* \"#utility.yul\":5728:5845   */\n      iszero\n      tag_156\n      jumpi\n        /* \"#utility.yul\":5764:5843   */\n      tag_157\n      tag_43\n      jump\t// in\n    tag_157:\n        /* \"#utility.yul\":5728:5845   */\n    tag_156:\n        /* \"#utility.yul\":5869:5932   */\n      tag_158\n        /* \"#utility.yul\":5924:5931   */\n      dup6\n        /* \"#utility.yul\":5915:5921   */\n      dup3\n        /* \"#utility.yul\":5904:5913   */\n      dup7\n        /* \"#utility.yul\":5900:5922   */\n      add\n        /* \"#utility.yul\":5869:5932   */\n      tag_65\n      jump\t// in\n    tag_158:\n        /* \"#utility.yul\":5859:5932   */\n      swap3\n      pop\n        /* \"#utility.yul\":5655:5942   */\n      pop\n        /* \"#utility.yul\":5981:5983   */\n      0x20\n        /* \"#utility.yul\":6007:6060   */\n      tag_159\n        /* \"#utility.yul\":6052:6059   */\n      dup6\n        /* \"#utility.yul\":6043:6049   */\n      dup3\n        /* \"#utility.yul\":6032:6041   */\n      dup7\n        /* \"#utility.yul\":6028:6050   */\n      add\n        /* \"#utility.yul\":6007:6060   */\n      tag_67\n      jump\t// in\n    tag_159:\n        /* \"#utility.yul\":5997:6060   */\n      swap2\n      pop\n        /* \"#utility.yul\":5952:6070   */\n      pop\n        /* \"#utility.yul\":5423:6077   */\n      swap3\n      pop\n      swap3\n      swap1\n      pop\n      jump\t// out\n        /* \"#utility.yul\":6083:6253   */\n    tag_68:\n        /* \"#utility.yul\":6223:6245   */\n      0x55736572206e6f74207265676973746572656421000000000000000000000000\n        /* \"#utility.yul\":6219:6220   */\n      0x00\n        /* \"#utility.yul\":6211:6217   */\n      dup3\n        /* \"#utility.yul\":6207:6221   */\n      add\n        /* \"#utility.yul\":6200:6246   */\n      mstore\n        /* \"#utility.yul\":6083:6253   */\n      pop\n      jump\t// out\n        /* \"#utility.yul\":6259:6625   */\n    tag_69:\n        /* \"#utility.yul\":6401:6404   */\n      0x00\n        /* \"#utility.yul\":6422:6489   */\n      tag_162\n        /* \"#utility.yul\":6486:6488   */\n      0x14\n        /* \"#utility.yul\":6481:6484   */\n      dup4\n        /* \"#utility.yul\":6422:6489   */\n      tag_49\n      jump\t// in\n    tag_162:\n        /* \"#utility.yul\":6415:6489   */\n      swap2\n      pop\n        /* \"#utility.yul\":6498:6591   */\n      tag_163\n        /* \"#utility.yul\":6587:6590   */\n      dup3\n        /* \"#utility.yul\":6498:6591   */\n      tag_68\n      jump\t// in\n    tag_163:\n        /* \"#utility.yul\":6616:6618   */\n      0x20\n        /* \"#utility.yul\":6611:6614   */\n      dup3\n        /* \"#utility.yul\":6607:6619   */\n      add\n        /* \"#utility.yul\":6600:6619   */\n      swap1\n      pop\n        /* \"#utility.yul\":6259:6625   */\n      swap2\n      swap1\n      pop\n      jump\t// out\n        /* \"#utility.yul\":6631:7050   */\n    tag_23:\n        /* \"#utility.yul\":6797:6801   */\n      0x00\n        /* \"#utility.yul\":6835:6837   */\n      0x20\n        /* \"#utility.yul\":6824:6833   */\n      dup3\n        /* \"#utility.yul\":6820:6838   */\n      add\n        /* \"#utility.yul\":6812:6838   */\n      swap1\n      pop\n        /* \"#utility.yul\":6884:6893   */\n      dup2\n        /* \"#utility.yul\":6878:6882   */\n      dup2\n        /* \"#utility.yul\":6874:6894   */\n      sub\n        /* \"#utility.yul\":6870:6871   */\n      0x00\n        /* \"#utility.yul\":6859:6868   */\n      dup4\n        /* \"#utility.yul\":6855:6872   */\n      add\n        /* \"#utility.yul\":6848:6895   */\n      mstore\n        /* \"#utility.yul\":6912:7043   */\n      tag_165\n        /* \"#utility.yul\":7038:7042   */\n      dup2\n        /* \"#utility.yul\":6912:7043   */\n      tag_69\n      jump\t// in\n    tag_165:\n        /* \"#utility.yul\":6904:7043   */\n      swap1\n      pop\n        /* \"#utility.yul\":6631:7050   */\n      swap2\n      swap1\n      pop\n      jump\t// out\n        /* \"#utility.yul\":7056:7236   */\n    tag_70:\n        /* \"#utility.yul\":7104:7181   */\n      0x4e487b7100000000000000000000000000000000000000000000000000000000\n        /* \"#utility.yul\":7101:7102   */\n      0x00\n        /* \"#utility.yul\":7094:7182   */\n      mstore\n        /* \"#utility.yul\":7201:7205   */\n      0x22\n        /* \"#utility.yul\":7198:7199   */\n      0x04\n        /* \"#utility.yul\":7191:7206   */\n      mstore\n        /* \"#utility.yul\":7225:7229   */\n      0x24\n        /* \"#utility.yul\":7222:7223   */\n      0x00\n        /* \"#utility.yul\":7215:7230   */\n      revert\n        /* \"#utility.yul\":7242:7562   */\n    tag_25:\n        /* \"#utility.yul\":7286:7292   */\n      0x00\n        /* \"#utility.yul\":7323:7324   */\n      0x02\n        /* \"#utility.yul\":7317:7321   */\n      dup3\n        /* \"#utility.yul\":7313:7325   */\n      div\n        /* \"#utility.yul\":7303:7325   */\n      swap1\n      pop\n        /* \"#utility.yul\":7370:7371   */\n      0x01\n        /* \"#utility.yul\":7364:7368   */\n      dup3\n        /* \"#utility.yul\":7360:7372   */\n      and\n        /* \"#utility.yul\":7391:7409   */\n      dup1\n        /* \"#utility.yul\":7381:7462   */\n      tag_168\n      jumpi\n        /* \"#utility.yul\":7447:7451   */\n      0x7f\n        /* \"#utility.yul\":7439:7445   */\n      dup3\n        /* \"#utility.yul\":7435:7452   */\n      and\n        /* \"#utility.yul\":7425:7452   */\n      swap2\n      pop\n        /* \"#utility.yul\":7381:7462   */\n    tag_168:\n        /* \"#utility.yul\":7509:7511   */\n      0x20\n        /* \"#utility.yul\":7501:7507   */\n      dup3\n        /* \"#utility.yul\":7498:7512   */\n      lt\n        /* \"#utility.yul\":7478:7496   */\n      dup2\n        /* \"#utility.yul\":7475:7513   */\n      sub\n        /* \"#utility.yul\":7472:7556   */\n      tag_169\n      jumpi\n        /* \"#utility.yul\":7528:7546   */\n      tag_170\n      tag_70\n      jump\t// in\n    tag_170:\n        /* \"#utility.yul\":7472:7556   */\n    tag_169:\n        /* \"#utility.yul\":7293:7562   */\n      pop\n        /* \"#utility.yul\":7242:7562   */\n      swap2\n      swap1\n      pop\n      jump\t// out\n        /* \"#utility.yul\":7568:7742   */\n    tag_71:\n        /* \"#utility.yul\":7708:7734   */\n      0x5573657220616c72656164792072656769737465726564210000000000000000\n        /* \"#utility.yul\":7704:7705   */\n      0x00\n        /* \"#utility.yul\":7696:7702   */\n      dup3\n        /* \"#utility.yul\":7692:7706   */\n      add\n        /* \"#utility.yul\":7685:7735   */\n      mstore\n        /* \"#utility.yul\":7568:7742   */\n      pop\n      jump\t// out\n        /* \"#utility.yul\":7748:8114   */\n    tag_72:\n        /* \"#utility.yul\":7890:7893   */\n      0x00\n        /* \"#utility.yul\":7911:7978   */\n      tag_173\n        /* \"#utility.yul\":7975:7977   */\n      0x18\n        /* \"#utility.yul\":7970:7973   */\n      dup4\n        /* \"#utility.yul\":7911:7978   */\n      tag_49\n      jump\t// in\n    tag_173:\n        /* \"#utility.yul\":7904:7978   */\n      swap2\n      pop\n        /* \"#utility.yul\":7987:8080   */\n      tag_174\n        /* \"#utility.yul\":8076:8079   */\n      dup3\n        /* \"#utility.yul\":7987:8080   */\n      tag_71\n      jump\t// in\n    tag_174:\n        /* \"#utility.yul\":8105:8107   */\n      0x20\n        /* \"#utility.yul\":8100:8103   */\n      dup3\n        /* \"#utility.yul\":8096:8108   */\n      add\n        /* \"#utility.yul\":8089:8108   */\n      swap1\n      pop\n        /* \"#utility.yul\":7748:8114   */\n      swap2\n      swap1\n      pop\n      jump\t// out\n        /* \"#utility.yul\":8120:8539   */\n    tag_38:\n        /* \"#utility.yul\":8286:8290   */\n      0x00\n        /* \"#utility.yul\":8324:8326   */\n      0x20\n        /* \"#utility.yul\":8313:8322   */\n      dup3\n        /* \"#utility.yul\":8309:8327   */\n      add\n        /* \"#utility.yul\":8301:8327   */\n      swap1\n      pop\n        /* \"#utility.yul\":8373:8382   */\n      dup2\n        /* \"#utility.yul\":8367:8371   */\n      dup2\n        /* \"#utility.yul\":8363:8383   */\n      sub\n        /* \"#utility.yul\":8359:8360   */\n      0x00\n        /* \"#utility.yul\":8348:8357   */\n      dup4\n        /* \"#utility.yul\":8344:8361   */\n      add\n        /* \"#utility.yul\":8337:8384   */\n      mstore\n        /* \"#utility.yul\":8401:8532   */\n      tag_176\n        /* \"#utility.yul\":8527:8531   */\n      dup2\n        /* \"#utility.yul\":8401:8532   */\n      tag_72\n      jump\t// in\n    tag_176:\n        /* \"#utility.yul\":8393:8532   */\n      swap1\n      pop\n        /* \"#utility.yul\":8120:8539   */\n      swap2\n      swap1\n      pop\n      jump\t// out\n        /* \"#utility.yul\":8545:8686   */\n    tag_73:\n        /* \"#utility.yul\":8594:8598   */\n      0x00\n        /* \"#utility.yul\":8617:8620   */\n      dup2\n        /* \"#utility.yul\":8609:8620   */\n      swap1\n      pop\n        /* \"#utility.yul\":8640:8643   */\n      dup2\n        /* \"#utility.yul\":8637:8638   */\n      0x00\n        /* \"#utility.yul\":8630:8644   */\n      mstore\n        /* \"#utility.yul\":8674:8678   */\n      0x20\n        /* \"#utility.yul\":8671:8672   */\n      0x00\n        /* \"#utility.yul\":8661:8679   */\n      keccak256\n        /* \"#utility.yul\":8653:8679   */\n      swap1\n      pop\n        /* \"#utility.yul\":8545:8686   */\n      swap2\n      swap1\n      pop\n      jump\t// out\n        /* \"#utility.yul\":8692:8785   */\n    tag_74:\n        /* \"#utility.yul\":8729:8735   */\n      0x00\n        /* \"#utility.yul\":8776:8778   */\n      0x20\n        /* \"#utility.yul\":8771:8773   */\n      0x1f\n        /* \"#utility.yul\":8764:8769   */\n      dup4\n        /* \"#utility.yul\":8760:8774   */\n      add\n        /* \"#utility.yul\":8756:8779   */\n      div\n        /* \"#utility.yul\":8746:8779   */\n      swap1\n      pop\n        /* \"#utility.yul\":8692:8785   */\n      swap2\n      swap1\n      pop\n      jump\t// out\n        /* \"#utility.yul\":8791:8898   */\n    tag_75:\n        /* \"#utility.yul\":8835:8843   */\n      0x00\n        /* \"#utility.yul\":8885:8890   */\n      dup3\n        /* \"#utility.yul\":8879:8883   */\n      dup3\n        /* \"#utility.yul\":8875:8891   */\n      shl\n        /* \"#utility.yul\":8854:8891   */\n      swap1\n      pop\n        /* \"#utility.yul\":8791:8898   */\n      swap3\n      swap2\n      pop\n      pop\n      jump\t// out\n        /* \"#utility.yul\":8904:9297   */\n    tag_76:\n        /* \"#utility.yul\":8973:8979   */\n      0x00\n        /* \"#utility.yul\":9023:9024   */\n      0x08\n        /* \"#utility.yul\":9011:9021   */\n      dup4\n        /* \"#utility.yul\":9007:9025   */\n      mul\n        /* \"#utility.yul\":9046:9143   */\n      tag_181\n        /* \"#utility.yul\":9076:9142   */\n      0xffffffffffffffffffffffffffffffffffffffffffffffffffffffffffffffff\n        /* \"#utility.yul\":9065:9074   */\n      dup3\n        /* \"#utility.yul\":9046:9143   */\n      tag_75\n      jump\t// in\n    tag_181:\n        /* \"#utility.yul\":9164:9203   */\n      tag_182\n        /* \"#utility.yul\":9194:9202   */\n      dup7\n        /* \"#utility.yul\":9183:9192   */\n      dup4\n        /* \"#utility.yul\":9164:9203   */\n      tag_75\n      jump\t// in\n    tag_182:\n        /* \"#utility.yul\":9152:9203   */\n      swap6\n      pop\n        /* \"#utility.yul\":9236:9240   */\n      dup1\n        /* \"#utility.yul\":9232:9241   */\n      not\n        /* \"#utility.yul\":9225:9230   */\n      dup5\n        /* \"#utility.yul\":9221:9242   */\n      and\n        /* \"#utility.yul\":9212:9242   */\n      swap4\n      pop\n        /* \"#utility.yul\":9285:9289   */\n      dup1\n        /* \"#utility.yul\":9275:9283   */\n      dup7\n        /* \"#utility.yul\":9271:9290   */\n      and\n        /* \"#utility.yul\":9264:9269   */\n      dup5\n        /* \"#utility.yul\":9261:9291   */\n      or\n        /* \"#utility.yul\":9251:9291   */\n      swap3\n      pop\n        /* \"#utility.yul\":8980:9297   */\n      pop\n      pop\n        /* \"#utility.yul\":8904:9297   */\n      swap4\n      swap3\n      pop\n      pop\n      pop\n      jump\t// out\n        /* \"#utility.yul\":9303:9363   */\n    tag_77:\n        /* \"#utility.yul\":9331:9334   */\n      0x00\n        /* \"#utility.yul\":9352:9357   */\n      dup2\n        /* \"#utility.yul\":9345:9357   */\n      swap1\n      pop\n        /* \"#utility.yul\":9303:9363   */\n      swap2\n      swap1\n      pop\n      jump\t// out\n        /* \"#utility.yul\":9369:9511   */\n    tag_78:\n        /* \"#utility.yul\":9419:9428   */\n      0x00\n        /* \"#utility.yul\":9452:9505   */\n      tag_185\n        /* \"#utility.yul\":9470:9504   */\n      tag_186\n        /* \"#utility.yul\":9479:9503   */\n      tag_187\n        /* \"#utility.yul\":9497:9502   */\n      dup5\n        /* \"#utility.yul\":9479:9503   */\n      tag_53\n      jump\t// in\n    tag_187:\n        /* \"#utility.yul\":9470:9504   */\n      tag_77\n      jump\t// in\n    tag_186:\n        /* \"#utility.yul\":9452:9505   */\n      tag_53\n      jump\t// in\n    tag_185:\n        /* \"#utility.yul\":9439:9505   */\n      swap1\n      pop\n        /* \"#utility.yul\":9369:9511   */\n      swap2\n      swap1\n      pop\n      jump\t// out\n        /* \"#utility.yul\":9517:9592   */\n    tag_79:\n        /* \"#utility.yul\":9560:9563   */\n      0x00\n        /* \"#utility.yul\":9581:9586   */\n      dup2\n        /* \"#utility.yul\":9574:9586   */\n      swap1\n      pop\n        /* \"#utility.yul\":9517:9592   */\n      swap2\n      swap1\n      pop\n      jump\t// out\n        /* \"#utility.yul\":9598:9867   */\n    tag_80:\n        /* \"#utility.yul\":9708:9747   */\n      tag_190\n        /* \"#utility.yul\":9739:9746   */\n      dup4\n        /* \"#utility.yul\":9708:9747   */\n      tag_78\n      jump\t// in\n    tag_190:\n        /* \"#utility.yul\":9769:9860   */\n      tag_191\n        /* \"#utility.yul\":9818:9859   */\n      tag_192\n        /* \"#utility.yul\":9842:9858   */\n      dup3\n        /* \"#utility.yul\":9818:9859   */\n      tag_79\n      jump\t// in\n    tag_192:\n        /* \"#utility.yul\":9810:9816   */\n      dup5\n        /* \"#utility.yul\":9803:9807   */\n      dup5\n        /* \"#utility.yul\":9797:9808   */\n      sload\n        /* \"#utility.yul\":9769:9860   */\n      tag_76\n      jump\t// in\n    tag_191:\n        /* \"#utility.yul\":9763:9767   */\n      dup3\n        /* \"#utility.yul\":9756:9861   */\n      sstore\n        /* \"#utility.yul\":9674:9867   */\n      pop\n        /* \"#utility.yul\":9598:9867   */\n      pop\n      pop\n      pop\n      jump\t// out\n        /* \"#utility.yul\":9873:9946   */\n    tag_81:\n        /* \"#utility.yul\":9918:9921   */\n      0x00\n        /* \"#utility.yul\":9939:9940   */\n      0x00\n        /* \"#utility.yul\":9932:9940   */\n      swap1\n      pop\n        /* \"#utility.yul\":9873:9946   */\n      swap1\n      jump\t// out\n        /* \"#utility.yul\":9952:10141   */\n    tag_82:\n        /* \"#utility.yul\":10029:10061   */\n      tag_195\n      tag_81\n      jump\t// in\n    tag_195:\n        /* \"#utility.yul\":10070:10135   */\n      tag_196\n        /* \"#utility.yul\":10128:10134   */\n      dup2\n        /* \"#utility.yul\":10120:10126   */\n      dup5\n        /* \"#utility.yul\":10114:10118   */\n      dup5\n        /* \"#utility.yul\":10070:10135   */\n      tag_80\n      jump\t// in\n    tag_196:\n        /* \"#utility.yul\":10005:10141   */\n      pop\n        /* \"#utility.yul\":9952:10141   */\n      pop\n      pop\n      jump\t// out\n        /* \"#utility.yul\":10147:10333   */\n    tag_83:\n        /* \"#utility.yul\":10207:10327   */\n    tag_198:\n        /* \"#utility.yul\":10224:10227   */\n      dup2\n        /* \"#utility.yul\":10217:10222   */\n      dup2\n        /* \"#utility.yul\":10214:10228   */\n      lt\n        /* \"#utility.yul\":10207:10327   */\n      iszero\n      tag_200\n      jumpi\n        /* \"#utility.yul\":10278:10317   */\n      tag_201\n        /* \"#utility.yul\":10315:10316   */\n      0x00\n        /* \"#utility.yul\":10308:10313   */\n      dup3\n        /* \"#utility.yul\":10278:10317   */\n      tag_82\n      jump\t// in\n    tag_201:\n        /* \"#utility.yul\":10251:10252   */\n      0x01\n        /* \"#utility.yul\":10244:10249   */\n      dup2\n        /* \"#utility.yul\":10240:10253   */\n      add\n        /* \"#utility.yul\":10231:10253   */\n      swap1\n      pop\n        /* \"#utility.yul\":10207:10327   */\n      jump(tag_198)\n    tag_200:\n        /* \"#utility.yul\":10147:10333   */\n      pop\n      pop\n      jump\t// out\n        /* \"#utility.yul\":10339:10882   */\n    tag_84:\n        /* \"#utility.yul\":10440:10442   */\n      0x1f\n        /* \"#utility.yul\":10435:10438   */\n      dup3\n        /* \"#utility.yul\":10432:10443   */\n      gt\n        /* \"#utility.yul\":10429:10875   */\n      iszero\n      tag_203\n      jumpi\n        /* \"#utility.yul\":10474:10512   */\n      tag_204\n        /* \"#utility.yul\":10506:10511   */\n      dup2\n        /* \"#utility.yul\":10474:10512   */\n      tag_73\n      jump\t// in\n    tag_204:\n        /* \"#utility.yul\":10558:10587   */\n      tag_205\n        /* \"#utility.yul\":10576:10586   */\n      dup5\n        /* \"#utility.yul\":10558:10587   */\n      tag_74\n      jump\t// in\n    tag_205:\n        /* \"#utility.yul\":10548:10556   */\n      dup2\n        /* \"#utility.yul\":10544:10588   */\n      add\n        /* \"#utility.yul\":10741:10743   */\n      0x20\n        /* \"#utility.yul\":10729:10739   */\n      dup6\n        /* \"#utility.yul\":10726:10744   */\n      lt\n        /* \"#utility.yul\":10723:10772   */\n      iszero\n      tag_206\n      jumpi\n        /* \"#utility.yul\":10762:10770   */\n      dup2\n        /* \"#utility.yul\":10747:10770   */\n      swap1\n      pop\n        /* \"#utility.yul\":10723:10772   */\n    tag_206:\n        /* \"#utility.yul\":10785:10865   */\n      tag_207\n        /* \"#utility.yul\":10841:10863   */\n      tag_208\n        /* \"#utility.yul\":10859:10862   */\n      dup6\n        /* \"#utility.yul\":10841:10863   */\n      tag_74\n      jump\t// in\n    tag_208:\n        /* \"#utility.yul\":10831:10839   */\n      dup4\n        /* \"#utility.yul\":10827:10864   */\n      add\n        /* \"#utility.yul\":10814:10825   */\n      dup3\n        /* \"#utility.yul\":10785:10865   */\n      tag_83\n      jump\t// in\n    tag_207:\n        /* \"#utility.yul\":10444:10875   */\n      pop\n      pop\n        /* \"#utility.yul\":10429:10875   */\n    tag_203:\n        /* \"#utility.yul\":10339:10882   */\n      pop\n      pop\n      pop\n      jump\t// out\n        /* \"#utility.yul\":10888:11005   */\n    tag_85:\n        /* \"#utility.yul\":10942:10950   */\n      0x00\n        /* \"#utility.yul\":10992:10997   */\n      dup3\n        /* \"#utility.yul\":10986:10990   */\n      dup3\n        /* \"#utility.yul\":10982:10998   */\n      shr\n        /* \"#utility.yul\":10961:10998   */\n      swap1\n      pop\n        /* \"#utility.yul\":10888:11005   */\n      swap3\n      swap2\n      pop\n      pop\n      jump\t// out\n        /* \"#utility.yul\":11011:11180   */\n    tag_86:\n        /* \"#utility.yul\":11055:11061   */\n      0x00\n        /* \"#utility.yul\":11088:11139   */\n      tag_211\n        /* \"#utility.yul\":11136:11137   */\n      0x00\n        /* \"#utility.yul\":11132:11138   */\n      not\n        /* \"#utility.yul\":11124:11129   */\n      dup5\n        /* \"#utility.yul\":11121:11122   */\n      0x08\n        /* \"#utility.yul\":11117:11130   */\n      mul\n        /* \"#utility.yul\":11088:11139   */\n      tag_85\n      jump\t// in\n    tag_211:\n        /* \"#utility.yul\":11084:11140   */\n      not\n        /* \"#utility.yul\":11169:11173   */\n      dup1\n        /* \"#utility.yul\":11163:11167   */\n      dup4\n        /* \"#utility.yul\":11159:11174   */\n      and\n        /* \"#utility.yul\":11149:11174   */\n      swap2\n      pop\n        /* \"#utility.yul\":11062:11180   */\n      pop\n        /* \"#utility.yul\":11011:11180   */\n      swap3\n      swap2\n      pop\n      pop\n      jump\t// out\n        /* \"#utility.yul\":11185:11480   */\n    tag_87:\n        /* \"#utility.yul\":11261:11265   */\n      0x00\n        /* \"#utility.yul\":11407:11436   */\n      tag_213\n        /* \"#utility.yul\":11432:11435   */\n      dup4\n        /* \"#utility.yul\":11426:11430   */\n      dup4\n        /* \"#utility.yul\":11407:11436   */\n      tag_86\n      jump\t// in\n    tag_213:\n        /* \"#utility.yul\":11399:11436   */\n      swap2\n      pop\n        /* \"#utility.yul\":11469:11472   */\n      dup3\n        /* \"#utility.yul\":11466:11467   */\n      0x02\n        /* \"#utility.yul\":11462:11473   */\n      mul\n        /* \"#utility.yul\":11456:11460   */\n      dup3\n        /* \"#utility.yul\":11453:11474   */\n      or\n        /* \"#utility.yul\":11445:11474   */\n      swap1\n      pop\n        /* \"#utility.yul\":11185:11480   */\n      swap3\n      swap2\n      pop\n      pop\n      jump\t// out\n        /* \"#utility.yul\":11485:12880   */\n    tag_40:\n        /* \"#utility.yul\":11602:11639   */\n      tag_215\n        /* \"#utility.yul\":11635:11638   */\n      dup3\n        /* \"#utility.yul\":11602:11639   */\n      tag_48\n      jump\t// in\n    tag_215:\n        /* \"#utility.yul\":11704:11722   */\n      0xffffffffffffffff\n        /* \"#utility.yul\":11696:11702   */\n      dup2\n        /* \"#utility.yul\":11693:11723   */\n      gt\n        /* \"#utility.yul\":11690:11746   */\n      iszero\n      tag_216\n      jumpi\n        /* \"#utility.yul\":11726:11744   */\n      tag_217\n      tag_59\n      jump\t// in\n    tag_217:\n        /* \"#utility.yul\":11690:11746   */\n    tag_216:\n        /* \"#utility.yul\":11770:11808   */\n      tag_218\n        /* \"#utility.yul\":11802:11806   */\n      dup3\n        /* \"#utility.yul\":11796:11807   */\n      sload\n        /* \"#utility.yul\":11770:11808   */\n      tag_25\n      jump\t// in\n    tag_218:\n        /* \"#utility.yul\":11855:11922   */\n      tag_219\n        /* \"#utility.yul\":11915:11921   */\n      dup3\n        /* \"#utility.yul\":11907:11913   */\n      dup3\n        /* \"#utility.yul\":11901:11905   */\n      dup6\n        /* \"#utility.yul\":11855:11922   */\n      tag_84\n      jump\t// in\n    tag_219:\n        /* \"#utility.yul\":11949:11950   */\n      0x00\n        /* \"#utility.yul\":11973:11977   */\n      0x20\n        /* \"#utility.yul\":11960:11977   */\n      swap1\n      pop\n        /* \"#utility.yul\":12005:12007   */\n      0x1f\n        /* \"#utility.yul\":11997:12003   */\n      dup4\n        /* \"#utility.yul\":11994:12008   */\n      gt\n        /* \"#utility.yul\":12022:12023   */\n      0x01\n        /* \"#utility.yul\":12017:12635   */\n      dup2\n      eq\n      tag_221\n      jumpi\n        /* \"#utility.yul\":12679:12680   */\n      0x00\n        /* \"#utility.yul\":12696:12702   */\n      dup5\n        /* \"#utility.yul\":12693:12770   */\n      iszero\n      tag_222\n      jumpi\n        /* \"#utility.yul\":12745:12754   */\n      dup3\n        /* \"#utility.yul\":12740:12743   */\n      dup8\n        /* \"#utility.yul\":12736:12755   */\n      add\n        /* \"#utility.yul\":12730:12756   */\n      mload\n        /* \"#utility.yul\":12721:12756   */\n      swap1\n      pop\n        /* \"#utility.yul\":12693:12770   */\n    tag_222:\n        /* \"#utility.yul\":12796:12863   */\n      tag_223\n        /* \"#utility.yul\":12856:12862   */\n      dup6\n        /* \"#utility.yul\":12849:12854   */\n      dup3\n        /* \"#utility.yul\":12796:12863   */\n      tag_87\n      jump\t// in\n    tag_223:\n        /* \"#utility.yul\":12790:12794   */\n      dup7\n        /* \"#utility.yul\":12783:12864   */\n      sstore\n        /* \"#utility.yul\":12652:12874   */\n      pop\n        /* \"#utility.yul\":11987:12874   */\n      jump(tag_220)\n        /* \"#utility.yul\":12017:12635   */\n    tag_221:\n        /* \"#utility.yul\":12069:12073   */\n      0x1f\n        /* \"#utility.yul\":12065:12074   */\n      not\n        /* \"#utility.yul\":12057:12063   */\n      dup5\n        /* \"#utility.yul\":12053:12075   */\n      and\n        /* \"#utility.yul\":12103:12140   */\n      tag_224\n        /* \"#utility.yul\":12135:12139   */\n      dup7\n        /* \"#utility.yul\":12103:12140   */\n      tag_73\n      jump\t// in\n    tag_224:\n        /* \"#utility.yul\":12162:12163   */\n      0x00\n        /* \"#utility.yul\":12176:12384   */\n    tag_225:\n        /* \"#utility.yul\":12190:12197   */\n      dup3\n        /* \"#utility.yul\":12187:12188   */\n      dup2\n        /* \"#utility.yul\":12184:12198   */\n      lt\n        /* \"#utility.yul\":12176:12384   */\n      iszero\n      tag_227\n      jumpi\n        /* \"#utility.yul\":12269:12278   */\n      dup5\n        /* \"#utility.yul\":12264:12267   */\n      dup10\n        /* \"#utility.yul\":12260:12279   */\n      add\n        /* \"#utility.yul\":12254:12280   */\n      mload\n        /* \"#utility.yul\":12246:12252   */\n      dup3\n        /* \"#utility.yul\":12239:12281   */\n      sstore\n        /* \"#utility.yul\":12320:12321   */\n      0x01\n        /* \"#utility.yul\":12312:12318   */\n      dup3\n        /* \"#utility.yul\":12308:12322   */\n      add\n        /* \"#utility.yul\":12298:12322   */\n      swap2\n      pop\n        /* \"#utility.yul\":12367:12369   */\n      0x20\n        /* \"#utility.yul\":12356:12365   */\n      dup6\n        /* \"#utility.yul\":12352:12370   */\n      add\n        /* \"#utility.yul\":12339:12370   */\n      swap5\n      pop\n        /* \"#utility.yul\":12213:12217   */\n      0x20\n        /* \"#utility.yul\":12210:12211   */\n      dup2\n        /* \"#utility.yul\":12206:12218   */\n      add\n        /* \"#utility.yul\":12201:12218   */\n      swap1\n      pop\n        /* \"#utility.yul\":12176:12384   */\n      jump(tag_225)\n    tag_227:\n        /* \"#utility.yul\":12412:12418   */\n      dup7\n        /* \"#utility.yul\":12403:12410   */\n      dup4\n        /* \"#utility.yul\":12400:12419   */\n      lt\n        /* \"#utility.yul\":12397:12576   */\n      iszero\n      tag_228\n      jumpi\n        /* \"#utility.yul\":12470:12479   */\n      dup5\n        /* \"#utility.yul\":12465:12468   */\n      dup10\n        /* \"#utility.yul\":12461:12480   */\n      add\n        /* \"#utility.yul\":12455:12481   */\n      mload\n        /* \"#utility.yul\":12513:12561   */\n      tag_229\n        /* \"#utility.yul\":12555:12559   */\n      0x1f\n        /* \"#utility.yul\":12547:12553   */\n      dup10\n        /* \"#utility.yul\":12543:12560   */\n      and\n        /* \"#utility.yul\":12532:12541   */\n      dup3\n        /* \"#utility.yul\":12513:12561   */\n      tag_86\n      jump\t// in\n    tag_229:\n        /* \"#utility.yul\":12505:12511   */\n      dup4\n        /* \"#utility.yul\":12498:12562   */\n      sstore\n        /* \"#utility.yul\":12420:12576   */\n      pop\n        /* \"#utility.yul\":12397:12576   */\n    tag_228:\n        /* \"#utility.yul\":12622:12623   */\n      0x01\n        /* \"#utility.yul\":12618:12619   */\n      0x02\n        /* \"#utility.yul\":12610:12616   */\n      dup9\n        /* \"#utility.yul\":12606:12620   */\n      mul\n        /* \"#utility.yul\":12602:12624   */\n      add\n        /* \"#utility.yul\":12596:12600   */\n      dup9\n        /* \"#utility.yul\":12589:12625   */\n      sstore\n        /* \"#utility.yul\":12024:12635   */\n      pop\n      pop\n      pop\n        /* \"#utility.yul\":11987:12874   */\n    tag_220:\n      pop\n        /* \"#utility.yul\":11577:12880   */\n      pop\n      pop\n      pop\n        /* \"#utility.yul\":11485:12880   */\n      pop\n      pop\n      jump\t// out\n\n    auxdata: 0xa2646970667358221220c2744a996c9f6c90fe3b09d83f46370f293c0915b971578a526b6590171853eb64736f6c634300081e0033\n}\n",
				"bytecode": {
					"linkReferences": {},
					"object": "6080604052348015600e575f5ffd5b50610b8a8061001c5f395ff3fe608060405234801561000f575f5ffd5b506004361061003f575f3560e01c80636f77926b14610043578063a87430ba14610075578063d3951002146100a7575b5f5ffd5b61005d600480360381019061005891906104ff565b6100c3565b60405161006c939291906105cc565b60405180910390f35b61008f600480360381019061008a91906104ff565b6102b3565b60405161009e939291906105cc565b60405180910390f35b6100c160048036038101906100bc919061075e565b61036a565b005b60605f5f5f5f8573ffffffffffffffffffffffffffffffffffffffff1673ffffffffffffffffffffffffffffffffffffffff1681526020019081526020015f206002015f9054906101000a900460ff16610152576040517f08c379a000000000000000000000000000000000000000000000000000000000815260040161014990610802565b60405180910390fd5b5f5f8573ffffffffffffffffffffffffffffffffffffffff1673ffffffffffffffffffffffffffffffffffffffff1681526020019081526020015f205f015f5f8673ffffffffffffffffffffffffffffffffffffffff1673ffffffffffffffffffffffffffffffffffffffff1681526020019081526020015f20600101545f5f8773ffffffffffffffffffffffffffffffffffffffff1673ffffffffffffffffffffffffffffffffffffffff1681526020019081526020015f206002015f9054906101000a900460ff168280546102289061084d565b80601f01602080910402602001604051908101604052809291908181526020018280546102549061084d565b801561029f5780601f106102765761010080835404028352916020019161029f565b820191905f5260205f20905b81548152906001019060200180831161028257829003601f168201915b505050505092509250925092509193909250565b5f602052805f5260405f205f91509050805f0180546102d19061084d565b80601f01602080910402602001604051908101604052809291908181526020018280546102fd9061084d565b80156103485780601f1061031f57610100808354040283529160200191610348565b820191905f5260205f20905b81548152906001019060200180831161032b57829003601f168201915b505050505090806001015490806002015f9054906101000a900460ff16905083565b5f5f3373ffffffffffffffffffffffffffffffffffffffff1673ffffffffffffffffffffffffffffffffffffffff1681526020019081526020015f206002015f9054906101000a900460ff16156103f6576040517f08c379a00000000000000000000000000000000000000000000000000000000081526004016103ed906108c7565b60405180910390fd5b6040518060600160405280838152602001828152602001600115158152505f5f3373ffffffffffffffffffffffffffffffffffffffff1673ffffffffffffffffffffffffffffffffffffffff1681526020019081526020015f205f820151815f0190816104639190610a85565b50602082015181600101556040820151816002015f6101000a81548160ff0219169083151502179055509050505050565b5f604051905090565b5f5ffd5b5f5ffd5b5f73ffffffffffffffffffffffffffffffffffffffff82169050919050565b5f6104ce826104a5565b9050919050565b6104de816104c4565b81146104e8575f5ffd5b50565b5f813590506104f9816104d5565b92915050565b5f602082840312156105145761051361049d565b5b5f610521848285016104eb565b91505092915050565b5f81519050919050565b5f82825260208201905092915050565b8281835e5f83830152505050565b5f601f19601f8301169050919050565b5f61056c8261052a565b6105768185610534565b9350610586818560208601610544565b61058f81610552565b840191505092915050565b5f819050919050565b6105ac8161059a565b82525050565b5f8115159050919050565b6105c6816105b2565b82525050565b5f6060820190508181035f8301526105e48186610562565b90506105f360208301856105a3565b61060060408301846105bd565b949350505050565b5f5ffd5b5f5ffd5b7f4e487b71000000000000000000000000000000000000000000000000000000005f52604160045260245ffd5b61064682610552565b810181811067ffffffffffffffff8211171561066557610664610610565b5b80604052505050565b5f610677610494565b9050610683828261063d565b919050565b5f67ffffffffffffffff8211156106a2576106a1610610565b5b6106ab82610552565b9050602081019050919050565b828183375f83830152505050565b5f6106d86106d384610688565b61066e565b9050828152602081018484840111156106f4576106f361060c565b5b6106ff8482856106b8565b509392505050565b5f82601f83011261071b5761071a610608565b5b813561072b8482602086016106c6565b91505092915050565b61073d8161059a565b8114610747575f5ffd5b50565b5f8135905061075881610734565b92915050565b5f5f604083850312156107745761077361049d565b5b5f83013567ffffffffffffffff811115610791576107906104a1565b5b61079d85828601610707565b92505060206107ae8582860161074a565b9150509250929050565b7f55736572206e6f742072656769737465726564210000000000000000000000005f82015250565b5f6107ec601483610534565b91506107f7826107b8565b602082019050919050565b5f6020820190508181035f830152610819816107e0565b9050919050565b7f4e487b71000000000000000000000000000000000000000000000000000000005f52602260045260245ffd5b5f600282049050600182168061086457607f821691505b60208210810361087757610876610820565b5b50919050565b7f5573657220616c726561647920726567697374657265642100000000000000005f82015250565b5f6108b1601883610534565b91506108bc8261087d565b602082019050919050565b5f6020820190508181035f8301526108de816108a5565b9050919050565b5f819050815f5260205f209050919050565b5f6020601f8301049050919050565b5f82821b905092915050565b5f600883026109417fffffffffffffffffffffffffffffffffffffffffffffffffffffffffffffffff82610906565b61094b8683610906565b95508019841693508086168417925050509392505050565b5f819050919050565b5f61098661098161097c8461059a565b610963565b61059a565b9050919050565b5f819050919050565b61099f8361096c565b6109b36109ab8261098d565b848454610912565b825550505050565b5f5f905090565b6109ca6109bb565b6109d5818484610996565b505050565b5b818110156109f8576109ed5f826109c2565b6001810190506109db565b5050565b601f821115610a3d57610a0e816108e5565b610a17846108f7565b81016020851015610a26578190505b610a3a610a32856108f7565b8301826109da565b50505b505050565b5f82821c905092915050565b5f610a5d5f1984600802610a42565b1980831691505092915050565b5f610a758383610a4e565b9150826002028217905092915050565b610a8e8261052a565b67ffffffffffffffff811115610aa757610aa6610610565b5b610ab1825461084d565b610abc8282856109fc565b5f60209050601f831160018114610aed575f8415610adb578287015190505b610ae58582610a6a565b865550610b4c565b601f198416610afb866108e5565b5f5b82811015610b2257848901518255600182019150602085019450602081019050610afd565b86831015610b3f5784890151610b3b601f891682610a4e565b8355505b6001600288020188555050505b50505050505056fea2646970667358221220c2744a996c9f6c90fe3b09d83f46370f293c0915b971578a526b6590171853eb64736f6c634300081e0033",
					"opcodes": "PUSH1 0x80 PUSH1 0x40 MSTORE CALLVALUE DUP1 ISZERO PUSH1 0xE JUMPI PUSH0 PUSH0 REVERT JUMPDEST POP PUSH2 0xB8A DUP1 PUSH2 0x1C PUSH0 CODECOPY PUSH0 RETURN INVALID PUSH1 0x80 PUSH1 0x40 MSTORE CALLVALUE DUP1 ISZERO PUSH2 0xF JUMPI PUSH0 PUSH0 REVERT JUMPDEST POP PUSH1 0x4 CALLDATASIZE LT PUSH2 0x3F JUMPI PUSH0 CALLDATALOAD PUSH1 0xE0 SHR DUP1 PUSH4 0x6F77926B EQ PUSH2 0x43 JUMPI DUP1 PUSH4 0xA87430BA EQ PUSH2 0x75 JUMPI DUP1 PUSH4 0xD3951002 EQ PUSH2 0xA7 JUMPI JUMPDEST PUSH0 PUSH0 REVERT JUMPDEST PUSH2 0x5D PUSH1 0x4 DUP1 CALLDATASIZE SUB DUP2 ADD SWAP1 PUSH2 0x58 SWAP2 SWAP1 PUSH2 0x4FF JUMP JUMPDEST PUSH2 0xC3 JUMP JUMPDEST PUSH1 0x40 MLOAD PUSH2 0x6C SWAP4 SWAP3 SWAP2 SWAP1 PUSH2 0x5CC JUMP JUMPDEST PUSH1 0x40 MLOAD DUP1 SWAP2 SUB SWAP1 RETURN JUMPDEST PUSH2 0x8F PUSH1 0x4 DUP1 CALLDATASIZE SUB DUP2 ADD SWAP1 PUSH2 0x8A SWAP2 SWAP1 PUSH2 0x4FF JUMP JUMPDEST PUSH2 0x2B3 JUMP JUMPDEST PUSH1 0x40 MLOAD PUSH2 0x9E SWAP4 SWAP3 SWAP2 SWAP1 PUSH2 0x5CC JUMP JUMPDEST PUSH1 0x40 MLOAD DUP1 SWAP2 SUB SWAP1 RETURN JUMPDEST PUSH2 0xC1 PUSH1 0x4 DUP1 CALLDATASIZE SUB DUP2 ADD SWAP1 PUSH2 0xBC SWAP2 SWAP1 PUSH2 0x75E JUMP JUMPDEST PUSH2 0x36A JUMP JUMPDEST STOP JUMPDEST PUSH1 0x60 PUSH0 PUSH0 PUSH0 PUSH0 DUP6 PUSH20 0xFFFFFFFFFFFFFFFFFFFFFFFFFFFFFFFFFFFFFFFF AND PUSH20 0xFFFFFFFFFFFFFFFFFFFFFFFFFFFFFFFFFFFFFFFF AND DUP2 MSTORE PUSH1 0x20 ADD SWAP1 DUP2 MSTORE PUSH1 0x20 ADD PUSH0 KECCAK256 PUSH1 0x2 ADD PUSH0 SWAP1 SLOAD SWAP1 PUSH2 0x100 EXP SWAP1 DIV PUSH1 0xFF AND PUSH2 0x152 JUMPI PUSH1 0x40 MLOAD PUSH32 0x8C379A000000000000000000000000000000000000000000000000000000000 DUP2 MSTORE PUSH1 0x4 ADD PUSH2 0x149 SWAP1 PUSH2 0x802 JUMP JUMPDEST PUSH1 0x40 MLOAD DUP1 SWAP2 SUB SWAP1 REVERT JUMPDEST PUSH0 PUSH0 DUP6 PUSH20 0xFFFFFFFFFFFFFFFFFFFFFFFFFFFFFFFFFFFFFFFF AND PUSH20 0xFFFFFFFFFFFFFFFFFFFFFFFFFFFFFFFFFFFFFFFF AND DUP2 MSTORE PUSH1 0x20 ADD SWAP1 DUP2 MSTORE PUSH1 0x20 ADD PUSH0 KECCAK256 PUSH0 ADD PUSH0 PUSH0 DUP7 PUSH20 0xFFFFFFFFFFFFFFFFFFFFFFFFFFFFFFFFFFFFFFFF AND PUSH20 0xFFFFFFFFFFFFFFFFFFFFFFFFFFFFFFFFFFFFFFFF AND DUP2 MSTORE PUSH1 0x20 ADD SWAP1 DUP2 MSTORE PUSH1 0x20 ADD PUSH0 KECCAK256 PUSH1 0x1 ADD SLOAD PUSH0 PUSH0 DUP8 PUSH20 0xFFFFFFFFFFFFFFFFFFFFFFFFFFFFFFFFFFFFFFFF AND PUSH20 0xFFFFFFFFFFFFFFFFFFFFFFFFFFFFFFFFFFFFFFFF AND DUP2 MSTORE PUSH1 0x20 ADD SWAP1 DUP2 MSTORE PUSH1 0x20 ADD PUSH0 KECCAK256 PUSH1 0x2 ADD PUSH0 SWAP1 SLOAD SWAP1 PUSH2 0x100 EXP SWAP1 DIV PUSH1 0xFF AND DUP3 DUP1 SLOAD PUSH2 0x228 SWAP1 PUSH2 0x84D JUMP JUMPDEST DUP1 PUSH1 0x1F ADD PUSH1 0x20 DUP1 SWAP2 DIV MUL PUSH1 0x20 ADD PUSH1 0x40 MLOAD SWAP1 DUP2 ADD PUSH1 0x40 MSTORE DUP1 SWAP3 SWAP2 SWAP1 DUP2 DUP2 MSTORE PUSH1 0x20 ADD DUP3 DUP1 SLOAD PUSH2 0x254 SWAP1 PUSH2 0x84D JUMP JUMPDEST DUP1 ISZERO PUSH2 0x29F JUMPI DUP1 PUSH1 0x1F LT PUSH2 0x276 JUMPI PUSH2 0x100 DUP1 DUP4 SLOAD DIV MUL DUP4 MSTORE SWAP2 PUSH1 0x20 ADD SWAP2 PUSH2 0x29F JUMP JUMPDEST DUP3 ADD SWAP2 SWAP1 PUSH0 MSTORE PUSH1 0x20 PUSH0 KECCAK256 SWAP1 JUMPDEST DUP2 SLOAD DUP2 MSTORE SWAP1 PUSH1 0x1 ADD SWAP1 PUSH1 0x20 ADD DUP1 DUP4 GT PUSH2 0x282 JUMPI DUP3 SWAP1 SUB PUSH1 0x1F AND DUP3 ADD SWAP2 JUMPDEST POP POP POP POP POP SWAP3 POP SWAP3 POP SWAP3 POP SWAP3 POP SWAP2 SWAP4 SWAP1 SWAP3 POP JUMP JUMPDEST PUSH0 PUSH1 0x20 MSTORE DUP1 PUSH0 MSTORE PUSH1 0x40 PUSH0 KECCAK256 PUSH0 SWAP2 POP SWAP1 POP DUP1 PUSH0 ADD DUP1 SLOAD PUSH2 0x2D1 SWAP1 PUSH2 0x84D JUMP JUMPDEST DUP1 PUSH1 0x1F ADD PUSH1 0x20 DUP1 SWAP2 DIV MUL PUSH1 0x20 ADD PUSH1 0x40 MLOAD SWAP1 DUP2 ADD PUSH1 0x40 MSTORE DUP1 SWAP3 SWAP2 SWAP1 DUP2 DUP2 MSTORE PUSH1 0x20 ADD DUP3 DUP1 SLOAD PUSH2 0x2FD SWAP1 PUSH2 0x84D JUMP JUMPDEST DUP1 ISZERO PUSH2 0x348 JUMPI DUP1 PUSH1 0x1F LT PUSH2 0x31F JUMPI PUSH2 0x100 DUP1 DUP4 SLOAD DIV MUL DUP4 MSTORE SWAP2 PUSH1 0x20 ADD SWAP2 PUSH2 0x348 JUMP JUMPDEST DUP3 ADD SWAP2 SWAP1 PUSH0 MSTORE PUSH1 0x20 PUSH0 KECCAK256 SWAP1 JUMPDEST DUP2 SLOAD DUP2 MSTORE SWAP1 PUSH1 0x1 ADD SWAP1 PUSH1 0x20 ADD DUP1 DUP4 GT PUSH2 0x32B JUMPI DUP3 SWAP1 SUB PUSH1 0x1F AND DUP3 ADD SWAP2 JUMPDEST POP POP POP POP POP SWAP1 DUP1 PUSH1 0x1 ADD SLOAD SWAP1 DUP1 PUSH1 0x2 ADD PUSH0 SWAP1 SLOAD SWAP1 PUSH2 0x100 EXP SWAP1 DIV PUSH1 0xFF AND SWAP1 POP DUP4 JUMP JUMPDEST PUSH0 PUSH0 CALLER PUSH20 0xFFFFFFFFFFFFFFFFFFFFFFFFFFFFFFFFFFFFFFFF AND PUSH20 0xFFFFFFFFFFFFFFFFFFFFFFFFFFFFFFFFFFFFFFFF AND DUP2 MSTORE PUSH1 0x20 ADD SWAP1 DUP2 MSTORE PUSH1 0x20 ADD PUSH0 KECCAK256 PUSH1 0x2 ADD PUSH0 SWAP1 SLOAD SWAP1 PUSH2 0x100 EXP SWAP1 DIV PUSH1 0xFF AND ISZERO PUSH2 0x3F6 JUMPI PUSH1 0x40 MLOAD PUSH32 0x8C379A000000000000000000000000000000000000000000000000000000000 DUP2 MSTORE PUSH1 0x4 ADD PUSH2 0x3ED SWAP1 PUSH2 0x8C7 JUMP JUMPDEST PUSH1 0x40 MLOAD DUP1 SWAP2 SUB SWAP1 REVERT JUMPDEST PUSH1 0x40 MLOAD DUP1 PUSH1 0x60 ADD PUSH1 0x40 MSTORE DUP1 DUP4 DUP2 MSTORE PUSH1 0x20 ADD DUP3 DUP2 MSTORE PUSH1 0x20 ADD PUSH1 0x1 ISZERO ISZERO DUP2 MSTORE POP PUSH0 PUSH0 CALLER PUSH20 0xFFFFFFFFFFFFFFFFFFFFFFFFFFFFFFFFFFFFFFFF AND PUSH20 0xFFFFFFFFFFFFFFFFFFFFFFFFFFFFFFFFFFFFFFFF AND DUP2 MSTORE PUSH1 0x20 ADD SWAP1 DUP2 MSTORE PUSH1 0x20 ADD PUSH0 KECCAK256 PUSH0 DUP3 ADD MLOAD DUP2 PUSH0 ADD SWAP1 DUP2 PUSH2 0x463 SWAP2 SWAP1 PUSH2 0xA85 JUMP JUMPDEST POP PUSH1 0x20 DUP3 ADD MLOAD DUP2 PUSH1 0x1 ADD SSTORE PUSH1 0x40 DUP3 ADD MLOAD DUP2 PUSH1 0x2 ADD PUSH0 PUSH2 0x100 EXP DUP2 SLOAD DUP2 PUSH1 0xFF MUL NOT AND SWAP1 DUP4 ISZERO ISZERO MUL OR SWAP1 SSTORE POP SWAP1 POP POP POP POP JUMP JUMPDEST PUSH0 PUSH1 0x40 MLOAD SWAP1 POP SWAP1 JUMP JUMPDEST PUSH0 PUSH0 REVERT JUMPDEST PUSH0 PUSH0 REVERT JUMPDEST PUSH0 PUSH20 0xFFFFFFFFFFFFFFFFFFFFFFFFFFFFFFFFFFFFFFFF DUP3 AND SWAP1 POP SWAP2 SWAP1 POP JUMP JUMPDEST PUSH0 PUSH2 0x4CE DUP3 PUSH2 0x4A5 JUMP JUMPDEST SWAP1 POP SWAP2 SWAP1 POP JUMP JUMPDEST PUSH2 0x4DE DUP2 PUSH2 0x4C4 JUMP JUMPDEST DUP2 EQ PUSH2 0x4E8 JUMPI PUSH0 PUSH0 REVERT JUMPDEST POP JUMP JUMPDEST PUSH0 DUP2 CALLDATALOAD SWAP1 POP PUSH2 0x4F9 DUP2 PUSH2 0x4D5 JUMP JUMPDEST SWAP3 SWAP2 POP POP JUMP JUMPDEST PUSH0 PUSH1 0x20 DUP3 DUP5 SUB SLT ISZERO PUSH2 0x514 JUMPI PUSH2 0x513 PUSH2 0x49D JUMP JUMPDEST JUMPDEST PUSH0 PUSH2 0x521 DUP5 DUP3 DUP6 ADD PUSH2 0x4EB JUMP JUMPDEST SWAP2 POP POP SWAP3 SWAP2 POP POP JUMP JUMPDEST PUSH0 DUP2 MLOAD SWAP1 POP SWAP2 SWAP1 POP JUMP JUMPDEST PUSH0 DUP3 DUP3 MSTORE PUSH1 0x20 DUP3 ADD SWAP1 POP SWAP3 SWAP2 POP POP JUMP JUMPDEST DUP3 DUP2 DUP4 MCOPY PUSH0 DUP4 DUP4 ADD MSTORE POP POP POP JUMP JUMPDEST PUSH0 PUSH1 0x1F NOT PUSH1 0x1F DUP4 ADD AND SWAP1 POP SWAP2 SWAP1 POP JUMP JUMPDEST PUSH0 PUSH2 0x56C DUP3 PUSH2 0x52A JUMP JUMPDEST PUSH2 0x576 DUP2 DUP6 PUSH2 0x534 JUMP JUMPDEST SWAP4 POP PUSH2 0x586 DUP2 DUP6 PUSH1 0x20 DUP7 ADD PUSH2 0x544 JUMP JUMPDEST PUSH2 0x58F DUP2 PUSH2 0x552 JUMP JUMPDEST DUP5 ADD SWAP2 POP POP SWAP3 SWAP2 POP POP JUMP JUMPDEST PUSH0 DUP2 SWAP1 POP SWAP2 SWAP1 POP JUMP JUMPDEST PUSH2 0x5AC DUP2 PUSH2 0x59A JUMP JUMPDEST DUP3 MSTORE POP POP JUMP JUMPDEST PUSH0 DUP2 ISZERO ISZERO SWAP1 POP SWAP2 SWAP1 POP JUMP JUMPDEST PUSH2 0x5C6 DUP2 PUSH2 0x5B2 JUMP JUMPDEST DUP3 MSTORE POP POP JUMP JUMPDEST PUSH0 PUSH1 0x60 DUP3 ADD SWAP1 POP DUP2 DUP2 SUB PUSH0 DUP4 ADD MSTORE PUSH2 0x5E4 DUP2 DUP7 PUSH2 0x562 JUMP JUMPDEST SWAP1 POP PUSH2 0x5F3 PUSH1 0x20 DUP4 ADD DUP6 PUSH2 0x5A3 JUMP JUMPDEST PUSH2 0x600 PUSH1 0x40 DUP4 ADD DUP5 PUSH2 0x5BD JUMP JUMPDEST SWAP5 SWAP4 POP POP POP POP JUMP JUMPDEST PUSH0 PUSH0 REVERT JUMPDEST PUSH0 PUSH0 REVERT JUMPDEST PUSH32 0x4E487B7100000000000000000000000000000000000000000000000000000000 PUSH0 MSTORE PUSH1 0x41 PUSH1 0x4 MSTORE PUSH1 0x24 PUSH0 REVERT JUMPDEST PUSH2 0x646 DUP3 PUSH2 0x552 JUMP JUMPDEST DUP2 ADD DUP2 DUP2 LT PUSH8 0xFFFFFFFFFFFFFFFF DUP3 GT OR ISZERO PUSH2 0x665 JUMPI PUSH2 0x664 PUSH2 0x610 JUMP JUMPDEST JUMPDEST DUP1 PUSH1 0x40 MSTORE POP POP POP JUMP JUMPDEST PUSH0 PUSH2 0x677 PUSH2 0x494 JUMP JUMPDEST SWAP1 POP PUSH2 0x683 DUP3 DUP3 PUSH2 0x63D JUMP JUMPDEST SWAP2 SWAP1 POP JUMP JUMPDEST PUSH0 PUSH8 0xFFFFFFFFFFFFFFFF DUP3 GT ISZERO PUSH2 0x6A2 JUMPI PUSH2 0x6A1 PUSH2 0x610 JUMP JUMPDEST JUMPDEST PUSH2 0x6AB DUP3 PUSH2 0x552 JUMP JUMPDEST SWAP1 POP PUSH1 0x20 DUP2 ADD SWAP1 POP SWAP2 SWAP1 POP JUMP JUMPDEST DUP3 DUP2 DUP4 CALLDATACOPY PUSH0 DUP4 DUP4 ADD MSTORE POP POP POP JUMP JUMPDEST PUSH0 PUSH2 0x6D8 PUSH2 0x6D3 DUP5 PUSH2 0x688 JUMP JUMPDEST PUSH2 0x66E JUMP JUMPDEST SWAP1 POP DUP3 DUP2 MSTORE PUSH1 0x20 DUP2 ADD DUP5 DUP5 DUP5 ADD GT ISZERO PUSH2 0x6F4 JUMPI PUSH2 0x6F3 PUSH2 0x60C JUMP JUMPDEST JUMPDEST PUSH2 0x6FF DUP5 DUP3 DUP6 PUSH2 0x6B8 JUMP JUMPDEST POP SWAP4 SWAP3 POP POP POP JUMP JUMPDEST PUSH0 DUP3 PUSH1 0x1F DUP4 ADD SLT PUSH2 0x71B JUMPI PUSH2 0x71A PUSH2 0x608 JUMP JUMPDEST JUMPDEST DUP2 CALLDATALOAD PUSH2 0x72B DUP5 DUP3 PUSH1 0x20 DUP7 ADD PUSH2 0x6C6 JUMP JUMPDEST SWAP2 POP POP SWAP3 SWAP2 POP POP JUMP JUMPDEST PUSH2 0x73D DUP2 PUSH2 0x59A JUMP JUMPDEST DUP2 EQ PUSH2 0x747 JUMPI PUSH0 PUSH0 REVERT JUMPDEST POP JUMP JUMPDEST PUSH0 DUP2 CALLDATALOAD SWAP1 POP PUSH2 0x758 DUP2 PUSH2 0x734 JUMP JUMPDEST SWAP3 SWAP2 POP POP JUMP JUMPDEST PUSH0 PUSH0 PUSH1 0x40 DUP4 DUP6 SUB SLT ISZERO PUSH2 0x774 JUMPI PUSH2 0x773 PUSH2 0x49D JUMP JUMPDEST JUMPDEST PUSH0 DUP4 ADD CALLDATALOAD PUSH8 0xFFFFFFFFFFFFFFFF DUP2 GT ISZERO PUSH2 0x791 JUMPI PUSH2 0x790 PUSH2 0x4A1 JUMP JUMPDEST JUMPDEST PUSH2 0x79D DUP6 DUP3 DUP7 ADD PUSH2 0x707 JUMP JUMPDEST SWAP3 POP POP PUSH1 0x20 PUSH2 0x7AE DUP6 DUP3 DUP7 ADD PUSH2 0x74A JUMP JUMPDEST SWAP2 POP POP SWAP3 POP SWAP3 SWAP1 POP JUMP JUMPDEST PUSH32 0x55736572206E6F74207265676973746572656421000000000000000000000000 PUSH0 DUP3 ADD MSTORE POP JUMP JUMPDEST PUSH0 PUSH2 0x7EC PUSH1 0x14 DUP4 PUSH2 0x534 JUMP JUMPDEST SWAP2 POP PUSH2 0x7F7 DUP3 PUSH2 0x7B8 JUMP JUMPDEST PUSH1 0x20 DUP3 ADD SWAP1 POP SWAP2 SWAP1 POP JUMP JUMPDEST PUSH0 PUSH1 0x20 DUP3 ADD SWAP1 POP DUP2 DUP2 SUB PUSH0 DUP4 ADD MSTORE PUSH2 0x819 DUP2 PUSH2 0x7E0 JUMP JUMPDEST SWAP1 POP SWAP2 SWAP1 POP JUMP JUMPDEST PUSH32 0x4E487B7100000000000000000000000000000000000000000000000000000000 PUSH0 MSTORE PUSH1 0x22 PUSH1 0x4 MSTORE PUSH1 0x24 PUSH0 REVERT JUMPDEST PUSH0 PUSH1 0x2 DUP3 DIV SWAP1 POP PUSH1 0x1 DUP3 AND DUP1 PUSH2 0x864 JUMPI PUSH1 0x7F DUP3 AND SWAP2 POP JUMPDEST PUSH1 0x20 DUP3 LT DUP2 SUB PUSH2 0x877 JUMPI PUSH2 0x876 PUSH2 0x820 JUMP JUMPDEST JUMPDEST POP SWAP2 SWAP1 POP JUMP JUMPDEST PUSH32 0x5573657220616C72656164792072656769737465726564210000000000000000 PUSH0 DUP3 ADD MSTORE POP JUMP JUMPDEST PUSH0 PUSH2 0x8B1 PUSH1 0x18 DUP4 PUSH2 0x534 JUMP JUMPDEST SWAP2 POP PUSH2 0x8BC DUP3 PUSH2 0x87D JUMP JUMPDEST PUSH1 0x20 DUP3 ADD SWAP1 POP SWAP2 SWAP1 POP JUMP JUMPDEST PUSH0 PUSH1 0x20 DUP3 ADD SWAP1 POP DUP2 DUP2 SUB PUSH0 DUP4 ADD MSTORE PUSH2 0x8DE DUP2 PUSH2 0x8A5 JUMP JUMPDEST SWAP1 POP SWAP2 SWAP1 POP JUMP JUMPDEST PUSH0 DUP2 SWAP1 POP DUP2 PUSH0 MSTORE PUSH1 0x20 PUSH0 KECCAK256 SWAP1 POP SWAP2 SWAP1 POP JUMP JUMPDEST PUSH0 PUSH1 0x20 PUSH1 0x1F DUP4 ADD DIV SWAP1 POP SWAP2 SWAP1 POP JUMP JUMPDEST PUSH0 DUP3 DUP3 SHL SWAP1 POP SWAP3 SWAP2 POP POP JUMP JUMPDEST PUSH0 PUSH1 0x8 DUP4 MUL PUSH2 0x941 PUSH32 0xFFFFFFFFFFFFFFFFFFFFFFFFFFFFFFFFFFFFFFFFFFFFFFFFFFFFFFFFFFFFFFFF DUP3 PUSH2 0x906 JUMP JUMPDEST PUSH2 0x94B DUP7 DUP4 PUSH2 0x906 JUMP JUMPDEST SWAP6 POP DUP1 NOT DUP5 AND SWAP4 POP DUP1 DUP7 AND DUP5 OR SWAP3 POP POP POP SWAP4 SWAP3 POP POP POP JUMP JUMPDEST PUSH0 DUP2 SWAP1 POP SWAP2 SWAP1 POP JUMP JUMPDEST PUSH0 PUSH2 0x986 PUSH2 0x981 PUSH2 0x97C DUP5 PUSH2 0x59A JUMP JUMPDEST PUSH2 0x963 JUMP JUMPDEST PUSH2 0x59A JUMP JUMPDEST SWAP1 POP SWAP2 SWAP1 POP JUMP JUMPDEST PUSH0 DUP2 SWAP1 POP SWAP2 SWAP1 POP JUMP JUMPDEST PUSH2 0x99F DUP4 PUSH2 0x96C JUMP JUMPDEST PUSH2 0x9B3 PUSH2 0x9AB DUP3 PUSH2 0x98D JUMP JUMPDEST DUP5 DUP5 SLOAD PUSH2 0x912 JUMP JUMPDEST DUP3 SSTORE POP POP POP POP JUMP JUMPDEST PUSH0 PUSH0 SWAP1 POP SWAP1 JUMP JUMPDEST PUSH2 0x9CA PUSH2 0x9BB JUMP JUMPDEST PUSH2 0x9D5 DUP2 DUP5 DUP5 PUSH2 0x996 JUMP JUMPDEST POP POP POP JUMP JUMPDEST JUMPDEST DUP2 DUP2 LT ISZERO PUSH2 0x9F8 JUMPI PUSH2 0x9ED PUSH0 DUP3 PUSH2 0x9C2 JUMP JUMPDEST PUSH1 0x1 DUP2 ADD SWAP1 POP PUSH2 0x9DB JUMP JUMPDEST POP POP JUMP JUMPDEST PUSH1 0x1F DUP3 GT ISZERO PUSH2 0xA3D JUMPI PUSH2 0xA0E DUP2 PUSH2 0x8E5 JUMP JUMPDEST PUSH2 0xA17 DUP5 PUSH2 0x8F7 JUMP JUMPDEST DUP2 ADD PUSH1 0x20 DUP6 LT ISZERO PUSH2 0xA26 JUMPI DUP2 SWAP1 POP JUMPDEST PUSH2 0xA3A PUSH2 0xA32 DUP6 PUSH2 0x8F7 JUMP JUMPDEST DUP4 ADD DUP3 PUSH2 0x9DA JUMP JUMPDEST POP POP JUMPDEST POP POP POP JUMP JUMPDEST PUSH0 DUP3 DUP3 SHR SWAP1 POP SWAP3 SWAP2 POP POP JUMP JUMPDEST PUSH0 PUSH2 0xA5D PUSH0 NOT DUP5 PUSH1 0x8 MUL PUSH2 0xA42 JUMP JUMPDEST NOT DUP1 DUP4 AND SWAP2 POP POP SWAP3 SWAP2 POP POP JUMP JUMPDEST PUSH0 PUSH2 0xA75 DUP4 DUP4 PUSH2 0xA4E JUMP JUMPDEST SWAP2 POP DUP3 PUSH1 0x2 MUL DUP3 OR SWAP1 POP SWAP3 SWAP2 POP POP JUMP JUMPDEST PUSH2 0xA8E DUP3 PUSH2 0x52A JUMP JUMPDEST PUSH8 0xFFFFFFFFFFFFFFFF DUP2 GT ISZERO PUSH2 0xAA7 JUMPI PUSH2 0xAA6 PUSH2 0x610 JUMP JUMPDEST JUMPDEST PUSH2 0xAB1 DUP3 SLOAD PUSH2 0x84D JUMP JUMPDEST PUSH2 0xABC DUP3 DUP3 DUP6 PUSH2 0x9FC JUMP JUMPDEST PUSH0 PUSH1 0x20 SWAP1 POP PUSH1 0x1F DUP4 GT PUSH1 0x1 DUP2 EQ PUSH2 0xAED JUMPI PUSH0 DUP5 ISZERO PUSH2 0xADB JUMPI DUP3 DUP8 ADD MLOAD SWAP1 POP JUMPDEST PUSH2 0xAE5 DUP6 DUP3 PUSH2 0xA6A JUMP JUMPDEST DUP7 SSTORE POP PUSH2 0xB4C JUMP JUMPDEST PUSH1 0x1F NOT DUP5 AND PUSH2 0xAFB DUP7 PUSH2 0x8E5 JUMP JUMPDEST PUSH0 JUMPDEST DUP3 DUP2 LT ISZERO PUSH2 0xB22 JUMPI DUP5 DUP10 ADD MLOAD DUP3 SSTORE PUSH1 0x1 DUP3 ADD SWAP2 POP PUSH1 0x20 DUP6 ADD SWAP5 POP PUSH1 0x20 DUP2 ADD SWAP1 POP PUSH2 0xAFD JUMP JUMPDEST DUP7 DUP4 LT ISZERO PUSH2 0xB3F JUMPI DUP5 DUP10 ADD MLOAD PUSH2 0xB3B PUSH1 0x1F DUP10 AND DUP3 PUSH2 0xA4E JUMP JUMPDEST DUP4 SSTORE POP JUMPDEST PUSH1 0x1 PUSH1 0x2 DUP9 MUL ADD DUP9 SSTORE POP POP POP JUMPDEST POP POP POP POP POP POP JUMP INVALID LOG2 PUSH5 0x6970667358 0x22 SLT KECCAK256 0xC2 PUSH21 0x4A996C9F6C90FE3B09D83F46370F293C0915B97157 DUP11 MSTORE PUSH12 0x6590171853EB64736F6C6343 STOP ADDMOD 0x1E STOP CALLER "
				},
				"gasEstimates": {
					"creation": {
						"codeDepositCost": "590800",
						"executionCost": "623",
						"totalCost": "591423"
					},
					"external": {
						"getUser(address)": "infinite",
						"registerUser(string,uint256)": "infinite",
						"users(address)": "infinite"
					}
				},
				"methodIdentifiers": {
					"getUser(address)": "6f77926b",
					"registerUser(string,uint256)": "d3951002",
					"users(address)": "a87430ba"
				}
			},
			"storageLayout": {
				"storage": [
					{
						"astId": 100,
						"contract": "07_struct.sol:UserRegistry",
						"label": "users",
						"offset": 0,
						"slot": "0",
						"type": "t_mapping(t_address,t_struct(User)95_storage)"
					}
				],
				"types": {
					"t_address": {
						"encoding": "inplace",
						"label": "address",
						"numberOfBytes": "20"
					},
					"t_bool": {
						"encoding": "inplace",
						"label": "bool",
						"numberOfBytes": "1"
					},
					"t_mapping(t_address,t_struct(User)95_storage)": {
						"encoding": "mapping",
						"key": "t_address",
						"label": "mapping(address => struct UserRegistry.User)",
						"numberOfBytes": "32",
						"value": "t_struct(User)95_storage"
					},
					"t_string_storage": {
						"encoding": "bytes",
						"label": "string",
						"numberOfBytes": "32"
					},
					"t_struct(User)95_storage": {
						"encoding": "inplace",
						"label": "struct UserRegistry.User",
						"members": [
							{
								"astId": 90,
								"contract": "07_struct.sol:UserRegistry",
								"label": "name",
								"offset": 0,
								"slot": "0",
								"type": "t_string_storage"
							},
							{
								"astId": 92,
								"contract": "07_struct.sol:UserRegistry",
								"label": "age",
								"offset": 0,
								"slot": "1",
								"type": "t_uint256"
							},
							{
								"astId": 94,
								"contract": "07_struct.sol:UserRegistry",
								"label": "isRegistered",
								"offset": 0,
								"slot": "2",
								"type": "t_bool"
							}
						],
						"numberOfBytes": "96"
					},
					"t_uint256": {
						"encoding": "inplace",
						"label": "uint256",
						"numberOfBytes": "32"
					}
				}
			},
			"userdoc": {
				"kind": "user",
				"methods": {},
				"version": 1
			}
		}
	}
}