{
	"05_loop.sol": {
		"loop": {
			"abi": [
				{
					"inputs": [],
					"name": "forLoop",
					"outputs": [
						{
							"internalType": "uint256",
							"name": "",
							"type": "uint256"
						}
					],
					"stateMutability": "pure",
					"type": "function"
				},
				{
					"inputs": [],
					"name": "forLoop1",
					"outputs": [
						{
							"internalType": "uint256",
							"name": "",
							"type": "uint256"
						}
					],
					"stateMutability": "pure",
					"type": "function"
				}
			],
			"devdoc": {
				"kind": "dev",
				"methods": {},
				"version": 1
			},
			"evm": {
				"assembly": "    /* \"05_loop.sol\":57:451  contract loop {... */\n  mstore(0x40, 0x80)\n  callvalue\n  dup1\n  iszero\n  tag_1\n  jumpi\n  revert(0x00, 0x00)\ntag_1:\n  pop\n  dataSize(sub_0)\n  dup1\n  dataOffset(sub_0)\n  0x00\n  codecopy\n  0x00\n  return\nstop\n\nsub_0: assembly {\n        /* \"05_loop.sol\":57:451  contract loop {... */\n      mstore(0x40, 0x80)\n      callvalue\n      dup1\n      iszero\n      tag_1\n      jumpi\n      revert(0x00, 0x00)\n    tag_1:\n      pop\n      jumpi(tag_2, lt(calldatasize, 0x04))\n      shr(0xe0, calldataload(0x00))\n      dup1\n      0x8fde767d\n      eq\n      tag_3\n      jumpi\n      dup1\n      0xfc0e6008\n      eq\n      tag_4\n      jumpi\n    tag_2:\n      revert(0x00, 0x00)\n        /* \"05_loop.sol\":228:449  function forLoop1() public pure returns(uint) {... */\n    tag_3:\n      tag_5\n      tag_6\n      jump\t// in\n    tag_5:\n      mload(0x40)\n      tag_7\n      swap2\n      swap1\n      tag_8\n      jump\t// in\n    tag_7:\n      mload(0x40)\n      dup1\n      swap2\n      sub\n      swap1\n      return\n        /* \"05_loop.sol\":77:222  function forLoop() public pure returns(uint) {... */\n    tag_4:\n      tag_9\n      tag_10\n      jump\t// in\n    tag_9:\n      mload(0x40)\n      tag_11\n      swap2\n      swap1\n      tag_8\n      jump\t// in\n    tag_11:\n      mload(0x40)\n      dup1\n      swap2\n      sub\n      swap1\n      return\n        /* \"05_loop.sol\":228:449  function forLoop1() public pure returns(uint) {... */\n    tag_6:\n        /* \"05_loop.sol\":268:272  uint */\n      0x00\n        /* \"05_loop.sol\":284:292  uint sum */\n      0x00\n        /* \"05_loop.sol\":295:296  0 */\n      0x00\n        /* \"05_loop.sol\":284:296  uint sum = 0 */\n      swap1\n      pop\n        /* \"05_loop.sol\":306:312  uint i */\n      0x00\n        /* \"05_loop.sol\":315:316  1 */\n      0x01\n        /* \"05_loop.sol\":306:316  uint i = 1 */\n      swap1\n      pop\n        /* \"05_loop.sol\":326:417  for ( ; ; ) {... */\n    tag_13:\n        /* \"05_loop.sol\":360:361  5 */\n      0x05\n        /* \"05_loop.sol\":356:357  i */\n      dup2\n        /* \"05_loop.sol\":356:361  i > 5 */\n      gt\n        /* \"05_loop.sol\":363:368  break */\n      tag_14\n        /* \"05_loop.sol\":352:368  if (i > 5) break */\n      jumpi\n        /* \"05_loop.sol\":388:389  i */\n      dup1\n        /* \"05_loop.sol\":382:389  sum +=i */\n      dup3\n      tag_17\n      swap2\n      swap1\n      tag_18\n      jump\t// in\n    tag_17:\n      swap2\n      pop\n        /* \"05_loop.sol\":403:406  i++ */\n      dup1\n      dup1\n      tag_19\n      swap1\n      tag_20\n      jump\t// in\n    tag_19:\n      swap2\n      pop\n      pop\n        /* \"05_loop.sol\":326:417  for ( ; ; ) {... */\n      jump(tag_13)\n    tag_14:\n        /* \"05_loop.sol\":433:436  sum */\n      dup2\n        /* \"05_loop.sol\":426:436  return sum */\n      swap3\n      pop\n      pop\n      pop\n        /* \"05_loop.sol\":228:449  function forLoop1() public pure returns(uint) {... */\n      swap1\n      jump\t// out\n        /* \"05_loop.sol\":77:222  function forLoop() public pure returns(uint) {... */\n    tag_10:\n        /* \"05_loop.sol\":116:120  uint */\n      0x00\n        /* \"05_loop.sol\":132:140  uint sum */\n      0x00\n        /* \"05_loop.sol\":143:144  0 */\n      0x00\n        /* \"05_loop.sol\":132:144  uint sum = 0 */\n      swap1\n      pop\n        /* \"05_loop.sol\":159:165  uint i */\n      0x00\n        /* \"05_loop.sol\":168:169  1 */\n      0x01\n        /* \"05_loop.sol\":159:169  uint i = 1 */\n      swap1\n      pop\n        /* \"05_loop.sol\":154:189  for (uint i = 1; i< 6; i++) sum +=i */\n    tag_22:\n        /* \"05_loop.sol\":174:175  6 */\n      0x06\n        /* \"05_loop.sol\":171:172  i */\n      dup2\n        /* \"05_loop.sol\":171:175  i< 6 */\n      lt\n        /* \"05_loop.sol\":154:189  for (uint i = 1; i< 6; i++) sum +=i */\n      iszero\n      tag_23\n      jumpi\n        /* \"05_loop.sol\":188:189  i */\n      dup1\n        /* \"05_loop.sol\":182:189  sum +=i */\n      dup3\n      tag_25\n      swap2\n      swap1\n      tag_18\n      jump\t// in\n    tag_25:\n      swap2\n      pop\n        /* \"05_loop.sol\":177:180  i++ */\n      dup1\n      dup1\n      0x01\n      add\n      swap2\n      pop\n      pop\n        /* \"05_loop.sol\":154:189  for (uint i = 1; i< 6; i++) sum +=i */\n      jump(tag_22)\n    tag_23:\n      pop\n        /* \"05_loop.sol\":206:209  sum */\n      dup1\n        /* \"05_loop.sol\":199:209  return sum */\n      swap2\n      pop\n      pop\n        /* \"05_loop.sol\":77:222  function forLoop() public pure returns(uint) {... */\n      swap1\n      jump\t// out\n        /* \"#utility.yul\":7:84   */\n    tag_26:\n        /* \"#utility.yul\":44:51   */\n      0x00\n        /* \"#utility.yul\":73:78   */\n      dup2\n        /* \"#utility.yul\":62:78   */\n      swap1\n      pop\n        /* \"#utility.yul\":7:84   */\n      swap2\n      swap1\n      pop\n      jump\t// out\n        /* \"#utility.yul\":90:208   */\n    tag_27:\n        /* \"#utility.yul\":177:201   */\n      tag_32\n        /* \"#utility.yul\":195:200   */\n      dup2\n        /* \"#utility.yul\":177:201   */\n      tag_26\n      jump\t// in\n    tag_32:\n        /* \"#utility.yul\":172:175   */\n      dup3\n        /* \"#utility.yul\":165:202   */\n      mstore\n        /* \"#utility.yul\":90:208   */\n      pop\n      pop\n      jump\t// out\n        /* \"#utility.yul\":214:436   */\n    tag_8:\n        /* \"#utility.yul\":307:311   */\n      0x00\n        /* \"#utility.yul\":345:347   */\n      0x20\n        /* \"#utility.yul\":334:343   */\n      dup3\n        /* \"#utility.yul\":330:348   */\n      add\n        /* \"#utility.yul\":322:348   */\n      swap1\n      pop\n        /* \"#utility.yul\":358:429   */\n      tag_34\n        /* \"#utility.yul\":426:427   */\n      0x00\n        /* \"#utility.yul\":415:424   */\n      dup4\n        /* \"#utility.yul\":411:428   */\n      add\n        /* \"#utility.yul\":402:408   */\n      dup5\n        /* \"#utility.yul\":358:429   */\n      tag_27\n      jump\t// in\n    tag_34:\n        /* \"#utility.yul\":214:436   */\n      swap3\n      swap2\n      pop\n      pop\n      jump\t// out\n        /* \"#utility.yul\":442:622   */\n    tag_28:\n        /* \"#utility.yul\":490:567   */\n      0x4e487b7100000000000000000000000000000000000000000000000000000000\n        /* \"#utility.yul\":487:488   */\n      0x00\n        /* \"#utility.yul\":480:568   */\n      mstore\n        /* \"#utility.yul\":587:591   */\n      0x11\n        /* \"#utility.yul\":584:585   */\n      0x04\n        /* \"#utility.yul\":577:592   */\n      mstore\n        /* \"#utility.yul\":611:615   */\n      0x24\n        /* \"#utility.yul\":608:609   */\n      0x00\n        /* \"#utility.yul\":601:616   */\n      revert\n        /* \"#utility.yul\":628:819   */\n    tag_18:\n        /* \"#utility.yul\":668:671   */\n      0x00\n        /* \"#utility.yul\":687:707   */\n      tag_37\n        /* \"#utility.yul\":705:706   */\n      dup3\n        /* \"#utility.yul\":687:707   */\n      tag_26\n      jump\t// in\n    tag_37:\n        /* \"#utility.yul\":682:707   */\n      swap2\n      pop\n        /* \"#utility.yul\":721:741   */\n      tag_38\n        /* \"#utility.yul\":739:740   */\n      dup4\n        /* \"#utility.yul\":721:741   */\n      tag_26\n      jump\t// in\n    tag_38:\n        /* \"#utility.yul\":716:741   */\n      swap3\n      pop\n        /* \"#utility.yul\":764:765   */\n      dup3\n        /* \"#utility.yul\":761:762   */\n      dup3\n        /* \"#utility.yul\":757:766   */\n      add\n        /* \"#utility.yul\":750:766   */\n      swap1\n      pop\n        /* \"#utility.yul\":785:788   */\n      dup1\n        /* \"#utility.yul\":782:783   */\n      dup3\n        /* \"#utility.yul\":779:789   */\n      gt\n        /* \"#utility.yul\":776:812   */\n      iszero\n      tag_39\n      jumpi\n        /* \"#utility.yul\":792:810   */\n      tag_40\n      tag_28\n      jump\t// in\n    tag_40:\n        /* \"#utility.yul\":776:812   */\n    tag_39:\n        /* \"#utility.yul\":628:819   */\n      swap3\n      swap2\n      pop\n      pop\n      jump\t// out\n        /* \"#utility.yul\":825:1058   */\n    tag_20:\n        /* \"#utility.yul\":864:867   */\n      0x00\n        /* \"#utility.yul\":887:911   */\n      tag_42\n        /* \"#utility.yul\":905:910   */\n      dup3\n        /* \"#utility.yul\":887:911   */\n      tag_26\n      jump\t// in\n    tag_42:\n        /* \"#utility.yul\":878:911   */\n      swap2\n      pop\n        /* \"#utility.yul\":933:999   */\n      0xffffffffffffffffffffffffffffffffffffffffffffffffffffffffffffffff\n        /* \"#utility.yul\":926:931   */\n      dup3\n        /* \"#utility.yul\":923:1000   */\n      sub\n        /* \"#utility.yul\":920:1023   */\n      tag_43\n      jumpi\n        /* \"#utility.yul\":1003:1021   */\n      tag_44\n      tag_28\n      jump\t// in\n    tag_44:\n        /* \"#utility.yul\":920:1023   */\n    tag_43:\n        /* \"#utility.yul\":1050:1051   */\n      0x01\n        /* \"#utility.yul\":1043:1048   */\n      dup3\n        /* \"#utility.yul\":1039:1052   */\n      add\n        /* \"#utility.yul\":1032:1052   */\n      swap1\n      pop\n        /* \"#utility.yul\":825:1058   */\n      swap2\n      swap1\n      pop\n      jump\t// out\n\n    auxdata: 0xa2646970667358221220b307a17c7aef120a1cece61c23b9b6470cde662517382a489c20b1c1d83c545964736f6c634300081e0033\n}\n",
				"bytecode": {
					"linkReferences": {},
					"object": "6080604052348015600e575f5ffd5b506101f58061001c5f395ff3fe608060405234801561000f575f5ffd5b5060043610610034575f3560e01c80638fde767d14610038578063fc0e600814610056575b5f5ffd5b610040610074565b60405161004d91906100ff565b60405180910390f35b61005e6100b0565b60405161006b91906100ff565b60405180910390f35b5f5f5f90505f600190505b600581116100a85780826100939190610145565b915080806100a090610178565b91505061007f565b819250505090565b5f5f5f90505f600190505b60068110156100df5780826100d09190610145565b915080806001019150506100bb565b508091505090565b5f819050919050565b6100f9816100e7565b82525050565b5f6020820190506101125f8301846100f0565b92915050565b7f4e487b71000000000000000000000000000000000000000000000000000000005f52601160045260245ffd5b5f61014f826100e7565b915061015a836100e7565b925082820190508082111561017257610171610118565b5b92915050565b5f610182826100e7565b91507fffffffffffffffffffffffffffffffffffffffffffffffffffffffffffffffff82036101b4576101b3610118565b5b60018201905091905056fea2646970667358221220b307a17c7aef120a1cece61c23b9b6470cde662517382a489c20b1c1d83c545964736f6c634300081e0033",
					"opcodes": "PUSH1 0x80 PUSH1 0x40 MSTORE CALLVALUE DUP1 ISZERO PUSH1 0xE JUMPI PUSH0 PUSH0 REVERT JUMPDEST POP PUSH2 0x1F5 DUP1 PUSH2 0x1C PUSH0 CODECOPY PUSH0 RETURN INVALID PUSH1 0x80 PUSH1 0x40 MSTORE CALLVALUE DUP1 ISZERO PUSH2 0xF JUMPI PUSH0 PUSH0 REVERT JUMPDEST POP PUSH1 0x4 CALLDATASIZE LT PUSH2 0x34 JUMPI PUSH0 CALLDATALOAD PUSH1 0xE0 SHR DUP1 PUSH4 0x8FDE767D EQ PUSH2 0x38 JUMPI DUP1 PUSH4 0xFC0E6008 EQ PUSH2 0x56 JUMPI JUMPDEST PUSH0 PUSH0 REVERT JUMPDEST PUSH2 0x40 PUSH2 0x74 JUMP JUMPDEST PUSH1 0x40 MLOAD PUSH2 0x4D SWAP2 SWAP1 PUSH2 0xFF JUMP JUMPDEST PUSH1 0x40 MLOAD DUP1 SWAP2 SUB SWAP1 RETURN JUMPDEST PUSH2 0x5E PUSH2 0xB0 JUMP JUMPDEST PUSH1 0x40 MLOAD PUSH2 0x6B SWAP2 SWAP1 PUSH2 0xFF JUMP JUMPDEST PUSH1 0x40 MLOAD DUP1 SWAP2 SUB SWAP1 RETURN JUMPDEST PUSH0 PUSH0 PUSH0 SWAP1 POP PUSH0 PUSH1 0x1 SWAP1 POP JUMPDEST PUSH1 0x5 DUP2 GT PUSH2 0xA8 JUMPI DUP1 DUP3 PUSH2 0x93 SWAP2 SWAP1 PUSH2 0x145 JUMP JUMPDEST SWAP2 POP DUP1 DUP1 PUSH2 0xA0 SWAP1 PUSH2 0x178 JUMP JUMPDEST SWAP2 POP POP PUSH2 0x7F JUMP JUMPDEST DUP2 SWAP3 POP POP POP SWAP1 JUMP JUMPDEST PUSH0 PUSH0 PUSH0 SWAP1 POP PUSH0 PUSH1 0x1 SWAP1 POP JUMPDEST PUSH1 0x6 DUP2 LT ISZERO PUSH2 0xDF JUMPI DUP1 DUP3 PUSH2 0xD0 SWAP2 SWAP1 PUSH2 0x145 JUMP JUMPDEST SWAP2 POP DUP1 DUP1 PUSH1 0x1 ADD SWAP2 POP POP PUSH2 0xBB JUMP JUMPDEST POP DUP1 SWAP2 POP POP SWAP1 JUMP JUMPDEST PUSH0 DUP2 SWAP1 POP SWAP2 SWAP1 POP JUMP JUMPDEST PUSH2 0xF9 DUP2 PUSH2 0xE7 JUMP JUMPDEST DUP3 MSTORE POP POP JUMP JUMPDEST PUSH0 PUSH1 0x20 DUP3 ADD SWAP1 POP PUSH2 0x112 PUSH0 DUP4 ADD DUP5 PUSH2 0xF0 JUMP JUMPDEST SWAP3 SWAP2 POP POP JUMP JUMPDEST PUSH32 0x4E487B7100000000000000000000000000000000000000000000000000000000 PUSH0 MSTORE PUSH1 0x11 PUSH1 0x4 MSTORE PUSH1 0x24 PUSH0 REVERT JUMPDEST PUSH0 PUSH2 0x14F DUP3 PUSH2 0xE7 JUMP JUMPDEST SWAP2 POP PUSH2 0x15A DUP4 PUSH2 0xE7 JUMP JUMPDEST SWAP3 POP DUP3 DUP3 ADD SWAP1 POP DUP1 DUP3 GT ISZERO PUSH2 0x172 JUMPI PUSH2 0x171 PUSH2 0x118 JUMP JUMPDEST JUMPDEST SWAP3 SWAP2 POP POP JUMP JUMPDEST PUSH0 PUSH2 0x182 DUP3 PUSH2 0xE7 JUMP JUMPDEST SWAP2 POP PUSH32 0xFFFFFFFFFFFFFFFFFFFFFFFFFFFFFFFFFFFFFFFFFFFFFFFFFFFFFFFFFFFFFFFF DUP3 SUB PUSH2 0x1B4 JUMPI PUSH2 0x1B3 PUSH2 0x118 JUMP JUMPDEST JUMPDEST PUSH1 0x1 DUP3 ADD SWAP1 POP SWAP2 SWAP1 POP JUMP INVALID LOG2 PUSH5 0x6970667358 0x22 SLT KECCAK256 0xB3 SMOD LOG1 PUSH29 0x7AEF120A1CECE61C23B9B6470CDE662517382A489C20B1C1D83C545964 PUSH20 0x6F6C634300081E00330000000000000000000000 "
				},
				"gasEstimates": {
					"creation": {
						"codeDepositCost": "100200",
						"executionCost": "145",
						"totalCost": "100345"
					},
					"external": {
						"forLoop()": "infinite",
						"forLoop1()": "infinite"
					}
				},
				"methodIdentifiers": {
					"forLoop()": "fc0e6008",
					"forLoop1()": "8fde767d"
				}
			},
			"storageLayout": {
				"storage": [],
				"types": null
			},
			"userdoc": {
				"kind": "user",
				"methods": {},
				"version": 1
			}
		}
	}
}