{
	"02_dataType.sol": {
		"dataType": {
			"abi": [
				{
					"inputs": [
						{
							"internalType": "bytes",
							"name": "_data",
							"type": "bytes"
						}
					],
					"name": "appendToBytes",
					"outputs": [],
					"stateMutability": "nonpayable",
					"type": "function"
				},
				{
					"inputs": [],
					"name": "dynamicData",
					"outputs": [
						{
							"internalType": "bytes",
							"name": "",
							"type": "bytes"
						}
					],
					"stateMutability": "view",
					"type": "function"
				},
				{
					"inputs": [],
					"name": "enptyBytes",
					"outputs": [
						{
							"internalType": "bytes",
							"name": "",
							"type": "bytes"
						}
					],
					"stateMutability": "view",
					"type": "function"
				}
			],
			"devdoc": {
				"kind": "dev",
				"methods": {},
				"version": 1
			},
			"evm": {
				"assembly": "    /* \"02_dataType.sol\":57:328  contract dataType {... */\n  mstore(0x40, 0x80)\n    /* \"02_dataType.sol\":136:170  bytes public dynamicData = \"Hello\" */\n  mload(0x40)\n  dup1\n  0x40\n  add\n  0x40\n  mstore\n  dup1\n  0x05\n  dup2\n  mstore\n  0x20\n  add\n  0x48656c6c6f000000000000000000000000000000000000000000000000000000\n  dup2\n  mstore\n  pop\n  0x01\n  swap1\n  dup2\n  tag_1\n  swap2\n  swap1\n  tag_2\n  jump\t// in\ntag_1:\n  pop\n    /* \"02_dataType.sol\":57:328  contract dataType {... */\n  callvalue\n  dup1\n  iszero\n  tag_3\n  jumpi\n  revert(0x00, 0x00)\ntag_3:\n  pop\n  jump(tag_4)\n    /* \"#utility.yul\":7:106   */\ntag_5:\n    /* \"#utility.yul\":59:65   */\n  0x00\n    /* \"#utility.yul\":93:98   */\n  dup2\n    /* \"#utility.yul\":87:99   */\n  mload\n    /* \"#utility.yul\":77:99   */\n  swap1\n  pop\n    /* \"#utility.yul\":7:106   */\n  swap2\n  swap1\n  pop\n  jump\t// out\n    /* \"#utility.yul\":112:292   */\ntag_6:\n    /* \"#utility.yul\":160:237   */\n  0x4e487b7100000000000000000000000000000000000000000000000000000000\n    /* \"#utility.yul\":157:158   */\n  0x00\n    /* \"#utility.yul\":150:238   */\n  mstore\n    /* \"#utility.yul\":257:261   */\n  0x41\n    /* \"#utility.yul\":254:255   */\n  0x04\n    /* \"#utility.yul\":247:262   */\n  mstore\n    /* \"#utility.yul\":281:285   */\n  0x24\n    /* \"#utility.yul\":278:279   */\n  0x00\n    /* \"#utility.yul\":271:286   */\n  revert\n    /* \"#utility.yul\":298:478   */\ntag_7:\n    /* \"#utility.yul\":346:423   */\n  0x4e487b7100000000000000000000000000000000000000000000000000000000\n    /* \"#utility.yul\":343:344   */\n  0x00\n    /* \"#utility.yul\":336:424   */\n  mstore\n    /* \"#utility.yul\":443:447   */\n  0x22\n    /* \"#utility.yul\":440:441   */\n  0x04\n    /* \"#utility.yul\":433:448   */\n  mstore\n    /* \"#utility.yul\":467:471   */\n  0x24\n    /* \"#utility.yul\":464:465   */\n  0x00\n    /* \"#utility.yul\":457:472   */\n  revert\n    /* \"#utility.yul\":484:804   */\ntag_8:\n    /* \"#utility.yul\":528:534   */\n  0x00\n    /* \"#utility.yul\":565:566   */\n  0x02\n    /* \"#utility.yul\":559:563   */\n  dup3\n    /* \"#utility.yul\":555:567   */\n  div\n    /* \"#utility.yul\":545:567   */\n  swap1\n  pop\n    /* \"#utility.yul\":612:613   */\n  0x01\n    /* \"#utility.yul\":606:610   */\n  dup3\n    /* \"#utility.yul\":602:614   */\n  and\n    /* \"#utility.yul\":633:651   */\n  dup1\n    /* \"#utility.yul\":623:704   */\n  tag_30\n  jumpi\n    /* \"#utility.yul\":689:693   */\n  0x7f\n    /* \"#utility.yul\":681:687   */\n  dup3\n    /* \"#utility.yul\":677:694   */\n  and\n    /* \"#utility.yul\":667:694   */\n  swap2\n  pop\n    /* \"#utility.yul\":623:704   */\ntag_30:\n    /* \"#utility.yul\":751:753   */\n  0x20\n    /* \"#utility.yul\":743:749   */\n  dup3\n    /* \"#utility.yul\":740:754   */\n  lt\n    /* \"#utility.yul\":720:738   */\n  dup2\n    /* \"#utility.yul\":717:755   */\n  sub\n    /* \"#utility.yul\":714:798   */\n  tag_31\n  jumpi\n    /* \"#utility.yul\":770:788   */\n  tag_32\n  tag_7\n  jump\t// in\ntag_32:\n    /* \"#utility.yul\":714:798   */\ntag_31:\n    /* \"#utility.yul\":535:804   */\n  pop\n    /* \"#utility.yul\":484:804   */\n  swap2\n  swap1\n  pop\n  jump\t// out\n    /* \"#utility.yul\":810:950   */\ntag_9:\n    /* \"#utility.yul\":858:862   */\n  0x00\n    /* \"#utility.yul\":881:884   */\n  dup2\n    /* \"#utility.yul\":873:884   */\n  swap1\n  pop\n    /* \"#utility.yul\":904:907   */\n  dup2\n    /* \"#utility.yul\":901:902   */\n  0x00\n    /* \"#utility.yul\":894:908   */\n  mstore\n    /* \"#utility.yul\":938:942   */\n  0x20\n    /* \"#utility.yul\":935:936   */\n  0x00\n    /* \"#utility.yul\":925:943   */\n  keccak256\n    /* \"#utility.yul\":917:943   */\n  swap1\n  pop\n    /* \"#utility.yul\":810:950   */\n  swap2\n  swap1\n  pop\n  jump\t// out\n    /* \"#utility.yul\":956:1049   */\ntag_10:\n    /* \"#utility.yul\":993:999   */\n  0x00\n    /* \"#utility.yul\":1040:1042   */\n  0x20\n    /* \"#utility.yul\":1035:1037   */\n  0x1f\n    /* \"#utility.yul\":1028:1033   */\n  dup4\n    /* \"#utility.yul\":1024:1038   */\n  add\n    /* \"#utility.yul\":1020:1043   */\n  div\n    /* \"#utility.yul\":1010:1043   */\n  swap1\n  pop\n    /* \"#utility.yul\":956:1049   */\n  swap2\n  swap1\n  pop\n  jump\t// out\n    /* \"#utility.yul\":1055:1162   */\ntag_11:\n    /* \"#utility.yul\":1099:1107   */\n  0x00\n    /* \"#utility.yul\":1149:1154   */\n  dup3\n    /* \"#utility.yul\":1143:1147   */\n  dup3\n    /* \"#utility.yul\":1139:1155   */\n  shl\n    /* \"#utility.yul\":1118:1155   */\n  swap1\n  pop\n    /* \"#utility.yul\":1055:1162   */\n  swap3\n  swap2\n  pop\n  pop\n  jump\t// out\n    /* \"#utility.yul\":1168:1561   */\ntag_12:\n    /* \"#utility.yul\":1237:1243   */\n  0x00\n    /* \"#utility.yul\":1287:1288   */\n  0x08\n    /* \"#utility.yul\":1275:1285   */\n  dup4\n    /* \"#utility.yul\":1271:1289   */\n  mul\n    /* \"#utility.yul\":1310:1407   */\n  tag_37\n    /* \"#utility.yul\":1340:1406   */\n  0xffffffffffffffffffffffffffffffffffffffffffffffffffffffffffffffff\n    /* \"#utility.yul\":1329:1338   */\n  dup3\n    /* \"#utility.yul\":1310:1407   */\n  tag_11\n  jump\t// in\ntag_37:\n    /* \"#utility.yul\":1428:1467   */\n  tag_38\n    /* \"#utility.yul\":1458:1466   */\n  dup7\n    /* \"#utility.yul\":1447:1456   */\n  dup4\n    /* \"#utility.yul\":1428:1467   */\n  tag_11\n  jump\t// in\ntag_38:\n    /* \"#utility.yul\":1416:1467   */\n  swap6\n  pop\n    /* \"#utility.yul\":1500:1504   */\n  dup1\n    /* \"#utility.yul\":1496:1505   */\n  not\n    /* \"#utility.yul\":1489:1494   */\n  dup5\n    /* \"#utility.yul\":1485:1506   */\n  and\n    /* \"#utility.yul\":1476:1506   */\n  swap4\n  pop\n    /* \"#utility.yul\":1549:1553   */\n  dup1\n    /* \"#utility.yul\":1539:1547   */\n  dup7\n    /* \"#utility.yul\":1535:1554   */\n  and\n    /* \"#utility.yul\":1528:1533   */\n  dup5\n    /* \"#utility.yul\":1525:1555   */\n  or\n    /* \"#utility.yul\":1515:1555   */\n  swap3\n  pop\n    /* \"#utility.yul\":1244:1561   */\n  pop\n  pop\n    /* \"#utility.yul\":1168:1561   */\n  swap4\n  swap3\n  pop\n  pop\n  pop\n  jump\t// out\n    /* \"#utility.yul\":1567:1644   */\ntag_13:\n    /* \"#utility.yul\":1604:1611   */\n  0x00\n    /* \"#utility.yul\":1633:1638   */\n  dup2\n    /* \"#utility.yul\":1622:1638   */\n  swap1\n  pop\n    /* \"#utility.yul\":1567:1644   */\n  swap2\n  swap1\n  pop\n  jump\t// out\n    /* \"#utility.yul\":1650:1710   */\ntag_14:\n    /* \"#utility.yul\":1678:1681   */\n  0x00\n    /* \"#utility.yul\":1699:1704   */\n  dup2\n    /* \"#utility.yul\":1692:1704   */\n  swap1\n  pop\n    /* \"#utility.yul\":1650:1710   */\n  swap2\n  swap1\n  pop\n  jump\t// out\n    /* \"#utility.yul\":1716:1858   */\ntag_15:\n    /* \"#utility.yul\":1766:1775   */\n  0x00\n    /* \"#utility.yul\":1799:1852   */\n  tag_42\n    /* \"#utility.yul\":1817:1851   */\n  tag_43\n    /* \"#utility.yul\":1826:1850   */\n  tag_44\n    /* \"#utility.yul\":1844:1849   */\n  dup5\n    /* \"#utility.yul\":1826:1850   */\n  tag_13\n  jump\t// in\ntag_44:\n    /* \"#utility.yul\":1817:1851   */\n  tag_14\n  jump\t// in\ntag_43:\n    /* \"#utility.yul\":1799:1852   */\n  tag_13\n  jump\t// in\ntag_42:\n    /* \"#utility.yul\":1786:1852   */\n  swap1\n  pop\n    /* \"#utility.yul\":1716:1858   */\n  swap2\n  swap1\n  pop\n  jump\t// out\n    /* \"#utility.yul\":1864:1939   */\ntag_16:\n    /* \"#utility.yul\":1907:1910   */\n  0x00\n    /* \"#utility.yul\":1928:1933   */\n  dup2\n    /* \"#utility.yul\":1921:1933   */\n  swap1\n  pop\n    /* \"#utility.yul\":1864:1939   */\n  swap2\n  swap1\n  pop\n  jump\t// out\n    /* \"#utility.yul\":1945:2214   */\ntag_17:\n    /* \"#utility.yul\":2055:2094   */\n  tag_47\n    /* \"#utility.yul\":2086:2093   */\n  dup4\n    /* \"#utility.yul\":2055:2094   */\n  tag_15\n  jump\t// in\ntag_47:\n    /* \"#utility.yul\":2116:2207   */\n  tag_48\n    /* \"#utility.yul\":2165:2206   */\n  tag_49\n    /* \"#utility.yul\":2189:2205   */\n  dup3\n    /* \"#utility.yul\":2165:2206   */\n  tag_16\n  jump\t// in\ntag_49:\n    /* \"#utility.yul\":2157:2163   */\n  dup5\n    /* \"#utility.yul\":2150:2154   */\n  dup5\n    /* \"#utility.yul\":2144:2155   */\n  sload\n    /* \"#utility.yul\":2116:2207   */\n  tag_12\n  jump\t// in\ntag_48:\n    /* \"#utility.yul\":2110:2114   */\n  dup3\n    /* \"#utility.yul\":2103:2208   */\n  sstore\n    /* \"#utility.yul\":2021:2214   */\n  pop\n    /* \"#utility.yul\":1945:2214   */\n  pop\n  pop\n  pop\n  jump\t// out\n    /* \"#utility.yul\":2220:2293   */\ntag_18:\n    /* \"#utility.yul\":2265:2268   */\n  0x00\n    /* \"#utility.yul\":2286:2287   */\n  0x00\n    /* \"#utility.yul\":2279:2287   */\n  swap1\n  pop\n    /* \"#utility.yul\":2220:2293   */\n  swap1\n  jump\t// out\n    /* \"#utility.yul\":2299:2488   */\ntag_19:\n    /* \"#utility.yul\":2376:2408   */\n  tag_52\n  tag_18\n  jump\t// in\ntag_52:\n    /* \"#utility.yul\":2417:2482   */\n  tag_53\n    /* \"#utility.yul\":2475:2481   */\n  dup2\n    /* \"#utility.yul\":2467:2473   */\n  dup5\n    /* \"#utility.yul\":2461:2465   */\n  dup5\n    /* \"#utility.yul\":2417:2482   */\n  tag_17\n  jump\t// in\ntag_53:\n    /* \"#utility.yul\":2352:2488   */\n  pop\n    /* \"#utility.yul\":2299:2488   */\n  pop\n  pop\n  jump\t// out\n    /* \"#utility.yul\":2494:2680   */\ntag_20:\n    /* \"#utility.yul\":2554:2674   */\ntag_55:\n    /* \"#utility.yul\":2571:2574   */\n  dup2\n    /* \"#utility.yul\":2564:2569   */\n  dup2\n    /* \"#utility.yul\":2561:2575   */\n  lt\n    /* \"#utility.yul\":2554:2674   */\n  iszero\n  tag_57\n  jumpi\n    /* \"#utility.yul\":2625:2664   */\n  tag_58\n    /* \"#utility.yul\":2662:2663   */\n  0x00\n    /* \"#utility.yul\":2655:2660   */\n  dup3\n    /* \"#utility.yul\":2625:2664   */\n  tag_19\n  jump\t// in\ntag_58:\n    /* \"#utility.yul\":2598:2599   */\n  0x01\n    /* \"#utility.yul\":2591:2596   */\n  dup2\n    /* \"#utility.yul\":2587:2600   */\n  add\n    /* \"#utility.yul\":2578:2600   */\n  swap1\n  pop\n    /* \"#utility.yul\":2554:2674   */\n  jump(tag_55)\ntag_57:\n    /* \"#utility.yul\":2494:2680   */\n  pop\n  pop\n  jump\t// out\n    /* \"#utility.yul\":2686:3227   */\ntag_21:\n    /* \"#utility.yul\":2786:2788   */\n  0x1f\n    /* \"#utility.yul\":2781:2784   */\n  dup3\n    /* \"#utility.yul\":2778:2789   */\n  gt\n    /* \"#utility.yul\":2775:3220   */\n  iszero\n  tag_60\n  jumpi\n    /* \"#utility.yul\":2820:2857   */\n  tag_61\n    /* \"#utility.yul\":2851:2856   */\n  dup2\n    /* \"#utility.yul\":2820:2857   */\n  tag_9\n  jump\t// in\ntag_61:\n    /* \"#utility.yul\":2903:2932   */\n  tag_62\n    /* \"#utility.yul\":2921:2931   */\n  dup5\n    /* \"#utility.yul\":2903:2932   */\n  tag_10\n  jump\t// in\ntag_62:\n    /* \"#utility.yul\":2893:2901   */\n  dup2\n    /* \"#utility.yul\":2889:2933   */\n  add\n    /* \"#utility.yul\":3086:3088   */\n  0x20\n    /* \"#utility.yul\":3074:3084   */\n  dup6\n    /* \"#utility.yul\":3071:3089   */\n  lt\n    /* \"#utility.yul\":3068:3117   */\n  iszero\n  tag_63\n  jumpi\n    /* \"#utility.yul\":3107:3115   */\n  dup2\n    /* \"#utility.yul\":3092:3115   */\n  swap1\n  pop\n    /* \"#utility.yul\":3068:3117   */\ntag_63:\n    /* \"#utility.yul\":3130:3210   */\n  tag_64\n    /* \"#utility.yul\":3186:3208   */\n  tag_65\n    /* \"#utility.yul\":3204:3207   */\n  dup6\n    /* \"#utility.yul\":3186:3208   */\n  tag_10\n  jump\t// in\ntag_65:\n    /* \"#utility.yul\":3176:3184   */\n  dup4\n    /* \"#utility.yul\":3172:3209   */\n  add\n    /* \"#utility.yul\":3159:3170   */\n  dup3\n    /* \"#utility.yul\":3130:3210   */\n  tag_20\n  jump\t// in\ntag_64:\n    /* \"#utility.yul\":2790:3220   */\n  pop\n  pop\n    /* \"#utility.yul\":2775:3220   */\ntag_60:\n    /* \"#utility.yul\":2686:3227   */\n  pop\n  pop\n  pop\n  jump\t// out\n    /* \"#utility.yul\":3233:3350   */\ntag_22:\n    /* \"#utility.yul\":3287:3295   */\n  0x00\n    /* \"#utility.yul\":3337:3342   */\n  dup3\n    /* \"#utility.yul\":3331:3335   */\n  dup3\n    /* \"#utility.yul\":3327:3343   */\n  shr\n    /* \"#utility.yul\":3306:3343   */\n  swap1\n  pop\n    /* \"#utility.yul\":3233:3350   */\n  swap3\n  swap2\n  pop\n  pop\n  jump\t// out\n    /* \"#utility.yul\":3356:3525   */\ntag_23:\n    /* \"#utility.yul\":3400:3406   */\n  0x00\n    /* \"#utility.yul\":3433:3484   */\n  tag_68\n    /* \"#utility.yul\":3481:3482   */\n  0x00\n    /* \"#utility.yul\":3477:3483   */\n  not\n    /* \"#utility.yul\":3469:3474   */\n  dup5\n    /* \"#utility.yul\":3466:3467   */\n  0x08\n    /* \"#utility.yul\":3462:3475   */\n  mul\n    /* \"#utility.yul\":3433:3484   */\n  tag_22\n  jump\t// in\ntag_68:\n    /* \"#utility.yul\":3429:3485   */\n  not\n    /* \"#utility.yul\":3514:3518   */\n  dup1\n    /* \"#utility.yul\":3508:3512   */\n  dup4\n    /* \"#utility.yul\":3504:3519   */\n  and\n    /* \"#utility.yul\":3494:3519   */\n  swap2\n  pop\n    /* \"#utility.yul\":3407:3525   */\n  pop\n    /* \"#utility.yul\":3356:3525   */\n  swap3\n  swap2\n  pop\n  pop\n  jump\t// out\n    /* \"#utility.yul\":3530:3825   */\ntag_24:\n    /* \"#utility.yul\":3606:3610   */\n  0x00\n    /* \"#utility.yul\":3752:3781   */\n  tag_70\n    /* \"#utility.yul\":3777:3780   */\n  dup4\n    /* \"#utility.yul\":3771:3775   */\n  dup4\n    /* \"#utility.yul\":3752:3781   */\n  tag_23\n  jump\t// in\ntag_70:\n    /* \"#utility.yul\":3744:3781   */\n  swap2\n  pop\n    /* \"#utility.yul\":3814:3817   */\n  dup3\n    /* \"#utility.yul\":3811:3812   */\n  0x02\n    /* \"#utility.yul\":3807:3818   */\n  mul\n    /* \"#utility.yul\":3801:3805   */\n  dup3\n    /* \"#utility.yul\":3798:3819   */\n  or\n    /* \"#utility.yul\":3790:3819   */\n  swap1\n  pop\n    /* \"#utility.yul\":3530:3825   */\n  swap3\n  swap2\n  pop\n  pop\n  jump\t// out\n    /* \"#utility.yul\":3830:5222   */\ntag_2:\n    /* \"#utility.yul\":3946:3983   */\n  tag_72\n    /* \"#utility.yul\":3979:3982   */\n  dup3\n    /* \"#utility.yul\":3946:3983   */\n  tag_5\n  jump\t// in\ntag_72:\n    /* \"#utility.yul\":4048:4066   */\n  0xffffffffffffffff\n    /* \"#utility.yul\":4040:4046   */\n  dup2\n    /* \"#utility.yul\":4037:4067   */\n  gt\n    /* \"#utility.yul\":4034:4090   */\n  iszero\n  tag_73\n  jumpi\n    /* \"#utility.yul\":4070:4088   */\n  tag_74\n  tag_6\n  jump\t// in\ntag_74:\n    /* \"#utility.yul\":4034:4090   */\ntag_73:\n    /* \"#utility.yul\":4114:4152   */\n  tag_75\n    /* \"#utility.yul\":4146:4150   */\n  dup3\n    /* \"#utility.yul\":4140:4151   */\n  sload\n    /* \"#utility.yul\":4114:4152   */\n  tag_8\n  jump\t// in\ntag_75:\n    /* \"#utility.yul\":4199:4265   */\n  tag_76\n    /* \"#utility.yul\":4258:4264   */\n  dup3\n    /* \"#utility.yul\":4250:4256   */\n  dup3\n    /* \"#utility.yul\":4244:4248   */\n  dup6\n    /* \"#utility.yul\":4199:4265   */\n  tag_21\n  jump\t// in\ntag_76:\n    /* \"#utility.yul\":4292:4293   */\n  0x00\n    /* \"#utility.yul\":4316:4320   */\n  0x20\n    /* \"#utility.yul\":4303:4320   */\n  swap1\n  pop\n    /* \"#utility.yul\":4348:4350   */\n  0x1f\n    /* \"#utility.yul\":4340:4346   */\n  dup4\n    /* \"#utility.yul\":4337:4351   */\n  gt\n    /* \"#utility.yul\":4365:4366   */\n  0x01\n    /* \"#utility.yul\":4360:4977   */\n  dup2\n  eq\n  tag_78\n  jumpi\n    /* \"#utility.yul\":5021:5022   */\n  0x00\n    /* \"#utility.yul\":5038:5044   */\n  dup5\n    /* \"#utility.yul\":5035:5112   */\n  iszero\n  tag_79\n  jumpi\n    /* \"#utility.yul\":5087:5096   */\n  dup3\n    /* \"#utility.yul\":5082:5085   */\n  dup8\n    /* \"#utility.yul\":5078:5097   */\n  add\n    /* \"#utility.yul\":5072:5098   */\n  mload\n    /* \"#utility.yul\":5063:5098   */\n  swap1\n  pop\n    /* \"#utility.yul\":5035:5112   */\ntag_79:\n    /* \"#utility.yul\":5138:5205   */\n  tag_80\n    /* \"#utility.yul\":5198:5204   */\n  dup6\n    /* \"#utility.yul\":5191:5196   */\n  dup3\n    /* \"#utility.yul\":5138:5205   */\n  tag_24\n  jump\t// in\ntag_80:\n    /* \"#utility.yul\":5132:5136   */\n  dup7\n    /* \"#utility.yul\":5125:5206   */\n  sstore\n    /* \"#utility.yul\":4994:5216   */\n  pop\n    /* \"#utility.yul\":4330:5216   */\n  jump(tag_77)\n    /* \"#utility.yul\":4360:4977   */\ntag_78:\n    /* \"#utility.yul\":4412:4416   */\n  0x1f\n    /* \"#utility.yul\":4408:4417   */\n  not\n    /* \"#utility.yul\":4400:4406   */\n  dup5\n    /* \"#utility.yul\":4396:4418   */\n  and\n    /* \"#utility.yul\":4446:4482   */\n  tag_81\n    /* \"#utility.yul\":4477:4481   */\n  dup7\n    /* \"#utility.yul\":4446:4482   */\n  tag_9\n  jump\t// in\ntag_81:\n    /* \"#utility.yul\":4504:4505   */\n  0x00\n    /* \"#utility.yul\":4518:4726   */\ntag_82:\n    /* \"#utility.yul\":4532:4539   */\n  dup3\n    /* \"#utility.yul\":4529:4530   */\n  dup2\n    /* \"#utility.yul\":4526:4540   */\n  lt\n    /* \"#utility.yul\":4518:4726   */\n  iszero\n  tag_84\n  jumpi\n    /* \"#utility.yul\":4611:4620   */\n  dup5\n    /* \"#utility.yul\":4606:4609   */\n  dup10\n    /* \"#utility.yul\":4602:4621   */\n  add\n    /* \"#utility.yul\":4596:4622   */\n  mload\n    /* \"#utility.yul\":4588:4594   */\n  dup3\n    /* \"#utility.yul\":4581:4623   */\n  sstore\n    /* \"#utility.yul\":4662:4663   */\n  0x01\n    /* \"#utility.yul\":4654:4660   */\n  dup3\n    /* \"#utility.yul\":4650:4664   */\n  add\n    /* \"#utility.yul\":4640:4664   */\n  swap2\n  pop\n    /* \"#utility.yul\":4709:4711   */\n  0x20\n    /* \"#utility.yul\":4698:4707   */\n  dup6\n    /* \"#utility.yul\":4694:4712   */\n  add\n    /* \"#utility.yul\":4681:4712   */\n  swap5\n  pop\n    /* \"#utility.yul\":4555:4559   */\n  0x20\n    /* \"#utility.yul\":4552:4553   */\n  dup2\n    /* \"#utility.yul\":4548:4560   */\n  add\n    /* \"#utility.yul\":4543:4560   */\n  swap1\n  pop\n    /* \"#utility.yul\":4518:4726   */\n  jump(tag_82)\ntag_84:\n    /* \"#utility.yul\":4754:4760   */\n  dup7\n    /* \"#utility.yul\":4745:4752   */\n  dup4\n    /* \"#utility.yul\":4742:4761   */\n  lt\n    /* \"#utility.yul\":4739:4918   */\n  iszero\n  tag_85\n  jumpi\n    /* \"#utility.yul\":4812:4821   */\n  dup5\n    /* \"#utility.yul\":4807:4810   */\n  dup10\n    /* \"#utility.yul\":4803:4822   */\n  add\n    /* \"#utility.yul\":4797:4823   */\n  mload\n    /* \"#utility.yul\":4855:4903   */\n  tag_86\n    /* \"#utility.yul\":4897:4901   */\n  0x1f\n    /* \"#utility.yul\":4889:4895   */\n  dup10\n    /* \"#utility.yul\":4885:4902   */\n  and\n    /* \"#utility.yul\":4874:4883   */\n  dup3\n    /* \"#utility.yul\":4855:4903   */\n  tag_23\n  jump\t// in\ntag_86:\n    /* \"#utility.yul\":4847:4853   */\n  dup4\n    /* \"#utility.yul\":4840:4904   */\n  sstore\n    /* \"#utility.yul\":4762:4918   */\n  pop\n    /* \"#utility.yul\":4739:4918   */\ntag_85:\n    /* \"#utility.yul\":4964:4965   */\n  0x01\n    /* \"#utility.yul\":4960:4961   */\n  0x02\n    /* \"#utility.yul\":4952:4958   */\n  dup9\n    /* \"#utility.yul\":4948:4962   */\n  mul\n    /* \"#utility.yul\":4944:4966   */\n  add\n    /* \"#utility.yul\":4938:4942   */\n  dup9\n    /* \"#utility.yul\":4931:4967   */\n  sstore\n    /* \"#utility.yul\":4367:4977   */\n  pop\n  pop\n  pop\n    /* \"#utility.yul\":4330:5216   */\ntag_77:\n  pop\n    /* \"#utility.yul\":3921:5222   */\n  pop\n  pop\n  pop\n    /* \"#utility.yul\":3830:5222   */\n  pop\n  pop\n  jump\t// out\n    /* \"02_dataType.sol\":57:328  contract dataType {... */\ntag_4:\n  dataSize(sub_0)\n  dup1\n  dataOffset(sub_0)\n  0x00\n  codecopy\n  0x00\n  return\nstop\n\nsub_0: assembly {\n        /* \"02_dataType.sol\":57:328  contract dataType {... */\n      mstore(0x40, 0x80)\n      callvalue\n      dup1\n      iszero\n      tag_1\n      jumpi\n      revert(0x00, 0x00)\n    tag_1:\n      pop\n      jumpi(tag_2, lt(calldatasize, 0x04))\n      shr(0xe0, calldataload(0x00))\n      dup1\n      0x5a0a4a64\n      eq\n      tag_3\n      jumpi\n      dup1\n      0x667aa916\n      eq\n      tag_4\n      jumpi\n      dup1\n      0x88fae502\n      eq\n      tag_5\n      jumpi\n    tag_2:\n      revert(0x00, 0x00)\n        /* \"02_dataType.sol\":136:170  bytes public dynamicData = \"Hello\" */\n    tag_3:\n      tag_6\n      tag_7\n      jump\t// in\n    tag_6:\n      mload(0x40)\n      tag_8\n      swap2\n      swap1\n      tag_9\n      jump\t// in\n    tag_8:\n      mload(0x40)\n      dup1\n      swap2\n      sub\n      swap1\n      return\n        /* \"02_dataType.sol\":101:124  bytes public enptyBytes */\n    tag_4:\n      tag_10\n      tag_11\n      jump\t// in\n    tag_10:\n      mload(0x40)\n      tag_12\n      swap2\n      swap1\n      tag_9\n      jump\t// in\n    tag_12:\n      mload(0x40)\n      dup1\n      swap2\n      sub\n      swap1\n      return\n        /* \"02_dataType.sol\":192:326  function appendToBytes(bytes memory _data) external  {... */\n    tag_5:\n      tag_13\n      0x04\n      dup1\n      calldatasize\n      sub\n      dup2\n      add\n      swap1\n      tag_14\n      swap2\n      swap1\n      tag_15\n      jump\t// in\n    tag_14:\n      tag_16\n      jump\t// in\n    tag_13:\n      stop\n        /* \"02_dataType.sol\":136:170  bytes public dynamicData = \"Hello\" */\n    tag_7:\n      0x01\n      dup1\n      sload\n      tag_17\n      swap1\n      tag_18\n      jump\t// in\n    tag_17:\n      dup1\n      0x1f\n      add\n      0x20\n      dup1\n      swap2\n      div\n      mul\n      0x20\n      add\n      mload(0x40)\n      swap1\n      dup2\n      add\n      0x40\n      mstore\n      dup1\n      swap3\n      swap2\n      swap1\n      dup2\n      dup2\n      mstore\n      0x20\n      add\n      dup3\n      dup1\n      sload\n      tag_19\n      swap1\n      tag_18\n      jump\t// in\n    tag_19:\n      dup1\n      iszero\n      tag_20\n      jumpi\n      dup1\n      0x1f\n      lt\n      tag_21\n      jumpi\n      0x0100\n      dup1\n      dup4\n      sload\n      div\n      mul\n      dup4\n      mstore\n      swap2\n      0x20\n      add\n      swap2\n      jump(tag_20)\n    tag_21:\n      dup3\n      add\n      swap2\n      swap1\n      0x00\n      mstore\n      keccak256(0x00, 0x20)\n      swap1\n    tag_22:\n      dup2\n      sload\n      dup2\n      mstore\n      swap1\n      0x01\n      add\n      swap1\n      0x20\n      add\n      dup1\n      dup4\n      gt\n      tag_22\n      jumpi\n      dup3\n      swap1\n      sub\n      0x1f\n      and\n      dup3\n      add\n      swap2\n    tag_20:\n      pop\n      pop\n      pop\n      pop\n      pop\n      dup2\n      jump\t// out\n        /* \"02_dataType.sol\":101:124  bytes public enptyBytes */\n    tag_11:\n      0x00\n      dup1\n      sload\n      tag_23\n      swap1\n      tag_18\n      jump\t// in\n    tag_23:\n      dup1\n      0x1f\n      add\n      0x20\n      dup1\n      swap2\n      div\n      mul\n      0x20\n      add\n      mload(0x40)\n      swap1\n      dup2\n      add\n      0x40\n      mstore\n      dup1\n      swap3\n      swap2\n      swap1\n      dup2\n      dup2\n      mstore\n      0x20\n      add\n      dup3\n      dup1\n      sload\n      tag_24\n      swap1\n      tag_18\n      jump\t// in\n    tag_24:\n      dup1\n      iszero\n      tag_25\n      jumpi\n      dup1\n      0x1f\n      lt\n      tag_26\n      jumpi\n      0x0100\n      dup1\n      dup4\n      sload\n      div\n      mul\n      dup4\n      mstore\n      swap2\n      0x20\n      add\n      swap2\n      jump(tag_25)\n    tag_26:\n      dup3\n      add\n      swap2\n      swap1\n      0x00\n      mstore\n      keccak256(0x00, 0x20)\n      swap1\n    tag_27:\n      dup2\n      sload\n      dup2\n      mstore\n      swap1\n      0x01\n      add\n      swap1\n      0x20\n      add\n      dup1\n      dup4\n      gt\n      tag_27\n      jumpi\n      dup3\n      swap1\n      sub\n      0x1f\n      and\n      dup3\n      add\n      swap2\n    tag_25:\n      pop\n      pop\n      pop\n      pop\n      pop\n      dup2\n      jump\t// out\n        /* \"02_dataType.sol\":192:326  function appendToBytes(bytes memory _data) external  {... */\n    tag_16:\n        /* \"02_dataType.sol\":282:293  dynamicData */\n      0x01\n        /* \"02_dataType.sol\":295:300  _data */\n      dup2\n        /* \"02_dataType.sol\":269:301  bytes.concat(dynamicData, _data) */\n      add(0x20, mload(0x40))\n      tag_29\n      swap3\n      swap2\n      swap1\n      tag_30\n      jump\t// in\n    tag_29:\n      mload(0x40)\n      0x20\n      dup2\n      dup4\n      sub\n      sub\n      dup2\n      mstore\n      swap1\n      0x40\n      mstore\n        /* \"02_dataType.sol\":255:266  dynamicData */\n      0x01\n        /* \"02_dataType.sol\":255:301  dynamicData = bytes.concat(dynamicData, _data) */\n      swap1\n      dup2\n      tag_31\n      swap2\n      swap1\n      tag_32\n      jump\t// in\n    tag_31:\n      pop\n        /* \"02_dataType.sol\":192:326  function appendToBytes(bytes memory _data) external  {... */\n      pop\n      jump\t// out\n        /* \"#utility.yul\":7:105   */\n    tag_33:\n        /* \"#utility.yul\":58:64   */\n      0x00\n        /* \"#utility.yul\":92:97   */\n      dup2\n        /* \"#utility.yul\":86:98   */\n      mload\n        /* \"#utility.yul\":76:98   */\n      swap1\n      pop\n        /* \"#utility.yul\":7:105   */\n      swap2\n      swap1\n      pop\n      jump\t// out\n        /* \"#utility.yul\":111:279   */\n    tag_34:\n        /* \"#utility.yul\":194:205   */\n      0x00\n        /* \"#utility.yul\":228:234   */\n      dup3\n        /* \"#utility.yul\":223:226   */\n      dup3\n        /* \"#utility.yul\":216:235   */\n      mstore\n        /* \"#utility.yul\":268:272   */\n      0x20\n        /* \"#utility.yul\":263:266   */\n      dup3\n        /* \"#utility.yul\":259:273   */\n      add\n        /* \"#utility.yul\":244:273   */\n      swap1\n      pop\n        /* \"#utility.yul\":111:279   */\n      swap3\n      swap2\n      pop\n      pop\n      jump\t// out\n        /* \"#utility.yul\":285:424   */\n    tag_35:\n        /* \"#utility.yul\":374:380   */\n      dup3\n        /* \"#utility.yul\":369:372   */\n      dup2\n        /* \"#utility.yul\":364:367   */\n      dup4\n        /* \"#utility.yul\":358:381   */\n      mcopy\n        /* \"#utility.yul\":415:416   */\n      0x00\n        /* \"#utility.yul\":406:412   */\n      dup4\n        /* \"#utility.yul\":401:404   */\n      dup4\n        /* \"#utility.yul\":397:413   */\n      add\n        /* \"#utility.yul\":390:417   */\n      mstore\n        /* \"#utility.yul\":285:424   */\n      pop\n      pop\n      pop\n      jump\t// out\n        /* \"#utility.yul\":430:532   */\n    tag_36:\n        /* \"#utility.yul\":471:477   */\n      0x00\n        /* \"#utility.yul\":522:524   */\n      0x1f\n        /* \"#utility.yul\":518:525   */\n      not\n        /* \"#utility.yul\":513:515   */\n      0x1f\n        /* \"#utility.yul\":506:511   */\n      dup4\n        /* \"#utility.yul\":502:516   */\n      add\n        /* \"#utility.yul\":498:526   */\n      and\n        /* \"#utility.yul\":488:526   */\n      swap1\n      pop\n        /* \"#utility.yul\":430:532   */\n      swap2\n      swap1\n      pop\n      jump\t// out\n        /* \"#utility.yul\":538:911   */\n    tag_37:\n        /* \"#utility.yul\":624:627   */\n      0x00\n        /* \"#utility.yul\":652:690   */\n      tag_76\n        /* \"#utility.yul\":684:689   */\n      dup3\n        /* \"#utility.yul\":652:690   */\n      tag_33\n      jump\t// in\n    tag_76:\n        /* \"#utility.yul\":706:776   */\n      tag_77\n        /* \"#utility.yul\":769:775   */\n      dup2\n        /* \"#utility.yul\":764:767   */\n      dup6\n        /* \"#utility.yul\":706:776   */\n      tag_34\n      jump\t// in\n    tag_77:\n        /* \"#utility.yul\":699:776   */\n      swap4\n      pop\n        /* \"#utility.yul\":785:850   */\n      tag_78\n        /* \"#utility.yul\":843:849   */\n      dup2\n        /* \"#utility.yul\":838:841   */\n      dup6\n        /* \"#utility.yul\":831:835   */\n      0x20\n        /* \"#utility.yul\":824:829   */\n      dup7\n        /* \"#utility.yul\":820:836   */\n      add\n        /* \"#utility.yul\":785:850   */\n      tag_35\n      jump\t// in\n    tag_78:\n        /* \"#utility.yul\":875:904   */\n      tag_79\n        /* \"#utility.yul\":897:903   */\n      dup2\n        /* \"#utility.yul\":875:904   */\n      tag_36\n      jump\t// in\n    tag_79:\n        /* \"#utility.yul\":870:873   */\n      dup5\n        /* \"#utility.yul\":866:905   */\n      add\n        /* \"#utility.yul\":859:905   */\n      swap2\n      pop\n        /* \"#utility.yul\":628:911   */\n      pop\n        /* \"#utility.yul\":538:911   */\n      swap3\n      swap2\n      pop\n      pop\n      jump\t// out\n        /* \"#utility.yul\":917:1226   */\n    tag_9:\n        /* \"#utility.yul\":1028:1032   */\n      0x00\n        /* \"#utility.yul\":1066:1068   */\n      0x20\n        /* \"#utility.yul\":1055:1064   */\n      dup3\n        /* \"#utility.yul\":1051:1069   */\n      add\n        /* \"#utility.yul\":1043:1069   */\n      swap1\n      pop\n        /* \"#utility.yul\":1115:1124   */\n      dup2\n        /* \"#utility.yul\":1109:1113   */\n      dup2\n        /* \"#utility.yul\":1105:1125   */\n      sub\n        /* \"#utility.yul\":1101:1102   */\n      0x00\n        /* \"#utility.yul\":1090:1099   */\n      dup4\n        /* \"#utility.yul\":1086:1103   */\n      add\n        /* \"#utility.yul\":1079:1126   */\n      mstore\n        /* \"#utility.yul\":1143:1219   */\n      tag_81\n        /* \"#utility.yul\":1214:1218   */\n      dup2\n        /* \"#utility.yul\":1205:1211   */\n      dup5\n        /* \"#utility.yul\":1143:1219   */\n      tag_37\n      jump\t// in\n    tag_81:\n        /* \"#utility.yul\":1135:1219   */\n      swap1\n      pop\n        /* \"#utility.yul\":917:1226   */\n      swap3\n      swap2\n      pop\n      pop\n      jump\t// out\n        /* \"#utility.yul\":1232:1307   */\n    tag_38:\n        /* \"#utility.yul\":1265:1271   */\n      0x00\n        /* \"#utility.yul\":1298:1300   */\n      0x40\n        /* \"#utility.yul\":1292:1301   */\n      mload\n        /* \"#utility.yul\":1282:1301   */\n      swap1\n      pop\n        /* \"#utility.yul\":1232:1307   */\n      swap1\n      jump\t// out\n        /* \"#utility.yul\":1313:1430   */\n    tag_39:\n        /* \"#utility.yul\":1422:1423   */\n      0x00\n        /* \"#utility.yul\":1419:1420   */\n      0x00\n        /* \"#utility.yul\":1412:1424   */\n      revert\n        /* \"#utility.yul\":1436:1553   */\n    tag_40:\n        /* \"#utility.yul\":1545:1546   */\n      0x00\n        /* \"#utility.yul\":1542:1543   */\n      0x00\n        /* \"#utility.yul\":1535:1547   */\n      revert\n        /* \"#utility.yul\":1559:1676   */\n    tag_41:\n        /* \"#utility.yul\":1668:1669   */\n      0x00\n        /* \"#utility.yul\":1665:1666   */\n      0x00\n        /* \"#utility.yul\":1658:1670   */\n      revert\n        /* \"#utility.yul\":1682:1799   */\n    tag_42:\n        /* \"#utility.yul\":1791:1792   */\n      0x00\n        /* \"#utility.yul\":1788:1789   */\n      0x00\n        /* \"#utility.yul\":1781:1793   */\n      revert\n        /* \"#utility.yul\":1805:1985   */\n    tag_43:\n        /* \"#utility.yul\":1853:1930   */\n      0x4e487b7100000000000000000000000000000000000000000000000000000000\n        /* \"#utility.yul\":1850:1851   */\n      0x00\n        /* \"#utility.yul\":1843:1931   */\n      mstore\n        /* \"#utility.yul\":1950:1954   */\n      0x41\n        /* \"#utility.yul\":1947:1948   */\n      0x04\n        /* \"#utility.yul\":1940:1955   */\n      mstore\n        /* \"#utility.yul\":1974:1978   */\n      0x24\n        /* \"#utility.yul\":1971:1972   */\n      0x00\n        /* \"#utility.yul\":1964:1979   */\n      revert\n        /* \"#utility.yul\":1991:2272   */\n    tag_44:\n        /* \"#utility.yul\":2074:2101   */\n      tag_89\n        /* \"#utility.yul\":2096:2100   */\n      dup3\n        /* \"#utility.yul\":2074:2101   */\n      tag_36\n      jump\t// in\n    tag_89:\n        /* \"#utility.yul\":2066:2072   */\n      dup2\n        /* \"#utility.yul\":2062:2102   */\n      add\n        /* \"#utility.yul\":2204:2210   */\n      dup2\n        /* \"#utility.yul\":2192:2202   */\n      dup2\n        /* \"#utility.yul\":2189:2211   */\n      lt\n        /* \"#utility.yul\":2168:2186   */\n      0xffffffffffffffff\n        /* \"#utility.yul\":2156:2166   */\n      dup3\n        /* \"#utility.yul\":2153:2187   */\n      gt\n        /* \"#utility.yul\":2150:2212   */\n      or\n        /* \"#utility.yul\":2147:2235   */\n      iszero\n      tag_90\n      jumpi\n        /* \"#utility.yul\":2215:2233   */\n      tag_91\n      tag_43\n      jump\t// in\n    tag_91:\n        /* \"#utility.yul\":2147:2235   */\n    tag_90:\n        /* \"#utility.yul\":2255:2265   */\n      dup1\n        /* \"#utility.yul\":2251:2253   */\n      0x40\n        /* \"#utility.yul\":2244:2266   */\n      mstore\n        /* \"#utility.yul\":2034:2272   */\n      pop\n        /* \"#utility.yul\":1991:2272   */\n      pop\n      pop\n      jump\t// out\n        /* \"#utility.yul\":2278:2407   */\n    tag_45:\n        /* \"#utility.yul\":2312:2318   */\n      0x00\n        /* \"#utility.yul\":2339:2359   */\n      tag_93\n      tag_38\n      jump\t// in\n    tag_93:\n        /* \"#utility.yul\":2329:2359   */\n      swap1\n      pop\n        /* \"#utility.yul\":2368:2401   */\n      tag_94\n        /* \"#utility.yul\":2396:2400   */\n      dup3\n        /* \"#utility.yul\":2388:2394   */\n      dup3\n        /* \"#utility.yul\":2368:2401   */\n      tag_44\n      jump\t// in\n    tag_94:\n        /* \"#utility.yul\":2278:2407   */\n      swap2\n      swap1\n      pop\n      jump\t// out\n        /* \"#utility.yul\":2413:2720   */\n    tag_46:\n        /* \"#utility.yul\":2474:2478   */\n      0x00\n        /* \"#utility.yul\":2564:2582   */\n      0xffffffffffffffff\n        /* \"#utility.yul\":2556:2562   */\n      dup3\n        /* \"#utility.yul\":2553:2583   */\n      gt\n        /* \"#utility.yul\":2550:2606   */\n      iszero\n      tag_96\n      jumpi\n        /* \"#utility.yul\":2586:2604   */\n      tag_97\n      tag_43\n      jump\t// in\n    tag_97:\n        /* \"#utility.yul\":2550:2606   */\n    tag_96:\n        /* \"#utility.yul\":2624:2653   */\n      tag_98\n        /* \"#utility.yul\":2646:2652   */\n      dup3\n        /* \"#utility.yul\":2624:2653   */\n      tag_36\n      jump\t// in\n    tag_98:\n        /* \"#utility.yul\":2616:2653   */\n      swap1\n      pop\n        /* \"#utility.yul\":2708:2712   */\n      0x20\n        /* \"#utility.yul\":2702:2706   */\n      dup2\n        /* \"#utility.yul\":2698:2713   */\n      add\n        /* \"#utility.yul\":2690:2713   */\n      swap1\n      pop\n        /* \"#utility.yul\":2413:2720   */\n      swap2\n      swap1\n      pop\n      jump\t// out\n        /* \"#utility.yul\":2726:2874   */\n    tag_47:\n        /* \"#utility.yul\":2824:2830   */\n      dup3\n        /* \"#utility.yul\":2819:2822   */\n      dup2\n        /* \"#utility.yul\":2814:2817   */\n      dup4\n        /* \"#utility.yul\":2801:2831   */\n      calldatacopy\n        /* \"#utility.yul\":2865:2866   */\n      0x00\n        /* \"#utility.yul\":2856:2862   */\n      dup4\n        /* \"#utility.yul\":2851:2854   */\n      dup4\n        /* \"#utility.yul\":2847:2863   */\n      add\n        /* \"#utility.yul\":2840:2867   */\n      mstore\n        /* \"#utility.yul\":2726:2874   */\n      pop\n      pop\n      pop\n      jump\t// out\n        /* \"#utility.yul\":2880:3303   */\n    tag_48:\n        /* \"#utility.yul\":2957:2962   */\n      0x00\n        /* \"#utility.yul\":2982:3047   */\n      tag_101\n        /* \"#utility.yul\":2998:3046   */\n      tag_102\n        /* \"#utility.yul\":3039:3045   */\n      dup5\n        /* \"#utility.yul\":2998:3046   */\n      tag_46\n      jump\t// in\n    tag_102:\n        /* \"#utility.yul\":2982:3047   */\n      tag_45\n      jump\t// in\n    tag_101:\n        /* \"#utility.yul\":2973:3047   */\n      swap1\n      pop\n        /* \"#utility.yul\":3070:3076   */\n      dup3\n        /* \"#utility.yul\":3063:3068   */\n      dup2\n        /* \"#utility.yul\":3056:3077   */\n      mstore\n        /* \"#utility.yul\":3108:3112   */\n      0x20\n        /* \"#utility.yul\":3101:3106   */\n      dup2\n        /* \"#utility.yul\":3097:3113   */\n      add\n        /* \"#utility.yul\":3146:3149   */\n      dup5\n        /* \"#utility.yul\":3137:3143   */\n      dup5\n        /* \"#utility.yul\":3132:3135   */\n      dup5\n        /* \"#utility.yul\":3128:3144   */\n      add\n        /* \"#utility.yul\":3125:3150   */\n      gt\n        /* \"#utility.yul\":3122:3234   */\n      iszero\n      tag_103\n      jumpi\n        /* \"#utility.yul\":3153:3232   */\n      tag_104\n      tag_42\n      jump\t// in\n    tag_104:\n        /* \"#utility.yul\":3122:3234   */\n    tag_103:\n        /* \"#utility.yul\":3243:3297   */\n      tag_105\n        /* \"#utility.yul\":3290:3296   */\n      dup5\n        /* \"#utility.yul\":3285:3288   */\n      dup3\n        /* \"#utility.yul\":3280:3283   */\n      dup6\n        /* \"#utility.yul\":3243:3297   */\n      tag_47\n      jump\t// in\n    tag_105:\n        /* \"#utility.yul\":2963:3303   */\n      pop\n        /* \"#utility.yul\":2880:3303   */\n      swap4\n      swap3\n      pop\n      pop\n      pop\n      jump\t// out\n        /* \"#utility.yul\":3322:3660   */\n    tag_49:\n        /* \"#utility.yul\":3377:3382   */\n      0x00\n        /* \"#utility.yul\":3426:3429   */\n      dup3\n        /* \"#utility.yul\":3419:3423   */\n      0x1f\n        /* \"#utility.yul\":3411:3417   */\n      dup4\n        /* \"#utility.yul\":3407:3424   */\n      add\n        /* \"#utility.yul\":3403:3430   */\n      slt\n        /* \"#utility.yul\":3393:3515   */\n      tag_107\n      jumpi\n        /* \"#utility.yul\":3434:3513   */\n      tag_108\n      tag_41\n      jump\t// in\n    tag_108:\n        /* \"#utility.yul\":3393:3515   */\n    tag_107:\n        /* \"#utility.yul\":3551:3557   */\n      dup2\n        /* \"#utility.yul\":3538:3558   */\n      calldataload\n        /* \"#utility.yul\":3576:3654   */\n      tag_109\n        /* \"#utility.yul\":3650:3653   */\n      dup5\n        /* \"#utility.yul\":3642:3648   */\n      dup3\n        /* \"#utility.yul\":3635:3639   */\n      0x20\n        /* \"#utility.yul\":3627:3633   */\n      dup7\n        /* \"#utility.yul\":3623:3640   */\n      add\n        /* \"#utility.yul\":3576:3654   */\n      tag_48\n      jump\t// in\n    tag_109:\n        /* \"#utility.yul\":3567:3654   */\n      swap2\n      pop\n        /* \"#utility.yul\":3383:3660   */\n      pop\n        /* \"#utility.yul\":3322:3660   */\n      swap3\n      swap2\n      pop\n      pop\n      jump\t// out\n        /* \"#utility.yul\":3666:4173   */\n    tag_15:\n        /* \"#utility.yul\":3734:3740   */\n      0x00\n        /* \"#utility.yul\":3783:3785   */\n      0x20\n        /* \"#utility.yul\":3771:3780   */\n      dup3\n        /* \"#utility.yul\":3762:3769   */\n      dup5\n        /* \"#utility.yul\":3758:3781   */\n      sub\n        /* \"#utility.yul\":3754:3786   */\n      slt\n        /* \"#utility.yul\":3751:3870   */\n      iszero\n      tag_111\n      jumpi\n        /* \"#utility.yul\":3789:3868   */\n      tag_112\n      tag_39\n      jump\t// in\n    tag_112:\n        /* \"#utility.yul\":3751:3870   */\n    tag_111:\n        /* \"#utility.yul\":3937:3938   */\n      0x00\n        /* \"#utility.yul\":3926:3935   */\n      dup3\n        /* \"#utility.yul\":3922:3939   */\n      add\n        /* \"#utility.yul\":3909:3940   */\n      calldataload\n        /* \"#utility.yul\":3967:3985   */\n      0xffffffffffffffff\n        /* \"#utility.yul\":3959:3965   */\n      dup2\n        /* \"#utility.yul\":3956:3986   */\n      gt\n        /* \"#utility.yul\":3953:4070   */\n      iszero\n      tag_113\n      jumpi\n        /* \"#utility.yul\":3989:4068   */\n      tag_114\n      tag_40\n      jump\t// in\n    tag_114:\n        /* \"#utility.yul\":3953:4070   */\n    tag_113:\n        /* \"#utility.yul\":4094:4156   */\n      tag_115\n        /* \"#utility.yul\":4148:4155   */\n      dup5\n        /* \"#utility.yul\":4139:4145   */\n      dup3\n        /* \"#utility.yul\":4128:4137   */\n      dup6\n        /* \"#utility.yul\":4124:4146   */\n      add\n        /* \"#utility.yul\":4094:4156   */\n      tag_49\n      jump\t// in\n    tag_115:\n        /* \"#utility.yul\":4084:4156   */\n      swap2\n      pop\n        /* \"#utility.yul\":3880:4166   */\n      pop\n        /* \"#utility.yul\":3666:4173   */\n      swap3\n      swap2\n      pop\n      pop\n      jump\t// out\n        /* \"#utility.yul\":4179:4359   */\n    tag_50:\n        /* \"#utility.yul\":4227:4304   */\n      0x4e487b7100000000000000000000000000000000000000000000000000000000\n        /* \"#utility.yul\":4224:4225   */\n      0x00\n        /* \"#utility.yul\":4217:4305   */\n      mstore\n        /* \"#utility.yul\":4324:4328   */\n      0x22\n        /* \"#utility.yul\":4321:4322   */\n      0x04\n        /* \"#utility.yul\":4314:4329   */\n      mstore\n        /* \"#utility.yul\":4348:4352   */\n      0x24\n        /* \"#utility.yul\":4345:4346   */\n      0x00\n        /* \"#utility.yul\":4338:4353   */\n      revert\n        /* \"#utility.yul\":4365:4685   */\n    tag_18:\n        /* \"#utility.yul\":4409:4415   */\n      0x00\n        /* \"#utility.yul\":4446:4447   */\n      0x02\n        /* \"#utility.yul\":4440:4444   */\n      dup3\n        /* \"#utility.yul\":4436:4448   */\n      div\n        /* \"#utility.yul\":4426:4448   */\n      swap1\n      pop\n        /* \"#utility.yul\":4493:4494   */\n      0x01\n        /* \"#utility.yul\":4487:4491   */\n      dup3\n        /* \"#utility.yul\":4483:4495   */\n      and\n        /* \"#utility.yul\":4514:4532   */\n      dup1\n        /* \"#utility.yul\":4504:4585   */\n      tag_118\n      jumpi\n        /* \"#utility.yul\":4570:4574   */\n      0x7f\n        /* \"#utility.yul\":4562:4568   */\n      dup3\n        /* \"#utility.yul\":4558:4575   */\n      and\n        /* \"#utility.yul\":4548:4575   */\n      swap2\n      pop\n        /* \"#utility.yul\":4504:4585   */\n    tag_118:\n        /* \"#utility.yul\":4632:4634   */\n      0x20\n        /* \"#utility.yul\":4624:4630   */\n      dup3\n        /* \"#utility.yul\":4621:4635   */\n      lt\n        /* \"#utility.yul\":4601:4619   */\n      dup2\n        /* \"#utility.yul\":4598:4636   */\n      sub\n        /* \"#utility.yul\":4595:4679   */\n      tag_119\n      jumpi\n        /* \"#utility.yul\":4651:4669   */\n      tag_120\n      tag_50\n      jump\t// in\n    tag_120:\n        /* \"#utility.yul\":4595:4679   */\n    tag_119:\n        /* \"#utility.yul\":4416:4685   */\n      pop\n        /* \"#utility.yul\":4365:4685   */\n      swap2\n      swap1\n      pop\n      jump\t// out\n        /* \"#utility.yul\":4691:4838   */\n    tag_51:\n        /* \"#utility.yul\":4792:4803   */\n      0x00\n        /* \"#utility.yul\":4829:4832   */\n      dup2\n        /* \"#utility.yul\":4814:4832   */\n      swap1\n      pop\n        /* \"#utility.yul\":4691:4838   */\n      swap3\n      swap2\n      pop\n      pop\n      jump\t// out\n        /* \"#utility.yul\":4844:4984   */\n    tag_52:\n        /* \"#utility.yul\":4892:4896   */\n      0x00\n        /* \"#utility.yul\":4915:4918   */\n      dup2\n        /* \"#utility.yul\":4907:4918   */\n      swap1\n      pop\n        /* \"#utility.yul\":4938:4941   */\n      dup2\n        /* \"#utility.yul\":4935:4936   */\n      0x00\n        /* \"#utility.yul\":4928:4942   */\n      mstore\n        /* \"#utility.yul\":4972:4976   */\n      0x20\n        /* \"#utility.yul\":4969:4970   */\n      0x00\n        /* \"#utility.yul\":4959:4977   */\n      keccak256\n        /* \"#utility.yul\":4951:4977   */\n      swap1\n      pop\n        /* \"#utility.yul\":4844:4984   */\n      swap2\n      swap1\n      pop\n      jump\t// out\n        /* \"#utility.yul\":5012:5882   */\n    tag_53:\n        /* \"#utility.yul\":5113:5116   */\n      0x00\n        /* \"#utility.yul\":5150:5155   */\n      dup2\n        /* \"#utility.yul\":5144:5156   */\n      sload\n        /* \"#utility.yul\":5179:5215   */\n      tag_124\n        /* \"#utility.yul\":5205:5214   */\n      dup2\n        /* \"#utility.yul\":5179:5215   */\n      tag_18\n      jump\t// in\n    tag_124:\n        /* \"#utility.yul\":5231:5319   */\n      tag_125\n        /* \"#utility.yul\":5312:5318   */\n      dup2\n        /* \"#utility.yul\":5307:5310   */\n      dup7\n        /* \"#utility.yul\":5231:5319   */\n      tag_51\n      jump\t// in\n    tag_125:\n        /* \"#utility.yul\":5224:5319   */\n      swap5\n      pop\n        /* \"#utility.yul\":5350:5351   */\n      0x01\n        /* \"#utility.yul\":5339:5348   */\n      dup3\n        /* \"#utility.yul\":5335:5352   */\n      and\n        /* \"#utility.yul\":5366:5367   */\n      0x00\n        /* \"#utility.yul\":5361:5527   */\n      dup2\n      eq\n      tag_127\n      jumpi\n        /* \"#utility.yul\":5541:5542   */\n      0x01\n        /* \"#utility.yul\":5536:5876   */\n      dup2\n      eq\n      tag_128\n      jumpi\n        /* \"#utility.yul\":5328:5876   */\n      jump(tag_126)\n        /* \"#utility.yul\":5361:5527   */\n    tag_127:\n        /* \"#utility.yul\":5445:5449   */\n      0xff\n        /* \"#utility.yul\":5441:5450   */\n      not\n        /* \"#utility.yul\":5430:5439   */\n      dup4\n        /* \"#utility.yul\":5426:5451   */\n      and\n        /* \"#utility.yul\":5421:5424   */\n      dup7\n        /* \"#utility.yul\":5414:5452   */\n      mstore\n        /* \"#utility.yul\":5507:5513   */\n      dup2\n        /* \"#utility.yul\":5500:5514   */\n      iszero\n        /* \"#utility.yul\":5493:5515   */\n      iszero\n        /* \"#utility.yul\":5485:5491   */\n      dup3\n        /* \"#utility.yul\":5481:5516   */\n      mul\n        /* \"#utility.yul\":5476:5479   */\n      dup7\n        /* \"#utility.yul\":5472:5517   */\n      add\n        /* \"#utility.yul\":5465:5517   */\n      swap4\n      pop\n        /* \"#utility.yul\":5361:5527   */\n      jump(tag_126)\n        /* \"#utility.yul\":5536:5876   */\n    tag_128:\n        /* \"#utility.yul\":5603:5640   */\n      tag_129\n        /* \"#utility.yul\":5634:5639   */\n      dup6\n        /* \"#utility.yul\":5603:5640   */\n      tag_52\n      jump\t// in\n    tag_129:\n        /* \"#utility.yul\":5662:5663   */\n      0x00\n        /* \"#utility.yul\":5676:5830   */\n    tag_130:\n        /* \"#utility.yul\":5690:5696   */\n      dup4\n        /* \"#utility.yul\":5687:5688   */\n      dup2\n        /* \"#utility.yul\":5684:5697   */\n      lt\n        /* \"#utility.yul\":5676:5830   */\n      iszero\n      tag_132\n      jumpi\n        /* \"#utility.yul\":5764:5771   */\n      dup2\n        /* \"#utility.yul\":5758:5772   */\n      sload\n        /* \"#utility.yul\":5754:5755   */\n      dup2\n        /* \"#utility.yul\":5749:5752   */\n      dup10\n        /* \"#utility.yul\":5745:5756   */\n      add\n        /* \"#utility.yul\":5738:5773   */\n      mstore\n        /* \"#utility.yul\":5814:5815   */\n      0x01\n        /* \"#utility.yul\":5805:5812   */\n      dup3\n        /* \"#utility.yul\":5801:5816   */\n      add\n        /* \"#utility.yul\":5790:5816   */\n      swap2\n      pop\n        /* \"#utility.yul\":5712:5716   */\n      0x20\n        /* \"#utility.yul\":5709:5710   */\n      dup2\n        /* \"#utility.yul\":5705:5717   */\n      add\n        /* \"#utility.yul\":5700:5717   */\n      swap1\n      pop\n        /* \"#utility.yul\":5676:5830   */\n      jump(tag_130)\n    tag_132:\n        /* \"#utility.yul\":5859:5865   */\n      dup4\n        /* \"#utility.yul\":5854:5857   */\n      dup9\n        /* \"#utility.yul\":5850:5866   */\n      add\n        /* \"#utility.yul\":5843:5866   */\n      swap6\n      pop\n        /* \"#utility.yul\":5543:5876   */\n      pop\n      pop\n        /* \"#utility.yul\":5328:5876   */\n    tag_126:\n      pop\n        /* \"#utility.yul\":5117:5882   */\n      pop\n      pop\n        /* \"#utility.yul\":5012:5882   */\n      swap3\n      swap2\n      pop\n      pop\n      jump\t// out\n        /* \"#utility.yul\":5888:6274   */\n    tag_54:\n        /* \"#utility.yul\":5992:5995   */\n      0x00\n        /* \"#utility.yul\":6020:6058   */\n      tag_134\n        /* \"#utility.yul\":6052:6057   */\n      dup3\n        /* \"#utility.yul\":6020:6058   */\n      tag_33\n      jump\t// in\n    tag_134:\n        /* \"#utility.yul\":6074:6162   */\n      tag_135\n        /* \"#utility.yul\":6155:6161   */\n      dup2\n        /* \"#utility.yul\":6150:6153   */\n      dup6\n        /* \"#utility.yul\":6074:6162   */\n      tag_51\n      jump\t// in\n    tag_135:\n        /* \"#utility.yul\":6067:6162   */\n      swap4\n      pop\n        /* \"#utility.yul\":6171:6236   */\n      tag_136\n        /* \"#utility.yul\":6229:6235   */\n      dup2\n        /* \"#utility.yul\":6224:6227   */\n      dup6\n        /* \"#utility.yul\":6217:6221   */\n      0x20\n        /* \"#utility.yul\":6210:6215   */\n      dup7\n        /* \"#utility.yul\":6206:6222   */\n      add\n        /* \"#utility.yul\":6171:6236   */\n      tag_35\n      jump\t// in\n    tag_136:\n        /* \"#utility.yul\":6261:6267   */\n      dup1\n        /* \"#utility.yul\":6256:6259   */\n      dup5\n        /* \"#utility.yul\":6252:6268   */\n      add\n        /* \"#utility.yul\":6245:6268   */\n      swap2\n      pop\n        /* \"#utility.yul\":5996:6274   */\n      pop\n        /* \"#utility.yul\":5888:6274   */\n      swap3\n      swap2\n      pop\n      pop\n      jump\t// out\n        /* \"#utility.yul\":6280:6701   */\n    tag_30:\n        /* \"#utility.yul\":6453:6456   */\n      0x00\n        /* \"#utility.yul\":6475:6565   */\n      tag_138\n        /* \"#utility.yul\":6561:6564   */\n      dup3\n        /* \"#utility.yul\":6552:6558   */\n      dup6\n        /* \"#utility.yul\":6475:6565   */\n      tag_53\n      jump\t// in\n    tag_138:\n        /* \"#utility.yul\":6468:6565   */\n      swap2\n      pop\n        /* \"#utility.yul\":6582:6675   */\n      tag_139\n        /* \"#utility.yul\":6671:6674   */\n      dup3\n        /* \"#utility.yul\":6662:6668   */\n      dup5\n        /* \"#utility.yul\":6582:6675   */\n      tag_54\n      jump\t// in\n    tag_139:\n        /* \"#utility.yul\":6575:6675   */\n      swap2\n      pop\n        /* \"#utility.yul\":6692:6695   */\n      dup2\n        /* \"#utility.yul\":6685:6695   */\n      swap1\n      pop\n        /* \"#utility.yul\":6280:6701   */\n      swap4\n      swap3\n      pop\n      pop\n      pop\n      jump\t// out\n        /* \"#utility.yul\":6707:6800   */\n    tag_55:\n        /* \"#utility.yul\":6744:6750   */\n      0x00\n        /* \"#utility.yul\":6791:6793   */\n      0x20\n        /* \"#utility.yul\":6786:6788   */\n      0x1f\n        /* \"#utility.yul\":6779:6784   */\n      dup4\n        /* \"#utility.yul\":6775:6789   */\n      add\n        /* \"#utility.yul\":6771:6794   */\n      div\n        /* \"#utility.yul\":6761:6794   */\n      swap1\n      pop\n        /* \"#utility.yul\":6707:6800   */\n      swap2\n      swap1\n      pop\n      jump\t// out\n        /* \"#utility.yul\":6806:6913   */\n    tag_56:\n        /* \"#utility.yul\":6850:6858   */\n      0x00\n        /* \"#utility.yul\":6900:6905   */\n      dup3\n        /* \"#utility.yul\":6894:6898   */\n      dup3\n        /* \"#utility.yul\":6890:6906   */\n      shl\n        /* \"#utility.yul\":6869:6906   */\n      swap1\n      pop\n        /* \"#utility.yul\":6806:6913   */\n      swap3\n      swap2\n      pop\n      pop\n      jump\t// out\n        /* \"#utility.yul\":6919:7312   */\n    tag_57:\n        /* \"#utility.yul\":6988:6994   */\n      0x00\n        /* \"#utility.yul\":7038:7039   */\n      0x08\n        /* \"#utility.yul\":7026:7036   */\n      dup4\n        /* \"#utility.yul\":7022:7040   */\n      mul\n        /* \"#utility.yul\":7061:7158   */\n      tag_143\n        /* \"#utility.yul\":7091:7157   */\n      0xffffffffffffffffffffffffffffffffffffffffffffffffffffffffffffffff\n        /* \"#utility.yul\":7080:7089   */\n      dup3\n        /* \"#utility.yul\":7061:7158   */\n      tag_56\n      jump\t// in\n    tag_143:\n        /* \"#utility.yul\":7179:7218   */\n      tag_144\n        /* \"#utility.yul\":7209:7217   */\n      dup7\n        /* \"#utility.yul\":7198:7207   */\n      dup4\n        /* \"#utility.yul\":7179:7218   */\n      tag_56\n      jump\t// in\n    tag_144:\n        /* \"#utility.yul\":7167:7218   */\n      swap6\n      pop\n        /* \"#utility.yul\":7251:7255   */\n      dup1\n        /* \"#utility.yul\":7247:7256   */\n      not\n        /* \"#utility.yul\":7240:7245   */\n      dup5\n        /* \"#utility.yul\":7236:7257   */\n      and\n        /* \"#utility.yul\":7227:7257   */\n      swap4\n      pop\n        /* \"#utility.yul\":7300:7304   */\n      dup1\n        /* \"#utility.yul\":7290:7298   */\n      dup7\n        /* \"#utility.yul\":7286:7305   */\n      and\n        /* \"#utility.yul\":7279:7284   */\n      dup5\n        /* \"#utility.yul\":7276:7306   */\n      or\n        /* \"#utility.yul\":7266:7306   */\n      swap3\n      pop\n        /* \"#utility.yul\":6995:7312   */\n      pop\n      pop\n        /* \"#utility.yul\":6919:7312   */\n      swap4\n      swap3\n      pop\n      pop\n      pop\n      jump\t// out\n        /* \"#utility.yul\":7318:7395   */\n    tag_58:\n        /* \"#utility.yul\":7355:7362   */\n      0x00\n        /* \"#utility.yul\":7384:7389   */\n      dup2\n        /* \"#utility.yul\":7373:7389   */\n      swap1\n      pop\n        /* \"#utility.yul\":7318:7395   */\n      swap2\n      swap1\n      pop\n      jump\t// out\n        /* \"#utility.yul\":7401:7461   */\n    tag_59:\n        /* \"#utility.yul\":7429:7432   */\n      0x00\n        /* \"#utility.yul\":7450:7455   */\n      dup2\n        /* \"#utility.yul\":7443:7455   */\n      swap1\n      pop\n        /* \"#utility.yul\":7401:7461   */\n      swap2\n      swap1\n      pop\n      jump\t// out\n        /* \"#utility.yul\":7467:7609   */\n    tag_60:\n        /* \"#utility.yul\":7517:7526   */\n      0x00\n        /* \"#utility.yul\":7550:7603   */\n      tag_148\n        /* \"#utility.yul\":7568:7602   */\n      tag_149\n        /* \"#utility.yul\":7577:7601   */\n      tag_150\n        /* \"#utility.yul\":7595:7600   */\n      dup5\n        /* \"#utility.yul\":7577:7601   */\n      tag_58\n      jump\t// in\n    tag_150:\n        /* \"#utility.yul\":7568:7602   */\n      tag_59\n      jump\t// in\n    tag_149:\n        /* \"#utility.yul\":7550:7603   */\n      tag_58\n      jump\t// in\n    tag_148:\n        /* \"#utility.yul\":7537:7603   */\n      swap1\n      pop\n        /* \"#utility.yul\":7467:7609   */\n      swap2\n      swap1\n      pop\n      jump\t// out\n        /* \"#utility.yul\":7615:7690   */\n    tag_61:\n        /* \"#utility.yul\":7658:7661   */\n      0x00\n        /* \"#utility.yul\":7679:7684   */\n      dup2\n        /* \"#utility.yul\":7672:7684   */\n      swap1\n      pop\n        /* \"#utility.yul\":7615:7690   */\n      swap2\n      swap1\n      pop\n      jump\t// out\n        /* \"#utility.yul\":7696:7965   */\n    tag_62:\n        /* \"#utility.yul\":7806:7845   */\n      tag_153\n        /* \"#utility.yul\":7837:7844   */\n      dup4\n        /* \"#utility.yul\":7806:7845   */\n      tag_60\n      jump\t// in\n    tag_153:\n        /* \"#utility.yul\":7867:7958   */\n      tag_154\n        /* \"#utility.yul\":7916:7957   */\n      tag_155\n        /* \"#utility.yul\":7940:7956   */\n      dup3\n        /* \"#utility.yul\":7916:7957   */\n      tag_61\n      jump\t// in\n    tag_155:\n        /* \"#utility.yul\":7908:7914   */\n      dup5\n        /* \"#utility.yul\":7901:7905   */\n      dup5\n        /* \"#utility.yul\":7895:7906   */\n      sload\n        /* \"#utility.yul\":7867:7958   */\n      tag_57\n      jump\t// in\n    tag_154:\n        /* \"#utility.yul\":7861:7865   */\n      dup3\n        /* \"#utility.yul\":7854:7959   */\n      sstore\n        /* \"#utility.yul\":7772:7965   */\n      pop\n        /* \"#utility.yul\":7696:7965   */\n      pop\n      pop\n      pop\n      jump\t// out\n        /* \"#utility.yul\":7971:8044   */\n    tag_63:\n        /* \"#utility.yul\":8016:8019   */\n      0x00\n        /* \"#utility.yul\":8037:8038   */\n      0x00\n        /* \"#utility.yul\":8030:8038   */\n      swap1\n      pop\n        /* \"#utility.yul\":7971:8044   */\n      swap1\n      jump\t// out\n        /* \"#utility.yul\":8050:8239   */\n    tag_64:\n        /* \"#utility.yul\":8127:8159   */\n      tag_158\n      tag_63\n      jump\t// in\n    tag_158:\n        /* \"#utility.yul\":8168:8233   */\n      tag_159\n        /* \"#utility.yul\":8226:8232   */\n      dup2\n        /* \"#utility.yul\":8218:8224   */\n      dup5\n        /* \"#utility.yul\":8212:8216   */\n      dup5\n        /* \"#utility.yul\":8168:8233   */\n      tag_62\n      jump\t// in\n    tag_159:\n        /* \"#utility.yul\":8103:8239   */\n      pop\n        /* \"#utility.yul\":8050:8239   */\n      pop\n      pop\n      jump\t// out\n        /* \"#utility.yul\":8245:8431   */\n    tag_65:\n        /* \"#utility.yul\":8305:8425   */\n    tag_161:\n        /* \"#utility.yul\":8322:8325   */\n      dup2\n        /* \"#utility.yul\":8315:8320   */\n      dup2\n        /* \"#utility.yul\":8312:8326   */\n      lt\n        /* \"#utility.yul\":8305:8425   */\n      iszero\n      tag_163\n      jumpi\n        /* \"#utility.yul\":8376:8415   */\n      tag_164\n        /* \"#utility.yul\":8413:8414   */\n      0x00\n        /* \"#utility.yul\":8406:8411   */\n      dup3\n        /* \"#utility.yul\":8376:8415   */\n      tag_64\n      jump\t// in\n    tag_164:\n        /* \"#utility.yul\":8349:8350   */\n      0x01\n        /* \"#utility.yul\":8342:8347   */\n      dup2\n        /* \"#utility.yul\":8338:8351   */\n      add\n        /* \"#utility.yul\":8329:8351   */\n      swap1\n      pop\n        /* \"#utility.yul\":8305:8425   */\n      jump(tag_161)\n    tag_163:\n        /* \"#utility.yul\":8245:8431   */\n      pop\n      pop\n      jump\t// out\n        /* \"#utility.yul\":8437:8978   */\n    tag_66:\n        /* \"#utility.yul\":8537:8539   */\n      0x1f\n        /* \"#utility.yul\":8532:8535   */\n      dup3\n        /* \"#utility.yul\":8529:8540   */\n      gt\n        /* \"#utility.yul\":8526:8971   */\n      iszero\n      tag_166\n      jumpi\n        /* \"#utility.yul\":8571:8608   */\n      tag_167\n        /* \"#utility.yul\":8602:8607   */\n      dup2\n        /* \"#utility.yul\":8571:8608   */\n      tag_52\n      jump\t// in\n    tag_167:\n        /* \"#utility.yul\":8654:8683   */\n      tag_168\n        /* \"#utility.yul\":8672:8682   */\n      dup5\n        /* \"#utility.yul\":8654:8683   */\n      tag_55\n      jump\t// in\n    tag_168:\n        /* \"#utility.yul\":8644:8652   */\n      dup2\n        /* \"#utility.yul\":8640:8684   */\n      add\n        /* \"#utility.yul\":8837:8839   */\n      0x20\n        /* \"#utility.yul\":8825:8835   */\n      dup6\n        /* \"#utility.yul\":8822:8840   */\n      lt\n        /* \"#utility.yul\":8819:8868   */\n      iszero\n      tag_169\n      jumpi\n        /* \"#utility.yul\":8858:8866   */\n      dup2\n        /* \"#utility.yul\":8843:8866   */\n      swap1\n      pop\n        /* \"#utility.yul\":8819:8868   */\n    tag_169:\n        /* \"#utility.yul\":8881:8961   */\n      tag_170\n        /* \"#utility.yul\":8937:8959   */\n      tag_171\n        /* \"#utility.yul\":8955:8958   */\n      dup6\n        /* \"#utility.yul\":8937:8959   */\n      tag_55\n      jump\t// in\n    tag_171:\n        /* \"#utility.yul\":8927:8935   */\n      dup4\n        /* \"#utility.yul\":8923:8960   */\n      add\n        /* \"#utility.yul\":8910:8921   */\n      dup3\n        /* \"#utility.yul\":8881:8961   */\n      tag_65\n      jump\t// in\n    tag_170:\n        /* \"#utility.yul\":8541:8971   */\n      pop\n      pop\n        /* \"#utility.yul\":8526:8971   */\n    tag_166:\n        /* \"#utility.yul\":8437:8978   */\n      pop\n      pop\n      pop\n      jump\t// out\n        /* \"#utility.yul\":8984:9101   */\n    tag_67:\n        /* \"#utility.yul\":9038:9046   */\n      0x00\n        /* \"#utility.yul\":9088:9093   */\n      dup3\n        /* \"#utility.yul\":9082:9086   */\n      dup3\n        /* \"#utility.yul\":9078:9094   */\n      shr\n        /* \"#utility.yul\":9057:9094   */\n      swap1\n      pop\n        /* \"#utility.yul\":8984:9101   */\n      swap3\n      swap2\n      pop\n      pop\n      jump\t// out\n        /* \"#utility.yul\":9107:9276   */\n    tag_68:\n        /* \"#utility.yul\":9151:9157   */\n      0x00\n        /* \"#utility.yul\":9184:9235   */\n      tag_174\n        /* \"#utility.yul\":9232:9233   */\n      0x00\n        /* \"#utility.yul\":9228:9234   */\n      not\n        /* \"#utility.yul\":9220:9225   */\n      dup5\n        /* \"#utility.yul\":9217:9218   */\n      0x08\n        /* \"#utility.yul\":9213:9226   */\n      mul\n        /* \"#utility.yul\":9184:9235   */\n      tag_67\n      jump\t// in\n    tag_174:\n        /* \"#utility.yul\":9180:9236   */\n      not\n        /* \"#utility.yul\":9265:9269   */\n      dup1\n        /* \"#utility.yul\":9259:9263   */\n      dup4\n        /* \"#utility.yul\":9255:9270   */\n      and\n        /* \"#utility.yul\":9245:9270   */\n      swap2\n      pop\n        /* \"#utility.yul\":9158:9276   */\n      pop\n        /* \"#utility.yul\":9107:9276   */\n      swap3\n      swap2\n      pop\n      pop\n      jump\t// out\n        /* \"#utility.yul\":9281:9576   */\n    tag_69:\n        /* \"#utility.yul\":9357:9361   */\n      0x00\n        /* \"#utility.yul\":9503:9532   */\n      tag_176\n        /* \"#utility.yul\":9528:9531   */\n      dup4\n        /* \"#utility.yul\":9522:9526   */\n      dup4\n        /* \"#utility.yul\":9503:9532   */\n      tag_68\n      jump\t// in\n    tag_176:\n        /* \"#utility.yul\":9495:9532   */\n      swap2\n      pop\n        /* \"#utility.yul\":9565:9568   */\n      dup3\n        /* \"#utility.yul\":9562:9563   */\n      0x02\n        /* \"#utility.yul\":9558:9569   */\n      mul\n        /* \"#utility.yul\":9552:9556   */\n      dup3\n        /* \"#utility.yul\":9549:9570   */\n      or\n        /* \"#utility.yul\":9541:9570   */\n      swap1\n      pop\n        /* \"#utility.yul\":9281:9576   */\n      swap3\n      swap2\n      pop\n      pop\n      jump\t// out\n        /* \"#utility.yul\":9581:10971   */\n    tag_32:\n        /* \"#utility.yul\":9696:9732   */\n      tag_178\n        /* \"#utility.yul\":9728:9731   */\n      dup3\n        /* \"#utility.yul\":9696:9732   */\n      tag_33\n      jump\t// in\n    tag_178:\n        /* \"#utility.yul\":9797:9815   */\n      0xffffffffffffffff\n        /* \"#utility.yul\":9789:9795   */\n      dup2\n        /* \"#utility.yul\":9786:9816   */\n      gt\n        /* \"#utility.yul\":9783:9839   */\n      iszero\n      tag_179\n      jumpi\n        /* \"#utility.yul\":9819:9837   */\n      tag_180\n      tag_43\n      jump\t// in\n    tag_180:\n        /* \"#utility.yul\":9783:9839   */\n    tag_179:\n        /* \"#utility.yul\":9863:9901   */\n      tag_181\n        /* \"#utility.yul\":9895:9899   */\n      dup3\n        /* \"#utility.yul\":9889:9900   */\n      sload\n        /* \"#utility.yul\":9863:9901   */\n      tag_18\n      jump\t// in\n    tag_181:\n        /* \"#utility.yul\":9948:10014   */\n      tag_182\n        /* \"#utility.yul\":10007:10013   */\n      dup3\n        /* \"#utility.yul\":9999:10005   */\n      dup3\n        /* \"#utility.yul\":9993:9997   */\n      dup6\n        /* \"#utility.yul\":9948:10014   */\n      tag_66\n      jump\t// in\n    tag_182:\n        /* \"#utility.yul\":10041:10042   */\n      0x00\n        /* \"#utility.yul\":10065:10069   */\n      0x20\n        /* \"#utility.yul\":10052:10069   */\n      swap1\n      pop\n        /* \"#utility.yul\":10097:10099   */\n      0x1f\n        /* \"#utility.yul\":10089:10095   */\n      dup4\n        /* \"#utility.yul\":10086:10100   */\n      gt\n        /* \"#utility.yul\":10114:10115   */\n      0x01\n        /* \"#utility.yul\":10109:10726   */\n      dup2\n      eq\n      tag_184\n      jumpi\n        /* \"#utility.yul\":10770:10771   */\n      0x00\n        /* \"#utility.yul\":10787:10793   */\n      dup5\n        /* \"#utility.yul\":10784:10861   */\n      iszero\n      tag_185\n      jumpi\n        /* \"#utility.yul\":10836:10845   */\n      dup3\n        /* \"#utility.yul\":10831:10834   */\n      dup8\n        /* \"#utility.yul\":10827:10846   */\n      add\n        /* \"#utility.yul\":10821:10847   */\n      mload\n        /* \"#utility.yul\":10812:10847   */\n      swap1\n      pop\n        /* \"#utility.yul\":10784:10861   */\n    tag_185:\n        /* \"#utility.yul\":10887:10954   */\n      tag_186\n        /* \"#utility.yul\":10947:10953   */\n      dup6\n        /* \"#utility.yul\":10940:10945   */\n      dup3\n        /* \"#utility.yul\":10887:10954   */\n      tag_69\n      jump\t// in\n    tag_186:\n        /* \"#utility.yul\":10881:10885   */\n      dup7\n        /* \"#utility.yul\":10874:10955   */\n      sstore\n        /* \"#utility.yul\":10743:10965   */\n      pop\n        /* \"#utility.yul\":10079:10965   */\n      jump(tag_183)\n        /* \"#utility.yul\":10109:10726   */\n    tag_184:\n        /* \"#utility.yul\":10161:10165   */\n      0x1f\n        /* \"#utility.yul\":10157:10166   */\n      not\n        /* \"#utility.yul\":10149:10155   */\n      dup5\n        /* \"#utility.yul\":10145:10167   */\n      and\n        /* \"#utility.yul\":10195:10231   */\n      tag_187\n        /* \"#utility.yul\":10226:10230   */\n      dup7\n        /* \"#utility.yul\":10195:10231   */\n      tag_52\n      jump\t// in\n    tag_187:\n        /* \"#utility.yul\":10253:10254   */\n      0x00\n        /* \"#utility.yul\":10267:10475   */\n    tag_188:\n        /* \"#utility.yul\":10281:10288   */\n      dup3\n        /* \"#utility.yul\":10278:10279   */\n      dup2\n        /* \"#utility.yul\":10275:10289   */\n      lt\n        /* \"#utility.yul\":10267:10475   */\n      iszero\n      tag_190\n      jumpi\n        /* \"#utility.yul\":10360:10369   */\n      dup5\n        /* \"#utility.yul\":10355:10358   */\n      dup10\n        /* \"#utility.yul\":10351:10370   */\n      add\n        /* \"#utility.yul\":10345:10371   */\n      mload\n        /* \"#utility.yul\":10337:10343   */\n      dup3\n        /* \"#utility.yul\":10330:10372   */\n      sstore\n        /* \"#utility.yul\":10411:10412   */\n      0x01\n        /* \"#utility.yul\":10403:10409   */\n      dup3\n        /* \"#utility.yul\":10399:10413   */\n      add\n        /* \"#utility.yul\":10389:10413   */\n      swap2\n      pop\n        /* \"#utility.yul\":10458:10460   */\n      0x20\n        /* \"#utility.yul\":10447:10456   */\n      dup6\n        /* \"#utility.yul\":10443:10461   */\n      add\n        /* \"#utility.yul\":10430:10461   */\n      swap5\n      pop\n        /* \"#utility.yul\":10304:10308   */\n      0x20\n        /* \"#utility.yul\":10301:10302   */\n      dup2\n        /* \"#utility.yul\":10297:10309   */\n      add\n        /* \"#utility.yul\":10292:10309   */\n      swap1\n      pop\n        /* \"#utility.yul\":10267:10475   */\n      jump(tag_188)\n    tag_190:\n        /* \"#utility.yul\":10503:10509   */\n      dup7\n        /* \"#utility.yul\":10494:10501   */\n      dup4\n        /* \"#utility.yul\":10491:10510   */\n      lt\n        /* \"#utility.yul\":10488:10667   */\n      iszero\n      tag_191\n      jumpi\n        /* \"#utility.yul\":10561:10570   */\n      dup5\n        /* \"#utility.yul\":10556:10559   */\n      dup10\n        /* \"#utility.yul\":10552:10571   */\n      add\n        /* \"#utility.yul\":10546:10572   */\n      mload\n        /* \"#utility.yul\":10604:10652   */\n      tag_192\n        /* \"#utility.yul\":10646:10650   */\n      0x1f\n        /* \"#utility.yul\":10638:10644   */\n      dup10\n        /* \"#utility.yul\":10634:10651   */\n      and\n        /* \"#utility.yul\":10623:10632   */\n      dup3\n        /* \"#utility.yul\":10604:10652   */\n      tag_68\n      jump\t// in\n    tag_192:\n        /* \"#utility.yul\":10596:10602   */\n      dup4\n        /* \"#utility.yul\":10589:10653   */\n      sstore\n        /* \"#utility.yul\":10511:10667   */\n      pop\n        /* \"#utility.yul\":10488:10667   */\n    tag_191:\n        /* \"#utility.yul\":10713:10714   */\n      0x01\n        /* \"#utility.yul\":10709:10710   */\n      0x02\n        /* \"#utility.yul\":10701:10707   */\n      dup9\n        /* \"#utility.yul\":10697:10711   */\n      mul\n        /* \"#utility.yul\":10693:10715   */\n      add\n        /* \"#utility.yul\":10687:10691   */\n      dup9\n        /* \"#utility.yul\":10680:10716   */\n      sstore\n        /* \"#utility.yul\":10116:10726   */\n      pop\n      pop\n      pop\n        /* \"#utility.yul\":10079:10965   */\n    tag_183:\n      pop\n        /* \"#utility.yul\":9671:10971   */\n      pop\n      pop\n      pop\n        /* \"#utility.yul\":9581:10971   */\n      pop\n      pop\n      jump\t// out\n\n    auxdata: 0xa264697066735822122093bd3b58f1c70ee2648b91b0ac26a641af6c07b5d8eb9f7dddf887ea19a6ef8164736f6c634300081e0033\n}\n",
				"bytecode": {
					"linkReferences": {},
					"object": "60806040526040518060400160405280600581526020017f48656c6c6f000000000000000000000000000000000000000000000000000000815250600190816100489190610297565b50348015610054575f5ffd5b50610366565b5f81519050919050565b7f4e487b71000000000000000000000000000000000000000000000000000000005f52604160045260245ffd5b7f4e487b71000000000000000000000000000000000000000000000000000000005f52602260045260245ffd5b5f60028204905060018216806100d557607f821691505b6020821081036100e8576100e7610091565b5b50919050565b5f819050815f5260205f209050919050565b5f6020601f8301049050919050565b5f82821b905092915050565b5f6008830261014a7fffffffffffffffffffffffffffffffffffffffffffffffffffffffffffffffff8261010f565b610154868361010f565b95508019841693508086168417925050509392505050565b5f819050919050565b5f819050919050565b5f61019861019361018e8461016c565b610175565b61016c565b9050919050565b5f819050919050565b6101b18361017e565b6101c56101bd8261019f565b84845461011b565b825550505050565b5f5f905090565b6101dc6101cd565b6101e78184846101a8565b505050565b5b8181101561020a576101ff5f826101d4565b6001810190506101ed565b5050565b601f82111561024f57610220816100ee565b61022984610100565b81016020851015610238578190505b61024c61024485610100565b8301826101ec565b50505b505050565b5f82821c905092915050565b5f61026f5f1984600802610254565b1980831691505092915050565b5f6102878383610260565b9150826002028217905092915050565b6102a08261005a565b67ffffffffffffffff8111156102b9576102b8610064565b5b6102c382546100be565b6102ce82828561020e565b5f60209050601f8311600181146102ff575f84156102ed578287015190505b6102f7858261027c565b86555061035e565b601f19841661030d866100ee565b5f5b828110156103345784890151825560018201915060208501945060208101905061030f565b86831015610351578489015161034d601f891682610260565b8355505b6001600288020188555050505b505050505050565b6107e3806103735f395ff3fe608060405234801561000f575f5ffd5b506004361061003f575f3560e01c80635a0a4a6414610043578063667aa9161461006157806388fae5021461007f575b5f5ffd5b61004b61009b565b6040516100589190610257565b60405180910390f35b610069610127565b6040516100769190610257565b60405180910390f35b610099600480360381019061009491906103b4565b6101b2565b005b600180546100a890610428565b80601f01602080910402602001604051908101604052809291908181526020018280546100d490610428565b801561011f5780601f106100f65761010080835404028352916020019161011f565b820191905f5260205f20905b81548152906001019060200180831161010257829003601f168201915b505050505081565b5f805461013390610428565b80601f016020809104026020016040519081016040528092919081815260200182805461015f90610428565b80156101aa5780601f10610181576101008083540402835291602001916101aa565b820191905f5260205f20905b81548152906001019060200180831161018d57829003601f168201915b505050505081565b6001816040516020016101c6929190610524565b604051602081830303815290604052600190816101e391906106de565b5050565b5f81519050919050565b5f82825260208201905092915050565b8281835e5f83830152505050565b5f601f19601f8301169050919050565b5f610229826101e7565b61023381856101f1565b9350610243818560208601610201565b61024c8161020f565b840191505092915050565b5f6020820190508181035f83015261026f818461021f565b905092915050565b5f604051905090565b5f5ffd5b5f5ffd5b5f5ffd5b5f5ffd5b7f4e487b71000000000000000000000000000000000000000000000000000000005f52604160045260245ffd5b6102c68261020f565b810181811067ffffffffffffffff821117156102e5576102e4610290565b5b80604052505050565b5f6102f7610277565b905061030382826102bd565b919050565b5f67ffffffffffffffff82111561032257610321610290565b5b61032b8261020f565b9050602081019050919050565b828183375f83830152505050565b5f61035861035384610308565b6102ee565b9050828152602081018484840111156103745761037361028c565b5b61037f848285610338565b509392505050565b5f82601f83011261039b5761039a610288565b5b81356103ab848260208601610346565b91505092915050565b5f602082840312156103c9576103c8610280565b5b5f82013567ffffffffffffffff8111156103e6576103e5610284565b5b6103f284828501610387565b91505092915050565b7f4e487b71000000000000000000000000000000000000000000000000000000005f52602260045260245ffd5b5f600282049050600182168061043f57607f821691505b602082108103610452576104516103fb565b5b50919050565b5f81905092915050565b5f819050815f5260205f209050919050565b5f815461048081610428565b61048a8186610458565b9450600182165f81146104a457600181146104b9576104eb565b60ff19831686528115158202860193506104eb565b6104c285610462565b5f5b838110156104e3578154818901526001820191506020810190506104c4565b838801955050505b50505092915050565b5f6104fe826101e7565b6105088185610458565b9350610518818560208601610201565b80840191505092915050565b5f61052f8285610474565b915061053b82846104f4565b91508190509392505050565b5f6020601f8301049050919050565b5f82821b905092915050565b5f600883026105917fffffffffffffffffffffffffffffffffffffffffffffffffffffffffffffffff82610556565b61059b8683610556565b95508019841693508086168417925050509392505050565b5f819050919050565b5f819050919050565b5f6105df6105da6105d5846105b3565b6105bc565b6105b3565b9050919050565b5f819050919050565b6105f8836105c5565b61060c610604826105e6565b848454610562565b825550505050565b5f5f905090565b610623610614565b61062e8184846105ef565b505050565b5b81811015610651576106465f8261061b565b600181019050610634565b5050565b601f8211156106965761066781610462565b61067084610547565b8101602085101561067f578190505b61069361068b85610547565b830182610633565b50505b505050565b5f82821c905092915050565b5f6106b65f198460080261069b565b1980831691505092915050565b5f6106ce83836106a7565b9150826002028217905092915050565b6106e7826101e7565b67ffffffffffffffff811115610700576106ff610290565b5b61070a8254610428565b610715828285610655565b5f60209050601f831160018114610746575f8415610734578287015190505b61073e85826106c3565b8655506107a5565b601f19841661075486610462565b5f5b8281101561077b57848901518255600182019150602085019450602081019050610756565b868310156107985784890151610794601f8916826106a7565b8355505b6001600288020188555050505b50505050505056fea264697066735822122093bd3b58f1c70ee2648b91b0ac26a641af6c07b5d8eb9f7dddf887ea19a6ef8164736f6c634300081e0033",
					"opcodes": "PUSH1 0x80 PUSH1 0x40 MSTORE PUSH1 0x40 MLOAD DUP1 PUSH1 0x40 ADD PUSH1 0x40 MSTORE DUP1 PUSH1 0x5 DUP2 MSTORE PUSH1 0x20 ADD PUSH32 0x48656C6C6F000000000000000000000000000000000000000000000000000000 DUP2 MSTORE POP PUSH1 0x1 SWAP1 DUP2 PUSH2 0x48 SWAP2 SWAP1 PUSH2 0x297 JUMP JUMPDEST POP CALLVALUE DUP1 ISZERO PUSH2 0x54 JUMPI PUSH0 PUSH0 REVERT JUMPDEST POP PUSH2 0x366 JUMP JUMPDEST PUSH0 DUP2 MLOAD SWAP1 POP SWAP2 SWAP1 POP JUMP JUMPDEST PUSH32 0x4E487B7100000000000000000000000000000000000000000000000000000000 PUSH0 MSTORE PUSH1 0x41 PUSH1 0x4 MSTORE PUSH1 0x24 PUSH0 REVERT JUMPDEST PUSH32 0x4E487B7100000000000000000000000000000000000000000000000000000000 PUSH0 MSTORE PUSH1 0x22 PUSH1 0x4 MSTORE PUSH1 0x24 PUSH0 REVERT JUMPDEST PUSH0 PUSH1 0x2 DUP3 DIV SWAP1 POP PUSH1 0x1 DUP3 AND DUP1 PUSH2 0xD5 JUMPI PUSH1 0x7F DUP3 AND SWAP2 POP JUMPDEST PUSH1 0x20 DUP3 LT DUP2 SUB PUSH2 0xE8 JUMPI PUSH2 0xE7 PUSH2 0x91 JUMP JUMPDEST JUMPDEST POP SWAP2 SWAP1 POP JUMP JUMPDEST PUSH0 DUP2 SWAP1 POP DUP2 PUSH0 MSTORE PUSH1 0x20 PUSH0 KECCAK256 SWAP1 POP SWAP2 SWAP1 POP JUMP JUMPDEST PUSH0 PUSH1 0x20 PUSH1 0x1F DUP4 ADD DIV SWAP1 POP SWAP2 SWAP1 POP JUMP JUMPDEST PUSH0 DUP3 DUP3 SHL SWAP1 POP SWAP3 SWAP2 POP POP JUMP JUMPDEST PUSH0 PUSH1 0x8 DUP4 MUL PUSH2 0x14A PUSH32 0xFFFFFFFFFFFFFFFFFFFFFFFFFFFFFFFFFFFFFFFFFFFFFFFFFFFFFFFFFFFFFFFF DUP3 PUSH2 0x10F JUMP JUMPDEST PUSH2 0x154 DUP7 DUP4 PUSH2 0x10F JUMP JUMPDEST SWAP6 POP DUP1 NOT DUP5 AND SWAP4 POP DUP1 DUP7 AND DUP5 OR SWAP3 POP POP POP SWAP4 SWAP3 POP POP POP JUMP JUMPDEST PUSH0 DUP2 SWAP1 POP SWAP2 SWAP1 POP JUMP JUMPDEST PUSH0 DUP2 SWAP1 POP SWAP2 SWAP1 POP JUMP JUMPDEST PUSH0 PUSH2 0x198 PUSH2 0x193 PUSH2 0x18E DUP5 PUSH2 0x16C JUMP JUMPDEST PUSH2 0x175 JUMP JUMPDEST PUSH2 0x16C JUMP JUMPDEST SWAP1 POP SWAP2 SWAP1 POP JUMP JUMPDEST PUSH0 DUP2 SWAP1 POP SWAP2 SWAP1 POP JUMP JUMPDEST PUSH2 0x1B1 DUP4 PUSH2 0x17E JUMP JUMPDEST PUSH2 0x1C5 PUSH2 0x1BD DUP3 PUSH2 0x19F JUMP JUMPDEST DUP5 DUP5 SLOAD PUSH2 0x11B JUMP JUMPDEST DUP3 SSTORE POP POP POP POP JUMP JUMPDEST PUSH0 PUSH0 SWAP1 POP SWAP1 JUMP JUMPDEST PUSH2 0x1DC PUSH2 0x1CD JUMP JUMPDEST PUSH2 0x1E7 DUP2 DUP5 DUP5 PUSH2 0x1A8 JUMP JUMPDEST POP POP POP JUMP JUMPDEST JUMPDEST DUP2 DUP2 LT ISZERO PUSH2 0x20A JUMPI PUSH2 0x1FF PUSH0 DUP3 PUSH2 0x1D4 JUMP JUMPDEST PUSH1 0x1 DUP2 ADD SWAP1 POP PUSH2 0x1ED JUMP JUMPDEST POP POP JUMP JUMPDEST PUSH1 0x1F DUP3 GT ISZERO PUSH2 0x24F JUMPI PUSH2 0x220 DUP2 PUSH2 0xEE JUMP JUMPDEST PUSH2 0x229 DUP5 PUSH2 0x100 JUMP JUMPDEST DUP2 ADD PUSH1 0x20 DUP6 LT ISZERO PUSH2 0x238 JUMPI DUP2 SWAP1 POP JUMPDEST PUSH2 0x24C PUSH2 0x244 DUP6 PUSH2 0x100 JUMP JUMPDEST DUP4 ADD DUP3 PUSH2 0x1EC JUMP JUMPDEST POP POP JUMPDEST POP POP POP JUMP JUMPDEST PUSH0 DUP3 DUP3 SHR SWAP1 POP SWAP3 SWAP2 POP POP JUMP JUMPDEST PUSH0 PUSH2 0x26F PUSH0 NOT DUP5 PUSH1 0x8 MUL PUSH2 0x254 JUMP JUMPDEST NOT DUP1 DUP4 AND SWAP2 POP POP SWAP3 SWAP2 POP POP JUMP JUMPDEST PUSH0 PUSH2 0x287 DUP4 DUP4 PUSH2 0x260 JUMP JUMPDEST SWAP2 POP DUP3 PUSH1 0x2 MUL DUP3 OR SWAP1 POP SWAP3 SWAP2 POP POP JUMP JUMPDEST PUSH2 0x2A0 DUP3 PUSH2 0x5A JUMP JUMPDEST PUSH8 0xFFFFFFFFFFFFFFFF DUP2 GT ISZERO PUSH2 0x2B9 JUMPI PUSH2 0x2B8 PUSH2 0x64 JUMP JUMPDEST JUMPDEST PUSH2 0x2C3 DUP3 SLOAD PUSH2 0xBE JUMP JUMPDEST PUSH2 0x2CE DUP3 DUP3 DUP6 PUSH2 0x20E JUMP JUMPDEST PUSH0 PUSH1 0x20 SWAP1 POP PUSH1 0x1F DUP4 GT PUSH1 0x1 DUP2 EQ PUSH2 0x2FF JUMPI PUSH0 DUP5 ISZERO PUSH2 0x2ED JUMPI DUP3 DUP8 ADD MLOAD SWAP1 POP JUMPDEST PUSH2 0x2F7 DUP6 DUP3 PUSH2 0x27C JUMP JUMPDEST DUP7 SSTORE POP PUSH2 0x35E JUMP JUMPDEST PUSH1 0x1F NOT DUP5 AND PUSH2 0x30D DUP7 PUSH2 0xEE JUMP JUMPDEST PUSH0 JUMPDEST DUP3 DUP2 LT ISZERO PUSH2 0x334 JUMPI DUP5 DUP10 ADD MLOAD DUP3 SSTORE PUSH1 0x1 DUP3 ADD SWAP2 POP PUSH1 0x20 DUP6 ADD SWAP5 POP PUSH1 0x20 DUP2 ADD SWAP1 POP PUSH2 0x30F JUMP JUMPDEST DUP7 DUP4 LT ISZERO PUSH2 0x351 JUMPI DUP5 DUP10 ADD MLOAD PUSH2 0x34D PUSH1 0x1F DUP10 AND DUP3 PUSH2 0x260 JUMP JUMPDEST DUP4 SSTORE POP JUMPDEST PUSH1 0x1 PUSH1 0x2 DUP9 MUL ADD DUP9 SSTORE POP POP POP JUMPDEST POP POP POP POP POP POP JUMP JUMPDEST PUSH2 0x7E3 DUP1 PUSH2 0x373 PUSH0 CODECOPY PUSH0 RETURN INVALID PUSH1 0x80 PUSH1 0x40 MSTORE CALLVALUE DUP1 ISZERO PUSH2 0xF JUMPI PUSH0 PUSH0 REVERT JUMPDEST POP PUSH1 0x4 CALLDATASIZE LT PUSH2 0x3F JUMPI PUSH0 CALLDATALOAD PUSH1 0xE0 SHR DUP1 PUSH4 0x5A0A4A64 EQ PUSH2 0x43 JUMPI DUP1 PUSH4 0x667AA916 EQ PUSH2 0x61 JUMPI DUP1 PUSH4 0x88FAE502 EQ PUSH2 0x7F JUMPI JUMPDEST PUSH0 PUSH0 REVERT JUMPDEST PUSH2 0x4B PUSH2 0x9B JUMP JUMPDEST PUSH1 0x40 MLOAD PUSH2 0x58 SWAP2 SWAP1 PUSH2 0x257 JUMP JUMPDEST PUSH1 0x40 MLOAD DUP1 SWAP2 SUB SWAP1 RETURN JUMPDEST PUSH2 0x69 PUSH2 0x127 JUMP JUMPDEST PUSH1 0x40 MLOAD PUSH2 0x76 SWAP2 SWAP1 PUSH2 0x257 JUMP JUMPDEST PUSH1 0x40 MLOAD DUP1 SWAP2 SUB SWAP1 RETURN JUMPDEST PUSH2 0x99 PUSH1 0x4 DUP1 CALLDATASIZE SUB DUP2 ADD SWAP1 PUSH2 0x94 SWAP2 SWAP1 PUSH2 0x3B4 JUMP JUMPDEST PUSH2 0x1B2 JUMP JUMPDEST STOP JUMPDEST PUSH1 0x1 DUP1 SLOAD PUSH2 0xA8 SWAP1 PUSH2 0x428 JUMP JUMPDEST DUP1 PUSH1 0x1F ADD PUSH1 0x20 DUP1 SWAP2 DIV MUL PUSH1 0x20 ADD PUSH1 0x40 MLOAD SWAP1 DUP2 ADD PUSH1 0x40 MSTORE DUP1 SWAP3 SWAP2 SWAP1 DUP2 DUP2 MSTORE PUSH1 0x20 ADD DUP3 DUP1 SLOAD PUSH2 0xD4 SWAP1 PUSH2 0x428 JUMP JUMPDEST DUP1 ISZERO PUSH2 0x11F JUMPI DUP1 PUSH1 0x1F LT PUSH2 0xF6 JUMPI PUSH2 0x100 DUP1 DUP4 SLOAD DIV MUL DUP4 MSTORE SWAP2 PUSH1 0x20 ADD SWAP2 PUSH2 0x11F JUMP JUMPDEST DUP3 ADD SWAP2 SWAP1 PUSH0 MSTORE PUSH1 0x20 PUSH0 KECCAK256 SWAP1 JUMPDEST DUP2 SLOAD DUP2 MSTORE SWAP1 PUSH1 0x1 ADD SWAP1 PUSH1 0x20 ADD DUP1 DUP4 GT PUSH2 0x102 JUMPI DUP3 SWAP1 SUB PUSH1 0x1F AND DUP3 ADD SWAP2 JUMPDEST POP POP POP POP POP DUP2 JUMP JUMPDEST PUSH0 DUP1 SLOAD PUSH2 0x133 SWAP1 PUSH2 0x428 JUMP JUMPDEST DUP1 PUSH1 0x1F ADD PUSH1 0x20 DUP1 SWAP2 DIV MUL PUSH1 0x20 ADD PUSH1 0x40 MLOAD SWAP1 DUP2 ADD PUSH1 0x40 MSTORE DUP1 SWAP3 SWAP2 SWAP1 DUP2 DUP2 MSTORE PUSH1 0x20 ADD DUP3 DUP1 SLOAD PUSH2 0x15F SWAP1 PUSH2 0x428 JUMP JUMPDEST DUP1 ISZERO PUSH2 0x1AA JUMPI DUP1 PUSH1 0x1F LT PUSH2 0x181 JUMPI PUSH2 0x100 DUP1 DUP4 SLOAD DIV MUL DUP4 MSTORE SWAP2 PUSH1 0x20 ADD SWAP2 PUSH2 0x1AA JUMP JUMPDEST DUP3 ADD SWAP2 SWAP1 PUSH0 MSTORE PUSH1 0x20 PUSH0 KECCAK256 SWAP1 JUMPDEST DUP2 SLOAD DUP2 MSTORE SWAP1 PUSH1 0x1 ADD SWAP1 PUSH1 0x20 ADD DUP1 DUP4 GT PUSH2 0x18D JUMPI DUP3 SWAP1 SUB PUSH1 0x1F AND DUP3 ADD SWAP2 JUMPDEST POP POP POP POP POP DUP2 JUMP JUMPDEST PUSH1 0x1 DUP2 PUSH1 0x40 MLOAD PUSH1 0x20 ADD PUSH2 0x1C6 SWAP3 SWAP2 SWAP1 PUSH2 0x524 JUMP JUMPDEST PUSH1 0x40 MLOAD PUSH1 0x20 DUP2 DUP4 SUB SUB DUP2 MSTORE SWAP1 PUSH1 0x40 MSTORE PUSH1 0x1 SWAP1 DUP2 PUSH2 0x1E3 SWAP2 SWAP1 PUSH2 0x6DE JUMP JUMPDEST POP POP JUMP JUMPDEST PUSH0 DUP2 MLOAD SWAP1 POP SWAP2 SWAP1 POP JUMP JUMPDEST PUSH0 DUP3 DUP3 MSTORE PUSH1 0x20 DUP3 ADD SWAP1 POP SWAP3 SWAP2 POP POP JUMP JUMPDEST DUP3 DUP2 DUP4 MCOPY PUSH0 DUP4 DUP4 ADD MSTORE POP POP POP JUMP JUMPDEST PUSH0 PUSH1 0x1F NOT PUSH1 0x1F DUP4 ADD AND SWAP1 POP SWAP2 SWAP1 POP JUMP JUMPDEST PUSH0 PUSH2 0x229 DUP3 PUSH2 0x1E7 JUMP JUMPDEST PUSH2 0x233 DUP2 DUP6 PUSH2 0x1F1 JUMP JUMPDEST SWAP4 POP PUSH2 0x243 DUP2 DUP6 PUSH1 0x20 DUP7 ADD PUSH2 0x201 JUMP JUMPDEST PUSH2 0x24C DUP2 PUSH2 0x20F JUMP JUMPDEST DUP5 ADD SWAP2 POP POP SWAP3 SWAP2 POP POP JUMP JUMPDEST PUSH0 PUSH1 0x20 DUP3 ADD SWAP1 POP DUP2 DUP2 SUB PUSH0 DUP4 ADD MSTORE PUSH2 0x26F DUP2 DUP5 PUSH2 0x21F JUMP JUMPDEST SWAP1 POP SWAP3 SWAP2 POP POP JUMP JUMPDEST PUSH0 PUSH1 0x40 MLOAD SWAP1 POP SWAP1 JUMP JUMPDEST PUSH0 PUSH0 REVERT JUMPDEST PUSH0 PUSH0 REVERT JUMPDEST PUSH0 PUSH0 REVERT JUMPDEST PUSH0 PUSH0 REVERT JUMPDEST PUSH32 0x4E487B7100000000000000000000000000000000000000000000000000000000 PUSH0 MSTORE PUSH1 0x41 PUSH1 0x4 MSTORE PUSH1 0x24 PUSH0 REVERT JUMPDEST PUSH2 0x2C6 DUP3 PUSH2 0x20F JUMP JUMPDEST DUP2 ADD DUP2 DUP2 LT PUSH8 0xFFFFFFFFFFFFFFFF DUP3 GT OR ISZERO PUSH2 0x2E5 JUMPI PUSH2 0x2E4 PUSH2 0x290 JUMP JUMPDEST JUMPDEST DUP1 PUSH1 0x40 MSTORE POP POP POP JUMP JUMPDEST PUSH0 PUSH2 0x2F7 PUSH2 0x277 JUMP JUMPDEST SWAP1 POP PUSH2 0x303 DUP3 DUP3 PUSH2 0x2BD JUMP JUMPDEST SWAP2 SWAP1 POP JUMP JUMPDEST PUSH0 PUSH8 0xFFFFFFFFFFFFFFFF DUP3 GT ISZERO PUSH2 0x322 JUMPI PUSH2 0x321 PUSH2 0x290 JUMP JUMPDEST JUMPDEST PUSH2 0x32B DUP3 PUSH2 0x20F JUMP JUMPDEST SWAP1 POP PUSH1 0x20 DUP2 ADD SWAP1 POP SWAP2 SWAP1 POP JUMP JUMPDEST DUP3 DUP2 DUP4 CALLDATACOPY PUSH0 DUP4 DUP4 ADD MSTORE POP POP POP JUMP JUMPDEST PUSH0 PUSH2 0x358 PUSH2 0x353 DUP5 PUSH2 0x308 JUMP JUMPDEST PUSH2 0x2EE JUMP JUMPDEST SWAP1 POP DUP3 DUP2 MSTORE PUSH1 0x20 DUP2 ADD DUP5 DUP5 DUP5 ADD GT ISZERO PUSH2 0x374 JUMPI PUSH2 0x373 PUSH2 0x28C JUMP JUMPDEST JUMPDEST PUSH2 0x37F DUP5 DUP3 DUP6 PUSH2 0x338 JUMP JUMPDEST POP SWAP4 SWAP3 POP POP POP JUMP JUMPDEST PUSH0 DUP3 PUSH1 0x1F DUP4 ADD SLT PUSH2 0x39B JUMPI PUSH2 0x39A PUSH2 0x288 JUMP JUMPDEST JUMPDEST DUP2 CALLDATALOAD PUSH2 0x3AB DUP5 DUP3 PUSH1 0x20 DUP7 ADD PUSH2 0x346 JUMP JUMPDEST SWAP2 POP POP SWAP3 SWAP2 POP POP JUMP JUMPDEST PUSH0 PUSH1 0x20 DUP3 DUP5 SUB SLT ISZERO PUSH2 0x3C9 JUMPI PUSH2 0x3C8 PUSH2 0x280 JUMP JUMPDEST JUMPDEST PUSH0 DUP3 ADD CALLDATALOAD PUSH8 0xFFFFFFFFFFFFFFFF DUP2 GT ISZERO PUSH2 0x3E6 JUMPI PUSH2 0x3E5 PUSH2 0x284 JUMP JUMPDEST JUMPDEST PUSH2 0x3F2 DUP5 DUP3 DUP6 ADD PUSH2 0x387 JUMP JUMPDEST SWAP2 POP POP SWAP3 SWAP2 POP POP JUMP JUMPDEST PUSH32 0x4E487B7100000000000000000000000000000000000000000000000000000000 PUSH0 MSTORE PUSH1 0x22 PUSH1 0x4 MSTORE PUSH1 0x24 PUSH0 REVERT JUMPDEST PUSH0 PUSH1 0x2 DUP3 DIV SWAP1 POP PUSH1 0x1 DUP3 AND DUP1 PUSH2 0x43F JUMPI PUSH1 0x7F DUP3 AND SWAP2 POP JUMPDEST PUSH1 0x20 DUP3 LT DUP2 SUB PUSH2 0x452 JUMPI PUSH2 0x451 PUSH2 0x3FB JUMP JUMPDEST JUMPDEST POP SWAP2 SWAP1 POP JUMP JUMPDEST PUSH0 DUP2 SWAP1 POP SWAP3 SWAP2 POP POP JUMP JUMPDEST PUSH0 DUP2 SWAP1 POP DUP2 PUSH0 MSTORE PUSH1 0x20 PUSH0 KECCAK256 SWAP1 POP SWAP2 SWAP1 POP JUMP JUMPDEST PUSH0 DUP2 SLOAD PUSH2 0x480 DUP2 PUSH2 0x428 JUMP JUMPDEST PUSH2 0x48A DUP2 DUP7 PUSH2 0x458 JUMP JUMPDEST SWAP5 POP PUSH1 0x1 DUP3 AND PUSH0 DUP2 EQ PUSH2 0x4A4 JUMPI PUSH1 0x1 DUP2 EQ PUSH2 0x4B9 JUMPI PUSH2 0x4EB JUMP JUMPDEST PUSH1 0xFF NOT DUP4 AND DUP7 MSTORE DUP2 ISZERO ISZERO DUP3 MUL DUP7 ADD SWAP4 POP PUSH2 0x4EB JUMP JUMPDEST PUSH2 0x4C2 DUP6 PUSH2 0x462 JUMP JUMPDEST PUSH0 JUMPDEST DUP4 DUP2 LT ISZERO PUSH2 0x4E3 JUMPI DUP2 SLOAD DUP2 DUP10 ADD MSTORE PUSH1 0x1 DUP3 ADD SWAP2 POP PUSH1 0x20 DUP2 ADD SWAP1 POP PUSH2 0x4C4 JUMP JUMPDEST DUP4 DUP9 ADD SWAP6 POP POP POP JUMPDEST POP POP POP SWAP3 SWAP2 POP POP JUMP JUMPDEST PUSH0 PUSH2 0x4FE DUP3 PUSH2 0x1E7 JUMP JUMPDEST PUSH2 0x508 DUP2 DUP6 PUSH2 0x458 JUMP JUMPDEST SWAP4 POP PUSH2 0x518 DUP2 DUP6 PUSH1 0x20 DUP7 ADD PUSH2 0x201 JUMP JUMPDEST DUP1 DUP5 ADD SWAP2 POP POP SWAP3 SWAP2 POP POP JUMP JUMPDEST PUSH0 PUSH2 0x52F DUP3 DUP6 PUSH2 0x474 JUMP JUMPDEST SWAP2 POP PUSH2 0x53B DUP3 DUP5 PUSH2 0x4F4 JUMP JUMPDEST SWAP2 POP DUP2 SWAP1 POP SWAP4 SWAP3 POP POP POP JUMP JUMPDEST PUSH0 PUSH1 0x20 PUSH1 0x1F DUP4 ADD DIV SWAP1 POP SWAP2 SWAP1 POP JUMP JUMPDEST PUSH0 DUP3 DUP3 SHL SWAP1 POP SWAP3 SWAP2 POP POP JUMP JUMPDEST PUSH0 PUSH1 0x8 DUP4 MUL PUSH2 0x591 PUSH32 0xFFFFFFFFFFFFFFFFFFFFFFFFFFFFFFFFFFFFFFFFFFFFFFFFFFFFFFFFFFFFFFFF DUP3 PUSH2 0x556 JUMP JUMPDEST PUSH2 0x59B DUP7 DUP4 PUSH2 0x556 JUMP JUMPDEST SWAP6 POP DUP1 NOT DUP5 AND SWAP4 POP DUP1 DUP7 AND DUP5 OR SWAP3 POP POP POP SWAP4 SWAP3 POP POP POP JUMP JUMPDEST PUSH0 DUP2 SWAP1 POP SWAP2 SWAP1 POP JUMP JUMPDEST PUSH0 DUP2 SWAP1 POP SWAP2 SWAP1 POP JUMP JUMPDEST PUSH0 PUSH2 0x5DF PUSH2 0x5DA PUSH2 0x5D5 DUP5 PUSH2 0x5B3 JUMP JUMPDEST PUSH2 0x5BC JUMP JUMPDEST PUSH2 0x5B3 JUMP JUMPDEST SWAP1 POP SWAP2 SWAP1 POP JUMP JUMPDEST PUSH0 DUP2 SWAP1 POP SWAP2 SWAP1 POP JUMP JUMPDEST PUSH2 0x5F8 DUP4 PUSH2 0x5C5 JUMP JUMPDEST PUSH2 0x60C PUSH2 0x604 DUP3 PUSH2 0x5E6 JUMP JUMPDEST DUP5 DUP5 SLOAD PUSH2 0x562 JUMP JUMPDEST DUP3 SSTORE POP POP POP POP JUMP JUMPDEST PUSH0 PUSH0 SWAP1 POP SWAP1 JUMP JUMPDEST PUSH2 0x623 PUSH2 0x614 JUMP JUMPDEST PUSH2 0x62E DUP2 DUP5 DUP5 PUSH2 0x5EF JUMP JUMPDEST POP POP POP JUMP JUMPDEST JUMPDEST DUP2 DUP2 LT ISZERO PUSH2 0x651 JUMPI PUSH2 0x646 PUSH0 DUP3 PUSH2 0x61B JUMP JUMPDEST PUSH1 0x1 DUP2 ADD SWAP1 POP PUSH2 0x634 JUMP JUMPDEST POP POP JUMP JUMPDEST PUSH1 0x1F DUP3 GT ISZERO PUSH2 0x696 JUMPI PUSH2 0x667 DUP2 PUSH2 0x462 JUMP JUMPDEST PUSH2 0x670 DUP5 PUSH2 0x547 JUMP JUMPDEST DUP2 ADD PUSH1 0x20 DUP6 LT ISZERO PUSH2 0x67F JUMPI DUP2 SWAP1 POP JUMPDEST PUSH2 0x693 PUSH2 0x68B DUP6 PUSH2 0x547 JUMP JUMPDEST DUP4 ADD DUP3 PUSH2 0x633 JUMP JUMPDEST POP POP JUMPDEST POP POP POP JUMP JUMPDEST PUSH0 DUP3 DUP3 SHR SWAP1 POP SWAP3 SWAP2 POP POP JUMP JUMPDEST PUSH0 PUSH2 0x6B6 PUSH0 NOT DUP5 PUSH1 0x8 MUL PUSH2 0x69B JUMP JUMPDEST NOT DUP1 DUP4 AND SWAP2 POP POP SWAP3 SWAP2 POP POP JUMP JUMPDEST PUSH0 PUSH2 0x6CE DUP4 DUP4 PUSH2 0x6A7 JUMP JUMPDEST SWAP2 POP DUP3 PUSH1 0x2 MUL DUP3 OR SWAP1 POP SWAP3 SWAP2 POP POP JUMP JUMPDEST PUSH2 0x6E7 DUP3 PUSH2 0x1E7 JUMP JUMPDEST PUSH8 0xFFFFFFFFFFFFFFFF DUP2 GT ISZERO PUSH2 0x700 JUMPI PUSH2 0x6FF PUSH2 0x290 JUMP JUMPDEST JUMPDEST PUSH2 0x70A DUP3 SLOAD PUSH2 0x428 JUMP JUMPDEST PUSH2 0x715 DUP3 DUP3 DUP6 PUSH2 0x655 JUMP JUMPDEST PUSH0 PUSH1 0x20 SWAP1 POP PUSH1 0x1F DUP4 GT PUSH1 0x1 DUP2 EQ PUSH2 0x746 JUMPI PUSH0 DUP5 ISZERO PUSH2 0x734 JUMPI DUP3 DUP8 ADD MLOAD SWAP1 POP JUMPDEST PUSH2 0x73E DUP6 DUP3 PUSH2 0x6C3 JUMP JUMPDEST DUP7 SSTORE POP PUSH2 0x7A5 JUMP JUMPDEST PUSH1 0x1F NOT DUP5 AND PUSH2 0x754 DUP7 PUSH2 0x462 JUMP JUMPDEST PUSH0 JUMPDEST DUP3 DUP2 LT ISZERO PUSH2 0x77B JUMPI DUP5 DUP10 ADD MLOAD DUP3 SSTORE PUSH1 0x1 DUP3 ADD SWAP2 POP PUSH1 0x20 DUP6 ADD SWAP5 POP PUSH1 0x20 DUP2 ADD SWAP1 POP PUSH2 0x756 JUMP JUMPDEST DUP7 DUP4 LT ISZERO PUSH2 0x798 JUMPI DUP5 DUP10 ADD MLOAD PUSH2 0x794 PUSH1 0x1F DUP10 AND DUP3 PUSH2 0x6A7 JUMP JUMPDEST DUP4 SSTORE POP JUMPDEST PUSH1 0x1 PUSH1 0x2 DUP9 MUL ADD DUP9 SSTORE POP POP POP JUMPDEST POP POP POP POP POP POP JUMP INVALID LOG2 PUSH5 0x6970667358 0x22 SLT KECCAK256 SWAP4 0xBD EXTCODESIZE PC CALL 0xC7 0xE 0xE2 PUSH5 0x8B91B0AC26 0xA6 COINBASE 0xAF PUSH13 0x7B5D8EB9F7DDDF887EA19A6EF DUP2 PUSH5 0x736F6C6343 STOP ADDMOD 0x1E STOP CALLER "
				},
				"gasEstimates": {
					"creation": {
						"codeDepositCost": "403800",
						"executionCost": "infinite",
						"totalCost": "infinite"
					},
					"external": {
						"appendToBytes(bytes)": "infinite",
						"dynamicData()": "infinite",
						"enptyBytes()": "infinite"
					}
				},
				"methodIdentifiers": {
					"appendToBytes(bytes)": "88fae502",
					"dynamicData()": "5a0a4a64",
					"enptyBytes()": "667aa916"
				}
			},
			"storageLayout": {
				"storage": [
					{
						"astId": 3,
						"contract": "02_dataType.sol:dataType",
						"label": "enptyBytes",
						"offset": 0,
						"slot": "0",
						"type": "t_bytes_storage"
					},
					{
						"astId": 6,
						"contract": "02_dataType.sol:dataType",
						"label": "dynamicData",
						"offset": 0,
						"slot": "1",
						"type": "t_bytes_storage"
					}
				],
				"types": {
					"t_bytes_storage": {
						"encoding": "bytes",
						"label": "bytes",
						"numberOfBytes": "32"
					}
				}
			},
			"userdoc": {
				"kind": "user",
				"methods": {},
				"version": 1
			}
		}
	}
}