{
	"15_Data_Location.sol": {
		"DataLocation": {
			"abi": [
				{
					"anonymous": false,
					"inputs": [
						{
							"indexed": false,
							"internalType": "uint256[]",
							"name": "newVal",
							"type": "uint256[]"
						}
					],
					"name": "ValUpdate",
					"type": "event"
				},
				{
					"inputs": [
						{
							"internalType": "uint256",
							"name": "",
							"type": "uint256"
						}
					],
					"name": "arr",
					"outputs": [
						{
							"internalType": "uint256",
							"name": "",
							"type": "uint256"
						}
					],
					"stateMutability": "view",
					"type": "function"
				},
				{
					"inputs": [
						{
							"internalType": "uint256[]",
							"name": "_arr",
							"type": "uint256[]"
						},
						{
							"components": [
								{
									"internalType": "uint256",
									"name": "foo",
									"type": "uint256"
								}
							],
							"internalType": "struct DataLocation.MyStruct",
							"name": "_myStruct",
							"type": "tuple"
						}
					],
					"name": "f",
					"outputs": [],
					"stateMutability": "nonpayable",
					"type": "function"
				},
				{
					"inputs": [
						{
							"internalType": "uint256[]",
							"name": "_arr",
							"type": "uint256[]"
						},
						{
							"components": [
								{
									"internalType": "uint256",
									"name": "foo",
									"type": "uint256"
								}
							],
							"internalType": "struct DataLocation.MyStruct",
							"name": "_myStruct",
							"type": "tuple"
						}
					],
					"name": "g",
					"outputs": [],
					"stateMutability": "nonpayable",
					"type": "function"
				},
				{
					"inputs": [],
					"name": "myStruct",
					"outputs": [
						{
							"internalType": "uint256",
							"name": "foo",
							"type": "uint256"
						}
					],
					"stateMutability": "view",
					"type": "function"
				}
			],
			"devdoc": {
				"kind": "dev",
				"methods": {},
				"version": 1
			},
			"evm": {
				"assembly": "    /* \"15_Data_Location.sol\":58:750  contract DataLocation {... */\n  mstore(0x40, 0x80)\n  callvalue\n  dup1\n  iszero\n  tag_1\n  jumpi\n  revert(0x00, 0x00)\ntag_1:\n  pop\n  dataSize(sub_0)\n  dup1\n  dataOffset(sub_0)\n  0x00\n  codecopy\n  0x00\n  return\nstop\n\nsub_0: assembly {\n        /* \"15_Data_Location.sol\":58:750  contract DataLocation {... */\n      mstore(0x40, 0x80)\n      callvalue\n      dup1\n      iszero\n      tag_1\n      jumpi\n      revert(0x00, 0x00)\n    tag_1:\n      pop\n      jumpi(tag_2, lt(calldatasize, 0x04))\n      shr(0xe0, calldataload(0x00))\n      dup1\n      0x71e5ee5f\n      eq\n      tag_3\n      jumpi\n      dup1\n      0x7cf0db0c\n      eq\n      tag_4\n      jumpi\n      dup1\n      0x8aeabd12\n      eq\n      tag_5\n      jumpi\n      dup1\n      0x8bc9fe6c\n      eq\n      tag_6\n      jumpi\n    tag_2:\n      revert(0x00, 0x00)\n        /* \"15_Data_Location.sol\":86:106  uint256[] public arr */\n    tag_3:\n      tag_7\n      0x04\n      dup1\n      calldatasize\n      sub\n      dup2\n      add\n      swap1\n      tag_8\n      swap2\n      swap1\n      tag_9\n      jump\t// in\n    tag_8:\n      tag_10\n      jump\t// in\n    tag_7:\n      mload(0x40)\n      tag_11\n      swap2\n      swap1\n      tag_12\n      jump\t// in\n    tag_11:\n      mload(0x40)\n      dup1\n      swap2\n      sub\n      swap1\n      return\n        /* \"15_Data_Location.sol\":522:748  function g(uint[] memory _arr, MyStruct memory _myStruct) public {... */\n    tag_4:\n      tag_13\n      0x04\n      dup1\n      calldatasize\n      sub\n      dup2\n      add\n      swap1\n      tag_14\n      swap2\n      swap1\n      tag_15\n      jump\t// in\n    tag_14:\n      tag_16\n      jump\t// in\n    tag_13:\n      stop\n        /* \"15_Data_Location.sol\":290:516  function f(uint[] calldata _arr, MyStruct calldata _myStruct) public {... */\n    tag_5:\n      tag_17\n      0x04\n      dup1\n      calldatasize\n      sub\n      dup2\n      add\n      swap1\n      tag_18\n      swap2\n      swap1\n      tag_19\n      jump\t// in\n    tag_18:\n      tag_20\n      jump\t// in\n    tag_17:\n      stop\n        /* \"15_Data_Location.sol\":213:237  MyStruct public myStruct */\n    tag_6:\n      tag_21\n      tag_22\n      jump\t// in\n    tag_21:\n      mload(0x40)\n      tag_23\n      swap2\n      swap1\n      tag_12\n      jump\t// in\n    tag_23:\n      mload(0x40)\n      dup1\n      swap2\n      sub\n      swap1\n      return\n        /* \"15_Data_Location.sol\":86:106  uint256[] public arr */\n    tag_10:\n      0x00\n      dup2\n      dup2\n      sload\n      dup2\n      lt\n      tag_24\n      jumpi\n      0x00\n      dup1\n      revert\n    tag_24:\n      swap1\n      0x00\n      mstore\n      keccak256(0x00, 0x20)\n      add\n      0x00\n      swap2\n      pop\n      swap1\n      pop\n      sload\n      dup2\n      jump\t// out\n        /* \"15_Data_Location.sol\":522:748  function g(uint[] memory _arr, MyStruct memory _myStruct) public {... */\n    tag_16:\n        /* \"15_Data_Location.sol\":607:608  1 */\n      0x01\n        /* \"15_Data_Location.sol\":597:601  _arr */\n      dup3\n        /* \"15_Data_Location.sol\":602:603  0 */\n      0x00\n        /* \"15_Data_Location.sol\":597:604  _arr[0] */\n      dup2\n      mload\n      dup2\n      lt\n      tag_27\n      jumpi\n      tag_28\n      tag_29\n      jump\t// in\n    tag_28:\n    tag_27:\n      0x20\n      mul\n      0x20\n      add\n      add\n        /* \"15_Data_Location.sol\":597:608  _arr[0] = 1 */\n      dup2\n      dup2\n      mstore\n      pop\n      pop\n        /* \"15_Data_Location.sol\":634:637  100 */\n      0x64\n        /* \"15_Data_Location.sol\":618:627  _myStruct */\n      dup2\n        /* \"15_Data_Location.sol\":618:631  _myStruct.foo */\n      0x00\n      add\n        /* \"15_Data_Location.sol\":618:637  _myStruct.foo = 100 */\n      dup2\n      dup2\n      mstore\n      pop\n      pop\n        /* \"15_Data_Location.sol\":654:658  _arr */\n      dup2\n        /* \"15_Data_Location.sol\":648:651  arr */\n      0x00\n        /* \"15_Data_Location.sol\":648:658  arr = _arr */\n      swap1\n      dup1\n      mload\n      swap1\n      0x20\n      add\n      swap1\n      tag_30\n      swap3\n      swap2\n      swap1\n      tag_31\n      jump\t// in\n    tag_30:\n      pop\n        /* \"15_Data_Location.sol\":679:688  _myStruct */\n      dup1\n        /* \"15_Data_Location.sol\":668:676  myStruct */\n      0x01\n        /* \"15_Data_Location.sol\":668:688  myStruct = _myStruct */\n      0x00\n      dup3\n      add\n      mload\n      dup2\n      0x00\n      add\n      sstore\n      swap1\n      pop\n      pop\n        /* \"15_Data_Location.sol\":708:711  333 */\n      0x014d\n        /* \"15_Data_Location.sol\":699:702  arr */\n      0x00\n        /* \"15_Data_Location.sol\":703:704  0 */\n      0x00\n        /* \"15_Data_Location.sol\":699:705  arr[0] */\n      dup2\n      sload\n      dup2\n      lt\n      tag_32\n      jumpi\n      tag_33\n      tag_29\n      jump\t// in\n    tag_33:\n    tag_32:\n      swap1\n      0x00\n      mstore\n      keccak256(0x00, 0x20)\n      add\n        /* \"15_Data_Location.sol\":699:711  arr[0] = 333 */\n      dup2\n      swap1\n      sstore\n      pop\n        /* \"15_Data_Location.sol\":726:741  ValUpdate(_arr) */\n      0x95732d0f31b97c7b5c512fa4140bc4edeb945120513e0eee47e8cfca00ea03c6\n        /* \"15_Data_Location.sol\":736:740  _arr */\n      dup3\n        /* \"15_Data_Location.sol\":726:741  ValUpdate(_arr) */\n      mload(0x40)\n      tag_35\n      swap2\n      swap1\n      tag_36\n      jump\t// in\n    tag_35:\n      mload(0x40)\n      dup1\n      swap2\n      sub\n      swap1\n      log1\n        /* \"15_Data_Location.sol\":522:748  function g(uint[] memory _arr, MyStruct memory _myStruct) public {... */\n      pop\n      pop\n      jump\t// out\n        /* \"15_Data_Location.sol\":290:516  function f(uint[] calldata _arr, MyStruct calldata _myStruct) public {... */\n    tag_20:\n        /* \"15_Data_Location.sol\":375:379  _arr */\n      dup3\n      dup3\n        /* \"15_Data_Location.sol\":369:372  arr */\n      0x00\n        /* \"15_Data_Location.sol\":369:379  arr = _arr */\n      swap2\n      swap1\n      tag_38\n      swap3\n      swap2\n      swap1\n      tag_39\n      jump\t// in\n    tag_38:\n      pop\n        /* \"15_Data_Location.sol\":429:449  MyStruct memory temp */\n      0x00\n        /* \"15_Data_Location.sol\":452:461  _myStruct */\n      dup2\n        /* \"15_Data_Location.sol\":429:461  MyStruct memory temp = _myStruct */\n      dup1\n      calldatasize\n      sub\n      dup2\n      add\n      swap1\n      tag_40\n      swap2\n      swap1\n      tag_41\n      jump\t// in\n    tag_40:\n      swap1\n      pop\n        /* \"15_Data_Location.sol\":483:484  1 */\n      0x01\n        /* \"15_Data_Location.sol\":471:475  temp */\n      dup2\n        /* \"15_Data_Location.sol\":471:479  temp.foo */\n      0x00\n      add\n        /* \"15_Data_Location.sol\":471:484  temp.foo += 1 */\n      dup2\n      dup2\n      mload\n      tag_42\n      swap2\n      swap1\n      tag_43\n      jump\t// in\n    tag_42:\n      swap2\n      pop\n      dup2\n      dup2\n      mstore\n      pop\n      pop\n        /* \"15_Data_Location.sol\":505:509  temp */\n      dup1\n        /* \"15_Data_Location.sol\":494:502  myStruct */\n      0x01\n        /* \"15_Data_Location.sol\":494:509  myStruct = temp */\n      0x00\n      dup3\n      add\n      mload\n      dup2\n      0x00\n      add\n      sstore\n      swap1\n      pop\n      pop\n        /* \"15_Data_Location.sol\":359:516  {... */\n      pop\n        /* \"15_Data_Location.sol\":290:516  function f(uint[] calldata _arr, MyStruct calldata _myStruct) public {... */\n      pop\n      pop\n      pop\n      jump\t// out\n        /* \"15_Data_Location.sol\":213:237  MyStruct public myStruct */\n    tag_22:\n      0x01\n      dup1\n      0x00\n      add\n      sload\n      swap1\n      pop\n      dup2\n      jump\t// out\n    tag_31:\n      dup3\n      dup1\n      sload\n      dup3\n      dup3\n      sstore\n      swap1\n      0x00\n      mstore\n      keccak256(0x00, 0x20)\n      swap1\n      dup2\n      add\n      swap3\n      dup3\n      iszero\n      tag_44\n      jumpi\n      swap2\n      0x20\n      mul\n      dup3\n      add\n    tag_45:\n      dup3\n      dup2\n      gt\n      iszero\n      tag_46\n      jumpi\n      dup3\n      mload\n      dup3\n      sstore\n      swap2\n      0x20\n      add\n      swap2\n      swap1\n      0x01\n      add\n      swap1\n      jump(tag_45)\n    tag_46:\n    tag_44:\n      pop\n      swap1\n      pop\n      tag_47\n      swap2\n      swap1\n      tag_48\n      jump\t// in\n    tag_47:\n      pop\n      swap1\n      jump\t// out\n    tag_39:\n      dup3\n      dup1\n      sload\n      dup3\n      dup3\n      sstore\n      swap1\n      0x00\n      mstore\n      keccak256(0x00, 0x20)\n      swap1\n      dup2\n      add\n      swap3\n      dup3\n      iszero\n      tag_49\n      jumpi\n      swap2\n      0x20\n      mul\n      dup3\n      add\n    tag_50:\n      dup3\n      dup2\n      gt\n      iszero\n      tag_51\n      jumpi\n      dup3\n      calldataload\n      dup3\n      sstore\n      swap2\n      0x20\n      add\n      swap2\n      swap1\n      0x01\n      add\n      swap1\n      jump(tag_50)\n    tag_51:\n    tag_49:\n      pop\n      swap1\n      pop\n      tag_52\n      swap2\n      swap1\n      tag_48\n      jump\t// in\n    tag_52:\n      pop\n      swap1\n      jump\t// out\n    tag_48:\n    tag_53:\n      dup1\n      dup3\n      gt\n      iszero\n      tag_54\n      jumpi\n      0x00\n      dup2\n      0x00\n      swap1\n      sstore\n      pop\n      0x01\n      add\n      jump(tag_53)\n    tag_54:\n      pop\n      swap1\n      jump\t// out\n        /* \"#utility.yul\":7:82   */\n    tag_55:\n        /* \"#utility.yul\":40:46   */\n      0x00\n        /* \"#utility.yul\":73:75   */\n      0x40\n        /* \"#utility.yul\":67:76   */\n      mload\n        /* \"#utility.yul\":57:76   */\n      swap1\n      pop\n        /* \"#utility.yul\":7:82   */\n      swap1\n      jump\t// out\n        /* \"#utility.yul\":88:205   */\n    tag_56:\n        /* \"#utility.yul\":197:198   */\n      0x00\n        /* \"#utility.yul\":194:195   */\n      0x00\n        /* \"#utility.yul\":187:199   */\n      revert\n        /* \"#utility.yul\":211:328   */\n    tag_57:\n        /* \"#utility.yul\":320:321   */\n      0x00\n        /* \"#utility.yul\":317:318   */\n      0x00\n        /* \"#utility.yul\":310:322   */\n      revert\n        /* \"#utility.yul\":334:411   */\n    tag_58:\n        /* \"#utility.yul\":371:378   */\n      0x00\n        /* \"#utility.yul\":400:405   */\n      dup2\n        /* \"#utility.yul\":389:405   */\n      swap1\n      pop\n        /* \"#utility.yul\":334:411   */\n      swap2\n      swap1\n      pop\n      jump\t// out\n        /* \"#utility.yul\":417:539   */\n    tag_59:\n        /* \"#utility.yul\":490:514   */\n      tag_92\n        /* \"#utility.yul\":508:513   */\n      dup2\n        /* \"#utility.yul\":490:514   */\n      tag_58\n      jump\t// in\n    tag_92:\n        /* \"#utility.yul\":483:488   */\n      dup2\n        /* \"#utility.yul\":480:515   */\n      eq\n        /* \"#utility.yul\":470:533   */\n      tag_93\n      jumpi\n        /* \"#utility.yul\":529:530   */\n      0x00\n        /* \"#utility.yul\":526:527   */\n      0x00\n        /* \"#utility.yul\":519:531   */\n      revert\n        /* \"#utility.yul\":470:533   */\n    tag_93:\n        /* \"#utility.yul\":417:539   */\n      pop\n      jump\t// out\n        /* \"#utility.yul\":545:684   */\n    tag_60:\n        /* \"#utility.yul\":591:596   */\n      0x00\n        /* \"#utility.yul\":629:635   */\n      dup2\n        /* \"#utility.yul\":616:636   */\n      calldataload\n        /* \"#utility.yul\":607:636   */\n      swap1\n      pop\n        /* \"#utility.yul\":645:678   */\n      tag_95\n        /* \"#utility.yul\":672:677   */\n      dup2\n        /* \"#utility.yul\":645:678   */\n      tag_59\n      jump\t// in\n    tag_95:\n        /* \"#utility.yul\":545:684   */\n      swap3\n      swap2\n      pop\n      pop\n      jump\t// out\n        /* \"#utility.yul\":690:1019   */\n    tag_9:\n        /* \"#utility.yul\":749:755   */\n      0x00\n        /* \"#utility.yul\":798:800   */\n      0x20\n        /* \"#utility.yul\":786:795   */\n      dup3\n        /* \"#utility.yul\":777:784   */\n      dup5\n        /* \"#utility.yul\":773:796   */\n      sub\n        /* \"#utility.yul\":769:801   */\n      slt\n        /* \"#utility.yul\":766:885   */\n      iszero\n      tag_97\n      jumpi\n        /* \"#utility.yul\":804:883   */\n      tag_98\n      tag_56\n      jump\t// in\n    tag_98:\n        /* \"#utility.yul\":766:885   */\n    tag_97:\n        /* \"#utility.yul\":924:925   */\n      0x00\n        /* \"#utility.yul\":949:1002   */\n      tag_99\n        /* \"#utility.yul\":994:1001   */\n      dup5\n        /* \"#utility.yul\":985:991   */\n      dup3\n        /* \"#utility.yul\":974:983   */\n      dup6\n        /* \"#utility.yul\":970:992   */\n      add\n        /* \"#utility.yul\":949:1002   */\n      tag_60\n      jump\t// in\n    tag_99:\n        /* \"#utility.yul\":939:1002   */\n      swap2\n      pop\n        /* \"#utility.yul\":895:1012   */\n      pop\n        /* \"#utility.yul\":690:1019   */\n      swap3\n      swap2\n      pop\n      pop\n      jump\t// out\n        /* \"#utility.yul\":1025:1143   */\n    tag_61:\n        /* \"#utility.yul\":1112:1136   */\n      tag_101\n        /* \"#utility.yul\":1130:1135   */\n      dup2\n        /* \"#utility.yul\":1112:1136   */\n      tag_58\n      jump\t// in\n    tag_101:\n        /* \"#utility.yul\":1107:1110   */\n      dup3\n        /* \"#utility.yul\":1100:1137   */\n      mstore\n        /* \"#utility.yul\":1025:1143   */\n      pop\n      pop\n      jump\t// out\n        /* \"#utility.yul\":1149:1371   */\n    tag_12:\n        /* \"#utility.yul\":1242:1246   */\n      0x00\n        /* \"#utility.yul\":1280:1282   */\n      0x20\n        /* \"#utility.yul\":1269:1278   */\n      dup3\n        /* \"#utility.yul\":1265:1283   */\n      add\n        /* \"#utility.yul\":1257:1283   */\n      swap1\n      pop\n        /* \"#utility.yul\":1293:1364   */\n      tag_103\n        /* \"#utility.yul\":1361:1362   */\n      0x00\n        /* \"#utility.yul\":1350:1359   */\n      dup4\n        /* \"#utility.yul\":1346:1363   */\n      add\n        /* \"#utility.yul\":1337:1343   */\n      dup5\n        /* \"#utility.yul\":1293:1364   */\n      tag_61\n      jump\t// in\n    tag_103:\n        /* \"#utility.yul\":1149:1371   */\n      swap3\n      swap2\n      pop\n      pop\n      jump\t// out\n        /* \"#utility.yul\":1377:1494   */\n    tag_62:\n        /* \"#utility.yul\":1486:1487   */\n      0x00\n        /* \"#utility.yul\":1483:1484   */\n      0x00\n        /* \"#utility.yul\":1476:1488   */\n      revert\n        /* \"#utility.yul\":1500:1602   */\n    tag_63:\n        /* \"#utility.yul\":1541:1547   */\n      0x00\n        /* \"#utility.yul\":1592:1594   */\n      0x1f\n        /* \"#utility.yul\":1588:1595   */\n      not\n        /* \"#utility.yul\":1583:1585   */\n      0x1f\n        /* \"#utility.yul\":1576:1581   */\n      dup4\n        /* \"#utility.yul\":1572:1586   */\n      add\n        /* \"#utility.yul\":1568:1596   */\n      and\n        /* \"#utility.yul\":1558:1596   */\n      swap1\n      pop\n        /* \"#utility.yul\":1500:1602   */\n      swap2\n      swap1\n      pop\n      jump\t// out\n        /* \"#utility.yul\":1608:1788   */\n    tag_64:\n        /* \"#utility.yul\":1656:1733   */\n      0x4e487b7100000000000000000000000000000000000000000000000000000000\n        /* \"#utility.yul\":1653:1654   */\n      0x00\n        /* \"#utility.yul\":1646:1734   */\n      mstore\n        /* \"#utility.yul\":1753:1757   */\n      0x41\n        /* \"#utility.yul\":1750:1751   */\n      0x04\n        /* \"#utility.yul\":1743:1758   */\n      mstore\n        /* \"#utility.yul\":1777:1781   */\n      0x24\n        /* \"#utility.yul\":1774:1775   */\n      0x00\n        /* \"#utility.yul\":1767:1782   */\n      revert\n        /* \"#utility.yul\":1794:2075   */\n    tag_65:\n        /* \"#utility.yul\":1877:1904   */\n      tag_108\n        /* \"#utility.yul\":1899:1903   */\n      dup3\n        /* \"#utility.yul\":1877:1904   */\n      tag_63\n      jump\t// in\n    tag_108:\n        /* \"#utility.yul\":1869:1875   */\n      dup2\n        /* \"#utility.yul\":1865:1905   */\n      add\n        /* \"#utility.yul\":2007:2013   */\n      dup2\n        /* \"#utility.yul\":1995:2005   */\n      dup2\n        /* \"#utility.yul\":1992:2014   */\n      lt\n        /* \"#utility.yul\":1971:1989   */\n      0xffffffffffffffff\n        /* \"#utility.yul\":1959:1969   */\n      dup3\n        /* \"#utility.yul\":1956:1990   */\n      gt\n        /* \"#utility.yul\":1953:2015   */\n      or\n        /* \"#utility.yul\":1950:2038   */\n      iszero\n      tag_109\n      jumpi\n        /* \"#utility.yul\":2018:2036   */\n      tag_110\n      tag_64\n      jump\t// in\n    tag_110:\n        /* \"#utility.yul\":1950:2038   */\n    tag_109:\n        /* \"#utility.yul\":2058:2068   */\n      dup1\n        /* \"#utility.yul\":2054:2056   */\n      0x40\n        /* \"#utility.yul\":2047:2069   */\n      mstore\n        /* \"#utility.yul\":1837:2075   */\n      pop\n        /* \"#utility.yul\":1794:2075   */\n      pop\n      pop\n      jump\t// out\n        /* \"#utility.yul\":2081:2210   */\n    tag_66:\n        /* \"#utility.yul\":2115:2121   */\n      0x00\n        /* \"#utility.yul\":2142:2162   */\n      tag_112\n      tag_55\n      jump\t// in\n    tag_112:\n        /* \"#utility.yul\":2132:2162   */\n      swap1\n      pop\n        /* \"#utility.yul\":2171:2204   */\n      tag_113\n        /* \"#utility.yul\":2199:2203   */\n      dup3\n        /* \"#utility.yul\":2191:2197   */\n      dup3\n        /* \"#utility.yul\":2171:2204   */\n      tag_65\n      jump\t// in\n    tag_113:\n        /* \"#utility.yul\":2081:2210   */\n      swap2\n      swap1\n      pop\n      jump\t// out\n        /* \"#utility.yul\":2216:2527   */\n    tag_67:\n        /* \"#utility.yul\":2293:2297   */\n      0x00\n        /* \"#utility.yul\":2383:2401   */\n      0xffffffffffffffff\n        /* \"#utility.yul\":2375:2381   */\n      dup3\n        /* \"#utility.yul\":2372:2402   */\n      gt\n        /* \"#utility.yul\":2369:2425   */\n      iszero\n      tag_115\n      jumpi\n        /* \"#utility.yul\":2405:2423   */\n      tag_116\n      tag_64\n      jump\t// in\n    tag_116:\n        /* \"#utility.yul\":2369:2425   */\n    tag_115:\n        /* \"#utility.yul\":2455:2459   */\n      0x20\n        /* \"#utility.yul\":2447:2453   */\n      dup3\n        /* \"#utility.yul\":2443:2460   */\n      mul\n        /* \"#utility.yul\":2435:2460   */\n      swap1\n      pop\n        /* \"#utility.yul\":2515:2519   */\n      0x20\n        /* \"#utility.yul\":2509:2513   */\n      dup2\n        /* \"#utility.yul\":2505:2520   */\n      add\n        /* \"#utility.yul\":2497:2520   */\n      swap1\n      pop\n        /* \"#utility.yul\":2216:2527   */\n      swap2\n      swap1\n      pop\n      jump\t// out\n        /* \"#utility.yul\":2533:2650   */\n    tag_68:\n        /* \"#utility.yul\":2642:2643   */\n      0x00\n        /* \"#utility.yul\":2639:2640   */\n      0x00\n        /* \"#utility.yul\":2632:2644   */\n      revert\n        /* \"#utility.yul\":2673:3383   */\n    tag_69:\n        /* \"#utility.yul\":2769:2774   */\n      0x00\n        /* \"#utility.yul\":2794:2875   */\n      tag_119\n        /* \"#utility.yul\":2810:2874   */\n      tag_120\n        /* \"#utility.yul\":2867:2873   */\n      dup5\n        /* \"#utility.yul\":2810:2874   */\n      tag_67\n      jump\t// in\n    tag_120:\n        /* \"#utility.yul\":2794:2875   */\n      tag_66\n      jump\t// in\n    tag_119:\n        /* \"#utility.yul\":2785:2875   */\n      swap1\n      pop\n        /* \"#utility.yul\":2895:2900   */\n      dup1\n        /* \"#utility.yul\":2924:2930   */\n      dup4\n        /* \"#utility.yul\":2917:2922   */\n      dup3\n        /* \"#utility.yul\":2910:2931   */\n      mstore\n        /* \"#utility.yul\":2958:2962   */\n      0x20\n        /* \"#utility.yul\":2951:2956   */\n      dup3\n        /* \"#utility.yul\":2947:2963   */\n      add\n        /* \"#utility.yul\":2940:2963   */\n      swap1\n      pop\n        /* \"#utility.yul\":3011:3015   */\n      0x20\n        /* \"#utility.yul\":3003:3009   */\n      dup5\n        /* \"#utility.yul\":2999:3016   */\n      mul\n        /* \"#utility.yul\":2991:2997   */\n      dup4\n        /* \"#utility.yul\":2987:3017   */\n      add\n        /* \"#utility.yul\":3040:3043   */\n      dup6\n        /* \"#utility.yul\":3032:3038   */\n      dup2\n        /* \"#utility.yul\":3029:3044   */\n      gt\n        /* \"#utility.yul\":3026:3148   */\n      iszero\n      tag_121\n      jumpi\n        /* \"#utility.yul\":3059:3138   */\n      tag_122\n      tag_68\n      jump\t// in\n    tag_122:\n        /* \"#utility.yul\":3026:3148   */\n    tag_121:\n        /* \"#utility.yul\":3174:3180   */\n      dup4\n        /* \"#utility.yul\":3157:3377   */\n    tag_123:\n        /* \"#utility.yul\":3191:3197   */\n      dup2\n        /* \"#utility.yul\":3186:3189   */\n      dup2\n        /* \"#utility.yul\":3183:3198   */\n      lt\n        /* \"#utility.yul\":3157:3377   */\n      iszero\n      tag_125\n      jumpi\n        /* \"#utility.yul\":3266:3269   */\n      dup1\n        /* \"#utility.yul\":3295:3332   */\n      tag_126\n        /* \"#utility.yul\":3328:3331   */\n      dup9\n        /* \"#utility.yul\":3316:3326   */\n      dup3\n        /* \"#utility.yul\":3295:3332   */\n      tag_60\n      jump\t// in\n    tag_126:\n        /* \"#utility.yul\":3290:3293   */\n      dup5\n        /* \"#utility.yul\":3283:3333   */\n      mstore\n        /* \"#utility.yul\":3362:3366   */\n      0x20\n        /* \"#utility.yul\":3357:3360   */\n      dup5\n        /* \"#utility.yul\":3353:3367   */\n      add\n        /* \"#utility.yul\":3346:3367   */\n      swap4\n      pop\n        /* \"#utility.yul\":3233:3377   */\n      pop\n        /* \"#utility.yul\":3217:3221   */\n      0x20\n        /* \"#utility.yul\":3212:3215   */\n      dup2\n        /* \"#utility.yul\":3208:3222   */\n      add\n        /* \"#utility.yul\":3201:3222   */\n      swap1\n      pop\n        /* \"#utility.yul\":3157:3377   */\n      jump(tag_123)\n    tag_125:\n        /* \"#utility.yul\":3161:3182   */\n      pop\n        /* \"#utility.yul\":2775:3383   */\n      pop\n      pop\n        /* \"#utility.yul\":2673:3383   */\n      swap4\n      swap3\n      pop\n      pop\n      pop\n      jump\t// out\n        /* \"#utility.yul\":3406:3776   */\n    tag_70:\n        /* \"#utility.yul\":3477:3482   */\n      0x00\n        /* \"#utility.yul\":3526:3529   */\n      dup3\n        /* \"#utility.yul\":3519:3523   */\n      0x1f\n        /* \"#utility.yul\":3511:3517   */\n      dup4\n        /* \"#utility.yul\":3507:3524   */\n      add\n        /* \"#utility.yul\":3503:3530   */\n      slt\n        /* \"#utility.yul\":3493:3615   */\n      tag_128\n      jumpi\n        /* \"#utility.yul\":3534:3613   */\n      tag_129\n      tag_62\n      jump\t// in\n    tag_129:\n        /* \"#utility.yul\":3493:3615   */\n    tag_128:\n        /* \"#utility.yul\":3651:3657   */\n      dup2\n        /* \"#utility.yul\":3638:3658   */\n      calldataload\n        /* \"#utility.yul\":3676:3770   */\n      tag_130\n        /* \"#utility.yul\":3766:3769   */\n      dup5\n        /* \"#utility.yul\":3758:3764   */\n      dup3\n        /* \"#utility.yul\":3751:3755   */\n      0x20\n        /* \"#utility.yul\":3743:3749   */\n      dup7\n        /* \"#utility.yul\":3739:3756   */\n      add\n        /* \"#utility.yul\":3676:3770   */\n      tag_69\n      jump\t// in\n    tag_130:\n        /* \"#utility.yul\":3667:3770   */\n      swap2\n      pop\n        /* \"#utility.yul\":3483:3776   */\n      pop\n        /* \"#utility.yul\":3406:3776   */\n      swap3\n      swap2\n      pop\n      pop\n      jump\t// out\n        /* \"#utility.yul\":3782:3899   */\n    tag_71:\n        /* \"#utility.yul\":3891:3892   */\n      0x00\n        /* \"#utility.yul\":3888:3889   */\n      0x00\n        /* \"#utility.yul\":3881:3893   */\n      revert\n        /* \"#utility.yul\":4064:4475   */\n    tag_73:\n        /* \"#utility.yul\":4137:4142   */\n      0x00\n        /* \"#utility.yul\":4181:4185   */\n      0x20\n        /* \"#utility.yul\":4169:4178   */\n      dup3\n        /* \"#utility.yul\":4164:4167   */\n      dup5\n        /* \"#utility.yul\":4160:4179   */\n      sub\n        /* \"#utility.yul\":4156:4186   */\n      slt\n        /* \"#utility.yul\":4153:4270   */\n      iszero\n      tag_134\n      jumpi\n        /* \"#utility.yul\":4189:4268   */\n      tag_135\n      tag_71\n      jump\t// in\n    tag_135:\n        /* \"#utility.yul\":4153:4270   */\n    tag_134:\n        /* \"#utility.yul\":4288:4309   */\n      tag_136\n        /* \"#utility.yul\":4304:4308   */\n      0x20\n        /* \"#utility.yul\":4288:4309   */\n      tag_66\n      jump\t// in\n    tag_136:\n        /* \"#utility.yul\":4279:4309   */\n      swap1\n      pop\n        /* \"#utility.yul\":4367:4368   */\n      0x00\n        /* \"#utility.yul\":4407:4456   */\n      tag_137\n        /* \"#utility.yul\":4452:4455   */\n      dup5\n        /* \"#utility.yul\":4443:4449   */\n      dup3\n        /* \"#utility.yul\":4432:4441   */\n      dup6\n        /* \"#utility.yul\":4428:4450   */\n      add\n        /* \"#utility.yul\":4407:4456   */\n      tag_60\n      jump\t// in\n    tag_137:\n        /* \"#utility.yul\":4400:4404   */\n      0x00\n        /* \"#utility.yul\":4393:4398   */\n      dup4\n        /* \"#utility.yul\":4389:4405   */\n      add\n        /* \"#utility.yul\":4382:4457   */\n      mstore\n        /* \"#utility.yul\":4319:4468   */\n      pop\n        /* \"#utility.yul\":4064:4475   */\n      swap3\n      swap2\n      pop\n      pop\n      jump\t// out\n        /* \"#utility.yul\":4481:5213   */\n    tag_15:\n        /* \"#utility.yul\":4598:4604   */\n      0x00\n        /* \"#utility.yul\":4606:4612   */\n      0x00\n        /* \"#utility.yul\":4655:4657   */\n      0x40\n        /* \"#utility.yul\":4643:4652   */\n      dup4\n        /* \"#utility.yul\":4634:4641   */\n      dup6\n        /* \"#utility.yul\":4630:4653   */\n      sub\n        /* \"#utility.yul\":4626:4658   */\n      slt\n        /* \"#utility.yul\":4623:4742   */\n      iszero\n      tag_139\n      jumpi\n        /* \"#utility.yul\":4661:4740   */\n      tag_140\n      tag_56\n      jump\t// in\n    tag_140:\n        /* \"#utility.yul\":4623:4742   */\n    tag_139:\n        /* \"#utility.yul\":4809:4810   */\n      0x00\n        /* \"#utility.yul\":4798:4807   */\n      dup4\n        /* \"#utility.yul\":4794:4811   */\n      add\n        /* \"#utility.yul\":4781:4812   */\n      calldataload\n        /* \"#utility.yul\":4839:4857   */\n      0xffffffffffffffff\n        /* \"#utility.yul\":4831:4837   */\n      dup2\n        /* \"#utility.yul\":4828:4858   */\n      gt\n        /* \"#utility.yul\":4825:4942   */\n      iszero\n      tag_141\n      jumpi\n        /* \"#utility.yul\":4861:4940   */\n      tag_142\n      tag_57\n      jump\t// in\n    tag_142:\n        /* \"#utility.yul\":4825:4942   */\n    tag_141:\n        /* \"#utility.yul\":4966:5044   */\n      tag_143\n        /* \"#utility.yul\":5036:5043   */\n      dup6\n        /* \"#utility.yul\":5027:5033   */\n      dup3\n        /* \"#utility.yul\":5016:5025   */\n      dup7\n        /* \"#utility.yul\":5012:5034   */\n      add\n        /* \"#utility.yul\":4966:5044   */\n      tag_70\n      jump\t// in\n    tag_143:\n        /* \"#utility.yul\":4956:5044   */\n      swap3\n      pop\n        /* \"#utility.yul\":4752:5054   */\n      pop\n        /* \"#utility.yul\":5093:5095   */\n      0x20\n        /* \"#utility.yul\":5119:5196   */\n      tag_144\n        /* \"#utility.yul\":5188:5195   */\n      dup6\n        /* \"#utility.yul\":5179:5185   */\n      dup3\n        /* \"#utility.yul\":5168:5177   */\n      dup7\n        /* \"#utility.yul\":5164:5186   */\n      add\n        /* \"#utility.yul\":5119:5196   */\n      tag_73\n      jump\t// in\n    tag_144:\n        /* \"#utility.yul\":5109:5196   */\n      swap2\n      pop\n        /* \"#utility.yul\":5064:5206   */\n      pop\n        /* \"#utility.yul\":4481:5213   */\n      swap3\n      pop\n      swap3\n      swap1\n      pop\n      jump\t// out\n        /* \"#utility.yul\":5219:5336   */\n    tag_74:\n        /* \"#utility.yul\":5328:5329   */\n      0x00\n        /* \"#utility.yul\":5325:5326   */\n      0x00\n        /* \"#utility.yul\":5318:5330   */\n      revert\n        /* \"#utility.yul\":5359:5927   */\n    tag_75:\n        /* \"#utility.yul\":5432:5440   */\n      0x00\n        /* \"#utility.yul\":5442:5448   */\n      0x00\n        /* \"#utility.yul\":5492:5495   */\n      dup4\n        /* \"#utility.yul\":5485:5489   */\n      0x1f\n        /* \"#utility.yul\":5477:5483   */\n      dup5\n        /* \"#utility.yul\":5473:5490   */\n      add\n        /* \"#utility.yul\":5469:5496   */\n      slt\n        /* \"#utility.yul\":5459:5581   */\n      tag_147\n      jumpi\n        /* \"#utility.yul\":5500:5579   */\n      tag_148\n      tag_62\n      jump\t// in\n    tag_148:\n        /* \"#utility.yul\":5459:5581   */\n    tag_147:\n        /* \"#utility.yul\":5613:5619   */\n      dup3\n        /* \"#utility.yul\":5600:5620   */\n      calldataload\n        /* \"#utility.yul\":5590:5620   */\n      swap1\n      pop\n        /* \"#utility.yul\":5643:5661   */\n      0xffffffffffffffff\n        /* \"#utility.yul\":5635:5641   */\n      dup2\n        /* \"#utility.yul\":5632:5662   */\n      gt\n        /* \"#utility.yul\":5629:5746   */\n      iszero\n      tag_149\n      jumpi\n        /* \"#utility.yul\":5665:5744   */\n      tag_150\n      tag_74\n      jump\t// in\n    tag_150:\n        /* \"#utility.yul\":5629:5746   */\n    tag_149:\n        /* \"#utility.yul\":5779:5783   */\n      0x20\n        /* \"#utility.yul\":5771:5777   */\n      dup4\n        /* \"#utility.yul\":5767:5784   */\n      add\n        /* \"#utility.yul\":5755:5784   */\n      swap2\n      pop\n        /* \"#utility.yul\":5833:5836   */\n      dup4\n        /* \"#utility.yul\":5825:5829   */\n      0x20\n        /* \"#utility.yul\":5817:5823   */\n      dup3\n        /* \"#utility.yul\":5813:5830   */\n      mul\n        /* \"#utility.yul\":5803:5811   */\n      dup4\n        /* \"#utility.yul\":5799:5831   */\n      add\n        /* \"#utility.yul\":5796:5837   */\n      gt\n        /* \"#utility.yul\":5793:5921   */\n      iszero\n      tag_151\n      jumpi\n        /* \"#utility.yul\":5840:5919   */\n      tag_152\n      tag_68\n      jump\t// in\n    tag_152:\n        /* \"#utility.yul\":5793:5921   */\n    tag_151:\n        /* \"#utility.yul\":5359:5927   */\n      swap3\n      pop\n      swap3\n      swap1\n      pop\n      jump\t// out\n        /* \"#utility.yul\":5933:6050   */\n    tag_76:\n        /* \"#utility.yul\":6042:6043   */\n      0x00\n        /* \"#utility.yul\":6039:6040   */\n      0x00\n        /* \"#utility.yul\":6032:6044   */\n      revert\n        /* \"#utility.yul\":6092:6322   */\n    tag_77:\n        /* \"#utility.yul\":6164:6169   */\n      0x00\n        /* \"#utility.yul\":6205:6207   */\n      0x20\n        /* \"#utility.yul\":6196:6202   */\n      dup3\n        /* \"#utility.yul\":6191:6194   */\n      dup5\n        /* \"#utility.yul\":6187:6203   */\n      sub\n        /* \"#utility.yul\":6183:6208   */\n      slt\n        /* \"#utility.yul\":6180:6292   */\n      iszero\n      tag_155\n      jumpi\n        /* \"#utility.yul\":6211:6290   */\n      tag_156\n      tag_76\n      jump\t// in\n    tag_156:\n        /* \"#utility.yul\":6180:6292   */\n    tag_155:\n        /* \"#utility.yul\":6310:6316   */\n      dup2\n        /* \"#utility.yul\":6301:6316   */\n      swap1\n      pop\n        /* \"#utility.yul\":6092:6322   */\n      swap3\n      swap2\n      pop\n      pop\n      jump\t// out\n        /* \"#utility.yul\":6328:7084   */\n    tag_19:\n        /* \"#utility.yul\":6449:6455   */\n      0x00\n        /* \"#utility.yul\":6457:6463   */\n      0x00\n        /* \"#utility.yul\":6465:6471   */\n      0x00\n        /* \"#utility.yul\":6514:6516   */\n      0x40\n        /* \"#utility.yul\":6502:6511   */\n      dup5\n        /* \"#utility.yul\":6493:6500   */\n      dup7\n        /* \"#utility.yul\":6489:6512   */\n      sub\n        /* \"#utility.yul\":6485:6517   */\n      slt\n        /* \"#utility.yul\":6482:6601   */\n      iszero\n      tag_158\n      jumpi\n        /* \"#utility.yul\":6520:6599   */\n      tag_159\n      tag_56\n      jump\t// in\n    tag_159:\n        /* \"#utility.yul\":6482:6601   */\n    tag_158:\n        /* \"#utility.yul\":6668:6669   */\n      0x00\n        /* \"#utility.yul\":6657:6666   */\n      dup5\n        /* \"#utility.yul\":6653:6670   */\n      add\n        /* \"#utility.yul\":6640:6671   */\n      calldataload\n        /* \"#utility.yul\":6698:6716   */\n      0xffffffffffffffff\n        /* \"#utility.yul\":6690:6696   */\n      dup2\n        /* \"#utility.yul\":6687:6717   */\n      gt\n        /* \"#utility.yul\":6684:6801   */\n      iszero\n      tag_160\n      jumpi\n        /* \"#utility.yul\":6720:6799   */\n      tag_161\n      tag_57\n      jump\t// in\n    tag_161:\n        /* \"#utility.yul\":6684:6801   */\n    tag_160:\n        /* \"#utility.yul\":6833:6913   */\n      tag_162\n        /* \"#utility.yul\":6905:6912   */\n      dup7\n        /* \"#utility.yul\":6896:6902   */\n      dup3\n        /* \"#utility.yul\":6885:6894   */\n      dup8\n        /* \"#utility.yul\":6881:6903   */\n      add\n        /* \"#utility.yul\":6833:6913   */\n      tag_75\n      jump\t// in\n    tag_162:\n        /* \"#utility.yul\":6815:6913   */\n      swap4\n      pop\n      swap4\n      pop\n        /* \"#utility.yul\":6611:6923   */\n      pop\n        /* \"#utility.yul\":6962:6964   */\n      0x20\n        /* \"#utility.yul\":6988:7067   */\n      tag_163\n        /* \"#utility.yul\":7059:7066   */\n      dup7\n        /* \"#utility.yul\":7050:7056   */\n      dup3\n        /* \"#utility.yul\":7039:7048   */\n      dup8\n        /* \"#utility.yul\":7035:7057   */\n      add\n        /* \"#utility.yul\":6988:7067   */\n      tag_77\n      jump\t// in\n    tag_163:\n        /* \"#utility.yul\":6978:7067   */\n      swap2\n      pop\n        /* \"#utility.yul\":6933:7077   */\n      pop\n        /* \"#utility.yul\":6328:7084   */\n      swap3\n      pop\n      swap3\n      pop\n      swap3\n      jump\t// out\n        /* \"#utility.yul\":7090:7270   */\n    tag_29:\n        /* \"#utility.yul\":7138:7215   */\n      0x4e487b7100000000000000000000000000000000000000000000000000000000\n        /* \"#utility.yul\":7135:7136   */\n      0x00\n        /* \"#utility.yul\":7128:7216   */\n      mstore\n        /* \"#utility.yul\":7235:7239   */\n      0x32\n        /* \"#utility.yul\":7232:7233   */\n      0x04\n        /* \"#utility.yul\":7225:7240   */\n      mstore\n        /* \"#utility.yul\":7259:7263   */\n      0x24\n        /* \"#utility.yul\":7256:7257   */\n      0x00\n        /* \"#utility.yul\":7249:7264   */\n      revert\n        /* \"#utility.yul\":7276:7390   */\n    tag_78:\n        /* \"#utility.yul\":7343:7349   */\n      0x00\n        /* \"#utility.yul\":7377:7382   */\n      dup2\n        /* \"#utility.yul\":7371:7383   */\n      mload\n        /* \"#utility.yul\":7361:7383   */\n      swap1\n      pop\n        /* \"#utility.yul\":7276:7390   */\n      swap2\n      swap1\n      pop\n      jump\t// out\n        /* \"#utility.yul\":7396:7580   */\n    tag_79:\n        /* \"#utility.yul\":7495:7506   */\n      0x00\n        /* \"#utility.yul\":7529:7535   */\n      dup3\n        /* \"#utility.yul\":7524:7527   */\n      dup3\n        /* \"#utility.yul\":7517:7536   */\n      mstore\n        /* \"#utility.yul\":7569:7573   */\n      0x20\n        /* \"#utility.yul\":7564:7567   */\n      dup3\n        /* \"#utility.yul\":7560:7574   */\n      add\n        /* \"#utility.yul\":7545:7574   */\n      swap1\n      pop\n        /* \"#utility.yul\":7396:7580   */\n      swap3\n      swap2\n      pop\n      pop\n      jump\t// out\n        /* \"#utility.yul\":7586:7718   */\n    tag_80:\n        /* \"#utility.yul\":7653:7657   */\n      0x00\n        /* \"#utility.yul\":7676:7679   */\n      dup2\n        /* \"#utility.yul\":7668:7679   */\n      swap1\n      pop\n        /* \"#utility.yul\":7706:7710   */\n      0x20\n        /* \"#utility.yul\":7701:7704   */\n      dup3\n        /* \"#utility.yul\":7697:7711   */\n      add\n        /* \"#utility.yul\":7689:7711   */\n      swap1\n      pop\n        /* \"#utility.yul\":7586:7718   */\n      swap2\n      swap1\n      pop\n      jump\t// out\n        /* \"#utility.yul\":7724:7832   */\n    tag_81:\n        /* \"#utility.yul\":7801:7825   */\n      tag_169\n        /* \"#utility.yul\":7819:7824   */\n      dup2\n        /* \"#utility.yul\":7801:7825   */\n      tag_58\n      jump\t// in\n    tag_169:\n        /* \"#utility.yul\":7796:7799   */\n      dup3\n        /* \"#utility.yul\":7789:7826   */\n      mstore\n        /* \"#utility.yul\":7724:7832   */\n      pop\n      pop\n      jump\t// out\n        /* \"#utility.yul\":7838:8017   */\n    tag_82:\n        /* \"#utility.yul\":7907:7917   */\n      0x00\n        /* \"#utility.yul\":7928:7974   */\n      tag_171\n        /* \"#utility.yul\":7970:7973   */\n      dup4\n        /* \"#utility.yul\":7962:7968   */\n      dup4\n        /* \"#utility.yul\":7928:7974   */\n      tag_81\n      jump\t// in\n    tag_171:\n        /* \"#utility.yul\":8006:8010   */\n      0x20\n        /* \"#utility.yul\":8001:8004   */\n      dup4\n        /* \"#utility.yul\":7997:8011   */\n      add\n        /* \"#utility.yul\":7983:8011   */\n      swap1\n      pop\n        /* \"#utility.yul\":7838:8017   */\n      swap3\n      swap2\n      pop\n      pop\n      jump\t// out\n        /* \"#utility.yul\":8023:8136   */\n    tag_83:\n        /* \"#utility.yul\":8093:8097   */\n      0x00\n        /* \"#utility.yul\":8125:8129   */\n      0x20\n        /* \"#utility.yul\":8120:8123   */\n      dup3\n        /* \"#utility.yul\":8116:8130   */\n      add\n        /* \"#utility.yul\":8108:8130   */\n      swap1\n      pop\n        /* \"#utility.yul\":8023:8136   */\n      swap2\n      swap1\n      pop\n      jump\t// out\n        /* \"#utility.yul\":8172:8904   */\n    tag_84:\n        /* \"#utility.yul\":8291:8294   */\n      0x00\n        /* \"#utility.yul\":8320:8374   */\n      tag_174\n        /* \"#utility.yul\":8368:8373   */\n      dup3\n        /* \"#utility.yul\":8320:8374   */\n      tag_78\n      jump\t// in\n    tag_174:\n        /* \"#utility.yul\":8390:8476   */\n      tag_175\n        /* \"#utility.yul\":8469:8475   */\n      dup2\n        /* \"#utility.yul\":8464:8467   */\n      dup6\n        /* \"#utility.yul\":8390:8476   */\n      tag_79\n      jump\t// in\n    tag_175:\n        /* \"#utility.yul\":8383:8476   */\n      swap4\n      pop\n        /* \"#utility.yul\":8500:8556   */\n      tag_176\n        /* \"#utility.yul\":8550:8555   */\n      dup4\n        /* \"#utility.yul\":8500:8556   */\n      tag_80\n      jump\t// in\n    tag_176:\n        /* \"#utility.yul\":8579:8586   */\n      dup1\n        /* \"#utility.yul\":8610:8611   */\n      0x00\n        /* \"#utility.yul\":8595:8879   */\n    tag_177:\n        /* \"#utility.yul\":8620:8626   */\n      dup4\n        /* \"#utility.yul\":8617:8618   */\n      dup2\n        /* \"#utility.yul\":8614:8627   */\n      lt\n        /* \"#utility.yul\":8595:8879   */\n      iszero\n      tag_179\n      jumpi\n        /* \"#utility.yul\":8696:8702   */\n      dup2\n        /* \"#utility.yul\":8690:8703   */\n      mload\n        /* \"#utility.yul\":8723:8786   */\n      tag_180\n        /* \"#utility.yul\":8782:8785   */\n      dup9\n        /* \"#utility.yul\":8767:8780   */\n      dup3\n        /* \"#utility.yul\":8723:8786   */\n      tag_82\n      jump\t// in\n    tag_180:\n        /* \"#utility.yul\":8716:8786   */\n      swap8\n      pop\n        /* \"#utility.yul\":8809:8869   */\n      tag_181\n        /* \"#utility.yul\":8862:8868   */\n      dup4\n        /* \"#utility.yul\":8809:8869   */\n      tag_83\n      jump\t// in\n    tag_181:\n        /* \"#utility.yul\":8799:8869   */\n      swap3\n      pop\n        /* \"#utility.yul\":8655:8879   */\n      pop\n        /* \"#utility.yul\":8642:8643   */\n      0x01\n        /* \"#utility.yul\":8639:8640   */\n      dup2\n        /* \"#utility.yul\":8635:8644   */\n      add\n        /* \"#utility.yul\":8630:8644   */\n      swap1\n      pop\n        /* \"#utility.yul\":8595:8879   */\n      jump(tag_177)\n    tag_179:\n        /* \"#utility.yul\":8599:8613   */\n      pop\n        /* \"#utility.yul\":8895:8898   */\n      dup6\n        /* \"#utility.yul\":8888:8898   */\n      swap4\n      pop\n        /* \"#utility.yul\":8296:8904   */\n      pop\n      pop\n      pop\n        /* \"#utility.yul\":8172:8904   */\n      swap3\n      swap2\n      pop\n      pop\n      jump\t// out\n        /* \"#utility.yul\":8910:9283   */\n    tag_36:\n        /* \"#utility.yul\":9053:9057   */\n      0x00\n        /* \"#utility.yul\":9091:9093   */\n      0x20\n        /* \"#utility.yul\":9080:9089   */\n      dup3\n        /* \"#utility.yul\":9076:9094   */\n      add\n        /* \"#utility.yul\":9068:9094   */\n      swap1\n      pop\n        /* \"#utility.yul\":9140:9149   */\n      dup2\n        /* \"#utility.yul\":9134:9138   */\n      dup2\n        /* \"#utility.yul\":9130:9150   */\n      sub\n        /* \"#utility.yul\":9126:9127   */\n      0x00\n        /* \"#utility.yul\":9115:9124   */\n      dup4\n        /* \"#utility.yul\":9111:9128   */\n      add\n        /* \"#utility.yul\":9104:9151   */\n      mstore\n        /* \"#utility.yul\":9168:9276   */\n      tag_183\n        /* \"#utility.yul\":9271:9275   */\n      dup2\n        /* \"#utility.yul\":9262:9268   */\n      dup5\n        /* \"#utility.yul\":9168:9276   */\n      tag_84\n      jump\t// in\n    tag_183:\n        /* \"#utility.yul\":9160:9276   */\n      swap1\n      pop\n        /* \"#utility.yul\":8910:9283   */\n      swap3\n      swap2\n      pop\n      pop\n      jump\t// out\n        /* \"#utility.yul\":9289:9666   */\n    tag_41:\n        /* \"#utility.yul\":9372:9378   */\n      0x00\n        /* \"#utility.yul\":9421:9423   */\n      0x20\n        /* \"#utility.yul\":9409:9418   */\n      dup3\n        /* \"#utility.yul\":9400:9407   */\n      dup5\n        /* \"#utility.yul\":9396:9419   */\n      sub\n        /* \"#utility.yul\":9392:9424   */\n      slt\n        /* \"#utility.yul\":9389:9508   */\n      iszero\n      tag_185\n      jumpi\n        /* \"#utility.yul\":9427:9506   */\n      tag_186\n      tag_56\n      jump\t// in\n    tag_186:\n        /* \"#utility.yul\":9389:9508   */\n    tag_185:\n        /* \"#utility.yul\":9547:9548   */\n      0x00\n        /* \"#utility.yul\":9572:9649   */\n      tag_187\n        /* \"#utility.yul\":9641:9648   */\n      dup5\n        /* \"#utility.yul\":9632:9638   */\n      dup3\n        /* \"#utility.yul\":9621:9630   */\n      dup6\n        /* \"#utility.yul\":9617:9639   */\n      add\n        /* \"#utility.yul\":9572:9649   */\n      tag_73\n      jump\t// in\n    tag_187:\n        /* \"#utility.yul\":9562:9649   */\n      swap2\n      pop\n        /* \"#utility.yul\":9518:9659   */\n      pop\n        /* \"#utility.yul\":9289:9666   */\n      swap3\n      swap2\n      pop\n      pop\n      jump\t// out\n        /* \"#utility.yul\":9672:9852   */\n    tag_85:\n        /* \"#utility.yul\":9720:9797   */\n      0x4e487b7100000000000000000000000000000000000000000000000000000000\n        /* \"#utility.yul\":9717:9718   */\n      0x00\n        /* \"#utility.yul\":9710:9798   */\n      mstore\n        /* \"#utility.yul\":9817:9821   */\n      0x11\n        /* \"#utility.yul\":9814:9815   */\n      0x04\n        /* \"#utility.yul\":9807:9822   */\n      mstore\n        /* \"#utility.yul\":9841:9845   */\n      0x24\n        /* \"#utility.yul\":9838:9839   */\n      0x00\n        /* \"#utility.yul\":9831:9846   */\n      revert\n        /* \"#utility.yul\":9858:10049   */\n    tag_43:\n        /* \"#utility.yul\":9898:9901   */\n      0x00\n        /* \"#utility.yul\":9917:9937   */\n      tag_190\n        /* \"#utility.yul\":9935:9936   */\n      dup3\n        /* \"#utility.yul\":9917:9937   */\n      tag_58\n      jump\t// in\n    tag_190:\n        /* \"#utility.yul\":9912:9937   */\n      swap2\n      pop\n        /* \"#utility.yul\":9951:9971   */\n      tag_191\n        /* \"#utility.yul\":9969:9970   */\n      dup4\n        /* \"#utility.yul\":9951:9971   */\n      tag_58\n      jump\t// in\n    tag_191:\n        /* \"#utility.yul\":9946:9971   */\n      swap3\n      pop\n        /* \"#utility.yul\":9994:9995   */\n      dup3\n        /* \"#utility.yul\":9991:9992   */\n      dup3\n        /* \"#utility.yul\":9987:9996   */\n      add\n        /* \"#utility.yul\":9980:9996   */\n      swap1\n      pop\n        /* \"#utility.yul\":10015:10018   */\n      dup1\n        /* \"#utility.yul\":10012:10013   */\n      dup3\n        /* \"#utility.yul\":10009:10019   */\n      gt\n        /* \"#utility.yul\":10006:10042   */\n      iszero\n      tag_192\n      jumpi\n        /* \"#utility.yul\":10022:10040   */\n      tag_193\n      tag_85\n      jump\t// in\n    tag_193:\n        /* \"#utility.yul\":10006:10042   */\n    tag_192:\n        /* \"#utility.yul\":9858:10049   */\n      swap3\n      swap2\n      pop\n      pop\n      jump\t// out\n\n    auxdata: 0xa2646970667358221220d793779db38660562089fdec878aa829544bef42f8a6e8a7e700a268005f72ec64736f6c634300081e0033\n}\n",
				"bytecode": {
					"linkReferences": {},
					"object": "6080604052348015600e575f5ffd5b506107c88061001c5f395ff3fe608060405234801561000f575f5ffd5b506004361061004a575f3560e01c806371e5ee5f1461004e5780637cf0db0c1461007e5780638aeabd121461009a5780638bc9fe6c146100b6575b5f5ffd5b610068600480360381019061006391906102f1565b6100d4565b604051610075919061032b565b60405180910390f35b610098600480360381019061009391906104d1565b6100f3565b005b6100b460048036038101906100af91906105a6565b61019f565b005b6100be6101f1565b6040516100cb919061032b565b60405180910390f35b5f81815481106100e2575f80fd5b905f5260205f20015f915090505481565b6001825f8151811061010857610107610603565b5b6020026020010181815250506064815f018181525050815f90805190602001906101339291906101fc565b508060015f820151815f015590505061014d5f5f8154811061015857610157610603565b5b905f5260205f2001819055507f95732d0f31b97c7b5c512fa4140bc4edeb945120513e0eee47e8cfca00ea03c68260405161019391906106e7565b60405180910390a15050565b82825f91906101af929190610247565b505f818036038101906101c29190610707565b90506001815f018181516101d6919061075f565b915081815250508060015f820151815f015590505050505050565b6001805f0154905081565b828054828255905f5260205f20908101928215610236579160200282015b8281111561023557825182559160200191906001019061021a565b5b5090506102439190610292565b5090565b828054828255905f5260205f20908101928215610281579160200282015b82811115610280578235825591602001919060010190610265565b5b50905061028e9190610292565b5090565b5b808211156102a9575f815f905550600101610293565b5090565b5f604051905090565b5f5ffd5b5f5ffd5b5f819050919050565b6102d0816102be565b81146102da575f5ffd5b50565b5f813590506102eb816102c7565b92915050565b5f60208284031215610306576103056102b6565b5b5f610313848285016102dd565b91505092915050565b610325816102be565b82525050565b5f60208201905061033e5f83018461031c565b92915050565b5f5ffd5b5f601f19601f8301169050919050565b7f4e487b71000000000000000000000000000000000000000000000000000000005f52604160045260245ffd5b61038e82610348565b810181811067ffffffffffffffff821117156103ad576103ac610358565b5b80604052505050565b5f6103bf6102ad565b90506103cb8282610385565b919050565b5f67ffffffffffffffff8211156103ea576103e9610358565b5b602082029050602081019050919050565b5f5ffd5b5f61041161040c846103d0565b6103b6565b90508083825260208201905060208402830185811115610434576104336103fb565b5b835b8181101561045d578061044988826102dd565b845260208401935050602081019050610436565b5050509392505050565b5f82601f83011261047b5761047a610344565b5b813561048b8482602086016103ff565b91505092915050565b5f5ffd5b5f602082840312156104ad576104ac610494565b5b6104b760206103b6565b90505f6104c6848285016102dd565b5f8301525092915050565b5f5f604083850312156104e7576104e66102b6565b5b5f83013567ffffffffffffffff811115610504576105036102ba565b5b61051085828601610467565b925050602061052185828601610498565b9150509250929050565b5f5ffd5b5f5f83601f84011261054457610543610344565b5b8235905067ffffffffffffffff8111156105615761056061052b565b5b60208301915083602082028301111561057d5761057c6103fb565b5b9250929050565b5f5ffd5b5f6020828403121561059d5761059c610584565b5b81905092915050565b5f5f5f604084860312156105bd576105bc6102b6565b5b5f84013567ffffffffffffffff8111156105da576105d96102ba565b5b6105e68682870161052f565b935093505060206105f986828701610588565b9150509250925092565b7f4e487b71000000000000000000000000000000000000000000000000000000005f52603260045260245ffd5b5f81519050919050565b5f82825260208201905092915050565b5f819050602082019050919050565b610662816102be565b82525050565b5f6106738383610659565b60208301905092915050565b5f602082019050919050565b5f61069582610630565b61069f818561063a565b93506106aa8361064a565b805f5b838110156106da5781516106c18882610668565b97506106cc8361067f565b9250506001810190506106ad565b5085935050505092915050565b5f6020820190508181035f8301526106ff818461068b565b905092915050565b5f6020828403121561071c5761071b6102b6565b5b5f61072984828501610498565b91505092915050565b7f4e487b71000000000000000000000000000000000000000000000000000000005f52601160045260245ffd5b5f610769826102be565b9150610774836102be565b925082820190508082111561078c5761078b610732565b5b9291505056fea2646970667358221220d793779db38660562089fdec878aa829544bef42f8a6e8a7e700a268005f72ec64736f6c634300081e0033",
					"opcodes": "PUSH1 0x80 PUSH1 0x40 MSTORE CALLVALUE DUP1 ISZERO PUSH1 0xE JUMPI PUSH0 PUSH0 REVERT JUMPDEST POP PUSH2 0x7C8 DUP1 PUSH2 0x1C PUSH0 CODECOPY PUSH0 RETURN INVALID PUSH1 0x80 PUSH1 0x40 MSTORE CALLVALUE DUP1 ISZERO PUSH2 0xF JUMPI PUSH0 PUSH0 REVERT JUMPDEST POP PUSH1 0x4 CALLDATASIZE LT PUSH2 0x4A JUMPI PUSH0 CALLDATALOAD PUSH1 0xE0 SHR DUP1 PUSH4 0x71E5EE5F EQ PUSH2 0x4E JUMPI DUP1 PUSH4 0x7CF0DB0C EQ PUSH2 0x7E JUMPI DUP1 PUSH4 0x8AEABD12 EQ PUSH2 0x9A JUMPI DUP1 PUSH4 0x8BC9FE6C EQ PUSH2 0xB6 JUMPI JUMPDEST PUSH0 PUSH0 REVERT JUMPDEST PUSH2 0x68 PUSH1 0x4 DUP1 CALLDATASIZE SUB DUP2 ADD SWAP1 PUSH2 0x63 SWAP2 SWAP1 PUSH2 0x2F1 JUMP JUMPDEST PUSH2 0xD4 JUMP JUMPDEST PUSH1 0x40 MLOAD PUSH2 0x75 SWAP2 SWAP1 PUSH2 0x32B JUMP JUMPDEST PUSH1 0x40 MLOAD DUP1 SWAP2 SUB SWAP1 RETURN JUMPDEST PUSH2 0x98 PUSH1 0x4 DUP1 CALLDATASIZE SUB DUP2 ADD SWAP1 PUSH2 0x93 SWAP2 SWAP1 PUSH2 0x4D1 JUMP JUMPDEST PUSH2 0xF3 JUMP JUMPDEST STOP JUMPDEST PUSH2 0xB4 PUSH1 0x4 DUP1 CALLDATASIZE SUB DUP2 ADD SWAP1 PUSH2 0xAF SWAP2 SWAP1 PUSH2 0x5A6 JUMP JUMPDEST PUSH2 0x19F JUMP JUMPDEST STOP JUMPDEST PUSH2 0xBE PUSH2 0x1F1 JUMP JUMPDEST PUSH1 0x40 MLOAD PUSH2 0xCB SWAP2 SWAP1 PUSH2 0x32B JUMP JUMPDEST PUSH1 0x40 MLOAD DUP1 SWAP2 SUB SWAP1 RETURN JUMPDEST PUSH0 DUP2 DUP2 SLOAD DUP2 LT PUSH2 0xE2 JUMPI PUSH0 DUP1 REVERT JUMPDEST SWAP1 PUSH0 MSTORE PUSH1 0x20 PUSH0 KECCAK256 ADD PUSH0 SWAP2 POP SWAP1 POP SLOAD DUP2 JUMP JUMPDEST PUSH1 0x1 DUP3 PUSH0 DUP2 MLOAD DUP2 LT PUSH2 0x108 JUMPI PUSH2 0x107 PUSH2 0x603 JUMP JUMPDEST JUMPDEST PUSH1 0x20 MUL PUSH1 0x20 ADD ADD DUP2 DUP2 MSTORE POP POP PUSH1 0x64 DUP2 PUSH0 ADD DUP2 DUP2 MSTORE POP POP DUP2 PUSH0 SWAP1 DUP1 MLOAD SWAP1 PUSH1 0x20 ADD SWAP1 PUSH2 0x133 SWAP3 SWAP2 SWAP1 PUSH2 0x1FC JUMP JUMPDEST POP DUP1 PUSH1 0x1 PUSH0 DUP3 ADD MLOAD DUP2 PUSH0 ADD SSTORE SWAP1 POP POP PUSH2 0x14D PUSH0 PUSH0 DUP2 SLOAD DUP2 LT PUSH2 0x158 JUMPI PUSH2 0x157 PUSH2 0x603 JUMP JUMPDEST JUMPDEST SWAP1 PUSH0 MSTORE PUSH1 0x20 PUSH0 KECCAK256 ADD DUP2 SWAP1 SSTORE POP PUSH32 0x95732D0F31B97C7B5C512FA4140BC4EDEB945120513E0EEE47E8CFCA00EA03C6 DUP3 PUSH1 0x40 MLOAD PUSH2 0x193 SWAP2 SWAP1 PUSH2 0x6E7 JUMP JUMPDEST PUSH1 0x40 MLOAD DUP1 SWAP2 SUB SWAP1 LOG1 POP POP JUMP JUMPDEST DUP3 DUP3 PUSH0 SWAP2 SWAP1 PUSH2 0x1AF SWAP3 SWAP2 SWAP1 PUSH2 0x247 JUMP JUMPDEST POP PUSH0 DUP2 DUP1 CALLDATASIZE SUB DUP2 ADD SWAP1 PUSH2 0x1C2 SWAP2 SWAP1 PUSH2 0x707 JUMP JUMPDEST SWAP1 POP PUSH1 0x1 DUP2 PUSH0 ADD DUP2 DUP2 MLOAD PUSH2 0x1D6 SWAP2 SWAP1 PUSH2 0x75F JUMP JUMPDEST SWAP2 POP DUP2 DUP2 MSTORE POP POP DUP1 PUSH1 0x1 PUSH0 DUP3 ADD MLOAD DUP2 PUSH0 ADD SSTORE SWAP1 POP POP POP POP POP POP JUMP JUMPDEST PUSH1 0x1 DUP1 PUSH0 ADD SLOAD SWAP1 POP DUP2 JUMP JUMPDEST DUP3 DUP1 SLOAD DUP3 DUP3 SSTORE SWAP1 PUSH0 MSTORE PUSH1 0x20 PUSH0 KECCAK256 SWAP1 DUP2 ADD SWAP3 DUP3 ISZERO PUSH2 0x236 JUMPI SWAP2 PUSH1 0x20 MUL DUP3 ADD JUMPDEST DUP3 DUP2 GT ISZERO PUSH2 0x235 JUMPI DUP3 MLOAD DUP3 SSTORE SWAP2 PUSH1 0x20 ADD SWAP2 SWAP1 PUSH1 0x1 ADD SWAP1 PUSH2 0x21A JUMP JUMPDEST JUMPDEST POP SWAP1 POP PUSH2 0x243 SWAP2 SWAP1 PUSH2 0x292 JUMP JUMPDEST POP SWAP1 JUMP JUMPDEST DUP3 DUP1 SLOAD DUP3 DUP3 SSTORE SWAP1 PUSH0 MSTORE PUSH1 0x20 PUSH0 KECCAK256 SWAP1 DUP2 ADD SWAP3 DUP3 ISZERO PUSH2 0x281 JUMPI SWAP2 PUSH1 0x20 MUL DUP3 ADD JUMPDEST DUP3 DUP2 GT ISZERO PUSH2 0x280 JUMPI DUP3 CALLDATALOAD DUP3 SSTORE SWAP2 PUSH1 0x20 ADD SWAP2 SWAP1 PUSH1 0x1 ADD SWAP1 PUSH2 0x265 JUMP JUMPDEST JUMPDEST POP SWAP1 POP PUSH2 0x28E SWAP2 SWAP1 PUSH2 0x292 JUMP JUMPDEST POP SWAP1 JUMP JUMPDEST JUMPDEST DUP1 DUP3 GT ISZERO PUSH2 0x2A9 JUMPI PUSH0 DUP2 PUSH0 SWAP1 SSTORE POP PUSH1 0x1 ADD PUSH2 0x293 JUMP JUMPDEST POP SWAP1 JUMP JUMPDEST PUSH0 PUSH1 0x40 MLOAD SWAP1 POP SWAP1 JUMP JUMPDEST PUSH0 PUSH0 REVERT JUMPDEST PUSH0 PUSH0 REVERT JUMPDEST PUSH0 DUP2 SWAP1 POP SWAP2 SWAP1 POP JUMP JUMPDEST PUSH2 0x2D0 DUP2 PUSH2 0x2BE JUMP JUMPDEST DUP2 EQ PUSH2 0x2DA JUMPI PUSH0 PUSH0 REVERT JUMPDEST POP JUMP JUMPDEST PUSH0 DUP2 CALLDATALOAD SWAP1 POP PUSH2 0x2EB DUP2 PUSH2 0x2C7 JUMP JUMPDEST SWAP3 SWAP2 POP POP JUMP JUMPDEST PUSH0 PUSH1 0x20 DUP3 DUP5 SUB SLT ISZERO PUSH2 0x306 JUMPI PUSH2 0x305 PUSH2 0x2B6 JUMP JUMPDEST JUMPDEST PUSH0 PUSH2 0x313 DUP5 DUP3 DUP6 ADD PUSH2 0x2DD JUMP JUMPDEST SWAP2 POP POP SWAP3 SWAP2 POP POP JUMP JUMPDEST PUSH2 0x325 DUP2 PUSH2 0x2BE JUMP JUMPDEST DUP3 MSTORE POP POP JUMP JUMPDEST PUSH0 PUSH1 0x20 DUP3 ADD SWAP1 POP PUSH2 0x33E PUSH0 DUP4 ADD DUP5 PUSH2 0x31C JUMP JUMPDEST SWAP3 SWAP2 POP POP JUMP JUMPDEST PUSH0 PUSH0 REVERT JUMPDEST PUSH0 PUSH1 0x1F NOT PUSH1 0x1F DUP4 ADD AND SWAP1 POP SWAP2 SWAP1 POP JUMP JUMPDEST PUSH32 0x4E487B7100000000000000000000000000000000000000000000000000000000 PUSH0 MSTORE PUSH1 0x41 PUSH1 0x4 MSTORE PUSH1 0x24 PUSH0 REVERT JUMPDEST PUSH2 0x38E DUP3 PUSH2 0x348 JUMP JUMPDEST DUP2 ADD DUP2 DUP2 LT PUSH8 0xFFFFFFFFFFFFFFFF DUP3 GT OR ISZERO PUSH2 0x3AD JUMPI PUSH2 0x3AC PUSH2 0x358 JUMP JUMPDEST JUMPDEST DUP1 PUSH1 0x40 MSTORE POP POP POP JUMP JUMPDEST PUSH0 PUSH2 0x3BF PUSH2 0x2AD JUMP JUMPDEST SWAP1 POP PUSH2 0x3CB DUP3 DUP3 PUSH2 0x385 JUMP JUMPDEST SWAP2 SWAP1 POP JUMP JUMPDEST PUSH0 PUSH8 0xFFFFFFFFFFFFFFFF DUP3 GT ISZERO PUSH2 0x3EA JUMPI PUSH2 0x3E9 PUSH2 0x358 JUMP JUMPDEST JUMPDEST PUSH1 0x20 DUP3 MUL SWAP1 POP PUSH1 0x20 DUP2 ADD SWAP1 POP SWAP2 SWAP1 POP JUMP JUMPDEST PUSH0 PUSH0 REVERT JUMPDEST PUSH0 PUSH2 0x411 PUSH2 0x40C DUP5 PUSH2 0x3D0 JUMP JUMPDEST PUSH2 0x3B6 JUMP JUMPDEST SWAP1 POP DUP1 DUP4 DUP3 MSTORE PUSH1 0x20 DUP3 ADD SWAP1 POP PUSH1 0x20 DUP5 MUL DUP4 ADD DUP6 DUP2 GT ISZERO PUSH2 0x434 JUMPI PUSH2 0x433 PUSH2 0x3FB JUMP JUMPDEST JUMPDEST DUP4 JUMPDEST DUP2 DUP2 LT ISZERO PUSH2 0x45D JUMPI DUP1 PUSH2 0x449 DUP9 DUP3 PUSH2 0x2DD JUMP JUMPDEST DUP5 MSTORE PUSH1 0x20 DUP5 ADD SWAP4 POP POP PUSH1 0x20 DUP2 ADD SWAP1 POP PUSH2 0x436 JUMP JUMPDEST POP POP POP SWAP4 SWAP3 POP POP POP JUMP JUMPDEST PUSH0 DUP3 PUSH1 0x1F DUP4 ADD SLT PUSH2 0x47B JUMPI PUSH2 0x47A PUSH2 0x344 JUMP JUMPDEST JUMPDEST DUP2 CALLDATALOAD PUSH2 0x48B DUP5 DUP3 PUSH1 0x20 DUP7 ADD PUSH2 0x3FF JUMP JUMPDEST SWAP2 POP POP SWAP3 SWAP2 POP POP JUMP JUMPDEST PUSH0 PUSH0 REVERT JUMPDEST PUSH0 PUSH1 0x20 DUP3 DUP5 SUB SLT ISZERO PUSH2 0x4AD JUMPI PUSH2 0x4AC PUSH2 0x494 JUMP JUMPDEST JUMPDEST PUSH2 0x4B7 PUSH1 0x20 PUSH2 0x3B6 JUMP JUMPDEST SWAP1 POP PUSH0 PUSH2 0x4C6 DUP5 DUP3 DUP6 ADD PUSH2 0x2DD JUMP JUMPDEST PUSH0 DUP4 ADD MSTORE POP SWAP3 SWAP2 POP POP JUMP JUMPDEST PUSH0 PUSH0 PUSH1 0x40 DUP4 DUP6 SUB SLT ISZERO PUSH2 0x4E7 JUMPI PUSH2 0x4E6 PUSH2 0x2B6 JUMP JUMPDEST JUMPDEST PUSH0 DUP4 ADD CALLDATALOAD PUSH8 0xFFFFFFFFFFFFFFFF DUP2 GT ISZERO PUSH2 0x504 JUMPI PUSH2 0x503 PUSH2 0x2BA JUMP JUMPDEST JUMPDEST PUSH2 0x510 DUP6 DUP3 DUP7 ADD PUSH2 0x467 JUMP JUMPDEST SWAP3 POP POP PUSH1 0x20 PUSH2 0x521 DUP6 DUP3 DUP7 ADD PUSH2 0x498 JUMP JUMPDEST SWAP2 POP POP SWAP3 POP SWAP3 SWAP1 POP JUMP JUMPDEST PUSH0 PUSH0 REVERT JUMPDEST PUSH0 PUSH0 DUP4 PUSH1 0x1F DUP5 ADD SLT PUSH2 0x544 JUMPI PUSH2 0x543 PUSH2 0x344 JUMP JUMPDEST JUMPDEST DUP3 CALLDATALOAD SWAP1 POP PUSH8 0xFFFFFFFFFFFFFFFF DUP2 GT ISZERO PUSH2 0x561 JUMPI PUSH2 0x560 PUSH2 0x52B JUMP JUMPDEST JUMPDEST PUSH1 0x20 DUP4 ADD SWAP2 POP DUP4 PUSH1 0x20 DUP3 MUL DUP4 ADD GT ISZERO PUSH2 0x57D JUMPI PUSH2 0x57C PUSH2 0x3FB JUMP JUMPDEST JUMPDEST SWAP3 POP SWAP3 SWAP1 POP JUMP JUMPDEST PUSH0 PUSH0 REVERT JUMPDEST PUSH0 PUSH1 0x20 DUP3 DUP5 SUB SLT ISZERO PUSH2 0x59D JUMPI PUSH2 0x59C PUSH2 0x584 JUMP JUMPDEST JUMPDEST DUP2 SWAP1 POP SWAP3 SWAP2 POP POP JUMP JUMPDEST PUSH0 PUSH0 PUSH0 PUSH1 0x40 DUP5 DUP7 SUB SLT ISZERO PUSH2 0x5BD JUMPI PUSH2 0x5BC PUSH2 0x2B6 JUMP JUMPDEST JUMPDEST PUSH0 DUP5 ADD CALLDATALOAD PUSH8 0xFFFFFFFFFFFFFFFF DUP2 GT ISZERO PUSH2 0x5DA JUMPI PUSH2 0x5D9 PUSH2 0x2BA JUMP JUMPDEST JUMPDEST PUSH2 0x5E6 DUP7 DUP3 DUP8 ADD PUSH2 0x52F JUMP JUMPDEST SWAP4 POP SWAP4 POP POP PUSH1 0x20 PUSH2 0x5F9 DUP7 DUP3 DUP8 ADD PUSH2 0x588 JUMP JUMPDEST SWAP2 POP POP SWAP3 POP SWAP3 POP SWAP3 JUMP JUMPDEST PUSH32 0x4E487B7100000000000000000000000000000000000000000000000000000000 PUSH0 MSTORE PUSH1 0x32 PUSH1 0x4 MSTORE PUSH1 0x24 PUSH0 REVERT JUMPDEST PUSH0 DUP2 MLOAD SWAP1 POP SWAP2 SWAP1 POP JUMP JUMPDEST PUSH0 DUP3 DUP3 MSTORE PUSH1 0x20 DUP3 ADD SWAP1 POP SWAP3 SWAP2 POP POP JUMP JUMPDEST PUSH0 DUP2 SWAP1 POP PUSH1 0x20 DUP3 ADD SWAP1 POP SWAP2 SWAP1 POP JUMP JUMPDEST PUSH2 0x662 DUP2 PUSH2 0x2BE JUMP JUMPDEST DUP3 MSTORE POP POP JUMP JUMPDEST PUSH0 PUSH2 0x673 DUP4 DUP4 PUSH2 0x659 JUMP JUMPDEST PUSH1 0x20 DUP4 ADD SWAP1 POP SWAP3 SWAP2 POP POP JUMP JUMPDEST PUSH0 PUSH1 0x20 DUP3 ADD SWAP1 POP SWAP2 SWAP1 POP JUMP JUMPDEST PUSH0 PUSH2 0x695 DUP3 PUSH2 0x630 JUMP JUMPDEST PUSH2 0x69F DUP2 DUP6 PUSH2 0x63A JUMP JUMPDEST SWAP4 POP PUSH2 0x6AA DUP4 PUSH2 0x64A JUMP JUMPDEST DUP1 PUSH0 JUMPDEST DUP4 DUP2 LT ISZERO PUSH2 0x6DA JUMPI DUP2 MLOAD PUSH2 0x6C1 DUP9 DUP3 PUSH2 0x668 JUMP JUMPDEST SWAP8 POP PUSH2 0x6CC DUP4 PUSH2 0x67F JUMP JUMPDEST SWAP3 POP POP PUSH1 0x1 DUP2 ADD SWAP1 POP PUSH2 0x6AD JUMP JUMPDEST POP DUP6 SWAP4 POP POP POP POP SWAP3 SWAP2 POP POP JUMP JUMPDEST PUSH0 PUSH1 0x20 DUP3 ADD SWAP1 POP DUP2 DUP2 SUB PUSH0 DUP4 ADD MSTORE PUSH2 0x6FF DUP2 DUP5 PUSH2 0x68B JUMP JUMPDEST SWAP1 POP SWAP3 SWAP2 POP POP JUMP JUMPDEST PUSH0 PUSH1 0x20 DUP3 DUP5 SUB SLT ISZERO PUSH2 0x71C JUMPI PUSH2 0x71B PUSH2 0x2B6 JUMP JUMPDEST JUMPDEST PUSH0 PUSH2 0x729 DUP5 DUP3 DUP6 ADD PUSH2 0x498 JUMP JUMPDEST SWAP2 POP POP SWAP3 SWAP2 POP POP JUMP JUMPDEST PUSH32 0x4E487B7100000000000000000000000000000000000000000000000000000000 PUSH0 MSTORE PUSH1 0x11 PUSH1 0x4 MSTORE PUSH1 0x24 PUSH0 REVERT JUMPDEST PUSH0 PUSH2 0x769 DUP3 PUSH2 0x2BE JUMP JUMPDEST SWAP2 POP PUSH2 0x774 DUP4 PUSH2 0x2BE JUMP JUMPDEST SWAP3 POP DUP3 DUP3 ADD SWAP1 POP DUP1 DUP3 GT ISZERO PUSH2 0x78C JUMPI PUSH2 0x78B PUSH2 0x732 JUMP JUMPDEST JUMPDEST SWAP3 SWAP2 POP POP JUMP INVALID LOG2 PUSH5 0x6970667358 0x22 SLT KECCAK256 0xD7 SWAP4 PUSH24 0x9DB38660562089FDEC878AA829544BEF42F8A6E8A7E700A2 PUSH9 0x5F72EC64736F6C63 NUMBER STOP ADDMOD 0x1E STOP CALLER "
				},
				"gasEstimates": {
					"creation": {
						"codeDepositCost": "398400",
						"executionCost": "434",
						"totalCost": "398834"
					},
					"external": {
						"arr(uint256)": "infinite",
						"f(uint256[],(uint256))": "infinite",
						"g(uint256[],(uint256))": "infinite",
						"myStruct()": "2482"
					}
				},
				"methodIdentifiers": {
					"arr(uint256)": "71e5ee5f",
					"f(uint256[],(uint256))": "8aeabd12",
					"g(uint256[],(uint256))": "7cf0db0c",
					"myStruct()": "8bc9fe6c"
				}
			},
			"storageLayout": {
				"storage": [
					{
						"astId": 4,
						"contract": "15_Data_Location.sol:DataLocation",
						"label": "arr",
						"offset": 0,
						"slot": "0",
						"type": "t_array(t_uint256)dyn_storage"
					},
					{
						"astId": 15,
						"contract": "15_Data_Location.sol:DataLocation",
						"label": "myStruct",
						"offset": 0,
						"slot": "1",
						"type": "t_struct(MyStruct)12_storage"
					}
				],
				"types": {
					"t_array(t_uint256)dyn_storage": {
						"base": "t_uint256",
						"encoding": "dynamic_array",
						"label": "uint256[]",
						"numberOfBytes": "32"
					},
					"t_struct(MyStruct)12_storage": {
						"encoding": "inplace",
						"label": "struct DataLocation.MyStruct",
						"members": [
							{
								"astId": 11,
								"contract": "15_Data_Location.sol:DataLocation",
								"label": "foo",
								"offset": 0,
								"slot": "0",
								"type": "t_uint256"
							}
						],
						"numberOfBytes": "32"
					},
					"t_uint256": {
						"encoding": "inplace",
						"label": "uint256",
						"numberOfBytes": "32"
					}
				}
			},
			"userdoc": {
				"kind": "user",
				"methods": {},
				"version": 1
			}
		}
	}
}