{
	"data": {
		"bytecode": {
			"linkReferences": {},
			"object": "6080604052348015600e575f5ffd5b50610a548061001c5f395ff3fe608060405234801561000f575f5ffd5b5060043610610060575f3560e01c8063034899bc14610064578063447a06f51461008257806347da7f8e146100b357806368bc2ad1146100e4578063a9059cbb14610114578063f435898b14610144575b5f5ffd5b61006c610162565b6040516100799190610342565b60405180910390f35b61009c600480360381019061009791906104a8565b61018c565b6040516100aa929190610567565b60405180910390f35b6100cd60048036038101906100c8919061065d565b6101ac565b6040516100db929190610709565b60405180910390f35b6100fe60048036038101906100f9919061073e565b6101fe565b60405161010b9190610342565b60405180910390f35b61012e600480360381019061012991906107df565b61020e565b60405161013b919061081d565b60405180910390f35b61014c61025c565b604051610159919061081d565b60405180910390f35b5f5f357fffffffff0000000000000000000000000000000000000000000000000000000016905090565b60605f828060200190518101906101a391906108bf565b91509150915091565b60608083836040516020016101c2929190610567565b60405160208183030381529060405284846040516020016101e4929190610973565b604051602081830303815290604052915091509250929050565b5f81805190602001209050919050565b60605f368080601f0160208091040260200160405190810160405280939291908181526020018383808284375f81840152601f19601f82011690508083019250505050505050905092915050565b6060735b38da6a701c568545dcfcb03fcb875f56beddc460646040516024016102869291906109f7565b6040516020818303038152906040527feb216553000000000000000000000000000000000000000000000000000000007bffffffffffffffffffffffffffffffffffffffffffffffffffffffff19166020820180517bffffffffffffffffffffffffffffffffffffffffffffffffffffffff8381831617835250505050905090565b5f7fffffffff0000000000000000000000000000000000000000000000000000000082169050919050565b61033c81610308565b82525050565b5f6020820190506103555f830184610333565b92915050565b5f604051905090565b5f5ffd5b5f5ffd5b5f5ffd5b5f5ffd5b5f601f19601f8301169050919050565b7f4e487b71000000000000000000000000000000000000000000000000000000005f52604160045260245ffd5b6103ba82610374565b810181811067ffffffffffffffff821117156103d9576103d8610384565b5b80604052505050565b5f6103eb61035b565b90506103f782826103b1565b919050565b5f67ffffffffffffffff82111561041657610415610384565b5b61041f82610374565b9050602081019050919050565b828183375f83830152505050565b5f61044c610447846103fc565b6103e2565b90508281526020810184848401111561046857610467610370565b5b61047384828561042c565b509392505050565b5f82601f83011261048f5761048e61036c565b5b813561049f84826020860161043a565b91505092915050565b5f602082840312156104bd576104bc610364565b5b5f82013567ffffffffffffffff8111156104da576104d9610368565b5b6104e68482850161047b565b91505092915050565b5f81519050919050565b5f82825260208201905092915050565b8281835e5f83830152505050565b5f610521826104ef565b61052b81856104f9565b935061053b818560208601610509565b61054481610374565b840191505092915050565b5f819050919050565b6105618161054f565b82525050565b5f6040820190508181035f83015261057f8185610517565b905061058e6020830184610558565b9392505050565b5f67ffffffffffffffff8211156105af576105ae610384565b5b6105b882610374565b9050602081019050919050565b5f6105d76105d284610595565b6103e2565b9050828152602081018484840111156105f3576105f2610370565b5b6105fe84828561042c565b509392505050565b5f82601f83011261061a5761061961036c565b5b813561062a8482602086016105c5565b91505092915050565b61063c8161054f565b8114610646575f5ffd5b50565b5f8135905061065781610633565b92915050565b5f5f6040838503121561067357610672610364565b5b5f83013567ffffffffffffffff8111156106905761068f610368565b5b61069c85828601610606565b92505060206106ad85828601610649565b9150509250929050565b5f81519050919050565b5f82825260208201905092915050565b5f6106db826106b7565b6106e581856106c1565b93506106f5818560208601610509565b6106fe81610374565b840191505092915050565b5f6040820190508181035f83015261072181856106d1565b9050818103602083015261073581846106d1565b90509392505050565b5f6020828403121561075357610752610364565b5b5f82013567ffffffffffffffff8111156107705761076f610368565b5b61077c84828501610606565b91505092915050565b5f73ffffffffffffffffffffffffffffffffffffffff82169050919050565b5f6107ae82610785565b9050919050565b6107be816107a4565b81146107c8575f5ffd5b50565b5f813590506107d9816107b5565b92915050565b5f5f604083850312156107f5576107f4610364565b5b5f610802858286016107cb565b925050602061081385828601610649565b9150509250929050565b5f6020820190508181035f83015261083581846106d1565b905092915050565b5f61084f61084a84610595565b6103e2565b90508281526020810184848401111561086b5761086a610370565b5b610876848285610509565b509392505050565b5f82601f8301126108925761089161036c565b5b81516108a284826020860161083d565b91505092915050565b5f815190506108b981610633565b92915050565b5f5f604083850312156108d5576108d4610364565b5b5f83015167ffffffffffffffff8111156108f2576108f1610368565b5b6108fe8582860161087e565b925050602061090f858286016108ab565b9150509250929050565b5f81905092915050565b5f61092d826104ef565b6109378185610919565b9350610947818560208601610509565b80840191505092915050565b5f819050919050565b61096d6109688261054f565b610953565b82525050565b5f61097e8285610923565b915061098a828461095c565b6020820191508190509392505050565b6109a3816107a4565b82525050565b5f819050919050565b5f60ff82169050919050565b5f819050919050565b5f6109e16109dc6109d7846109a9565b6109be565b6109b2565b9050919050565b6109f1816109c7565b82525050565b5f604082019050610a0a5f83018561099a565b610a1760208301846109e8565b939250505056fea26469706673582212204209205479f5588df5d30ba34501a59ea697ad058da738acc4145660bf234f5364736f6c634300081e0033",
			"opcodes": "PUSH1 0x80 PUSH1 0x40 MSTORE CALLVALUE DUP1 ISZERO PUSH1 0xE JUMPI PUSH0 PUSH0 REVERT JUMPDEST POP PUSH2 0xA54 DUP1 PUSH2 0x1C PUSH0 CODECOPY PUSH0 RETURN INVALID PUSH1 0x80 PUSH1 0x40 MSTORE CALLVALUE DUP1 ISZERO PUSH2 0xF JUMPI PUSH0 PUSH0 REVERT JUMPDEST POP PUSH1 0x4 CALLDATASIZE LT PUSH2 0x60 JUMPI PUSH0 CALLDATALOAD PUSH1 0xE0 SHR DUP1 PUSH4 0x34899BC EQ PUSH2 0x64 JUMPI DUP1 PUSH4 0x447A06F5 EQ PUSH2 0x82 JUMPI DUP1 PUSH4 0x47DA7F8E EQ PUSH2 0xB3 JUMPI DUP1 PUSH4 0x68BC2AD1 EQ PUSH2 0xE4 JUMPI DUP1 PUSH4 0xA9059CBB EQ PUSH2 0x114 JUMPI DUP1 PUSH4 0xF435898B EQ PUSH2 0x144 JUMPI JUMPDEST PUSH0 PUSH0 REVERT JUMPDEST PUSH2 0x6C PUSH2 0x162 JUMP JUMPDEST PUSH1 0x40 MLOAD PUSH2 0x79 SWAP2 SWAP1 PUSH2 0x342 JUMP JUMPDEST PUSH1 0x40 MLOAD DUP1 SWAP2 SUB SWAP1 RETURN JUMPDEST PUSH2 0x9C PUSH1 0x4 DUP1 CALLDATASIZE SUB DUP2 ADD SWAP1 PUSH2 0x97 SWAP2 SWAP1 PUSH2 0x4A8 JUMP JUMPDEST PUSH2 0x18C JUMP JUMPDEST PUSH1 0x40 MLOAD PUSH2 0xAA SWAP3 SWAP2 SWAP1 PUSH2 0x567 JUMP JUMPDEST PUSH1 0x40 MLOAD DUP1 SWAP2 SUB SWAP1 RETURN JUMPDEST PUSH2 0xCD PUSH1 0x4 DUP1 CALLDATASIZE SUB DUP2 ADD SWAP1 PUSH2 0xC8 SWAP2 SWAP1 PUSH2 0x65D JUMP JUMPDEST PUSH2 0x1AC JUMP JUMPDEST PUSH1 0x40 MLOAD PUSH2 0xDB SWAP3 SWAP2 SWAP1 PUSH2 0x709 JUMP JUMPDEST PUSH1 0x40 MLOAD DUP1 SWAP2 SUB SWAP1 RETURN JUMPDEST PUSH2 0xFE PUSH1 0x4 DUP1 CALLDATASIZE SUB DUP2 ADD SWAP1 PUSH2 0xF9 SWAP2 SWAP1 PUSH2 0x73E JUMP JUMPDEST PUSH2 0x1FE JUMP JUMPDEST PUSH1 0x40 MLOAD PUSH2 0x10B SWAP2 SWAP1 PUSH2 0x342 JUMP JUMPDEST PUSH1 0x40 MLOAD DUP1 SWAP2 SUB SWAP1 RETURN JUMPDEST PUSH2 0x12E PUSH1 0x4 DUP1 CALLDATASIZE SUB DUP2 ADD SWAP1 PUSH2 0x129 SWAP2 SWAP1 PUSH2 0x7DF JUMP JUMPDEST PUSH2 0x20E JUMP JUMPDEST PUSH1 0x40 MLOAD PUSH2 0x13B SWAP2 SWAP1 PUSH2 0x81D JUMP JUMPDEST PUSH1 0x40 MLOAD DUP1 SWAP2 SUB SWAP1 RETURN JUMPDEST PUSH2 0x14C PUSH2 0x25C JUMP JUMPDEST PUSH1 0x40 MLOAD PUSH2 0x159 SWAP2 SWAP1 PUSH2 0x81D JUMP JUMPDEST PUSH1 0x40 MLOAD DUP1 SWAP2 SUB SWAP1 RETURN JUMPDEST PUSH0 PUSH0 CALLDATALOAD PUSH32 0xFFFFFFFF00000000000000000000000000000000000000000000000000000000 AND SWAP1 POP SWAP1 JUMP JUMPDEST PUSH1 0x60 PUSH0 DUP3 DUP1 PUSH1 0x20 ADD SWAP1 MLOAD DUP2 ADD SWAP1 PUSH2 0x1A3 SWAP2 SWAP1 PUSH2 0x8BF JUMP JUMPDEST SWAP2 POP SWAP2 POP SWAP2 POP SWAP2 JUMP JUMPDEST PUSH1 0x60 DUP1 DUP4 DUP4 PUSH1 0x40 MLOAD PUSH1 0x20 ADD PUSH2 0x1C2 SWAP3 SWAP2 SWAP1 PUSH2 0x567 JUMP JUMPDEST PUSH1 0x40 MLOAD PUSH1 0x20 DUP2 DUP4 SUB SUB DUP2 MSTORE SWAP1 PUSH1 0x40 MSTORE DUP5 DUP5 PUSH1 0x40 MLOAD PUSH1 0x20 ADD PUSH2 0x1E4 SWAP3 SWAP2 SWAP1 PUSH2 0x973 JUMP JUMPDEST PUSH1 0x40 MLOAD PUSH1 0x20 DUP2 DUP4 SUB SUB DUP2 MSTORE SWAP1 PUSH1 0x40 MSTORE SWAP2 POP SWAP2 POP SWAP3 POP SWAP3 SWAP1 POP JUMP JUMPDEST PUSH0 DUP2 DUP1 MLOAD SWAP1 PUSH1 0x20 ADD KECCAK256 SWAP1 POP SWAP2 SWAP1 POP JUMP JUMPDEST PUSH1 0x60 PUSH0 CALLDATASIZE DUP1 DUP1 PUSH1 0x1F ADD PUSH1 0x20 DUP1 SWAP2 DIV MUL PUSH1 0x20 ADD PUSH1 0x40 MLOAD SWAP1 DUP2 ADD PUSH1 0x40 MSTORE DUP1 SWAP4 SWAP3 SWAP2 SWAP1 DUP2 DUP2 MSTORE PUSH1 0x20 ADD DUP4 DUP4 DUP1 DUP3 DUP5 CALLDATACOPY PUSH0 DUP2 DUP5 ADD MSTORE PUSH1 0x1F NOT PUSH1 0x1F DUP3 ADD AND SWAP1 POP DUP1 DUP4 ADD SWAP3 POP POP POP POP POP POP POP SWAP1 POP SWAP3 SWAP2 POP POP JUMP JUMPDEST PUSH1 0x60 PUSH20 0x5B38DA6A701C568545DCFCB03FCB875F56BEDDC4 PUSH1 0x64 PUSH1 0x40 MLOAD PUSH1 0x24 ADD PUSH2 0x286 SWAP3 SWAP2 SWAP1 PUSH2 0x9F7 JUMP JUMPDEST PUSH1 0x40 MLOAD PUSH1 0x20 DUP2 DUP4 SUB SUB DUP2 MSTORE SWAP1 PUSH1 0x40 MSTORE PUSH32 0xEB21655300000000000000000000000000000000000000000000000000000000 PUSH28 0xFFFFFFFFFFFFFFFFFFFFFFFFFFFFFFFFFFFFFFFFFFFFFFFFFFFFFFFF NOT AND PUSH1 0x20 DUP3 ADD DUP1 MLOAD PUSH28 0xFFFFFFFFFFFFFFFFFFFFFFFFFFFFFFFFFFFFFFFFFFFFFFFFFFFFFFFF DUP4 DUP2 DUP4 AND OR DUP4 MSTORE POP POP POP POP SWAP1 POP SWAP1 JUMP JUMPDEST PUSH0 PUSH32 0xFFFFFFFF00000000000000000000000000000000000000000000000000000000 DUP3 AND SWAP1 POP SWAP2 SWAP1 POP JUMP JUMPDEST PUSH2 0x33C DUP2 PUSH2 0x308 JUMP JUMPDEST DUP3 MSTORE POP POP JUMP JUMPDEST PUSH0 PUSH1 0x20 DUP3 ADD SWAP1 POP PUSH2 0x355 PUSH0 DUP4 ADD DUP5 PUSH2 0x333 JUMP JUMPDEST SWAP3 SWAP2 POP POP JUMP JUMPDEST PUSH0 PUSH1 0x40 MLOAD SWAP1 POP SWAP1 JUMP JUMPDEST PUSH0 PUSH0 REVERT JUMPDEST PUSH0 PUSH0 REVERT JUMPDEST PUSH0 PUSH0 REVERT JUMPDEST PUSH0 PUSH0 REVERT JUMPDEST PUSH0 PUSH1 0x1F NOT PUSH1 0x1F DUP4 ADD AND SWAP1 POP SWAP2 SWAP1 POP JUMP JUMPDEST PUSH32 0x4E487B7100000000000000000000000000000000000000000000000000000000 PUSH0 MSTORE PUSH1 0x41 PUSH1 0x4 MSTORE PUSH1 0x24 PUSH0 REVERT JUMPDEST PUSH2 0x3BA DUP3 PUSH2 0x374 JUMP JUMPDEST DUP2 ADD DUP2 DUP2 LT PUSH8 0xFFFFFFFFFFFFFFFF DUP3 GT OR ISZERO PUSH2 0x3D9 JUMPI PUSH2 0x3D8 PUSH2 0x384 JUMP JUMPDEST JUMPDEST DUP1 PUSH1 0x40 MSTORE POP POP POP JUMP JUMPDEST PUSH0 PUSH2 0x3EB PUSH2 0x35B JUMP JUMPDEST SWAP1 POP PUSH2 0x3F7 DUP3 DUP3 PUSH2 0x3B1 JUMP JUMPDEST SWAP2 SWAP1 POP JUMP JUMPDEST PUSH0 PUSH8 0xFFFFFFFFFFFFFFFF DUP3 GT ISZERO PUSH2 0x416 JUMPI PUSH2 0x415 PUSH2 0x384 JUMP JUMPDEST JUMPDEST PUSH2 0x41F DUP3 PUSH2 0x374 JUMP JUMPDEST SWAP1 POP PUSH1 0x20 DUP2 ADD SWAP1 POP SWAP2 SWAP1 POP JUMP JUMPDEST DUP3 DUP2 DUP4 CALLDATACOPY PUSH0 DUP4 DUP4 ADD MSTORE POP POP POP JUMP JUMPDEST PUSH0 PUSH2 0x44C PUSH2 0x447 DUP5 PUSH2 0x3FC JUMP JUMPDEST PUSH2 0x3E2 JUMP JUMPDEST SWAP1 POP DUP3 DUP2 MSTORE PUSH1 0x20 DUP2 ADD DUP5 DUP5 DUP5 ADD GT ISZERO PUSH2 0x468 JUMPI PUSH2 0x467 PUSH2 0x370 JUMP JUMPDEST JUMPDEST PUSH2 0x473 DUP5 DUP3 DUP6 PUSH2 0x42C JUMP JUMPDEST POP SWAP4 SWAP3 POP POP POP JUMP JUMPDEST PUSH0 DUP3 PUSH1 0x1F DUP4 ADD SLT PUSH2 0x48F JUMPI PUSH2 0x48E PUSH2 0x36C JUMP JUMPDEST JUMPDEST DUP2 CALLDATALOAD PUSH2 0x49F DUP5 DUP3 PUSH1 0x20 DUP7 ADD PUSH2 0x43A JUMP JUMPDEST SWAP2 POP POP SWAP3 SWAP2 POP POP JUMP JUMPDEST PUSH0 PUSH1 0x20 DUP3 DUP5 SUB SLT ISZERO PUSH2 0x4BD JUMPI PUSH2 0x4BC PUSH2 0x364 JUMP JUMPDEST JUMPDEST PUSH0 DUP3 ADD CALLDATALOAD PUSH8 0xFFFFFFFFFFFFFFFF DUP2 GT ISZERO PUSH2 0x4DA JUMPI PUSH2 0x4D9 PUSH2 0x368 JUMP JUMPDEST JUMPDEST PUSH2 0x4E6 DUP5 DUP3 DUP6 ADD PUSH2 0x47B JUMP JUMPDEST SWAP2 POP POP SWAP3 SWAP2 POP POP JUMP JUMPDEST PUSH0 DUP2 MLOAD SWAP1 POP SWAP2 SWAP1 POP JUMP JUMPDEST PUSH0 DUP3 DUP3 MSTORE PUSH1 0x20 DUP3 ADD SWAP1 POP SWAP3 SWAP2 POP POP JUMP JUMPDEST DUP3 DUP2 DUP4 MCOPY PUSH0 DUP4 DUP4 ADD MSTORE POP POP POP JUMP JUMPDEST PUSH0 PUSH2 0x521 DUP3 PUSH2 0x4EF JUMP JUMPDEST PUSH2 0x52B DUP2 DUP6 PUSH2 0x4F9 JUMP JUMPDEST SWAP4 POP PUSH2 0x53B DUP2 DUP6 PUSH1 0x20 DUP7 ADD PUSH2 0x509 JUMP JUMPDEST PUSH2 0x544 DUP2 PUSH2 0x374 JUMP JUMPDEST DUP5 ADD SWAP2 POP POP SWAP3 SWAP2 POP POP JUMP JUMPDEST PUSH0 DUP2 SWAP1 POP SWAP2 SWAP1 POP JUMP JUMPDEST PUSH2 0x561 DUP2 PUSH2 0x54F JUMP JUMPDEST DUP3 MSTORE POP POP JUMP JUMPDEST PUSH0 PUSH1 0x40 DUP3 ADD SWAP1 POP DUP2 DUP2 SUB PUSH0 DUP4 ADD MSTORE PUSH2 0x57F DUP2 DUP6 PUSH2 0x517 JUMP JUMPDEST SWAP1 POP PUSH2 0x58E PUSH1 0x20 DUP4 ADD DUP5 PUSH2 0x558 JUMP JUMPDEST SWAP4 SWAP3 POP POP POP JUMP JUMPDEST PUSH0 PUSH8 0xFFFFFFFFFFFFFFFF DUP3 GT ISZERO PUSH2 0x5AF JUMPI PUSH2 0x5AE PUSH2 0x384 JUMP JUMPDEST JUMPDEST PUSH2 0x5B8 DUP3 PUSH2 0x374 JUMP JUMPDEST SWAP1 POP PUSH1 0x20 DUP2 ADD SWAP1 POP SWAP2 SWAP1 POP JUMP JUMPDEST PUSH0 PUSH2 0x5D7 PUSH2 0x5D2 DUP5 PUSH2 0x595 JUMP JUMPDEST PUSH2 0x3E2 JUMP JUMPDEST SWAP1 POP DUP3 DUP2 MSTORE PUSH1 0x20 DUP2 ADD DUP5 DUP5 DUP5 ADD GT ISZERO PUSH2 0x5F3 JUMPI PUSH2 0x5F2 PUSH2 0x370 JUMP JUMPDEST JUMPDEST PUSH2 0x5FE DUP5 DUP3 DUP6 PUSH2 0x42C JUMP JUMPDEST POP SWAP4 SWAP3 POP POP POP JUMP JUMPDEST PUSH0 DUP3 PUSH1 0x1F DUP4 ADD SLT PUSH2 0x61A JUMPI PUSH2 0x619 PUSH2 0x36C JUMP JUMPDEST JUMPDEST DUP2 CALLDATALOAD PUSH2 0x62A DUP5 DUP3 PUSH1 0x20 DUP7 ADD PUSH2 0x5C5 JUMP JUMPDEST SWAP2 POP POP SWAP3 SWAP2 POP POP JUMP JUMPDEST PUSH2 0x63C DUP2 PUSH2 0x54F JUMP JUMPDEST DUP2 EQ PUSH2 0x646 JUMPI PUSH0 PUSH0 REVERT JUMPDEST POP JUMP JUMPDEST PUSH0 DUP2 CALLDATALOAD SWAP1 POP PUSH2 0x657 DUP2 PUSH2 0x633 JUMP JUMPDEST SWAP3 SWAP2 POP POP JUMP JUMPDEST PUSH0 PUSH0 PUSH1 0x40 DUP4 DUP6 SUB SLT ISZERO PUSH2 0x673 JUMPI PUSH2 0x672 PUSH2 0x364 JUMP JUMPDEST JUMPDEST PUSH0 DUP4 ADD CALLDATALOAD PUSH8 0xFFFFFFFFFFFFFFFF DUP2 GT ISZERO PUSH2 0x690 JUMPI PUSH2 0x68F PUSH2 0x368 JUMP JUMPDEST JUMPDEST PUSH2 0x69C DUP6 DUP3 DUP7 ADD PUSH2 0x606 JUMP JUMPDEST SWAP3 POP POP PUSH1 0x20 PUSH2 0x6AD DUP6 DUP3 DUP7 ADD PUSH2 0x649 JUMP JUMPDEST SWAP2 POP POP SWAP3 POP SWAP3 SWAP1 POP JUMP JUMPDEST PUSH0 DUP2 MLOAD SWAP1 POP SWAP2 SWAP1 POP JUMP JUMPDEST PUSH0 DUP3 DUP3 MSTORE PUSH1 0x20 DUP3 ADD SWAP1 POP SWAP3 SWAP2 POP POP JUMP JUMPDEST PUSH0 PUSH2 0x6DB DUP3 PUSH2 0x6B7 JUMP JUMPDEST PUSH2 0x6E5 DUP2 DUP6 PUSH2 0x6C1 JUMP JUMPDEST SWAP4 POP PUSH2 0x6F5 DUP2 DUP6 PUSH1 0x20 DUP7 ADD PUSH2 0x509 JUMP JUMPDEST PUSH2 0x6FE DUP2 PUSH2 0x374 JUMP JUMPDEST DUP5 ADD SWAP2 POP POP SWAP3 SWAP2 POP POP JUMP JUMPDEST PUSH0 PUSH1 0x40 DUP3 ADD SWAP1 POP DUP2 DUP2 SUB PUSH0 DUP4 ADD MSTORE PUSH2 0x721 DUP2 DUP6 PUSH2 0x6D1 JUMP JUMPDEST SWAP1 POP DUP2 DUP2 SUB PUSH1 0x20 DUP4 ADD MSTORE PUSH2 0x735 DUP2 DUP5 PUSH2 0x6D1 JUMP JUMPDEST SWAP1 POP SWAP4 SWAP3 POP POP POP JUMP JUMPDEST PUSH0 PUSH1 0x20 DUP3 DUP5 SUB SLT ISZERO PUSH2 0x753 JUMPI PUSH2 0x752 PUSH2 0x364 JUMP JUMPDEST JUMPDEST PUSH0 DUP3 ADD CALLDATALOAD PUSH8 0xFFFFFFFFFFFFFFFF DUP2 GT ISZERO PUSH2 0x770 JUMPI PUSH2 0x76F PUSH2 0x368 JUMP JUMPDEST JUMPDEST PUSH2 0x77C DUP5 DUP3 DUP6 ADD PUSH2 0x606 JUMP JUMPDEST SWAP2 POP POP SWAP3 SWAP2 POP POP JUMP JUMPDEST PUSH0 PUSH20 0xFFFFFFFFFFFFFFFFFFFFFFFFFFFFFFFFFFFFFFFF DUP3 AND SWAP1 POP SWAP2 SWAP1 POP JUMP JUMPDEST PUSH0 PUSH2 0x7AE DUP3 PUSH2 0x785 JUMP JUMPDEST SWAP1 POP SWAP2 SWAP1 POP JUMP JUMPDEST PUSH2 0x7BE DUP2 PUSH2 0x7A4 JUMP JUMPDEST DUP2 EQ PUSH2 0x7C8 JUMPI PUSH0 PUSH0 REVERT JUMPDEST POP JUMP JUMPDEST PUSH0 DUP2 CALLDATALOAD SWAP1 POP PUSH2 0x7D9 DUP2 PUSH2 0x7B5 JUMP JUMPDEST SWAP3 SWAP2 POP POP JUMP JUMPDEST PUSH0 PUSH0 PUSH1 0x40 DUP4 DUP6 SUB SLT ISZERO PUSH2 0x7F5 JUMPI PUSH2 0x7F4 PUSH2 0x364 JUMP JUMPDEST JUMPDEST PUSH0 PUSH2 0x802 DUP6 DUP3 DUP7 ADD PUSH2 0x7CB JUMP JUMPDEST SWAP3 POP POP PUSH1 0x20 PUSH2 0x813 DUP6 DUP3 DUP7 ADD PUSH2 0x649 JUMP JUMPDEST SWAP2 POP POP SWAP3 POP SWAP3 SWAP1 POP JUMP JUMPDEST PUSH0 PUSH1 0x20 DUP3 ADD SWAP1 POP DUP2 DUP2 SUB PUSH0 DUP4 ADD MSTORE PUSH2 0x835 DUP2 DUP5 PUSH2 0x6D1 JUMP JUMPDEST SWAP1 POP SWAP3 SWAP2 POP POP JUMP JUMPDEST PUSH0 PUSH2 0x84F PUSH2 0x84A DUP5 PUSH2 0x595 JUMP JUMPDEST PUSH2 0x3E2 JUMP JUMPDEST SWAP1 POP DUP3 DUP2 MSTORE PUSH1 0x20 DUP2 ADD DUP5 DUP5 DUP5 ADD GT ISZERO PUSH2 0x86B JUMPI PUSH2 0x86A PUSH2 0x370 JUMP JUMPDEST JUMPDEST PUSH2 0x876 DUP5 DUP3 DUP6 PUSH2 0x509 JUMP JUMPDEST POP SWAP4 SWAP3 POP POP POP JUMP JUMPDEST PUSH0 DUP3 PUSH1 0x1F DUP4 ADD SLT PUSH2 0x892 JUMPI PUSH2 0x891 PUSH2 0x36C JUMP JUMPDEST JUMPDEST DUP2 MLOAD PUSH2 0x8A2 DUP5 DUP3 PUSH1 0x20 DUP7 ADD PUSH2 0x83D JUMP JUMPDEST SWAP2 POP POP SWAP3 SWAP2 POP POP JUMP JUMPDEST PUSH0 DUP2 MLOAD SWAP1 POP PUSH2 0x8B9 DUP2 PUSH2 0x633 JUMP JUMPDEST SWAP3 SWAP2 POP POP JUMP JUMPDEST PUSH0 PUSH0 PUSH1 0x40 DUP4 DUP6 SUB SLT ISZERO PUSH2 0x8D5 JUMPI PUSH2 0x8D4 PUSH2 0x364 JUMP JUMPDEST JUMPDEST PUSH0 DUP4 ADD MLOAD PUSH8 0xFFFFFFFFFFFFFFFF DUP2 GT ISZERO PUSH2 0x8F2 JUMPI PUSH2 0x8F1 PUSH2 0x368 JUMP JUMPDEST JUMPDEST PUSH2 0x8FE DUP6 DUP3 DUP7 ADD PUSH2 0x87E JUMP JUMPDEST SWAP3 POP POP PUSH1 0x20 PUSH2 0x90F DUP6 DUP3 DUP7 ADD PUSH2 0x8AB JUMP JUMPDEST SWAP2 POP POP SWAP3 POP SWAP3 SWAP1 POP JUMP JUMPDEST PUSH0 DUP2 SWAP1 POP SWAP3 SWAP2 POP POP JUMP JUMPDEST PUSH0 PUSH2 0x92D DUP3 PUSH2 0x4EF JUMP JUMPDEST PUSH2 0x937 DUP2 DUP6 PUSH2 0x919 JUMP JUMPDEST SWAP4 POP PUSH2 0x947 DUP2 DUP6 PUSH1 0x20 DUP7 ADD PUSH2 0x509 JUMP JUMPDEST DUP1 DUP5 ADD SWAP2 POP POP SWAP3 SWAP2 POP POP JUMP JUMPDEST PUSH0 DUP2 SWAP1 POP SWAP2 SWAP1 POP JUMP JUMPDEST PUSH2 0x96D PUSH2 0x968 DUP3 PUSH2 0x54F JUMP JUMPDEST PUSH2 0x953 JUMP JUMPDEST DUP3 MSTORE POP POP JUMP JUMPDEST PUSH0 PUSH2 0x97E DUP3 DUP6 PUSH2 0x923 JUMP JUMPDEST SWAP2 POP PUSH2 0x98A DUP3 DUP5 PUSH2 0x95C JUMP JUMPDEST PUSH1 0x20 DUP3 ADD SWAP2 POP DUP2 SWAP1 POP SWAP4 SWAP3 POP POP POP JUMP JUMPDEST PUSH2 0x9A3 DUP2 PUSH2 0x7A4 JUMP JUMPDEST DUP3 MSTORE POP POP JUMP JUMPDEST PUSH0 DUP2 SWAP1 POP SWAP2 SWAP1 POP JUMP JUMPDEST PUSH0 PUSH1 0xFF DUP3 AND SWAP1 POP SWAP2 SWAP1 POP JUMP JUMPDEST PUSH0 DUP2 SWAP1 POP SWAP2 SWAP1 POP JUMP JUMPDEST PUSH0 PUSH2 0x9E1 PUSH2 0x9DC PUSH2 0x9D7 DUP5 PUSH2 0x9A9 JUMP JUMPDEST PUSH2 0x9BE JUMP JUMPDEST PUSH2 0x9B2 JUMP JUMPDEST SWAP1 POP SWAP2 SWAP1 POP JUMP JUMPDEST PUSH2 0x9F1 DUP2 PUSH2 0x9C7 JUMP JUMPDEST DUP3 MSTORE POP POP JUMP JUMPDEST PUSH0 PUSH1 0x40 DUP3 ADD SWAP1 POP PUSH2 0xA0A PUSH0 DUP4 ADD DUP6 PUSH2 0x99A JUMP JUMPDEST PUSH2 0xA17 PUSH1 0x20 DUP4 ADD DUP5 PUSH2 0x9E8 JUMP JUMPDEST SWAP4 SWAP3 POP POP POP JUMP INVALID LOG2 PUSH5 0x6970667358 0x22 SLT KECCAK256 TIMESTAMP MULMOD KECCAK256 SLOAD PUSH26 0xF5588DF5D30BA34501A59EA697AD058DA738ACC4145660BF234F MSTORE8 PUSH5 0x736F6C6343 STOP ADDMOD 0x1E STOP CALLER "
		},
		"gasEstimates": {
			"creation": {
				"codeDepositCost": "528800",
				"executionCost": "560",
				"totalCost": "529360"
			},
			"external": {
				"computeSelector(string)": "infinite",
				"decodeData(bytes)": "infinite",
				"encodeData(string,uint256)": "infinite",
				"encodeFunctionCall()": "infinite",
				"getSelector()": "324",
				"transfer(address,uint256)": "infinite"
			}
		},
		"methodIdentifiers": {
			"computeSelector(string)": "68bc2ad1",
			"decodeData(bytes)": "447a06f5",
			"encodeData(string,uint256)": "47da7f8e",
			"encodeFunctionCall()": "f435898b",
			"getSelector()": "034899bc",
			"transfer(address,uint256)": "a9059cbb"
		}
	},
	"abi": [
		{
			"inputs": [
				{
					"internalType": "string",
					"name": "func",
					"type": "string"
				}
			],
			"name": "computeSelector",
			"outputs": [
				{
					"internalType": "bytes4",
					"name": "",
					"type": "bytes4"
				}
			],
			"stateMutability": "pure",
			"type": "function"
		},
		{
			"inputs": [
				{
					"internalType": "bytes",
					"name": "encodedData",
					"type": "bytes"
				}
			],
			"name": "decodeData",
			"outputs": [
				{
					"internalType": "string",
					"name": "text",
					"type": "string"
				},
				{
					"internalType": "uint256",
					"name": "number",
					"type": "uint256"
				}
			],
			"stateMutability": "pure",
			"type": "function"
		},
		{
			"inputs": [
				{
					"internalType": "string",
					"name": "text",
					"type": "string"
				},
				{
					"internalType": "uint256",
					"name": "number",
					"type": "uint256"
				}
			],
			"name": "encodeData",
			"outputs": [
				{
					"internalType": "bytes",
					"name": "",
					"type": "bytes"
				},
				{
					"internalType": "bytes",
					"name": "",
					"type": "bytes"
				}
			],
			"stateMutability": "pure",
			"type": "function"
		},
		{
			"inputs": [],
			"name": "encodeFunctionCall",
			"outputs": [
				{
					"internalType": "bytes",
					"name": "",
					"type": "bytes"
				}
			],
			"stateMutability": "pure",
			"type": "function"
		},
		{
			"inputs": [],
			"name": "getSelector",
			"outputs": [
				{
					"internalType": "bytes4",
					"name": "",
					"type": "bytes4"
				}
			],
			"stateMutability": "pure",
			"type": "function"
		},
		{
			"inputs": [
				{
					"internalType": "address",
					"name": "addr",
					"type": "address"
				},
				{
					"internalType": "uint256",
					"name": "amount",
					"type": "uint256"
				}
			],
			"name": "transfer",
			"outputs": [
				{
					"internalType": "bytes",
					"name": "",
					"type": "bytes"
				}
			],
			"stateMutability": "pure",
			"type": "function"
		}
	]
}