{
	"data": {
		"bytecode": {
			"linkReferences": {},
			"object": "6080604052348015600e575f5ffd5b5060c080601a5f395ff3fe6080604052348015600e575f5ffd5b50600436106026575f3560e01c8063bd38216e14602a575b5f5ffd5b60306045565b604051603c9291906067565b60405180910390f35b5f5f4342915091509091565b5f819050919050565b6061816051565b82525050565b5f60408201905060785f830185605a565b60836020830184605a565b939250505056fea2646970667358221220fe9a67a8f1baaba65dffc8b935b1960686e184898805e04a46a37580585f458b64736f6c634300081e0033",
			"opcodes": "PUSH1 0x80 PUSH1 0x40 MSTORE CALLVALUE DUP1 ISZERO PUSH1 0xE JUMPI PUSH0 PUSH0 REVERT JUMPDEST POP PUSH1 0xC0 DUP1 PUSH1 0x1A PUSH0 CODECOPY PUSH0 RETURN INVALID PUSH1 0x80 PUSH1 0x40 MSTORE CALLVALUE DUP1 ISZERO PUSH1 0xE JUMPI PUSH0 PUSH0 REVERT JUMPDEST POP PUSH1 0x4 CALLDATASIZE LT PUSH1 0x26 JUMPI PUSH0 CALLDATALOAD PUSH1 0xE0 SHR DUP1 PUSH4 0xBD38216E EQ PUSH1 0x2A JUMPI JUMPDEST PUSH0 PUSH0 REVERT JUMPDEST PUSH1 0x30 PUSH1 0x45 JUMP JUMPDEST PUSH1 0x40 MLOAD PUSH1 0x3C SWAP3 SWAP2 SWAP1 PUSH1 0x67 JUMP JUMPDEST PUSH1 0x40 MLOAD DUP1 SWAP2 SUB SWAP1 RETURN JUMPDEST PUSH0 PUSH0 NUMBER TIMESTAMP SWAP2 POP SWAP2 POP SWAP1 SWAP2 JUMP JUMPDEST PUSH0 DUP2 SWAP1 POP SWAP2 SWAP1 POP JUMP JUMPDEST PUSH1 0x61 DUP2 PUSH1 0x51 JUMP JUMPDEST DUP3 MSTORE POP POP JUMP JUMPDEST PUSH0 PUSH1 0x40 DUP3 ADD SWAP1 POP PUSH1 0x78 PUSH0 DUP4 ADD DUP6 PUSH1 0x5A JUMP JUMPDEST PUSH1 0x83 PUSH1 0x20 DUP4 ADD DUP5 PUSH1 0x5A JUMP JUMPDEST SWAP4 SWAP3 POP POP POP JUMP INVALID LOG2 PUSH5 0x6970667358 0x22 SLT KECCAK256 INVALID SWAP11 PUSH8 0xA8F1BAABA65DFFC8 0xB9 CALLDATALOAD 0xB1 SWAP7 MOD DUP7 RJUMPI 0x8489 DUP9 SDIV RJUMP 0x4A46 LOG3 PUSH22 0x80585F458B64736F6C634300081E0033000000000000 "
		},
		"gasEstimates": {
			"creation": {
				"codeDepositCost": "38400",
				"executionCost": "85",
				"totalCost": "38485"
			},
			"external": {
				"getBlockDetails()": "infinite"
			}
		},
		"methodIdentifiers": {
			"getBlockDetails()": "bd38216e"
		}
	},
	"abi": [
		{
			"inputs": [],
			"name": "getBlockDetails",
			"outputs": [
				{
					"internalType": "uint256",
					"name": "",
					"type": "uint256"
				},
				{
					"internalType": "uint256",
					"name": "",
					"type": "uint256"
				}
			],
			"stateMutability": "view",
			"type": "function"
		}
	]
}