{
	"data": {
		"bytecode": {
			"linkReferences": {},
			"object": "6080604052348015600e575f5ffd5b506104d38061001c5f395ff3fe608060405260043610610033575f3560e01c806323a9995314610037578063269fd89914610073578063299a7bcc146100a4575b5f5ffd5b348015610042575f5ffd5b5061005d600480360381019061005891906102d8565b6100e0565b60405161006a9190610325565b60405180910390f35b61008d60048036038101906100889190610379565b610167565b60405161009b9291906103cf565b60405180910390f35b3480156100af575f5ffd5b506100ca60048036038101906100c59190610379565b6101f8565b6040516100d79190610325565b60405180910390f35b5f5f8390508073ffffffffffffffffffffffffffffffffffffffff166313af4035846040518263ffffffff1660e01b815260040161011e9190610325565b6020604051808303815f875af115801561013a573d5f5f3e3d5ffd5b505050506040513d601f19601f8201168201806040525081019061015e919061040a565b91505092915050565b5f5f5f5f8573ffffffffffffffffffffffffffffffffffffffff16637ebb71fd34876040518363ffffffff1660e01b81526004016101a59190610325565b604080518083038185885af11580156101c0573d5f5f3e3d5ffd5b50505050506040513d601f19601f820116820180604052508101906101e5919061045f565b9150915081819350935050509250929050565b5f8273ffffffffffffffffffffffffffffffffffffffff166313af4035836040518263ffffffff1660e01b81526004016102329190610325565b6020604051808303815f875af115801561024e573d5f5f3e3d5ffd5b505050506040513d601f19601f82011682018060405250810190610272919061040a565b905092915050565b5f5ffd5b5f73ffffffffffffffffffffffffffffffffffffffff82169050919050565b5f6102a78261027e565b9050919050565b6102b78161029d565b81146102c1575f5ffd5b50565b5f813590506102d2816102ae565b92915050565b5f5f604083850312156102ee576102ed61027a565b5b5f6102fb858286016102c4565b925050602061030c858286016102c4565b9150509250929050565b61031f8161029d565b82525050565b5f6020820190506103385f830184610316565b92915050565b5f6103488261029d565b9050919050565b6103588161033e565b8114610362575f5ffd5b50565b5f813590506103738161034f565b92915050565b5f5f6040838503121561038f5761038e61027a565b5b5f61039c85828601610365565b92505060206103ad858286016102c4565b9150509250929050565b5f819050919050565b6103c9816103b7565b82525050565b5f6040820190506103e25f830185610316565b6103ef60208301846103c0565b9392505050565b5f81519050610404816102ae565b92915050565b5f6020828403121561041f5761041e61027a565b5b5f61042c848285016103f6565b91505092915050565b61043e816103b7565b8114610448575f5ffd5b50565b5f8151905061045981610435565b92915050565b5f5f604083850312156104755761047461027a565b5b5f610482858286016103f6565b92505060206104938582860161044b565b915050925092905056fea26469706673582212200f56a71a698b3802fc10e5c13e1d8506cb606777f3e135ebb09d6c5ead9138d364736f6c634300081e0033",
			"opcodes": "PUSH1 0x80 PUSH1 0x40 MSTORE CALLVALUE DUP1 ISZERO PUSH1 0xE JUMPI PUSH0 PUSH0 REVERT JUMPDEST POP PUSH2 0x4D3 DUP1 PUSH2 0x1C PUSH0 CODECOPY PUSH0 RETURN INVALID PUSH1 0x80 PUSH1 0x40 MSTORE PUSH1 0x4 CALLDATASIZE LT PUSH2 0x33 JUMPI PUSH0 CALLDATALOAD PUSH1 0xE0 SHR DUP1 PUSH4 0x23A99953 EQ PUSH2 0x37 JUMPI DUP1 PUSH4 0x269FD899 EQ PUSH2 0x73 JUMPI DUP1 PUSH4 0x299A7BCC EQ PUSH2 0xA4 JUMPI JUMPDEST PUSH0 PUSH0 REVERT JUMPDEST CALLVALUE DUP1 ISZERO PUSH2 0x42 JUMPI PUSH0 PUSH0 REVERT JUMPDEST POP PUSH2 0x5D PUSH1 0x4 DUP1 CALLDATASIZE SUB DUP2 ADD SWAP1 PUSH2 0x58 SWAP2 SWAP1 PUSH2 0x2D8 JUMP JUMPDEST PUSH2 0xE0 JUMP JUMPDEST PUSH1 0x40 MLOAD PUSH2 0x6A SWAP2 SWAP1 PUSH2 0x325 JUMP JUMPDEST PUSH1 0x40 MLOAD DUP1 SWAP2 SUB SWAP1 RETURN JUMPDEST PUSH2 0x8D PUSH1 0x4 DUP1 CALLDATASIZE SUB DUP2 ADD SWAP1 PUSH2 0x88 SWAP2 SWAP1 PUSH2 0x379 JUMP JUMPDEST PUSH2 0x167 JUMP JUMPDEST PUSH1 0x40 MLOAD PUSH2 0x9B SWAP3 SWAP2 SWAP1 PUSH2 0x3CF JUMP JUMPDEST PUSH1 0x40 MLOAD DUP1 SWAP2 SUB SWAP1 RETURN JUMPDEST CALLVALUE DUP1 ISZERO PUSH2 0xAF JUMPI PUSH0 PUSH0 REVERT JUMPDEST POP PUSH2 0xCA PUSH1 0x4 DUP1 CALLDATASIZE SUB DUP2 ADD SWAP1 PUSH2 0xC5 SWAP2 SWAP1 PUSH2 0x379 JUMP JUMPDEST PUSH2 0x1F8 JUMP JUMPDEST PUSH1 0x40 MLOAD PUSH2 0xD7 SWAP2 SWAP1 PUSH2 0x325 JUMP JUMPDEST PUSH1 0x40 MLOAD DUP1 SWAP2 SUB SWAP1 RETURN JUMPDEST PUSH0 PUSH0 DUP4 SWAP1 POP DUP1 PUSH20 0xFFFFFFFFFFFFFFFFFFFFFFFFFFFFFFFFFFFFFFFF AND PUSH4 0x13AF4035 DUP5 PUSH1 0x40 MLOAD DUP3 PUSH4 0xFFFFFFFF AND PUSH1 0xE0 SHL DUP2 MSTORE PUSH1 0x4 ADD PUSH2 0x11E SWAP2 SWAP1 PUSH2 0x325 JUMP JUMPDEST PUSH1 0x20 PUSH1 0x40 MLOAD DUP1 DUP4 SUB DUP2 PUSH0 DUP8 GAS CALL ISZERO DUP1 ISZERO PUSH2 0x13A JUMPI RETURNDATASIZE PUSH0 PUSH0 RETURNDATACOPY RETURNDATASIZE PUSH0 REVERT JUMPDEST POP POP POP POP PUSH1 0x40 MLOAD RETURNDATASIZE PUSH1 0x1F NOT PUSH1 0x1F DUP3 ADD AND DUP3 ADD DUP1 PUSH1 0x40 MSTORE POP DUP2 ADD SWAP1 PUSH2 0x15E SWAP2 SWAP1 PUSH2 0x40A JUMP JUMPDEST SWAP2 POP POP SWAP3 SWAP2 POP POP JUMP JUMPDEST PUSH0 PUSH0 PUSH0 PUSH0 DUP6 PUSH20 0xFFFFFFFFFFFFFFFFFFFFFFFFFFFFFFFFFFFFFFFF AND PUSH4 0x7EBB71FD CALLVALUE DUP8 PUSH1 0x40 MLOAD DUP4 PUSH4 0xFFFFFFFF AND PUSH1 0xE0 SHL DUP2 MSTORE PUSH1 0x4 ADD PUSH2 0x1A5 SWAP2 SWAP1 PUSH2 0x325 JUMP JUMPDEST PUSH1 0x40 DUP1 MLOAD DUP1 DUP4 SUB DUP2 DUP6 DUP9 GAS CALL ISZERO DUP1 ISZERO PUSH2 0x1C0 JUMPI RETURNDATASIZE PUSH0 PUSH0 RETURNDATACOPY RETURNDATASIZE PUSH0 REVERT JUMPDEST POP POP POP POP POP PUSH1 0x40 MLOAD RETURNDATASIZE PUSH1 0x1F NOT PUSH1 0x1F DUP3 ADD AND DUP3 ADD DUP1 PUSH1 0x40 MSTORE POP DUP2 ADD SWAP1 PUSH2 0x1E5 SWAP2 SWAP1 PUSH2 0x45F JUMP JUMPDEST SWAP2 POP SWAP2 POP DUP2 DUP2 SWAP4 POP SWAP4 POP POP POP SWAP3 POP SWAP3 SWAP1 POP JUMP JUMPDEST PUSH0 DUP3 PUSH20 0xFFFFFFFFFFFFFFFFFFFFFFFFFFFFFFFFFFFFFFFF AND PUSH4 0x13AF4035 DUP4 PUSH1 0x40 MLOAD DUP3 PUSH4 0xFFFFFFFF AND PUSH1 0xE0 SHL DUP2 MSTORE PUSH1 0x4 ADD PUSH2 0x232 SWAP2 SWAP1 PUSH2 0x325 JUMP JUMPDEST PUSH1 0x20 PUSH1 0x40 MLOAD DUP1 DUP4 SUB DUP2 PUSH0 DUP8 GAS CALL ISZERO DUP1 ISZERO PUSH2 0x24E JUMPI RETURNDATASIZE PUSH0 PUSH0 RETURNDATACOPY RETURNDATASIZE PUSH0 REVERT JUMPDEST POP POP POP POP PUSH1 0x40 MLOAD RETURNDATASIZE PUSH1 0x1F NOT PUSH1 0x1F DUP3 ADD AND DUP3 ADD DUP1 PUSH1 0x40 MSTORE POP DUP2 ADD SWAP1 PUSH2 0x272 SWAP2 SWAP1 PUSH2 0x40A JUMP JUMPDEST SWAP1 POP SWAP3 SWAP2 POP POP JUMP JUMPDEST PUSH0 PUSH0 REVERT JUMPDEST PUSH0 PUSH20 0xFFFFFFFFFFFFFFFFFFFFFFFFFFFFFFFFFFFFFFFF DUP3 AND SWAP1 POP SWAP2 SWAP1 POP JUMP JUMPDEST PUSH0 PUSH2 0x2A7 DUP3 PUSH2 0x27E JUMP JUMPDEST SWAP1 POP SWAP2 SWAP1 POP JUMP JUMPDEST PUSH2 0x2B7 DUP2 PUSH2 0x29D JUMP JUMPDEST DUP2 EQ PUSH2 0x2C1 JUMPI PUSH0 PUSH0 REVERT JUMPDEST POP JUMP JUMPDEST PUSH0 DUP2 CALLDATALOAD SWAP1 POP PUSH2 0x2D2 DUP2 PUSH2 0x2AE JUMP JUMPDEST SWAP3 SWAP2 POP POP JUMP JUMPDEST PUSH0 PUSH0 PUSH1 0x40 DUP4 DUP6 SUB SLT ISZERO PUSH2 0x2EE JUMPI PUSH2 0x2ED PUSH2 0x27A JUMP JUMPDEST JUMPDEST PUSH0 PUSH2 0x2FB DUP6 DUP3 DUP7 ADD PUSH2 0x2C4 JUMP JUMPDEST SWAP3 POP POP PUSH1 0x20 PUSH2 0x30C DUP6 DUP3 DUP7 ADD PUSH2 0x2C4 JUMP JUMPDEST SWAP2 POP POP SWAP3 POP SWAP3 SWAP1 POP JUMP JUMPDEST PUSH2 0x31F DUP2 PUSH2 0x29D JUMP JUMPDEST DUP3 MSTORE POP POP JUMP JUMPDEST PUSH0 PUSH1 0x20 DUP3 ADD SWAP1 POP PUSH2 0x338 PUSH0 DUP4 ADD DUP5 PUSH2 0x316 JUMP JUMPDEST SWAP3 SWAP2 POP POP JUMP JUMPDEST PUSH0 PUSH2 0x348 DUP3 PUSH2 0x29D JUMP JUMPDEST SWAP1 POP SWAP2 SWAP1 POP JUMP JUMPDEST PUSH2 0x358 DUP2 PUSH2 0x33E JUMP JUMPDEST DUP2 EQ PUSH2 0x362 JUMPI PUSH0 PUSH0 REVERT JUMPDEST POP JUMP JUMPDEST PUSH0 DUP2 CALLDATALOAD SWAP1 POP PUSH2 0x373 DUP2 PUSH2 0x34F JUMP JUMPDEST SWAP3 SWAP2 POP POP JUMP JUMPDEST PUSH0 PUSH0 PUSH1 0x40 DUP4 DUP6 SUB SLT ISZERO PUSH2 0x38F JUMPI PUSH2 0x38E PUSH2 0x27A JUMP JUMPDEST JUMPDEST PUSH0 PUSH2 0x39C DUP6 DUP3 DUP7 ADD PUSH2 0x365 JUMP JUMPDEST SWAP3 POP POP PUSH1 0x20 PUSH2 0x3AD DUP6 DUP3 DUP7 ADD PUSH2 0x2C4 JUMP JUMPDEST SWAP2 POP POP SWAP3 POP SWAP3 SWAP1 POP JUMP JUMPDEST PUSH0 DUP2 SWAP1 POP SWAP2 SWAP1 POP JUMP JUMPDEST PUSH2 0x3C9 DUP2 PUSH2 0x3B7 JUMP JUMPDEST DUP3 MSTORE POP POP JUMP JUMPDEST PUSH0 PUSH1 0x40 DUP3 ADD SWAP1 POP PUSH2 0x3E2 PUSH0 DUP4 ADD DUP6 PUSH2 0x316 JUMP JUMPDEST PUSH2 0x3EF PUSH1 0x20 DUP4 ADD DUP5 PUSH2 0x3C0 JUMP JUMPDEST SWAP4 SWAP3 POP POP POP JUMP JUMPDEST PUSH0 DUP2 MLOAD SWAP1 POP PUSH2 0x404 DUP2 PUSH2 0x2AE JUMP JUMPDEST SWAP3 SWAP2 POP POP JUMP JUMPDEST PUSH0 PUSH1 0x20 DUP3 DUP5 SUB SLT ISZERO PUSH2 0x41F JUMPI PUSH2 0x41E PUSH2 0x27A JUMP JUMPDEST JUMPDEST PUSH0 PUSH2 0x42C DUP5 DUP3 DUP6 ADD PUSH2 0x3F6 JUMP JUMPDEST SWAP2 POP POP SWAP3 SWAP2 POP POP JUMP JUMPDEST PUSH2 0x43E DUP2 PUSH2 0x3B7 JUMP JUMPDEST DUP2 EQ PUSH2 0x448 JUMPI PUSH0 PUSH0 REVERT JUMPDEST POP JUMP JUMPDEST PUSH0 DUP2 MLOAD SWAP1 POP PUSH2 0x459 DUP2 PUSH2 0x435 JUMP JUMPDEST SWAP3 SWAP2 POP POP JUMP JUMPDEST PUSH0 PUSH0 PUSH1 0x40 DUP4 DUP6 SUB SLT ISZERO PUSH2 0x475 JUMPI PUSH2 0x474 PUSH2 0x27A JUMP JUMPDEST JUMPDEST PUSH0 PUSH2 0x482 DUP6 DUP3 DUP7 ADD PUSH2 0x3F6 JUMP JUMPDEST SWAP3 POP POP PUSH1 0x20 PUSH2 0x493 DUP6 DUP3 DUP7 ADD PUSH2 0x44B JUMP JUMPDEST SWAP2 POP POP SWAP3 POP SWAP3 SWAP1 POP JUMP INVALID LOG2 PUSH5 0x6970667358 0x22 SLT KECCAK256 0xF JUMP 0xA7 BYTE PUSH10 0x8B3802FC10E5C13E1D85 MOD 0xCB PUSH1 0x67 PUSH24 0xF3E135EBB09D6C5EAD9138D364736F6C634300081E003300 "
		},
		"gasEstimates": {
			"creation": {
				"codeDepositCost": "247000",
				"executionCost": "285",
				"totalCost": "247285"
			},
			"external": {
				"setOwner(address,address)": "infinite",
				"setOwnerAndSendEth(address,address)": "infinite",
				"setOwnerFromAddress(address,address)": "infinite"
			}
		},
		"methodIdentifiers": {
			"setOwner(address,address)": "299a7bcc",
			"setOwnerAndSendEth(address,address)": "269fd899",
			"setOwnerFromAddress(address,address)": "23a99953"
		}
	},
	"abi": [
		{
			"inputs": [
				{
					"internalType": "contract Callee",
					"name": "_callee",
					"type": "address"
				},
				{
					"internalType": "address",
					"name": "_newOwner",
					"type": "address"
				}
			],
			"name": "setOwner",
			"outputs": [
				{
					"internalType": "address",
					"name": "",
					"type": "address"
				}
			],
			"stateMutability": "nonpayable",
			"type": "function"
		},
		{
			"inputs": [
				{
					"internalType": "contract Callee",
					"name": "_callee",
					"type": "address"
				},
				{
					"internalType": "address",
					"name": "_newOwner",
					"type": "address"
				}
			],
			"name": "setOwnerAndSendEth",
			"outputs": [
				{
					"internalType": "address",
					"name": "",
					"type": "address"
				},
				{
					"internalType": "uint256",
					"name": "",
					"type": "uint256"
				}
			],
			"stateMutability": "payable",
			"type": "function"
		},
		{
			"inputs": [
				{
					"internalType": "address",
					"name": "_addr",
					"type": "address"
				},
				{
					"internalType": "address",
					"name": "_newOwner",
					"type": "address"
				}
			],
			"name": "setOwnerFromAddress",
			"outputs": [
				{
					"internalType": "address",
					"name": "",
					"type": "address"
				}
			],
			"stateMutability": "nonpayable",
			"type": "function"
		}
	]
}