{
	"data": {
		"bytecode": {
			"linkReferences": {},
			"object": "6080604052348015600e575f5ffd5b5060fe8061001b5f395ff3fe6080604052348015600e575f5ffd5b50600436106030575f3560e01c8063d737d0c7146034578063f96757d114604e575b5f5ffd5b603a6068565b6040516045919060b1565b60405180910390f35b6054606f565b604051605f919060b1565b60405180910390f35b5f33905090565b5f32905090565b5f73ffffffffffffffffffffffffffffffffffffffff82169050919050565b5f609d826076565b9050919050565b60ab816095565b82525050565b5f60208201905060c25f83018460a4565b9291505056fea26469706673582212203fa101ce5885118443cf80bae63efad6a91b2f4b6a215eb2e8b9a0fa2e46c8f264736f6c634300081e0033",
			"opcodes": "PUSH1 0x80 PUSH1 0x40 MSTORE CALLVALUE DUP1 ISZERO PUSH1 0xE JUMPI PUSH0 PUSH0 REVERT JUMPDEST POP PUSH1 0xFE DUP1 PUSH2 0x1B PUSH0 CODECOPY PUSH0 RETURN INVALID PUSH1 0x80 PUSH1 0x40 MSTORE CALLVALUE DUP1 ISZERO PUSH1 0xE JUMPI PUSH0 PUSH0 REVERT JUMPDEST POP PUSH1 0x4 CALLDATASIZE LT PUSH1 0x30 JUMPI PUSH0 CALLDATALOAD PUSH1 0xE0 SHR DUP1 PUSH4 0xD737D0C7 EQ PUSH1 0x34 JUMPI DUP1 PUSH4 0xF96757D1 EQ PUSH1 0x4E JUMPI JUMPDEST PUSH0 PUSH0 REVERT JUMPDEST PUSH1 0x3A PUSH1 0x68 JUMP JUMPDEST PUSH1 0x40 MLOAD PUSH1 0x45 SWAP2 SWAP1 PUSH1 0xB1 JUMP JUMPDEST PUSH1 0x40 MLOAD DUP1 SWAP2 SUB SWAP1 RETURN JUMPDEST PUSH1 0x54 PUSH1 0x6F JUMP JUMPDEST PUSH1 0x40 MLOAD PUSH1 0x5F SWAP2 SWAP1 PUSH1 0xB1 JUMP JUMPDEST PUSH1 0x40 MLOAD DUP1 SWAP2 SUB SWAP1 RETURN JUMPDEST PUSH0 CALLER SWAP1 POP SWAP1 JUMP JUMPDEST PUSH0 ORIGIN SWAP1 POP SWAP1 JUMP JUMPDEST PUSH0 PUSH20 0xFFFFFFFFFFFFFFFFFFFFFFFFFFFFFFFFFFFFFFFF DUP3 AND SWAP1 POP SWAP2 SWAP1 POP JUMP JUMPDEST PUSH0 PUSH1 0x9D DUP3 PUSH1 0x76 JUMP JUMPDEST SWAP1 POP SWAP2 SWAP1 POP JUMP JUMPDEST PUSH1 0xAB DUP2 PUSH1 0x95 JUMP JUMPDEST DUP3 MSTORE POP POP JUMP JUMPDEST PUSH0 PUSH1 0x20 DUP3 ADD SWAP1 POP PUSH1 0xC2 PUSH0 DUP4 ADD DUP5 PUSH1 0xA4 JUMP JUMPDEST SWAP3 SWAP2 POP POP JUMP INVALID LOG2 PUSH5 0x6970667358 0x22 SLT KECCAK256 EXTCODEHASH LOG1 ADD 0xCE PC DUP6 GT DUP5 NUMBER 0xCF DUP1 0xBA DUPN 0x3E STATICCALL 0xD6 0xA9 SHL 0x2F 0x4B PUSH11 0x215EB2E8B9A0FA2E46C8F2 PUSH5 0x736F6C6343 STOP ADDMOD 0x1E STOP CALLER "
		},
		"gasEstimates": {
			"creation": {
				"codeDepositCost": "50800",
				"executionCost": "97",
				"totalCost": "50897"
			},
			"external": {
				"msgSender()": "357",
				"txOrigin()": "379"
			}
		},
		"methodIdentifiers": {
			"msgSender()": "d737d0c7",
			"txOrigin()": "f96757d1"
		}
	},
	"abi": [
		{
			"inputs": [],
			"name": "msgSender",
			"outputs": [
				{
					"internalType": "address",
					"name": "",
					"type": "address"
				}
			],
			"stateMutability": "view",
			"type": "function"
		},
		{
			"inputs": [],
			"name": "txOrigin",
			"outputs": [
				{
					"internalType": "address",
					"name": "",
					"type": "address"
				}
			],
			"stateMutability": "view",
			"type": "function"
		}
	]
}