{
	"data": {
		"bytecode": {
			"linkReferences": {},
			"object": "608060405260015f5560036001556004600255348015601c575f5ffd5b506103ae8061002a5f395ff3fe608060405234801561000f575f5ffd5b506004361061004a575f3560e01c806342b148aa1461004e5780634b73383f1461006c57806359f127551461008a5780639ecfddf9146100a8575b5f5ffd5b6100566100c6565b6040516100639190610208565b60405180910390f35b6100746100e8565b6040516100819190610208565b60405180910390f35b61009261010b565b60405161009f9190610208565b60405180910390f35b6100b0610111565b6040516100bd9190610291565b60405180910390f35b5f5f546002546002546100d991906102de565b6100e391906102de565b905090565b5f6002546001546001546100fc91906102de565b61010691906102de565b905090565b60015481565b606061011b6100e8565b506101246101ce565b503073ffffffffffffffffffffffffffffffffffffffff166342b148aa6040518163ffffffff1660e01b8152600401602060405180830381865afa15801561016e573d5f5f3e3d5ffd5b505050506040513d601f19601f82011682018060405250810190610192919061034d565b506040518060400160405280601481526020017f4368696c64652041636365737320506172656e74000000000000000000000000815250905090565b5f5f546002546002546101e191906102de565b6101eb91906102de565b905090565b5f819050919050565b610202816101f0565b82525050565b5f60208201905061021b5f8301846101f9565b92915050565b5f81519050919050565b5f82825260208201905092915050565b8281835e5f83830152505050565b5f601f19601f8301169050919050565b5f61026382610221565b61026d818561022b565b935061027d81856020860161023b565b61028681610249565b840191505092915050565b5f6020820190508181035f8301526102a98184610259565b905092915050565b7f4e487b71000000000000000000000000000000000000000000000000000000005f52601160045260245ffd5b5f6102e8826101f0565b91506102f3836101f0565b92508282019050828112155f8312168382125f841215161715610319576103186102b1565b5b92915050565b5f5ffd5b61032c816101f0565b8114610336575f5ffd5b50565b5f8151905061034781610323565b92915050565b5f602082840312156103625761036161031f565b5b5f61036f84828501610339565b9150509291505056fea264697066735822122049f966027c9671e106bf684c643dc58c6144792c55803f89d92339005b45305264736f6c634300081e0033",
			"opcodes": "PUSH1 0x80 PUSH1 0x40 MSTORE PUSH1 0x1 PUSH0 SSTORE PUSH1 0x3 PUSH1 0x1 SSTORE PUSH1 0x4 PUSH1 0x2 SSTORE CALLVALUE DUP1 ISZERO PUSH1 0x1C JUMPI PUSH0 PUSH0 REVERT JUMPDEST POP PUSH2 0x3AE DUP1 PUSH2 0x2A PUSH0 CODECOPY PUSH0 RETURN INVALID PUSH1 0x80 PUSH1 0x40 MSTORE CALLVALUE DUP1 ISZERO PUSH2 0xF JUMPI PUSH0 PUSH0 REVERT JUMPDEST POP PUSH1 0x4 CALLDATASIZE LT PUSH2 0x4A JUMPI PUSH0 CALLDATALOAD PUSH1 0xE0 SHR DUP1 PUSH4 0x42B148AA EQ PUSH2 0x4E JUMPI DUP1 PUSH4 0x4B73383F EQ PUSH2 0x6C JUMPI DUP1 PUSH4 0x59F12755 EQ PUSH2 0x8A JUMPI DUP1 PUSH4 0x9ECFDDF9 EQ PUSH2 0xA8 JUMPI JUMPDEST PUSH0 PUSH0 REVERT JUMPDEST PUSH2 0x56 PUSH2 0xC6 JUMP JUMPDEST PUSH1 0x40 MLOAD PUSH2 0x63 SWAP2 SWAP1 PUSH2 0x208 JUMP JUMPDEST PUSH1 0x40 MLOAD DUP1 SWAP2 SUB SWAP1 RETURN JUMPDEST PUSH2 0x74 PUSH2 0xE8 JUMP JUMPDEST PUSH1 0x40 MLOAD PUSH2 0x81 SWAP2 SWAP1 PUSH2 0x208 JUMP JUMPDEST PUSH1 0x40 MLOAD DUP1 SWAP2 SUB SWAP1 RETURN JUMPDEST PUSH2 0x92 PUSH2 0x10B JUMP JUMPDEST PUSH1 0x40 MLOAD PUSH2 0x9F SWAP2 SWAP1 PUSH2 0x208 JUMP JUMPDEST PUSH1 0x40 MLOAD DUP1 SWAP2 SUB SWAP1 RETURN JUMPDEST PUSH2 0xB0 PUSH2 0x111 JUMP JUMPDEST PUSH1 0x40 MLOAD PUSH2 0xBD SWAP2 SWAP1 PUSH2 0x291 JUMP JUMPDEST PUSH1 0x40 MLOAD DUP1 SWAP2 SUB SWAP1 RETURN JUMPDEST PUSH0 PUSH0 SLOAD PUSH1 0x2 SLOAD PUSH1 0x2 SLOAD PUSH2 0xD9 SWAP2 SWAP1 PUSH2 0x2DE JUMP JUMPDEST PUSH2 0xE3 SWAP2 SWAP1 PUSH2 0x2DE JUMP JUMPDEST SWAP1 POP SWAP1 JUMP JUMPDEST PUSH0 PUSH1 0x2 SLOAD PUSH1 0x1 SLOAD PUSH1 0x1 SLOAD PUSH2 0xFC SWAP2 SWAP1 PUSH2 0x2DE JUMP JUMPDEST PUSH2 0x106 SWAP2 SWAP1 PUSH2 0x2DE JUMP JUMPDEST SWAP1 POP SWAP1 JUMP JUMPDEST PUSH1 0x1 SLOAD DUP2 JUMP JUMPDEST PUSH1 0x60 PUSH2 0x11B PUSH2 0xE8 JUMP JUMPDEST POP PUSH2 0x124 PUSH2 0x1CE JUMP JUMPDEST POP ADDRESS PUSH20 0xFFFFFFFFFFFFFFFFFFFFFFFFFFFFFFFFFFFFFFFF AND PUSH4 0x42B148AA PUSH1 0x40 MLOAD DUP2 PUSH4 0xFFFFFFFF AND PUSH1 0xE0 SHL DUP2 MSTORE PUSH1 0x4 ADD PUSH1 0x20 PUSH1 0x40 MLOAD DUP1 DUP4 SUB DUP2 DUP7 GAS STATICCALL ISZERO DUP1 ISZERO PUSH2 0x16E JUMPI RETURNDATASIZE PUSH0 PUSH0 RETURNDATACOPY RETURNDATASIZE PUSH0 REVERT JUMPDEST POP POP POP POP PUSH1 0x40 MLOAD RETURNDATASIZE PUSH1 0x1F NOT PUSH1 0x1F DUP3 ADD AND DUP3 ADD DUP1 PUSH1 0x40 MSTORE POP DUP2 ADD SWAP1 PUSH2 0x192 SWAP2 SWAP1 PUSH2 0x34D JUMP JUMPDEST POP PUSH1 0x40 MLOAD DUP1 PUSH1 0x40 ADD PUSH1 0x40 MSTORE DUP1 PUSH1 0x14 DUP2 MSTORE PUSH1 0x20 ADD PUSH32 0x4368696C64652041636365737320506172656E74000000000000000000000000 DUP2 MSTORE POP SWAP1 POP SWAP1 JUMP JUMPDEST PUSH0 PUSH0 SLOAD PUSH1 0x2 SLOAD PUSH1 0x2 SLOAD PUSH2 0x1E1 SWAP2 SWAP1 PUSH2 0x2DE JUMP JUMPDEST PUSH2 0x1EB SWAP2 SWAP1 PUSH2 0x2DE JUMP JUMPDEST SWAP1 POP SWAP1 JUMP JUMPDEST PUSH0 DUP2 SWAP1 POP SWAP2 SWAP1 POP JUMP JUMPDEST PUSH2 0x202 DUP2 PUSH2 0x1F0 JUMP JUMPDEST DUP3 MSTORE POP POP JUMP JUMPDEST PUSH0 PUSH1 0x20 DUP3 ADD SWAP1 POP PUSH2 0x21B PUSH0 DUP4 ADD DUP5 PUSH2 0x1F9 JUMP JUMPDEST SWAP3 SWAP2 POP POP JUMP JUMPDEST PUSH0 DUP2 MLOAD SWAP1 POP SWAP2 SWAP1 POP JUMP JUMPDEST PUSH0 DUP3 DUP3 MSTORE PUSH1 0x20 DUP3 ADD SWAP1 POP SWAP3 SWAP2 POP POP JUMP JUMPDEST DUP3 DUP2 DUP4 MCOPY PUSH0 DUP4 DUP4 ADD MSTORE POP POP POP JUMP JUMPDEST PUSH0 PUSH1 0x1F NOT PUSH1 0x1F DUP4 ADD AND SWAP1 POP SWAP2 SWAP1 POP JUMP JUMPDEST PUSH0 PUSH2 0x263 DUP3 PUSH2 0x221 JUMP JUMPDEST PUSH2 0x26D DUP2 DUP6 PUSH2 0x22B JUMP JUMPDEST SWAP4 POP PUSH2 0x27D DUP2 DUP6 PUSH1 0x20 DUP7 ADD PUSH2 0x23B JUMP JUMPDEST PUSH2 0x286 DUP2 PUSH2 0x249 JUMP JUMPDEST DUP5 ADD SWAP2 POP POP SWAP3 SWAP2 POP POP JUMP JUMPDEST PUSH0 PUSH1 0x20 DUP3 ADD SWAP1 POP DUP2 DUP2 SUB PUSH0 DUP4 ADD MSTORE PUSH2 0x2A9 DUP2 DUP5 PUSH2 0x259 JUMP JUMPDEST SWAP1 POP SWAP3 SWAP2 POP POP JUMP JUMPDEST PUSH32 0x4E487B7100000000000000000000000000000000000000000000000000000000 PUSH0 MSTORE PUSH1 0x11 PUSH1 0x4 MSTORE PUSH1 0x24 PUSH0 REVERT JUMPDEST PUSH0 PUSH2 0x2E8 DUP3 PUSH2 0x1F0 JUMP JUMPDEST SWAP2 POP PUSH2 0x2F3 DUP4 PUSH2 0x1F0 JUMP JUMPDEST SWAP3 POP DUP3 DUP3 ADD SWAP1 POP DUP3 DUP2 SLT ISZERO PUSH0 DUP4 SLT AND DUP4 DUP3 SLT PUSH0 DUP5 SLT ISZERO AND OR ISZERO PUSH2 0x319 JUMPI PUSH2 0x318 PUSH2 0x2B1 JUMP JUMPDEST JUMPDEST SWAP3 SWAP2 POP POP JUMP JUMPDEST PUSH0 PUSH0 REVERT JUMPDEST PUSH2 0x32C DUP2 PUSH2 0x1F0 JUMP JUMPDEST DUP2 EQ PUSH2 0x336 JUMPI PUSH0 PUSH0 REVERT JUMPDEST POP JUMP JUMPDEST PUSH0 DUP2 MLOAD SWAP1 POP PUSH2 0x347 DUP2 PUSH2 0x323 JUMP JUMPDEST SWAP3 SWAP2 POP POP JUMP JUMPDEST PUSH0 PUSH1 0x20 DUP3 DUP5 SUB SLT ISZERO PUSH2 0x362 JUMPI PUSH2 0x361 PUSH2 0x31F JUMP JUMPDEST JUMPDEST PUSH0 PUSH2 0x36F DUP5 DUP3 DUP6 ADD PUSH2 0x339 JUMP JUMPDEST SWAP2 POP POP SWAP3 SWAP2 POP POP JUMP INVALID LOG2 PUSH5 0x6970667358 0x22 SLT KECCAK256 BLOBHASH EXTDELEGATECALL PUSH7 0x27C9671E106BF PUSH9 0x4C643DC58C6144792C SSTORE DUP1 EXTCODEHASH DUP10 0xD9 0x23 CODECOPY STOP JUMPDEST GASLIMIT ADDRESS MSTORE PUSH5 0x736F6C6343 STOP ADDMOD 0x1E STOP CALLER "
		},
		"gasEstimates": {
			"creation": {
				"codeDepositCost": "188400",
				"executionCost": "66547",
				"totalCost": "254947"
			},
			"external": {
				"accessParent()": "infinite",
				"externalFunc()": "infinite",
				"publicFunc()": "infinite",
				"publicValue()": "2447"
			}
		},
		"methodIdentifiers": {
			"accessParent()": "9ecfddf9",
			"externalFunc()": "42b148aa",
			"publicFunc()": "4b73383f",
			"publicValue()": "59f12755"
		}
	},
	"abi": [
		{
			"inputs": [],
			"name": "accessParent",
			"outputs": [
				{
					"internalType": "string",
					"name": "",
					"type": "string"
				}
			],
			"stateMutability": "view",
			"type": "function"
		},
		{
			"inputs": [],
			"name": "externalFunc",
			"outputs": [
				{
					"internalType": "int256",
					"name": "",
					"type": "int256"
				}
			],
			"stateMutability": "view",
			"type": "function"
		},
		{
			"inputs": [],
			"name": "publicFunc",
			"outputs": [
				{
					"internalType": "int256",
					"name": "",
					"type": "int256"
				}
			],
			"stateMutability": "view",
			"type": "function"
		},
		{
			"inputs": [],
			"name": "publicValue",
			"outputs": [
				{
					"internalType": "int256",
					"name": "",
					"type": "int256"
				}
			],
			"stateMutability": "view",
			"type": "function"
		}
	]
}