{
	"data": {
		"bytecode": {
			"linkReferences": {},
			"object": "6080604052348015600e575f5ffd5b506105e08061001c5f395ff3fe608060405234801561000f575f5ffd5b506004361061003f575f3560e01c806309d90c00146100435780637b7fb98214610073578063d595966e146100a3575b5f5ffd5b61005d60048036038101906100589190610207565b6100d3565b60405161006a919061025d565b60405180910390f35b61008d600480360381019061008891906103b2565b610105565b60405161009a919061025d565b60405180910390f35b6100bd60048036038101906100b891906103b2565b610137565b6040516100ca919061025d565b60405180910390f35b5f82826040516020016100e792919061048d565b60405160208183030381529060405280519060200120905092915050565b5f828260405160200161011992919061050a565b60405160208183030381529060405280519060200120905092915050565b5f828260405160200161014b929190610575565b60405160208183030381529060405280519060200120905092915050565b5f604051905090565b5f5ffd5b5f5ffd5b5f819050919050565b61018c8161017a565b8114610196575f5ffd5b50565b5f813590506101a781610183565b92915050565b5f73ffffffffffffffffffffffffffffffffffffffff82169050919050565b5f6101d6826101ad565b9050919050565b6101e6816101cc565b81146101f0575f5ffd5b50565b5f81359050610201816101dd565b92915050565b5f5f6040838503121561021d5761021c610172565b5b5f61022a85828601610199565b925050602061023b858286016101f3565b9150509250929050565b5f819050919050565b61025781610245565b82525050565b5f6020820190506102705f83018461024e565b92915050565b5f5ffd5b5f5ffd5b5f601f19601f8301169050919050565b7f4e487b71000000000000000000000000000000000000000000000000000000005f52604160045260245ffd5b6102c48261027e565b810181811067ffffffffffffffff821117156102e3576102e261028e565b5b80604052505050565b5f6102f5610169565b905061030182826102bb565b919050565b5f67ffffffffffffffff8211156103205761031f61028e565b5b6103298261027e565b9050602081019050919050565b828183375f83830152505050565b5f61035661035184610306565b6102ec565b9050828152602081018484840111156103725761037161027a565b5b61037d848285610336565b509392505050565b5f82601f83011261039957610398610276565b5b81356103a9848260208601610344565b91505092915050565b5f5f604083850312156103c8576103c7610172565b5b5f83013567ffffffffffffffff8111156103e5576103e4610176565b5b6103f185828601610385565b925050602083013567ffffffffffffffff81111561041257610411610176565b5b61041e85828601610385565b9150509250929050565b5f819050919050565b61044261043d8261017a565b610428565b82525050565b5f8160601b9050919050565b5f61045e82610448565b9050919050565b5f61046f82610454565b9050919050565b610487610482826101cc565b610465565b82525050565b5f6104988285610431565b6020820191506104a88284610476565b6014820191508190509392505050565b5f81519050919050565b5f81905092915050565b8281835e5f83830152505050565b5f6104e4826104b8565b6104ee81856104c2565b93506104fe8185602086016104cc565b80840191505092915050565b5f61051582856104da565b915061052182846104da565b91508190509392505050565b5f82825260208201905092915050565b5f610547826104b8565b610551818561052d565b93506105618185602086016104cc565b61056a8161027e565b840191505092915050565b5f6040820190508181035f83015261058d818561053d565b905081810360208301526105a1818461053d565b9050939250505056fea264697066735822122076987fdd1698626bd9447c4f44b6bfd5fc513370735d952ee0d28b9fea87483a64736f6c634300081e0033",
			"opcodes": "PUSH1 0x80 PUSH1 0x40 MSTORE CALLVALUE DUP1 ISZERO PUSH1 0xE JUMPI PUSH0 PUSH0 REVERT JUMPDEST POP PUSH2 0x5E0 DUP1 PUSH2 0x1C PUSH0 CODECOPY PUSH0 RETURN INVALID PUSH1 0x80 PUSH1 0x40 MSTORE CALLVALUE DUP1 ISZERO PUSH2 0xF JUMPI PUSH0 PUSH0 REVERT JUMPDEST POP PUSH1 0x4 CALLDATASIZE LT PUSH2 0x3F JUMPI PUSH0 CALLDATALOAD PUSH1 0xE0 SHR DUP1 PUSH4 0x9D90C00 EQ PUSH2 0x43 JUMPI DUP1 PUSH4 0x7B7FB982 EQ PUSH2 0x73 JUMPI DUP1 PUSH4 0xD595966E EQ PUSH2 0xA3 JUMPI JUMPDEST PUSH0 PUSH0 REVERT JUMPDEST PUSH2 0x5D PUSH1 0x4 DUP1 CALLDATASIZE SUB DUP2 ADD SWAP1 PUSH2 0x58 SWAP2 SWAP1 PUSH2 0x207 JUMP JUMPDEST PUSH2 0xD3 JUMP JUMPDEST PUSH1 0x40 MLOAD PUSH2 0x6A SWAP2 SWAP1 PUSH2 0x25D JUMP JUMPDEST PUSH1 0x40 MLOAD DUP1 SWAP2 SUB SWAP1 RETURN JUMPDEST PUSH2 0x8D PUSH1 0x4 DUP1 CALLDATASIZE SUB DUP2 ADD SWAP1 PUSH2 0x88 SWAP2 SWAP1 PUSH2 0x3B2 JUMP JUMPDEST PUSH2 0x105 JUMP JUMPDEST PUSH1 0x40 MLOAD PUSH2 0x9A SWAP2 SWAP1 PUSH2 0x25D JUMP JUMPDEST PUSH1 0x40 MLOAD DUP1 SWAP2 SUB SWAP1 RETURN JUMPDEST PUSH2 0xBD PUSH1 0x4 DUP1 CALLDATASIZE SUB DUP2 ADD SWAP1 PUSH2 0xB8 SWAP2 SWAP1 PUSH2 0x3B2 JUMP JUMPDEST PUSH2 0x137 JUMP JUMPDEST PUSH1 0x40 MLOAD PUSH2 0xCA SWAP2 SWAP1 PUSH2 0x25D JUMP JUMPDEST PUSH1 0x40 MLOAD DUP1 SWAP2 SUB SWAP1 RETURN JUMPDEST PUSH0 DUP3 DUP3 PUSH1 0x40 MLOAD PUSH1 0x20 ADD PUSH2 0xE7 SWAP3 SWAP2 SWAP1 PUSH2 0x48D JUMP JUMPDEST PUSH1 0x40 MLOAD PUSH1 0x20 DUP2 DUP4 SUB SUB DUP2 MSTORE SWAP1 PUSH1 0x40 MSTORE DUP1 MLOAD SWAP1 PUSH1 0x20 ADD KECCAK256 SWAP1 POP SWAP3 SWAP2 POP POP JUMP JUMPDEST PUSH0 DUP3 DUP3 PUSH1 0x40 MLOAD PUSH1 0x20 ADD PUSH2 0x119 SWAP3 SWAP2 SWAP1 PUSH2 0x50A JUMP JUMPDEST PUSH1 0x40 MLOAD PUSH1 0x20 DUP2 DUP4 SUB SUB DUP2 MSTORE SWAP1 PUSH1 0x40 MSTORE DUP1 MLOAD SWAP1 PUSH1 0x20 ADD KECCAK256 SWAP1 POP SWAP3 SWAP2 POP POP JUMP JUMPDEST PUSH0 DUP3 DUP3 PUSH1 0x40 MLOAD PUSH1 0x20 ADD PUSH2 0x14B SWAP3 SWAP2 SWAP1 PUSH2 0x575 JUMP JUMPDEST PUSH1 0x40 MLOAD PUSH1 0x20 DUP2 DUP4 SUB SUB DUP2 MSTORE SWAP1 PUSH1 0x40 MSTORE DUP1 MLOAD SWAP1 PUSH1 0x20 ADD KECCAK256 SWAP1 POP SWAP3 SWAP2 POP POP JUMP JUMPDEST PUSH0 PUSH1 0x40 MLOAD SWAP1 POP SWAP1 JUMP JUMPDEST PUSH0 PUSH0 REVERT JUMPDEST PUSH0 PUSH0 REVERT JUMPDEST PUSH0 DUP2 SWAP1 POP SWAP2 SWAP1 POP JUMP JUMPDEST PUSH2 0x18C DUP2 PUSH2 0x17A JUMP JUMPDEST DUP2 EQ PUSH2 0x196 JUMPI PUSH0 PUSH0 REVERT JUMPDEST POP JUMP JUMPDEST PUSH0 DUP2 CALLDATALOAD SWAP1 POP PUSH2 0x1A7 DUP2 PUSH2 0x183 JUMP JUMPDEST SWAP3 SWAP2 POP POP JUMP JUMPDEST PUSH0 PUSH20 0xFFFFFFFFFFFFFFFFFFFFFFFFFFFFFFFFFFFFFFFF DUP3 AND SWAP1 POP SWAP2 SWAP1 POP JUMP JUMPDEST PUSH0 PUSH2 0x1D6 DUP3 PUSH2 0x1AD JUMP JUMPDEST SWAP1 POP SWAP2 SWAP1 POP JUMP JUMPDEST PUSH2 0x1E6 DUP2 PUSH2 0x1CC JUMP JUMPDEST DUP2 EQ PUSH2 0x1F0 JUMPI PUSH0 PUSH0 REVERT JUMPDEST POP JUMP JUMPDEST PUSH0 DUP2 CALLDATALOAD SWAP1 POP PUSH2 0x201 DUP2 PUSH2 0x1DD JUMP JUMPDEST SWAP3 SWAP2 POP POP JUMP JUMPDEST PUSH0 PUSH0 PUSH1 0x40 DUP4 DUP6 SUB SLT ISZERO PUSH2 0x21D JUMPI PUSH2 0x21C PUSH2 0x172 JUMP JUMPDEST JUMPDEST PUSH0 PUSH2 0x22A DUP6 DUP3 DUP7 ADD PUSH2 0x199 JUMP JUMPDEST SWAP3 POP POP PUSH1 0x20 PUSH2 0x23B DUP6 DUP3 DUP7 ADD PUSH2 0x1F3 JUMP JUMPDEST SWAP2 POP POP SWAP3 POP SWAP3 SWAP1 POP JUMP JUMPDEST PUSH0 DUP2 SWAP1 POP SWAP2 SWAP1 POP JUMP JUMPDEST PUSH2 0x257 DUP2 PUSH2 0x245 JUMP JUMPDEST DUP3 MSTORE POP POP JUMP JUMPDEST PUSH0 PUSH1 0x20 DUP3 ADD SWAP1 POP PUSH2 0x270 PUSH0 DUP4 ADD DUP5 PUSH2 0x24E JUMP JUMPDEST SWAP3 SWAP2 POP POP JUMP JUMPDEST PUSH0 PUSH0 REVERT JUMPDEST PUSH0 PUSH0 REVERT JUMPDEST PUSH0 PUSH1 0x1F NOT PUSH1 0x1F DUP4 ADD AND SWAP1 POP SWAP2 SWAP1 POP JUMP JUMPDEST PUSH32 0x4E487B7100000000000000000000000000000000000000000000000000000000 PUSH0 MSTORE PUSH1 0x41 PUSH1 0x4 MSTORE PUSH1 0x24 PUSH0 REVERT JUMPDEST PUSH2 0x2C4 DUP3 PUSH2 0x27E JUMP JUMPDEST DUP2 ADD DUP2 DUP2 LT PUSH8 0xFFFFFFFFFFFFFFFF DUP3 GT OR ISZERO PUSH2 0x2E3 JUMPI PUSH2 0x2E2 PUSH2 0x28E JUMP JUMPDEST JUMPDEST DUP1 PUSH1 0x40 MSTORE POP POP POP JUMP JUMPDEST PUSH0 PUSH2 0x2F5 PUSH2 0x169 JUMP JUMPDEST SWAP1 POP PUSH2 0x301 DUP3 DUP3 PUSH2 0x2BB JUMP JUMPDEST SWAP2 SWAP1 POP JUMP JUMPDEST PUSH0 PUSH8 0xFFFFFFFFFFFFFFFF DUP3 GT ISZERO PUSH2 0x320 JUMPI PUSH2 0x31F PUSH2 0x28E JUMP JUMPDEST JUMPDEST PUSH2 0x329 DUP3 PUSH2 0x27E JUMP JUMPDEST SWAP1 POP PUSH1 0x20 DUP2 ADD SWAP1 POP SWAP2 SWAP1 POP JUMP JUMPDEST DUP3 DUP2 DUP4 CALLDATACOPY PUSH0 DUP4 DUP4 ADD MSTORE POP POP POP JUMP JUMPDEST PUSH0 PUSH2 0x356 PUSH2 0x351 DUP5 PUSH2 0x306 JUMP JUMPDEST PUSH2 0x2EC JUMP JUMPDEST SWAP1 POP DUP3 DUP2 MSTORE PUSH1 0x20 DUP2 ADD DUP5 DUP5 DUP5 ADD GT ISZERO PUSH2 0x372 JUMPI PUSH2 0x371 PUSH2 0x27A JUMP JUMPDEST JUMPDEST PUSH2 0x37D DUP5 DUP3 DUP6 PUSH2 0x336 JUMP JUMPDEST POP SWAP4 SWAP3 POP POP POP JUMP JUMPDEST PUSH0 DUP3 PUSH1 0x1F DUP4 ADD SLT PUSH2 0x399 JUMPI PUSH2 0x398 PUSH2 0x276 JUMP JUMPDEST JUMPDEST DUP2 CALLDATALOAD PUSH2 0x3A9 DUP5 DUP3 PUSH1 0x20 DUP7 ADD PUSH2 0x344 JUMP JUMPDEST SWAP2 POP POP SWAP3 SWAP2 POP POP JUMP JUMPDEST PUSH0 PUSH0 PUSH1 0x40 DUP4 DUP6 SUB SLT ISZERO PUSH2 0x3C8 JUMPI PUSH2 0x3C7 PUSH2 0x172 JUMP JUMPDEST JUMPDEST PUSH0 DUP4 ADD CALLDATALOAD PUSH8 0xFFFFFFFFFFFFFFFF DUP2 GT ISZERO PUSH2 0x3E5 JUMPI PUSH2 0x3E4 PUSH2 0x176 JUMP JUMPDEST JUMPDEST PUSH2 0x3F1 DUP6 DUP3 DUP7 ADD PUSH2 0x385 JUMP JUMPDEST SWAP3 POP POP PUSH1 0x20 DUP4 ADD CALLDATALOAD PUSH8 0xFFFFFFFFFFFFFFFF DUP2 GT ISZERO PUSH2 0x412 JUMPI PUSH2 0x411 PUSH2 0x176 JUMP JUMPDEST JUMPDEST PUSH2 0x41E DUP6 DUP3 DUP7 ADD PUSH2 0x385 JUMP JUMPDEST SWAP2 POP POP SWAP3 POP SWAP3 SWAP1 POP JUMP JUMPDEST PUSH0 DUP2 SWAP1 POP SWAP2 SWAP1 POP JUMP JUMPDEST PUSH2 0x442 PUSH2 0x43D DUP3 PUSH2 0x17A JUMP JUMPDEST PUSH2 0x428 JUMP JUMPDEST DUP3 MSTORE POP POP JUMP JUMPDEST PUSH0 DUP2 PUSH1 0x60 SHL SWAP1 POP SWAP2 SWAP1 POP JUMP JUMPDEST PUSH0 PUSH2 0x45E DUP3 PUSH2 0x448 JUMP JUMPDEST SWAP1 POP SWAP2 SWAP1 POP JUMP JUMPDEST PUSH0 PUSH2 0x46F DUP3 PUSH2 0x454 JUMP JUMPDEST SWAP1 POP SWAP2 SWAP1 POP JUMP JUMPDEST PUSH2 0x487 PUSH2 0x482 DUP3 PUSH2 0x1CC JUMP JUMPDEST PUSH2 0x465 JUMP JUMPDEST DUP3 MSTORE POP POP JUMP JUMPDEST PUSH0 PUSH2 0x498 DUP3 DUP6 PUSH2 0x431 JUMP JUMPDEST PUSH1 0x20 DUP3 ADD SWAP2 POP PUSH2 0x4A8 DUP3 DUP5 PUSH2 0x476 JUMP JUMPDEST PUSH1 0x14 DUP3 ADD SWAP2 POP DUP2 SWAP1 POP SWAP4 SWAP3 POP POP POP JUMP JUMPDEST PUSH0 DUP2 MLOAD SWAP1 POP SWAP2 SWAP1 POP JUMP JUMPDEST PUSH0 DUP2 SWAP1 POP SWAP3 SWAP2 POP POP JUMP JUMPDEST DUP3 DUP2 DUP4 MCOPY PUSH0 DUP4 DUP4 ADD MSTORE POP POP POP JUMP JUMPDEST PUSH0 PUSH2 0x4E4 DUP3 PUSH2 0x4B8 JUMP JUMPDEST PUSH2 0x4EE DUP2 DUP6 PUSH2 0x4C2 JUMP JUMPDEST SWAP4 POP PUSH2 0x4FE DUP2 DUP6 PUSH1 0x20 DUP7 ADD PUSH2 0x4CC JUMP JUMPDEST DUP1 DUP5 ADD SWAP2 POP POP SWAP3 SWAP2 POP POP JUMP JUMPDEST PUSH0 PUSH2 0x515 DUP3 DUP6 PUSH2 0x4DA JUMP JUMPDEST SWAP2 POP PUSH2 0x521 DUP3 DUP5 PUSH2 0x4DA JUMP JUMPDEST SWAP2 POP DUP2 SWAP1 POP SWAP4 SWAP3 POP POP POP JUMP JUMPDEST PUSH0 DUP3 DUP3 MSTORE PUSH1 0x20 DUP3 ADD SWAP1 POP SWAP3 SWAP2 POP POP JUMP JUMPDEST PUSH0 PUSH2 0x547 DUP3 PUSH2 0x4B8 JUMP JUMPDEST PUSH2 0x551 DUP2 DUP6 PUSH2 0x52D JUMP JUMPDEST SWAP4 POP PUSH2 0x561 DUP2 DUP6 PUSH1 0x20 DUP7 ADD PUSH2 0x4CC JUMP JUMPDEST PUSH2 0x56A DUP2 PUSH2 0x27E JUMP JUMPDEST DUP5 ADD SWAP2 POP POP SWAP3 SWAP2 POP POP JUMP JUMPDEST PUSH0 PUSH1 0x40 DUP3 ADD SWAP1 POP DUP2 DUP2 SUB PUSH0 DUP4 ADD MSTORE PUSH2 0x58D DUP2 DUP6 PUSH2 0x53D JUMP JUMPDEST SWAP1 POP DUP2 DUP2 SUB PUSH1 0x20 DUP4 ADD MSTORE PUSH2 0x5A1 DUP2 DUP5 PUSH2 0x53D JUMP JUMPDEST SWAP1 POP SWAP4 SWAP3 POP POP POP JUMP INVALID LOG2 PUSH5 0x6970667358 0x22 SLT KECCAK256 PUSH23 0x987FDD1698626BD9447C4F44B6BFD5FC513370735D952E RJUMP 0xD28B SWAP16 0xEA DUP8 BASEFEE GASPRICE PUSH5 0x736F6C6343 STOP ADDMOD 0x1E STOP CALLER "
		},
		"gasEstimates": {
			"creation": {
				"codeDepositCost": "300800",
				"executionCost": "335",
				"totalCost": "301135"
			},
			"external": {
				"collision(string,string)": "infinite",
				"notClilision(string,string)": "infinite",
				"usePacked(uint256,address)": "infinite"
			}
		},
		"methodIdentifiers": {
			"collision(string,string)": "7b7fb982",
			"notClilision(string,string)": "d595966e",
			"usePacked(uint256,address)": "09d90c00"
		}
	},
	"abi": [
		{
			"inputs": [
				{
					"internalType": "string",
					"name": "_txt",
					"type": "string"
				},
				{
					"internalType": "string",
					"name": "_otherTxt",
					"type": "string"
				}
			],
			"name": "collision",
			"outputs": [
				{
					"internalType": "bytes32",
					"name": "",
					"type": "bytes32"
				}
			],
			"stateMutability": "pure",
			"type": "function"
		},
		{
			"inputs": [
				{
					"internalType": "string",
					"name": "_txt",
					"type": "string"
				},
				{
					"internalType": "string",
					"name": "_otherTxt",
					"type": "string"
				}
			],
			"name": "notClilision",
			"outputs": [
				{
					"internalType": "bytes32",
					"name": "",
					"type": "bytes32"
				}
			],
			"stateMutability": "pure",
			"type": "function"
		},
		{
			"inputs": [
				{
					"internalType": "uint256",
					"name": "_num",
					"type": "uint256"
				},
				{
					"internalType": "address",
					"name": "_addr",
					"type": "address"
				}
			],
			"name": "usePacked",
			"outputs": [
				{
					"internalType": "bytes32",
					"name": "",
					"type": "bytes32"
				}
			],
			"stateMutability": "pure",
			"type": "function"
		}
	]
}