{
	"data": {
		"bytecode": {
			"linkReferences": {},
			"object": "6080604052348015600e575f5ffd5b506103308061001c5f395ff3fe608060405260043610610021575f3560e01c8063c5d1c9951461005d57610022565b5b7f0b76c48be4e2908f4c9d4eabaf7538e91577fd9ae26db46693fa8d861c6a42fb5f3660405161005392919061011c565b60405180910390a1005b348015610068575f5ffd5b50610083600480360381019061007e91906102a0565b610085565b005b7f0b76c48be4e2908f4c9d4eabaf7538e91577fd9ae26db46693fa8d861c6a42fb5f366040516100b692919061011c565b60405180910390a15050565b5f82825260208201905092915050565b828183375f83830152505050565b5f601f19601f8301169050919050565b5f6100fb83856100c2565b93506101088385846100d2565b610111836100e0565b840190509392505050565b5f6020820190508181035f8301526101358184866100f0565b90509392505050565b5f604051905090565b5f5ffd5b5f5ffd5b5f819050919050565b6101618161014f565b811461016b575f5ffd5b50565b5f8135905061017c81610158565b92915050565b5f5ffd5b5f5ffd5b7f4e487b71000000000000000000000000000000000000000000000000000000005f52604160045260245ffd5b6101c0826100e0565b810181811067ffffffffffffffff821117156101df576101de61018a565b5b80604052505050565b5f6101f161013e565b90506101fd82826101b7565b919050565b5f67ffffffffffffffff82111561021c5761021b61018a565b5b610225826100e0565b9050602081019050919050565b5f61024461023f84610202565b6101e8565b9050828152602081018484840111156102605761025f610186565b5b61026b8482856100d2565b509392505050565b5f82601f83011261028757610286610182565b5b8135610297848260208601610232565b91505092915050565b5f5f604083850312156102b6576102b5610147565b5b5f6102c38582860161016e565b925050602083013567ffffffffffffffff8111156102e4576102e361014b565b5b6102f085828601610273565b915050925092905056fea2646970667358221220cb0159ad6837dc7e07f9c5e00044fbf844679ced9f7ac116eb43965a13f8ad8e64736f6c634300081e0033",
			"opcodes": "PUSH1 0x80 PUSH1 0x40 MSTORE CALLVALUE DUP1 ISZERO PUSH1 0xE JUMPI PUSH0 PUSH0 REVERT JUMPDEST POP PUSH2 0x330 DUP1 PUSH2 0x1C PUSH0 CODECOPY PUSH0 RETURN INVALID PUSH1 0x80 PUSH1 0x40 MSTORE PUSH1 0x4 CALLDATASIZE LT PUSH2 0x21 JUMPI PUSH0 CALLDATALOAD PUSH1 0xE0 SHR DUP1 PUSH4 0xC5D1C995 EQ PUSH2 0x5D JUMPI PUSH2 0x22 JUMP JUMPDEST JUMPDEST PUSH32 0xB76C48BE4E2908F4C9D4EABAF7538E91577FD9AE26DB46693FA8D861C6A42FB PUSH0 CALLDATASIZE PUSH1 0x40 MLOAD PUSH2 0x53 SWAP3 SWAP2 SWAP1 PUSH2 0x11C JUMP JUMPDEST PUSH1 0x40 MLOAD DUP1 SWAP2 SUB SWAP1 LOG1 STOP JUMPDEST CALLVALUE DUP1 ISZERO PUSH2 0x68 JUMPI PUSH0 PUSH0 REVERT JUMPDEST POP PUSH2 0x83 PUSH1 0x4 DUP1 CALLDATASIZE SUB DUP2 ADD SWAP1 PUSH2 0x7E SWAP2 SWAP1 PUSH2 0x2A0 JUMP JUMPDEST PUSH2 0x85 JUMP JUMPDEST STOP JUMPDEST PUSH32 0xB76C48BE4E2908F4C9D4EABAF7538E91577FD9AE26DB46693FA8D861C6A42FB PUSH0 CALLDATASIZE PUSH1 0x40 MLOAD PUSH2 0xB6 SWAP3 SWAP2 SWAP1 PUSH2 0x11C JUMP JUMPDEST PUSH1 0x40 MLOAD DUP1 SWAP2 SUB SWAP1 LOG1 POP POP JUMP JUMPDEST PUSH0 DUP3 DUP3 MSTORE PUSH1 0x20 DUP3 ADD SWAP1 POP SWAP3 SWAP2 POP POP JUMP JUMPDEST DUP3 DUP2 DUP4 CALLDATACOPY PUSH0 DUP4 DUP4 ADD MSTORE POP POP POP JUMP JUMPDEST PUSH0 PUSH1 0x1F NOT PUSH1 0x1F DUP4 ADD AND SWAP1 POP SWAP2 SWAP1 POP JUMP JUMPDEST PUSH0 PUSH2 0xFB DUP4 DUP6 PUSH2 0xC2 JUMP JUMPDEST SWAP4 POP PUSH2 0x108 DUP4 DUP6 DUP5 PUSH2 0xD2 JUMP JUMPDEST PUSH2 0x111 DUP4 PUSH2 0xE0 JUMP JUMPDEST DUP5 ADD SWAP1 POP SWAP4 SWAP3 POP POP POP JUMP JUMPDEST PUSH0 PUSH1 0x20 DUP3 ADD SWAP1 POP DUP2 DUP2 SUB PUSH0 DUP4 ADD MSTORE PUSH2 0x135 DUP2 DUP5 DUP7 PUSH2 0xF0 JUMP JUMPDEST SWAP1 POP SWAP4 SWAP3 POP POP POP JUMP JUMPDEST PUSH0 PUSH1 0x40 MLOAD SWAP1 POP SWAP1 JUMP JUMPDEST PUSH0 PUSH0 REVERT JUMPDEST PUSH0 PUSH0 REVERT JUMPDEST PUSH0 DUP2 SWAP1 POP SWAP2 SWAP1 POP JUMP JUMPDEST PUSH2 0x161 DUP2 PUSH2 0x14F JUMP JUMPDEST DUP2 EQ PUSH2 0x16B JUMPI PUSH0 PUSH0 REVERT JUMPDEST POP JUMP JUMPDEST PUSH0 DUP2 CALLDATALOAD SWAP1 POP PUSH2 0x17C DUP2 PUSH2 0x158 JUMP JUMPDEST SWAP3 SWAP2 POP POP JUMP JUMPDEST PUSH0 PUSH0 REVERT JUMPDEST PUSH0 PUSH0 REVERT JUMPDEST PUSH32 0x4E487B7100000000000000000000000000000000000000000000000000000000 PUSH0 MSTORE PUSH1 0x41 PUSH1 0x4 MSTORE PUSH1 0x24 PUSH0 REVERT JUMPDEST PUSH2 0x1C0 DUP3 PUSH2 0xE0 JUMP JUMPDEST DUP2 ADD DUP2 DUP2 LT PUSH8 0xFFFFFFFFFFFFFFFF DUP3 GT OR ISZERO PUSH2 0x1DF JUMPI PUSH2 0x1DE PUSH2 0x18A JUMP JUMPDEST JUMPDEST DUP1 PUSH1 0x40 MSTORE POP POP POP JUMP JUMPDEST PUSH0 PUSH2 0x1F1 PUSH2 0x13E JUMP JUMPDEST SWAP1 POP PUSH2 0x1FD DUP3 DUP3 PUSH2 0x1B7 JUMP JUMPDEST SWAP2 SWAP1 POP JUMP JUMPDEST PUSH0 PUSH8 0xFFFFFFFFFFFFFFFF DUP3 GT ISZERO PUSH2 0x21C JUMPI PUSH2 0x21B PUSH2 0x18A JUMP JUMPDEST JUMPDEST PUSH2 0x225 DUP3 PUSH2 0xE0 JUMP JUMPDEST SWAP1 POP PUSH1 0x20 DUP2 ADD SWAP1 POP SWAP2 SWAP1 POP JUMP JUMPDEST PUSH0 PUSH2 0x244 PUSH2 0x23F DUP5 PUSH2 0x202 JUMP JUMPDEST PUSH2 0x1E8 JUMP JUMPDEST SWAP1 POP DUP3 DUP2 MSTORE PUSH1 0x20 DUP2 ADD DUP5 DUP5 DUP5 ADD GT ISZERO PUSH2 0x260 JUMPI PUSH2 0x25F PUSH2 0x186 JUMP JUMPDEST JUMPDEST PUSH2 0x26B DUP5 DUP3 DUP6 PUSH2 0xD2 JUMP JUMPDEST POP SWAP4 SWAP3 POP POP POP JUMP JUMPDEST PUSH0 DUP3 PUSH1 0x1F DUP4 ADD SLT PUSH2 0x287 JUMPI PUSH2 0x286 PUSH2 0x182 JUMP JUMPDEST JUMPDEST DUP2 CALLDATALOAD PUSH2 0x297 DUP5 DUP3 PUSH1 0x20 DUP7 ADD PUSH2 0x232 JUMP JUMPDEST SWAP2 POP POP SWAP3 SWAP2 POP POP JUMP JUMPDEST PUSH0 PUSH0 PUSH1 0x40 DUP4 DUP6 SUB SLT ISZERO PUSH2 0x2B6 JUMPI PUSH2 0x2B5 PUSH2 0x147 JUMP JUMPDEST JUMPDEST PUSH0 PUSH2 0x2C3 DUP6 DUP3 DUP7 ADD PUSH2 0x16E JUMP JUMPDEST SWAP3 POP POP PUSH1 0x20 DUP4 ADD CALLDATALOAD PUSH8 0xFFFFFFFFFFFFFFFF DUP2 GT ISZERO PUSH2 0x2E4 JUMPI PUSH2 0x2E3 PUSH2 0x14B JUMP JUMPDEST JUMPDEST PUSH2 0x2F0 DUP6 DUP3 DUP7 ADD PUSH2 0x273 JUMP JUMPDEST SWAP2 POP POP SWAP3 POP SWAP3 SWAP1 POP JUMP INVALID LOG2 PUSH5 0x6970667358 0x22 SLT KECCAK256 0xCB ADD MSIZE 0xAD PUSH9 0x37DC7E07F9C5E00044 EXTSTATICCALL EXTCALL PREVRANDAO PUSH8 0x9CED9F7AC116EB43 SWAP7 GAS SGT EXTCALL 0xAD DUP15 PUSH5 0x736F6C6343 STOP ADDMOD 0x1E STOP CALLER "
		},
		"gasEstimates": {
			"creation": {
				"codeDepositCost": "163200",
				"executionCost": "206",
				"totalCost": "163406"
			},
			"external": {
				"": "infinite",
				"foo(uint256,string)": "infinite"
			}
		},
		"methodIdentifiers": {
			"foo(uint256,string)": "c5d1c995"
		}
	},
	"abi": [
		{
			"anonymous": false,
			"inputs": [
				{
					"indexed": false,
					"internalType": "bytes",
					"name": "data",
					"type": "bytes"
				}
			],
			"name": "Data",
			"type": "event"
		},
		{
			"stateMutability": "payable",
			"type": "fallback"
		},
		{
			"inputs": [
				{
					"internalType": "uint256",
					"name": "x",
					"type": "uint256"
				},
				{
					"internalType": "string",
					"name": "y",
					"type": "string"
				}
			],
			"name": "foo",
			"outputs": [],
			"stateMutability": "nonpayable",
			"type": "function"
		}
	]
}